{
  "_format": "hh3-artifact-1",
  "contractName": "Groth16Verifier",
  "sourceName": "contracts/Verifier.sol",
  "abi": [
    {
      "inputs": [],
      "stateMutability": "nonpayable",
      "type": "constructor"
    },
    {
      "inputs": [
        {
          "internalType": "uint256[2]",
          "name": "_pA",
          "type": "uint256[2]"
        },
        {
          "internalType": "uint256[2][2]",
          "name": "_pB",
          "type": "uint256[2][2]"
        },
        {
          "internalType": "uint256[2]",
          "name": "_pC",
          "type": "uint256[2]"
        },
        {
          "internalType": "uint256[5]",
          "name": "_pubSignals",
          "type": "uint256[5]"
        }
      ],
      "name": "verifyProof",
      "outputs": [
        {
          "internalType": "bool",
          "name": "",
          "type": "bool"
        }
      ],
      "stateMutability": "view",
      "type": "function"
    }
  ],
  "bytecode": "0x608080604052346015576106d7908161001a8239f35b5f80fdfe60806040526004361015610011575f80fd5b5f3560e01c6334baeab914610024575f80fd5b346103a0576101a03660031901126103a05761003f366103a4565b3660c4116103a057610050366103b1565b366101a4116103a0577f30644e72e131a029b85045b68181585d97816a916871ca8d3c208c16d87cfd476020809361040060405261013761010435610094816103bf565b610132610124356100a4816103bf565b61012d610144356100b4816103bf565b61012861016435936100c5856103bf565b61012361018435976100d6896103bf565b7f1727ee2d40786f7202c1ed658a915b11f717a0cc525e4b241483a263926aaf216080527f10eea2a8e41c64b4012773982a776cc066e32c74aa1aabf4dfcb2c27232d256760a0526103f0565b610479565b610503565b61058d565b610617565b80356101005201358103066101205260443561014052606435610160526084356101805260a4356101a0527f27a4c39d674dbb967fd9015b63d38d23affdfbc82f02719d4cd5be02da800f486101c0527f09166ff5bd5a06295d3c66751902de7e7b60e3aec0d014e58939123056a351086101e0527f2c11d732b55c36cd09200408baaa8ad00945f7c13e8926b0c40fb000aa195569610200527f0463efd582106c58308a700d3dd16333e423ee307882b996414544c49bb12528610220527f08da0046d0fbc09f078ea2af672a6f37c4de0f09aacbbc792fb4e8e0460f663d610240527f29b6176639041e78d9c8dc285fc5cac05812119d567e43a1115dcca83cc5d929610260526080516102805260a0516102a0527f198e9393920d483a7260bfb731fb5d25f1aa493335a9e71297e485b7aef312c26102c0527f1800deef121f1e76426a00665e5c4479674322d4f75edadd46debd5cd992f6ed6102e0527f090689d0585ff075ec9e99ad690c3395bc4b313370b38ef355acdadcd122975b610300527f12c85ea5db8c6deb4aab71808dcb408fe3d1e7690c43d37b4ce6cc0166fa7daa610320528035610340520135610360527f1257a0b04a6849ef86974fd4c92bd9072eb51910bf6680ebecf6ee5bbdfb1cc2610380527f0c68206a0b40748333df02e313947889115d7d9464487065b78b866ad5e080a96103a0527f130ccf0e4bf431a8e2c3aa903b2f715be9e2f777af892659bf5d3cba012c2d6b6103c0527f15d51f210f299c04a37f477a39dd1c9c6ede704c5682c3d7979bf8307455d6d26103e05260206101006103008160086107cf195a01fa61010051165f5260205ff35b5f80fd5b906004916044116103a057565b9060c491610104116103a057565b7f30644e72e131a029b85045b68181585d2833e84879b9709143e1f593f000000111156103e857565b5f805260205ff35b6040517ed5eb1bf03b8ae3ac1623cdf39efecc00d7701a9acd3d11ffb4839ace0eb8a781527f179dcba86deafb27572b8b3c1b686a5fe4b4c3eca1aa1b47fbc9bd37fdc9783360208201526040810191825260408160608160076107cf195a01fa156103e857608080916040938251905260a051606082015260066107cf195a01fa156103e857565b6040517f252e4be21252cb8a100ba11234c429e73299689ba790d66439b6e0923e9eaffa81527f26205cbfd7845dd4d685644da3ccec3306b6dcf149f96865e6a26d53781b8a7460208201526040810191825260408160608160076107cf195a01fa156103e857608080916040938251905260a051606082015260066107cf195a01fa156103e857565b6040517f1652d76c17d6ea3fc9cf38188335ff9c43a32ae3db9a85c4eb0519306a5c247681527f2fbbdbbaaf9807d09516e7489f62b928b7232e89dbb41d6f4c49b6ffe233f1fd60208201526040810191825260408160608160076107cf195a01fa156103e857608080916040938251905260a051606082015260066107cf195a01fa156103e857565b6040517f1d3be77beb840503c2d92bb9084274aeaf7d28362e1b1b55bc96cb5acb55500e81527f14f4c9577a194ec5fcdbdda5f0911c987b22f98b70b7361246932620b5b1c10660208201526040810191825260408160608160076107cf195a01fa156103e857608080916040938251905260a051606082015260066107cf195a01fa156103e857565b6040517f10b76815ac00a4b208121dbdfb35c35a1454e2b61178181f8a6597ceb366a2b781527f13e25499a1f174c73b2caa3fb63e33c9c45b98f2ad26388677a1ddbfc831c58960208201526040810191825260408160608160076107cf195a01fa156103e857608080916040938251905260a051606082015260066107cf195a01fa156103e85756fea26469706673582212204ae4a7a6abe70e74a1b133a0a416a6d8d83112cdb6a7d274506becf78bdbc07b64736f6c634300081c0033",
  "linkReferences": {},
  "deployedLinkReferences": {},
  "immutableReferences": {},
  "inputSourceName": "project/contracts/Verifier_new.sol",
  "buildInfoId": "solc-0_8_28-38ef847bdb16efaf136ddc0e06aa9a8b941651dd"
}