{
  "_format": "hh3-artifact-1",
  "contractName": "MafiaPortal",
  "sourceName": "contracts/MafiaPortal.sol",
  "abi": [
    {
      "inputs": [],
      "name": "AlreadyJoined",
      "type": "error"
    },
    {
      "inputs": [],
      "name": "AlreadyRevealed",
      "type": "error"
    },
    {
      "inputs": [],
      "name": "InvalidDeckSize",
      "type": "error"
    },
    {
      "inputs": [],
      "name": "InvalidReveal",
      "type": "error"
    },
    {
      "inputs": [],
      "name": "NoStalledPlayers",
      "type": "error"
    },
    {
      "inputs": [],
      "name": "NotParticipant",
      "type": "error"
    },
    {
      "inputs": [],
      "name": "NotYourTurn",
      "type": "error"
    },
    {
      "inputs": [],
      "name": "PlayerInactive",
      "type": "error"
    },
    {
      "inputs": [],
      "name": "RoomFull",
      "type": "error"
    },
    {
      "inputs": [],
      "name": "TimeNotExpired",
      "type": "error"
    },
    {
      "inputs": [],
      "name": "Unauthorized",
      "type": "error"
    },
    {
      "inputs": [],
      "name": "WrongPhase",
      "type": "error"
    },
    {
      "anonymous": false,
      "inputs": [
        {
          "indexed": true,
          "internalType": "uint256",
          "name": "roomId",
          "type": "uint256"
        },
        {
          "indexed": false,
          "internalType": "uint256",
          "name": "dayNumber",
          "type": "uint256"
        }
      ],
      "name": "DayStarted",
      "type": "event"
    },
    {
      "anonymous": false,
      "inputs": [
        {
          "indexed": true,
          "internalType": "uint256",
          "name": "roomId",
          "type": "uint256"
        },
        {
          "indexed": false,
          "internalType": "address",
          "name": "byPlayer",
          "type": "address"
        },
        {
          "indexed": false,
          "internalType": "uint256",
          "name": "nextIndex",
          "type": "uint256"
        }
      ],
      "name": "DeckSubmitted",
      "type": "event"
    },
    {
      "anonymous": false,
      "inputs": [
        {
          "indexed": true,
          "internalType": "uint256",
          "name": "roomId",
          "type": "uint256"
        },
        {
          "indexed": false,
          "internalType": "string",
          "name": "reason",
          "type": "string"
        }
      ],
      "name": "GameEnded",
      "type": "event"
    },
    {
      "anonymous": false,
      "inputs": [
        {
          "indexed": true,
          "internalType": "uint256",
          "name": "roomId",
          "type": "uint256"
        }
      ],
      "name": "GameStarted",
      "type": "event"
    },
    {
      "anonymous": false,
      "inputs": [
        {
          "indexed": true,
          "internalType": "uint256",
          "name": "roomId",
          "type": "uint256"
        },
        {
          "indexed": false,
          "internalType": "address",
          "name": "from",
          "type": "address"
        },
        {
          "indexed": false,
          "internalType": "address",
          "name": "to",
          "type": "address"
        }
      ],
      "name": "KeyShared",
      "type": "event"
    },
    {
      "anonymous": false,
      "inputs": [
        {
          "indexed": true,
          "internalType": "uint256",
          "name": "roomId",
          "type": "uint256"
        },
        {
          "indexed": false,
          "internalType": "address",
          "name": "player",
          "type": "address"
        }
      ],
      "name": "NightActionCommitted",
      "type": "event"
    },
    {
      "anonymous": false,
      "inputs": [
        {
          "indexed": true,
          "internalType": "uint256",
          "name": "roomId",
          "type": "uint256"
        },
        {
          "indexed": false,
          "internalType": "address",
          "name": "player",
          "type": "address"
        },
        {
          "indexed": false,
          "internalType": "enum MafiaPortal.NightActionType",
          "name": "action",
          "type": "uint8"
        }
      ],
      "name": "NightActionRevealed",
      "type": "event"
    },
    {
      "anonymous": false,
      "inputs": [
        {
          "indexed": true,
          "internalType": "uint256",
          "name": "roomId",
          "type": "uint256"
        }
      ],
      "name": "NightStarted",
      "type": "event"
    },
    {
      "anonymous": false,
      "inputs": [
        {
          "indexed": true,
          "internalType": "uint256",
          "name": "roomId",
          "type": "uint256"
        },
        {
          "indexed": false,
          "internalType": "address",
          "name": "player",
          "type": "address"
        },
        {
          "indexed": false,
          "internalType": "string",
          "name": "reason",
          "type": "string"
        }
      ],
      "name": "PlayerEliminated",
      "type": "event"
    },
    {
      "anonymous": false,
      "inputs": [
        {
          "indexed": true,
          "internalType": "uint256",
          "name": "roomId",
          "type": "uint256"
        },
        {
          "indexed": false,
          "internalType": "address",
          "name": "player",
          "type": "address"
        },
        {
          "indexed": false,
          "internalType": "string",
          "name": "nickname",
          "type": "string"
        }
      ],
      "name": "PlayerJoined",
      "type": "event"
    },
    {
      "anonymous": false,
      "inputs": [
        {
          "indexed": true,
          "internalType": "uint256",
          "name": "roomId",
          "type": "uint256"
        },
        {
          "indexed": false,
          "internalType": "address",
          "name": "player",
          "type": "address"
        },
        {
          "indexed": false,
          "internalType": "string",
          "name": "reason",
          "type": "string"
        }
      ],
      "name": "PlayerKicked",
      "type": "event"
    },
    {
      "anonymous": false,
      "inputs": [
        {
          "indexed": true,
          "internalType": "uint256",
          "name": "roomId",
          "type": "uint256"
        },
        {
          "indexed": false,
          "internalType": "address",
          "name": "player",
          "type": "address"
        }
      ],
      "name": "RoleConfirmed",
      "type": "event"
    },
    {
      "anonymous": false,
      "inputs": [
        {
          "indexed": true,
          "internalType": "uint256",
          "name": "roomId",
          "type": "uint256"
        },
        {
          "indexed": false,
          "internalType": "address",
          "name": "host",
          "type": "address"
        },
        {
          "indexed": false,
          "internalType": "uint256",
          "name": "maxPlayers",
          "type": "uint256"
        }
      ],
      "name": "RoomCreated",
      "type": "event"
    },
    {
      "anonymous": false,
      "inputs": [
        {
          "indexed": true,
          "internalType": "uint256",
          "name": "roomId",
          "type": "uint256"
        },
        {
          "indexed": false,
          "internalType": "address",
          "name": "voter",
          "type": "address"
        },
        {
          "indexed": false,
          "internalType": "address",
          "name": "target",
          "type": "address"
        }
      ],
      "name": "VoteCast",
      "type": "event"
    },
    {
      "anonymous": false,
      "inputs": [
        {
          "indexed": true,
          "internalType": "uint256",
          "name": "roomId",
          "type": "uint256"
        }
      ],
      "name": "VotingStarted",
      "type": "event"
    },
    {
      "inputs": [],
      "name": "TURN_TIMEOUT",
      "outputs": [
        {
          "internalType": "uint256",
          "name": "",
          "type": "uint256"
        }
      ],
      "stateMutability": "view",
      "type": "function"
    },
    {
      "inputs": [
        {
          "internalType": "uint256",
          "name": "roomId",
          "type": "uint256"
        },
        {
          "internalType": "bytes32",
          "name": "hash",
          "type": "bytes32"
        }
      ],
      "name": "commitNightAction",
      "outputs": [],
      "stateMutability": "nonpayable",
      "type": "function"
    },
    {
      "inputs": [
        {
          "internalType": "uint256",
          "name": "roomId",
          "type": "uint256"
        }
      ],
      "name": "confirmRole",
      "outputs": [],
      "stateMutability": "nonpayable",
      "type": "function"
    },
    {
      "inputs": [
        {
          "internalType": "uint256",
          "name": "maxPlayers",
          "type": "uint256"
        },
        {
          "internalType": "string",
          "name": "hostNickname",
          "type": "string"
        },
        {
          "internalType": "string",
          "name": "publicKey",
          "type": "string"
        }
      ],
      "name": "createRoom",
      "outputs": [],
      "stateMutability": "nonpayable",
      "type": "function"
    },
    {
      "inputs": [
        {
          "internalType": "uint256",
          "name": "roomId",
          "type": "uint256"
        }
      ],
      "name": "finalizeNight",
      "outputs": [],
      "stateMutability": "nonpayable",
      "type": "function"
    },
    {
      "inputs": [
        {
          "internalType": "uint256",
          "name": "roomId",
          "type": "uint256"
        }
      ],
      "name": "finalizeVoting",
      "outputs": [],
      "stateMutability": "nonpayable",
      "type": "function"
    },
    {
      "inputs": [
        {
          "internalType": "uint256",
          "name": "roomId",
          "type": "uint256"
        }
      ],
      "name": "getDeck",
      "outputs": [
        {
          "internalType": "string[]",
          "name": "",
          "type": "string[]"
        }
      ],
      "stateMutability": "view",
      "type": "function"
    },
    {
      "inputs": [
        {
          "internalType": "uint256",
          "name": "roomId",
          "type": "uint256"
        },
        {
          "internalType": "address",
          "name": "from",
          "type": "address"
        }
      ],
      "name": "getKeyFrom",
      "outputs": [
        {
          "internalType": "string",
          "name": "",
          "type": "string"
        }
      ],
      "stateMutability": "view",
      "type": "function"
    },
    {
      "inputs": [
        {
          "internalType": "uint256",
          "name": "roomId",
          "type": "uint256"
        }
      ],
      "name": "getPlayers",
      "outputs": [
        {
          "components": [
            {
              "internalType": "address",
              "name": "wallet",
              "type": "address"
            },
            {
              "internalType": "string",
              "name": "nickname",
              "type": "string"
            },
            {
              "internalType": "string",
              "name": "publicKey",
              "type": "string"
            },
            {
              "internalType": "bool",
              "name": "hasConfirmedRole",
              "type": "bool"
            },
            {
              "internalType": "bool",
              "name": "isActive",
              "type": "bool"
            }
          ],
          "internalType": "struct MafiaPortal.Player[]",
          "name": "",
          "type": "tuple[]"
        }
      ],
      "stateMutability": "view",
      "type": "function"
    },
    {
      "inputs": [
        {
          "internalType": "uint256",
          "name": "",
          "type": "uint256"
        },
        {
          "internalType": "address",
          "name": "",
          "type": "address"
        }
      ],
      "name": "isPlayerInRoom",
      "outputs": [
        {
          "internalType": "bool",
          "name": "",
          "type": "bool"
        }
      ],
      "stateMutability": "view",
      "type": "function"
    },
    {
      "inputs": [
        {
          "internalType": "uint256",
          "name": "roomId",
          "type": "uint256"
        },
        {
          "internalType": "string",
          "name": "nickname",
          "type": "string"
        },
        {
          "internalType": "string",
          "name": "publicKey",
          "type": "string"
        }
      ],
      "name": "joinRoom",
      "outputs": [],
      "stateMutability": "nonpayable",
      "type": "function"
    },
    {
      "inputs": [
        {
          "internalType": "uint256",
          "name": "",
          "type": "uint256"
        },
        {
          "internalType": "address",
          "name": "",
          "type": "address"
        },
        {
          "internalType": "address",
          "name": "",
          "type": "address"
        }
      ],
      "name": "keyMailbox",
      "outputs": [
        {
          "internalType": "string",
          "name": "",
          "type": "string"
        }
      ],
      "stateMutability": "view",
      "type": "function"
    },
    {
      "inputs": [
        {
          "internalType": "uint256",
          "name": "roomId",
          "type": "uint256"
        }
      ],
      "name": "kickStalledPlayer",
      "outputs": [],
      "stateMutability": "nonpayable",
      "type": "function"
    },
    {
      "inputs": [],
      "name": "nextRoomId",
      "outputs": [
        {
          "internalType": "uint256",
          "name": "",
          "type": "uint256"
        }
      ],
      "stateMutability": "view",
      "type": "function"
    },
    {
      "inputs": [
        {
          "internalType": "uint256",
          "name": "",
          "type": "uint256"
        },
        {
          "internalType": "address",
          "name": "",
          "type": "address"
        }
      ],
      "name": "nightCommits",
      "outputs": [
        {
          "internalType": "bytes32",
          "name": "commitHash",
          "type": "bytes32"
        },
        {
          "internalType": "bool",
          "name": "revealed",
          "type": "bool"
        }
      ],
      "stateMutability": "view",
      "type": "function"
    },
    {
      "inputs": [
        {
          "internalType": "uint256",
          "name": "roomId",
          "type": "uint256"
        },
        {
          "internalType": "enum MafiaPortal.NightActionType",
          "name": "action",
          "type": "uint8"
        },
        {
          "internalType": "address",
          "name": "target",
          "type": "address"
        },
        {
          "internalType": "string",
          "name": "salt",
          "type": "string"
        }
      ],
      "name": "revealNightAction",
      "outputs": [],
      "stateMutability": "nonpayable",
      "type": "function"
    },
    {
      "inputs": [
        {
          "internalType": "uint256",
          "name": "",
          "type": "uint256"
        },
        {
          "internalType": "address",
          "name": "",
          "type": "address"
        }
      ],
      "name": "revealedActions",
      "outputs": [
        {
          "internalType": "enum MafiaPortal.NightActionType",
          "name": "",
          "type": "uint8"
        }
      ],
      "stateMutability": "view",
      "type": "function"
    },
    {
      "inputs": [
        {
          "internalType": "uint256",
          "name": "",
          "type": "uint256"
        },
        {
          "internalType": "address",
          "name": "",
          "type": "address"
        }
      ],
      "name": "revealedTargets",
      "outputs": [
        {
          "internalType": "address",
          "name": "",
          "type": "address"
        }
      ],
      "stateMutability": "view",
      "type": "function"
    },
    {
      "inputs": [
        {
          "internalType": "uint256",
          "name": "",
          "type": "uint256"
        },
        {
          "internalType": "uint256",
          "name": "",
          "type": "uint256"
        }
      ],
      "name": "roomDeck",
      "outputs": [
        {
          "internalType": "string",
          "name": "",
          "type": "string"
        }
      ],
      "stateMutability": "view",
      "type": "function"
    },
    {
      "inputs": [
        {
          "internalType": "uint256",
          "name": "",
          "type": "uint256"
        },
        {
          "internalType": "uint256",
          "name": "",
          "type": "uint256"
        }
      ],
      "name": "roomPlayers",
      "outputs": [
        {
          "internalType": "address",
          "name": "wallet",
          "type": "address"
        },
        {
          "internalType": "string",
          "name": "nickname",
          "type": "string"
        },
        {
          "internalType": "string",
          "name": "publicKey",
          "type": "string"
        },
        {
          "internalType": "bool",
          "name": "hasConfirmedRole",
          "type": "bool"
        },
        {
          "internalType": "bool",
          "name": "isActive",
          "type": "bool"
        }
      ],
      "stateMutability": "view",
      "type": "function"
    },
    {
      "inputs": [
        {
          "internalType": "uint256",
          "name": "",
          "type": "uint256"
        }
      ],
      "name": "rooms",
      "outputs": [
        {
          "internalType": "uint256",
          "name": "id",
          "type": "uint256"
        },
        {
          "internalType": "address",
          "name": "host",
          "type": "address"
        },
        {
          "internalType": "enum MafiaPortal.GamePhase",
          "name": "phase",
          "type": "uint8"
        },
        {
          "internalType": "uint256",
          "name": "maxPlayers",
          "type": "uint256"
        },
        {
          "internalType": "uint256",
          "name": "playersCount",
          "type": "uint256"
        },
        {
          "internalType": "uint256",
          "name": "dayCount",
          "type": "uint256"
        },
        {
          "internalType": "uint256",
          "name": "currentShufflerIndex",
          "type": "uint256"
        },
        {
          "internalType": "uint256",
          "name": "lastActionTimestamp",
          "type": "uint256"
        }
      ],
      "stateMutability": "view",
      "type": "function"
    },
    {
      "inputs": [
        {
          "internalType": "uint256",
          "name": "roomId",
          "type": "uint256"
        },
        {
          "internalType": "address",
          "name": "to",
          "type": "address"
        },
        {
          "internalType": "string",
          "name": "encryptedKey",
          "type": "string"
        }
      ],
      "name": "shareKey",
      "outputs": [],
      "stateMutability": "nonpayable",
      "type": "function"
    },
    {
      "inputs": [
        {
          "internalType": "uint256",
          "name": "roomId",
          "type": "uint256"
        }
      ],
      "name": "startShuffle",
      "outputs": [],
      "stateMutability": "nonpayable",
      "type": "function"
    },
    {
      "inputs": [
        {
          "internalType": "uint256",
          "name": "roomId",
          "type": "uint256"
        }
      ],
      "name": "startVoting",
      "outputs": [],
      "stateMutability": "nonpayable",
      "type": "function"
    },
    {
      "inputs": [
        {
          "internalType": "uint256",
          "name": "roomId",
          "type": "uint256"
        },
        {
          "internalType": "string[]",
          "name": "deck",
          "type": "string[]"
        }
      ],
      "name": "submitDeck",
      "outputs": [],
      "stateMutability": "nonpayable",
      "type": "function"
    },
    {
      "inputs": [
        {
          "internalType": "uint256",
          "name": "roomId",
          "type": "uint256"
        },
        {
          "internalType": "address",
          "name": "target",
          "type": "address"
        }
      ],
      "name": "vote",
      "outputs": [],
      "stateMutability": "nonpayable",
      "type": "function"
    },
    {
      "inputs": [
        {
          "internalType": "uint256",
          "name": "",
          "type": "uint256"
        },
        {
          "internalType": "address",
          "name": "",
          "type": "address"
        }
      ],
      "name": "voteCounts",
      "outputs": [
        {
          "internalType": "uint256",
          "name": "",
          "type": "uint256"
        }
      ],
      "stateMutability": "view",
      "type": "function"
    },
    {
      "inputs": [
        {
          "internalType": "uint256",
          "name": "",
          "type": "uint256"
        },
        {
          "internalType": "address",
          "name": "",
          "type": "address"
        }
      ],
      "name": "votes",
      "outputs": [
        {
          "internalType": "address",
          "name": "",
          "type": "address"
        }
      ],
      "stateMutability": "view",
      "type": "function"
    }
  ],
  "bytecode": "0x60808060405234601a576001600a556126db908161001f8239f35b5f80fdfe60806040526004361015610011575f80fd5b5f3560e01c806302d947ef14611cfd57806307a52cab14611ce057806309ed3e2214611c3f5780630f8d2b6814611c08578063139db82d14611843578063196b42bf146116175780631bae0ac81461158f578063280af5c3146115305780632a51fb3a1461145b5780633d2f5bda146113ba578063460e2049146112535780634944483114610fa25780635099fae214610dce57806355793f1014610d645780635e82ff6514610d4957806361ea202714610d055780636594bb0c14610b0c578063660e907c14610ac3578063669ead1714610a755780636b41f5f3146109e65780637fcd07d1146108eb578063858e3d9d1461066f578063c4e4a68e1461045a578063c96f09791461032d578063d23254b4146102e3578063d275ecbf146101ed578063eb0fa6f8146101a35763f14caed71461014d575f80fd5b3461019f57604036600319011261019f57610166611e98565b6004355f52600760205260405f209060018060a01b03165f526020526040805f2060ff6001825492015416825191825215156020820152f35b5f80fd5b3461019f57604036600319011261019f576101bc611e98565b6004355f9081526009602090815260408083206001600160a01b039485168452825291829020549151919092168152f35b3461019f57602036600319011261019f576004355f818152602081905260409020600101546001600160a01b031633036102d557805f525f60205260ff600160405f20015460a01c1660078110156102c1576102b2575f818152602081905260409020600101805460ff60a01b1916600160a01b17905561026d816121fe565b815f525f602052600560405f200155805f525f60205242600660405f2001557f50ad08f58a27f2851d7e3a1b3a6a46b290f2ce677e99642d30ff639721e777905f80a2005b6338961af360e21b5f5260045ffd5b634e487b7160e01b5f52602160045260245ffd5b6282b42960e81b5f5260045ffd5b3461019f57604036600319011261019f576102fc611e98565b6004355f9081526005602090815260408083206001600160a01b039485168452825291829020549151919092168152f35b3461019f57604036600319011261019f576004355f81815260026020908152604080832033845290915290205460ff161561044b5761036c338261219d565b1561043c57805f525f60205260ff600160405f20015460a01c1660078110156102c1576004036102b25760405160408101908082106001600160401b03831117610428576103fc9160405260243581526001602082015f8152845f52600760205260405f20828060a01b0333165f5260205260405f209251835551151591019060ff801983541691151516179055565b7f0eedfe83feef539cc0cbc56b8336ca3cc16ee922943b5d3b1046759ac50b0e676020604051338152a2005b634e487b7160e01b5f52604160045260245ffd5b630575d90f60e11b5f5260045ffd5b63721c7c6760e11b5f5260045ffd5b3461019f57606036600319011261019f57600435610476611e98565b6044356001600160401b03811161019f5761049590369060040161209b565b5f84815260026020908152604080832033845290915290205460ff161561044b576104c0338561219d565b1561043c57835f525f60205260ff600160405f20015460a01c1660078110156102c1576002036102b257835f52600260205260405f2060018060a01b0384165f5260205260ff60405f2054161561044b575f84815260046020908152604080832033845282528083206001600160a01b03871684529091529020916001600160401b0382116104285761055d826105578554611f07565b8561215a565b5f90601f83116001146105e557827ff1d4587b940f02682b4f35032abef955e02e1dcee0b6de9b9f7b00d434e8b32f95936105d595936105b2935f926105da575b50508160011b915f199060031b1c19161790565b90555b604080513381526001600160a01b03909216602083015290918291820190565b0390a2005b01359050888061059e565b601f19831691845f5260205f20925f5b81811061065757509260019285927ff1d4587b940f02682b4f35032abef955e02e1dcee0b6de9b9f7b00d434e8b32f98966105d598961061063e575b505050811b0190556105b5565b01355f19600384901b60f8161c19169055878080610631565b919360206001819287870135815501950192016105f5565b3461019f57602036600319011261019f576004355f81815260026020908152604080832033845290915290205460ff161561044b576106ae338261219d565b1561043c57805f525f60205260405f206001810160ff815460a01c1660078110156102c1576004036102b2575f9182805b855f5260016020528560405f20548310156107df575f5260016020526107088260405f20611eda565b50545f8781526008602090815260408083206001600160a01b039094168084529390915290205490929060ff1660048110156102c1576001146107b4575b865f52600860205260405f2060018060a01b0384165f5260205260ff60405f2054169260048410156102c1576002889414610787575b5060010191506106df565b5f8481526009602090815260408083206001600160a01b039485168452909152902054169150600161077c565b5f8781526009602090815260408083206001600160a01b038781168552925290912054169550610746565b948592506001600160a01b0381169182151590816108d7575b50610874575b50506108099061227d565b60ff825460a01c1660078110156102c15760060361082357005b815460ff60a01b1916600360a01b1790915560040180547fa9b4e96158ed085745975f198fa026959997245ae7e7aed9cd0252ce02b210719160209161086890612136565b809155604051908152a2005b7fb1ed64d561b0179e61c72bf46d0809a99dac99baeb98fc9f5d13be1f6c2e3f82916108a2608092856122f3565b60405190815260406020820152600f60408201526e12da5b1b195908185d081b9a59da1d608a1b6060820152a28284806107fe565b6001600160a01b03168314159050876107f8565b3461019f576108f9366120d5565b929390916002821015806109db575b156109a6577fac131287fe8417903d89f4eb472bc1d0da81641ef725569346dab6c2879a6717936105d59361098e92600a549761094489612136565b600a555f8981526020819052604090208981556001810180546001600160a81b0319163360ff60a01b1981169190911790915560028201889055426006909201919091558961237f565b60408051338152602081019290925290918291820190565b60405162461bcd60e51b815260206004820152600d60248201526c125b9d985b1a590818dbdd5b9d609a1b6044820152606490fd5b506010821115610908565b3461019f576109f4366120d5565b92845f939293525f60205260405f2060ff600182015460a01c1660078110156102c1576102b257600260038201549101541115610a66575f85815260026020908152604080832033845290915290205460ff16610a5857610a5694339061237f565b005b621d934160e11b5f5260045ffd5b63bc42480360e01b5f5260045ffd5b3461019f57604036600319011261019f57610a8e611e98565b6004355f52600860205260405f209060018060a01b03165f52602052602060ff60405f205416610ac160405180926120c8565bf35b3461019f57604036600319011261019f57610adc611e98565b6004355f52600260205260405f209060018060a01b03165f52602052602060ff60405f2054166040519015158152f35b3461019f57608036600319011261019f57600435602435600481101561019f57610b34611eae565b6064356001600160401b03811161019f57610b5390369060040161209b565b5f85815260026020908152604080832033845290915290205460ff161561044b57610b7e338661219d565b1561043c57845f525f60205260ff600160405f20015460a01c1660078110156102c1576004036102b2575f85815260076020908152604080832033845290915290206001015460ff16610cf657610c13603560405183819460208301968960f81b88526bffffffffffffffffffffffff198960601b1660218501528484013781015f838201520301601f198101835282611f5a565b5190205f84815260076020908152604080832033845290915290205403610ce7575f838152600760209081526040808320338085529083528184206001908101805460ff199081169092179055878552600884528285208286528452828520805460ff891692169190911790558684526009835281842081855283529281902080546001600160a01b0319166001600160a01b039095169490941790935582519182527ff06d68f16c49c42e886f88c2689940ad871a4f71654933d28b593912f169f94693610ce4918301906120c8565ba2005b639ea6d12760e01b5f5260045ffd5b63a89ac15160e01b5f5260045ffd5b3461019f57604036600319011261019f57610d1e611e98565b6004355f52600660205260405f209060018060a01b03165f52602052602060405f2054604051908152f35b3461019f575f36600319011261019f57602060405160788152f35b3461019f57604036600319011261019f57610d7d611e98565b600480355f908152602091825260408082206001600160a01b03909416825292825282812033825290915220610dca90610db690611f7b565b60405191829160208352602083019061201b565b0390f35b3461019f57602036600319011261019f576004355f81815260026020908152604080832033845290915290205460ff161561044b57610e0d338261219d565b1561043c57805f525f60205260ff600160405f20015460a01c1660078110156102c1576002036102b2575f5b815f52600160205260405f2054811015610f9c57815f526001602052610e628160405f20611eda565b50546001600160a01b03163314610e7b57600101610e39565b610e92600391835f52600160205260405f20611eda565b5001805460ff191660011790555b805f525f60205260405f205f5f5f5b845f52600160205260405f2054811015610f3157845f52600160205260ff6003610edc8360405f20611eda565b50015460081c16610ef0575b600101610eaf565b90610efa90612136565b90845f52600160205260ff6003610f148360405f20611eda565b5001541615610ee85791610f29600191612136565b929050610ee8565b508091149081610f92575b50610f4357005b60018101600360a01b60ff60a01b19825416179055600160048201556006429101557fa9b4e96158ed085745975f198fa026959997245ae7e7aed9cd0252ce02b21071602060405160018152a2005b9050151583610f3c565b50610ea0565b3461019f57602036600319011261019f576004355f81815260026020908152604080832033845290915290205460ff161561044b57610fe1338261219d565b1561043c57805f525f60205260405f2090600182019060ff825460a01c1660078110156102c1576005036102b2575f915f905f5b835f52600160205260405f20548110156110b157835f52600160205261103e8160405f20611eda565b5060018060a01b03905416845f52600160205260ff60036110628460405f20611eda565b50015460081c16611077575b50600101611015565b845f52600660205260405f2060018060a01b0382165f5260205260405f20548481116110a4575b5061106e565b909550925060018761109e565b50929060038395015460011c106111ed575b50505f5b825f52600160205260405f205481101561119257600190835f52816020526110f28160405f20611eda565b50545f85815260056020908152604080832060a087901b87900390941680845293825280832080546001600160a01b03199081169091558884526006835281842085855283528184208490558884526007835281842085855283528184208481558701849055888452600883528184208585528352818420805460ff191690558884526009835281842094845293909152902080549091169055016110c7565b5061119c8261227d565b60ff815460a01c1660078110156102c1576006036111b657005b805460ff60a01b1916600160a21b1790557f34b0c4c95aa7776d35dbd8b24afd53388828c61c26fd5a6b11a21809662440875f80a2005b60808161121b7fb1ed64d561b0179e61c72bf46d0809a99dac99baeb98fc9f5d13be1f6c2e3f8293856122f3565b604080516001600160a01b0390921682526020820181905260099082015268159bdd1959081bdd5d60ba1b6060820152a281836110c3565b3461019f57602036600319011261019f576004355f52600160205260405f2080549061127e8261203f565b9161128c6040519384611f5a565b8083526020830180925f5260205f205f915b83831061135257848660405191829160208301906020845251809152604083019060408160051b85010192915f905b8282106112dc57505050500390f35b919360019193955060208091603f19898203018552875190848060a01b03825116815260808061132e61131c8686015160a08887015260a086019061201b565b6040860151858203604087015261201b565b936060810151151560608501520151151591015296019201920185949391926112cd565b6004602060019260405161136581611f3f565b848060a01b03865416815261137b858701611f7b565b8382015261138b60028701611f7b565b604082015260ff60038701548181161515606084015260081c161515608082015281520192019201919061129e565b3461019f57602036600319011261019f576004355f81815260026020908152604080832033845290915290205460ff161561044b576113f9338261219d565b1561043c57805f525f602052600160405f200160ff815460a01c1660078110156102c1576003036102b257805460ff60a01b1916600560a01b1790557fcf33babc496bb6dc2942b39cb7b75766bbbadf7da50d176ff8c513e9911402395f80a2005b3461019f57602036600319011261019f576004355f52600360205260405f208054906114868261203f565b916114946040519384611f5a565b8083526020830180925f5260205f205f915b83831061151357848660405191829160208301906020845251809152604083019060408160051b85010192915f905b8282106114e457505050500390f35b919360019193955060206115038192603f198a8203018652885161201b565b96019201920185949391926114d5565b60016020819261152285611f7b565b8152019201920191906114a6565b3461019f57606036600319011261019f57611549611e98565b611551611eae565b906004355f52600460205260405f209060018060a01b03165f5260205260405f209060018060a01b03165f52602052610dca610db660405f20611f7b565b3461019f57602036600319011261019f576004355f525f60205260405f208054600182015460ff8160a01c169260028101546003820154600483015491600660058501549401549460405196875260018060a01b0316602087015260078710156102c1576101009660408701526060860152608085015260a084015260c083015260e0820152f35b3461019f57602036600319011261019f576004355f81815260026020908152604080832033845290915290205460ff161561044b57611656338261219d565b1561043c57805f525f60205260405f20906001820160ff815460a01c16600781101590816102c15780158015611836575b6102b2576006850191825460788101809111611822574210611813576102c1576001036117bf5760058401549061270f82146117b057835f526001602052837f8ef7613b6eacaa71c74d950e2c093c23a0d3ecb066d1387d80e95159d07ed08b60806116f68560405f20611eda565b506003810161ff0019815416905560038901611712815461212a565b905554604080516001600160a01b0390921682526020820181905260079082015266151a5b595bdd5d60ca1b6060820152a260ff835460a01c169460078610156102c1576001610a569614611769575b858561227d565b61177560059386612241565b9283910155429055825f52600160205260405f20541115611799575b808080611762565b805460ff60a01b1916600160a11b17905582611791565b63c0e4046360e01b5f5260045ffd5b60405162461bcd60e51b815260206004820152602660248201527f4b69636b206f6e6c7920737570706f7274656420696e2053687566666c65206660448201526506f72204d56560d41b6064820152608490fd5b63489e8c8960e01b5f5260045ffd5b634e487b7160e01b5f52601160045260245ffd5b505f915060068114611687565b3461019f57604036600319011261019f576004356024356001600160401b03811161019f573660238201121561019f578060040135906118828261203f565b906118906040519283611f5a565b82825260208201906024829460051b8201019036821161019f5760248101925b828410611bc8575050505f84815260026020908152604080832033845290915290205460ff1615905061044b576118e7338461219d565b1561043c57825f525f60205260405f2091600183019160ff835460a01c1660078110156102c1576001036102b257845f52600160205260405f20916119326005860193845490611eda565b5054336001600160a01b0390911603611bb957855f52600360205260405f2054155f14611b96578151600386015411611b87575b855f52600360205260405f20915190600160401b8211610428578254828455808310611b10575b50915f5260205f20915f905b828210611a30575050505080549160018301809311611822577f4ddfdf4c78d4cc7a24e7c9cab7b0a647688b6cf6ce58cededceb204846622d76936119e16105d59487612241565b90818455600642910155855f52600160205260405f20541115611a19575b505460408051338152602081019290925290918291820190565b805460ff60a01b1916600160a11b179055846119ff565b80518051906001600160401b03821161042857611a5782611a518854611f07565b8861215a565b602090601f8311600114611aa75792611a8d836001959460209487965f92611a9c5750508160011b915f199060031b1c19161790565b87555b01940191019092611999565b015190508e8061059e565b90601f19831691875f52815f20925f5b818110611af85750936020936001969387969383889510611ae0575b505050811b018755611a90565b01515f1960f88460031b161c191690558d8080611ad3565b92936020600181928786015181550195019301611ab7565b835f528260205f2091820191015b818110611b2b575061198d565b80611b3860019254611f07565b80611b45575b5001611b1e565b601f81118314611b5a57505f81555b8a611b3e565b611b7690825f5283601f60205f20920160051c82019101612144565b805f525f6020812081835555611b54565b63d1d2a30960e01b5f5260045ffd5b8151865f52600360205260405f2054146119665763d1d2a30960e01b5f5260045ffd5b631cc191eb60e31b5f5260045ffd5b83356001600160401b03811161019f5782013660438201121561019f57602091611bfd83923690604460248201359101612056565b8152019301926118b0565b3461019f57611c1636611ec4565b905f52600360205260405f20805482101561019f57610dca91610db6915f5260205f2001611f7b565b3461019f57611c4d36611ec4565b905f52600160205260405f2090815481101561019f57611c6c91611eda565b5080546001600160a01b0316611c8460018301611f7b565b9160ff611cc66003611c9860028501611f7b565b93015492611cb8604051968796875260a0602088015260a087019061201b565b90858203604087015261201b565b918181161515606085015260081c16151560808301520390f35b3461019f575f36600319011261019f576020600a54604051908152f35b3461019f57604036600319011261019f57600435611d19611e98565b5f82815260026020908152604080832033845290915290205460ff161561044b57611d44338361219d565b1561043c57815f525f60205260ff600160405f20015460a01c1660078110156102c1576005036102b257815f52600260205260405f2060018060a01b0382165f5260205260ff60405f2054161561044b57611d9f818361219d565b1561043c575f8281526005602090815260408083203384529091529020547fcfff1651bcea794952a516ce970ab17518a85210bd939aaeaac670a8d3e65ec7916105d5916001600160a01b031680611e44575b505f848152600560209081526040808320338452825280832080546001600160a01b0319166001600160a01b03861690811790915587845260068352818420908452909152902080546105b290612136565b845f52600660205260405f2060018060a01b0382165f5260205260405f205415611df257845f52600660205260405f209060018060a01b03165f5260205260405f20611e90815461212a565b905584611df2565b602435906001600160a01b038216820361019f57565b604435906001600160a01b038216820361019f57565b604090600319011261019f576004359060243590565b8054821015611ef3575f5260205f209060021b01905f90565b634e487b7160e01b5f52603260045260245ffd5b90600182811c92168015611f35575b6020831014611f2157565b634e487b7160e01b5f52602260045260245ffd5b91607f1691611f16565b60a081019081106001600160401b0382111761042857604052565b90601f801991011681019081106001600160401b0382111761042857604052565b9060405191825f825492611f8e84611f07565b8084529360018116908115611ff95750600114611fb5575b50611fb392500383611f5a565b565b90505f9291925260205f20905f915b818310611fdd575050906020611fb3928201015f611fa6565b6020919350806001915483858901015201910190918492611fc4565b905060209250611fb394915060ff191682840152151560051b8201015f611fa6565b805180835260209291819084018484015e5f828201840152601f01601f1916010190565b6001600160401b0381116104285760051b60200190565b9291926001600160401b038211610428576040519161207f601f8201601f191660200184611f5a565b82948184528183011161019f578281602093845f960137010152565b9181601f8401121561019f578235916001600160401b03831161019f576020838186019501011161019f57565b9060048210156102c15752565b90606060031983011261019f57600435916024356001600160401b03811161019f57816121049160040161209b565b92909291604435906001600160401b03821161019f576121269160040161209b565b9091565b8015611822575f190190565b5f1981146118225760010190565b81811061214f575050565b5f8155600101612144565b9190601f811161216957505050565b611fb3925f5260205f20906020601f840160051c83019310612193575b601f0160051c0190612144565b9091508190612186565b5f52600160205260405f205f918154925b8381106121bd57505050505f90565b6121c78184611eda565b50546001600160a01b038381169116146121e3576001016121ae565b60ff93506121f49150600392611eda565b50015460081c1690565b5f52600160205260405f208054905f5b82811061221a57505090565b60ff60036122288385611eda565b50015460081c1661223b5760010161220e565b91505090565b5f52600160205260405f208054915b82811061225c57505090565b60ff600361226a8385611eda565b50015460081c1661223b57600101612250565b805f525f60205260405f20600160038201541115612299575050565b600101600360a11b60ff60a01b198254161790557fd778487128ba4386ebcfb2703af01f8a2a2b8663f880622d26a77a29397e68f3606060405160208152600960208201526823b0b6b29027bb32b960b91b6040820152a2565b5f5b815f52600160205260405f205481101561237a57815f52600160205261231e8160405f20611eda565b50546001600160a01b0384811691161461233a576001016122f5565b819250612354906003925f52600160205260405f20611eda565b500161ff001981541690555f525f602052600360405f2001612376815461212a565b9055565b505050565b949093929193855f52600160205260405f20906123c9604051916123a283611f3f565b6001600160a01b0316808352956123ba36878a612056565b94602084019586523691612056565b6040820190815260608201935f85526080830193600185528054600160401b811015610428576123fe91600182018155611eda565b939093612692575183546001600160a01b0319166001600160a01b039190911617835551805160018401916001600160401b03821161042857612445826105578554611f07565b602090601f831160011461262f5761247392915f91836125935750508160011b915f199060031b1c19161790565b90555b51805160028301916001600160401b0382116104285761249a826105578554611f07565b602090601f831160011461259e579360609795936124f884612512956003957fa259bab503f65f6ae62d4f6a412b41b967799a284f69f21ba61362cf04e5eafa9e9d9b995f926125935750508160011b915f199060031b1c19161790565b90555b0192511515839060ff801983541691151516179055565b51151561ff0082549160081b169061ff001916179055855f525f602052600360405f20016125408154612136565b9055855f52600260205260405f20825f5260205260405f20600160ff1982541617905580604051948593845260406020850152816040850152848401375f828201840152601f01601f19168101030190a2565b015190505f8061059e565b90601f19831691845f52815f20925f5b8181106126175750846003947fa259bab503f65f6ae62d4f6a412b41b967799a284f69f21ba61362cf04e5eafa9d9c9a989460609c9a98946125129860019510612600575b505050811b0190556124fb565b01515f1983881b60f8161c191690555f80806125f3565b929360206001819287860151815501950193016125ae565b90601f19831691845f52815f20925f5b81811061267a5750908460019594939210612662575b505050811b019055612476565b01515f1960f88460031b161c191690555f8080612655565b9293602060018192878601518155019501930161263f565b634e487b7160e01b5f525f60045260245ffdfea264697066735822122066903d6ed3e774945f6d945d04c7f6735779e1bb4ab0828a7e5e61c6a453211364736f6c634300081c0033",
  "linkReferences": {},
  "deployedLinkReferences": {},
  "immutableReferences": {},
  "inputSourceName": "project/contracts/MafiaPortal.sol",
  "buildInfoId": "solc-0_8_28-e25e7dbc8624a88a7214a1cb7d6a02cf239dec8c"
}