{
  "_format": "hh3-artifact-1",
  "contractName": "MafiaPortalV4",
  "sourceName": "contracts/MafiaPortalV4.sol",
  "abi": [
    {
      "inputs": [],
      "stateMutability": "nonpayable",
      "type": "constructor"
    },
    {
      "inputs": [],
      "name": "AccessControlBadConfirmation",
      "type": "error"
    },
    {
      "inputs": [
        {
          "internalType": "address",
          "name": "account",
          "type": "address"
        },
        {
          "internalType": "bytes32",
          "name": "neededRole",
          "type": "bytes32"
        }
      ],
      "name": "AccessControlUnauthorizedAccount",
      "type": "error"
    },
    {
      "inputs": [],
      "name": "AlreadyCommitted",
      "type": "error"
    },
    {
      "inputs": [],
      "name": "AlreadyJoined",
      "type": "error"
    },
    {
      "inputs": [],
      "name": "AlreadyRevealed",
      "type": "error"
    },
    {
      "inputs": [],
      "name": "AlreadySharedKeys",
      "type": "error"
    },
    {
      "inputs": [],
      "name": "AlreadyVoted",
      "type": "error"
    },
    {
      "inputs": [],
      "name": "ArrayTooLarge",
      "type": "error"
    },
    {
      "inputs": [],
      "name": "EnforcedPause",
      "type": "error"
    },
    {
      "inputs": [],
      "name": "ExpectedPause",
      "type": "error"
    },
    {
      "inputs": [],
      "name": "InvalidArrayLength",
      "type": "error"
    },
    {
      "inputs": [],
      "name": "InvalidDeckSize",
      "type": "error"
    },
    {
      "inputs": [],
      "name": "InvalidMafiaTargetReveal",
      "type": "error"
    },
    {
      "inputs": [],
      "name": "InvalidPlayerCount",
      "type": "error"
    },
    {
      "inputs": [],
      "name": "InvalidReveal",
      "type": "error"
    },
    {
      "inputs": [],
      "name": "InvalidRoleReveal",
      "type": "error"
    },
    {
      "inputs": [],
      "name": "InvalidSessionAddress",
      "type": "error"
    },
    {
      "inputs": [],
      "name": "InvalidSessionKey",
      "type": "error"
    },
    {
      "inputs": [],
      "name": "MafiaNotReady",
      "type": "error"
    },
    {
      "inputs": [],
      "name": "MafiaTargetAlreadyCommitted",
      "type": "error"
    },
    {
      "inputs": [],
      "name": "MafiaTargetAlreadyRevealed",
      "type": "error"
    },
    {
      "inputs": [],
      "name": "NicknameTooLong",
      "type": "error"
    },
    {
      "inputs": [],
      "name": "NoStalledPlayers",
      "type": "error"
    },
    {
      "inputs": [],
      "name": "NotAllRolesRevealed",
      "type": "error"
    },
    {
      "inputs": [],
      "name": "NotCommitted",
      "type": "error"
    },
    {
      "inputs": [],
      "name": "NotEnoughPlayers",
      "type": "error"
    },
    {
      "inputs": [],
      "name": "NotMafiaMember",
      "type": "error"
    },
    {
      "inputs": [],
      "name": "NotParticipant",
      "type": "error"
    },
    {
      "inputs": [],
      "name": "NotYourTurn",
      "type": "error"
    },
    {
      "inputs": [],
      "name": "PhaseDeadlinePassed",
      "type": "error"
    },
    {
      "inputs": [],
      "name": "PlayerInactive",
      "type": "error"
    },
    {
      "inputs": [],
      "name": "PublicKeyTooLong",
      "type": "error"
    },
    {
      "inputs": [],
      "name": "ReentrancyGuardReentrantCall",
      "type": "error"
    },
    {
      "inputs": [],
      "name": "RoleAlreadyCommitted",
      "type": "error"
    },
    {
      "inputs": [],
      "name": "RoleAlreadyRevealed",
      "type": "error"
    },
    {
      "inputs": [],
      "name": "RoleNotCommitted",
      "type": "error"
    },
    {
      "inputs": [],
      "name": "RoomFull",
      "type": "error"
    },
    {
      "inputs": [],
      "name": "RoomNameTooLong",
      "type": "error"
    },
    {
      "inputs": [],
      "name": "SaltTooLong",
      "type": "error"
    },
    {
      "inputs": [],
      "name": "SessionAlreadyRegistered",
      "type": "error"
    },
    {
      "inputs": [],
      "name": "SessionExpired",
      "type": "error"
    },
    {
      "inputs": [],
      "name": "SessionNotForThisRoom",
      "type": "error"
    },
    {
      "inputs": [],
      "name": "TimeNotExpired",
      "type": "error"
    },
    {
      "inputs": [],
      "name": "Unauthorized",
      "type": "error"
    },
    {
      "inputs": [],
      "name": "WinConditionNotMet",
      "type": "error"
    },
    {
      "inputs": [],
      "name": "WrongPhase",
      "type": "error"
    },
    {
      "anonymous": false,
      "inputs": [
        {
          "indexed": true,
          "internalType": "uint256",
          "name": "roomId",
          "type": "uint256"
        }
      ],
      "name": "AllKeysShared",
      "type": "event"
    },
    {
      "anonymous": false,
      "inputs": [
        {
          "indexed": true,
          "internalType": "uint256",
          "name": "roomId",
          "type": "uint256"
        }
      ],
      "name": "AllRolesConfirmed",
      "type": "event"
    },
    {
      "anonymous": false,
      "inputs": [
        {
          "indexed": true,
          "internalType": "uint256",
          "name": "roomId",
          "type": "uint256"
        },
        {
          "indexed": false,
          "internalType": "uint256",
          "name": "dayNumber",
          "type": "uint256"
        }
      ],
      "name": "DayStarted",
      "type": "event"
    },
    {
      "anonymous": false,
      "inputs": [
        {
          "indexed": true,
          "internalType": "uint256",
          "name": "roomId",
          "type": "uint256"
        },
        {
          "indexed": false,
          "internalType": "address",
          "name": "player",
          "type": "address"
        },
        {
          "indexed": false,
          "internalType": "bytes32",
          "name": "commitHash",
          "type": "bytes32"
        }
      ],
      "name": "DeckCommitted",
      "type": "event"
    },
    {
      "anonymous": false,
      "inputs": [
        {
          "indexed": true,
          "internalType": "uint256",
          "name": "roomId",
          "type": "uint256"
        },
        {
          "indexed": false,
          "internalType": "address",
          "name": "player",
          "type": "address"
        },
        {
          "indexed": false,
          "internalType": "string[]",
          "name": "deck",
          "type": "string[]"
        }
      ],
      "name": "DeckRevealed",
      "type": "event"
    },
    {
      "anonymous": false,
      "inputs": [
        {
          "indexed": true,
          "internalType": "address",
          "name": "admin",
          "type": "address"
        }
      ],
      "name": "EmergencyPause",
      "type": "event"
    },
    {
      "anonymous": false,
      "inputs": [
        {
          "indexed": true,
          "internalType": "address",
          "name": "admin",
          "type": "address"
        }
      ],
      "name": "EmergencyUnpause",
      "type": "event"
    },
    {
      "anonymous": false,
      "inputs": [
        {
          "indexed": true,
          "internalType": "uint256",
          "name": "roomId",
          "type": "uint256"
        },
        {
          "indexed": false,
          "internalType": "string",
          "name": "winCondition",
          "type": "string"
        }
      ],
      "name": "GameEnded",
      "type": "event"
    },
    {
      "anonymous": false,
      "inputs": [
        {
          "indexed": true,
          "internalType": "uint256",
          "name": "roomId",
          "type": "uint256"
        }
      ],
      "name": "GameStarted",
      "type": "event"
    },
    {
      "anonymous": false,
      "inputs": [
        {
          "indexed": true,
          "internalType": "uint256",
          "name": "roomId",
          "type": "uint256"
        },
        {
          "indexed": false,
          "internalType": "address",
          "name": "from",
          "type": "address"
        }
      ],
      "name": "KeysSharedToAll",
      "type": "event"
    },
    {
      "anonymous": false,
      "inputs": [
        {
          "indexed": true,
          "internalType": "uint256",
          "name": "roomId",
          "type": "uint256"
        },
        {
          "indexed": false,
          "internalType": "address",
          "name": "cheater",
          "type": "address"
        },
        {
          "indexed": false,
          "internalType": "enum MafiaPortalV4.Role",
          "name": "actualRole",
          "type": "uint8"
        }
      ],
      "name": "MafiaCheaterPunished",
      "type": "event"
    },
    {
      "anonymous": false,
      "inputs": [
        {
          "indexed": true,
          "internalType": "uint256",
          "name": "roomId",
          "type": "uint256"
        },
        {
          "indexed": false,
          "internalType": "address",
          "name": "target",
          "type": "address"
        },
        {
          "indexed": false,
          "internalType": "bool",
          "name": "success",
          "type": "bool"
        }
      ],
      "name": "MafiaConsensusReached",
      "type": "event"
    },
    {
      "anonymous": false,
      "inputs": [
        {
          "indexed": true,
          "internalType": "uint256",
          "name": "roomId",
          "type": "uint256"
        },
        {
          "indexed": false,
          "internalType": "address",
          "name": "sender",
          "type": "address"
        },
        {
          "indexed": false,
          "internalType": "bytes",
          "name": "encryptedMessage",
          "type": "bytes"
        }
      ],
      "name": "MafiaMessageSent",
      "type": "event"
    },
    {
      "anonymous": false,
      "inputs": [
        {
          "indexed": true,
          "internalType": "uint256",
          "name": "roomId",
          "type": "uint256"
        },
        {
          "indexed": false,
          "internalType": "address",
          "name": "player",
          "type": "address"
        },
        {
          "indexed": false,
          "internalType": "bytes32",
          "name": "commitHash",
          "type": "bytes32"
        }
      ],
      "name": "MafiaTargetCommitted",
      "type": "event"
    },
    {
      "anonymous": false,
      "inputs": [
        {
          "indexed": true,
          "internalType": "uint256",
          "name": "roomId",
          "type": "uint256"
        },
        {
          "indexed": false,
          "internalType": "address",
          "name": "player",
          "type": "address"
        },
        {
          "indexed": false,
          "internalType": "address",
          "name": "target",
          "type": "address"
        }
      ],
      "name": "MafiaTargetRevealed",
      "type": "event"
    },
    {
      "anonymous": false,
      "inputs": [
        {
          "indexed": true,
          "internalType": "uint256",
          "name": "roomId",
          "type": "uint256"
        },
        {
          "indexed": false,
          "internalType": "address",
          "name": "player",
          "type": "address"
        },
        {
          "indexed": false,
          "internalType": "bytes32",
          "name": "commitHash",
          "type": "bytes32"
        }
      ],
      "name": "NightActionCommitted",
      "type": "event"
    },
    {
      "anonymous": false,
      "inputs": [
        {
          "indexed": true,
          "internalType": "uint256",
          "name": "roomId",
          "type": "uint256"
        },
        {
          "indexed": false,
          "internalType": "address",
          "name": "player",
          "type": "address"
        },
        {
          "indexed": false,
          "internalType": "enum MafiaPortalV4.NightActionType",
          "name": "action",
          "type": "uint8"
        },
        {
          "indexed": false,
          "internalType": "address",
          "name": "target",
          "type": "address"
        }
      ],
      "name": "NightActionRevealed",
      "type": "event"
    },
    {
      "anonymous": false,
      "inputs": [
        {
          "indexed": true,
          "internalType": "uint256",
          "name": "roomId",
          "type": "uint256"
        },
        {
          "indexed": false,
          "internalType": "address",
          "name": "killed",
          "type": "address"
        },
        {
          "indexed": false,
          "internalType": "address",
          "name": "healed",
          "type": "address"
        }
      ],
      "name": "NightFinalized",
      "type": "event"
    },
    {
      "anonymous": false,
      "inputs": [
        {
          "indexed": true,
          "internalType": "uint256",
          "name": "roomId",
          "type": "uint256"
        }
      ],
      "name": "NightStarted",
      "type": "event"
    },
    {
      "anonymous": false,
      "inputs": [
        {
          "indexed": false,
          "internalType": "address",
          "name": "account",
          "type": "address"
        }
      ],
      "name": "Paused",
      "type": "event"
    },
    {
      "anonymous": false,
      "inputs": [
        {
          "indexed": true,
          "internalType": "uint256",
          "name": "roomId",
          "type": "uint256"
        },
        {
          "indexed": false,
          "internalType": "enum MafiaPortalV4.GamePhase",
          "name": "phase",
          "type": "uint8"
        }
      ],
      "name": "PhaseTimeout",
      "type": "event"
    },
    {
      "anonymous": false,
      "inputs": [
        {
          "indexed": true,
          "internalType": "uint256",
          "name": "roomId",
          "type": "uint256"
        },
        {
          "indexed": false,
          "internalType": "address",
          "name": "player",
          "type": "address"
        },
        {
          "indexed": false,
          "internalType": "string",
          "name": "reason",
          "type": "string"
        }
      ],
      "name": "PlayerEliminated",
      "type": "event"
    },
    {
      "anonymous": false,
      "inputs": [
        {
          "indexed": true,
          "internalType": "uint256",
          "name": "roomId",
          "type": "uint256"
        },
        {
          "indexed": false,
          "internalType": "address",
          "name": "player",
          "type": "address"
        },
        {
          "indexed": false,
          "internalType": "string",
          "name": "nickname",
          "type": "string"
        },
        {
          "indexed": false,
          "internalType": "address",
          "name": "sessionKey",
          "type": "address"
        }
      ],
      "name": "PlayerJoined",
      "type": "event"
    },
    {
      "anonymous": false,
      "inputs": [
        {
          "indexed": true,
          "internalType": "uint256",
          "name": "roomId",
          "type": "uint256"
        },
        {
          "indexed": false,
          "internalType": "address",
          "name": "player",
          "type": "address"
        },
        {
          "indexed": false,
          "internalType": "string",
          "name": "reason",
          "type": "string"
        }
      ],
      "name": "PlayerKicked",
      "type": "event"
    },
    {
      "anonymous": false,
      "inputs": [
        {
          "indexed": true,
          "internalType": "bytes32",
          "name": "role",
          "type": "bytes32"
        },
        {
          "indexed": true,
          "internalType": "bytes32",
          "name": "previousAdminRole",
          "type": "bytes32"
        },
        {
          "indexed": true,
          "internalType": "bytes32",
          "name": "newAdminRole",
          "type": "bytes32"
        }
      ],
      "name": "RoleAdminChanged",
      "type": "event"
    },
    {
      "anonymous": false,
      "inputs": [
        {
          "indexed": true,
          "internalType": "uint256",
          "name": "roomId",
          "type": "uint256"
        },
        {
          "indexed": false,
          "internalType": "address",
          "name": "player",
          "type": "address"
        },
        {
          "indexed": false,
          "internalType": "bytes32",
          "name": "commitHash",
          "type": "bytes32"
        }
      ],
      "name": "RoleCommitted",
      "type": "event"
    },
    {
      "anonymous": false,
      "inputs": [
        {
          "indexed": true,
          "internalType": "uint256",
          "name": "roomId",
          "type": "uint256"
        },
        {
          "indexed": false,
          "internalType": "address",
          "name": "player",
          "type": "address"
        }
      ],
      "name": "RoleConfirmed",
      "type": "event"
    },
    {
      "anonymous": false,
      "inputs": [
        {
          "indexed": true,
          "internalType": "bytes32",
          "name": "role",
          "type": "bytes32"
        },
        {
          "indexed": true,
          "internalType": "address",
          "name": "account",
          "type": "address"
        },
        {
          "indexed": true,
          "internalType": "address",
          "name": "sender",
          "type": "address"
        }
      ],
      "name": "RoleGranted",
      "type": "event"
    },
    {
      "anonymous": false,
      "inputs": [
        {
          "indexed": true,
          "internalType": "uint256",
          "name": "roomId",
          "type": "uint256"
        },
        {
          "indexed": false,
          "internalType": "address",
          "name": "player",
          "type": "address"
        },
        {
          "indexed": false,
          "internalType": "enum MafiaPortalV4.Role",
          "name": "role",
          "type": "uint8"
        }
      ],
      "name": "RoleRevealed",
      "type": "event"
    },
    {
      "anonymous": false,
      "inputs": [
        {
          "indexed": true,
          "internalType": "bytes32",
          "name": "role",
          "type": "bytes32"
        },
        {
          "indexed": true,
          "internalType": "address",
          "name": "account",
          "type": "address"
        },
        {
          "indexed": true,
          "internalType": "address",
          "name": "sender",
          "type": "address"
        }
      ],
      "name": "RoleRevoked",
      "type": "event"
    },
    {
      "anonymous": false,
      "inputs": [
        {
          "indexed": true,
          "internalType": "uint256",
          "name": "roomId",
          "type": "uint256"
        },
        {
          "indexed": false,
          "internalType": "address",
          "name": "host",
          "type": "address"
        },
        {
          "indexed": false,
          "internalType": "string",
          "name": "name",
          "type": "string"
        },
        {
          "indexed": false,
          "internalType": "uint256",
          "name": "maxPlayers",
          "type": "uint256"
        }
      ],
      "name": "RoomCreated",
      "type": "event"
    },
    {
      "anonymous": false,
      "inputs": [
        {
          "indexed": true,
          "internalType": "address",
          "name": "mainWallet",
          "type": "address"
        },
        {
          "indexed": true,
          "internalType": "address",
          "name": "sessionKey",
          "type": "address"
        },
        {
          "indexed": false,
          "internalType": "uint256",
          "name": "roomId",
          "type": "uint256"
        },
        {
          "indexed": false,
          "internalType": "uint256",
          "name": "expiresAt",
          "type": "uint256"
        }
      ],
      "name": "SessionKeyRegistered",
      "type": "event"
    },
    {
      "anonymous": false,
      "inputs": [
        {
          "indexed": true,
          "internalType": "address",
          "name": "mainWallet",
          "type": "address"
        },
        {
          "indexed": true,
          "internalType": "address",
          "name": "sessionKey",
          "type": "address"
        }
      ],
      "name": "SessionKeyRevoked",
      "type": "event"
    },
    {
      "anonymous": false,
      "inputs": [
        {
          "indexed": false,
          "internalType": "address",
          "name": "account",
          "type": "address"
        }
      ],
      "name": "Unpaused",
      "type": "event"
    },
    {
      "anonymous": false,
      "inputs": [
        {
          "indexed": true,
          "internalType": "uint256",
          "name": "roomId",
          "type": "uint256"
        },
        {
          "indexed": false,
          "internalType": "address",
          "name": "voter",
          "type": "address"
        },
        {
          "indexed": false,
          "internalType": "address",
          "name": "target",
          "type": "address"
        }
      ],
      "name": "VoteCast",
      "type": "event"
    },
    {
      "anonymous": false,
      "inputs": [
        {
          "indexed": true,
          "internalType": "uint256",
          "name": "roomId",
          "type": "uint256"
        },
        {
          "indexed": false,
          "internalType": "address",
          "name": "eliminated",
          "type": "address"
        },
        {
          "indexed": false,
          "internalType": "uint256",
          "name": "voteCount",
          "type": "uint256"
        }
      ],
      "name": "VotingFinalized",
      "type": "event"
    },
    {
      "anonymous": false,
      "inputs": [
        {
          "indexed": true,
          "internalType": "uint256",
          "name": "roomId",
          "type": "uint256"
        }
      ],
      "name": "VotingStarted",
      "type": "event"
    },
    {
      "inputs": [],
      "name": "ADMIN_ROLE",
      "outputs": [
        {
          "internalType": "bytes32",
          "name": "",
          "type": "bytes32"
        }
      ],
      "stateMutability": "view",
      "type": "function"
    },
    {
      "inputs": [],
      "name": "DEFAULT_ADMIN_ROLE",
      "outputs": [
        {
          "internalType": "bytes32",
          "name": "",
          "type": "bytes32"
        }
      ],
      "stateMutability": "view",
      "type": "function"
    },
    {
      "inputs": [],
      "name": "MAX_ARRAY_SIZE",
      "outputs": [
        {
          "internalType": "uint32",
          "name": "",
          "type": "uint32"
        }
      ],
      "stateMutability": "view",
      "type": "function"
    },
    {
      "inputs": [],
      "name": "PHASE_TIMEOUT",
      "outputs": [
        {
          "internalType": "uint32",
          "name": "",
          "type": "uint32"
        }
      ],
      "stateMutability": "view",
      "type": "function"
    },
    {
      "inputs": [],
      "name": "SESSION_DURATION",
      "outputs": [
        {
          "internalType": "uint32",
          "name": "",
          "type": "uint32"
        }
      ],
      "stateMutability": "view",
      "type": "function"
    },
    {
      "inputs": [],
      "name": "TURN_TIMEOUT",
      "outputs": [
        {
          "internalType": "uint32",
          "name": "",
          "type": "uint32"
        }
      ],
      "stateMutability": "view",
      "type": "function"
    },
    {
      "inputs": [
        {
          "internalType": "uint256",
          "name": "roomId",
          "type": "uint256"
        },
        {
          "internalType": "bytes32",
          "name": "roleHash",
          "type": "bytes32"
        }
      ],
      "name": "commitAndConfirmRole",
      "outputs": [],
      "stateMutability": "nonpayable",
      "type": "function"
    },
    {
      "inputs": [
        {
          "internalType": "uint256",
          "name": "roomId",
          "type": "uint256"
        },
        {
          "internalType": "bytes32",
          "name": "deckHash",
          "type": "bytes32"
        }
      ],
      "name": "commitDeck",
      "outputs": [],
      "stateMutability": "nonpayable",
      "type": "function"
    },
    {
      "inputs": [
        {
          "internalType": "uint256",
          "name": "roomId",
          "type": "uint256"
        },
        {
          "internalType": "bytes32",
          "name": "targetHash",
          "type": "bytes32"
        }
      ],
      "name": "commitMafiaTarget",
      "outputs": [],
      "stateMutability": "nonpayable",
      "type": "function"
    },
    {
      "inputs": [
        {
          "internalType": "uint256",
          "name": "roomId",
          "type": "uint256"
        },
        {
          "internalType": "bytes32",
          "name": "hash",
          "type": "bytes32"
        }
      ],
      "name": "commitNightAction",
      "outputs": [],
      "stateMutability": "nonpayable",
      "type": "function"
    },
    {
      "inputs": [
        {
          "internalType": "uint256",
          "name": "roomId",
          "type": "uint256"
        },
        {
          "internalType": "bytes32",
          "name": "roleHash",
          "type": "bytes32"
        }
      ],
      "name": "commitRole",
      "outputs": [],
      "stateMutability": "nonpayable",
      "type": "function"
    },
    {
      "inputs": [
        {
          "internalType": "uint256",
          "name": "roomId",
          "type": "uint256"
        }
      ],
      "name": "confirmRole",
      "outputs": [],
      "stateMutability": "nonpayable",
      "type": "function"
    },
    {
      "inputs": [
        {
          "internalType": "string",
          "name": "roomName",
          "type": "string"
        },
        {
          "internalType": "uint8",
          "name": "maxPlayers",
          "type": "uint8"
        },
        {
          "internalType": "string",
          "name": "nickname",
          "type": "string"
        },
        {
          "internalType": "bytes",
          "name": "publicKey",
          "type": "bytes"
        },
        {
          "internalType": "address",
          "name": "sessionAddress",
          "type": "address"
        }
      ],
      "name": "createAndJoin",
      "outputs": [
        {
          "internalType": "uint256",
          "name": "",
          "type": "uint256"
        }
      ],
      "stateMutability": "payable",
      "type": "function"
    },
    {
      "inputs": [
        {
          "internalType": "uint256",
          "name": "",
          "type": "uint256"
        },
        {
          "internalType": "address",
          "name": "",
          "type": "address"
        }
      ],
      "name": "deckCommits",
      "outputs": [
        {
          "internalType": "bytes32",
          "name": "commitHash",
          "type": "bytes32"
        },
        {
          "internalType": "bool",
          "name": "revealed",
          "type": "bool"
        }
      ],
      "stateMutability": "view",
      "type": "function"
    },
    {
      "inputs": [
        {
          "internalType": "uint256",
          "name": "roomId",
          "type": "uint256"
        }
      ],
      "name": "endGameAutomatically",
      "outputs": [],
      "stateMutability": "nonpayable",
      "type": "function"
    },
    {
      "inputs": [
        {
          "internalType": "uint256",
          "name": "roomId",
          "type": "uint256"
        }
      ],
      "name": "endNight",
      "outputs": [],
      "stateMutability": "nonpayable",
      "type": "function"
    },
    {
      "inputs": [
        {
          "internalType": "uint256",
          "name": "roomId",
          "type": "uint256"
        }
      ],
      "name": "forcePhaseTimeout",
      "outputs": [],
      "stateMutability": "nonpayable",
      "type": "function"
    },
    {
      "inputs": [
        {
          "internalType": "uint256",
          "name": "roomId",
          "type": "uint256"
        }
      ],
      "name": "getAliveMafiaCount",
      "outputs": [
        {
          "internalType": "uint8",
          "name": "",
          "type": "uint8"
        }
      ],
      "stateMutability": "view",
      "type": "function"
    },
    {
      "inputs": [
        {
          "internalType": "uint256",
          "name": "roomId",
          "type": "uint256"
        }
      ],
      "name": "getAllKeysForMe",
      "outputs": [
        {
          "internalType": "address[]",
          "name": "senders",
          "type": "address[]"
        },
        {
          "internalType": "bytes[]",
          "name": "keys",
          "type": "bytes[]"
        }
      ],
      "stateMutability": "view",
      "type": "function"
    },
    {
      "inputs": [
        {
          "internalType": "uint256",
          "name": "roomId",
          "type": "uint256"
        }
      ],
      "name": "getDeck",
      "outputs": [
        {
          "internalType": "string[]",
          "name": "",
          "type": "string[]"
        }
      ],
      "stateMutability": "view",
      "type": "function"
    },
    {
      "inputs": [
        {
          "internalType": "uint256",
          "name": "roomId",
          "type": "uint256"
        },
        {
          "internalType": "address",
          "name": "from",
          "type": "address"
        },
        {
          "internalType": "address",
          "name": "to",
          "type": "address"
        }
      ],
      "name": "getKeyFromTo",
      "outputs": [
        {
          "internalType": "bytes",
          "name": "",
          "type": "bytes"
        }
      ],
      "stateMutability": "view",
      "type": "function"
    },
    {
      "inputs": [
        {
          "internalType": "uint256",
          "name": "roomId",
          "type": "uint256"
        }
      ],
      "name": "getMafiaChat",
      "outputs": [
        {
          "components": [
            {
              "internalType": "bytes",
              "name": "encryptedMessage",
              "type": "bytes"
            },
            {
              "internalType": "uint32",
              "name": "timestamp",
              "type": "uint32"
            },
            {
              "internalType": "address",
              "name": "sender",
              "type": "address"
            }
          ],
          "internalType": "struct MafiaPortalV4.MafiaMessage[]",
          "name": "",
          "type": "tuple[]"
        }
      ],
      "stateMutability": "view",
      "type": "function"
    },
    {
      "inputs": [
        {
          "internalType": "uint256",
          "name": "roomId",
          "type": "uint256"
        }
      ],
      "name": "getMafiaConsensus",
      "outputs": [
        {
          "internalType": "uint8",
          "name": "committed",
          "type": "uint8"
        },
        {
          "internalType": "uint8",
          "name": "revealed",
          "type": "uint8"
        },
        {
          "internalType": "address",
          "name": "consensusTarget",
          "type": "address"
        }
      ],
      "stateMutability": "view",
      "type": "function"
    },
    {
      "inputs": [
        {
          "internalType": "uint256",
          "name": "roomId",
          "type": "uint256"
        }
      ],
      "name": "getPhaseDeadline",
      "outputs": [
        {
          "internalType": "uint32",
          "name": "",
          "type": "uint32"
        }
      ],
      "stateMutability": "view",
      "type": "function"
    },
    {
      "inputs": [
        {
          "internalType": "uint256",
          "name": "roomId",
          "type": "uint256"
        },
        {
          "internalType": "address",
          "name": "player",
          "type": "address"
        }
      ],
      "name": "getPlayerFlags",
      "outputs": [
        {
          "internalType": "bool",
          "name": "isActive",
          "type": "bool"
        },
        {
          "internalType": "bool",
          "name": "hasConfirmedRole",
          "type": "bool"
        },
        {
          "internalType": "bool",
          "name": "hasVoted",
          "type": "bool"
        },
        {
          "internalType": "bool",
          "name": "hasCommitted",
          "type": "bool"
        },
        {
          "internalType": "bool",
          "name": "hasRevealed",
          "type": "bool"
        },
        {
          "internalType": "bool",
          "name": "hasSharedKeys",
          "type": "bool"
        },
        {
          "internalType": "bool",
          "name": "hasClaimedMafia",
          "type": "bool"
        }
      ],
      "stateMutability": "view",
      "type": "function"
    },
    {
      "inputs": [
        {
          "internalType": "uint256",
          "name": "roomId",
          "type": "uint256"
        }
      ],
      "name": "getPlayers",
      "outputs": [
        {
          "components": [
            {
              "internalType": "address",
              "name": "wallet",
              "type": "address"
            },
            {
              "internalType": "string",
              "name": "nickname",
              "type": "string"
            },
            {
              "internalType": "bytes",
              "name": "publicKey",
              "type": "bytes"
            },
            {
              "internalType": "uint32",
              "name": "flags",
              "type": "uint32"
            }
          ],
          "internalType": "struct MafiaPortalV4.Player[]",
          "name": "",
          "type": "tuple[]"
        }
      ],
      "stateMutability": "view",
      "type": "function"
    },
    {
      "inputs": [
        {
          "internalType": "uint256",
          "name": "roomId",
          "type": "uint256"
        }
      ],
      "name": "getRevealedMafiaCount",
      "outputs": [
        {
          "internalType": "uint8",
          "name": "",
          "type": "uint8"
        }
      ],
      "stateMutability": "view",
      "type": "function"
    },
    {
      "inputs": [
        {
          "internalType": "bytes32",
          "name": "role",
          "type": "bytes32"
        }
      ],
      "name": "getRoleAdmin",
      "outputs": [
        {
          "internalType": "bytes32",
          "name": "",
          "type": "bytes32"
        }
      ],
      "stateMutability": "view",
      "type": "function"
    },
    {
      "inputs": [
        {
          "internalType": "uint256",
          "name": "roomId",
          "type": "uint256"
        }
      ],
      "name": "getRoom",
      "outputs": [
        {
          "components": [
            {
              "internalType": "uint64",
              "name": "id",
              "type": "uint64"
            },
            {
              "internalType": "address",
              "name": "host",
              "type": "address"
            },
            {
              "internalType": "string",
              "name": "name",
              "type": "string"
            },
            {
              "internalType": "enum MafiaPortalV4.GamePhase",
              "name": "phase",
              "type": "uint8"
            },
            {
              "internalType": "uint8",
              "name": "maxPlayers",
              "type": "uint8"
            },
            {
              "internalType": "uint8",
              "name": "playersCount",
              "type": "uint8"
            },
            {
              "internalType": "uint8",
              "name": "aliveCount",
              "type": "uint8"
            },
            {
              "internalType": "uint16",
              "name": "dayCount",
              "type": "uint16"
            },
            {
              "internalType": "uint8",
              "name": "currentShufflerIndex",
              "type": "uint8"
            },
            {
              "internalType": "uint32",
              "name": "lastActionTimestamp",
              "type": "uint32"
            },
            {
              "internalType": "uint32",
              "name": "phaseDeadline",
              "type": "uint32"
            },
            {
              "internalType": "uint8",
              "name": "confirmedCount",
              "type": "uint8"
            },
            {
              "internalType": "uint8",
              "name": "votedCount",
              "type": "uint8"
            },
            {
              "internalType": "uint8",
              "name": "committedCount",
              "type": "uint8"
            },
            {
              "internalType": "uint8",
              "name": "revealedCount",
              "type": "uint8"
            },
            {
              "internalType": "uint8",
              "name": "keysSharedCount",
              "type": "uint8"
            }
          ],
          "internalType": "struct MafiaPortalV4.GameRoom",
          "name": "",
          "type": "tuple"
        }
      ],
      "stateMutability": "view",
      "type": "function"
    },
    {
      "inputs": [
        {
          "internalType": "bytes32",
          "name": "role",
          "type": "bytes32"
        },
        {
          "internalType": "address",
          "name": "account",
          "type": "address"
        }
      ],
      "name": "grantRole",
      "outputs": [],
      "stateMutability": "nonpayable",
      "type": "function"
    },
    {
      "inputs": [
        {
          "internalType": "bytes32",
          "name": "role",
          "type": "bytes32"
        },
        {
          "internalType": "address",
          "name": "account",
          "type": "address"
        }
      ],
      "name": "hasRole",
      "outputs": [
        {
          "internalType": "bool",
          "name": "",
          "type": "bool"
        }
      ],
      "stateMutability": "view",
      "type": "function"
    },
    {
      "inputs": [
        {
          "internalType": "uint256",
          "name": "",
          "type": "uint256"
        },
        {
          "internalType": "address",
          "name": "",
          "type": "address"
        }
      ],
      "name": "isPlayerInRoom",
      "outputs": [
        {
          "internalType": "bool",
          "name": "",
          "type": "bool"
        }
      ],
      "stateMutability": "view",
      "type": "function"
    },
    {
      "inputs": [
        {
          "internalType": "address",
          "name": "",
          "type": "address"
        }
      ],
      "name": "isRegisteredSession",
      "outputs": [
        {
          "internalType": "bool",
          "name": "",
          "type": "bool"
        }
      ],
      "stateMutability": "view",
      "type": "function"
    },
    {
      "inputs": [
        {
          "internalType": "uint256",
          "name": "roomId",
          "type": "uint256"
        },
        {
          "internalType": "string",
          "name": "nickname",
          "type": "string"
        },
        {
          "internalType": "bytes",
          "name": "publicKey",
          "type": "bytes"
        },
        {
          "internalType": "address",
          "name": "sessionAddress",
          "type": "address"
        }
      ],
      "name": "joinRoom",
      "outputs": [],
      "stateMutability": "payable",
      "type": "function"
    },
    {
      "inputs": [
        {
          "internalType": "uint256",
          "name": "",
          "type": "uint256"
        },
        {
          "internalType": "uint256",
          "name": "",
          "type": "uint256"
        }
      ],
      "name": "mafiaChat",
      "outputs": [
        {
          "internalType": "bytes",
          "name": "encryptedMessage",
          "type": "bytes"
        },
        {
          "internalType": "uint32",
          "name": "timestamp",
          "type": "uint32"
        },
        {
          "internalType": "address",
          "name": "sender",
          "type": "address"
        }
      ],
      "stateMutability": "view",
      "type": "function"
    },
    {
      "inputs": [
        {
          "internalType": "uint256",
          "name": "",
          "type": "uint256"
        }
      ],
      "name": "mafiaCommittedCount",
      "outputs": [
        {
          "internalType": "uint8",
          "name": "",
          "type": "uint8"
        }
      ],
      "stateMutability": "view",
      "type": "function"
    },
    {
      "inputs": [
        {
          "internalType": "uint256",
          "name": "",
          "type": "uint256"
        }
      ],
      "name": "mafiaConsensusTarget",
      "outputs": [
        {
          "internalType": "address",
          "name": "",
          "type": "address"
        }
      ],
      "stateMutability": "view",
      "type": "function"
    },
    {
      "inputs": [
        {
          "internalType": "uint256",
          "name": "",
          "type": "uint256"
        }
      ],
      "name": "mafiaRevealedCount",
      "outputs": [
        {
          "internalType": "uint8",
          "name": "",
          "type": "uint8"
        }
      ],
      "stateMutability": "view",
      "type": "function"
    },
    {
      "inputs": [
        {
          "internalType": "uint256",
          "name": "",
          "type": "uint256"
        },
        {
          "internalType": "address",
          "name": "",
          "type": "address"
        }
      ],
      "name": "mafiaTargetCommits",
      "outputs": [
        {
          "internalType": "bytes32",
          "name": "commitHash",
          "type": "bytes32"
        },
        {
          "internalType": "address",
          "name": "target",
          "type": "address"
        },
        {
          "internalType": "bool",
          "name": "revealed",
          "type": "bool"
        }
      ],
      "stateMutability": "view",
      "type": "function"
    },
    {
      "inputs": [],
      "name": "nextRoomId",
      "outputs": [
        {
          "internalType": "uint256",
          "name": "",
          "type": "uint256"
        }
      ],
      "stateMutability": "view",
      "type": "function"
    },
    {
      "inputs": [
        {
          "internalType": "uint256",
          "name": "",
          "type": "uint256"
        },
        {
          "internalType": "address",
          "name": "",
          "type": "address"
        }
      ],
      "name": "nightCommits",
      "outputs": [
        {
          "internalType": "bytes32",
          "name": "commitHash",
          "type": "bytes32"
        },
        {
          "internalType": "bool",
          "name": "revealed",
          "type": "bool"
        },
        {
          "internalType": "uint32",
          "name": "commitTime",
          "type": "uint32"
        }
      ],
      "stateMutability": "view",
      "type": "function"
    },
    {
      "inputs": [],
      "name": "pause",
      "outputs": [],
      "stateMutability": "nonpayable",
      "type": "function"
    },
    {
      "inputs": [],
      "name": "paused",
      "outputs": [
        {
          "internalType": "bool",
          "name": "",
          "type": "bool"
        }
      ],
      "stateMutability": "view",
      "type": "function"
    },
    {
      "inputs": [
        {
          "internalType": "uint256",
          "name": "",
          "type": "uint256"
        },
        {
          "internalType": "address",
          "name": "",
          "type": "address"
        },
        {
          "internalType": "address",
          "name": "",
          "type": "address"
        }
      ],
      "name": "playerDeckKeys",
      "outputs": [
        {
          "internalType": "bytes",
          "name": "",
          "type": "bytes"
        }
      ],
      "stateMutability": "view",
      "type": "function"
    },
    {
      "inputs": [
        {
          "internalType": "uint256",
          "name": "",
          "type": "uint256"
        },
        {
          "internalType": "address",
          "name": "",
          "type": "address"
        }
      ],
      "name": "playerIndex",
      "outputs": [
        {
          "internalType": "uint8",
          "name": "",
          "type": "uint8"
        }
      ],
      "stateMutability": "view",
      "type": "function"
    },
    {
      "inputs": [
        {
          "internalType": "uint256",
          "name": "",
          "type": "uint256"
        },
        {
          "internalType": "address",
          "name": "",
          "type": "address"
        }
      ],
      "name": "playerRoles",
      "outputs": [
        {
          "internalType": "enum MafiaPortalV4.Role",
          "name": "",
          "type": "uint8"
        }
      ],
      "stateMutability": "view",
      "type": "function"
    },
    {
      "inputs": [
        {
          "internalType": "bytes32",
          "name": "role",
          "type": "bytes32"
        },
        {
          "internalType": "address",
          "name": "callerConfirmation",
          "type": "address"
        }
      ],
      "name": "renounceRole",
      "outputs": [],
      "stateMutability": "nonpayable",
      "type": "function"
    },
    {
      "inputs": [
        {
          "internalType": "uint256",
          "name": "roomId",
          "type": "uint256"
        },
        {
          "internalType": "string[]",
          "name": "deck",
          "type": "string[]"
        },
        {
          "internalType": "string",
          "name": "salt",
          "type": "string"
        }
      ],
      "name": "revealDeck",
      "outputs": [],
      "stateMutability": "nonpayable",
      "type": "function"
    },
    {
      "inputs": [
        {
          "internalType": "uint256",
          "name": "roomId",
          "type": "uint256"
        },
        {
          "internalType": "address",
          "name": "target",
          "type": "address"
        },
        {
          "internalType": "string",
          "name": "salt",
          "type": "string"
        }
      ],
      "name": "revealMafiaTarget",
      "outputs": [],
      "stateMutability": "nonpayable",
      "type": "function"
    },
    {
      "inputs": [
        {
          "internalType": "uint256",
          "name": "roomId",
          "type": "uint256"
        },
        {
          "internalType": "enum MafiaPortalV4.NightActionType",
          "name": "action",
          "type": "uint8"
        },
        {
          "internalType": "address",
          "name": "target",
          "type": "address"
        },
        {
          "internalType": "string",
          "name": "salt",
          "type": "string"
        }
      ],
      "name": "revealNightAction",
      "outputs": [],
      "stateMutability": "nonpayable",
      "type": "function"
    },
    {
      "inputs": [
        {
          "internalType": "uint256",
          "name": "roomId",
          "type": "uint256"
        },
        {
          "internalType": "enum MafiaPortalV4.Role",
          "name": "role",
          "type": "uint8"
        },
        {
          "internalType": "string",
          "name": "salt",
          "type": "string"
        }
      ],
      "name": "revealRole",
      "outputs": [],
      "stateMutability": "nonpayable",
      "type": "function"
    },
    {
      "inputs": [
        {
          "internalType": "uint256",
          "name": "",
          "type": "uint256"
        },
        {
          "internalType": "address",
          "name": "",
          "type": "address"
        }
      ],
      "name": "revealedActions",
      "outputs": [
        {
          "internalType": "enum MafiaPortalV4.NightActionType",
          "name": "",
          "type": "uint8"
        }
      ],
      "stateMutability": "view",
      "type": "function"
    },
    {
      "inputs": [
        {
          "internalType": "uint256",
          "name": "",
          "type": "uint256"
        },
        {
          "internalType": "uint256",
          "name": "",
          "type": "uint256"
        }
      ],
      "name": "revealedDeck",
      "outputs": [
        {
          "internalType": "string",
          "name": "",
          "type": "string"
        }
      ],
      "stateMutability": "view",
      "type": "function"
    },
    {
      "inputs": [
        {
          "internalType": "uint256",
          "name": "",
          "type": "uint256"
        },
        {
          "internalType": "address",
          "name": "",
          "type": "address"
        }
      ],
      "name": "revealedTargets",
      "outputs": [
        {
          "internalType": "address",
          "name": "",
          "type": "address"
        }
      ],
      "stateMutability": "view",
      "type": "function"
    },
    {
      "inputs": [
        {
          "internalType": "bytes32",
          "name": "role",
          "type": "bytes32"
        },
        {
          "internalType": "address",
          "name": "account",
          "type": "address"
        }
      ],
      "name": "revokeRole",
      "outputs": [],
      "stateMutability": "nonpayable",
      "type": "function"
    },
    {
      "inputs": [],
      "name": "revokeSessionKey",
      "outputs": [],
      "stateMutability": "nonpayable",
      "type": "function"
    },
    {
      "inputs": [
        {
          "internalType": "uint256",
          "name": "",
          "type": "uint256"
        },
        {
          "internalType": "address",
          "name": "",
          "type": "address"
        }
      ],
      "name": "roleCommits",
      "outputs": [
        {
          "internalType": "bytes32",
          "name": "",
          "type": "bytes32"
        }
      ],
      "stateMutability": "view",
      "type": "function"
    },
    {
      "inputs": [
        {
          "internalType": "uint256",
          "name": "",
          "type": "uint256"
        },
        {
          "internalType": "uint256",
          "name": "",
          "type": "uint256"
        }
      ],
      "name": "roomPlayers",
      "outputs": [
        {
          "internalType": "address",
          "name": "wallet",
          "type": "address"
        },
        {
          "internalType": "string",
          "name": "nickname",
          "type": "string"
        },
        {
          "internalType": "bytes",
          "name": "publicKey",
          "type": "bytes"
        },
        {
          "internalType": "uint32",
          "name": "flags",
          "type": "uint32"
        }
      ],
      "stateMutability": "view",
      "type": "function"
    },
    {
      "inputs": [
        {
          "internalType": "uint256",
          "name": "",
          "type": "uint256"
        }
      ],
      "name": "rooms",
      "outputs": [
        {
          "internalType": "uint64",
          "name": "id",
          "type": "uint64"
        },
        {
          "internalType": "address",
          "name": "host",
          "type": "address"
        },
        {
          "internalType": "string",
          "name": "name",
          "type": "string"
        },
        {
          "internalType": "enum MafiaPortalV4.GamePhase",
          "name": "phase",
          "type": "uint8"
        },
        {
          "internalType": "uint8",
          "name": "maxPlayers",
          "type": "uint8"
        },
        {
          "internalType": "uint8",
          "name": "playersCount",
          "type": "uint8"
        },
        {
          "internalType": "uint8",
          "name": "aliveCount",
          "type": "uint8"
        },
        {
          "internalType": "uint16",
          "name": "dayCount",
          "type": "uint16"
        },
        {
          "internalType": "uint8",
          "name": "currentShufflerIndex",
          "type": "uint8"
        },
        {
          "internalType": "uint32",
          "name": "lastActionTimestamp",
          "type": "uint32"
        },
        {
          "internalType": "uint32",
          "name": "phaseDeadline",
          "type": "uint32"
        },
        {
          "internalType": "uint8",
          "name": "confirmedCount",
          "type": "uint8"
        },
        {
          "internalType": "uint8",
          "name": "votedCount",
          "type": "uint8"
        },
        {
          "internalType": "uint8",
          "name": "committedCount",
          "type": "uint8"
        },
        {
          "internalType": "uint8",
          "name": "revealedCount",
          "type": "uint8"
        },
        {
          "internalType": "uint8",
          "name": "keysSharedCount",
          "type": "uint8"
        }
      ],
      "stateMutability": "view",
      "type": "function"
    },
    {
      "inputs": [
        {
          "internalType": "uint256",
          "name": "roomId",
          "type": "uint256"
        },
        {
          "internalType": "bytes",
          "name": "encryptedMessage",
          "type": "bytes"
        }
      ],
      "name": "sendMafiaMessage",
      "outputs": [],
      "stateMutability": "nonpayable",
      "type": "function"
    },
    {
      "inputs": [
        {
          "internalType": "address",
          "name": "",
          "type": "address"
        }
      ],
      "name": "sessionKeys",
      "outputs": [
        {
          "internalType": "address",
          "name": "sessionAddress",
          "type": "address"
        },
        {
          "internalType": "uint32",
          "name": "expiresAt",
          "type": "uint32"
        },
        {
          "internalType": "uint64",
          "name": "roomId",
          "type": "uint64"
        },
        {
          "internalType": "bool",
          "name": "isActive",
          "type": "bool"
        }
      ],
      "stateMutability": "view",
      "type": "function"
    },
    {
      "inputs": [
        {
          "internalType": "address",
          "name": "",
          "type": "address"
        }
      ],
      "name": "sessionToMain",
      "outputs": [
        {
          "internalType": "address",
          "name": "",
          "type": "address"
        }
      ],
      "stateMutability": "view",
      "type": "function"
    },
    {
      "inputs": [
        {
          "internalType": "uint256",
          "name": "roomId",
          "type": "uint256"
        },
        {
          "internalType": "address[]",
          "name": "recipients",
          "type": "address[]"
        },
        {
          "internalType": "bytes[]",
          "name": "encryptedKeys",
          "type": "bytes[]"
        }
      ],
      "name": "shareKeysToAll",
      "outputs": [],
      "stateMutability": "nonpayable",
      "type": "function"
    },
    {
      "inputs": [
        {
          "internalType": "uint256",
          "name": "roomId",
          "type": "uint256"
        }
      ],
      "name": "startGame",
      "outputs": [],
      "stateMutability": "nonpayable",
      "type": "function"
    },
    {
      "inputs": [
        {
          "internalType": "uint256",
          "name": "roomId",
          "type": "uint256"
        }
      ],
      "name": "startVoting",
      "outputs": [],
      "stateMutability": "nonpayable",
      "type": "function"
    },
    {
      "inputs": [
        {
          "internalType": "bytes4",
          "name": "interfaceId",
          "type": "bytes4"
        }
      ],
      "name": "supportsInterface",
      "outputs": [
        {
          "internalType": "bool",
          "name": "",
          "type": "bool"
        }
      ],
      "stateMutability": "view",
      "type": "function"
    },
    {
      "inputs": [],
      "name": "unpause",
      "outputs": [],
      "stateMutability": "nonpayable",
      "type": "function"
    },
    {
      "inputs": [
        {
          "internalType": "uint256",
          "name": "roomId",
          "type": "uint256"
        },
        {
          "internalType": "address",
          "name": "target",
          "type": "address"
        }
      ],
      "name": "vote",
      "outputs": [],
      "stateMutability": "nonpayable",
      "type": "function"
    },
    {
      "inputs": [
        {
          "internalType": "uint256",
          "name": "",
          "type": "uint256"
        },
        {
          "internalType": "address",
          "name": "",
          "type": "address"
        }
      ],
      "name": "voteCounts",
      "outputs": [
        {
          "internalType": "uint8",
          "name": "",
          "type": "uint8"
        }
      ],
      "stateMutability": "view",
      "type": "function"
    },
    {
      "inputs": [
        {
          "internalType": "uint256",
          "name": "",
          "type": "uint256"
        },
        {
          "internalType": "address",
          "name": "",
          "type": "address"
        }
      ],
      "name": "votes",
      "outputs": [
        {
          "internalType": "address",
          "name": "",
          "type": "address"
        }
      ],
      "stateMutability": "view",
      "type": "function"
    },
    {
      "inputs": [],
      "name": "withdrawFees",
      "outputs": [],
      "stateMutability": "nonpayable",
      "type": "function"
    }
  ],
  "bytecode": "0x6080604052346100355760015f55600160195561001b33610039565b50610025336100af565b506040516168bf90816101438239f35b5f80fd5b6001600160a01b0381165f9081525f516020616a225f395f51905f52602052604090205460ff166100aa576001600160a01b03165f8181525f516020616a225f395f51905f5260205260408120805460ff191660011790553391905f516020616a025f395f51905f528180a4600190565b505f90565b6001600160a01b0381165f9081525f516020616a425f395f51905f52602052604090205460ff166100aa576001600160a01b03165f8181525f516020616a425f395f51905f5260205260408120805460ff191660011790553391907fa49807205ce4d355092ef5a8a18f56e8913cf4a201fbe287825b095693c21775905f516020616a025f395f51905f529080a460019056fe6080806040526004361015610012575f80fd5b5f3560e01c90816301ffc9a714614b045750806302d947ef146147e257806307a52cab146147c557806309ed3e221461473057806312c57f551461138857806314a09d60146146fa5780631bae0ac8146145e3578063248a9ca3146145bd5780632a51fb3a146144e85780632f2ff15d146144b757806330a05e731461291057806335b972991461444257806336568abe146143fe57806337048f21146143135780633d2f5bda1461417c5780633deaa341146141605780633ec09d2c146141235780633f4ba83a146140985780633fb5d9f514613ef357806343cd690314613cf5578063460e204914613ba2578063476343ee14613b5f57806348e69d1f14613ac05780634f324d1414613a805780635099fae21461397f578063567e8dd51461392d5780635c975abb1461390b5780635d99dc3e146138645780635e82ff651461384957806361ea2027146138025780636594bb0c1461346f578063660e907c14613426578063669ead17146133da5780636920e3ee146133ad5780636d8a74cb1461312d5780636e2083f4146130fb5780637120465b14612eed57806375b238fc14612ec65780637fa9c28914612eaa578063800122d61461293d57806382fab9d81461291057806384411c0a146128c95780638456cb591461284c5780638a8dd7f4146128085780638d29f52f146127a957806391d148541461276057806394225e9d1461242b578063a05bcf02146123f4578063a217fddf146123da578063aa55acbf14612375578063af38479114612099578063af7efa7c1461207e578063b6bf359a14611dca578063b7b8d60414611d62578063bb9ae8751461199d578063bcb72159146117a9578063c96f097914611598578063d06553941461146b578063d23254b414611421578063d547741f146113e9578063d94a51cb14611388578063dae2928a14610fc2578063e5ed1d5914610ed5578063e851122d14610e87578063ea99c3fe14610d9e578063eb024101146108fd578063eb0fa6f8146108b3578063f14caed714610850578063f30818ff14610753578063f3db51331461067c5763ff99233a14610329575f80fd5b3461067857606036600319011261067857600435610345614b57565b6044356001600160401b03811161067857610364903690600401614d83565b9161036d6154b3565b610376846154d1565b845f52600560205260405f2060018060a01b0382165f5260205260ff60405f205416156105f8576103a79085615557565b156105e957835f52600360205263ffffffff600260405f20015460581c16151580610657575b610648576103d9615613565b6103e2846154d1565b92845f52600360205260ff600260405f2001541660078110156106345760050361062557845f52601060205260405f2060018060a01b0385165f5260205260405f20541561061657845f52601260205260405f2060018060a01b0385165f5260205260ff600160405f20015460a01c1661060757610460848661562e565b6001600160a01b03821692836105bb575b6104a46104969160405192839160208301958887526040808501526060840191614ee4565b03601f198101835282614c3c565b519020845f52601260205260405f2060018060a01b0385165f5260205260405f2054036105ac575f8481526012602090815260408083206001600160a01b03871684528252808320600101805460ff60a01b199096166001600160a81b031990961695909517600160a01b179094558582526014905291909120805484937f307ed77ec1f8fe53e10faa7fa486ba5e5b66eab3a9d19902c20b0da3c3b0b26a9392909160ff90610555908216614e09565b1660ff1982541617905561056e60405192839283614e37565b0390a2805f52601460205260ff60405f205416815f52601360205260ff60405f2054161461059d575b60015f55005b6105a6906164c0565b5f610597565b6336c5b53760e11b5f5260045ffd5b855f52600560205260405f20845f5260205260ff60405f205416156105f8576105e48387615557565b610471575b630575d90f60e11b5f5260045ffd5b63721c7c6760e11b5f5260045ffd5b633a456ae760e11b5f5260045ffd5b631ea3b68b60e21b5f5260045ffd5b6338961af360e21b5f5260045ffd5b634e487b7160e01b5f52602160045260245ffd5b6301a6f70d60e01b5f5260045ffd5b50835f52600360205263ffffffff600260405f20015460581c1642116103cd565b5f80fd5b34610678576020366003190112610678576004355f5f5b825f52600460205260405f205460ff8216101561074557825f5260046020526106bf8160405f20614b99565b50545f848152600f602090815260408083206001600160a01b039094168352929052205460ff1660058110156106345760011480610720575b61070b575b61070690614e09565b610693565b9061071861070691614e09565b9190506106fd565b50825f5260046020526002600361073a8360405f20614b99565b5001541615156106f8565b60208260ff60405191168152f35b346106785760203660031901126106785760043561076f6154b3565b610778816154d1565b815f52600560205260405f2060018060a01b0382165f5260205260ff60405f205416156105f8576107a99082615557565b156105e9576107b6615613565b805f52600360205260ff600260405f200154166007811015610634578015908115610845575b50610625576107ea81616327565b15610836576107f8816163c3565b901561081157506105979061080b61548b565b9061618a565b15610827576108229061080b615464565b610597565b63308ce0f960e11b5f5260045ffd5b63837cd79f60e01b5f5260045ffd5b6006915014826107dc565b3461067857604036600319011261067857610869614b57565b6004355f52600c60205260405f209060018060a01b03165f52602052606060405f2063ffffffff6001825492015460405192835260ff81161515602084015260081c166040820152f35b34610678576040366003190112610678576108cc614b57565b6004355f908152600e602090815260408083206001600160a01b039485168452825291829020549151919092168152f35b34610678576060366003190112610678576004356024356001600160401b03811161067857610930903690600401614dbd565b6044356001600160401b0381116106785761094f903690600401614d83565b926109586154b3565b610961856154d1565b855f52600560205260405f2060018060a01b0382165f5260205260ff60405f205416156105f8576109929086615557565b156105e957845f52600360205263ffffffff600260405f20015460581c16151580610d7d575b610648576109c4615613565b6109cd856154d1565b91855f526003602052600260405f20019485549160ff831660078110156106345760010361062557610a2b61049691604051928391602083019560408752610a19606085018c8b6153ce565b848103601f1901604086015291614ee4565b519020865f52600760205260405f2060018060a01b0385165f5260205260405f205403610d6e5760328411610d5f57855f52600860205260405f2054159081610d4f575b50610d2a57845f52600860205260405f2054151580610d39575b610d2a575f858152600860205260409020600160401b8411610c9f578054848255808510610cb3575b505f908152602081208694939291825b858210610bbb5750505090610b8c7f1522116f5d4e7ac5527e161307d73b93c621a9a7627553f584afb6b6f62a74e79392855f52600760205260405f2060018060a01b0384165f52602052600260405f2001600160ff19825416179055610b6b610b3b610b3560ff8a5460301c16615452565b8861623c565b97610b4689826152b7565b610b5663ffffffff4216826152d4565b63ffffffff610b6442614e95565b1690614ea4565b60405193849360018060a01b031684526040602085015260408401916153ce565b0390a2815f52600460205260ff60405f205491161015610bac5760015f55005b610bb590616283565b80610597565b90919293949550610bcc8185615365565b906001600160401b038211610c9f57610bef82610be98754614bb2565b87614f88565b5f90601f8311600114610c355792610c18836001959460209487965f92610c2a575b5050614fcb565b86555b01930191018795949392610ac2565b013590508e80610c11565b601f19831691865f5260205f20925f5b818110610c875750936020936001969387969383889510610c6e575b505050811b018655610c1b565b01355f19600384901b60f8161c191690558d8080610c61565b91936020600181928787013581550195019201610c45565b634e487b7160e01b5f52604160045260245ffd5b815f528460205f2091820191015b818110610cce5750610ab2565b80610cdb60019254614bb2565b80610ce8575b5001610cc1565b601f81118314610cfd57505f81555b89610ce1565b610d1990825f5283601f60205f20920160051c82019101614f72565b805f525f6020812081835555610cf7565b63d1d2a30960e01b5f5260045ffd5b50845f52600860205260405f2054831415610a89565b60ff915060101c16831086610a6f565b63376ab11160e01b5f5260045ffd5b639ea6d12760e01b5f5260045ffd5b50845f52600360205263ffffffff600260405f20015460581c1642116109b8565b3461067857602036600319011261067857600435610dba6154b3565b610dc3816154d1565b815f52600560205260405f2060018060a01b0382165f5260205260ff60405f205416156105f857610df49082615557565b156105e957610e01615613565b805f526003602052600260405f20015460ff811660078110156106345760050361062557815f52601360205260ff60405f2054168015159081610e6e575b50610e5f5760ff808260881c169160901c1610610d6e5761059790615cdb565b6303488f9960e61b5f5260045ffd5b9050825f52601460205260ff60405f2054161083610e3f565b3461067857604036600319011261067857610ea0614b57565b6004355f52600f60205260405f209060018060a01b03165f52602052602060ff60405f205416610ed36040518092614ded565bf35b3461067857602036600319011261067857600435610ef16154b3565b610efa816154d1565b815f52600560205260405f2060018060a01b0382165f5260205260ff60405f205416156105f857610f2b9082615557565b156105e957610f38615613565b805f526003602052600260405f2001805460ff81166007811015610634576106255760ff60049160101c1610610fb357805460ff19166001178155610f8990610b46610f83846161ef565b826152b7565b7f50ad08f58a27f2851d7e3a1b3a6a46b290f2ce677e99642d30ff639721e777905f80a260015f55005b63f770074360e01b5f5260045ffd5b3461067857602036600319011261067857600435610fde6154b3565b610fe7816154d1565b815f52600560205260405f2060018060a01b0382165f5260205260ff60405f205416156105f8576110189082615557565b156105e957611025615613565b805f526003602052600260405f2001805463ffffffff8160581c16801590811561137d575b5061136e5760ff16827f77ff69c1f99cadd93a6da75080e20a3fed43f1d42375051a5d162adcafc5fbb760206040516110838186614d5d565ba2600781101561063457600181036111d7575050805f526003602052600260405f20018160ff825460301c16815f52600460205260405f20548110611162575b50506110de6110d860ff835460301c16615452565b8361623c565b6110e881836152b7565b6110f863ffffffff4216836152d4565b61111063ffffffff61110942614e95565b1683614ea4565b825f52600460205260ff60405f205491161015611130575b505060015f55005b54600260189190911c60ff16106111515761114a90616283565b8080611128565b61115d9061080b615397565b61114a565b60806111875f51602061680a5f395f51905f5292845f52600460205260405f20614b99565b50546001600160a01b031661119c8185616101565b60405190815260406020820152601660408201527554696d656f757420647572696e672073687566666c6560501b6060820152a281836110c3565b600281036112fe5750815f52600460205260405f205f5b815460ff821610156112d657806002600361120c6112199486614b99565b5001541661121e57614e09565b6111ee565b6020600361122c8386614b99565b50015416156001600361123f8487614b99565b500154161581156112ce575b5015614e095761126f61125e8285614b99565b50546001600160a01b031686616101565b845f51602061680a5f395f51905f52608061128a8487614b99565b5054604080516001600160a01b0390921682526020820181905260159082015274151a5b595bdd5d08191d5c9a5b99c81c995d99585b605a1b6060820152a2614e09565b90508661124b565b505054600260189190911c60ff16106112f25761082290615c45565b6108229061080b615397565b60048103611311575050610822906156dc565b6005810361132457505061082290615cdb565b600314611333575b5050610597565b805460ff60ff60801b01191660041781556113569063ffffffff610b6442614e95565b5f5160206167aa5f395f51905f525f80a2808061132c565b63489e8c8960e01b5f5260045ffd5b90504211158461104a565b346106785761139636614d23565b915f52600960205260405f209060018060a01b03165f5260205260405f209060018060a01b03165f526020526113e56113d160405f20614c5f565b604051918291602083526020830190614cff565b0390f35b346106785760403660031901126106785761141f600435611408614b57565b9061141a61141582614e51565b615afb565b615bc1565b005b346106785760403660031901126106785761143a614b57565b6004355f908152600a602090815260408083206001600160a01b039485168452825291829020549151919092168152f35b34610678576020366003190112610678576004355f52601160205260405f2080549061149682614e63565b916114a46040519384614c3c565b8083526020830180925f5260205f205f915b83831061154e57848660405191829160208301906020845251809152604083019060408160051b85010192915f905b8282106114f457505050500390f35b919360019193955060208091603f1989820301855287519060406115218351606084526060840190614cff565b9263ffffffff85820151168584015281878060a01b039101511691015296019201920185949391926114e5565b6002602060019260405161156181614c21565b61156a86614c5f565b81528486015463ffffffff811684830152858060a01b0390841c1660408201528152019201920191906114b6565b34610678576115a636614b83565b6115ae6154b3565b6115b7826154d1565b825f52600560205260405f2060018060a01b0382165f5260205260ff60405f205416156105f8576115e89083615557565b156105e957815f52600360205263ffffffff600260405f20015460581c16151580611788575b6106485761161a615613565b611623826154d1565b90825f526003602052600260405f20019160ff8354166007811015610634576005036106255761165381856155d7565b611779576117617f3cf64897479c2ba314a5a0e8cf3a0e097d9367de65da54961e4dc414836499009360405161168881614c21565b84815260208101905f82526116de6001604083019263ffffffff421684528a5f52600c60205260405f20828060a01b0389165f5260205260405f20905181550192511515839060ff801983541691151516179055565b5164ffffffff0082549160081b169064ffffffff001916179055855f52600660205260405f2060018060a01b0384165f52602052600361173060ff60405f205416885f52600460205260405f20614b99565b500163ffffffff600881835416171663ffffffff1982541617905561175b60ff825460881c16614e09565b906152f7565b61177060405192839283614e7a565b0390a260015f55005b6317fd8aab60e31b5f5260045ffd5b50815f52600360205263ffffffff600260405f20015460581c16421161160e565b34610678576117b736614b83565b6117bf6154b3565b6117c8826154d1565b825f52600560205260405f2060018060a01b0382165f5260205260ff60405f205416156105f8576117f99083615557565b156105e957815f52600360205263ffffffff600260405f20015460581c1615158061197c575b6106485761182b615613565b611834826154d1565b90825f526003602052600260405f20019160ff83541660078110156106345760020361062557835f52601060205260405f2060018060a01b0382165f5260205260405f205461196d57611887818561559c565b61195e5760205f51602061684a5f395f51905f5291855f51602061676a5f395f51905f526118db8296835f526010865260405f2060018060a01b0386165f5286528060405f20556040519182918683614e7a565b0390a26118e88185615685565b6119016118fb60ff875460781c16614e09565b86614ec7565b6040516001600160a01b039091168152a25460ff808260181c169160781c161461192b5760015f55005b61193481615c45565b7f54ccd98022ba3fd547cb241a4f3dfc13e7f9bb54550b7babf4080021c6c2f1265f80a280610597565b63a89ac15160e01b5f5260045ffd5b630890382360e21b5f5260045ffd5b50815f52600360205263ffffffff600260405f20015460581c16421161181f565b34610678576060366003190112610678576004356024356001600160401b038111610678576119d0903690600401614dbd565b6044356001600160401b038111610678576119ef903690600401614dbd565b90926119f96154b3565b611a02856154d1565b855f52600560205260405f2060018060a01b0382165f5260205260ff60405f205416156105f857611a339086615557565b156105e957845f52600360205263ffffffff600260405f20015460581c16151580611d41575b61064857611a65615613565b611a6e856154d1565b93855f526003602052600260405f200160ff81541660078110156106345760020361062557838503611d325760328511610d5f57865f52600660205260405f2060018060a01b0387165f5260205260206003611adb60ff60405f2054168a5f526004845260405f20614b99565b50015416611d235793946001600160a01b0316935f5b8787821015611c5357506001600160a01b03600582901b85810135918216929183900361067857895f52600560205260405f20835f5260205260ff60405f205416156105f857878314611c445786821015611c3057611b5290850185615365565b9190928a5f52600960205260405f20895f5260205260405f20905f5260205260405f2060018060401b038311610c9f5782611b988c94611b928454614bb2565b84614f88565b5f601f8211600114611bc6579080611bbb92600196975f92610c2a575050614fcb565b90555b019050611af1565b94601f19821695835f5260205f20965f5b818110611c1557509160019697918488959410611bfc575b505050811b019055611bbe565b01355f19600384901b60f8161c191690558d8080611bef565b8284013589556001909801978f975060209283019201611bd7565b634e487b7160e01b5f52603260045260245ffd5b637f043f9b60e01b5f5260045ffd5b82817f9204f1001d8059e799b3a233fa5114eab3b5d30762de3ff4e07fcd7e6266aad160208a835f526006825260405f20815f5282526003611ca660ff60405f205416865f526004855260405f20614b99565b500163ffffffff8381835416171663ffffffff19825416179055611cd9611cd360ff875460981c16614e09565b86615314565b604051908152a25460ff808260181c169160981c1614611cf95760015f55005b7ff6b9b3035e320bcce495d00c2d31a7bd341754f7b9919a4a736388e16ef674a55f80a280610597565b6387db46a560e01b5f5260045ffd5b634ec4810560e11b5f5260045ffd5b50845f52600360205263ffffffff600260405f20015460581c164211611a59565b34610678576020366003190112610678576001600160a01b03611d83614b6d565b165f526016602052608060405f2060ff60018254920154166040519160018060a01b038116835263ffffffff8160a01c16602084015260c01c604083015215156060820152f35b34610678576040366003190112610678576004356024356001600160401b03811161067857611dfd903690600401614d83565b611e089291926154b3565b611e11826154d1565b825f52600560205260405f2060018060a01b0382165f5260205260ff60405f205416156105f857611e429083615557565b156105e957611e4f615613565b611e58826154d1565b92825f52600360205260ff600260405f2001541660078110156106345760050361062557825f52601060205260405f2060018060a01b0385165f5260205260405f205415610616576104008211610d5f57611eb3848461562e565b825f52601160205260405f209060405194611ecd86614c21565b611ed8368584614f3c565b86524263ffffffff16602087019081526001600160a01b0390911660408701818152845491949091600160401b811015610c9f57611f1b91600182018155614d6a565b97909761206b575180519097906001600160401b038111610c9f57611f4481611b928454614bb2565b6020601f8211600114611feb57600161177096959493611f838463ffffffff9586955f51602061674a5f395f51905f529e9f5f92611fe0575050614fcb565b81555b9451940180549351600160201b600160c01b03199290951692909216166001600160c01b031990921691909117602092831b600160201b600160c01b03161790556040805194855290840181905292938493840191614ee4565b015190508f80610c11565b601f19821699835f52815f209a5f5b8181106120535750936001845f51602061674a5f395f51905f529c9d63ffffffff9695839588976117709d9c9b9a1061203b575b505050811b018155611f86565b01515f1960f88460031b161c191690558e808061202e565b838301518d556001909c019b60209384019301611ffa565b634e487b7160e01b5f525f60045260245ffd5b34610678575f36600319011261067857602060405160328152f35b34610678576060366003190112610678576004356024356005811015610678576044356001600160401b038111610678576120d8903690600401614d83565b6120e39291926154b3565b6120ec846154d1565b845f52600560205260405f2060018060a01b0382165f5260205260ff60405f205416156105f85761211d9085615557565b156105e95761212a615613565b612133846154d1565b92845f52600f60205260405f2060018060a01b0385165f5260205260ff60405f20541660058110156106345761236657845f52601060205260405f2060018060a01b0385165f5260205260405f2054156106165760408211612357576121bb6104969160405192839160208301956121ab8789614ded565b6040808501526060840191614ee4565b519020835f52601060205260405f2060018060a01b0384165f5260205260405f20540361234857825f52600f60205260405f2060018060a01b0383165f5260205260405f2060ff1981541660ff8316179055827f9b013793e3fbc06d6ff5e9b6ce06be7c635e957579a85ae6b262b85b13ecd8746040518061223e858783615345565b0390a2825f52600660205260405f2060018060a01b0383165f526020526080600361227b60ff60405f205416865f52600460205260405f20614b99565b5001541615158061233d575b6122915760015f55005b81837f7f1edd8653eda945bad547f4f89adfa659b5f748dc9d88a447ff44550d7210be6122df60a0946122d25f5160206167ca5f395f51905f529785616101565b6040519182918683615345565b0390a260405190600180841b0316815260406020820152602860408201527f55736564206d616669612066756e6374696f6e732077697468206e6f6e2d6d6160608201526766696120726f6c6560c01b6080820152a2808080610597565b506001811415612287565b63134fed2d60e01b5f5260045ffd5b63bf1ad44360e01b5f5260045ffd5b63fd8fd76760e01b5f5260045ffd5b346106785760403660031901126106785761238e614b57565b6004355f52601260205260405f209060018060a01b03165f52602052606060405f2060ff6001825492015460405192835260018060a01b038116602084015260a01c1615156040820152f35b34610678575f3660031901126106785760206040515f8152f35b346106785761240236614b83565b905f52600860205260405f208054821015610678576113e5916113d1915f5260205f2001614c5f565b3461067857602036600319011261067857335f90815260176020526040902054600435906001600160a01b03161561275a57335f908152601760205260409020546001600160a01b03165b815f52600460205260405f20905f5f908354915b8260ff8216106126bd575060ff16916124a283614e63565b936124b06040519586614c3c565b8385526124bc84614e63565b602086019690601f19013688376124d285614e63565b946124e06040519687614c3c565b8086526124ef601f1991614e63565b015f5b8181106126aa5750505f915f5b8560ff8216106125b357888888604051928392604084019060408552518091526060840191905f5b818110612591575050508281036020840152815180825260208201916020808360051b8301019401925f915b8383106125605786860387f35b91939550919360208061257f600193601f198682030187528951614cff565b97019301930190928695949293612553565b82516001600160a01b0316845286955060209384019390920191600101612527565b876125c282849b999a9b614b99565b50546001600160a01b039081169087168114158061266b575b6125f4575b50506125eb90614e09565b979695976124ff565b9461265b61266192876125eb959861261060ff86168094615331565b52875f52600960205260405f209060018060a01b03165f5260205260405f2060018060a01b038a165f526020528b6126548261264e60405f20614c5f565b92615331565b528b615331565b50614e09565b939050888a6125e0565b505f8581526009602090815260408083206001600160a01b038581168552908352818420908b1684529091529020546126a390614bb2565b15156125db565b60606020828901810191909152016124f2565b6126ca8186979597614b99565b50546001600160a01b03878116911614158061270c575b6126f7575b6126ef90614e09565b94929461248a565b906127046126ef91614e09565b9190506126e6565b50835f52600960205260405f206127238287614b99565b50546001600160a01b039081165f90815260209283526040808220928a1682529190925290205461275390614bb2565b15156126e1565b33612476565b3461067857604036600319011261067857612779614b57565b6004355f52600260205260405f209060018060a01b03165f52602052602060ff60405f2054166040519015158152f35b34610678576020366003190112610678576060600435805f52601360205260ff60405f20541690805f52601460205260ff60405f205416905f52601560205260018060a01b0360405f2054169060405192835260208301526040820152f35b3461067857604036600319011261067857612821614b57565b6004355f52601060205260405f209060018060a01b03165f52602052602060405f2054604051908152f35b34610678575f36600319011261067857612864615a9f565b61286c615613565b600160ff19815416176001557f62e78cea01bee320cd4e420270b5ea74000d11b0c9f74754ebdbfc544b05a2586020604051338152a1337f7c83004a7e59a8ea03b200186c4dda29a4e144d9844d63dbc1a09acf7dfcd4855f80a2005b34610678576040366003190112610678576128e2614b57565b6004355f52600660205260405f209060018060a01b03165f52602052602060ff60405f205416604051908152f35b34610678576020366003190112610678576004355f526013602052602060ff60405f205416604051908152f35b60a0366003190112610678576004356001600160401b03811161067857612968903690600401614d83565b906024359160ff83168303610678576044356001600160401b03811161067857612996903690600401614d83565b9093906064356001600160401b038111610678576129b8903690600401614d83565b9560843594919390916001600160a01b0386168603610678576129d96154b3565b6129e1615613565b600460ff8316108015612e9d575b612e8e5760208111612e7f57601954965f198814612e6b576001880160195560405191612a1b83614c05565b6001600160401b0389168352336020840190815293612a3b368385614f3c565b604085019081525f606086015260ff821660808601525f60a08601525f60c08601525f60e08601525f61010086015263ffffffff42166101208601525f6101408601525f6101608601525f6101808601525f6101a08601525f6101c08601525f6101e08601528a5f52600360205260405f209560018060401b03865116875491600160401b600160e01b03905160401b169163ffffffff60e01b16171786555180519060018060401b038211610c9f57612b0582612afc60018a0154614bb2565b60018a01614f88565b602090601f8311600114612dfe57612b2692915f9183612df3575050614fcb565b60018601555b60608401519360078510156106345760028087018054608084015161ffff1990911660ff9889161760089190911b61ff001617815560a08301518d987fd9abe6195309293e802058345712163744c28bde8471531f9990f08419585bcf98612c619591949390926101e09291612ba4918516906151bb565b612bb68360c0830151168587016151d3565b612bca61ffff60e083015116858701615298565b612bdd83610100830151168587016152b7565b612bf463ffffffff610120830151168587016152d4565b612c0b63ffffffff61014083015116858701614ea4565b612c1e8361016083015116858701614ec7565b612c318361018083015116858701614e1a565b612c44836101a0830151168587016152f7565b612c57836101c083015116858701614f04565b0151169101615314565b60ff612c80604051948594338652606060208701526060860191614ee4565b911660408301520390a260208211612de45760808611612dd557612d8e8594612cfa6020985f51602061678a5f395f51905f5296885f5260048b52612ce960405f209160405193612cd085614bea565b338552612cde368b8b614f3c565b8e8601523691614f3c565b604083015260026060830152614fdd565b5f86815260058952604080822033808452908b52818320805460ff1990811660011790915589845260068c52828420918452908b52818320805490911690558782526003808b528183206002908101805462ff0000191662010000179055898452908b52912001805463ff000000191663010000001790556001600160a01b038116612d9d575b6040519384933385615261565b0390a260015f55604051908152f35b612da8868233615f44565b3415612d8157612dd05f808080346001600160a01b0387165af1612dca6151ed565b5061521c565b612d81565b63450bc0a760e01b5f5260045ffd5b636f6003c360e01b5f5260045ffd5b015190508e80610c11565b9190600188015f52805f20905f935b601f1984168510612e50576001945083601f19811610612e38575b505050811b016001860155612b2c565b01515f1960f88460031b161c191690558d8080612e28565b81810151835560209485019460019093019290910190612e0d565b634e487b7160e01b5f52601160045260245ffd5b630b279b2f60e41b5f5260045ffd5b6319413ccd60e11b5f5260045ffd5b50601460ff8316116129ef565b34610678575f36600319011261067857602060405161012c8152f35b34610678575f3660031901126106785760206040515f51602061682a5f395f51905f528152f35b6080366003190112610678576004356024356001600160401b03811161067857612f1b903690600401614d83565b6044356001600160401b03811161067857612f3a903690600401614d83565b92906064356001600160a01b03811680820361067857612f586154b3565b612f60615613565b865f526003602052600260405f200195865460ff81166007811015610634576106255760ff808260081c169160101c1610156130ec575f88815260056020908152604080832033845290915290205460ff166130de5760208611612de45760808111612dd5575f51602061678a5f395f51905f5296886130298861309f94612ce961177099855f52600460205260ff60405f205416955f52600460205260405f209261301d8d6040519661301388614bea565b3388523691614f3c565b60208601523691614f3c565b5f8a815260056020908152604080832033808552908352818420805460ff199081166001179091558e8552600684528285209185529252909120805490911660ff9283161790558154613089916130839160101c16614e09565b826151bb565b61309960ff825460181c16614e09565b906151d3565b806130b3575b506040519384933385615261565b6130be878333615f44565b34156130a5575f8080806130d89434905af1612dca6151ed565b866130a5565b621d934160e11b5f5260045ffd5b63bc42480360e01b5f5260045ffd5b34610678576020366003190112610678576004355f526015602052602060018060a01b0360405f205416604051908152f35b34610678576020366003190112610678575f6101e060405161314e81614c05565b828152826020820152606060408201528260608201528260808201528260a08201528260c08201528260e08201528261010082015282610120820152826101408201528261016082015282610180820152826101a0820152826101c082015201526004355f52600360205260405f206002604051916131cc83614c05565b80546001600160401b038116845260401c6001600160a01b031660208401526131f760018201614c5f565b6040840152015460ff81169060078210156106345760ff916060840152818160081c166080840152818160101c1660a0840152818160181c1660c084015261ffff8160201c1660e0840152818160301c1661010084015263ffffffff8160381c1661012084015263ffffffff8160581c16610140840152818160781c16610160840152818160801c16610180840152818160881c166101a0840152818160901c166101c084015260981c166101e082015260405180916020825260018060401b03815116602083015260018060a01b03602082015116604083015260ff6101e06132f260408401516102006060870152610220860190614cff565b9261330560608201516080870190614d5d565b8260808201511660a08601528260a08201511660c08601528260c08201511660e086015261ffff60e082015116610100860152826101008201511661012086015263ffffffff6101208201511661014086015263ffffffff61014082015116610160860152826101608201511661018086015282610180820151166101a0860152826101a0820151166101c0860152826101c082015116828601520151166102008301520390f35b34610678576020366003190112610678576004355f526014602052602060ff60405f205416604051908152f35b34610678576040366003190112610678576133f3614b57565b6004355f52600d60205260405f209060018060a01b03165f52602052602060ff60405f205416610ed36040518092614db0565b346106785760403660031901126106785761343f614b57565b6004355f52600560205260405f209060018060a01b03165f52602052602060ff60405f2054166040519015158152f35b34610678576080366003190112610678576004356024356004811015610678576044356001600160a01b038116808203610678576064356001600160401b038111610678576134c2903690600401614d83565b6134cd9291926154b3565b6134d6866154d1565b865f52600560205260405f2060018060a01b0382165f5260205260ff60405f205416156105f8576135079087615557565b156105e957855f52600360205263ffffffff600260405f20015460581c161515806137e1575b61064857613539615613565b613542866154d1565b92865f526003602052600260405f20019460ff86541660078110156106345760050361062557875f52600660205260405f2060018060a01b0386165f52602052601060036135a260ff60405f2054168b5f52600460205260405f20614b99565b5001541661195e57600187146137d3576135bc85896155d7565b156137c457861515806137bb575b613787575b506136026104969160405192839160208301956135ec878c614db0565b8760408501526060808501526080840191614ee4565b519020855f52600c60205260405f2060018060a01b0384165f5260205260405f205403610d6e575f858152600c602090815260408083206001600160a01b0386168085529083528184206001908101805460ff199081169092179055898552600d84528285208286528452828520805460ff8b811691909316179055898552600e8452828520828652845282852080546001600160a01b03191687179055898552600684528285209185529083528184205489855260049093529220919587947fefeac4ab688c036b72571c6adaf81feb0d4e0a7099c1cfd8d09e54370198c53c946060949193909261374d929091600391613700918c1690614b99565b500163ffffffff601081835416171663ffffffff1982541617905561373361372d8a8a5460901c16614e09565b89614f04565b6040516001600160a01b0390941684526020840190614db0565b6040820152a254818160881c1691829160901c1614908161377d575b506137745760015f55005b610bb590615cdb565b9050151582613769565b875f52600560205260405f20845f5260205260ff60405f205416156105f8576137b09088615557565b156105e957876135cf565b508315156135ca565b63205e472d60e21b5f5260045ffd5b6282b42960e81b5f5260045ffd5b50855f52600360205263ffffffff600260405f20015460581c16421161352d565b346106785760403660031901126106785761381b614b57565b6004355f52600b60205260405f209060018060a01b03165f52602052602060ff60405f205416604051908152f35b34610678575f36600319011261067857602060405160788152f35b346106785760403660031901126106785760e060036138ba600435613887614b57565b815f52600660205260405f209060018060a01b03165f5260205260ff60405f205416905f52600460205260405f20614b99565b50015460806040519160028116151583526001811615156020840152600481161515604084015260088116151560608401526010811615158284015260208116151560a084015216151560c0820152f35b34610678575f36600319011261067857602060ff600154166040519015158152f35b3461067857604036600319011261067857613946614b57565b6004355f52600760205260405f209060018060a01b03165f526020526040805f2060ff6002825492015416825191825215156020820152f35b346106785760203660031901126106785760043561399b6154b3565b6139a4816154d1565b815f52600560205260405f2060018060a01b0382165f5260205260ff60405f205416156105f8576139d59082615557565b156105e957805f52600360205263ffffffff600260405f20015460581c16151580613a5f575b61064857613a07615613565b613a10816154d1565b815f526003602052600260405f20019060ff82541660078110156106345760020361062557613a3f818461559c565b61195e575f51602061684a5f395f51905f526020826118e8869485615685565b50805f52600360205263ffffffff600260405f20015460581c1642116139fb565b34610678576020366003190112610678576001600160a01b03613aa1614b6d565b165f526017602052602060018060a01b0360405f205416604051908152f35b34610678575f36600319011261067857335f52601660205260405f20600181019060ff825416613aec57005b80546001600160a01b031680337f744157ccffbd293a2e8644928cd7d23d650f869b88f72d7bfea8041b76ca6bec5f80a35f90815260176020908152604080832080546001600160a01b031916905592546001600160a01b031682526018905220805460ff199081169091558154169055005b34610678575f36600319011261067857613b77615a9f565b5f80808047818115613b99575b3390f115613b8e57005b6040513d5f823e3d90fd5b506108fc613b84565b34610678576020366003190112610678576004355f52600460205260405f20805490613bcd82614e63565b91613bdb6040519384614c3c565b8083526020830180925f5260205f205f915b838310613c9957848660405191829160208301906020845251809152604083019060408160051b85010192915f905b828210613c2b57505050500390f35b919360019193955060208091603f19898203018552875190848060a01b038251168152606063ffffffff81613c82613c70878701516080898801526080870190614cff565b60408701518682036040880152614cff565b940151169101529601920192018594939192613c1c565b60046020600192604051613cac81614bea565b848060a01b038654168152613cc2858701614c5f565b83820152613cd260028701614c5f565b604082015263ffffffff6003870154166060820152815201920192019190613bed565b3461067857613d0336614b83565b613d0b6154b3565b613d14826154d1565b825f52600560205260405f2060018060a01b0382165f5260205260ff60405f205416156105f857613d459083615557565b156105e957815f52600360205263ffffffff600260405f20015460581c16151580613ed2575b61064857613d77615613565b613d80826154d1565b90825f526003602052600260405f20015460ff811660078110156106345760010361062557613dc290845f52600460205260ff60405f209160301c1690614b99565b50546001600160a01b0390811690831603613ec357825f52600660205260405f2060018060a01b0383165f5260205260406003613e0f60ff835f205416865f526004602052835f20614b99565b50015416611779575f8381526007602090815260408083206001600160a01b038616808552908352818420858155600201805460ff191690558684526006835281842090845282528083205486845260049092529091207ffbabe9c4a6257c269f37e649a08003e579b119fcff47ac57e59d1502fccea41c9391600391613e999160ff1690614b99565b500163ffffffff604081835416171663ffffffff1982541617905561177060405192839283614e7a565b631cc191eb60e31b5f5260045ffd5b50815f52600360205263ffffffff600260405f20015460581c164211613d6b565b3461067857613f0136614b83565b613f096154b3565b613f12826154d1565b825f52600560205260405f2060018060a01b0382165f5260205260ff60405f205416156105f857613f439083615557565b156105e957815f52600360205263ffffffff600260405f20015460581c16151580614077575b61064857613f75615613565b613f7e826154d1565b90825f52600360205260ff600260405f2001541660078110156106345760050361062557825f52601060205260405f2060018060a01b0383165f5260205260405f20541561061657825f52601260205260405f2060018060a01b0383165f5260205260405f205461406857816140157ff5adb2642a216ea3114d73daac494b2341695b10db2b0e6be988acb22fbc1564938561562e565b835f52601260205260405f2060018060a01b0382165f526020528160405f2055835f52601360205260405f2060ff61404f81835416614e09565b1660ff1982541617905561177060405192839283614e7a565b6317ac735560e11b5f5260045ffd5b50815f52600360205263ffffffff600260405f20015460581c164211613f69565b34610678575f366003190112610678576140b0615a9f565b60015460ff8116156141145760ff19166001557f5db9ee0a495bf2e6ff9c91a7834c1ba4fdd244a5e8aa4e537bd38aeae4b073aa6020604051338152a1337f306ca22c455fe433ebbf0542bbf947ea6a725495f9e1043db2a47e3c579403855f80a2005b638dfc202b60e01b5f5260045ffd5b34610678576020366003190112610678576001600160a01b03614144614b6d565b165f526018602052602060ff60405f2054166040519015158152f35b34610678575f3660031901126106785760206040516138408152f35b34610678576020366003190112610678576004356141986154b3565b6141a1816154d1565b815f52600560205260405f2060018060a01b0382165f5260205260ff60405f205416156105f8576141d29082615557565b156105e9576141df615613565b805f526003602052600260405f200160ff81541660078110156106345760030361062557805460ff60ff60801b01191660041781556142269063ffffffff610b6442614e95565b805f52600460205260405f205f5b815460ff821610156142fb578061424e6142c79284614b99565b50546001600160a01b031660036142658386614b99565b5001805463fffffffb811663ffffffff199091161790555f858152600a602090815260408083206001600160a01b0385168452909152902080546001600160a01b0319169055600260036142b98487614b99565b500154166142cc5750614e09565b614234565b5f858152600b602090815260408083206001600160a01b03909416835292905220805460ff191690558461265b565b825f5160206167aa5f395f51905f525f80a260015f55005b346106785761432136614b83565b6143296154b3565b614332826154d1565b825f52600560205260405f2060018060a01b0382165f5260205260ff60405f205416156105f8576143639083615557565b156105e957614370615613565b614379826154d1565b90825f52600360205260ff600260405f2001541660078110156106345760020361062557825f52601060205260405f2060018060a01b0383165f5260205260405f205461196d575f51602061676a5f395f51905f5291835f52601060205260405f2060018060a01b0382165f526020528160405f205561177060405192839283614e7a565b3461067857604036600319011261067857614417614b57565b336001600160a01b038216036144335761141f90600435615bc1565b63334bd91960e11b5f5260045ffd5b346106785761445036614b83565b905f52601160205260405f208054821015610678576144959161447291614d6a565b50600161447e82614c5f565b910154604051928392606084526060840190614cff565b9063ffffffff8116602084015260018060a01b039060201c1660408301520390f35b346106785760403660031901126106785761141f6004356144d6614b57565b906144e361141582614e51565b615b35565b34610678576020366003190112610678576004355f52600860205260405f2080549061451382614e63565b916145216040519384614c3c565b8083526020830180925f5260205f205f915b8383106145a057848660405191829160208301906020845251809152604083019060408160051b85010192915f905b82821061457157505050500390f35b919360019193955060206145908192603f198a82030186528851614cff565b9601920192018594939192614562565b6001602081926145af85614c5f565b815201920192019190614533565b346106785760203660031901126106785760206145db600435614e51565b604051908152f35b34610678576020366003190112610678576004355f52600360205260405f208054600261461260018401614c5f565b920154604080516001600160401b038416815292811c6001600160a01b031660208401526102009083018190529192839260ff9161465291850190614cff565b9161466260608501838316614d5d565b818160081c166080850152818160101c1660a0850152818160181c1660c085015261ffff8160201c1660e0850152818160301c1661010085015263ffffffff8160381c1661012085015263ffffffff8160581c16610140850152818160781c16610160850152818160801c16610180850152818160881c166101a0850152818160901c166101c085015260981c166101e08301520390f35b34610678576020366003190112610678576004355f526003602052602063ffffffff600260405f20015460581c16604051908152f35b346106785761473e36614b83565b905f52600460205260405f209081548110156106785761475d91614b99565b5080546001600160a01b031661477560018301614c5f565b916147bb63ffffffff600361478c60028501614c5f565b93015416916147ad6040519586958652608060208701526080860190614cff565b908482036040860152614cff565b9060608301520390f35b34610678575f366003190112610678576020601954604051908152f35b34610678576040366003190112610678576004356147fe614b57565b6148066154b3565b61480f826154d1565b825f52600560205260405f2060018060a01b0382165f5260205260ff60405f205416156105f8576148409083615557565b156105e957815f52600360205263ffffffff600260405f20015460581c16151580614ae3575b61064857614872615613565b61487b826154d1565b90825f526003602052600260405f20019160ff83541660078110156106345760040361062557835f52600560205260405f2060018060a01b0383165f5260205260ff60405f205416156105f8576148d28285615557565b156105e95783917fcfff1651bcea794952a516ce970ab17518a85210bd939aaeaac670a8d3e65ec791835f52600660205260405f2060018060a01b0382165f526020526004600361493460ff60405f205416875f528360205260405f20614b99565b5001545f868152600a602090815260408083206001600160a01b0387811685529252909120549290911615911680151580614ab9575b614a7d575b505f858152600a602090815260408083206001600160a01b03868116855290835281842080546001600160a01b0319169188169182179055888452600b83528184209084529091529020805460ff906149c9908216614e09565b1660ff19825416179055614a0c575b6149e760405192839283614e37565b0390a25460ff808260181c169160801c1614614a035760015f55005b610bb5906156dc565b835f52600660205260405f2060018060a01b0382165f526020526003614a4460ff60405f205416865f52600460205260405f20614b99565b500163ffffffff600481835416171663ffffffff19825416179055614a78614a7260ff875460801c16614e09565b86614e1a565b6149d8565b855f52600b60205260405f209060018060a01b03165f5260205260405f2060ff614aa981835416614dfa565b1660ff198254161790558761496f565b50855f52600b60205260405f2060018060a01b0382165f5260205260ff60405f205416151561496a565b50815f52600360205263ffffffff600260405f20015460581c164211614866565b34610678576020366003190112610678576004359063ffffffff60e01b821680920361067857602091637965db0b60e01b8114908115614b46575b5015158152f35b6301ffc9a760e01b14905083614b3f565b602435906001600160a01b038216820361067857565b600435906001600160a01b038216820361067857565b6040906003190112610678576004359060243590565b8054821015611c30575f5260205f209060021b01905f90565b90600182811c92168015614be0575b6020831014614bcc57565b634e487b7160e01b5f52602260045260245ffd5b91607f1691614bc1565b608081019081106001600160401b03821117610c9f57604052565b61020081019081106001600160401b03821117610c9f57604052565b606081019081106001600160401b03821117610c9f57604052565b601f909101601f19168101906001600160401b03821190821017610c9f57604052565b9060405191825f825492614c7284614bb2565b8084529360018116908115614cdd5750600114614c99575b50614c9792500383614c3c565b565b90505f9291925260205f20905f915b818310614cc1575050906020614c97928201015f614c8a565b6020919350806001915483858901015201910190918492614ca8565b905060209250614c9794915060ff191682840152151560051b8201015f614c8a565b805180835260209291819084018484015e5f828201840152601f01601f1916010190565b606090600319011261067857600435906024356001600160a01b038116810361067857906044356001600160a01b03811681036106785790565b9060078210156106345752565b8054821015611c30575f5260205f209060011b01905f90565b9181601f84011215610678578235916001600160401b038311610678576020838186019501011161067857565b9060048210156106345752565b9181601f84011215610678578235916001600160401b038311610678576020808501948460051b01011161067857565b9060058210156106345752565b60ff168015612e6b575f190190565b60ff1660ff8114612e6b5760010190565b805460ff60801b191660809290921b60ff60801b16919091179055565b6001600160a01b0391821681529116602082015260400190565b5f526002602052600160405f20015490565b6001600160401b038111610c9f5760051b60200190565b6001600160a01b039091168152602081019190915260400190565b9061012c8201809211612e6b57565b805463ffffffff60581b191660589290921b63ffffffff60581b16919091179055565b805460ff60781b191660789290921b60ff60781b16919091179055565b908060209392818452848401375f828201840152601f01601f1916010190565b805460ff60901b191660909290921b60ff60901b16919091179055565b6001600160401b038111610c9f57601f01601f191660200190565b929192614f4882614f21565b91614f566040519384614c3c565b829481845281830111610678578281602093845f960137010152565b818110614f7d575050565b5f8155600101614f72565b9190601f8111614f9757505050565b614c97925f5260205f20906020601f840160051c83019310614fc1575b601f0160051c0190614f72565b9091508190614fb4565b8160011b915f199060031b1c19161790565b8054600160401b811015610c9f57614ffa91600182018155614b99565b91909161206b57805182546001600160a01b0319166001600160a01b03919091161782556020810151805160018401916001600160401b038211610c9f5761504c826150468554614bb2565b85614f88565b602090601f83116001146151585761506d92915f91836150df575050614fcb565b90555b6040810151805160028401916001600160401b038211610c9f57615098826150468554614bb2565b602090601f83116001146150ea57936003936150c78463ffffffff979560609589975f926150df575050614fcb565b90555b0151169201911663ffffffff19825416179055565b015190505f80610c11565b90601f19831691845f52815f20925f5b81811061514057508460609463ffffffff9894600398948a9860019510615129575b505050811b0190556150ca565b01515f19838a1b60f8161c191690555f808061511c565b929360206001819287860151815501950193016150fa565b90601f19831691845f52815f20925f5b8181106151a3575090846001959493921061518b575b505050811b019055615070565b01515f1960f88460031b161c191690555f808061517e565b92936020600181928786015181550195019301615168565b9062ff000082549160101b169062ff00001916179055565b9063ff00000082549160181b169063ff0000001916179055565b3d15615217573d906151fe82614f21565b9161520c6040519384614c3c565b82523d5f602084013e565b606090565b1561522357565b60405162461bcd60e51b81526020600482015260166024820152752330b4b632b2103a3790333ab7321039b2b9b9b4b7b760511b6044820152606490fd5b92916040926152889296959660018060a01b03168552606060208601526060850191614ee4565b6001600160a01b03909416910152565b805461ffff60201b191660209290921b61ffff60201b16919091179055565b805460ff60301b191660309290921b60ff60301b16919091179055565b805463ffffffff60381b191660389290921b63ffffffff60381b16919091179055565b805460ff60881b191660889290921b60ff60881b16919091179055565b805460ff60981b191660989290921b60ff60981b16919091179055565b8051821015611c305760209160051b010190565b6001600160a01b039091168152604081019291614c979160200190614ded565b903590601e198136030182121561067857018035906001600160401b0382116106785760200191813603831361067857565b604051906153a6604083614c3c565b6019825278546f6f2066657720706c61796572732072656d61696e696e6760381b6020830152565b90602083828152019060208160051b85010193835f915b8383106153f55750505050505090565b909192939495601f198282030186528635601e1984360301811215610678578301602081019190356001600160401b038111610678578036038313610678576154446020928392600195614ee4565b9801960194930191906153e5565b60ff60019116019060ff8211612e6b57565b60405190615473604083614c3c565b6009825268546f776e2077696e7360b81b6020830152565b6040519061549a604083614c3c565b600a8252694d616669612077696e7360b01b6020830152565b60025f54146154c25760025f55565b633ee5aeb560e01b5f5260045ffd5b335f908152601760205260409020546001600160a01b031690816154f55750503390565b815f52601660205260405f2060ff60018201541615615548575463ffffffff8160a01c1642116155395760c01c0361552a5790565b637ce3c8fd60e11b5f5260045ffd5b630fe82d2560e11b5f5260045ffd5b635f8874dd60e11b5f5260045ffd5b615593600391600293815f52600660205260405f209060018060a01b03165f5260205260ff60405f205416905f52600460205260405f20614b99565b50015416151590565b615593600391600193815f52600660205260405f2090858060a01b03165f5260205260ff60405f205416905f52600460205260405f20614b99565b615593600391600893815f52600660205260405f209060018060a01b03165f5260205260ff60405f205416905f52600460205260405f20614b99565b60ff6001541661561f57565b63d93c066560e01b5f5260045ffd5b61566890600392815f52600660205260405f209060018060a01b03165f5260205260ff60405f205416905f52600460205260405f20614b99565b5001805463ffffffff19811663ffffffff91909116176080179055565b6156bf90600392815f52600660205260405f209060018060a01b03165f5260205260ff60405f205416905f52600460205260405f20614b99565b5001805463ffffffff19811663ffffffff91909116176001179055565b90815f5260036020528160405f205f905f90835f52600460205260405f205f908054915b8260ff821610615a1757505050607f600260ff92015460191c16911690811180615a05575b156159e257816040916157465f5160206167ea5f395f51905f529486616101565b845f5160206167ca5f395f51905f52608085519460018060a01b03169485815286602082015260098782015268159bdd1959081bdd5d60ba1b6060820152a282519182526020820152a25b815f52600460205260405f20915f5b835460ff8216101561583457806157ba61582f9286614b99565b50545f848152600a602090815260408083206001600160a01b0390941680845293825280832080546001600160a01b0319169055868352600b825280832093835292905220805460ff1916905560036158138287614b99565b5001805463fffffffb811663ffffffff19909116179055614e09565b6157a0565b505f818152600360205260409020600201805460ff60801b1916905590915061585c8161667e565b156158645750565b5f818152600360205260409020600201805460ff61ffff60881b01191660051781556158989063ffffffff610b6442614e95565b805f52600460205260405f205f5b815460ff8216101561597c57806158c06159779284614b99565b50546001600160a01b031660036158d78386614b99565b5001805463ffffffe7811663ffffffff199091161790555f858152600c602090815260408083206001600160a01b03949094168084529382528083208381556001908101849055888452600d83528184208585528352818420805460ff19169055888452600e8352818420858552835281842080546001600160a01b03191690558884526012835281842094845293909152812081815590910155614e09565b6158a6565b50505f818152601360209081526040808320805460ff1990811690915560148352818420805490911690556015909152812080546001600160a01b03191690557f34b0c4c95aa7776d35dbd8b24afd53388828c61c26fd5a6b11a21809662440879080a2565b50505f5160206167ea5f395f51905f52604080515f81525f6020820152a2615791565b506001600160a01b0382161515615725565b9091929394955060026003615a2c8385614b99565b50015416615a4a575b615a3e90614e09565b90879594939291615700565b615a548183614b99565b50545f898152600b602090815260408083206001600160a01b039094168084529390915290205460ff9081169087168111615a91575b5050615a35565b9096509450615a3e5f615a8a565b335f9081527fe5ebfa64fca8d502a8e50c1edffd2c31ef4dad5b396e65d9f397fb028f74abc5602052604090205460ff1615615ad757565b63e2517d3f60e01b5f52336004525f51602061682a5f395f51905f5260245260445ffd5b5f81815260026020908152604080832033845290915290205460ff1615615b1f5750565b63e2517d3f60e01b5f523360045260245260445ffd5b5f8181526002602090815260408083206001600160a01b038616845290915290205460ff16615bbb575f8181526002602090815260408083206001600160a01b0395909516808452949091528120805460ff19166001179055339291907f2f8788117e7eff1d82e926ec794901d17c78024a50270940304540a733656f0d9080a4600190565b50505f90565b5f8181526002602090815260408083206001600160a01b038616845290915290205460ff1615615bbb575f8181526002602090815260408083206001600160a01b0395909516808452949091528120805460ff19169055339291907ff6391f5c32d9c69d2a47ea670b442974b53935d1edc7fd64eb21e047a839171b9080a4600190565b805f526003602052600260405f2001600360ff1982541617815561ffff815460201c169061ffff8214612e6b5761ffff602091615ca660017fa9b4e96158ed085745975f198fa026959997245ae7e7aed9cd0252ce02b21071950182615298565b615cb663ffffffff4216826152d4565b615cce63ffffffff615cc742614e95565b1682614ea4565b54821c16604051908152a2565b90815f5260156020528160018060a01b0360405f2054165f825f52600460205260405f205f908054905b8160ff841610615eb2575b505050827fb874a4c95be602274c8e6944d4d375ca4189eda377b69ee751f3b92dd4dcf2d860405180615d44858783614e37565b0390a28115159081615e9e575b50615e4f575b505f52600460205260405f20915f5b835460ff82161015615e155780615d80615e109286614b99565b50545f848152600c602090815260408083206001600160a01b03909416808452938252808320838155600101839055868352600d82528083208484528252808320805460ff19169055868352600e82528083209383529290522080546001600160a01b03191690556003615df48287614b99565b5001805463ffffffe7811663ffffffff19909116179055614e09565b615d66565b505f818152600360205260409020600201805461ffff60881b19169055909150615e3e8161667e565b15615e465750565b614c9790615c45565b608081615e6a5f5160206167ca5f395f51905f529385616101565b60405190815260406020820152600f60408201526e12da5b1b195908185d081b9a59da1d608a1b6060820152a2815f615d57565b6001600160a01b031682141590505f615d51565b90919450615ec08582614b99565b50545f888152600d602090815260408083206001600160a01b039094168084529390915290205460ff1695906004871015610634576002899714615f0f5750615f0890614e09565b9190615d05565b5f878152600e602090815260408083206001600160a01b03948516845290915281205490911694509250829150819050615d10565b6001600160a01b0390911691908215611c4457825f52601860205260ff60405f2054166160f2575f838152601760205260409020546001600160a01b03166160f2576001600160a01b03165f8181526016602052604090206001015490919060ff166160ad575b6138404201804211612e6b577f290e52799b1ac63207e28c21f7f1f387cf8ea9257dde8e363a02e157d8e4c6589163ffffffff604092166160718351615ff081614bea565b8781526020808201848152600180881b5f19018716888501908152606085018281525f8c81526016909552938990209451925190516001600160c01b031960c09190911b166001600160a01b0390931663ffffffff60a01b60a09290921b919091161791909117835590519101805460ff191691151560ff16919091179055565b5f8681526017602090815284822080546001600160a01b031916881790556018815290849020805460ff191660011790558351928352820152a3565b5f828152601660209081526040808320546001600160a01b031683526017825280832080546001600160a01b031916905560189091529020805460ff19169055615fab565b631fef749360e21b5f5260045ffd5b9061610c8183615557565b1561618657815f52600660205260405f209060018060a01b03165f52602052600361614960ff60405f205416835f52600460205260405f20614b99565b500163ffffffff63fffffffd8254161663ffffffff198254161790555f526003602052614c97600260405f200161309960ff825460181c16614dfa565b5050565b5f81815260036020908152604091829020600201805460ff63ffffffff60581b0119166006179055905181815291927fd778487128ba4386ebcfb2703af01f8a2a2b8663f880622d26a77a29397e68f3929182916161ea91830190614cff565b0390a2565b5f52600460205260405f205f8154905b8160ff821610616212575060ff91501690565b600260036162208386614b99565b500154166162365761623190614e09565b6161ff565b91505090565b5f52600460205260405f20908154905b8160ff82161061625f575060ff91501690565b6002600361626d8386614b99565b500154166162365761627e90614e09565b61624c565b5f8181526003602052604090206002908101805460ff64ff000000ff60781b01191690911781556162bc9063ffffffff610b6442614e95565b5f52600460205260405f20905f5b825460ff821610156163225780600260036162e86162f59487614b99565b500154166162fa57614e09565b6162ca565b60036163068286614b99565b5001805463ffffff9e811663ffffffff19909116179055614e09565b509050565b5f818152600460205260408120805492915b8360ff82161061634c5750505050600190565b6002600361635a8385614b99565b50015416151580616380575b6163785761637390614e09565b616339565b505050505f90565b50825f52600f60205260405f206163978284614b99565b50546001600160a01b03165f908152602091909152604090205460ff1660058110156106345715616366565b905f5f92805f52600460205260405f205f918154925b8360ff82161061641a575050505060ff168015928315918261640c575b508361640157509190565b60ff91935016151590565b60ff8216111591505f6163f6565b600260036164288386614b99565b5001541661643f575b61643a90614e09565b6163d9565b93815f52600f60205260405f206164568685614b99565b50546001600160a01b03165f908152602091909152604090205460ff166005811015610634576001810361649a575061649161643a91614e09565b945b9050616431565b9094906164ab575b61643a90616493565b956164b861643a91614e09565b9690506164a2565b805f52601360205260ff60405f2054161561667b575f81815260046020526040812080546001918390815b8360ff82161061658c575b505050505f51602061686a5f395f51905f529181806040939061657a575b1561657357815b5f868152601560205284902080546001600160a01b0319166001600160a01b03851617905581616560575b5082516001600160a01b03909216825215156020820152a2565b6001600160a01b0316151590505f616546565b5f9161651b565b506001600160a01b0382161515616514565b6165968183614b99565b50545f8881526012602090815260408083206001600160a01b03949094168084529390915290206001015460a01c60ff1680616661575b6165e1575b506165dc90614e09565b6164eb565b5f8881526012602090815260408083206001600160a01b0394851684529091529020600101549296919392169180616623575050936165dc6001925b906165d2565b9095909290916001600160a01b03871603616641576165dc9061661d565b505050505060405f51602061686a5f395f51905f52915f9181935f6164f6565b50600260036166708486614b99565b5001541615156165cd565b50565b805f52600360205260ff600260405f20015460181c1660018111156166e657506166a781616327565b6166b057505f90565b6166b9816163c3565b90156166d157506166cc9061080b61548b565b600190565b6166da57505f90565b6166cc9061080b615464565b6166cc9190616714576040516166fd604082614c3c565b60048152634472617760e01b60208201529061618a565b604051616722604082614c3c565b60148152734c61737420706c61796572207374616e64696e6760601b60208201529061618a56fea4a46989ff60ad96ec74df0f289e1e16b51c97fecb224f2e8e927103d5b54eaef33c1bd762b898b33040e70f49cf90ff496cf7366f6fafa9d961b0de89b7244b3b7d84e02e9f6642b42e0ca3e77297f9c7c807832a60c0fc1926ade76abc7badcf33babc496bb6dc2942b39cb7b75766bbbadf7da50d176ff8c513e991140239b1ed64d561b0179e61c72bf46d0809a99dac99baeb98fc9f5d13be1f6c2e3f826b571d1c11516ea63adff1048766bdfa510e9c5bf4e32ca29d4ba11e16edf2f18ef7613b6eacaa71c74d950e2c093c23a0d3ecb066d1387d80e95159d07ed08ba49807205ce4d355092ef5a8a18f56e8913cf4a201fbe287825b095693c2177582b52ddf0195aa8ac16480985f5042052aa742563721520fa34764d253824d43020f20553b51a906b0cb24d2431eb46bd2dc31b5c75d4ba8165ff1bb284ad2a1a2646970667358221220078638773cd5a389b2240081f86875278d87482ea44a7aeabd9be60c8c17580264736f6c634300081c00332f8788117e7eff1d82e926ec794901d17c78024a50270940304540a733656f0dac33ff75c19e70fe83507db0d683fd3465c996598dc972688b7ace676c89077be5ebfa64fca8d502a8e50c1edffd2c31ef4dad5b396e65d9f397fb028f74abc5",
  "linkReferences": {},
  "deployedLinkReferences": {},
  "immutableReferences": {},
  "inputSourceName": "project/contracts/MafiaPortalV4.sol",
  "buildInfoId": "solc-0_8_28-6bce01f5d582440203efc956b5b657648546ad78"
}