{
  "_format": "hh3-artifact-1",
  "contractName": "MafiaPortalV4",
  "sourceName": "contracts/MafiaPortalV4.sol",
  "abi": [
    {
      "inputs": [],
      "stateMutability": "nonpayable",
      "type": "constructor"
    },
    {
      "inputs": [],
      "name": "AccessControlBadConfirmation",
      "type": "error"
    },
    {
      "inputs": [
        {
          "internalType": "address",
          "name": "account",
          "type": "address"
        },
        {
          "internalType": "bytes32",
          "name": "neededRole",
          "type": "bytes32"
        }
      ],
      "name": "AccessControlUnauthorizedAccount",
      "type": "error"
    },
    {
      "inputs": [],
      "name": "AlreadyCommitted",
      "type": "error"
    },
    {
      "inputs": [],
      "name": "AlreadyJoined",
      "type": "error"
    },
    {
      "inputs": [],
      "name": "AlreadyRevealed",
      "type": "error"
    },
    {
      "inputs": [],
      "name": "AlreadySharedKeys",
      "type": "error"
    },
    {
      "inputs": [],
      "name": "AlreadyVoted",
      "type": "error"
    },
    {
      "inputs": [],
      "name": "AlreadyVotedInMafia",
      "type": "error"
    },
    {
      "inputs": [],
      "name": "ArrayTooLarge",
      "type": "error"
    },
    {
      "inputs": [],
      "name": "CommitDeadlinePassed",
      "type": "error"
    },
    {
      "inputs": [],
      "name": "EnforcedPause",
      "type": "error"
    },
    {
      "inputs": [],
      "name": "ExpectedPause",
      "type": "error"
    },
    {
      "inputs": [],
      "name": "InvalidArrayLength",
      "type": "error"
    },
    {
      "inputs": [],
      "name": "InvalidDeckSize",
      "type": "error"
    },
    {
      "inputs": [],
      "name": "InvalidReveal",
      "type": "error"
    },
    {
      "inputs": [],
      "name": "InvalidRoleReveal",
      "type": "error"
    },
    {
      "inputs": [],
      "name": "InvalidSessionAddress",
      "type": "error"
    },
    {
      "inputs": [],
      "name": "InvalidSessionKey",
      "type": "error"
    },
    {
      "inputs": [],
      "name": "NicknameTooLong",
      "type": "error"
    },
    {
      "inputs": [],
      "name": "NoMafiaVoteActive",
      "type": "error"
    },
    {
      "inputs": [],
      "name": "NoStalledPlayers",
      "type": "error"
    },
    {
      "inputs": [],
      "name": "NotEnoughPlayers",
      "type": "error"
    },
    {
      "inputs": [],
      "name": "NotMafiaMember",
      "type": "error"
    },
    {
      "inputs": [],
      "name": "NotParticipant",
      "type": "error"
    },
    {
      "inputs": [],
      "name": "NotYourTurn",
      "type": "error"
    },
    {
      "inputs": [],
      "name": "PhaseDeadlinePassed",
      "type": "error"
    },
    {
      "inputs": [],
      "name": "PlayerInactive",
      "type": "error"
    },
    {
      "inputs": [],
      "name": "PublicKeyTooLong",
      "type": "error"
    },
    {
      "inputs": [],
      "name": "ReentrancyGuardReentrantCall",
      "type": "error"
    },
    {
      "inputs": [],
      "name": "RoleAlreadyCommitted",
      "type": "error"
    },
    {
      "inputs": [],
      "name": "RoleAlreadyRevealed",
      "type": "error"
    },
    {
      "inputs": [],
      "name": "RoomFull",
      "type": "error"
    },
    {
      "inputs": [],
      "name": "SessionAlreadyRegistered",
      "type": "error"
    },
    {
      "inputs": [],
      "name": "SessionExpired",
      "type": "error"
    },
    {
      "inputs": [],
      "name": "SessionNotForThisRoom",
      "type": "error"
    },
    {
      "inputs": [],
      "name": "TimeNotExpired",
      "type": "error"
    },
    {
      "inputs": [],
      "name": "Unauthorized",
      "type": "error"
    },
    {
      "inputs": [],
      "name": "VoteAlreadyFinalized",
      "type": "error"
    },
    {
      "inputs": [],
      "name": "WrongPhase",
      "type": "error"
    },
    {
      "anonymous": false,
      "inputs": [
        {
          "indexed": true,
          "internalType": "uint256",
          "name": "roomId",
          "type": "uint256"
        }
      ],
      "name": "AllKeysShared",
      "type": "event"
    },
    {
      "anonymous": false,
      "inputs": [
        {
          "indexed": true,
          "internalType": "uint256",
          "name": "roomId",
          "type": "uint256"
        }
      ],
      "name": "AllRolesConfirmed",
      "type": "event"
    },
    {
      "anonymous": false,
      "inputs": [
        {
          "indexed": true,
          "internalType": "uint256",
          "name": "roomId",
          "type": "uint256"
        },
        {
          "indexed": false,
          "internalType": "uint256",
          "name": "dayNumber",
          "type": "uint256"
        }
      ],
      "name": "DayStarted",
      "type": "event"
    },
    {
      "anonymous": false,
      "inputs": [
        {
          "indexed": true,
          "internalType": "uint256",
          "name": "roomId",
          "type": "uint256"
        },
        {
          "indexed": false,
          "internalType": "address",
          "name": "player",
          "type": "address"
        },
        {
          "indexed": false,
          "internalType": "bytes32",
          "name": "commitHash",
          "type": "bytes32"
        }
      ],
      "name": "DeckCommitted",
      "type": "event"
    },
    {
      "anonymous": false,
      "inputs": [
        {
          "indexed": true,
          "internalType": "uint256",
          "name": "roomId",
          "type": "uint256"
        },
        {
          "indexed": false,
          "internalType": "address",
          "name": "player",
          "type": "address"
        },
        {
          "indexed": false,
          "internalType": "string[]",
          "name": "deck",
          "type": "string[]"
        }
      ],
      "name": "DeckRevealed",
      "type": "event"
    },
    {
      "anonymous": false,
      "inputs": [
        {
          "indexed": true,
          "internalType": "address",
          "name": "admin",
          "type": "address"
        }
      ],
      "name": "EmergencyPause",
      "type": "event"
    },
    {
      "anonymous": false,
      "inputs": [
        {
          "indexed": true,
          "internalType": "address",
          "name": "admin",
          "type": "address"
        }
      ],
      "name": "EmergencyUnpause",
      "type": "event"
    },
    {
      "anonymous": false,
      "inputs": [
        {
          "indexed": true,
          "internalType": "uint256",
          "name": "roomId",
          "type": "uint256"
        },
        {
          "indexed": false,
          "internalType": "string",
          "name": "winCondition",
          "type": "string"
        }
      ],
      "name": "GameEnded",
      "type": "event"
    },
    {
      "anonymous": false,
      "inputs": [
        {
          "indexed": true,
          "internalType": "uint256",
          "name": "roomId",
          "type": "uint256"
        }
      ],
      "name": "GameStarted",
      "type": "event"
    },
    {
      "anonymous": false,
      "inputs": [
        {
          "indexed": true,
          "internalType": "uint256",
          "name": "roomId",
          "type": "uint256"
        },
        {
          "indexed": false,
          "internalType": "address",
          "name": "from",
          "type": "address"
        }
      ],
      "name": "KeysSharedToAll",
      "type": "event"
    },
    {
      "anonymous": false,
      "inputs": [
        {
          "indexed": true,
          "internalType": "uint256",
          "name": "roomId",
          "type": "uint256"
        },
        {
          "indexed": false,
          "internalType": "address",
          "name": "sender",
          "type": "address"
        },
        {
          "indexed": false,
          "internalType": "bytes",
          "name": "encryptedMessage",
          "type": "bytes"
        }
      ],
      "name": "MafiaMessageSent",
      "type": "event"
    },
    {
      "anonymous": false,
      "inputs": [
        {
          "indexed": true,
          "internalType": "uint256",
          "name": "roomId",
          "type": "uint256"
        },
        {
          "indexed": false,
          "internalType": "address",
          "name": "voter",
          "type": "address"
        },
        {
          "indexed": false,
          "internalType": "bool",
          "name": "approve",
          "type": "bool"
        }
      ],
      "name": "MafiaVoteCast",
      "type": "event"
    },
    {
      "anonymous": false,
      "inputs": [
        {
          "indexed": true,
          "internalType": "uint256",
          "name": "roomId",
          "type": "uint256"
        },
        {
          "indexed": false,
          "internalType": "address",
          "name": "target",
          "type": "address"
        },
        {
          "indexed": false,
          "internalType": "bool",
          "name": "approved",
          "type": "bool"
        }
      ],
      "name": "MafiaVoteFinalized",
      "type": "event"
    },
    {
      "anonymous": false,
      "inputs": [
        {
          "indexed": true,
          "internalType": "uint256",
          "name": "roomId",
          "type": "uint256"
        },
        {
          "indexed": false,
          "internalType": "address",
          "name": "initiator",
          "type": "address"
        },
        {
          "indexed": false,
          "internalType": "address",
          "name": "target",
          "type": "address"
        }
      ],
      "name": "MafiaVoteStarted",
      "type": "event"
    },
    {
      "anonymous": false,
      "inputs": [
        {
          "indexed": true,
          "internalType": "uint256",
          "name": "roomId",
          "type": "uint256"
        },
        {
          "indexed": false,
          "internalType": "address",
          "name": "player",
          "type": "address"
        },
        {
          "indexed": false,
          "internalType": "bytes32",
          "name": "commitHash",
          "type": "bytes32"
        }
      ],
      "name": "NightActionCommitted",
      "type": "event"
    },
    {
      "anonymous": false,
      "inputs": [
        {
          "indexed": true,
          "internalType": "uint256",
          "name": "roomId",
          "type": "uint256"
        },
        {
          "indexed": false,
          "internalType": "address",
          "name": "player",
          "type": "address"
        },
        {
          "indexed": false,
          "internalType": "enum MafiaPortalV4.NightActionType",
          "name": "action",
          "type": "uint8"
        },
        {
          "indexed": false,
          "internalType": "address",
          "name": "target",
          "type": "address"
        }
      ],
      "name": "NightActionRevealed",
      "type": "event"
    },
    {
      "anonymous": false,
      "inputs": [
        {
          "indexed": true,
          "internalType": "uint256",
          "name": "roomId",
          "type": "uint256"
        },
        {
          "indexed": false,
          "internalType": "address",
          "name": "killed",
          "type": "address"
        },
        {
          "indexed": false,
          "internalType": "address",
          "name": "healed",
          "type": "address"
        }
      ],
      "name": "NightFinalized",
      "type": "event"
    },
    {
      "anonymous": false,
      "inputs": [
        {
          "indexed": true,
          "internalType": "uint256",
          "name": "roomId",
          "type": "uint256"
        }
      ],
      "name": "NightStarted",
      "type": "event"
    },
    {
      "anonymous": false,
      "inputs": [
        {
          "indexed": false,
          "internalType": "address",
          "name": "account",
          "type": "address"
        }
      ],
      "name": "Paused",
      "type": "event"
    },
    {
      "anonymous": false,
      "inputs": [
        {
          "indexed": true,
          "internalType": "uint256",
          "name": "roomId",
          "type": "uint256"
        },
        {
          "indexed": false,
          "internalType": "enum MafiaPortalV4.GamePhase",
          "name": "phase",
          "type": "uint8"
        }
      ],
      "name": "PhaseTimeout",
      "type": "event"
    },
    {
      "anonymous": false,
      "inputs": [
        {
          "indexed": true,
          "internalType": "uint256",
          "name": "roomId",
          "type": "uint256"
        },
        {
          "indexed": false,
          "internalType": "address",
          "name": "player",
          "type": "address"
        },
        {
          "indexed": false,
          "internalType": "string",
          "name": "reason",
          "type": "string"
        }
      ],
      "name": "PlayerEliminated",
      "type": "event"
    },
    {
      "anonymous": false,
      "inputs": [
        {
          "indexed": true,
          "internalType": "uint256",
          "name": "roomId",
          "type": "uint256"
        },
        {
          "indexed": false,
          "internalType": "address",
          "name": "player",
          "type": "address"
        },
        {
          "indexed": false,
          "internalType": "string",
          "name": "nickname",
          "type": "string"
        },
        {
          "indexed": false,
          "internalType": "address",
          "name": "sessionKey",
          "type": "address"
        }
      ],
      "name": "PlayerJoined",
      "type": "event"
    },
    {
      "anonymous": false,
      "inputs": [
        {
          "indexed": true,
          "internalType": "uint256",
          "name": "roomId",
          "type": "uint256"
        },
        {
          "indexed": false,
          "internalType": "address",
          "name": "player",
          "type": "address"
        },
        {
          "indexed": false,
          "internalType": "string",
          "name": "reason",
          "type": "string"
        }
      ],
      "name": "PlayerKicked",
      "type": "event"
    },
    {
      "anonymous": false,
      "inputs": [
        {
          "indexed": true,
          "internalType": "bytes32",
          "name": "role",
          "type": "bytes32"
        },
        {
          "indexed": true,
          "internalType": "bytes32",
          "name": "previousAdminRole",
          "type": "bytes32"
        },
        {
          "indexed": true,
          "internalType": "bytes32",
          "name": "newAdminRole",
          "type": "bytes32"
        }
      ],
      "name": "RoleAdminChanged",
      "type": "event"
    },
    {
      "anonymous": false,
      "inputs": [
        {
          "indexed": true,
          "internalType": "uint256",
          "name": "roomId",
          "type": "uint256"
        },
        {
          "indexed": false,
          "internalType": "address",
          "name": "player",
          "type": "address"
        },
        {
          "indexed": false,
          "internalType": "bytes32",
          "name": "commitHash",
          "type": "bytes32"
        }
      ],
      "name": "RoleCommitted",
      "type": "event"
    },
    {
      "anonymous": false,
      "inputs": [
        {
          "indexed": true,
          "internalType": "uint256",
          "name": "roomId",
          "type": "uint256"
        },
        {
          "indexed": false,
          "internalType": "address",
          "name": "player",
          "type": "address"
        }
      ],
      "name": "RoleConfirmed",
      "type": "event"
    },
    {
      "anonymous": false,
      "inputs": [
        {
          "indexed": true,
          "internalType": "bytes32",
          "name": "role",
          "type": "bytes32"
        },
        {
          "indexed": true,
          "internalType": "address",
          "name": "account",
          "type": "address"
        },
        {
          "indexed": true,
          "internalType": "address",
          "name": "sender",
          "type": "address"
        }
      ],
      "name": "RoleGranted",
      "type": "event"
    },
    {
      "anonymous": false,
      "inputs": [
        {
          "indexed": true,
          "internalType": "uint256",
          "name": "roomId",
          "type": "uint256"
        },
        {
          "indexed": false,
          "internalType": "address",
          "name": "player",
          "type": "address"
        },
        {
          "indexed": false,
          "internalType": "enum MafiaPortalV4.Role",
          "name": "role",
          "type": "uint8"
        }
      ],
      "name": "RoleRevealed",
      "type": "event"
    },
    {
      "anonymous": false,
      "inputs": [
        {
          "indexed": true,
          "internalType": "bytes32",
          "name": "role",
          "type": "bytes32"
        },
        {
          "indexed": true,
          "internalType": "address",
          "name": "account",
          "type": "address"
        },
        {
          "indexed": true,
          "internalType": "address",
          "name": "sender",
          "type": "address"
        }
      ],
      "name": "RoleRevoked",
      "type": "event"
    },
    {
      "anonymous": false,
      "inputs": [
        {
          "indexed": true,
          "internalType": "uint256",
          "name": "roomId",
          "type": "uint256"
        },
        {
          "indexed": false,
          "internalType": "address",
          "name": "host",
          "type": "address"
        },
        {
          "indexed": false,
          "internalType": "uint256",
          "name": "maxPlayers",
          "type": "uint256"
        }
      ],
      "name": "RoomCreated",
      "type": "event"
    },
    {
      "anonymous": false,
      "inputs": [
        {
          "indexed": true,
          "internalType": "address",
          "name": "mainWallet",
          "type": "address"
        },
        {
          "indexed": true,
          "internalType": "address",
          "name": "sessionKey",
          "type": "address"
        },
        {
          "indexed": false,
          "internalType": "uint256",
          "name": "roomId",
          "type": "uint256"
        },
        {
          "indexed": false,
          "internalType": "uint256",
          "name": "expiresAt",
          "type": "uint256"
        }
      ],
      "name": "SessionKeyRegistered",
      "type": "event"
    },
    {
      "anonymous": false,
      "inputs": [
        {
          "indexed": true,
          "internalType": "address",
          "name": "mainWallet",
          "type": "address"
        },
        {
          "indexed": true,
          "internalType": "address",
          "name": "sessionKey",
          "type": "address"
        }
      ],
      "name": "SessionKeyRevoked",
      "type": "event"
    },
    {
      "anonymous": false,
      "inputs": [
        {
          "indexed": false,
          "internalType": "address",
          "name": "account",
          "type": "address"
        }
      ],
      "name": "Unpaused",
      "type": "event"
    },
    {
      "anonymous": false,
      "inputs": [
        {
          "indexed": true,
          "internalType": "uint256",
          "name": "roomId",
          "type": "uint256"
        },
        {
          "indexed": false,
          "internalType": "address",
          "name": "voter",
          "type": "address"
        },
        {
          "indexed": false,
          "internalType": "address",
          "name": "target",
          "type": "address"
        }
      ],
      "name": "VoteCast",
      "type": "event"
    },
    {
      "anonymous": false,
      "inputs": [
        {
          "indexed": true,
          "internalType": "uint256",
          "name": "roomId",
          "type": "uint256"
        },
        {
          "indexed": false,
          "internalType": "address",
          "name": "eliminated",
          "type": "address"
        },
        {
          "indexed": false,
          "internalType": "uint256",
          "name": "voteCount",
          "type": "uint256"
        }
      ],
      "name": "VotingFinalized",
      "type": "event"
    },
    {
      "anonymous": false,
      "inputs": [
        {
          "indexed": true,
          "internalType": "uint256",
          "name": "roomId",
          "type": "uint256"
        }
      ],
      "name": "VotingStarted",
      "type": "event"
    },
    {
      "inputs": [],
      "name": "ADMIN_ROLE",
      "outputs": [
        {
          "internalType": "bytes32",
          "name": "",
          "type": "bytes32"
        }
      ],
      "stateMutability": "view",
      "type": "function"
    },
    {
      "inputs": [],
      "name": "COMMIT_PHASE_DURATION",
      "outputs": [
        {
          "internalType": "uint32",
          "name": "",
          "type": "uint32"
        }
      ],
      "stateMutability": "view",
      "type": "function"
    },
    {
      "inputs": [],
      "name": "DEFAULT_ADMIN_ROLE",
      "outputs": [
        {
          "internalType": "bytes32",
          "name": "",
          "type": "bytes32"
        }
      ],
      "stateMutability": "view",
      "type": "function"
    },
    {
      "inputs": [],
      "name": "HOST_ROLE",
      "outputs": [
        {
          "internalType": "bytes32",
          "name": "",
          "type": "bytes32"
        }
      ],
      "stateMutability": "view",
      "type": "function"
    },
    {
      "inputs": [],
      "name": "MAX_ARRAY_SIZE",
      "outputs": [
        {
          "internalType": "uint32",
          "name": "",
          "type": "uint32"
        }
      ],
      "stateMutability": "view",
      "type": "function"
    },
    {
      "inputs": [],
      "name": "PHASE_TIMEOUT",
      "outputs": [
        {
          "internalType": "uint32",
          "name": "",
          "type": "uint32"
        }
      ],
      "stateMutability": "view",
      "type": "function"
    },
    {
      "inputs": [],
      "name": "SESSION_DURATION",
      "outputs": [
        {
          "internalType": "uint32",
          "name": "",
          "type": "uint32"
        }
      ],
      "stateMutability": "view",
      "type": "function"
    },
    {
      "inputs": [],
      "name": "TURN_TIMEOUT",
      "outputs": [
        {
          "internalType": "uint32",
          "name": "",
          "type": "uint32"
        }
      ],
      "stateMutability": "view",
      "type": "function"
    },
    {
      "inputs": [
        {
          "internalType": "uint256",
          "name": "roomId",
          "type": "uint256"
        },
        {
          "internalType": "bytes32",
          "name": "deckHash",
          "type": "bytes32"
        }
      ],
      "name": "commitDeck",
      "outputs": [],
      "stateMutability": "nonpayable",
      "type": "function"
    },
    {
      "inputs": [
        {
          "internalType": "uint256",
          "name": "roomId",
          "type": "uint256"
        },
        {
          "internalType": "bytes32",
          "name": "hash",
          "type": "bytes32"
        }
      ],
      "name": "commitNightAction",
      "outputs": [],
      "stateMutability": "nonpayable",
      "type": "function"
    },
    {
      "inputs": [
        {
          "internalType": "uint256",
          "name": "roomId",
          "type": "uint256"
        },
        {
          "internalType": "bytes32",
          "name": "roleHash",
          "type": "bytes32"
        }
      ],
      "name": "commitRole",
      "outputs": [],
      "stateMutability": "nonpayable",
      "type": "function"
    },
    {
      "inputs": [
        {
          "internalType": "uint256",
          "name": "roomId",
          "type": "uint256"
        }
      ],
      "name": "confirmRole",
      "outputs": [],
      "stateMutability": "nonpayable",
      "type": "function"
    },
    {
      "inputs": [
        {
          "internalType": "uint8",
          "name": "maxPlayers",
          "type": "uint8"
        }
      ],
      "name": "createRoom",
      "outputs": [
        {
          "internalType": "uint256",
          "name": "",
          "type": "uint256"
        }
      ],
      "stateMutability": "nonpayable",
      "type": "function"
    },
    {
      "inputs": [
        {
          "internalType": "uint256",
          "name": "",
          "type": "uint256"
        },
        {
          "internalType": "address",
          "name": "",
          "type": "address"
        }
      ],
      "name": "deckCommits",
      "outputs": [
        {
          "internalType": "bytes32",
          "name": "commitHash",
          "type": "bytes32"
        },
        {
          "internalType": "bool",
          "name": "revealed",
          "type": "bool"
        }
      ],
      "stateMutability": "view",
      "type": "function"
    },
    {
      "inputs": [
        {
          "internalType": "uint256",
          "name": "roomId",
          "type": "uint256"
        },
        {
          "internalType": "string",
          "name": "winCondition",
          "type": "string"
        }
      ],
      "name": "endGameByHost",
      "outputs": [],
      "stateMutability": "nonpayable",
      "type": "function"
    },
    {
      "inputs": [
        {
          "internalType": "uint256",
          "name": "roomId",
          "type": "uint256"
        }
      ],
      "name": "finalizeMafiaVote",
      "outputs": [],
      "stateMutability": "nonpayable",
      "type": "function"
    },
    {
      "inputs": [
        {
          "internalType": "uint256",
          "name": "roomId",
          "type": "uint256"
        }
      ],
      "name": "forcePhaseTimeout",
      "outputs": [],
      "stateMutability": "nonpayable",
      "type": "function"
    },
    {
      "inputs": [
        {
          "internalType": "uint256",
          "name": "roomId",
          "type": "uint256"
        }
      ],
      "name": "getAllKeysForMe",
      "outputs": [
        {
          "internalType": "address[]",
          "name": "senders",
          "type": "address[]"
        },
        {
          "internalType": "bytes[]",
          "name": "keys",
          "type": "bytes[]"
        }
      ],
      "stateMutability": "view",
      "type": "function"
    },
    {
      "inputs": [
        {
          "internalType": "uint256",
          "name": "roomId",
          "type": "uint256"
        }
      ],
      "name": "getDeck",
      "outputs": [
        {
          "internalType": "string[]",
          "name": "",
          "type": "string[]"
        }
      ],
      "stateMutability": "view",
      "type": "function"
    },
    {
      "inputs": [
        {
          "internalType": "uint256",
          "name": "roomId",
          "type": "uint256"
        },
        {
          "internalType": "address",
          "name": "from",
          "type": "address"
        },
        {
          "internalType": "address",
          "name": "to",
          "type": "address"
        }
      ],
      "name": "getKeyFromTo",
      "outputs": [
        {
          "internalType": "bytes",
          "name": "",
          "type": "bytes"
        }
      ],
      "stateMutability": "view",
      "type": "function"
    },
    {
      "inputs": [
        {
          "internalType": "uint256",
          "name": "roomId",
          "type": "uint256"
        }
      ],
      "name": "getMafiaChat",
      "outputs": [
        {
          "components": [
            {
              "internalType": "bytes",
              "name": "encryptedMessage",
              "type": "bytes"
            },
            {
              "internalType": "uint32",
              "name": "timestamp",
              "type": "uint32"
            },
            {
              "internalType": "address",
              "name": "sender",
              "type": "address"
            }
          ],
          "internalType": "struct MafiaPortalV4.MafiaMessage[]",
          "name": "",
          "type": "tuple[]"
        }
      ],
      "stateMutability": "view",
      "type": "function"
    },
    {
      "inputs": [
        {
          "internalType": "uint256",
          "name": "roomId",
          "type": "uint256"
        }
      ],
      "name": "getMafiaVote",
      "outputs": [
        {
          "internalType": "address",
          "name": "target",
          "type": "address"
        },
        {
          "internalType": "uint8",
          "name": "voteCount",
          "type": "uint8"
        },
        {
          "internalType": "bool",
          "name": "finalized",
          "type": "bool"
        }
      ],
      "stateMutability": "view",
      "type": "function"
    },
    {
      "inputs": [
        {
          "internalType": "uint256",
          "name": "roomId",
          "type": "uint256"
        }
      ],
      "name": "getPhaseDeadline",
      "outputs": [
        {
          "internalType": "uint32",
          "name": "",
          "type": "uint32"
        }
      ],
      "stateMutability": "view",
      "type": "function"
    },
    {
      "inputs": [
        {
          "internalType": "uint256",
          "name": "roomId",
          "type": "uint256"
        },
        {
          "internalType": "address",
          "name": "player",
          "type": "address"
        }
      ],
      "name": "getPlayerFlags",
      "outputs": [
        {
          "internalType": "bool",
          "name": "isActive",
          "type": "bool"
        },
        {
          "internalType": "bool",
          "name": "hasConfirmedRole",
          "type": "bool"
        },
        {
          "internalType": "bool",
          "name": "hasVoted",
          "type": "bool"
        },
        {
          "internalType": "bool",
          "name": "hasCommitted",
          "type": "bool"
        },
        {
          "internalType": "bool",
          "name": "hasRevealed",
          "type": "bool"
        },
        {
          "internalType": "bool",
          "name": "hasSharedKeys",
          "type": "bool"
        }
      ],
      "stateMutability": "view",
      "type": "function"
    },
    {
      "inputs": [
        {
          "internalType": "uint256",
          "name": "roomId",
          "type": "uint256"
        }
      ],
      "name": "getPlayers",
      "outputs": [
        {
          "components": [
            {
              "internalType": "address",
              "name": "wallet",
              "type": "address"
            },
            {
              "internalType": "string",
              "name": "nickname",
              "type": "string"
            },
            {
              "internalType": "bytes",
              "name": "publicKey",
              "type": "bytes"
            },
            {
              "internalType": "uint32",
              "name": "flags",
              "type": "uint32"
            }
          ],
          "internalType": "struct MafiaPortalV4.Player[]",
          "name": "",
          "type": "tuple[]"
        }
      ],
      "stateMutability": "view",
      "type": "function"
    },
    {
      "inputs": [
        {
          "internalType": "bytes32",
          "name": "role",
          "type": "bytes32"
        }
      ],
      "name": "getRoleAdmin",
      "outputs": [
        {
          "internalType": "bytes32",
          "name": "",
          "type": "bytes32"
        }
      ],
      "stateMutability": "view",
      "type": "function"
    },
    {
      "inputs": [
        {
          "internalType": "uint256",
          "name": "roomId",
          "type": "uint256"
        }
      ],
      "name": "getRoom",
      "outputs": [
        {
          "components": [
            {
              "internalType": "uint64",
              "name": "id",
              "type": "uint64"
            },
            {
              "internalType": "address",
              "name": "host",
              "type": "address"
            },
            {
              "internalType": "enum MafiaPortalV4.GamePhase",
              "name": "phase",
              "type": "uint8"
            },
            {
              "internalType": "uint8",
              "name": "maxPlayers",
              "type": "uint8"
            },
            {
              "internalType": "uint8",
              "name": "playersCount",
              "type": "uint8"
            },
            {
              "internalType": "uint8",
              "name": "aliveCount",
              "type": "uint8"
            },
            {
              "internalType": "uint16",
              "name": "dayCount",
              "type": "uint16"
            },
            {
              "internalType": "uint8",
              "name": "currentShufflerIndex",
              "type": "uint8"
            },
            {
              "internalType": "uint32",
              "name": "lastActionTimestamp",
              "type": "uint32"
            },
            {
              "internalType": "uint32",
              "name": "phaseDeadline",
              "type": "uint32"
            },
            {
              "internalType": "uint8",
              "name": "confirmedCount",
              "type": "uint8"
            },
            {
              "internalType": "uint8",
              "name": "votedCount",
              "type": "uint8"
            },
            {
              "internalType": "uint8",
              "name": "committedCount",
              "type": "uint8"
            },
            {
              "internalType": "uint8",
              "name": "revealedCount",
              "type": "uint8"
            },
            {
              "internalType": "uint8",
              "name": "keysSharedCount",
              "type": "uint8"
            }
          ],
          "internalType": "struct MafiaPortalV4.GameRoom",
          "name": "",
          "type": "tuple"
        }
      ],
      "stateMutability": "view",
      "type": "function"
    },
    {
      "inputs": [
        {
          "internalType": "bytes32",
          "name": "role",
          "type": "bytes32"
        },
        {
          "internalType": "address",
          "name": "account",
          "type": "address"
        }
      ],
      "name": "grantRole",
      "outputs": [],
      "stateMutability": "nonpayable",
      "type": "function"
    },
    {
      "inputs": [
        {
          "internalType": "bytes32",
          "name": "role",
          "type": "bytes32"
        },
        {
          "internalType": "address",
          "name": "account",
          "type": "address"
        }
      ],
      "name": "hasRole",
      "outputs": [
        {
          "internalType": "bool",
          "name": "",
          "type": "bool"
        }
      ],
      "stateMutability": "view",
      "type": "function"
    },
    {
      "inputs": [
        {
          "internalType": "uint256",
          "name": "",
          "type": "uint256"
        },
        {
          "internalType": "address",
          "name": "",
          "type": "address"
        }
      ],
      "name": "isPlayerInRoom",
      "outputs": [
        {
          "internalType": "bool",
          "name": "",
          "type": "bool"
        }
      ],
      "stateMutability": "view",
      "type": "function"
    },
    {
      "inputs": [
        {
          "internalType": "address",
          "name": "",
          "type": "address"
        }
      ],
      "name": "isRegisteredSession",
      "outputs": [
        {
          "internalType": "bool",
          "name": "",
          "type": "bool"
        }
      ],
      "stateMutability": "view",
      "type": "function"
    },
    {
      "inputs": [
        {
          "internalType": "uint256",
          "name": "roomId",
          "type": "uint256"
        },
        {
          "internalType": "string",
          "name": "nickname",
          "type": "string"
        },
        {
          "internalType": "bytes",
          "name": "publicKey",
          "type": "bytes"
        },
        {
          "internalType": "address",
          "name": "sessionAddress",
          "type": "address"
        }
      ],
      "name": "joinRoom",
      "outputs": [],
      "stateMutability": "nonpayable",
      "type": "function"
    },
    {
      "inputs": [
        {
          "internalType": "uint256",
          "name": "",
          "type": "uint256"
        },
        {
          "internalType": "uint256",
          "name": "",
          "type": "uint256"
        }
      ],
      "name": "mafiaChat",
      "outputs": [
        {
          "internalType": "bytes",
          "name": "encryptedMessage",
          "type": "bytes"
        },
        {
          "internalType": "uint32",
          "name": "timestamp",
          "type": "uint32"
        },
        {
          "internalType": "address",
          "name": "sender",
          "type": "address"
        }
      ],
      "stateMutability": "view",
      "type": "function"
    },
    {
      "inputs": [
        {
          "internalType": "uint256",
          "name": "",
          "type": "uint256"
        }
      ],
      "name": "mafiaNightVote",
      "outputs": [
        {
          "internalType": "address",
          "name": "target",
          "type": "address"
        },
        {
          "internalType": "uint8",
          "name": "voteCount",
          "type": "uint8"
        },
        {
          "internalType": "bool",
          "name": "finalized",
          "type": "bool"
        }
      ],
      "stateMutability": "view",
      "type": "function"
    },
    {
      "inputs": [
        {
          "internalType": "uint256",
          "name": "",
          "type": "uint256"
        },
        {
          "internalType": "address",
          "name": "",
          "type": "address"
        }
      ],
      "name": "mafiaVoteHasVoted",
      "outputs": [
        {
          "internalType": "bool",
          "name": "",
          "type": "bool"
        }
      ],
      "stateMutability": "view",
      "type": "function"
    },
    {
      "inputs": [],
      "name": "nextRoomId",
      "outputs": [
        {
          "internalType": "uint256",
          "name": "",
          "type": "uint256"
        }
      ],
      "stateMutability": "view",
      "type": "function"
    },
    {
      "inputs": [
        {
          "internalType": "uint256",
          "name": "",
          "type": "uint256"
        },
        {
          "internalType": "address",
          "name": "",
          "type": "address"
        }
      ],
      "name": "nightCommits",
      "outputs": [
        {
          "internalType": "bytes32",
          "name": "commitHash",
          "type": "bytes32"
        },
        {
          "internalType": "bool",
          "name": "revealed",
          "type": "bool"
        },
        {
          "internalType": "uint32",
          "name": "commitTime",
          "type": "uint32"
        }
      ],
      "stateMutability": "view",
      "type": "function"
    },
    {
      "inputs": [],
      "name": "pause",
      "outputs": [],
      "stateMutability": "nonpayable",
      "type": "function"
    },
    {
      "inputs": [],
      "name": "paused",
      "outputs": [
        {
          "internalType": "bool",
          "name": "",
          "type": "bool"
        }
      ],
      "stateMutability": "view",
      "type": "function"
    },
    {
      "inputs": [
        {
          "internalType": "uint256",
          "name": "",
          "type": "uint256"
        },
        {
          "internalType": "address",
          "name": "",
          "type": "address"
        },
        {
          "internalType": "address",
          "name": "",
          "type": "address"
        }
      ],
      "name": "playerDeckKeys",
      "outputs": [
        {
          "internalType": "bytes",
          "name": "",
          "type": "bytes"
        }
      ],
      "stateMutability": "view",
      "type": "function"
    },
    {
      "inputs": [
        {
          "internalType": "uint256",
          "name": "",
          "type": "uint256"
        },
        {
          "internalType": "address",
          "name": "",
          "type": "address"
        }
      ],
      "name": "playerIndex",
      "outputs": [
        {
          "internalType": "uint8",
          "name": "",
          "type": "uint8"
        }
      ],
      "stateMutability": "view",
      "type": "function"
    },
    {
      "inputs": [
        {
          "internalType": "uint256",
          "name": "",
          "type": "uint256"
        },
        {
          "internalType": "address",
          "name": "",
          "type": "address"
        }
      ],
      "name": "playerRoles",
      "outputs": [
        {
          "internalType": "enum MafiaPortalV4.Role",
          "name": "",
          "type": "uint8"
        }
      ],
      "stateMutability": "view",
      "type": "function"
    },
    {
      "inputs": [
        {
          "internalType": "bytes32",
          "name": "role",
          "type": "bytes32"
        },
        {
          "internalType": "address",
          "name": "callerConfirmation",
          "type": "address"
        }
      ],
      "name": "renounceRole",
      "outputs": [],
      "stateMutability": "nonpayable",
      "type": "function"
    },
    {
      "inputs": [
        {
          "internalType": "uint256",
          "name": "roomId",
          "type": "uint256"
        },
        {
          "internalType": "string[]",
          "name": "deck",
          "type": "string[]"
        },
        {
          "internalType": "string",
          "name": "salt",
          "type": "string"
        }
      ],
      "name": "revealDeck",
      "outputs": [],
      "stateMutability": "nonpayable",
      "type": "function"
    },
    {
      "inputs": [
        {
          "internalType": "uint256",
          "name": "roomId",
          "type": "uint256"
        },
        {
          "internalType": "enum MafiaPortalV4.NightActionType",
          "name": "action",
          "type": "uint8"
        },
        {
          "internalType": "address",
          "name": "target",
          "type": "address"
        },
        {
          "internalType": "string",
          "name": "salt",
          "type": "string"
        }
      ],
      "name": "revealNightAction",
      "outputs": [],
      "stateMutability": "nonpayable",
      "type": "function"
    },
    {
      "inputs": [
        {
          "internalType": "uint256",
          "name": "roomId",
          "type": "uint256"
        },
        {
          "internalType": "enum MafiaPortalV4.Role",
          "name": "role",
          "type": "uint8"
        },
        {
          "internalType": "string",
          "name": "salt",
          "type": "string"
        }
      ],
      "name": "revealRole",
      "outputs": [],
      "stateMutability": "nonpayable",
      "type": "function"
    },
    {
      "inputs": [
        {
          "internalType": "uint256",
          "name": "",
          "type": "uint256"
        },
        {
          "internalType": "address",
          "name": "",
          "type": "address"
        }
      ],
      "name": "revealedActions",
      "outputs": [
        {
          "internalType": "enum MafiaPortalV4.NightActionType",
          "name": "",
          "type": "uint8"
        }
      ],
      "stateMutability": "view",
      "type": "function"
    },
    {
      "inputs": [
        {
          "internalType": "uint256",
          "name": "",
          "type": "uint256"
        },
        {
          "internalType": "uint256",
          "name": "",
          "type": "uint256"
        }
      ],
      "name": "revealedDeck",
      "outputs": [
        {
          "internalType": "string",
          "name": "",
          "type": "string"
        }
      ],
      "stateMutability": "view",
      "type": "function"
    },
    {
      "inputs": [
        {
          "internalType": "uint256",
          "name": "",
          "type": "uint256"
        },
        {
          "internalType": "address",
          "name": "",
          "type": "address"
        }
      ],
      "name": "revealedTargets",
      "outputs": [
        {
          "internalType": "address",
          "name": "",
          "type": "address"
        }
      ],
      "stateMutability": "view",
      "type": "function"
    },
    {
      "inputs": [
        {
          "internalType": "bytes32",
          "name": "role",
          "type": "bytes32"
        },
        {
          "internalType": "address",
          "name": "account",
          "type": "address"
        }
      ],
      "name": "revokeRole",
      "outputs": [],
      "stateMutability": "nonpayable",
      "type": "function"
    },
    {
      "inputs": [],
      "name": "revokeSessionKey",
      "outputs": [],
      "stateMutability": "nonpayable",
      "type": "function"
    },
    {
      "inputs": [
        {
          "internalType": "uint256",
          "name": "",
          "type": "uint256"
        },
        {
          "internalType": "address",
          "name": "",
          "type": "address"
        }
      ],
      "name": "roleCommits",
      "outputs": [
        {
          "internalType": "bytes32",
          "name": "",
          "type": "bytes32"
        }
      ],
      "stateMutability": "view",
      "type": "function"
    },
    {
      "inputs": [
        {
          "internalType": "uint256",
          "name": "",
          "type": "uint256"
        },
        {
          "internalType": "uint256",
          "name": "",
          "type": "uint256"
        }
      ],
      "name": "roomPlayers",
      "outputs": [
        {
          "internalType": "address",
          "name": "wallet",
          "type": "address"
        },
        {
          "internalType": "string",
          "name": "nickname",
          "type": "string"
        },
        {
          "internalType": "bytes",
          "name": "publicKey",
          "type": "bytes"
        },
        {
          "internalType": "uint32",
          "name": "flags",
          "type": "uint32"
        }
      ],
      "stateMutability": "view",
      "type": "function"
    },
    {
      "inputs": [
        {
          "internalType": "uint256",
          "name": "",
          "type": "uint256"
        }
      ],
      "name": "rooms",
      "outputs": [
        {
          "internalType": "uint64",
          "name": "id",
          "type": "uint64"
        },
        {
          "internalType": "address",
          "name": "host",
          "type": "address"
        },
        {
          "internalType": "enum MafiaPortalV4.GamePhase",
          "name": "phase",
          "type": "uint8"
        },
        {
          "internalType": "uint8",
          "name": "maxPlayers",
          "type": "uint8"
        },
        {
          "internalType": "uint8",
          "name": "playersCount",
          "type": "uint8"
        },
        {
          "internalType": "uint8",
          "name": "aliveCount",
          "type": "uint8"
        },
        {
          "internalType": "uint16",
          "name": "dayCount",
          "type": "uint16"
        },
        {
          "internalType": "uint8",
          "name": "currentShufflerIndex",
          "type": "uint8"
        },
        {
          "internalType": "uint32",
          "name": "lastActionTimestamp",
          "type": "uint32"
        },
        {
          "internalType": "uint32",
          "name": "phaseDeadline",
          "type": "uint32"
        },
        {
          "internalType": "uint8",
          "name": "confirmedCount",
          "type": "uint8"
        },
        {
          "internalType": "uint8",
          "name": "votedCount",
          "type": "uint8"
        },
        {
          "internalType": "uint8",
          "name": "committedCount",
          "type": "uint8"
        },
        {
          "internalType": "uint8",
          "name": "revealedCount",
          "type": "uint8"
        },
        {
          "internalType": "uint8",
          "name": "keysSharedCount",
          "type": "uint8"
        }
      ],
      "stateMutability": "view",
      "type": "function"
    },
    {
      "inputs": [
        {
          "internalType": "uint256",
          "name": "roomId",
          "type": "uint256"
        },
        {
          "internalType": "bytes",
          "name": "encryptedMessage",
          "type": "bytes"
        }
      ],
      "name": "sendMafiaMessage",
      "outputs": [],
      "stateMutability": "nonpayable",
      "type": "function"
    },
    {
      "inputs": [
        {
          "internalType": "address",
          "name": "",
          "type": "address"
        }
      ],
      "name": "sessionKeys",
      "outputs": [
        {
          "internalType": "address",
          "name": "sessionAddress",
          "type": "address"
        },
        {
          "internalType": "uint32",
          "name": "expiresAt",
          "type": "uint32"
        },
        {
          "internalType": "uint64",
          "name": "roomId",
          "type": "uint64"
        },
        {
          "internalType": "bool",
          "name": "isActive",
          "type": "bool"
        }
      ],
      "stateMutability": "view",
      "type": "function"
    },
    {
      "inputs": [
        {
          "internalType": "address",
          "name": "",
          "type": "address"
        }
      ],
      "name": "sessionToMain",
      "outputs": [
        {
          "internalType": "address",
          "name": "",
          "type": "address"
        }
      ],
      "stateMutability": "view",
      "type": "function"
    },
    {
      "inputs": [
        {
          "internalType": "uint256",
          "name": "roomId",
          "type": "uint256"
        },
        {
          "internalType": "address[]",
          "name": "recipients",
          "type": "address[]"
        },
        {
          "internalType": "bytes[]",
          "name": "encryptedKeys",
          "type": "bytes[]"
        }
      ],
      "name": "shareKeysToAll",
      "outputs": [],
      "stateMutability": "nonpayable",
      "type": "function"
    },
    {
      "inputs": [
        {
          "internalType": "uint256",
          "name": "roomId",
          "type": "uint256"
        }
      ],
      "name": "startGame",
      "outputs": [],
      "stateMutability": "nonpayable",
      "type": "function"
    },
    {
      "inputs": [
        {
          "internalType": "uint256",
          "name": "roomId",
          "type": "uint256"
        },
        {
          "internalType": "address",
          "name": "target",
          "type": "address"
        }
      ],
      "name": "startMafiaVote",
      "outputs": [],
      "stateMutability": "nonpayable",
      "type": "function"
    },
    {
      "inputs": [
        {
          "internalType": "uint256",
          "name": "roomId",
          "type": "uint256"
        }
      ],
      "name": "startVoting",
      "outputs": [],
      "stateMutability": "nonpayable",
      "type": "function"
    },
    {
      "inputs": [
        {
          "internalType": "bytes4",
          "name": "interfaceId",
          "type": "bytes4"
        }
      ],
      "name": "supportsInterface",
      "outputs": [
        {
          "internalType": "bool",
          "name": "",
          "type": "bool"
        }
      ],
      "stateMutability": "view",
      "type": "function"
    },
    {
      "inputs": [],
      "name": "unpause",
      "outputs": [],
      "stateMutability": "nonpayable",
      "type": "function"
    },
    {
      "inputs": [
        {
          "internalType": "uint256",
          "name": "roomId",
          "type": "uint256"
        },
        {
          "internalType": "address",
          "name": "target",
          "type": "address"
        }
      ],
      "name": "vote",
      "outputs": [],
      "stateMutability": "nonpayable",
      "type": "function"
    },
    {
      "inputs": [
        {
          "internalType": "uint256",
          "name": "",
          "type": "uint256"
        },
        {
          "internalType": "address",
          "name": "",
          "type": "address"
        }
      ],
      "name": "voteCounts",
      "outputs": [
        {
          "internalType": "uint8",
          "name": "",
          "type": "uint8"
        }
      ],
      "stateMutability": "view",
      "type": "function"
    },
    {
      "inputs": [
        {
          "internalType": "uint256",
          "name": "roomId",
          "type": "uint256"
        },
        {
          "internalType": "bool",
          "name": "approve",
          "type": "bool"
        }
      ],
      "name": "voteInMafia",
      "outputs": [],
      "stateMutability": "nonpayable",
      "type": "function"
    },
    {
      "inputs": [
        {
          "internalType": "uint256",
          "name": "",
          "type": "uint256"
        },
        {
          "internalType": "address",
          "name": "",
          "type": "address"
        }
      ],
      "name": "votes",
      "outputs": [
        {
          "internalType": "address",
          "name": "",
          "type": "address"
        }
      ],
      "stateMutability": "view",
      "type": "function"
    }
  ],
  "bytecode": "0x6080604052346100355760015f55600160175561001b33610039565b50610025336100af565b50604051615f2190816101438239f35b5f80fd5b6001600160a01b0381165f9081525f5160206160845f395f51905f52602052604090205460ff166100aa576001600160a01b03165f8181525f5160206160845f395f51905f5260205260408120805460ff191660011790553391905f5160206160645f395f51905f528180a4600190565b505f90565b6001600160a01b0381165f9081525f5160206160a45f395f51905f52602052604090205460ff166100aa576001600160a01b03165f8181525f5160206160a45f395f51905f5260205260408120805460ff191660011790553391907fa49807205ce4d355092ef5a8a18f56e8913cf4a201fbe287825b095693c21775905f5160206160645f395f51905f529080a460019056fe6080806040526004361015610012575f80fd5b5f3560e01c90816301ffc9a71461474a5750806302d947ef1461442257806307a52cab1461440557806309ed3e22146143705780630d3c15cc146143555780630f36f3b51461411e57806312c57f551461107257806314a09d60146140e85780631bae0ac814613ffc5780631da57fec14613fb3578063248a9ca314613f8d5780632a51fb3a14613eb85780632f2ff15d14613e8757806335b9729914613e1257806336568abe14613dce57806337048f2114613cc15780633b0e8d8314613b145780633d2f5bda1461396f5780633deaa341146139535780633ec09d2c146139165780633f4ba83a1461388b57806343cd690314613689578063460e20491461353657806348e69d1f146134975780634f324d14146134575780635099fae21461324f578063567e8dd5146131fd5780635ad7d63714611c0d5780635c975abb146131db5780635d99dc3e1461313f5780635e82ff651461312457806361ea2027146130dd5780636594bb0c14612d55578063660e907c14612d0c578063669ead1714612cc057806368e978b114612c995780636d8a74cb14612a615780637120465b1461246b57806375b238fc146124445780637fa9c2891461242857806384411c0a146123e15780638456cb59146123645780638a8dd7f41461232057806391d14854146122d757806394225e9d14611ff4578063a05bcf0214611fbd578063a217fddf14611fa3578063a31e9e9e14611e39578063af38479114611c8f578063af7efa7c14611c74578063afe5598614611c0d578063b6bf359a14611974578063b7b8d6041461190c578063bb9ae8751461153d578063c96f09791461132b578063d0655394146111fe578063d23254b4146111b4578063d4bf7ac214611109578063d547741f146110d3578063d94a51cb14611072578063dae2928a14610c5f578063e5ed1d5914610b57578063e851122d14610b09578063eb02410114610648578063eb0fa6f8146105fe578063f14caed71461059b5763f9c3f8ab146102fd575f80fd5b346105975760403660031901126105975760043561031961479d565b610321614e96565b61032a82614eb4565b825f52600560205260405f2060018060a01b0382165f5260205260ff60405f2054161561052d5761035b9083614f3a565b1561051e57610368614fbb565b61037182614eb4565b90825f52600360205260ff60405f205460e01c1660078110156105745760050361058857825f52600f60205260405f2060018060a01b0383165f5260205260ff60405f205416600581101561057457600103610565575f838152601260205260409020546001600160a01b031615158061054b575b61053c57825f52600560205260405f2060018060a01b0382165f5260205260ff60405f2054161561052d5761041b8184614f3a565b1561051e575f516020615e4c5f395f51905f5291837f9dbbd74f78939a3de1ce4e0272acfc54b772255f34938bdb468dd0602fe071ed6104fe604094855161046281614867565b6001600160a01b038281168252600160208084019182525f8a850181815289825260129092528a9020935184546001600160a01b0319169316929092178355516104af9060ff1683614c3a565b51815460ff60a81b191690151560a81b60ff60a81b161790555f848152601360209081528782206001600160a01b03881683529052869020805460ff1916600117905585519182918683614ab0565b0390a281516001600160a01b03909116815260016020820152a260015f55005b630575d90f60e11b5f5260045ffd5b63721c7c6760e11b5f5260045ffd5b63d1aff2ad60e01b5f5260045ffd5b50825f52601260205260ff60405f205460a81c16156103e6565b63995240cf60e01b5f5260045ffd5b634e487b7160e01b5f52602160045260245ffd5b6338961af360e21b5f5260045ffd5b5f80fd5b34610597576040366003190112610597576105b461479d565b6004355f52600c60205260405f209060018060a01b03165f52602052606060405f2063ffffffff6001825492015460405192835260ff81161515602084015260081c166040820152f35b346105975760403660031901126105975761061761479d565b6004355f908152600e602090815260408083206001600160a01b039485168452825291829020549151919092168152f35b34610597576060366003190112610597576004356024356001600160401b0381116105975761067b903690600401614a36565b6044356001600160401b0381116105975761069a9036906004016149c9565b6106a2614e96565b6106ab85614eb4565b855f52600560205260405f2060018060a01b0382165f5260205260ff60405f2054161561052d576106dc9086614f3a565b1561051e57845f52600360205263ffffffff600160405f20015460381c16151580610ae8575b610ad95761070e614fbb565b61071785614eb4565b91855f52600360205260405f209182549160ff8360e01c1660078110156105745760010361058857610784610776916040519283916020830195604087526107648c8c6060870191614e00565b848103601f1901604086015291614c81565b03601f198101835282614882565b519020865f52600760205260405f2060018060a01b0385165f5260205260405f205403610aca5760328411610abb57855f52600860205260405f2054159081610aab575b50610a8657845f52600860205260405f2054151580610a95575b610a86575f858152600860205260409020600160401b84116109fb578054848255808510610a0f575b505f908152602081208694939291865b85821061091757505050906108e760017f1522116f5d4e7ac5527e161307d73b93c621a9a7627553f584afb6b6f62a74e79493865f52600760205260405f20828060a01b0385165f52602052600260405f20018260ff1982541617905501956108c661089661089060ff8a5460101c16614e84565b88615bf9565b976108a18982614b0a565b6108b163ffffffff421682614b22565b63ffffffff6108bf42614c72565b1690614b42565b60405193849360018060a01b03168452604060208501526040840191614e00565b0390a2815f52600460205260ff60405f205491161015610908575b60015f55005b61091190615c3b565b80610902565b909192939495506109288188614d97565b906001600160401b0382116109fb5761094b8261094587546147f8565b87614cfc565b5f90601f83116001146109915792610974836001959460209487965f92610986575b5050614d3f565b86555b0193019101879594939261081b565b013590508e8061096d565b601f19831691865f5260205f20925f5b8181106109e357509360209360019693879693838895106109ca575b505050811b018655610977565b01355f19600384901b60f8161c191690558d80806109bd565b919360206001819287870135815501950192016109a1565b634e487b7160e01b5f52604160045260245ffd5b815f528460205f2091820191015b818110610a2a575061080b565b80610a37600192546147f8565b80610a44575b5001610a1d565b601f81118314610a5957505f81555b89610a3d565b610a7590825f5283601f60205f20920160051c82019101614ce6565b805f525f6020812081835555610a53565b63d1d2a30960e01b5f5260045ffd5b50845f52600860205260405f20548314156107e2565b60ff915060f01c168310866107c8565b63376ab11160e01b5f5260045ffd5b639ea6d12760e01b5f5260045ffd5b6301a6f70d60e01b5f5260045ffd5b50845f52600360205263ffffffff600160405f20015460381c164211610702565b3461059757604036600319011261059757610b2261479d565b6004355f52600f60205260405f209060018060a01b03165f52602052602060ff60405f205416610b556040518092614a66565bf35b34610597576020366003190112610597576004355f81815260036020526040908190205433911c6001600160a01b0316141580610c3a575b610c2c57610b9b614fbb565b805f52600360205260405f20805460ff8160e01c166007811015610574576105885760ff60029160f01c1610610c1d57805460ff60e01b1916600160e01b178155610bf7906108a16001610bee85615bb0565b92019182614b0a565b7f50ad08f58a27f2851d7e3a1b3a6a46b290f2ce677e99642d30ff639721e777905f80a2005b63f770074360e01b5f5260045ffd5b6282b42960e81b5f5260045ffd5b50335f9081525f516020615e8c5f395f51905f52602052604090205460ff1615610b8f565b34610597576020366003190112610597576004355f81815260036020526040908190205433911c6001600160a01b031614158061104d575b610c2c57610ca3614fbb565b805f52600360205260405f206001810163ffffffff815460381c16801561103e5742111561103e5760ff825460e01c166007811015806105745781158015611032575b61058857847f77ff69c1f99cadd93a6da75080e20a3fed43f1d42375051a5d162adcafc5fbb76020604051610d1b81876149a3565ba26105745760018103610e4857505050805f52600360205260405f20600181018260ff825460101c16815f52600460205260405f20548110610dd3575b5050610d81610d76610d7060ff845460101c16614e84565b85615bf9565b916108a18382614b0a565b825f52600460205260ff60405f205491161015610d9e575b50505b005b54600260f89190911c10610dbc57610db590615c3b565b8080610d99565b610dce90610dc8614dc9565b906159d9565b610db5565b6080610df85f516020615eac5f395f51905f5292845f52600460205260405f206147df565b50546001600160a01b0316610e0d8185615ce8565b60405190815260406020820152601660408201527554696d656f757420647572696e672073687566666c6560501b6060820152a28284610d58565b60028103610f7157505090805f52600460205260405f20905f5b825460ff82161015610f4a578060026003610e80610e8d94876147df565b50015416610e9257614a82565b610e62565b60206003610ea083876147df565b500154161560016003610eb384886147df565b50015416158115610f42575b5015614a8257610ee3610ed282866147df565b50546001600160a01b031684615ce8565b825f516020615eac5f395f51905f526080610efe84886147df565b5054604080516001600160a01b0390921682526020820181905260159082015274151a5b595bdd5d08191d5c9a5b99c81c995d99585b605a1b6060820152a2614a82565b905086610ebf565b5091600291505460f81c10155f14610f6557610d9c9061558b565b610d9c90610dc8614dc9565b60048103610f8557505050610d9c90614fd6565b60058103610fe757505460681c60ff1615159050610fde57604080515f808252602082015282915f516020615dac5f395f51905f5291a2610fc581615a49565b610fce81615b29565b15610fd557005b610d9c9061558b565b610d9c90615624565b600314610ff057005b815460ff60e01b1916600160e21b17909155805460ff60601b1916815561101f9063ffffffff6108bf42614c72565b5f516020615dec5f395f51905f525f80a2005b50505f60068214610ce6565b63489e8c8960e01b5f5260045ffd5b50335f9081525f516020615e8c5f395f51905f52602052604090205460ff1615610c97565b346105975761108036614969565b915f52600960205260405f209060018060a01b03165f5260205260405f209060018060a01b03165f526020526110cf6110bb60405f206148a5565b604051918291602083526020830190614945565b0390f35b3461059757604036600319011261059757610d9c6004356110f261479d565b906111046110ff82614bf6565b6154cd565b615507565b346105975761111736614a03565b5f83815260036020526040908190205492939233911c6001600160a01b031614158061118f575b610c2c5761114a614fbb565b815f52600360205260ff60405f205460e01c166007811015610574578015908115611184575b5061058857610d9c92610dc8913691614ca1565b600691501484611170565b50335f9081525f516020615e8c5f395f51905f52602052604090205460ff161561113e565b34610597576040366003190112610597576111cd61479d565b6004355f908152600a602090815260408083206001600160a01b039485168452825291829020549151919092168152f35b34610597576020366003190112610597576004355f52601160205260405f2080549061122982614c08565b916112376040519384614882565b8083526020830180925f5260205f205f915b8383106112e157848660405191829160208301906020845251809152604083019060408160051b85010192915f905b82821061128757505050500390f35b919360019193955060208091603f1989820301855287519060406112b48351606084526060840190614945565b9263ffffffff85820151168584015281878060a01b03910151169101529601920192018594939192611278565b600260206001926040516112f481614867565b6112fd866148a5565b81528486015463ffffffff811684830152858060a01b0390841c166040820152815201920192019190611249565b3461059757611339366147c9565b611341614e96565b61134a82614eb4565b825f52600560205260405f2060018060a01b0382165f5260205260ff60405f2054161561052d5761137b9083614f3a565b1561051e57815f52600360205263ffffffff600160405f20015460381c1615158061151c575b610ad9576113ad614fbb565b6113b682614eb4565b90825f52600360205260405f209160ff835460e01c16600781101561057457600503610588576113e68185614f7f565b61150d576114f560017f3cf64897479c2ba314a5a0e8cf3a0e097d9367de65da54961e4dc414836499009460405161141d81614867565b85815260208101905f825261147284604083019263ffffffff421684528b5f52600c60205260405f20828060a01b038a165f5260205260405f20905181550192511515839060ff801983541691151516179055565b5164ffffffff0082549160081b169064ffffffff001916179055865f52600660205260405f20828060a01b0385165f5260205260036114c360ff60405f205416895f52600460205260405f206147df565b500163ffffffff600881835416171663ffffffff19825416179055016114ef60ff825460681c16614a82565b90614b82565b61150460405192839283614c1f565b0390a260015f55005b6317fd8aab60e31b5f5260045ffd5b50815f52600360205263ffffffff600160405f20015460381c1642116113a1565b34610597576060366003190112610597576004356024356001600160401b03811161059757611570903690600401614a36565b6044356001600160401b0381116105975761158f903690600401614a36565b9092611599614e96565b6115a285614eb4565b855f52600560205260405f2060018060a01b0382165f5260205260ff60405f2054161561052d576115d39086614f3a565b1561051e57845f52600360205263ffffffff600160405f20015460381c161515806118eb575b610ad957611605614fbb565b61160e85614eb4565b93855f52600360205260405f2060ff815460e01c16600781101561057457600203610588578385036118dc5760328511610abb57865f52600660205260405f2060018060a01b0387165f526020526020600361167b60ff60405f2054168a5f526004845260405f206147df565b500154166118cd5793946001600160a01b0316935f5b868110156117f7576001600160a01b03600582901b858101359182169182900361059757895f52600560205260405f20825f5260205260ff60405f2054161561052d578782146117e857868310156117d4576116ef90850185614d97565b90918a5f52600960205260405f20895f5260205260405f20905f5260205260405f209160018060401b0382116109fb576117338261172d85546147f8565b85614cfc565b5f90601f831160011461176c5791806117589260019695945f92611761575050614d3f565b90555b01611691565b013590508d8061096d565b601f19831691845f5260205f20925f5b8181106117bc5750916001969594929183889593106117a3575b505050811b01905561175b565b01355f19600384901b60f8161c191690558c8080611796565b9193602060018192878701358155019501920161177c565b634e487b7160e01b5f52603260045260245ffd5b637f043f9b60e01b5f5260045ffd5b878260ff88835f52600660205260405f20815f52602052600361182b8360405f205416865f52600460205260405f206147df565b500163ffffffff602081835416171663ffffffff19825416179055837f9204f1001d8059e799b3a233fa5114eab3b5d30762de3ff4e07fcd7e6266aad16020600186019361188761188187875460781c16614a82565b86614bbc565b604051908152a25460781c16905460f81c146118a35760015f55005b7ff6b9b3035e320bcce495d00c2d31a7bd341754f7b9919a4a736388e16ef674a55f80a280610902565b6387db46a560e01b5f5260045ffd5b634ec4810560e11b5f5260045ffd5b50845f52600360205263ffffffff600160405f20015460381c1642116115f9565b34610597576020366003190112610597576001600160a01b0361192d6147b3565b165f526014602052608060405f2060ff60018254920154166040519160018060a01b038116835263ffffffff8160a01c16602084015260c01c604083015215156060820152f35b346105975761198236614a03565b61198d929192614e96565b61199682614eb4565b825f52600560205260405f2060018060a01b0382165f5260205260ff60405f2054161561052d576119c79083614f3a565b1561051e576119d4614fbb565b6119dd82614eb4565b92825f52600360205260ff60405f205460e01c1660078110156105745760050361058857825f52600f60205260405f2060018060a01b0385165f5260205260ff60405f205416600581101561057457600103610565576104008211610abb57825f52601160205260405f209060405194611a5686614867565b611a61368584614ca1565b86524263ffffffff16602087019081526001600160a01b0390911660408701818152845491949091600160401b8110156109fb57611aa4916001820181556149b0565b979097611bfa575180519097906001600160401b0381116109fb57611ad381611acd84546147f8565b84614cfc565b6020601f8211600114611b7a57600161150496959493611b128463ffffffff9586955f516020615d8c5f395f51905f529e9f5f92611b6f575050614d3f565b81555b9451940180549351600160201b600160c01b03199290951692909216166001600160c01b031990921691909117602092831b600160201b600160c01b03161790556040805194855290840181905292938493840191614c81565b015190508f8061096d565b601f19821699835f52815f209a5f5b818110611be25750936001845f516020615d8c5f395f51905f529c9d63ffffffff9695839588976115049d9c9b9a10611bca575b505050811b018155611b15565b01515f1960f88460031b161c191690558e8080611bbd565b838301518d556001909c019b60209384019301611b89565b634e487b7160e01b5f525f60045260245ffd5b34610597576020366003190112610597576004355f5260126020526110cf60405f2054604051918160ff849360a81c169060ff8160a01c169060018060a01b0316846001600160a01b03909116815260ff9091166020820152901515604082015260600190565b34610597575f36600319011261059757602060405160328152f35b34610597576060366003190112610597576004356024356005811015610597576044356001600160401b03811161059757611cce9036906004016149c9565b611cd9929192614e96565b611ce284614eb4565b845f52600560205260405f2060018060a01b0382165f5260205260ff60405f2054161561052d57611d139085614f3a565b1561051e57611d20614fbb565b611d2984614eb4565b92845f52600f60205260405f2060018060a01b0385165f5260205260ff60405f205416600581101561057457611e2a57611d85610776916040519283916020830195611d758789614a66565b6040808501526060840191614c81565b519020835f52601060205260405f2060018060a01b0384165f5260205260405f205403611e1b577f9b013793e3fbc06d6ff5e9b6ce06be7c635e957579a85ae6b262b85b13ecd87491611e14604092855f52600f602052835f2060018060a01b0384165f52602052835f2060ff1981541660ff831617905583519260018060a01b031683526020830190614a66565ba260015f55005b63134fed2d60e01b5f5260045ffd5b63fd8fd76760e01b5f5260045ffd5b3461059757602036600319011261059757600435611e55614e96565b611e5e81614eb4565b815f52600560205260405f2060018060a01b0382165f5260205260ff60405f2054161561052d57611e8f9082614f3a565b1561051e57611e9c614fbb565b611ea581614eb4565b815f52600360205260ff60405f205460e01c1660078110156105745760050361058857815f52600f60205260405f209060018060a01b03165f5260205260ff60405f205416600581101561057457600103610565575f818152601260205260409020546001600160a01b031615611f9457805f52601260205260ff60405f205460a81c1661053c575f8181526012602052604090819020805460ff60a81b198116600160a81b179182905591517f3a221f8f57527a5e478c3342a79d6f28759c86a8b24bdaec8f00b30c4b8b52a892909182916115049160a01c60ff161515906001600160a01b031683614c57565b636305cdb960e01b5f5260045ffd5b34610597575f3660031901126105975760206040515f8152f35b3461059757611fcb366147c9565b905f52600860205260405f208054821015610597576110cf916110bb915f5260205f20016148a5565b3461059757602036600319011261059757335f908152601560205260409020546001600160a01b031660043581156122cf575b90815f52600460205260405f20905f905f918354925b8360ff82161061223f575060ff169261205584614d51565b9461205f85614c08565b9461206d6040519687614882565b80865261207c601f1991614c08565b015f5b81811061222c5750505f915f5b8560ff821610612142578688604051918291604083016040845281518091526020606085019201905f5b818110612120575050508281036020840152815180825260208201916020808360051b8301019401925f915b8383106120ef5786860387f35b91939550919360208061210e600193601f198682030187528951614945565b970193019301909286959492936120e2565b82516001600160a01b03168452869550602093840193909201916001016120b6565b8761214d82846147df565b50546001600160a01b03908116908716811415806121ed575b61217b575b505061217690614a82565b61208c565b946121dd6121e39287612176959861219760ff86168094614d83565b525f8881526009602090815260408083206001600160a01b0394851684528252808320938d168352929052206121cc906148a5565b6121d6828d614d83565b528a614d83565b50614a82565b939050878961216b565b505f8581526009602090815260408083206001600160a01b038581168552908352818420908b168452909152902054612225906147f8565b1515612166565b606060208289018101919091520161207f565b61224b818697966147df565b50546001600160a01b038481169116908114159081612291575b5061227c575b61227490614a82565b94939461203d565b9061228961227491614a82565b91905061226b565b5f8781526009602090815260408083206001600160a01b0394851684528252808320938816835292905220546122c791506147f8565b151587612265565b339150612027565b34610597576040366003190112610597576122f061479d565b6004355f52600260205260405f209060018060a01b03165f52602052602060ff60405f2054166040519015158152f35b346105975760403660031901126105975761233961479d565b6004355f52601060205260405f209060018060a01b03165f52602052602060405f2054604051908152f35b34610597575f3660031901126105975761237c615471565b612384614fbb565b600160ff19815416176001557f62e78cea01bee320cd4e420270b5ea74000d11b0c9f74754ebdbfc544b05a2586020604051338152a1337f7c83004a7e59a8ea03b200186c4dda29a4e144d9844d63dbc1a09acf7dfcd4855f80a2005b34610597576040366003190112610597576123fa61479d565b6004355f52600660205260405f209060018060a01b03165f52602052602060ff60405f205416604051908152f35b34610597575f36600319011261059757602060405161012c8152f35b34610597575f3660031901126105975760206040515f516020615ecc5f395f51905f528152f35b34610597576080366003190112610597576004356024356001600160401b0381116105975761249e9036906004016149c9565b906044356001600160401b038111610597576124be9036906004016149c9565b6064356001600160a01b03811694929190859003610597576124de614e96565b6124e6614fbb565b855f52600360205260405f2091825460ff8160e01c166007811015610574576105885760ff808260e81c169160f01c161015612a52575f87815260056020908152604080832033845290915290205460ff16612a445760208411612a355760808211612a2657865f52600460205260ff60405f20541691875f52600460205260405f20906125976040519361257a8561484c565b33855261258836898b614ca1565b92602086019384523691614ca1565b90604084019182526060840192600284528054600160401b8110156109fb576125c5916001820181556147df565b949094611bfa575184546001600160a01b0319166001600160a01b039190911617845551805160018501916001600160401b0382116109fb5761260c8261172d85546147f8565b602090601f83116001146129c35761262d92915f91836129b8575050614d3f565b90555b51805160028401916001600160401b0382116109fb576126548261172d85546147f8565b602090601f8311600114612945579363ffffffff9361268684600395879561271b9c9b9a995f9261293a575050614d3f565b90555b51169201911663ffffffff19825416179055865f52600560205260405f2060018060a01b0333165f5260205260405f20600160ff19825416179055865f52600660205260405f2060018060a01b0333165f5260205260ff60405f20911660ff1982541617905561270861270260ff835460f01c16614a82565b82614aca565b612715815460f81c614a82565b90614ae7565b82158015612760575b505f516020615dcc5f395f51905f5292612751604051938493338552606060208601526060850191614c81565b9060408301520390a260015f55005b6117e857825f52601660205260ff60405f20541661292b575f838152601560205260409020546001600160a01b031661292b57335f52601460205260ff600160405f200154166128e5575b6138404201928342116128d1578063ffffffff5f516020615dcc5f395f51905f5295166128646040516127dd8161484c565b83815260208082018481526001600160401b038b166040808501918252600160608601818152335f90815260149096529190942094519251915160a09290921b63ffffffff60a01b166001600160a01b039093169290921760c09190911b6001600160c01b031916178355519101805460ff9215159290921660ff19909216919091179055565b5f82815260156020908152604080832080546001600160a01b031916339081179091556016835292819020805460ff1916600117905580518a81529182019390935290917f290e52799b1ac63207e28c21f7f1f387cf8ea9257dde8e363a02e157d8e4c65891a392612724565b634e487b7160e01b5f52601160045260245ffd5b335f908152601460209081526040808320546001600160a01b031683526015825280832080546001600160a01b031916905560169091529020805460ff191690556127ab565b631fef749360e21b5f5260045ffd5b015190505f8061096d565b90601f19831691845f52815f20925f5b8181106129a057508463ffffffff96929461271b9b9a999894889660039860019510612989575b505050811b019055612689565b01515f1983891b60f8161c191690558f808061297c565b92936020600181928786015181550195019301612955565b015190508d8061096d565b90601f19831691845f52815f20925f5b818110612a0e57509084600195949392106129f6575b505050811b019055612630565b01515f1960f88460031b161c191690558c80806129e9565b929360206001819287860151815501950193016129d3565b63450bc0a760e01b5f5260045ffd5b636f6003c360e01b5f5260045ffd5b621d934160e11b5f5260045ffd5b63bc42480360e01b5f5260045ffd5b34610597576020366003190112610597575f6101c0604051612a8281614830565b8281528260208201528260408201528260608201528260808201528260a08201528260c08201528260e08201528261010082015282610120820152826101408201528261016082015282610180820152826101a082015201526004355f52600360205260405f2060405190612af682614830565b80546001600160401b0381168352604081811c6001600160a01b031660208501908152939192908201919060e084901c60ff16600781101561057457835260608201908460e81c60ff16825260808301908560f01c60ff16825260a084019560f81c8652600101549460c0840161ffff8716815260e085018760101c60ff1681526101008601918860181c63ffffffff1683526101208701938960381c63ffffffff1685526101408801958a60581c60ff1687526101608901978b60601c60ff1689526101808a01998c60681c60ff168b526101a081019b8d60701c60ff168d526101c08201809e60781c60ff1690526040519e8f92600160401b600190039051168352600160a01b6001900390511660208301525190604001612c19916149a3565b5160ff1660608d01525160ff1660808c01525160ff1660a08b01525161ffff1660c08a01525160ff1660e08901525163ffffffff166101008801525163ffffffff166101208701525160ff166101408601525160ff166101608501525160ff166101808401525160ff166101a08301525160ff166101c08201526101e090f35b34610597575f3660031901126105975760206040515f516020615e2c5f395f51905f528152f35b3461059757604036600319011261059757612cd961479d565b6004355f52600d60205260405f209060018060a01b03165f52602052602060ff60405f205416610b5560405180926149f6565b3461059757604036600319011261059757612d2561479d565b6004355f52600560205260405f209060018060a01b03165f52602052602060ff60405f2054166040519015158152f35b3461059757608036600319011261059757600435602435600481101561059757604435906001600160a01b038216808303610597576064356001600160401b03811161059757612da99036906004016149c9565b612db4929192614e96565b612dbd86614eb4565b865f52600560205260405f2060018060a01b0382165f5260205260ff60405f2054161561052d57612dee9087614f3a565b1561051e57855f52600360205263ffffffff600160405f20015460381c161515806130bc575b610ad957612e20614fbb565b612e2986614eb4565b92865f52600360205260405f209560ff875460e01c1660078110156105745760050361058857875f52600660205260405f2060018060a01b0386165f5260205260106003612e8960ff60405f2054168b5f52600460205260405f206147df565b500154166130ad57612e9b8589614f7f565b1561150d57851515806130a4575b613070575b50612ee1610776916040519283916020830195612ecb878b6149f6565b8760408501526060808501526080840191614c81565b519020855f52600c60205260405f2060018060a01b0384165f5260205260405f205403610aca57606085927fefeac4ab688c036b72571c6adaf81feb0d4e0a7099c1cfd8d09e54370198c53c92613036600160ff98875f52600c60205260405f20828060a01b0386165f526020528160405f2001828b19825416179055875f52600d60205260405f20828060a01b0386165f5260205260405f208a198154168b8b16179055875f52600e60205260405f20828060a01b0386165f5260205260405f2084838060a01b0319825416179055875f52600660205260405f20828060a01b0386165f526020526003612fe78b60405f2054168a5f52600460205260405f206147df565b500163ffffffff601081835416171663ffffffff19825416179055019661301c6130168a8a5460701c16614a82565b89614b9f565b6040516001600160a01b03909416845260208401906149f6565b6040820152a254818160681c1691829160701c16149081613066575b5061305d5760015f55005b61091190615624565b9050151582613052565b875f52600560205260405f20845f5260205260ff60405f2054161561052d576130999088614f3a565b1561051e5787612eae565b50831515612ea9565b63a89ac15160e01b5f5260045ffd5b50855f52600360205263ffffffff600160405f20015460381c164211612e14565b34610597576040366003190112610597576130f661479d565b6004355f52600b60205260405f209060018060a01b03165f52602052602060ff60405f205416604051908152f35b34610597575f36600319011261059757602060405160788152f35b346105975760403660031901126105975760c0600361319560043561316261479d565b815f52600660205260405f209060018060a01b03165f5260205260ff60405f205416905f52600460205260405f206147df565b50015460206040519160028116151583526001811615158284015260048116151560408401526008811615156060840152601081161515608084015216151560a0820152f35b34610597575f36600319011261059757602060ff600154166040519015158152f35b346105975760403660031901126105975761321661479d565b6004355f52600760205260405f209060018060a01b03165f526020526040805f2060ff6002825492015416825191825215156020820152f35b346105975760203660031901126105975760043561326b614e96565b61327481614eb4565b815f52600560205260405f2060018060a01b0382165f5260205260ff60405f2054161561052d576132a59082614f3a565b1561051e57805f52600360205263ffffffff600160405f20015460381c16151580613436575b610ad9576132d7614fbb565b6132e081614eb4565b815f52600360205260405f209060ff825460e01c1660078110156105745760020361058857825f52600660205260405f2060018060a01b0382165f526020526001600361333f60ff60405f205416865f52600460205260405f206147df565b500154166130ad5760ff90835f52600660205260405f2060018060a01b0382165f5260205260036133818360405f205416865f52600460205260405f206147df565b500163ffffffff600181835416171663ffffffff19825416179055837f82b52ddf0195aa8ac16480985f5042052aa742563721520fa34764d253824d43602060018601936133dd6133d787875460581c16614a82565b86614b65565b6040516001600160a01b039091168152a25460581c16905460f81c146134035760015f55005b61340c8161558b565b7f54ccd98022ba3fd547cb241a4f3dfc13e7f9bb54550b7babf4080021c6c2f1265f80a280610902565b50805f52600360205263ffffffff600160405f20015460381c1642116132cb565b34610597576020366003190112610597576001600160a01b036134786147b3565b165f526015602052602060018060a01b0360405f205416604051908152f35b34610597575f36600319011261059757335f52601460205260405f20600181019060ff8254166134c357005b80546001600160a01b031680337f744157ccffbd293a2e8644928cd7d23d650f869b88f72d7bfea8041b76ca6bec5f80a35f90815260156020908152604080832080546001600160a01b031916905592546001600160a01b031682526016905220805460ff199081169091558154169055005b34610597576020366003190112610597576004355f52600460205260405f2080549061356182614c08565b9161356f6040519384614882565b8083526020830180925f5260205f205f915b83831061362d57848660405191829160208301906020845251809152604083019060408160051b85010192915f905b8282106135bf57505050500390f35b919360019193955060208091603f19898203018552875190848060a01b038251168152606063ffffffff81613616613604878701516080898801526080870190614945565b60408701518682036040880152614945565b9401511691015296019201920185949391926135b0565b600460206001926040516136408161484c565b848060a01b0386541681526136568587016148a5565b83820152613666600287016148a5565b604082015263ffffffff6003870154166060820152815201920192019190613581565b3461059757613697366147c9565b61369f614e96565b6136a882614eb4565b825f52600560205260405f2060018060a01b0382165f5260205260ff60405f2054161561052d576136d99083614f3a565b1561051e57815f52600360205263ffffffff600160405f20015460381c1615158061386a575b610ad95761370b614fbb565b61371482614eb4565b90825f52600360205260405f2060ff815460e01c166007811015610574576001036105885761375a90845f52600460205260ff600160405f2092015460101c16906147df565b50546001600160a01b039081169083160361385b57825f52600660205260405f2060018060a01b0383165f52602052604060036137a760ff835f205416865f526004602052835f206147df565b5001541661150d575f8381526007602090815260408083206001600160a01b038616808552908352818420858155600201805460ff191690558684526006835281842090845282528083205486845260049092529091207ffbabe9c4a6257c269f37e649a08003e579b119fcff47ac57e59d1502fccea41c93916003916138319160ff16906147df565b500163ffffffff604081835416171663ffffffff1982541617905561150460405192839283614c1f565b631cc191eb60e31b5f5260045ffd5b50815f52600360205263ffffffff600160405f20015460381c1642116136ff565b34610597575f366003190112610597576138a3615471565b60015460ff8116156139075760ff19166001557f5db9ee0a495bf2e6ff9c91a7834c1ba4fdd244a5e8aa4e537bd38aeae4b073aa6020604051338152a1337f306ca22c455fe433ebbf0542bbf947ea6a725495f9e1043db2a47e3c579403855f80a2005b638dfc202b60e01b5f5260045ffd5b34610597576020366003190112610597576001600160a01b036139376147b3565b165f526016602052602060ff60405f2054166040519015158152f35b34610597575f3660031901126105975760206040516138408152f35b346105975760203660031901126105975760043561398b614e96565b61399481614eb4565b815f52600560205260405f2060018060a01b0382165f5260205260ff60405f2054161561052d576139c59082614f3a565b1561051e576139d2614fbb565b805f52600360205260405f2060ff815460e01c1660078110156105745760030361058857805460ff60e01b1916600160e21b178155600101805460ff60601b19168155613a279063ffffffff6108bf42614c72565b805f52600460205260405f205f5b815460ff82161015613afc5780613a4f613ac892846147df565b50546001600160a01b03166003613a6683866147df565b5001805463fffffffb811663ffffffff199091161790555f858152600a602090815260408083206001600160a01b0385168452909152902080546001600160a01b031916905560026003613aba84876147df565b50015416613acd5750614a82565b613a35565b5f858152600b602090815260408083206001600160a01b03909416835292905220805460ff19169055846121dd565b825f516020615dec5f395f51905f525f80a260015f55005b3461059757604036600319011261059757600435602435801515810361059757613b3c614e96565b613b4582614eb4565b825f52600560205260405f2060018060a01b0382165f5260205260ff60405f2054161561052d57613b769083614f3a565b1561051e57613b83614fbb565b613b8c82614eb4565b90825f52600360205260ff60405f205460e01c1660078110156105745760050361058857825f52600f60205260405f2060018060a01b0383165f5260205260ff60405f205416600581101561057457600103610565575f838152601260205260409020546001600160a01b031615611f9457825f52601260205260ff60405f205460a81c1661053c57825f52601360205260405f2060018060a01b0383165f5260205260ff60405f205416613cb2575f516020615e4c5f395f51905f529181613c88575b835f52601360205260405f2060018060a01b0382165f5260205260405f20600160ff1982541617905561150460405192839283614c57565b835f526012602052613cad60405f20613ca760ff825460a01c16614a82565b90614c3a565b613c50565b63ae8a39df60e01b5f5260045ffd5b3461059757613ccf366147c9565b613cd7614e96565b613ce082614eb4565b825f52600560205260405f2060018060a01b0382165f5260205260ff60405f2054161561052d57613d119083614f3a565b1561051e57613d1e614fbb565b613d2782614eb4565b90825f52600360205260ff60405f205460e01c1660078110156105745760020361058857825f52601060205260405f2060018060a01b0383165f5260205260405f2054613dbf577ff33c1bd762b898b33040e70f49cf90ff496cf7366f6fafa9d961b0de89b7244b91835f52601060205260405f2060018060a01b0382165f526020528160405f205561150460405192839283614c1f565b630890382360e21b5f5260045ffd5b3461059757604036600319011261059757613de761479d565b336001600160a01b03821603613e0357610d9c90600435615507565b63334bd91960e11b5f5260045ffd5b3461059757613e20366147c9565b905f52601160205260405f20805482101561059757613e6591613e42916149b0565b506001613e4e826148a5565b910154604051928392606084526060840190614945565b9063ffffffff8116602084015260018060a01b039060201c1660408301520390f35b3461059757604036600319011261059757610d9c600435613ea661479d565b90613eb36110ff82614bf6565b6153f8565b34610597576020366003190112610597576004355f52600860205260405f20805490613ee382614c08565b91613ef16040519384614882565b8083526020830180925f5260205f205f915b838310613f7057848660405191829160208301906020845251809152604083019060408160051b85010192915f905b828210613f4157505050500390f35b91936001919395506020613f608192603f198a82030186528851614945565b9601920192018594939192613f32565b600160208192613f7f856148a5565b815201920192019190613f03565b34610597576020366003190112610597576020613fab600435614bf6565b604051908152f35b3461059757604036600319011261059757613fcc61479d565b6004355f52601360205260405f209060018060a01b03165f52602052602060ff60405f2054166040519015158152f35b34610597576020366003190112610597576004355f5260036020526101e060405f2060ff600182549201546040519260018060401b038116845260018060a01b038160401c16602085015261405960408501848360e01c166149a3565b828160e81c166060850152828160f01c16608085015260f81c60a084015261ffff811660c0840152818160101c1660e084015263ffffffff8160181c1661010084015263ffffffff8160381c16610120840152818160581c16610140840152818160601c16610160840152818160681c16610180840152818160701c166101a084015260781c166101c0820152f35b34610597576020366003190112610597576004355f526003602052602063ffffffff600160405f20015460381c16604051908152f35b346105975760203660031901126105975760043560ff811680820361059757614145614fbb565b601754915f1983146128d157600791600184016017555f80856040519361416b85614830565b60018060401b038216855260208501903382526040860190848252606087019081526080870185815260a0880186815260c0890198878a5260e081019188835261010082019363ffffffff421685526101208301958a87526101408401978b89526101608501998c8b5261018086019b8d8d526101a087019d8e526101c087019e8f525f52600360205260405f209560018060401b03905116865491600160401b600160e01b03905160401b169163ffffffff60e01b1617178555519e8f1015610574578354905161ffff60e01b1990911660e09f909f1b60ff60e01b169e909e1760e89e909e1b60ff60e81b169d909d1782559b518d9c906142719060ff1683614aca565b5160ff1661427f9082614ae7565b600101985161ffff1661ffff1661ffff198a54161789555160ff166142a49089614b0a565b5163ffffffff166142b59088614b22565b5163ffffffff166142c69087614b42565b5160ff166142d49086614b65565b5160ff166142e29085614a93565b5160ff166142f09084614b82565b5160ff166142fe9083614b9f565b5160ff1661430b91614bbc565b61431433615373565b50604051809133906143269183614bd9565b037fac131287fe8417903d89f4eb472bc1d0da81641ef725569346dab6c2879a671791a2604051908152602090f35b34610597575f36600319011261059757602060405160b48152f35b346105975761437e366147c9565b905f52600460205260405f209081548110156105975761439d916147df565b5080546001600160a01b03166143b5600183016148a5565b916143fb63ffffffff60036143cc600285016148a5565b93015416916143ed6040519586958652608060208701526080860190614945565b908482036040860152614945565b9060608301520390f35b34610597575f366003190112610597576020601754604051908152f35b346105975760403660031901126105975760043561443e61479d565b614446614e96565b61444f82614eb4565b825f52600560205260405f2060018060a01b0382165f5260205260ff60405f2054161561052d576144809083614f3a565b1561051e57815f52600360205263ffffffff600160405f20015460381c16151580614729575b610ad9576144b2614fbb565b6144bb82614eb4565b90825f52600360205260405f209160ff835460e01c1660078110156105745760040361058857835f52600560205260405f2060018060a01b0383165f5260205260ff60405f2054161561052d576145128285614f3a565b1561051e5783917fcfff1651bcea794952a516ce970ab17518a85210bd939aaeaac670a8d3e65ec791835f52600660205260405f2060018060a01b0382165f526020526004600361457460ff60405f205416875f528360205260405f206147df565b5001545f868152600a602090815260408083206001600160a01b03878116855292529091205492909116159116801515806146ff575b6146c3575b505f858152600a602090815260408083206001600160a01b03868116855290835281842080546001600160a01b0319169188169182179055888452600b83528184209084529091529020805460ff90614609908216614a82565b1660ff1982541617905561464e575b61462760405192839283614ab0565b0390a260ff600182015460601c16905460f81c146146455760015f55005b61091190614fd6565b835f52600660205260405f2060018060a01b0382165f52602052600361468660ff60405f205416865f52600460205260405f206147df565b500163ffffffff600481835416171663ffffffff198254161790556146be600186016146b860ff825460601c16614a82565b90614a93565b614618565b855f52600b60205260405f209060018060a01b03165f5260205260405f2060ff6146ef81835416614a73565b1660ff19825416179055876145af565b50855f52600b60205260405f2060018060a01b0382165f5260205260ff60405f20541615156145aa565b50815f52600360205263ffffffff600160405f20015460381c1642116144a6565b34610597576020366003190112610597576004359063ffffffff60e01b821680920361059757602091637965db0b60e01b811490811561478c575b5015158152f35b6301ffc9a760e01b14905083614785565b602435906001600160a01b038216820361059757565b600435906001600160a01b038216820361059757565b6040906003190112610597576004359060243590565b80548210156117d4575f5260205f209060021b01905f90565b90600182811c92168015614826575b602083101461481257565b634e487b7160e01b5f52602260045260245ffd5b91607f1691614807565b6101e081019081106001600160401b038211176109fb57604052565b608081019081106001600160401b038211176109fb57604052565b606081019081106001600160401b038211176109fb57604052565b601f909101601f19168101906001600160401b038211908210176109fb57604052565b9060405191825f8254926148b8846147f8565b808452936001811690811561492357506001146148df575b506148dd92500383614882565b565b90505f9291925260205f20905f915b8183106149075750509060206148dd928201015f6148d0565b60209193508060019154838589010152019101909184926148ee565b9050602092506148dd94915060ff191682840152151560051b8201015f6148d0565b805180835260209291819084018484015e5f828201840152601f01601f1916010190565b606090600319011261059757600435906024356001600160a01b038116810361059757906044356001600160a01b03811681036105975790565b9060078210156105745752565b80548210156117d4575f5260205f209060011b01905f90565b9181601f84011215610597578235916001600160401b038311610597576020838186019501011161059757565b9060048210156105745752565b9060406003198301126105975760043591602435906001600160401b03821161059757614a32916004016149c9565b9091565b9181601f84011215610597578235916001600160401b038311610597576020808501948460051b01011161059757565b9060058210156105745752565b60ff1680156128d1575f190190565b60ff1660ff81146128d15760010190565b805460ff60601b191660609290921b60ff60601b16919091179055565b6001600160a01b0391821681529116602082015260400190565b805460ff60f01b191660f09290921b60ff60f01b16919091179055565b80546001600160f81b031660f89290921b6001600160f81b031916919091179055565b9062ff000082549160101b169062ff00001916179055565b9066ffffffff00000082549160181b169066ffffffff0000001916179055565b805463ffffffff60381b191660389290921b63ffffffff60381b16919091179055565b805460ff60581b191660589290921b60ff60581b16919091179055565b805460ff60681b191660689290921b60ff60681b16919091179055565b805460ff60701b191660709290921b60ff60701b16919091179055565b805460ff60781b191660789290921b60ff60781b16919091179055565b6001600160a01b03909116815260ff909116602082015260400190565b5f526002602052600160405f20015490565b6001600160401b0381116109fb5760051b60200190565b6001600160a01b039091168152602081019190915260400190565b805460ff60a01b191660a09290921b60ff60a01b16919091179055565b6001600160a01b039091168152901515602082015260400190565b9061012c82018092116128d157565b908060209392818452848401375f828201840152601f01601f1916010190565b9192916001600160401b0382116109fb5760405191614cca601f8201601f191660200184614882565b829481845281830111610597578281602093845f960137010152565b818110614cf1575050565b5f8155600101614ce6565b9190601f8111614d0b57505050565b6148dd925f5260205f20906020601f840160051c83019310614d35575b601f0160051c0190614ce6565b9091508190614d28565b8160011b915f199060031b1c19161790565b90614d5b82614c08565b614d686040519182614882565b8281528092614d79601f1991614c08565b0190602036910137565b80518210156117d45760209160051b010190565b903590601e198136030182121561059757018035906001600160401b0382116105975760200191813603831361059757565b60405190614dd8604083614882565b6019825278546f6f2066657720706c61796572732072656d61696e696e6760381b6020830152565b90602083828152019060208160051b85010193835f915b838310614e275750505050505090565b909192939495601f198282030186528635601e1984360301811215610597578301602081019190356001600160401b03811161059757803603831361059757614e766020928392600195614c81565b980196019493019190614e17565b60ff60019116019060ff82116128d157565b60025f5414614ea55760025f55565b633ee5aeb560e01b5f5260045ffd5b335f908152601560205260409020546001600160a01b03169081614ed85750503390565b815f52601460205260405f2060ff60018201541615614f2b575463ffffffff8160a01c164211614f1c5760c01c03614f0d5790565b637ce3c8fd60e11b5f5260045ffd5b630fe82d2560e11b5f5260045ffd5b635f8874dd60e11b5f5260045ffd5b614f76600391600293815f52600660205260405f209060018060a01b03165f5260205260ff60405f205416905f52600460205260405f206147df565b50015416151590565b614f76600391600893815f52600660205260405f209060018060a01b03165f5260205260ff60405f205416905f52600460205260405f206147df565b60ff60015416614fc757565b63d93c066560e01b5f5260045ffd5b90815f5260036020528160405f205f905f90835f52600460205260405f205f908054915b8260ff8216106152eb575050905460f91c60ff8316119050806152d9575b156152b657816150365f516020615e6c5f395f51905f529385615ce8565b835f516020615e0c5f395f51905f52608060405160018060a01b0385168152604060208201526009604082015268159bdd1959081bdd5d60ba1b6060820152a261508560405192839283614bd9565b0390a25b815f52600460205260405f20915f5b835460ff8216101561512c57806150b261512792866147df565b50545f848152600a602090815260408083206001600160a01b0390941680845293825280832080546001600160a01b0319169055868352600b825280832093835292905220805460ff19169055600361510b82876147df565b5001805463fffffffb811663ffffffff19909116179055614a82565b615098565b505f818152600360205260409020600101805460ff60601b1916905590915061515481615b29565b1561515c5750565b5f818152600360205260409020805460ff60e01b1916600560e01b178155600101805461ffff60681b1916815561519b9063ffffffff6108bf42614c72565b805f52600460205260405f205f5b815460ff8216101561528057806151c361527b92846147df565b50546001600160a01b031660036151da83866147df565b5001805463ffffffe7811663ffffffff199091161790555f858152600c602090815260408083206001600160a01b0394909416808452938252808320838155600101839055878352600d82528083208484528252808320805460ff19908116909155888452600e8352818420858552835281842080546001600160a01b03191690558884526013835281842094845293909152902080549091169055614a82565b6151a9565b5050805f5260126020525f60408120557f34b0c4c95aa7776d35dbd8b24afd53388828c61c26fd5a6b11a21809662440875f80a2565b50505f516020615e6c5f395f51905f52604080515f81525f6020820152a2615089565b506001600160a01b0382161515615018565b909192939495506002600361530083856147df565b5001541661531e575b61531290614a82565b90879594939291614ffa565b61532881836147df565b50545f898152600b602090815260408083206001600160a01b039094168084529390915290205460ff9081169087168111615365575b5050615309565b90965094506153125f61535e565b6001600160a01b0381165f9081525f516020615e8c5f395f51905f52602052604090205460ff166153f3576001600160a01b03165f8181525f516020615e8c5f395f51905f5260205260408120805460ff191660011790553391905f516020615e2c5f395f51905f52905f516020615d6c5f395f51905f529080a4600190565b505f90565b5f8181526002602090815260408083206001600160a01b038616845290915290205460ff1661546b575f8181526002602090815260408083206001600160a01b0395909516808452949091528120805460ff19166001179055339291905f516020615d6c5f395f51905f529080a4600190565b50505f90565b335f9081527fe5ebfa64fca8d502a8e50c1edffd2c31ef4dad5b396e65d9f397fb028f74abc5602052604090205460ff16156154a957565b63e2517d3f60e01b5f52336004525f516020615ecc5f395f51905f5260245260445ffd5b5f81815260026020908152604080832033845290915290205460ff16156154f15750565b63e2517d3f60e01b5f523360045260245260445ffd5b5f8181526002602090815260408083206001600160a01b038616845290915290205460ff161561546b575f8181526002602090815260408083206001600160a01b0395909516808452949091528120805460ff19169055339291907ff6391f5c32d9c69d2a47ea670b442974b53935d1edc7fd64eb21e047a839171b9080a4600190565b5f818152600360205260409020805460ff60e01b1916600360e01b178155600101805461ffff908116919082146128d15761ffff6020918160017fa9b4e96158ed085745975f198fa026959997245ae7e7aed9cd0252ce02b21071950116821982541617815561560163ffffffff421682614b22565b61561963ffffffff61561242614c72565b1682614b42565b5416604051908152a2565b90815f52600360205260405f2060ff600182015460681c16156159ad575460f81c9161564f83614d51565b9261565981614c08565b906156676040519283614882565b808252615676601f1991614c08565b013660208301375f935f945f925f855f52600460205260405f20905f918054925b8360ff8216106157db57505050506156b5607f5f9860011c16614e84565b60ff16905f5b60ff811660ff85168110156157cd578360ff6156d78386614d83565b511610156156eb575060010160ff166156bb565b9250505084959650615705915060018060a01b0392614d83565b51165b825f516020615dac5f395f51905f5260405180615726868683614ab0565b0390a26001600160a01b0381169182151590816157b9575b50615769575b505061574f90615a49565b61575881615b29565b156157605750565b6148dd9061558b565b5f516020615e0c5f395f51905f529161578460809285615ce8565b60405190815260406020820152600f60408201526e12da5b1b195908185d081b9a59da1d608a1b6060820152a2805f80615744565b6001600160a01b031683141590505f61573e565b505050505050819293615708565b6157e881839c969c6147df565b50545f8a8152600d602090815260408083206001600160a01b039094168084529390915290205460ff166004811015610574576001811461587e575b60021480615876575b615844575b5061583c90614a82565b999399615697565b5f8a8152600e602090815260408083206001600160a01b0394851684529091529020541697506001925061583c615832565b50831561582d565b96949b93979592919a909998895f52600e60205260405f2060018060a01b038c165f5260205260405f2060018060a01b03905416938415615997576158c290614a82565b5f9d5f5b60ff891660ff8216101561597f57866001600160a01b036158ea60ff84168d614d83565b5116146158fc5760010160ff166158c6565b879f5095868a9c9892999b949d9e959f969761593660ff61592e81979e976159278180961689614d83565b5116614a82565b931685614d83565b9116905260015b1561594b575b505050615824565b61596e615974938c936001936159686002989f60ff168094614d83565b52614d83565b52614a82565b979050888d5f615943565b509698919a9b929c939495889a96819f99929961593d565b9698949c9597509899509961583c919250614a82565b50604080515f808252602082015291929182915f516020615dac5f395f51905f5291a261574f81615a49565b5f81815260036020908152604091829020805460ff60e01b1916600360e11b178155600101805463ffffffff60381b19169055905181815291927fd778487128ba4386ebcfb2703af01f8a2a2b8663f880622d26a77a29397e68f392918291615a4491830190614945565b0390a2565b90815f52600460205260405f20915f5b835460ff82161015615b085780615a73615b0392866147df565b50545f848152600c602090815260408083206001600160a01b03909416808452938252808320838155600101839055868352600d82528083208484528252808320805460ff19169055868352600e82528083209383529290522080546001600160a01b03191690556003615ae782876147df565b5001805463ffffffe7811663ffffffff19909116179055614a82565b615a59565b505f908152600360205260409020600101805461ffff60681b191690559050565b805f52600360205260405f205460f81c906001821115615b495750505f90565b615b7691615b7b57604051615b5f604082614882565b60048152634472617760e01b6020820152906159d9565b600190565b604051615b89604082614882565b60148152734c61737420706c61796572207374616e64696e6760601b6020820152906159d9565b5f52600460205260405f2060ff815416905f5b8260ff821610615bd257505090565b60026003615be083856147df565b50015416615bf35760010160ff16615bc3565b91505090565b5f52600460205260405f2060ff815416915b8260ff821610615c1a57505090565b60026003615c2883856147df565b50015416615bf35760010160ff16615c0b565b5f818152600360205260409020805460ff60e01b1916600160e11b178155600101805464ff000000ff60581b19168155615c7d9063ffffffff6108bf42614c72565b5f52600460205260405f20905f5b825460ff82161015615ce3578060026003615ca9615cb694876147df565b50015416615cbb57614a82565b615c8b565b6003615cc782866147df565b5001805463ffffff9e811663ffffffff19909116179055614a82565b509050565b90615cf38183614f3a565b15615d6757815f52600660205260405f209060018060a01b03165f526020526003615d3060ff60405f205416835f52600460205260405f206147df565b500163ffffffff63fffffffd8254161663ffffffff198254161790555f5260036020526148dd60405f20612715815460f81c614a73565b505056fe2f8788117e7eff1d82e926ec794901d17c78024a50270940304540a733656f0da4a46989ff60ad96ec74df0f289e1e16b51c97fecb224f2e8e927103d5b54eaeb874a4c95be602274c8e6944d4d375ca4189eda377b69ee751f3b92dd4dcf2d83b7d84e02e9f6642b42e0ca3e77297f9c7c807832a60c0fc1926ade76abc7badcf33babc496bb6dc2942b39cb7b75766bbbadf7da50d176ff8c513e991140239b1ed64d561b0179e61c72bf46d0809a99dac99baeb98fc9f5d13be1f6c2e3f82ffea912cee438c2ace68bb665a205db5afc1aaf31713688b377348fe4bfc04f55f720f34b2e6d88d06653c9930cc7d8ba0b3f227bf66d7b275484e5aaa8ed86e6b571d1c11516ea63adff1048766bdfa510e9c5bf4e32ca29d4ba11e16edf2f152c0a50b3e0eb8697eb4427abb31566d6e8736466643db164c82e75d031572ff8ef7613b6eacaa71c74d950e2c093c23a0d3ecb066d1387d80e95159d07ed08ba49807205ce4d355092ef5a8a18f56e8913cf4a201fbe287825b095693c21775a2646970667358221220e955c2dc79f897fffa1081794deb2275cc7ad6a684949c5b90eff740aa6c5dda64736f6c634300081c00332f8788117e7eff1d82e926ec794901d17c78024a50270940304540a733656f0dac33ff75c19e70fe83507db0d683fd3465c996598dc972688b7ace676c89077be5ebfa64fca8d502a8e50c1edffd2c31ef4dad5b396e65d9f397fb028f74abc5",
  "linkReferences": {},
  "deployedLinkReferences": {},
  "immutableReferences": {},
  "inputSourceName": "project/contracts/MafiaPortalV4.sol",
  "buildInfoId": "solc-0_8_28-055a47a42e0e0d5f36687fc7a9038f18e0477deb"
}