{
  "_format": "hh3-artifact-1",
  "contractName": "MafiaPortalV4",
  "sourceName": "contracts/MafiaPortalV4.sol",
  "abi": [
    {
      "inputs": [],
      "stateMutability": "nonpayable",
      "type": "constructor"
    },
    {
      "inputs": [],
      "name": "AccessControlBadConfirmation",
      "type": "error"
    },
    {
      "inputs": [
        {
          "internalType": "address",
          "name": "account",
          "type": "address"
        },
        {
          "internalType": "bytes32",
          "name": "neededRole",
          "type": "bytes32"
        }
      ],
      "name": "AccessControlUnauthorizedAccount",
      "type": "error"
    },
    {
      "inputs": [],
      "name": "AlreadyCommitted",
      "type": "error"
    },
    {
      "inputs": [],
      "name": "AlreadyJoined",
      "type": "error"
    },
    {
      "inputs": [],
      "name": "AlreadyRevealed",
      "type": "error"
    },
    {
      "inputs": [],
      "name": "AlreadySharedKeys",
      "type": "error"
    },
    {
      "inputs": [],
      "name": "AlreadyVoted",
      "type": "error"
    },
    {
      "inputs": [],
      "name": "ArrayTooLarge",
      "type": "error"
    },
    {
      "inputs": [],
      "name": "CommitDeadlinePassed",
      "type": "error"
    },
    {
      "inputs": [],
      "name": "EnforcedPause",
      "type": "error"
    },
    {
      "inputs": [],
      "name": "ExpectedPause",
      "type": "error"
    },
    {
      "inputs": [],
      "name": "InvalidArrayLength",
      "type": "error"
    },
    {
      "inputs": [],
      "name": "InvalidDeckSize",
      "type": "error"
    },
    {
      "inputs": [],
      "name": "InvalidMafiaTargetReveal",
      "type": "error"
    },
    {
      "inputs": [],
      "name": "InvalidPlayerCount",
      "type": "error"
    },
    {
      "inputs": [],
      "name": "InvalidReveal",
      "type": "error"
    },
    {
      "inputs": [],
      "name": "InvalidRoleReveal",
      "type": "error"
    },
    {
      "inputs": [],
      "name": "InvalidSessionAddress",
      "type": "error"
    },
    {
      "inputs": [],
      "name": "InvalidSessionKey",
      "type": "error"
    },
    {
      "inputs": [],
      "name": "MafiaNotReady",
      "type": "error"
    },
    {
      "inputs": [],
      "name": "MafiaTargetAlreadyCommitted",
      "type": "error"
    },
    {
      "inputs": [],
      "name": "MafiaTargetAlreadyRevealed",
      "type": "error"
    },
    {
      "inputs": [],
      "name": "NicknameTooLong",
      "type": "error"
    },
    {
      "inputs": [],
      "name": "NoStalledPlayers",
      "type": "error"
    },
    {
      "inputs": [],
      "name": "NotAllRolesRevealed",
      "type": "error"
    },
    {
      "inputs": [],
      "name": "NotCommitted",
      "type": "error"
    },
    {
      "inputs": [],
      "name": "NotEnoughPlayers",
      "type": "error"
    },
    {
      "inputs": [],
      "name": "NotMafiaMember",
      "type": "error"
    },
    {
      "inputs": [],
      "name": "NotParticipant",
      "type": "error"
    },
    {
      "inputs": [],
      "name": "NotYourTurn",
      "type": "error"
    },
    {
      "inputs": [],
      "name": "PhaseDeadlinePassed",
      "type": "error"
    },
    {
      "inputs": [],
      "name": "PlayerInactive",
      "type": "error"
    },
    {
      "inputs": [],
      "name": "PublicKeyTooLong",
      "type": "error"
    },
    {
      "inputs": [],
      "name": "ReentrancyGuardReentrantCall",
      "type": "error"
    },
    {
      "inputs": [],
      "name": "RoleAlreadyCommitted",
      "type": "error"
    },
    {
      "inputs": [],
      "name": "RoleAlreadyRevealed",
      "type": "error"
    },
    {
      "inputs": [],
      "name": "RoleNotCommitted",
      "type": "error"
    },
    {
      "inputs": [],
      "name": "RoomFull",
      "type": "error"
    },
    {
      "inputs": [],
      "name": "SaltTooLong",
      "type": "error"
    },
    {
      "inputs": [],
      "name": "SessionAlreadyRegistered",
      "type": "error"
    },
    {
      "inputs": [],
      "name": "SessionExpired",
      "type": "error"
    },
    {
      "inputs": [],
      "name": "SessionNotForThisRoom",
      "type": "error"
    },
    {
      "inputs": [],
      "name": "TimeNotExpired",
      "type": "error"
    },
    {
      "inputs": [],
      "name": "Unauthorized",
      "type": "error"
    },
    {
      "inputs": [],
      "name": "WinConditionNotMet",
      "type": "error"
    },
    {
      "inputs": [],
      "name": "WrongPhase",
      "type": "error"
    },
    {
      "anonymous": false,
      "inputs": [
        {
          "indexed": true,
          "internalType": "uint256",
          "name": "roomId",
          "type": "uint256"
        }
      ],
      "name": "AllKeysShared",
      "type": "event"
    },
    {
      "anonymous": false,
      "inputs": [
        {
          "indexed": true,
          "internalType": "uint256",
          "name": "roomId",
          "type": "uint256"
        }
      ],
      "name": "AllMafiaCommitted",
      "type": "event"
    },
    {
      "anonymous": false,
      "inputs": [
        {
          "indexed": true,
          "internalType": "uint256",
          "name": "roomId",
          "type": "uint256"
        }
      ],
      "name": "AllRolesConfirmed",
      "type": "event"
    },
    {
      "anonymous": false,
      "inputs": [
        {
          "indexed": true,
          "internalType": "uint256",
          "name": "roomId",
          "type": "uint256"
        },
        {
          "indexed": false,
          "internalType": "uint256",
          "name": "dayNumber",
          "type": "uint256"
        }
      ],
      "name": "DayStarted",
      "type": "event"
    },
    {
      "anonymous": false,
      "inputs": [
        {
          "indexed": true,
          "internalType": "uint256",
          "name": "roomId",
          "type": "uint256"
        },
        {
          "indexed": false,
          "internalType": "address",
          "name": "player",
          "type": "address"
        },
        {
          "indexed": false,
          "internalType": "bytes32",
          "name": "commitHash",
          "type": "bytes32"
        }
      ],
      "name": "DeckCommitted",
      "type": "event"
    },
    {
      "anonymous": false,
      "inputs": [
        {
          "indexed": true,
          "internalType": "uint256",
          "name": "roomId",
          "type": "uint256"
        },
        {
          "indexed": false,
          "internalType": "address",
          "name": "player",
          "type": "address"
        },
        {
          "indexed": false,
          "internalType": "string[]",
          "name": "deck",
          "type": "string[]"
        }
      ],
      "name": "DeckRevealed",
      "type": "event"
    },
    {
      "anonymous": false,
      "inputs": [
        {
          "indexed": true,
          "internalType": "address",
          "name": "admin",
          "type": "address"
        }
      ],
      "name": "EmergencyPause",
      "type": "event"
    },
    {
      "anonymous": false,
      "inputs": [
        {
          "indexed": true,
          "internalType": "address",
          "name": "admin",
          "type": "address"
        }
      ],
      "name": "EmergencyUnpause",
      "type": "event"
    },
    {
      "anonymous": false,
      "inputs": [
        {
          "indexed": true,
          "internalType": "uint256",
          "name": "roomId",
          "type": "uint256"
        },
        {
          "indexed": false,
          "internalType": "string",
          "name": "winCondition",
          "type": "string"
        }
      ],
      "name": "GameEnded",
      "type": "event"
    },
    {
      "anonymous": false,
      "inputs": [
        {
          "indexed": true,
          "internalType": "uint256",
          "name": "roomId",
          "type": "uint256"
        }
      ],
      "name": "GameStarted",
      "type": "event"
    },
    {
      "anonymous": false,
      "inputs": [
        {
          "indexed": true,
          "internalType": "uint256",
          "name": "roomId",
          "type": "uint256"
        },
        {
          "indexed": false,
          "internalType": "address",
          "name": "from",
          "type": "address"
        }
      ],
      "name": "KeysSharedToAll",
      "type": "event"
    },
    {
      "anonymous": false,
      "inputs": [
        {
          "indexed": true,
          "internalType": "uint256",
          "name": "roomId",
          "type": "uint256"
        },
        {
          "indexed": false,
          "internalType": "address",
          "name": "cheater",
          "type": "address"
        },
        {
          "indexed": false,
          "internalType": "enum MafiaPortalV4.Role",
          "name": "actualRole",
          "type": "uint8"
        }
      ],
      "name": "MafiaCheaterPunished",
      "type": "event"
    },
    {
      "anonymous": false,
      "inputs": [
        {
          "indexed": true,
          "internalType": "uint256",
          "name": "roomId",
          "type": "uint256"
        },
        {
          "indexed": false,
          "internalType": "address",
          "name": "target",
          "type": "address"
        },
        {
          "indexed": false,
          "internalType": "bool",
          "name": "success",
          "type": "bool"
        }
      ],
      "name": "MafiaConsensusReached",
      "type": "event"
    },
    {
      "anonymous": false,
      "inputs": [
        {
          "indexed": true,
          "internalType": "uint256",
          "name": "roomId",
          "type": "uint256"
        },
        {
          "indexed": false,
          "internalType": "address",
          "name": "sender",
          "type": "address"
        },
        {
          "indexed": false,
          "internalType": "bytes",
          "name": "encryptedMessage",
          "type": "bytes"
        }
      ],
      "name": "MafiaMessageSent",
      "type": "event"
    },
    {
      "anonymous": false,
      "inputs": [
        {
          "indexed": true,
          "internalType": "uint256",
          "name": "roomId",
          "type": "uint256"
        },
        {
          "indexed": false,
          "internalType": "address",
          "name": "player",
          "type": "address"
        },
        {
          "indexed": false,
          "internalType": "bytes32",
          "name": "commitHash",
          "type": "bytes32"
        }
      ],
      "name": "MafiaTargetCommitted",
      "type": "event"
    },
    {
      "anonymous": false,
      "inputs": [
        {
          "indexed": true,
          "internalType": "uint256",
          "name": "roomId",
          "type": "uint256"
        },
        {
          "indexed": false,
          "internalType": "address",
          "name": "player",
          "type": "address"
        },
        {
          "indexed": false,
          "internalType": "address",
          "name": "target",
          "type": "address"
        }
      ],
      "name": "MafiaTargetRevealed",
      "type": "event"
    },
    {
      "anonymous": false,
      "inputs": [
        {
          "indexed": true,
          "internalType": "uint256",
          "name": "roomId",
          "type": "uint256"
        },
        {
          "indexed": false,
          "internalType": "address",
          "name": "player",
          "type": "address"
        },
        {
          "indexed": false,
          "internalType": "bytes32",
          "name": "commitHash",
          "type": "bytes32"
        }
      ],
      "name": "NightActionCommitted",
      "type": "event"
    },
    {
      "anonymous": false,
      "inputs": [
        {
          "indexed": true,
          "internalType": "uint256",
          "name": "roomId",
          "type": "uint256"
        },
        {
          "indexed": false,
          "internalType": "address",
          "name": "player",
          "type": "address"
        },
        {
          "indexed": false,
          "internalType": "enum MafiaPortalV4.NightActionType",
          "name": "action",
          "type": "uint8"
        },
        {
          "indexed": false,
          "internalType": "address",
          "name": "target",
          "type": "address"
        }
      ],
      "name": "NightActionRevealed",
      "type": "event"
    },
    {
      "anonymous": false,
      "inputs": [
        {
          "indexed": true,
          "internalType": "uint256",
          "name": "roomId",
          "type": "uint256"
        },
        {
          "indexed": false,
          "internalType": "address",
          "name": "killed",
          "type": "address"
        },
        {
          "indexed": false,
          "internalType": "address",
          "name": "healed",
          "type": "address"
        }
      ],
      "name": "NightFinalized",
      "type": "event"
    },
    {
      "anonymous": false,
      "inputs": [
        {
          "indexed": true,
          "internalType": "uint256",
          "name": "roomId",
          "type": "uint256"
        }
      ],
      "name": "NightStarted",
      "type": "event"
    },
    {
      "anonymous": false,
      "inputs": [
        {
          "indexed": false,
          "internalType": "address",
          "name": "account",
          "type": "address"
        }
      ],
      "name": "Paused",
      "type": "event"
    },
    {
      "anonymous": false,
      "inputs": [
        {
          "indexed": true,
          "internalType": "uint256",
          "name": "roomId",
          "type": "uint256"
        },
        {
          "indexed": false,
          "internalType": "enum MafiaPortalV4.GamePhase",
          "name": "phase",
          "type": "uint8"
        }
      ],
      "name": "PhaseTimeout",
      "type": "event"
    },
    {
      "anonymous": false,
      "inputs": [
        {
          "indexed": true,
          "internalType": "uint256",
          "name": "roomId",
          "type": "uint256"
        },
        {
          "indexed": false,
          "internalType": "address",
          "name": "player",
          "type": "address"
        },
        {
          "indexed": false,
          "internalType": "string",
          "name": "reason",
          "type": "string"
        }
      ],
      "name": "PlayerEliminated",
      "type": "event"
    },
    {
      "anonymous": false,
      "inputs": [
        {
          "indexed": true,
          "internalType": "uint256",
          "name": "roomId",
          "type": "uint256"
        },
        {
          "indexed": false,
          "internalType": "address",
          "name": "player",
          "type": "address"
        },
        {
          "indexed": false,
          "internalType": "string",
          "name": "nickname",
          "type": "string"
        },
        {
          "indexed": false,
          "internalType": "address",
          "name": "sessionKey",
          "type": "address"
        }
      ],
      "name": "PlayerJoined",
      "type": "event"
    },
    {
      "anonymous": false,
      "inputs": [
        {
          "indexed": true,
          "internalType": "uint256",
          "name": "roomId",
          "type": "uint256"
        },
        {
          "indexed": false,
          "internalType": "address",
          "name": "player",
          "type": "address"
        },
        {
          "indexed": false,
          "internalType": "string",
          "name": "reason",
          "type": "string"
        }
      ],
      "name": "PlayerKicked",
      "type": "event"
    },
    {
      "anonymous": false,
      "inputs": [
        {
          "indexed": true,
          "internalType": "bytes32",
          "name": "role",
          "type": "bytes32"
        },
        {
          "indexed": true,
          "internalType": "bytes32",
          "name": "previousAdminRole",
          "type": "bytes32"
        },
        {
          "indexed": true,
          "internalType": "bytes32",
          "name": "newAdminRole",
          "type": "bytes32"
        }
      ],
      "name": "RoleAdminChanged",
      "type": "event"
    },
    {
      "anonymous": false,
      "inputs": [
        {
          "indexed": true,
          "internalType": "uint256",
          "name": "roomId",
          "type": "uint256"
        },
        {
          "indexed": false,
          "internalType": "address",
          "name": "player",
          "type": "address"
        },
        {
          "indexed": false,
          "internalType": "bytes32",
          "name": "commitHash",
          "type": "bytes32"
        }
      ],
      "name": "RoleCommitted",
      "type": "event"
    },
    {
      "anonymous": false,
      "inputs": [
        {
          "indexed": true,
          "internalType": "uint256",
          "name": "roomId",
          "type": "uint256"
        },
        {
          "indexed": false,
          "internalType": "address",
          "name": "player",
          "type": "address"
        }
      ],
      "name": "RoleConfirmed",
      "type": "event"
    },
    {
      "anonymous": false,
      "inputs": [
        {
          "indexed": true,
          "internalType": "bytes32",
          "name": "role",
          "type": "bytes32"
        },
        {
          "indexed": true,
          "internalType": "address",
          "name": "account",
          "type": "address"
        },
        {
          "indexed": true,
          "internalType": "address",
          "name": "sender",
          "type": "address"
        }
      ],
      "name": "RoleGranted",
      "type": "event"
    },
    {
      "anonymous": false,
      "inputs": [
        {
          "indexed": true,
          "internalType": "uint256",
          "name": "roomId",
          "type": "uint256"
        },
        {
          "indexed": false,
          "internalType": "address",
          "name": "player",
          "type": "address"
        },
        {
          "indexed": false,
          "internalType": "enum MafiaPortalV4.Role",
          "name": "role",
          "type": "uint8"
        }
      ],
      "name": "RoleRevealed",
      "type": "event"
    },
    {
      "anonymous": false,
      "inputs": [
        {
          "indexed": true,
          "internalType": "bytes32",
          "name": "role",
          "type": "bytes32"
        },
        {
          "indexed": true,
          "internalType": "address",
          "name": "account",
          "type": "address"
        },
        {
          "indexed": true,
          "internalType": "address",
          "name": "sender",
          "type": "address"
        }
      ],
      "name": "RoleRevoked",
      "type": "event"
    },
    {
      "anonymous": false,
      "inputs": [
        {
          "indexed": true,
          "internalType": "uint256",
          "name": "roomId",
          "type": "uint256"
        },
        {
          "indexed": false,
          "internalType": "address",
          "name": "host",
          "type": "address"
        },
        {
          "indexed": false,
          "internalType": "uint256",
          "name": "maxPlayers",
          "type": "uint256"
        }
      ],
      "name": "RoomCreated",
      "type": "event"
    },
    {
      "anonymous": false,
      "inputs": [
        {
          "indexed": true,
          "internalType": "address",
          "name": "mainWallet",
          "type": "address"
        },
        {
          "indexed": true,
          "internalType": "address",
          "name": "sessionKey",
          "type": "address"
        },
        {
          "indexed": false,
          "internalType": "uint256",
          "name": "roomId",
          "type": "uint256"
        },
        {
          "indexed": false,
          "internalType": "uint256",
          "name": "expiresAt",
          "type": "uint256"
        }
      ],
      "name": "SessionKeyRegistered",
      "type": "event"
    },
    {
      "anonymous": false,
      "inputs": [
        {
          "indexed": true,
          "internalType": "address",
          "name": "mainWallet",
          "type": "address"
        },
        {
          "indexed": true,
          "internalType": "address",
          "name": "sessionKey",
          "type": "address"
        }
      ],
      "name": "SessionKeyRevoked",
      "type": "event"
    },
    {
      "anonymous": false,
      "inputs": [
        {
          "indexed": false,
          "internalType": "address",
          "name": "account",
          "type": "address"
        }
      ],
      "name": "Unpaused",
      "type": "event"
    },
    {
      "anonymous": false,
      "inputs": [
        {
          "indexed": true,
          "internalType": "uint256",
          "name": "roomId",
          "type": "uint256"
        },
        {
          "indexed": false,
          "internalType": "address",
          "name": "voter",
          "type": "address"
        },
        {
          "indexed": false,
          "internalType": "address",
          "name": "target",
          "type": "address"
        }
      ],
      "name": "VoteCast",
      "type": "event"
    },
    {
      "anonymous": false,
      "inputs": [
        {
          "indexed": true,
          "internalType": "uint256",
          "name": "roomId",
          "type": "uint256"
        },
        {
          "indexed": false,
          "internalType": "address",
          "name": "eliminated",
          "type": "address"
        },
        {
          "indexed": false,
          "internalType": "uint256",
          "name": "voteCount",
          "type": "uint256"
        }
      ],
      "name": "VotingFinalized",
      "type": "event"
    },
    {
      "anonymous": false,
      "inputs": [
        {
          "indexed": true,
          "internalType": "uint256",
          "name": "roomId",
          "type": "uint256"
        }
      ],
      "name": "VotingStarted",
      "type": "event"
    },
    {
      "inputs": [],
      "name": "ADMIN_ROLE",
      "outputs": [
        {
          "internalType": "bytes32",
          "name": "",
          "type": "bytes32"
        }
      ],
      "stateMutability": "view",
      "type": "function"
    },
    {
      "inputs": [],
      "name": "COMMIT_PHASE_DURATION",
      "outputs": [
        {
          "internalType": "uint32",
          "name": "",
          "type": "uint32"
        }
      ],
      "stateMutability": "view",
      "type": "function"
    },
    {
      "inputs": [],
      "name": "DEFAULT_ADMIN_ROLE",
      "outputs": [
        {
          "internalType": "bytes32",
          "name": "",
          "type": "bytes32"
        }
      ],
      "stateMutability": "view",
      "type": "function"
    },
    {
      "inputs": [],
      "name": "MAX_ARRAY_SIZE",
      "outputs": [
        {
          "internalType": "uint32",
          "name": "",
          "type": "uint32"
        }
      ],
      "stateMutability": "view",
      "type": "function"
    },
    {
      "inputs": [],
      "name": "PHASE_TIMEOUT",
      "outputs": [
        {
          "internalType": "uint32",
          "name": "",
          "type": "uint32"
        }
      ],
      "stateMutability": "view",
      "type": "function"
    },
    {
      "inputs": [],
      "name": "SESSION_DURATION",
      "outputs": [
        {
          "internalType": "uint32",
          "name": "",
          "type": "uint32"
        }
      ],
      "stateMutability": "view",
      "type": "function"
    },
    {
      "inputs": [],
      "name": "TURN_TIMEOUT",
      "outputs": [
        {
          "internalType": "uint32",
          "name": "",
          "type": "uint32"
        }
      ],
      "stateMutability": "view",
      "type": "function"
    },
    {
      "inputs": [
        {
          "internalType": "uint256",
          "name": "roomId",
          "type": "uint256"
        },
        {
          "internalType": "bytes32",
          "name": "deckHash",
          "type": "bytes32"
        }
      ],
      "name": "commitDeck",
      "outputs": [],
      "stateMutability": "nonpayable",
      "type": "function"
    },
    {
      "inputs": [
        {
          "internalType": "uint256",
          "name": "roomId",
          "type": "uint256"
        },
        {
          "internalType": "bytes32",
          "name": "targetHash",
          "type": "bytes32"
        }
      ],
      "name": "commitMafiaTarget",
      "outputs": [],
      "stateMutability": "nonpayable",
      "type": "function"
    },
    {
      "inputs": [
        {
          "internalType": "uint256",
          "name": "roomId",
          "type": "uint256"
        },
        {
          "internalType": "bytes32",
          "name": "hash",
          "type": "bytes32"
        }
      ],
      "name": "commitNightAction",
      "outputs": [],
      "stateMutability": "nonpayable",
      "type": "function"
    },
    {
      "inputs": [
        {
          "internalType": "uint256",
          "name": "roomId",
          "type": "uint256"
        },
        {
          "internalType": "bytes32",
          "name": "roleHash",
          "type": "bytes32"
        }
      ],
      "name": "commitRole",
      "outputs": [],
      "stateMutability": "nonpayable",
      "type": "function"
    },
    {
      "inputs": [
        {
          "internalType": "uint256",
          "name": "roomId",
          "type": "uint256"
        }
      ],
      "name": "confirmRole",
      "outputs": [],
      "stateMutability": "nonpayable",
      "type": "function"
    },
    {
      "inputs": [
        {
          "internalType": "uint8",
          "name": "maxPlayers",
          "type": "uint8"
        }
      ],
      "name": "createRoom",
      "outputs": [
        {
          "internalType": "uint256",
          "name": "",
          "type": "uint256"
        }
      ],
      "stateMutability": "nonpayable",
      "type": "function"
    },
    {
      "inputs": [
        {
          "internalType": "uint256",
          "name": "",
          "type": "uint256"
        },
        {
          "internalType": "address",
          "name": "",
          "type": "address"
        }
      ],
      "name": "deckCommits",
      "outputs": [
        {
          "internalType": "bytes32",
          "name": "commitHash",
          "type": "bytes32"
        },
        {
          "internalType": "bool",
          "name": "revealed",
          "type": "bool"
        }
      ],
      "stateMutability": "view",
      "type": "function"
    },
    {
      "inputs": [
        {
          "internalType": "uint256",
          "name": "roomId",
          "type": "uint256"
        }
      ],
      "name": "endGameAutomatically",
      "outputs": [],
      "stateMutability": "nonpayable",
      "type": "function"
    },
    {
      "inputs": [
        {
          "internalType": "uint256",
          "name": "roomId",
          "type": "uint256"
        }
      ],
      "name": "endNight",
      "outputs": [],
      "stateMutability": "nonpayable",
      "type": "function"
    },
    {
      "inputs": [
        {
          "internalType": "uint256",
          "name": "roomId",
          "type": "uint256"
        }
      ],
      "name": "forcePhaseTimeout",
      "outputs": [],
      "stateMutability": "nonpayable",
      "type": "function"
    },
    {
      "inputs": [
        {
          "internalType": "uint256",
          "name": "roomId",
          "type": "uint256"
        }
      ],
      "name": "getAliveMafiaCount",
      "outputs": [
        {
          "internalType": "uint8",
          "name": "",
          "type": "uint8"
        }
      ],
      "stateMutability": "view",
      "type": "function"
    },
    {
      "inputs": [
        {
          "internalType": "uint256",
          "name": "roomId",
          "type": "uint256"
        }
      ],
      "name": "getAllKeysForMe",
      "outputs": [
        {
          "internalType": "address[]",
          "name": "senders",
          "type": "address[]"
        },
        {
          "internalType": "bytes[]",
          "name": "keys",
          "type": "bytes[]"
        }
      ],
      "stateMutability": "view",
      "type": "function"
    },
    {
      "inputs": [
        {
          "internalType": "uint256",
          "name": "roomId",
          "type": "uint256"
        }
      ],
      "name": "getDeck",
      "outputs": [
        {
          "internalType": "string[]",
          "name": "",
          "type": "string[]"
        }
      ],
      "stateMutability": "view",
      "type": "function"
    },
    {
      "inputs": [
        {
          "internalType": "uint256",
          "name": "roomId",
          "type": "uint256"
        },
        {
          "internalType": "address",
          "name": "from",
          "type": "address"
        },
        {
          "internalType": "address",
          "name": "to",
          "type": "address"
        }
      ],
      "name": "getKeyFromTo",
      "outputs": [
        {
          "internalType": "bytes",
          "name": "",
          "type": "bytes"
        }
      ],
      "stateMutability": "view",
      "type": "function"
    },
    {
      "inputs": [
        {
          "internalType": "uint256",
          "name": "roomId",
          "type": "uint256"
        }
      ],
      "name": "getMafiaChat",
      "outputs": [
        {
          "components": [
            {
              "internalType": "bytes",
              "name": "encryptedMessage",
              "type": "bytes"
            },
            {
              "internalType": "uint32",
              "name": "timestamp",
              "type": "uint32"
            },
            {
              "internalType": "address",
              "name": "sender",
              "type": "address"
            }
          ],
          "internalType": "struct MafiaPortalV4.MafiaMessage[]",
          "name": "",
          "type": "tuple[]"
        }
      ],
      "stateMutability": "view",
      "type": "function"
    },
    {
      "inputs": [
        {
          "internalType": "uint256",
          "name": "roomId",
          "type": "uint256"
        }
      ],
      "name": "getMafiaConsensus",
      "outputs": [
        {
          "internalType": "uint8",
          "name": "committed",
          "type": "uint8"
        },
        {
          "internalType": "uint8",
          "name": "revealed",
          "type": "uint8"
        },
        {
          "internalType": "address",
          "name": "consensusTarget",
          "type": "address"
        }
      ],
      "stateMutability": "view",
      "type": "function"
    },
    {
      "inputs": [
        {
          "internalType": "uint256",
          "name": "roomId",
          "type": "uint256"
        }
      ],
      "name": "getPhaseDeadline",
      "outputs": [
        {
          "internalType": "uint32",
          "name": "",
          "type": "uint32"
        }
      ],
      "stateMutability": "view",
      "type": "function"
    },
    {
      "inputs": [
        {
          "internalType": "uint256",
          "name": "roomId",
          "type": "uint256"
        },
        {
          "internalType": "address",
          "name": "player",
          "type": "address"
        }
      ],
      "name": "getPlayerFlags",
      "outputs": [
        {
          "internalType": "bool",
          "name": "isActive",
          "type": "bool"
        },
        {
          "internalType": "bool",
          "name": "hasConfirmedRole",
          "type": "bool"
        },
        {
          "internalType": "bool",
          "name": "hasVoted",
          "type": "bool"
        },
        {
          "internalType": "bool",
          "name": "hasCommitted",
          "type": "bool"
        },
        {
          "internalType": "bool",
          "name": "hasRevealed",
          "type": "bool"
        },
        {
          "internalType": "bool",
          "name": "hasSharedKeys",
          "type": "bool"
        },
        {
          "internalType": "bool",
          "name": "hasClaimedMafia",
          "type": "bool"
        }
      ],
      "stateMutability": "view",
      "type": "function"
    },
    {
      "inputs": [
        {
          "internalType": "uint256",
          "name": "roomId",
          "type": "uint256"
        }
      ],
      "name": "getPlayers",
      "outputs": [
        {
          "components": [
            {
              "internalType": "address",
              "name": "wallet",
              "type": "address"
            },
            {
              "internalType": "string",
              "name": "nickname",
              "type": "string"
            },
            {
              "internalType": "bytes",
              "name": "publicKey",
              "type": "bytes"
            },
            {
              "internalType": "uint32",
              "name": "flags",
              "type": "uint32"
            }
          ],
          "internalType": "struct MafiaPortalV4.Player[]",
          "name": "",
          "type": "tuple[]"
        }
      ],
      "stateMutability": "view",
      "type": "function"
    },
    {
      "inputs": [
        {
          "internalType": "uint256",
          "name": "roomId",
          "type": "uint256"
        }
      ],
      "name": "getRevealedMafiaCount",
      "outputs": [
        {
          "internalType": "uint8",
          "name": "",
          "type": "uint8"
        }
      ],
      "stateMutability": "view",
      "type": "function"
    },
    {
      "inputs": [
        {
          "internalType": "bytes32",
          "name": "role",
          "type": "bytes32"
        }
      ],
      "name": "getRoleAdmin",
      "outputs": [
        {
          "internalType": "bytes32",
          "name": "",
          "type": "bytes32"
        }
      ],
      "stateMutability": "view",
      "type": "function"
    },
    {
      "inputs": [
        {
          "internalType": "uint256",
          "name": "roomId",
          "type": "uint256"
        }
      ],
      "name": "getRoom",
      "outputs": [
        {
          "components": [
            {
              "internalType": "uint64",
              "name": "id",
              "type": "uint64"
            },
            {
              "internalType": "address",
              "name": "host",
              "type": "address"
            },
            {
              "internalType": "enum MafiaPortalV4.GamePhase",
              "name": "phase",
              "type": "uint8"
            },
            {
              "internalType": "uint8",
              "name": "maxPlayers",
              "type": "uint8"
            },
            {
              "internalType": "uint8",
              "name": "playersCount",
              "type": "uint8"
            },
            {
              "internalType": "uint8",
              "name": "aliveCount",
              "type": "uint8"
            },
            {
              "internalType": "uint16",
              "name": "dayCount",
              "type": "uint16"
            },
            {
              "internalType": "uint8",
              "name": "currentShufflerIndex",
              "type": "uint8"
            },
            {
              "internalType": "uint32",
              "name": "lastActionTimestamp",
              "type": "uint32"
            },
            {
              "internalType": "uint32",
              "name": "phaseDeadline",
              "type": "uint32"
            },
            {
              "internalType": "uint8",
              "name": "confirmedCount",
              "type": "uint8"
            },
            {
              "internalType": "uint8",
              "name": "votedCount",
              "type": "uint8"
            },
            {
              "internalType": "uint8",
              "name": "committedCount",
              "type": "uint8"
            },
            {
              "internalType": "uint8",
              "name": "revealedCount",
              "type": "uint8"
            },
            {
              "internalType": "uint8",
              "name": "keysSharedCount",
              "type": "uint8"
            }
          ],
          "internalType": "struct MafiaPortalV4.GameRoom",
          "name": "",
          "type": "tuple"
        }
      ],
      "stateMutability": "view",
      "type": "function"
    },
    {
      "inputs": [
        {
          "internalType": "bytes32",
          "name": "role",
          "type": "bytes32"
        },
        {
          "internalType": "address",
          "name": "account",
          "type": "address"
        }
      ],
      "name": "grantRole",
      "outputs": [],
      "stateMutability": "nonpayable",
      "type": "function"
    },
    {
      "inputs": [
        {
          "internalType": "bytes32",
          "name": "role",
          "type": "bytes32"
        },
        {
          "internalType": "address",
          "name": "account",
          "type": "address"
        }
      ],
      "name": "hasRole",
      "outputs": [
        {
          "internalType": "bool",
          "name": "",
          "type": "bool"
        }
      ],
      "stateMutability": "view",
      "type": "function"
    },
    {
      "inputs": [
        {
          "internalType": "uint256",
          "name": "",
          "type": "uint256"
        },
        {
          "internalType": "address",
          "name": "",
          "type": "address"
        }
      ],
      "name": "isPlayerInRoom",
      "outputs": [
        {
          "internalType": "bool",
          "name": "",
          "type": "bool"
        }
      ],
      "stateMutability": "view",
      "type": "function"
    },
    {
      "inputs": [
        {
          "internalType": "address",
          "name": "",
          "type": "address"
        }
      ],
      "name": "isRegisteredSession",
      "outputs": [
        {
          "internalType": "bool",
          "name": "",
          "type": "bool"
        }
      ],
      "stateMutability": "view",
      "type": "function"
    },
    {
      "inputs": [
        {
          "internalType": "uint256",
          "name": "roomId",
          "type": "uint256"
        },
        {
          "internalType": "string",
          "name": "nickname",
          "type": "string"
        },
        {
          "internalType": "bytes",
          "name": "publicKey",
          "type": "bytes"
        },
        {
          "internalType": "address",
          "name": "sessionAddress",
          "type": "address"
        }
      ],
      "name": "joinRoom",
      "outputs": [],
      "stateMutability": "payable",
      "type": "function"
    },
    {
      "inputs": [
        {
          "internalType": "uint256",
          "name": "",
          "type": "uint256"
        },
        {
          "internalType": "uint256",
          "name": "",
          "type": "uint256"
        }
      ],
      "name": "mafiaChat",
      "outputs": [
        {
          "internalType": "bytes",
          "name": "encryptedMessage",
          "type": "bytes"
        },
        {
          "internalType": "uint32",
          "name": "timestamp",
          "type": "uint32"
        },
        {
          "internalType": "address",
          "name": "sender",
          "type": "address"
        }
      ],
      "stateMutability": "view",
      "type": "function"
    },
    {
      "inputs": [
        {
          "internalType": "uint256",
          "name": "",
          "type": "uint256"
        }
      ],
      "name": "mafiaCommittedCount",
      "outputs": [
        {
          "internalType": "uint8",
          "name": "",
          "type": "uint8"
        }
      ],
      "stateMutability": "view",
      "type": "function"
    },
    {
      "inputs": [
        {
          "internalType": "uint256",
          "name": "",
          "type": "uint256"
        }
      ],
      "name": "mafiaConsensusTarget",
      "outputs": [
        {
          "internalType": "address",
          "name": "",
          "type": "address"
        }
      ],
      "stateMutability": "view",
      "type": "function"
    },
    {
      "inputs": [
        {
          "internalType": "uint256",
          "name": "",
          "type": "uint256"
        }
      ],
      "name": "mafiaRevealedCount",
      "outputs": [
        {
          "internalType": "uint8",
          "name": "",
          "type": "uint8"
        }
      ],
      "stateMutability": "view",
      "type": "function"
    },
    {
      "inputs": [
        {
          "internalType": "uint256",
          "name": "",
          "type": "uint256"
        },
        {
          "internalType": "address",
          "name": "",
          "type": "address"
        }
      ],
      "name": "mafiaTargetCommits",
      "outputs": [
        {
          "internalType": "bytes32",
          "name": "commitHash",
          "type": "bytes32"
        },
        {
          "internalType": "address",
          "name": "target",
          "type": "address"
        },
        {
          "internalType": "bool",
          "name": "revealed",
          "type": "bool"
        }
      ],
      "stateMutability": "view",
      "type": "function"
    },
    {
      "inputs": [],
      "name": "nextRoomId",
      "outputs": [
        {
          "internalType": "uint256",
          "name": "",
          "type": "uint256"
        }
      ],
      "stateMutability": "view",
      "type": "function"
    },
    {
      "inputs": [
        {
          "internalType": "uint256",
          "name": "",
          "type": "uint256"
        },
        {
          "internalType": "address",
          "name": "",
          "type": "address"
        }
      ],
      "name": "nightCommits",
      "outputs": [
        {
          "internalType": "bytes32",
          "name": "commitHash",
          "type": "bytes32"
        },
        {
          "internalType": "bool",
          "name": "revealed",
          "type": "bool"
        },
        {
          "internalType": "uint32",
          "name": "commitTime",
          "type": "uint32"
        }
      ],
      "stateMutability": "view",
      "type": "function"
    },
    {
      "inputs": [],
      "name": "pause",
      "outputs": [],
      "stateMutability": "nonpayable",
      "type": "function"
    },
    {
      "inputs": [],
      "name": "paused",
      "outputs": [
        {
          "internalType": "bool",
          "name": "",
          "type": "bool"
        }
      ],
      "stateMutability": "view",
      "type": "function"
    },
    {
      "inputs": [
        {
          "internalType": "uint256",
          "name": "",
          "type": "uint256"
        },
        {
          "internalType": "address",
          "name": "",
          "type": "address"
        },
        {
          "internalType": "address",
          "name": "",
          "type": "address"
        }
      ],
      "name": "playerDeckKeys",
      "outputs": [
        {
          "internalType": "bytes",
          "name": "",
          "type": "bytes"
        }
      ],
      "stateMutability": "view",
      "type": "function"
    },
    {
      "inputs": [
        {
          "internalType": "uint256",
          "name": "",
          "type": "uint256"
        },
        {
          "internalType": "address",
          "name": "",
          "type": "address"
        }
      ],
      "name": "playerIndex",
      "outputs": [
        {
          "internalType": "uint8",
          "name": "",
          "type": "uint8"
        }
      ],
      "stateMutability": "view",
      "type": "function"
    },
    {
      "inputs": [
        {
          "internalType": "uint256",
          "name": "",
          "type": "uint256"
        },
        {
          "internalType": "address",
          "name": "",
          "type": "address"
        }
      ],
      "name": "playerRoles",
      "outputs": [
        {
          "internalType": "enum MafiaPortalV4.Role",
          "name": "",
          "type": "uint8"
        }
      ],
      "stateMutability": "view",
      "type": "function"
    },
    {
      "inputs": [
        {
          "internalType": "bytes32",
          "name": "role",
          "type": "bytes32"
        },
        {
          "internalType": "address",
          "name": "callerConfirmation",
          "type": "address"
        }
      ],
      "name": "renounceRole",
      "outputs": [],
      "stateMutability": "nonpayable",
      "type": "function"
    },
    {
      "inputs": [
        {
          "internalType": "uint256",
          "name": "roomId",
          "type": "uint256"
        },
        {
          "internalType": "string[]",
          "name": "deck",
          "type": "string[]"
        },
        {
          "internalType": "string",
          "name": "salt",
          "type": "string"
        }
      ],
      "name": "revealDeck",
      "outputs": [],
      "stateMutability": "nonpayable",
      "type": "function"
    },
    {
      "inputs": [
        {
          "internalType": "uint256",
          "name": "roomId",
          "type": "uint256"
        },
        {
          "internalType": "address",
          "name": "target",
          "type": "address"
        },
        {
          "internalType": "string",
          "name": "salt",
          "type": "string"
        }
      ],
      "name": "revealMafiaTarget",
      "outputs": [],
      "stateMutability": "nonpayable",
      "type": "function"
    },
    {
      "inputs": [
        {
          "internalType": "uint256",
          "name": "roomId",
          "type": "uint256"
        },
        {
          "internalType": "enum MafiaPortalV4.NightActionType",
          "name": "action",
          "type": "uint8"
        },
        {
          "internalType": "address",
          "name": "target",
          "type": "address"
        },
        {
          "internalType": "string",
          "name": "salt",
          "type": "string"
        }
      ],
      "name": "revealNightAction",
      "outputs": [],
      "stateMutability": "nonpayable",
      "type": "function"
    },
    {
      "inputs": [
        {
          "internalType": "uint256",
          "name": "roomId",
          "type": "uint256"
        },
        {
          "internalType": "enum MafiaPortalV4.Role",
          "name": "role",
          "type": "uint8"
        },
        {
          "internalType": "string",
          "name": "salt",
          "type": "string"
        }
      ],
      "name": "revealRole",
      "outputs": [],
      "stateMutability": "nonpayable",
      "type": "function"
    },
    {
      "inputs": [
        {
          "internalType": "uint256",
          "name": "",
          "type": "uint256"
        },
        {
          "internalType": "address",
          "name": "",
          "type": "address"
        }
      ],
      "name": "revealedActions",
      "outputs": [
        {
          "internalType": "enum MafiaPortalV4.NightActionType",
          "name": "",
          "type": "uint8"
        }
      ],
      "stateMutability": "view",
      "type": "function"
    },
    {
      "inputs": [
        {
          "internalType": "uint256",
          "name": "",
          "type": "uint256"
        },
        {
          "internalType": "uint256",
          "name": "",
          "type": "uint256"
        }
      ],
      "name": "revealedDeck",
      "outputs": [
        {
          "internalType": "string",
          "name": "",
          "type": "string"
        }
      ],
      "stateMutability": "view",
      "type": "function"
    },
    {
      "inputs": [
        {
          "internalType": "uint256",
          "name": "",
          "type": "uint256"
        },
        {
          "internalType": "address",
          "name": "",
          "type": "address"
        }
      ],
      "name": "revealedTargets",
      "outputs": [
        {
          "internalType": "address",
          "name": "",
          "type": "address"
        }
      ],
      "stateMutability": "view",
      "type": "function"
    },
    {
      "inputs": [
        {
          "internalType": "bytes32",
          "name": "role",
          "type": "bytes32"
        },
        {
          "internalType": "address",
          "name": "account",
          "type": "address"
        }
      ],
      "name": "revokeRole",
      "outputs": [],
      "stateMutability": "nonpayable",
      "type": "function"
    },
    {
      "inputs": [],
      "name": "revokeSessionKey",
      "outputs": [],
      "stateMutability": "nonpayable",
      "type": "function"
    },
    {
      "inputs": [
        {
          "internalType": "uint256",
          "name": "",
          "type": "uint256"
        },
        {
          "internalType": "address",
          "name": "",
          "type": "address"
        }
      ],
      "name": "roleCommits",
      "outputs": [
        {
          "internalType": "bytes32",
          "name": "",
          "type": "bytes32"
        }
      ],
      "stateMutability": "view",
      "type": "function"
    },
    {
      "inputs": [
        {
          "internalType": "uint256",
          "name": "",
          "type": "uint256"
        },
        {
          "internalType": "uint256",
          "name": "",
          "type": "uint256"
        }
      ],
      "name": "roomPlayers",
      "outputs": [
        {
          "internalType": "address",
          "name": "wallet",
          "type": "address"
        },
        {
          "internalType": "string",
          "name": "nickname",
          "type": "string"
        },
        {
          "internalType": "bytes",
          "name": "publicKey",
          "type": "bytes"
        },
        {
          "internalType": "uint32",
          "name": "flags",
          "type": "uint32"
        }
      ],
      "stateMutability": "view",
      "type": "function"
    },
    {
      "inputs": [
        {
          "internalType": "uint256",
          "name": "",
          "type": "uint256"
        }
      ],
      "name": "rooms",
      "outputs": [
        {
          "internalType": "uint64",
          "name": "id",
          "type": "uint64"
        },
        {
          "internalType": "address",
          "name": "host",
          "type": "address"
        },
        {
          "internalType": "enum MafiaPortalV4.GamePhase",
          "name": "phase",
          "type": "uint8"
        },
        {
          "internalType": "uint8",
          "name": "maxPlayers",
          "type": "uint8"
        },
        {
          "internalType": "uint8",
          "name": "playersCount",
          "type": "uint8"
        },
        {
          "internalType": "uint8",
          "name": "aliveCount",
          "type": "uint8"
        },
        {
          "internalType": "uint16",
          "name": "dayCount",
          "type": "uint16"
        },
        {
          "internalType": "uint8",
          "name": "currentShufflerIndex",
          "type": "uint8"
        },
        {
          "internalType": "uint32",
          "name": "lastActionTimestamp",
          "type": "uint32"
        },
        {
          "internalType": "uint32",
          "name": "phaseDeadline",
          "type": "uint32"
        },
        {
          "internalType": "uint8",
          "name": "confirmedCount",
          "type": "uint8"
        },
        {
          "internalType": "uint8",
          "name": "votedCount",
          "type": "uint8"
        },
        {
          "internalType": "uint8",
          "name": "committedCount",
          "type": "uint8"
        },
        {
          "internalType": "uint8",
          "name": "revealedCount",
          "type": "uint8"
        },
        {
          "internalType": "uint8",
          "name": "keysSharedCount",
          "type": "uint8"
        }
      ],
      "stateMutability": "view",
      "type": "function"
    },
    {
      "inputs": [
        {
          "internalType": "uint256",
          "name": "roomId",
          "type": "uint256"
        },
        {
          "internalType": "bytes",
          "name": "encryptedMessage",
          "type": "bytes"
        }
      ],
      "name": "sendMafiaMessage",
      "outputs": [],
      "stateMutability": "nonpayable",
      "type": "function"
    },
    {
      "inputs": [
        {
          "internalType": "address",
          "name": "",
          "type": "address"
        }
      ],
      "name": "sessionKeys",
      "outputs": [
        {
          "internalType": "address",
          "name": "sessionAddress",
          "type": "address"
        },
        {
          "internalType": "uint32",
          "name": "expiresAt",
          "type": "uint32"
        },
        {
          "internalType": "uint64",
          "name": "roomId",
          "type": "uint64"
        },
        {
          "internalType": "bool",
          "name": "isActive",
          "type": "bool"
        }
      ],
      "stateMutability": "view",
      "type": "function"
    },
    {
      "inputs": [
        {
          "internalType": "address",
          "name": "",
          "type": "address"
        }
      ],
      "name": "sessionToMain",
      "outputs": [
        {
          "internalType": "address",
          "name": "",
          "type": "address"
        }
      ],
      "stateMutability": "view",
      "type": "function"
    },
    {
      "inputs": [
        {
          "internalType": "uint256",
          "name": "roomId",
          "type": "uint256"
        },
        {
          "internalType": "address[]",
          "name": "recipients",
          "type": "address[]"
        },
        {
          "internalType": "bytes[]",
          "name": "encryptedKeys",
          "type": "bytes[]"
        }
      ],
      "name": "shareKeysToAll",
      "outputs": [],
      "stateMutability": "nonpayable",
      "type": "function"
    },
    {
      "inputs": [
        {
          "internalType": "uint256",
          "name": "roomId",
          "type": "uint256"
        }
      ],
      "name": "startGame",
      "outputs": [],
      "stateMutability": "nonpayable",
      "type": "function"
    },
    {
      "inputs": [
        {
          "internalType": "uint256",
          "name": "roomId",
          "type": "uint256"
        }
      ],
      "name": "startVoting",
      "outputs": [],
      "stateMutability": "nonpayable",
      "type": "function"
    },
    {
      "inputs": [
        {
          "internalType": "bytes4",
          "name": "interfaceId",
          "type": "bytes4"
        }
      ],
      "name": "supportsInterface",
      "outputs": [
        {
          "internalType": "bool",
          "name": "",
          "type": "bool"
        }
      ],
      "stateMutability": "view",
      "type": "function"
    },
    {
      "inputs": [],
      "name": "unpause",
      "outputs": [],
      "stateMutability": "nonpayable",
      "type": "function"
    },
    {
      "inputs": [
        {
          "internalType": "uint256",
          "name": "roomId",
          "type": "uint256"
        },
        {
          "internalType": "address",
          "name": "target",
          "type": "address"
        }
      ],
      "name": "vote",
      "outputs": [],
      "stateMutability": "nonpayable",
      "type": "function"
    },
    {
      "inputs": [
        {
          "internalType": "uint256",
          "name": "",
          "type": "uint256"
        },
        {
          "internalType": "address",
          "name": "",
          "type": "address"
        }
      ],
      "name": "voteCounts",
      "outputs": [
        {
          "internalType": "uint8",
          "name": "",
          "type": "uint8"
        }
      ],
      "stateMutability": "view",
      "type": "function"
    },
    {
      "inputs": [
        {
          "internalType": "uint256",
          "name": "",
          "type": "uint256"
        },
        {
          "internalType": "address",
          "name": "",
          "type": "address"
        }
      ],
      "name": "votes",
      "outputs": [
        {
          "internalType": "address",
          "name": "",
          "type": "address"
        }
      ],
      "stateMutability": "view",
      "type": "function"
    }
  ],
  "bytecode": "0x6080604052346100355760015f55600160195561001b33610039565b50610025336100af565b506040516163ce90816101438239f35b5f80fd5b6001600160a01b0381165f9081525f5160206165315f395f51905f52602052604090205460ff166100aa576001600160a01b03165f8181525f5160206165315f395f51905f5260205260408120805460ff191660011790553391905f5160206165115f395f51905f528180a4600190565b505f90565b6001600160a01b0381165f9081525f5160206165515f395f51905f52602052604090205460ff166100aa576001600160a01b03165f8181525f5160206165515f395f51905f5260205260408120805460ff191660011790553391907fa49807205ce4d355092ef5a8a18f56e8913cf4a201fbe287825b095693c21775905f5160206165115f395f51905f529080a460019056fe6080806040526004361015610012575f80fd5b5f3560e01c90816301ffc9a714614b035750806302d947ef146147db57806307a52cab146147be57806309ed3e22146147295780630d3c15cc1461470e5780630f36f3b5146144b957806312c57f551461137f57806314a09d60146144835780631bae0ac814614397578063248a9ca3146143715780632a51fb3a1461429c5780632f2ff15d1461426b57806330a05e731461270357806335b97299146141f657806336568abe146141b257806337048f21146140a55780633d2f5bda14613f005780633deaa34114613ee45780633ec09d2c14613ea75780633f4ba83a14613e1c5780633fb5d9f514613c7757806343cd690314613a75578063460e20491461392257806348e69d1f146138835780634f324d14146138435780635099fae21461363b578063567e8dd5146135e95780635c975abb146135c75780635d99dc3e146135205780635e82ff651461350557806361ea2027146134be5780636594bb0c14613111578063660e907c146130c8578063669ead171461307c5780636920e3ee1461304f5780636d8a74cb14612e175780636e2083f414612de55780637120465b1461277357806375b238fc1461274c5780637fa9c2891461273057806382fab9d81461270357806384411c0a146126bc5780638456cb591461263f5780638a8dd7f4146125fb5780638d29f52f1461259c57806391d148541461255357806394225e9d1461223f578063a05bcf0214612208578063a217fddf146121ee578063aa55acbf14612189578063af38479114611ead578063af7efa7c14611e92578063b6bf359a14611bd8578063b7b8d60414611b70578063bb9ae875146117a1578063c96f09791461158f578063d065539414611462578063d23254b414611418578063d547741f146113e0578063d94a51cb1461137f578063dae2928a14610fb6578063e5ed1d5914610ebe578063e851122d14610e70578063ea99c3fe14610d83578063eb024101146108e0578063eb0fa6f814610896578063f14caed714610833578063f30818ff14610736578063f3db5133146106715763ff99233a1461031e575f80fd5b3461066d57606036600319011261066d5760043561033a614b56565b6044356001600160401b03811161066d57610359903690600401614d82565b9161036261522d565b61036b8461524b565b845f52600560205260405f2060018060a01b0382165f5260205260ff60405f205416156105ed5761039c90856152d1565b156105de57835f52600360205263ffffffff600160405f20015460381c1615158061064c575b61063d576103ce615352565b6103d78461524b565b92845f52600360205260ff60405f205460e01c1660078110156106295760050361061a57845f52601060205260405f2060018060a01b0385165f5260205260405f20541561060b57845f52601260205260405f2060018060a01b0385165f5260205260ff600160405f20015460a01c166105fc57610455848661536d565b6001600160a01b03821692836105b0575b61049961048b9160405192839160208301958887526040808501526060840191614fcf565b03601f198101835282614c3b565b519020845f52601260205260405f2060018060a01b0385165f5260205260405f2054036105a1575f8481526012602090815260408083206001600160a01b03871684528252808320600101805460ff60a01b199096166001600160a81b031990961695909517600160a01b179094558582526014905291909120805484937f307ed77ec1f8fe53e10faa7fa486ba5e5b66eab3a9d19902c20b0da3c3b0b26a9392909160ff9061054a908216614e08565b1660ff1982541617905561056360405192839283614e36565b0390a2805f52601460205260ff60405f205416815f52601360205260ff60405f20541614610592575b60015f55005b61059b90616035565b5f61058c565b6336c5b53760e11b5f5260045ffd5b855f52600560205260405f20845f5260205260ff60405f205416156105ed576105d983876152d1565b610466575b630575d90f60e11b5f5260045ffd5b63721c7c6760e11b5f5260045ffd5b633a456ae760e11b5f5260045ffd5b631ea3b68b60e21b5f5260045ffd5b6338961af360e21b5f5260045ffd5b634e487b7160e01b5f52602160045260245ffd5b6301a6f70d60e01b5f5260045ffd5b50835f52600360205263ffffffff600160405f20015460381c1642116103c2565b5f80fd5b3461066d57602036600319011261066d576004355f815f52600460205260405f20915f908354915b8260ff8216106106b15760208460ff60405191168152f35b6106bb8186614b98565b50545f838152600f602090815260408083206001600160a01b039094168352929052205460ff166005811015610629576001148061071c575b610707575b61070290614e08565b610699565b9261071461070291614e08565b9390506106f9565b506002600361072b8388614b98565b5001541615156106f4565b3461066d57602036600319011261066d5760043561075261522d565b61075b8161524b565b815f52600560205260405f2060018060a01b0382165f5260205260ff60405f205416156105ed5761078c90826152d1565b156105de57610799615352565b805f52600360205260ff60405f205460e01c166007811015610629578015908115610828575b5061061a576107cd81615e61565b15610819576107db81615eff565b90156107f4575061058c906107ee615205565b90615cb9565b1561080a57610805906107ee6151de565b61058c565b63308ce0f960e11b5f5260045ffd5b63837cd79f60e01b5f5260045ffd5b6006915014826107bf565b3461066d57604036600319011261066d5761084c614b56565b6004355f52600c60205260405f209060018060a01b03165f52602052606060405f2063ffffffff6001825492015460405192835260ff81161515602084015260081c166040820152f35b3461066d57604036600319011261066d576108af614b56565b6004355f908152600e602090815260408083206001600160a01b039485168452825291829020549151919092168152f35b3461066d57606036600319011261066d576004356024356001600160401b03811161066d57610913903690600401614dbc565b6044356001600160401b03811161066d57610932903690600401614d82565b61093a61522d565b6109438561524b565b855f52600560205260405f2060018060a01b0382165f5260205260ff60405f205416156105ed5761097490866152d1565b156105de57845f52600360205263ffffffff600160405f20015460381c16151580610d62575b61063d576109a6615352565b6109af8561524b565b91855f52600360205260405f209182549160ff8360e01c1660078110156106295760010361061a57610a0e61048b916040519283916020830195604087526109fc8c8c6060870191615148565b848103601f1901604086015291614fcf565b519020865f52600760205260405f2060018060a01b0385165f5260205260405f205403610d535760328411610d4457855f52600860205260405f2054159081610d34575b50610d0f57845f52600860205260405f2054151580610d1e575b610d0f575f858152600860205260409020600160401b8411610c84578054848255808510610c98575b505f908152602081208694939291865b858210610ba05750505090610b7160017f1522116f5d4e7ac5527e161307d73b93c621a9a7627553f584afb6b6f62a74e79493865f52600760205260405f20828060a01b0385165f52602052600260405f20018260ff198254161790550195610b50610b20610b1a60ff8a5460101c166151cc565b88615d72565b97610b2b8982614e90565b610b3b63ffffffff421682614ea8565b63ffffffff610b4942614fc0565b1690614ec8565b60405193849360018060a01b03168452604060208501526040840191615148565b0390a2815f52600460205260ff60405f205491161015610b915760015f55005b610b9a90615db4565b8061058c565b90919293949550610bb181886150df565b906001600160401b038211610c8457610bd482610bce8754614bb1565b87615056565b5f90601f8311600114610c1a5792610bfd836001959460209487965f92610c0f575b5050615099565b86555b01930191018795949392610aa5565b013590508e80610bf6565b601f19831691865f5260205f20925f5b818110610c6c5750936020936001969387969383889510610c53575b505050811b018655610c00565b01355f19600384901b60f8161c191690558d8080610c46565b91936020600181928787013581550195019201610c2a565b634e487b7160e01b5f52604160045260245ffd5b815f528460205f2091820191015b818110610cb35750610a95565b80610cc060019254614bb1565b80610ccd575b5001610ca6565b601f81118314610ce257505f81555b89610cc6565b610cfe90825f5283601f60205f20920160051c82019101615040565b805f525f6020812081835555610cdc565b63d1d2a30960e01b5f5260045ffd5b50845f52600860205260405f2054831415610a6c565b60ff915060f01c16831086610a52565b63376ab11160e01b5f5260045ffd5b639ea6d12760e01b5f5260045ffd5b50845f52600360205263ffffffff600160405f20015460381c16421161099a565b3461066d57602036600319011261066d57600435610d9f61522d565b610da88161524b565b815f52600560205260405f2060018060a01b0382165f5260205260ff60405f205416156105ed57610dd990826152d1565b156105de57610de6615352565b805f52600360205260405f2060ff815460e01c1660078110156106295760050361061a57815f52601360205260ff60405f2054168015159081610e57575b50610e48576001015460ff808260681c169160701c1610610d535761058c906159cd565b6303488f9960e61b5f5260045ffd5b9050825f52601460205260ff60405f2054161083610e24565b3461066d57604036600319011261066d57610e89614b56565b6004355f52600f60205260405f209060018060a01b03165f52602052602060ff60405f205416610ebc6040518092614dec565bf35b3461066d57602036600319011261066d57600435610eda61522d565b610ee38161524b565b815f52600560205260405f2060018060a01b0382165f5260205260ff60405f205416156105ed57610f1490826152d1565b156105de57610f21615352565b805f52600360205260405f20805460ff8160e01c1660078110156106295761061a5760ff60049160f01c1610610fa757805460ff60e01b1916600160e01b178155610f7d90610b2b6001610f7485615d29565b92019182614e90565b7f50ad08f58a27f2851d7e3a1b3a6a46b290f2ce677e99642d30ff639721e777905f80a260015f55005b63f770074360e01b5f5260045ffd5b3461066d57602036600319011261066d57600435610fd261522d565b610fdb8161524b565b815f52600560205260405f2060018060a01b0382165f5260205260ff60405f205416156105ed5761100c90826152d1565b156105de57611019615352565b805f52600360205260405f206001810163ffffffff815460381c168015611370574211156113705760ff825460e01c166007811015806106295781158015611364575b61061a57847f77ff69c1f99cadd93a6da75080e20a3fed43f1d42375051a5d162adcafc5fbb760206040516110918187614d5c565ba261062957600181036111bb57505050805f52600360205260405f20600181018260ff825460101c16815f52600460205260405f20548110611146575b50506110f76110ec6110e660ff845460101c166151cc565b85615d72565b91610b2b8382614e90565b825f52600460205260ff60405f205491161015611117575b505060015f55005b54600260f89190911c106111355761112e90615db4565b808061110f565b611141906107ee615111565b61112e565b608061116b5f5160206163395f395f51905f5292845f52600460205260405f20614b98565b50546001600160a01b03166111808185615c36565b60405190815260406020820152601660408201527554696d656f757420647572696e672073687566666c6560501b6060820152a282846110ce565b600281036112e457505090805f52600460205260405f20905f5b825460ff821610156112bd5780600260036111f36112009487614b98565b5001541661120557614e08565b6111d5565b602060036112138387614b98565b5001541615600160036112268488614b98565b500154161581156112b5575b5015614e08576112566112458286614b98565b50546001600160a01b031684615c36565b825f5160206163395f395f51905f5260806112718488614b98565b5054604080516001600160a01b0390921682526020820181905260159082015274151a5b595bdd5d08191d5c9a5b99c81c995d99585b605a1b6060820152a2614e08565b905086611232565b5091600291505460f81c10155f146112d85761080590615934565b610805906107ee615111565b600481036112f857505050610805906153c4565b6005810361130c57505050610805906159cd565b60031461131c575b50505061058c565b815460ff60e01b1916600160e21b17909155805460ff60601b1916815561134b9063ffffffff610b4942614fc0565b5f5160206162d95f395f51905f525f80a2808080611314565b50505f6006821461105c565b63489e8c8960e01b5f5260045ffd5b3461066d5761138d36614d22565b915f52600960205260405f209060018060a01b03165f5260205260405f209060018060a01b03165f526020526113dc6113c860405f20614c5e565b604051918291602083526020830190614cfe565b0390f35b3461066d57604036600319011261066d576114166004356113ff614b56565b9061141161140c82614f7c565b6157ea565b6158b0565b005b3461066d57604036600319011261066d57611431614b56565b6004355f908152600a602090815260408083206001600160a01b039485168452825291829020549151919092168152f35b3461066d57602036600319011261066d576004355f52601160205260405f2080549061148d82614f8e565b9161149b6040519384614c3b565b8083526020830180925f5260205f205f915b83831061154557848660405191829160208301906020845251809152604083019060408160051b85010192915f905b8282106114eb57505050500390f35b919360019193955060208091603f1989820301855287519060406115188351606084526060840190614cfe565b9263ffffffff85820151168584015281878060a01b039101511691015296019201920185949391926114dc565b6002602060019260405161155881614c20565b61156186614c5e565b81528486015463ffffffff811684830152858060a01b0390841c1660408201528152019201920191906114ad565b3461066d5761159d36614b82565b6115a561522d565b6115ae8261524b565b825f52600560205260405f2060018060a01b0382165f5260205260ff60405f205416156105ed576115df90836152d1565b156105de57815f52600360205263ffffffff600160405f20015460381c16151580611780575b61063d57611611615352565b61161a8261524b565b90825f52600360205260405f209160ff835460e01c1660078110156106295760050361061a5761164a8185615316565b6117715761175960017f3cf64897479c2ba314a5a0e8cf3a0e097d9367de65da54961e4dc414836499009460405161168181614c20565b85815260208101905f82526116d684604083019263ffffffff421684528b5f52600c60205260405f20828060a01b038a165f5260205260405f20905181550192511515839060ff801983541691151516179055565b5164ffffffff0082549160081b169064ffffffff001916179055865f52600660205260405f20828060a01b0385165f52602052600361172760ff60405f205416895f52600460205260405f20614b98565b500163ffffffff600881835416171663ffffffff198254161790550161175360ff825460681c16614e08565b90614f08565b61176860405192839283614fa5565b0390a260015f55005b6317fd8aab60e31b5f5260045ffd5b50815f52600360205263ffffffff600160405f20015460381c164211611605565b3461066d57606036600319011261066d576004356024356001600160401b03811161066d576117d4903690600401614dbc565b6044356001600160401b03811161066d576117f3903690600401614dbc565b90926117fd61522d565b6118068561524b565b855f52600560205260405f2060018060a01b0382165f5260205260ff60405f205416156105ed5761183790866152d1565b156105de57845f52600360205263ffffffff600160405f20015460381c16151580611b4f575b61063d57611869615352565b6118728561524b565b93855f52600360205260405f2060ff815460e01c1660078110156106295760020361061a57838503611b405760328511610d4457865f52600660205260405f2060018060a01b0387165f52602052602060036118df60ff60405f2054168a5f526004845260405f20614b98565b50015416611b315793946001600160a01b0316935f5b86811015611a5b576001600160a01b03600582901b858101359182169182900361066d57895f52600560205260405f20825f5260205260ff60405f205416156105ed57878214611a4c5786831015611a3857611953908501856150df565b90918a5f52600960205260405f20895f5260205260405f20905f5260205260405f209160018060401b038211610c8457611997826119918554614bb1565b85615056565b5f90601f83116001146119d05791806119bc9260019695945f926119c5575050615099565b90555b016118f5565b013590508d80610bf6565b601f19831691845f5260205f20925f5b818110611a20575091600196959492918388959310611a07575b505050811b0190556119bf565b01355f19600384901b60f8161c191690558c80806119fa565b919360206001819287870135815501950192016119e0565b634e487b7160e01b5f52603260045260245ffd5b637f043f9b60e01b5f5260045ffd5b878260ff88835f52600660205260405f20815f526020526003611a8f8360405f205416865f52600460205260405f20614b98565b500163ffffffff602081835416171663ffffffff19825416179055837f9204f1001d8059e799b3a233fa5114eab3b5d30762de3ff4e07fcd7e6266aad160206001860193611aeb611ae587875460781c16614e08565b86614f42565b604051908152a25460781c16905460f81c14611b075760015f55005b7ff6b9b3035e320bcce495d00c2d31a7bd341754f7b9919a4a736388e16ef674a55f80a28061058c565b6387db46a560e01b5f5260045ffd5b634ec4810560e11b5f5260045ffd5b50845f52600360205263ffffffff600160405f20015460381c16421161185d565b3461066d57602036600319011261066d576001600160a01b03611b91614b6c565b165f526016602052608060405f2060ff60018254920154166040519160018060a01b038116835263ffffffff8160a01c16602084015260c01c604083015215156060820152f35b3461066d57604036600319011261066d576004356024356001600160401b03811161066d57611c0b903690600401614d82565b611c1692919261522d565b611c1f8261524b565b825f52600560205260405f2060018060a01b0382165f5260205260ff60405f205416156105ed57611c5090836152d1565b156105de57611c5d615352565b611c668261524b565b92825f52600360205260ff60405f205460e01c1660078110156106295760050361061a57825f52601060205260405f2060018060a01b0385165f5260205260405f20541561060b576104008211610d4457611cc1848461536d565b825f52601160205260405f209060405194611cdb86614c20565b611ce636858461500a565b86524263ffffffff16602087019081526001600160a01b0390911660408701818152845491949091600160401b811015610c8457611d2991600182018155614d69565b979097611e7f575180519097906001600160401b038111610c8457611d5881611d528454614bb1565b84615056565b6020601f8211600114611dff57600161176896959493611d978463ffffffff9586955f5160206162b95f395f51905f529e9f5f92611df4575050615099565b81555b9451940180549351600160201b600160c01b03199290951692909216166001600160c01b031990921691909117602092831b600160201b600160c01b03161790556040805194855290840181905292938493840191614fcf565b015190508f80610bf6565b601f19821699835f52815f209a5f5b818110611e675750936001845f5160206162b95f395f51905f529c9d63ffffffff9695839588976117689d9c9b9a10611e4f575b505050811b018155611d9a565b01515f1960f88460031b161c191690558e8080611e42565b838301518d556001909c019b60209384019301611e0e565b634e487b7160e01b5f525f60045260245ffd5b3461066d575f36600319011261066d57602060405160328152f35b3461066d57606036600319011261066d57600435602435600581101561066d576044356001600160401b03811161066d57611eec903690600401614d82565b611ef792919261522d565b611f008461524b565b845f52600560205260405f2060018060a01b0382165f5260205260ff60405f205416156105ed57611f3190856152d1565b156105de57611f3e615352565b611f478461524b565b92845f52600f60205260405f2060018060a01b0385165f5260205260ff60405f20541660058110156106295761217a57845f52601060205260405f2060018060a01b0385165f5260205260405f20541561060b576040821161216b57611fcf61048b916040519283916020830195611fbf8789614dec565b6040808501526060840191614fcf565b519020835f52601060205260405f2060018060a01b0384165f5260205260405f20540361215c57825f52600f60205260405f2060018060a01b0383165f5260205260405f2060ff1981541660ff8316179055827f9b013793e3fbc06d6ff5e9b6ce06be7c635e957579a85ae6b262b85b13ecd874604051806120528587836150bf565b0390a2825f52600660205260405f2060018060a01b0383165f526020526080600361208f60ff60405f205416865f52600460205260405f20614b98565b50015416151580612151575b6120a55760015f55005b81837f7f1edd8653eda945bad547f4f89adfa659b5f748dc9d88a447ff44550d7210be6120f360a0946120e65f5160206162f95f395f51905f529785615c36565b60405191829186836150bf565b0390a260405190600180841b0316815260406020820152602860408201527f55736564206d616669612066756e6374696f6e732077697468206e6f6e2d6d6160608201526766696120726f6c6560c01b6080820152a280808061058c565b50600181141561209b565b63134fed2d60e01b5f5260045ffd5b63bf1ad44360e01b5f5260045ffd5b63fd8fd76760e01b5f5260045ffd5b3461066d57604036600319011261066d576121a2614b56565b6004355f52601260205260405f209060018060a01b03165f52602052606060405f2060ff6001825492015460405192835260018060a01b038116602084015260a01c1615156040820152f35b3461066d575f36600319011261066d5760206040515f8152f35b3461066d5761221636614b82565b905f52600860205260405f20805482101561066d576113dc916113c8915f5260205f2001614c5e565b3461066d57602036600319011261066d57335f908152601760205260409020546001600160a01b0316600435811561254b575b90815f52600460205260405f20905f5f908354915b8260ff8216106124ba575060ff169161229f83614f8e565b936122ad6040519586614c3b565b8385526122b984614f8e565b602086019690601f19013688376122cf85614f8e565b946122dd6040519687614c3b565b8086526122ec601f1991614f8e565b015f5b8181106124a75750505f915f5b8560ff8216106123b057888888604051928392604084019060408552518091526060840191905f5b81811061238e575050508281036020840152815180825260208201916020808360051b8301019401925f915b83831061235d5786860387f35b91939550919360208061237c600193601f198682030187528951614cfe565b97019301930190928695949293612350565b82516001600160a01b0316845286955060209384019390920191600101612324565b876123bf82849b999a9b614b98565b50546001600160a01b0390811690871681141580612468575b6123f1575b50506123e890614e08565b979695976122fc565b9461245861245e92876123e8959861240d60ff861680946150ab565b52875f52600960205260405f209060018060a01b03165f5260205260405f2060018060a01b038a165f526020528b6124518261244b60405f20614c5e565b926150ab565b528b6150ab565b50614e08565b939050888a6123dd565b505f8581526009602090815260408083206001600160a01b038581168552908352818420908b1684529091529020546124a090614bb1565b15156123d8565b60606020828901810191909152016122ef565b6124c78186979597614b98565b50546001600160a01b03878116911690811415908161250d575b506124f8575b6124f090614e08565b949294612287565b906125056124f091614e08565b9190506124e7565b5f8681526009602090815260408083206001600160a01b0394851684528252808320938b16835292905220546125439150614bb1565b1515876124e1565b339150612272565b3461066d57604036600319011261066d5761256c614b56565b6004355f52600260205260405f209060018060a01b03165f52602052602060ff60405f2054166040519015158152f35b3461066d57602036600319011261066d576060600435805f52601360205260ff60405f20541690805f52601460205260ff60405f205416905f52601560205260018060a01b0360405f2054169060405192835260208301526040820152f35b3461066d57604036600319011261066d57612614614b56565b6004355f52601060205260405f209060018060a01b03165f52602052602060405f2054604051908152f35b3461066d575f36600319011261066d5761265761578e565b61265f615352565b600160ff19815416176001557f62e78cea01bee320cd4e420270b5ea74000d11b0c9f74754ebdbfc544b05a2586020604051338152a1337f7c83004a7e59a8ea03b200186c4dda29a4e144d9844d63dbc1a09acf7dfcd4855f80a2005b3461066d57604036600319011261066d576126d5614b56565b6004355f52600660205260405f209060018060a01b03165f52602052602060ff60405f205416604051908152f35b3461066d57602036600319011261066d576004355f526013602052602060ff60405f205416604051908152f35b3461066d575f36600319011261066d57602060405161012c8152f35b3461066d575f36600319011261066d5760206040515f5160206163595f395f51905f528152f35b608036600319011261066d576004356024356001600160401b03811161066d576127a1903690600401614d82565b906044356001600160401b03811161066d576127c1903690600401614d82565b6064356001600160a01b0381169492919085900361066d576127e161522d565b6127e9615352565b855f52600360205260405f2091825460ff8160e01c1660078110156106295761061a5760ff808260e81c169160f01c161015612dd6575f87815260056020908152604080832033845290915290205460ff16612dc85760208411612db95760808211612daa57865f52600460205260ff60405f20541691875f52600460205260405f209061289a6040519361287d85614c05565b33855261288b36898b61500a565b9260208601938452369161500a565b90604084019182526060840192600284528054600160401b811015610c84576128c891600182018155614b98565b949094611e7f575184546001600160a01b0319166001600160a01b039190911617845551805160018501916001600160401b038211610c845761290f826119918554614bb1565b602090601f8311600114612d475761293092915f9183612d3c575050615099565b90555b51805160028401916001600160401b038211610c8457612957826119918554614bb1565b602090601f8311600114612cc9579363ffffffff93612989846003958795612a1e9c9b9a995f92612cbe575050615099565b90555b51169201911663ffffffff19825416179055865f52600560205260405f2060018060a01b0333165f5260205260405f20600160ff19825416179055865f52600660205260405f2060018060a01b0333165f5260205260ff60405f20911660ff19825416179055612a0b612a0560ff835460f01c16614e08565b82614e50565b612a18815460f81c614e08565b90614e6d565b82158015612a76575b507f3b7d84e02e9f6642b42e0ca3e77297f9c7c807832a60c0fc1926ade76abc7bad92612a67604051938493338552606060208601526060850191614fcf565b9060408301520390a260015f55005b611a4c57825f52601860205260ff60405f205416612caf575f838152601760205260409020546001600160a01b0316612caf57335f52601660205260ff600160405f20015416612c69575b6138404201804211612c555763ffffffff849116612b6b604051612ae481614c05565b83815260208082018481526001600160401b038a166040808501918252600160608601818152335f90815260169096529190942094519251915160a09290921b63ffffffff60a01b166001600160a01b039093169290921760c09190911b6001600160c01b031916178355519101805460ff9215159290921660ff19909216919091179055565b5f82815260176020908152604080832080546001600160a01b031916339081179091556018835292819020805460ff1916600117905580518981529182019390935290917f290e52799b1ac63207e28c21f7f1f387cf8ea9257dde8e363a02e157d8e4c65891a334612bde575b84612a27565b5f80808034875af13d15612c50573d612bf681614fef565b90612c046040519283614c3b565b81525f60203d92013e5b612bd85760405162461bcd60e51b81526020600482015260166024820152752330b4b632b2103a3790333ab7321039b2b9b9b4b7b760511b6044820152606490fd5b612c0e565b634e487b7160e01b5f52601160045260245ffd5b335f908152601660209081526040808320546001600160a01b031683526017825280832080546001600160a01b031916905560189091529020805460ff19169055612ac1565b631fef749360e21b5f5260045ffd5b015190505f80610bf6565b90601f19831691845f52815f20925f5b818110612d2457508463ffffffff969294612a1e9b9a999894889660039860019510612d0d575b505050811b01905561298c565b01515f1983891b60f8161c191690558f8080612d00565b92936020600181928786015181550195019301612cd9565b015190508d80610bf6565b90601f19831691845f52815f20925f5b818110612d925750908460019594939210612d7a575b505050811b019055612933565b01515f1960f88460031b161c191690558c8080612d6d565b92936020600181928786015181550195019301612d57565b63450bc0a760e01b5f5260045ffd5b636f6003c360e01b5f5260045ffd5b621d934160e11b5f5260045ffd5b63bc42480360e01b5f5260045ffd5b3461066d57602036600319011261066d576004355f526015602052602060018060a01b0360405f205416604051908152f35b3461066d57602036600319011261066d575f6101c0604051612e3881614be9565b8281528260208201528260408201528260608201528260808201528260a08201528260c08201528260e08201528261010082015282610120820152826101408201528261016082015282610180820152826101a082015201526004355f52600360205260405f2060405190612eac82614be9565b80546001600160401b0381168352604081811c6001600160a01b031660208501908152939192908201919060e084901c60ff16600781101561062957835260608201908460e81c60ff16825260808301908560f01c60ff16825260a084019560f81c8652600101549460c0840161ffff8716815260e085018760101c60ff1681526101008601918860181c63ffffffff1683526101208701938960381c63ffffffff1685526101408801958a60581c60ff1687526101608901978b60601c60ff1689526101808a01998c60681c60ff168b526101a081019b8d60701c60ff168d526101c08201809e60781c60ff1690526040519e8f92600160401b600190039051168352600160a01b6001900390511660208301525190604001612fcf91614d5c565b5160ff1660608d01525160ff1660808c01525160ff1660a08b01525161ffff1660c08a01525160ff1660e08901525163ffffffff166101008801525163ffffffff166101208701525160ff166101408601525160ff166101608501525160ff166101808401525160ff166101a08301525160ff166101c08201526101e090f35b3461066d57602036600319011261066d576004355f526014602052602060ff60405f205416604051908152f35b3461066d57604036600319011261066d57613095614b56565b6004355f52600d60205260405f209060018060a01b03165f52602052602060ff60405f205416610ebc6040518092614daf565b3461066d57604036600319011261066d576130e1614b56565b6004355f52600560205260405f209060018060a01b03165f52602052602060ff60405f2054166040519015158152f35b3461066d57608036600319011261066d57600435602435600481101561066d57604435906001600160a01b03821680830361066d576064356001600160401b03811161066d57613165903690600401614d82565b61317092919261522d565b6131798661524b565b865f52600560205260405f2060018060a01b0382165f5260205260ff60405f205416156105ed576131aa90876152d1565b156105de57855f52600360205263ffffffff600160405f20015460381c1615158061349d575b61063d576131dc615352565b6131e58661524b565b92865f52600360205260405f209560ff875460e01c1660078110156106295760050361061a57875f52600660205260405f2060018060a01b0386165f526020526010600361324560ff60405f2054168b5f52600460205260405f20614b98565b5001541661348e57600186146134805761325f8589615316565b156134715785151580613468575b613434575b506132a561048b91604051928391602083019561328f878b614daf565b8760408501526060808501526080840191614fcf565b519020855f52600c60205260405f2060018060a01b0384165f5260205260405f205403610d5357606085927fefeac4ab688c036b72571c6adaf81feb0d4e0a7099c1cfd8d09e54370198c53c926133fa600160ff98875f52600c60205260405f20828060a01b0386165f526020528160405f2001828b19825416179055875f52600d60205260405f20828060a01b0386165f5260205260405f208a198154168b8b16179055875f52600e60205260405f20828060a01b0386165f5260205260405f2084838060a01b0319825416179055875f52600660205260405f20828060a01b0386165f5260205260036133ab8b60405f2054168a5f52600460205260405f20614b98565b500163ffffffff601081835416171663ffffffff1982541617905501966133e06133da8a8a5460701c16614e08565b89614f25565b6040516001600160a01b0390941684526020840190614daf565b6040820152a254818160681c1691829160701c1614908161342a575b506134215760015f55005b610b9a906159cd565b9050151582613416565b875f52600560205260405f20845f5260205260ff60405f205416156105ed5761345d90886152d1565b156105de5787613272565b5083151561326d565b63205e472d60e21b5f5260045ffd5b6282b42960e81b5f5260045ffd5b63a89ac15160e01b5f5260045ffd5b50855f52600360205263ffffffff600160405f20015460381c1642116131d0565b3461066d57604036600319011261066d576134d7614b56565b6004355f52600b60205260405f209060018060a01b03165f52602052602060ff60405f205416604051908152f35b3461066d575f36600319011261066d57602060405160788152f35b3461066d57604036600319011261066d5760e06003613576600435613543614b56565b815f52600660205260405f209060018060a01b03165f5260205260ff60405f205416905f52600460205260405f20614b98565b50015460806040519160028116151583526001811615156020840152600481161515604084015260088116151560608401526010811615158284015260208116151560a084015216151560c0820152f35b3461066d575f36600319011261066d57602060ff600154166040519015158152f35b3461066d57604036600319011261066d57613602614b56565b6004355f52600760205260405f209060018060a01b03165f526020526040805f2060ff6002825492015416825191825215156020820152f35b3461066d57602036600319011261066d5760043561365761522d565b6136608161524b565b815f52600560205260405f2060018060a01b0382165f5260205260ff60405f205416156105ed5761369190826152d1565b156105de57805f52600360205263ffffffff600160405f20015460381c16151580613822575b61063d576136c3615352565b6136cc8161524b565b815f52600360205260405f209060ff825460e01c1660078110156106295760020361061a57825f52600660205260405f2060018060a01b0382165f526020526001600361372b60ff60405f205416865f52600460205260405f20614b98565b5001541661348e5760ff90835f52600660205260405f2060018060a01b0382165f52602052600361376d8360405f205416865f52600460205260405f20614b98565b500163ffffffff600181835416171663ffffffff19825416179055837f82b52ddf0195aa8ac16480985f5042052aa742563721520fa34764d253824d43602060018601936137c96137c387875460581c16614e08565b86614eeb565b6040516001600160a01b039091168152a25460581c16905460f81c146137ef5760015f55005b6137f881615934565b7f54ccd98022ba3fd547cb241a4f3dfc13e7f9bb54550b7babf4080021c6c2f1265f80a28061058c565b50805f52600360205263ffffffff600160405f20015460381c1642116136b7565b3461066d57602036600319011261066d576001600160a01b03613864614b6c565b165f526017602052602060018060a01b0360405f205416604051908152f35b3461066d575f36600319011261066d57335f52601660205260405f20600181019060ff8254166138af57005b80546001600160a01b031680337f744157ccffbd293a2e8644928cd7d23d650f869b88f72d7bfea8041b76ca6bec5f80a35f90815260176020908152604080832080546001600160a01b031916905592546001600160a01b031682526018905220805460ff199081169091558154169055005b3461066d57602036600319011261066d576004355f52600460205260405f2080549061394d82614f8e565b9161395b6040519384614c3b565b8083526020830180925f5260205f205f915b838310613a1957848660405191829160208301906020845251809152604083019060408160051b85010192915f905b8282106139ab57505050500390f35b919360019193955060208091603f19898203018552875190848060a01b038251168152606063ffffffff81613a026139f0878701516080898801526080870190614cfe565b60408701518682036040880152614cfe565b94015116910152960192019201859493919261399c565b60046020600192604051613a2c81614c05565b848060a01b038654168152613a42858701614c5e565b83820152613a5260028701614c5e565b604082015263ffffffff600387015416606082015281520192019201919061396d565b3461066d57613a8336614b82565b613a8b61522d565b613a948261524b565b825f52600560205260405f2060018060a01b0382165f5260205260ff60405f205416156105ed57613ac590836152d1565b156105de57815f52600360205263ffffffff600160405f20015460381c16151580613c56575b61063d57613af7615352565b613b008261524b565b90825f52600360205260405f2060ff815460e01c1660078110156106295760010361061a57613b4690845f52600460205260ff600160405f2092015460101c1690614b98565b50546001600160a01b0390811690831603613c4757825f52600660205260405f2060018060a01b0383165f5260205260406003613b9360ff835f205416865f526004602052835f20614b98565b50015416611771575f8381526007602090815260408083206001600160a01b038616808552908352818420858155600201805460ff191690558684526006835281842090845282528083205486845260049092529091207ffbabe9c4a6257c269f37e649a08003e579b119fcff47ac57e59d1502fccea41c9391600391613c1d9160ff1690614b98565b500163ffffffff604081835416171663ffffffff1982541617905561176860405192839283614fa5565b631cc191eb60e31b5f5260045ffd5b50815f52600360205263ffffffff600160405f20015460381c164211613aeb565b3461066d57613c8536614b82565b613c8d61522d565b613c968261524b565b825f52600560205260405f2060018060a01b0382165f5260205260ff60405f205416156105ed57613cc790836152d1565b156105de57815f52600360205263ffffffff600160405f20015460381c16151580613dfb575b61063d57613cf9615352565b613d028261524b565b90825f52600360205260ff60405f205460e01c1660078110156106295760050361061a57825f52601060205260405f2060018060a01b0383165f5260205260405f20541561060b57825f52601260205260405f2060018060a01b0383165f5260205260405f2054613dec5781613d997ff5adb2642a216ea3114d73daac494b2341695b10db2b0e6be988acb22fbc1564938561536d565b835f52601260205260405f2060018060a01b0382165f526020528160405f2055835f52601360205260405f2060ff613dd381835416614e08565b1660ff1982541617905561176860405192839283614fa5565b6317ac735560e11b5f5260045ffd5b50815f52600360205263ffffffff600160405f20015460381c164211613ced565b3461066d575f36600319011261066d57613e3461578e565b60015460ff811615613e985760ff19166001557f5db9ee0a495bf2e6ff9c91a7834c1ba4fdd244a5e8aa4e537bd38aeae4b073aa6020604051338152a1337f306ca22c455fe433ebbf0542bbf947ea6a725495f9e1043db2a47e3c579403855f80a2005b638dfc202b60e01b5f5260045ffd5b3461066d57602036600319011261066d576001600160a01b03613ec8614b6c565b165f526018602052602060ff60405f2054166040519015158152f35b3461066d575f36600319011261066d5760206040516138408152f35b3461066d57602036600319011261066d57600435613f1c61522d565b613f258161524b565b815f52600560205260405f2060018060a01b0382165f5260205260ff60405f205416156105ed57613f5690826152d1565b156105de57613f63615352565b805f52600360205260405f2060ff815460e01c1660078110156106295760030361061a57805460ff60e01b1916600160e21b178155600101805460ff60601b19168155613fb89063ffffffff610b4942614fc0565b805f52600460205260405f205f5b815460ff8216101561408d5780613fe06140599284614b98565b50546001600160a01b03166003613ff78386614b98565b5001805463fffffffb811663ffffffff199091161790555f858152600a602090815260408083206001600160a01b0385168452909152902080546001600160a01b03191690556002600361404b8487614b98565b5001541661405e5750614e08565b613fc6565b5f858152600b602090815260408083206001600160a01b03909416835292905220805460ff1916905584612458565b825f5160206162d95f395f51905f525f80a260015f55005b3461066d576140b336614b82565b6140bb61522d565b6140c48261524b565b825f52600560205260405f2060018060a01b0382165f5260205260ff60405f205416156105ed576140f590836152d1565b156105de57614102615352565b61410b8261524b565b90825f52600360205260ff60405f205460e01c1660078110156106295760020361061a57825f52601060205260405f2060018060a01b0383165f5260205260405f20546141a3577ff33c1bd762b898b33040e70f49cf90ff496cf7366f6fafa9d961b0de89b7244b91835f52601060205260405f2060018060a01b0382165f526020528160405f205561176860405192839283614fa5565b630890382360e21b5f5260045ffd5b3461066d57604036600319011261066d576141cb614b56565b336001600160a01b038216036141e757611416906004356158b0565b63334bd91960e11b5f5260045ffd5b3461066d5761420436614b82565b905f52601160205260405f20805482101561066d576142499161422691614d69565b50600161423282614c5e565b910154604051928392606084526060840190614cfe565b9063ffffffff8116602084015260018060a01b039060201c1660408301520390f35b3461066d57604036600319011261066d5761141660043561428a614b56565b9061429761140c82614f7c565b615824565b3461066d57602036600319011261066d576004355f52600860205260405f208054906142c782614f8e565b916142d56040519384614c3b565b8083526020830180925f5260205f205f915b83831061435457848660405191829160208301906020845251809152604083019060408160051b85010192915f905b82821061432557505050500390f35b919360019193955060206143448192603f198a82030186528851614cfe565b9601920192018594939192614316565b60016020819261436385614c5e565b8152019201920191906142e7565b3461066d57602036600319011261066d57602061438f600435614f7c565b604051908152f35b3461066d57602036600319011261066d576004355f5260036020526101e060405f2060ff600182549201546040519260018060401b038116845260018060a01b038160401c1660208501526143f460408501848360e01c16614d5c565b828160e81c166060850152828160f01c16608085015260f81c60a084015261ffff811660c0840152818160101c1660e084015263ffffffff8160181c1661010084015263ffffffff8160381c16610120840152818160581c16610140840152818160601c16610160840152818160681c16610180840152818160701c166101a084015260781c166101c0820152f35b3461066d57602036600319011261066d576004355f526003602052602063ffffffff600160405f20015460381c16604051908152f35b3461066d57602036600319011261066d5760043560ff811680820361066d576144e0615352565b600481108015614704575b6146f557601954915f198314612c5557600791600184016019555f80856040519361451585614be9565b60018060401b038216855260208501903382526040860190848252606087019081526080870185815260a0880186815260c0890198878a5260e081019188835261010082019363ffffffff421685526101208301958a87526101408401978b89526101608501998c8b5261018086019b8d8d526101a087019d8e526101c087019e8f525f52600360205260405f209560018060401b03905116865491600160401b600160e01b03905160401b169163ffffffff60e01b1617178555519e8f1015610629578354905161ffff60e01b1990911660e09f909f1b60ff60e01b169e909e1760e89e909e1b60ff60e81b169d909d1782559b518d9c9061461b9060ff1683614e50565b5160ff166146299082614e6d565b600101985161ffff1661ffff1661ffff198a54161789555160ff1661464e9089614e90565b5163ffffffff1661465f9088614ea8565b5163ffffffff166146709087614ec8565b5160ff1661467e9086614eeb565b5160ff1661468c9085614e19565b5160ff1661469a9084614f08565b5160ff166146a89083614f25565b5160ff166146b591614f42565b604051809133906146c69183614f5f565b037fac131287fe8417903d89f4eb472bc1d0da81641ef725569346dab6c2879a671791a2604051908152602090f35b6319413ccd60e11b5f5260045ffd5b50601481116144eb565b3461066d575f36600319011261066d57602060405160b48152f35b3461066d5761473736614b82565b905f52600460205260405f2090815481101561066d5761475691614b98565b5080546001600160a01b031661476e60018301614c5e565b916147b463ffffffff600361478560028501614c5e565b93015416916147a66040519586958652608060208701526080860190614cfe565b908482036040860152614cfe565b9060608301520390f35b3461066d575f36600319011261066d576020601954604051908152f35b3461066d57604036600319011261066d576004356147f7614b56565b6147ff61522d565b6148088261524b565b825f52600560205260405f2060018060a01b0382165f5260205260ff60405f205416156105ed5761483990836152d1565b156105de57815f52600360205263ffffffff600160405f20015460381c16151580614ae2575b61063d5761486b615352565b6148748261524b565b90825f52600360205260405f209160ff835460e01c1660078110156106295760040361061a57835f52600560205260405f2060018060a01b0383165f5260205260ff60405f205416156105ed576148cb82856152d1565b156105de5783917fcfff1651bcea794952a516ce970ab17518a85210bd939aaeaac670a8d3e65ec791835f52600660205260405f2060018060a01b0382165f526020526004600361492d60ff60405f205416875f528360205260405f20614b98565b5001545f868152600a602090815260408083206001600160a01b0387811685529252909120549290911615911680151580614ab8575b614a7c575b505f858152600a602090815260408083206001600160a01b03868116855290835281842080546001600160a01b0319169188169182179055888452600b83528184209084529091529020805460ff906149c2908216614e08565b1660ff19825416179055614a07575b6149e060405192839283614e36565b0390a260ff600182015460601c16905460f81c146149fe5760015f55005b610b9a906153c4565b835f52600660205260405f2060018060a01b0382165f526020526003614a3f60ff60405f205416865f52600460205260405f20614b98565b500163ffffffff600481835416171663ffffffff19825416179055614a7760018601614a7160ff825460601c16614e08565b90614e19565b6149d1565b855f52600b60205260405f209060018060a01b03165f5260205260405f2060ff614aa881835416614df9565b1660ff1982541617905587614968565b50855f52600b60205260405f2060018060a01b0382165f5260205260ff60405f2054161515614963565b50815f52600360205263ffffffff600160405f20015460381c16421161485f565b3461066d57602036600319011261066d576004359063ffffffff60e01b821680920361066d57602091637965db0b60e01b8114908115614b45575b5015158152f35b6301ffc9a760e01b14905083614b3e565b602435906001600160a01b038216820361066d57565b600435906001600160a01b038216820361066d57565b604090600319011261066d576004359060243590565b8054821015611a38575f5260205f209060021b01905f90565b90600182811c92168015614bdf575b6020831014614bcb57565b634e487b7160e01b5f52602260045260245ffd5b91607f1691614bc0565b6101e081019081106001600160401b03821117610c8457604052565b608081019081106001600160401b03821117610c8457604052565b606081019081106001600160401b03821117610c8457604052565b601f909101601f19168101906001600160401b03821190821017610c8457604052565b9060405191825f825492614c7184614bb1565b8084529360018116908115614cdc5750600114614c98575b50614c9692500383614c3b565b565b90505f9291925260205f20905f915b818310614cc0575050906020614c96928201015f614c89565b6020919350806001915483858901015201910190918492614ca7565b905060209250614c9694915060ff191682840152151560051b8201015f614c89565b805180835260209291819084018484015e5f828201840152601f01601f1916010190565b606090600319011261066d57600435906024356001600160a01b038116810361066d57906044356001600160a01b038116810361066d5790565b9060078210156106295752565b8054821015611a38575f5260205f209060011b01905f90565b9181601f8401121561066d578235916001600160401b03831161066d576020838186019501011161066d57565b9060048210156106295752565b9181601f8401121561066d578235916001600160401b03831161066d576020808501948460051b01011161066d57565b9060058210156106295752565b60ff168015612c55575f190190565b60ff1660ff8114612c555760010190565b805460ff60601b191660609290921b60ff60601b16919091179055565b6001600160a01b0391821681529116602082015260400190565b805460ff60f01b191660f09290921b60ff60f01b16919091179055565b80546001600160f81b031660f89290921b6001600160f81b031916919091179055565b9062ff000082549160101b169062ff00001916179055565b9066ffffffff00000082549160181b169066ffffffff0000001916179055565b805463ffffffff60381b191660389290921b63ffffffff60381b16919091179055565b805460ff60581b191660589290921b60ff60581b16919091179055565b805460ff60681b191660689290921b60ff60681b16919091179055565b805460ff60701b191660709290921b60ff60701b16919091179055565b805460ff60781b191660789290921b60ff60781b16919091179055565b6001600160a01b03909116815260ff909116602082015260400190565b5f526002602052600160405f20015490565b6001600160401b038111610c845760051b60200190565b6001600160a01b039091168152602081019190915260400190565b9061012c8201809211612c5557565b908060209392818452848401375f828201840152601f01601f1916010190565b6001600160401b038111610c8457601f01601f191660200190565b92919261501682614fef565b916150246040519384614c3b565b82948184528183011161066d578281602093845f960137010152565b81811061504b575050565b5f8155600101615040565b9190601f811161506557505050565b614c96925f5260205f20906020601f840160051c8301931061508f575b601f0160051c0190615040565b9091508190615082565b8160011b915f199060031b1c19161790565b8051821015611a385760209160051b010190565b6001600160a01b039091168152604081019291614c969160200190614dec565b903590601e198136030182121561066d57018035906001600160401b03821161066d5760200191813603831361066d57565b60405190615120604083614c3b565b6019825278546f6f2066657720706c61796572732072656d61696e696e6760381b6020830152565b90602083828152019060208160051b85010193835f915b83831061516f5750505050505090565b909192939495601f198282030186528635601e198436030181121561066d578301602081019190356001600160401b03811161066d57803603831361066d576151be6020928392600195614fcf565b98019601949301919061515f565b60ff60019116019060ff8211612c5557565b604051906151ed604083614c3b565b6009825268546f776e2077696e7360b81b6020830152565b60405190615214604083614c3b565b600a8252694d616669612077696e7360b01b6020830152565b60025f541461523c5760025f55565b633ee5aeb560e01b5f5260045ffd5b335f908152601760205260409020546001600160a01b0316908161526f5750503390565b815f52601660205260405f2060ff600182015416156152c2575463ffffffff8160a01c1642116152b35760c01c036152a45790565b637ce3c8fd60e11b5f5260045ffd5b630fe82d2560e11b5f5260045ffd5b635f8874dd60e11b5f5260045ffd5b61530d600391600293815f52600660205260405f209060018060a01b03165f5260205260ff60405f205416905f52600460205260405f20614b98565b50015416151590565b61530d600391600893815f52600660205260405f209060018060a01b03165f5260205260ff60405f205416905f52600460205260405f20614b98565b60ff6001541661535e57565b63d93c066560e01b5f5260045ffd5b6153a790600392815f52600660205260405f209060018060a01b03165f5260205260ff60405f205416905f52600460205260405f20614b98565b5001805463ffffffff19811663ffffffff91909116176080179055565b90815f5260036020528160405f205f905f90835f52600460205260405f205f908054915b8260ff821610615706575050505460f91c60ff821611806156f4575b156156d157816154225f5160206163195f395f51905f529385615c36565b835f5160206162f95f395f51905f52608060405160018060a01b0385168152604060208201526009604082015268159bdd1959081bdd5d60ba1b6060820152a261547160405192839283614f5f565b0390a25b815f52600460205260405f20915f5b835460ff82161015615518578061549e6155139286614b98565b50545f848152600a602090815260408083206001600160a01b0390941680845293825280832080546001600160a01b0319169055868352600b825280832093835292905220805460ff1916905560036154f78287614b98565b5001805463fffffffb811663ffffffff19909116179055614e08565b615484565b505f818152600360205260409020600101805460ff60601b19169055909150615540816161f3565b156155485750565b5f818152600360205260409020805460ff60e01b1916600560e01b178155600101805461ffff60681b191681556155879063ffffffff610b4942614fc0565b805f52600460205260405f205f5b815460ff8216101561566b57806155af6156669284614b98565b50546001600160a01b031660036155c68386614b98565b5001805463ffffffe7811663ffffffff199091161790555f858152600c602090815260408083206001600160a01b03949094168084529382528083208381556001908101849055888452600d83528184208585528352818420805460ff19169055888452600e8352818420858552835281842080546001600160a01b03191690558884526012835281842094845293909152812081815590910155614e08565b615595565b50505f818152601360209081526040808320805460ff1990811690915560148352818420805490911690556015909152812080546001600160a01b03191690557f34b0c4c95aa7776d35dbd8b24afd53388828c61c26fd5a6b11a21809662440879080a2565b50505f5160206163195f395f51905f52604080515f81525f6020820152a2615475565b506001600160a01b0382161515615404565b909192939495506002600361571b8385614b98565b50015416615739575b61572d90614e08565b908795949392916153e8565b6157438183614b98565b50545f898152600b602090815260408083206001600160a01b039094168084529390915290205460ff9081169087168111615780575b5050615724565b909650945061572d5f615779565b335f9081527fe5ebfa64fca8d502a8e50c1edffd2c31ef4dad5b396e65d9f397fb028f74abc5602052604090205460ff16156157c657565b63e2517d3f60e01b5f52336004525f5160206163595f395f51905f5260245260445ffd5b5f81815260026020908152604080832033845290915290205460ff161561580e5750565b63e2517d3f60e01b5f523360045260245260445ffd5b5f8181526002602090815260408083206001600160a01b038616845290915290205460ff166158aa575f8181526002602090815260408083206001600160a01b0395909516808452949091528120805460ff19166001179055339291907f2f8788117e7eff1d82e926ec794901d17c78024a50270940304540a733656f0d9080a4600190565b50505f90565b5f8181526002602090815260408083206001600160a01b038616845290915290205460ff16156158aa575f8181526002602090815260408083206001600160a01b0395909516808452949091528120805460ff19169055339291907ff6391f5c32d9c69d2a47ea670b442974b53935d1edc7fd64eb21e047a839171b9080a4600190565b5f818152600360205260409020805460ff60e01b1916600360e01b178155600101805461ffff90811691908214612c555761ffff6020918160017fa9b4e96158ed085745975f198fa026959997245ae7e7aed9cd0252ce02b2107195011682198254161781556159aa63ffffffff421682614ea8565b6159c263ffffffff6159bb42614fc0565b1682614ec8565b5416604051908152a2565b90815f5260156020528160018060a01b0360405f2054165f825f52600460205260405f205f908054905b8160ff841610615ba4575b505050827fb874a4c95be602274c8e6944d4d375ca4189eda377b69ee751f3b92dd4dcf2d860405180615a36858783614e36565b0390a28115159081615b90575b50615b41575b505f52600460205260405f20915f5b835460ff82161015615b075780615a72615b029286614b98565b50545f848152600c602090815260408083206001600160a01b03909416808452938252808320838155600101839055868352600d82528083208484528252808320805460ff19169055868352600e82528083209383529290522080546001600160a01b03191690556003615ae68287614b98565b5001805463ffffffe7811663ffffffff19909116179055614e08565b615a58565b505f818152600360205260409020600101805461ffff60681b19169055909150615b30816161f3565b15615b385750565b614c9690615934565b608081615b5c5f5160206162f95f395f51905f529385615c36565b60405190815260406020820152600f60408201526e12da5b1b195908185d081b9a59da1d608a1b6060820152a2815f615a49565b6001600160a01b031682141590505f615a43565b90919450615bb28582614b98565b50545f888152600d602090815260408083206001600160a01b039094168084529390915290205460ff1695906004871015610629576002899714615c015750615bfa90614e08565b91906159f7565b5f878152600e602090815260408083206001600160a01b03948516845290915281205490911694509250829150819050615a02565b90615c4181836152d1565b15615cb557815f52600660205260405f209060018060a01b03165f526020526003615c7e60ff60405f205416835f52600460205260405f20614b98565b500163ffffffff63fffffffd8254161663ffffffff198254161790555f526003602052614c9660405f20612a18815460f81c614df9565b5050565b5f81815260036020908152604091829020805460ff60e01b1916600360e11b178155600101805463ffffffff60381b19169055905181815291927fd778487128ba4386ebcfb2703af01f8a2a2b8663f880622d26a77a29397e68f392918291615d2491830190614cfe565b0390a2565b5f52600460205260405f2060ff815416905f5b8260ff821610615d4b57505090565b60026003615d598385614b98565b50015416615d6c5760010160ff16615d3c565b91505090565b5f52600460205260405f2060ff815416915b8260ff821610615d9357505090565b60026003615da18385614b98565b50015416615d6c5760010160ff16615d84565b5f818152600360205260409020805460ff60e01b1916600160e11b178155600101805464ff000000ff60581b19168155615df69063ffffffff610b4942614fc0565b5f52600460205260405f20905f5b825460ff82161015615e5c578060026003615e22615e2f9487614b98565b50015416615e3457614e08565b615e04565b6003615e408286614b98565b5001805463ffffff9e811663ffffffff19909116179055614e08565b509050565b805f52600460205260405f205f918154925b8360ff821610615e865750505050600190565b615e908184614b98565b50546001600160a01b031660026003615ea98487614b98565b50015416615ec1575b50615ebc90614e08565b615e73565b825f52600f60205260405f209060018060a01b03165f5260205260ff60405f20541660058110156106295715615ef7575f615eb2565b505050505f90565b905f5f92805f52600460205260405f205f918154925b8360ff821610615f55575050505060ff1680159081159081615f47575b509281615f3d575090565b60ff915016151590565b905060ff841611155f615f32565b615f5f8184614b98565b50546001600160a01b031660026003615f788487614b98565b50015416615f90575b50615f8b90614e08565b615f15565b825f96929652600f60205260405f209060018060a01b03165f5260205260ff60405f20541660058110156106295760018103615fdb5750615fd3615f8b91614e08565b945b90615f81565b90949060028114905f8215616028575b8215616017575b5050616002575b615f8b90615fd5565b9561600f615f8b91614e08565b969050615ff9565b909150610629576004145f80615ff2565b506003811491505f615feb565b805f52601360205260ff60405f205416156161f0575f81815260046020526040812080546001918390815b8360ff821610616101575b505050505f5160206163795f395f51905f52918180604093906160ef575b156160e857815b5f868152601560205284902080546001600160a01b0319166001600160a01b038516179055816160d5575b5082516001600160a01b03909216825215156020820152a2565b6001600160a01b0316151590505f6160bb565b5f91616090565b506001600160a01b0382161515616089565b61610b8183614b98565b50545f8881526012602090815260408083206001600160a01b03949094168084529390915290206001015460a01c60ff16806161d6575b616156575b5061615190614e08565b616060565b5f8881526012602090815260408083206001600160a01b0394851684529091529020600101549296919392169180616198575050936161516001925b90616147565b9095909290916001600160a01b038716036161b65761615190616192565b505050505060405f5160206163795f395f51905f52915f9181935f61606b565b50600260036161e58486614b98565b500154161515616142565b50565b805f52600360205260405f205460f81c6001811115616255575061621681615e61565b61621f57505f90565b61622881615eff565b9015616240575061623b906107ee615205565b600190565b61624957505f90565b61623b906107ee6151de565b61623b91906162835760405161626c604082614c3b565b60048152634472617760e01b602082015290615cb9565b604051616291604082614c3b565b60148152734c61737420706c61796572207374616e64696e6760601b602082015290615cb956fea4a46989ff60ad96ec74df0f289e1e16b51c97fecb224f2e8e927103d5b54eaecf33babc496bb6dc2942b39cb7b75766bbbadf7da50d176ff8c513e991140239b1ed64d561b0179e61c72bf46d0809a99dac99baeb98fc9f5d13be1f6c2e3f826b571d1c11516ea63adff1048766bdfa510e9c5bf4e32ca29d4ba11e16edf2f18ef7613b6eacaa71c74d950e2c093c23a0d3ecb066d1387d80e95159d07ed08ba49807205ce4d355092ef5a8a18f56e8913cf4a201fbe287825b095693c21775020f20553b51a906b0cb24d2431eb46bd2dc31b5c75d4ba8165ff1bb284ad2a1a2646970667358221220ff9f309af93096a0ce843c32667fc807b4ecd9c5e528729f5ddf428ced608a3d64736f6c634300081c00332f8788117e7eff1d82e926ec794901d17c78024a50270940304540a733656f0dac33ff75c19e70fe83507db0d683fd3465c996598dc972688b7ace676c89077be5ebfa64fca8d502a8e50c1edffd2c31ef4dad5b396e65d9f397fb028f74abc5",
  "linkReferences": {},
  "deployedLinkReferences": {},
  "immutableReferences": {},
  "inputSourceName": "project/contracts/MafiaPortalV4.sol",
  "buildInfoId": "solc-0_8_28-728f0bb0130a28dcea88b308be1a400870435c8c"
}