{
  "_format": "hh3-artifact-1",
  "contractName": "MafiaPortalV3",
  "sourceName": "contracts/MafiaPortalV3.sol",
  "abi": [
    {
      "inputs": [],
      "name": "AlreadyCommitted",
      "type": "error"
    },
    {
      "inputs": [],
      "name": "AlreadyJoined",
      "type": "error"
    },
    {
      "inputs": [],
      "name": "AlreadyRevealed",
      "type": "error"
    },
    {
      "inputs": [],
      "name": "AlreadySharedKeys",
      "type": "error"
    },
    {
      "inputs": [],
      "name": "AlreadyVoted",
      "type": "error"
    },
    {
      "inputs": [],
      "name": "InvalidArrayLength",
      "type": "error"
    },
    {
      "inputs": [],
      "name": "InvalidDeckSize",
      "type": "error"
    },
    {
      "inputs": [],
      "name": "InvalidReveal",
      "type": "error"
    },
    {
      "inputs": [],
      "name": "InvalidSessionKey",
      "type": "error"
    },
    {
      "inputs": [],
      "name": "NoStalledPlayers",
      "type": "error"
    },
    {
      "inputs": [],
      "name": "NotParticipant",
      "type": "error"
    },
    {
      "inputs": [],
      "name": "NotYourTurn",
      "type": "error"
    },
    {
      "inputs": [],
      "name": "PhaseDeadlinePassed",
      "type": "error"
    },
    {
      "inputs": [],
      "name": "PlayerInactive",
      "type": "error"
    },
    {
      "inputs": [],
      "name": "RoomFull",
      "type": "error"
    },
    {
      "inputs": [],
      "name": "SessionExpired",
      "type": "error"
    },
    {
      "inputs": [],
      "name": "SessionNotForThisRoom",
      "type": "error"
    },
    {
      "inputs": [],
      "name": "TimeNotExpired",
      "type": "error"
    },
    {
      "inputs": [],
      "name": "Unauthorized",
      "type": "error"
    },
    {
      "inputs": [],
      "name": "WrongPhase",
      "type": "error"
    },
    {
      "anonymous": false,
      "inputs": [
        {
          "indexed": true,
          "internalType": "uint256",
          "name": "roomId",
          "type": "uint256"
        }
      ],
      "name": "AllKeysShared",
      "type": "event"
    },
    {
      "anonymous": false,
      "inputs": [
        {
          "indexed": true,
          "internalType": "uint256",
          "name": "roomId",
          "type": "uint256"
        }
      ],
      "name": "AllRolesConfirmed",
      "type": "event"
    },
    {
      "anonymous": false,
      "inputs": [
        {
          "indexed": true,
          "internalType": "uint256",
          "name": "roomId",
          "type": "uint256"
        },
        {
          "indexed": false,
          "internalType": "uint256",
          "name": "dayNumber",
          "type": "uint256"
        }
      ],
      "name": "DayStarted",
      "type": "event"
    },
    {
      "anonymous": false,
      "inputs": [
        {
          "indexed": true,
          "internalType": "uint256",
          "name": "roomId",
          "type": "uint256"
        },
        {
          "indexed": false,
          "internalType": "address",
          "name": "byPlayer",
          "type": "address"
        },
        {
          "indexed": false,
          "internalType": "uint256",
          "name": "nextIndex",
          "type": "uint256"
        }
      ],
      "name": "DeckSubmitted",
      "type": "event"
    },
    {
      "anonymous": false,
      "inputs": [
        {
          "indexed": true,
          "internalType": "uint256",
          "name": "roomId",
          "type": "uint256"
        },
        {
          "indexed": false,
          "internalType": "string",
          "name": "winCondition",
          "type": "string"
        }
      ],
      "name": "GameEnded",
      "type": "event"
    },
    {
      "anonymous": false,
      "inputs": [
        {
          "indexed": true,
          "internalType": "uint256",
          "name": "roomId",
          "type": "uint256"
        }
      ],
      "name": "GameStarted",
      "type": "event"
    },
    {
      "anonymous": false,
      "inputs": [
        {
          "indexed": true,
          "internalType": "uint256",
          "name": "roomId",
          "type": "uint256"
        },
        {
          "indexed": false,
          "internalType": "address",
          "name": "from",
          "type": "address"
        }
      ],
      "name": "KeysSharedToAll",
      "type": "event"
    },
    {
      "anonymous": false,
      "inputs": [
        {
          "indexed": true,
          "internalType": "uint256",
          "name": "roomId",
          "type": "uint256"
        },
        {
          "indexed": false,
          "internalType": "address",
          "name": "player",
          "type": "address"
        }
      ],
      "name": "NightActionCommitted",
      "type": "event"
    },
    {
      "anonymous": false,
      "inputs": [
        {
          "indexed": true,
          "internalType": "uint256",
          "name": "roomId",
          "type": "uint256"
        },
        {
          "indexed": false,
          "internalType": "address",
          "name": "player",
          "type": "address"
        },
        {
          "indexed": false,
          "internalType": "enum MafiaPortalV3.NightActionType",
          "name": "action",
          "type": "uint8"
        }
      ],
      "name": "NightActionRevealed",
      "type": "event"
    },
    {
      "anonymous": false,
      "inputs": [
        {
          "indexed": true,
          "internalType": "uint256",
          "name": "roomId",
          "type": "uint256"
        },
        {
          "indexed": false,
          "internalType": "address",
          "name": "killed",
          "type": "address"
        },
        {
          "indexed": false,
          "internalType": "address",
          "name": "healed",
          "type": "address"
        }
      ],
      "name": "NightFinalized",
      "type": "event"
    },
    {
      "anonymous": false,
      "inputs": [
        {
          "indexed": true,
          "internalType": "uint256",
          "name": "roomId",
          "type": "uint256"
        }
      ],
      "name": "NightStarted",
      "type": "event"
    },
    {
      "anonymous": false,
      "inputs": [
        {
          "indexed": true,
          "internalType": "uint256",
          "name": "roomId",
          "type": "uint256"
        },
        {
          "indexed": false,
          "internalType": "enum MafiaPortalV3.GamePhase",
          "name": "phase",
          "type": "uint8"
        }
      ],
      "name": "PhaseTimeout",
      "type": "event"
    },
    {
      "anonymous": false,
      "inputs": [
        {
          "indexed": true,
          "internalType": "uint256",
          "name": "roomId",
          "type": "uint256"
        },
        {
          "indexed": false,
          "internalType": "address",
          "name": "player",
          "type": "address"
        },
        {
          "indexed": false,
          "internalType": "string",
          "name": "reason",
          "type": "string"
        }
      ],
      "name": "PlayerEliminated",
      "type": "event"
    },
    {
      "anonymous": false,
      "inputs": [
        {
          "indexed": true,
          "internalType": "uint256",
          "name": "roomId",
          "type": "uint256"
        },
        {
          "indexed": false,
          "internalType": "address",
          "name": "player",
          "type": "address"
        },
        {
          "indexed": false,
          "internalType": "string",
          "name": "nickname",
          "type": "string"
        },
        {
          "indexed": false,
          "internalType": "address",
          "name": "sessionKey",
          "type": "address"
        }
      ],
      "name": "PlayerJoined",
      "type": "event"
    },
    {
      "anonymous": false,
      "inputs": [
        {
          "indexed": true,
          "internalType": "uint256",
          "name": "roomId",
          "type": "uint256"
        },
        {
          "indexed": false,
          "internalType": "address",
          "name": "player",
          "type": "address"
        },
        {
          "indexed": false,
          "internalType": "string",
          "name": "reason",
          "type": "string"
        }
      ],
      "name": "PlayerKicked",
      "type": "event"
    },
    {
      "anonymous": false,
      "inputs": [
        {
          "indexed": true,
          "internalType": "uint256",
          "name": "roomId",
          "type": "uint256"
        },
        {
          "indexed": false,
          "internalType": "address",
          "name": "player",
          "type": "address"
        }
      ],
      "name": "RoleConfirmed",
      "type": "event"
    },
    {
      "anonymous": false,
      "inputs": [
        {
          "indexed": true,
          "internalType": "uint256",
          "name": "roomId",
          "type": "uint256"
        },
        {
          "indexed": false,
          "internalType": "address",
          "name": "host",
          "type": "address"
        },
        {
          "indexed": false,
          "internalType": "uint256",
          "name": "maxPlayers",
          "type": "uint256"
        }
      ],
      "name": "RoomCreated",
      "type": "event"
    },
    {
      "anonymous": false,
      "inputs": [
        {
          "indexed": true,
          "internalType": "address",
          "name": "mainWallet",
          "type": "address"
        },
        {
          "indexed": true,
          "internalType": "address",
          "name": "sessionKey",
          "type": "address"
        },
        {
          "indexed": false,
          "internalType": "uint256",
          "name": "roomId",
          "type": "uint256"
        },
        {
          "indexed": false,
          "internalType": "uint256",
          "name": "expiresAt",
          "type": "uint256"
        }
      ],
      "name": "SessionKeyRegistered",
      "type": "event"
    },
    {
      "anonymous": false,
      "inputs": [
        {
          "indexed": true,
          "internalType": "address",
          "name": "mainWallet",
          "type": "address"
        },
        {
          "indexed": true,
          "internalType": "address",
          "name": "sessionKey",
          "type": "address"
        }
      ],
      "name": "SessionKeyRevoked",
      "type": "event"
    },
    {
      "anonymous": false,
      "inputs": [
        {
          "indexed": true,
          "internalType": "uint256",
          "name": "roomId",
          "type": "uint256"
        },
        {
          "indexed": false,
          "internalType": "address",
          "name": "voter",
          "type": "address"
        },
        {
          "indexed": false,
          "internalType": "address",
          "name": "target",
          "type": "address"
        }
      ],
      "name": "VoteCast",
      "type": "event"
    },
    {
      "anonymous": false,
      "inputs": [
        {
          "indexed": true,
          "internalType": "uint256",
          "name": "roomId",
          "type": "uint256"
        },
        {
          "indexed": false,
          "internalType": "address",
          "name": "eliminated",
          "type": "address"
        },
        {
          "indexed": false,
          "internalType": "uint256",
          "name": "voteCount",
          "type": "uint256"
        }
      ],
      "name": "VotingFinalized",
      "type": "event"
    },
    {
      "anonymous": false,
      "inputs": [
        {
          "indexed": true,
          "internalType": "uint256",
          "name": "roomId",
          "type": "uint256"
        }
      ],
      "name": "VotingStarted",
      "type": "event"
    },
    {
      "inputs": [],
      "name": "DEFAULT_SESSION_FUND",
      "outputs": [
        {
          "internalType": "uint256",
          "name": "",
          "type": "uint256"
        }
      ],
      "stateMutability": "view",
      "type": "function"
    },
    {
      "inputs": [],
      "name": "PHASE_TIMEOUT",
      "outputs": [
        {
          "internalType": "uint32",
          "name": "",
          "type": "uint32"
        }
      ],
      "stateMutability": "view",
      "type": "function"
    },
    {
      "inputs": [],
      "name": "SESSION_DURATION",
      "outputs": [
        {
          "internalType": "uint32",
          "name": "",
          "type": "uint32"
        }
      ],
      "stateMutability": "view",
      "type": "function"
    },
    {
      "inputs": [],
      "name": "TURN_TIMEOUT",
      "outputs": [
        {
          "internalType": "uint32",
          "name": "",
          "type": "uint32"
        }
      ],
      "stateMutability": "view",
      "type": "function"
    },
    {
      "inputs": [
        {
          "internalType": "uint256",
          "name": "roomId",
          "type": "uint256"
        },
        {
          "internalType": "bytes32",
          "name": "hash",
          "type": "bytes32"
        }
      ],
      "name": "commitNightAction",
      "outputs": [],
      "stateMutability": "nonpayable",
      "type": "function"
    },
    {
      "inputs": [
        {
          "internalType": "uint256",
          "name": "roomId",
          "type": "uint256"
        }
      ],
      "name": "confirmRole",
      "outputs": [],
      "stateMutability": "nonpayable",
      "type": "function"
    },
    {
      "inputs": [
        {
          "internalType": "uint8",
          "name": "maxPlayers",
          "type": "uint8"
        }
      ],
      "name": "createRoom",
      "outputs": [
        {
          "internalType": "uint256",
          "name": "",
          "type": "uint256"
        }
      ],
      "stateMutability": "nonpayable",
      "type": "function"
    },
    {
      "inputs": [
        {
          "internalType": "uint256",
          "name": "roomId",
          "type": "uint256"
        }
      ],
      "name": "forcePhaseTimeout",
      "outputs": [],
      "stateMutability": "nonpayable",
      "type": "function"
    },
    {
      "inputs": [
        {
          "internalType": "uint256",
          "name": "roomId",
          "type": "uint256"
        }
      ],
      "name": "getAllKeysForMe",
      "outputs": [
        {
          "internalType": "address[]",
          "name": "senders",
          "type": "address[]"
        },
        {
          "internalType": "bytes[]",
          "name": "keys",
          "type": "bytes[]"
        }
      ],
      "stateMutability": "view",
      "type": "function"
    },
    {
      "inputs": [
        {
          "internalType": "uint256",
          "name": "roomId",
          "type": "uint256"
        }
      ],
      "name": "getDeck",
      "outputs": [
        {
          "internalType": "string[]",
          "name": "",
          "type": "string[]"
        }
      ],
      "stateMutability": "view",
      "type": "function"
    },
    {
      "inputs": [
        {
          "internalType": "uint256",
          "name": "roomId",
          "type": "uint256"
        },
        {
          "internalType": "address",
          "name": "from",
          "type": "address"
        },
        {
          "internalType": "address",
          "name": "to",
          "type": "address"
        }
      ],
      "name": "getKeyFromTo",
      "outputs": [
        {
          "internalType": "bytes",
          "name": "",
          "type": "bytes"
        }
      ],
      "stateMutability": "view",
      "type": "function"
    },
    {
      "inputs": [
        {
          "internalType": "uint256",
          "name": "roomId",
          "type": "uint256"
        }
      ],
      "name": "getPhaseDeadline",
      "outputs": [
        {
          "internalType": "uint32",
          "name": "",
          "type": "uint32"
        }
      ],
      "stateMutability": "view",
      "type": "function"
    },
    {
      "inputs": [
        {
          "internalType": "uint256",
          "name": "roomId",
          "type": "uint256"
        },
        {
          "internalType": "address",
          "name": "player",
          "type": "address"
        }
      ],
      "name": "getPlayerFlags",
      "outputs": [
        {
          "internalType": "bool",
          "name": "isActive",
          "type": "bool"
        },
        {
          "internalType": "bool",
          "name": "hasConfirmedRole",
          "type": "bool"
        },
        {
          "internalType": "bool",
          "name": "hasVoted",
          "type": "bool"
        },
        {
          "internalType": "bool",
          "name": "hasCommitted",
          "type": "bool"
        },
        {
          "internalType": "bool",
          "name": "hasRevealed",
          "type": "bool"
        },
        {
          "internalType": "bool",
          "name": "hasSharedKeys",
          "type": "bool"
        }
      ],
      "stateMutability": "view",
      "type": "function"
    },
    {
      "inputs": [
        {
          "internalType": "uint256",
          "name": "roomId",
          "type": "uint256"
        }
      ],
      "name": "getPlayers",
      "outputs": [
        {
          "components": [
            {
              "internalType": "address",
              "name": "wallet",
              "type": "address"
            },
            {
              "internalType": "string",
              "name": "nickname",
              "type": "string"
            },
            {
              "internalType": "bytes",
              "name": "publicKey",
              "type": "bytes"
            },
            {
              "internalType": "uint32",
              "name": "flags",
              "type": "uint32"
            }
          ],
          "internalType": "struct MafiaPortalV3.Player[]",
          "name": "",
          "type": "tuple[]"
        }
      ],
      "stateMutability": "view",
      "type": "function"
    },
    {
      "inputs": [
        {
          "internalType": "uint256",
          "name": "roomId",
          "type": "uint256"
        }
      ],
      "name": "getRoom",
      "outputs": [
        {
          "components": [
            {
              "internalType": "uint64",
              "name": "id",
              "type": "uint64"
            },
            {
              "internalType": "address",
              "name": "host",
              "type": "address"
            },
            {
              "internalType": "enum MafiaPortalV3.GamePhase",
              "name": "phase",
              "type": "uint8"
            },
            {
              "internalType": "uint8",
              "name": "maxPlayers",
              "type": "uint8"
            },
            {
              "internalType": "uint8",
              "name": "playersCount",
              "type": "uint8"
            },
            {
              "internalType": "uint8",
              "name": "aliveCount",
              "type": "uint8"
            },
            {
              "internalType": "uint16",
              "name": "dayCount",
              "type": "uint16"
            },
            {
              "internalType": "uint8",
              "name": "currentShufflerIndex",
              "type": "uint8"
            },
            {
              "internalType": "uint32",
              "name": "lastActionTimestamp",
              "type": "uint32"
            },
            {
              "internalType": "uint32",
              "name": "phaseDeadline",
              "type": "uint32"
            },
            {
              "internalType": "uint8",
              "name": "confirmedCount",
              "type": "uint8"
            },
            {
              "internalType": "uint8",
              "name": "votedCount",
              "type": "uint8"
            },
            {
              "internalType": "uint8",
              "name": "committedCount",
              "type": "uint8"
            },
            {
              "internalType": "uint8",
              "name": "revealedCount",
              "type": "uint8"
            },
            {
              "internalType": "uint8",
              "name": "keysSharedCount",
              "type": "uint8"
            }
          ],
          "internalType": "struct MafiaPortalV3.GameRoom",
          "name": "",
          "type": "tuple"
        }
      ],
      "stateMutability": "view",
      "type": "function"
    },
    {
      "inputs": [
        {
          "internalType": "address",
          "name": "mainWallet",
          "type": "address"
        }
      ],
      "name": "getSessionKey",
      "outputs": [
        {
          "internalType": "address",
          "name": "sessionAddress",
          "type": "address"
        },
        {
          "internalType": "uint256",
          "name": "expiresAt",
          "type": "uint256"
        },
        {
          "internalType": "uint256",
          "name": "roomId",
          "type": "uint256"
        },
        {
          "internalType": "bool",
          "name": "isActive",
          "type": "bool"
        }
      ],
      "stateMutability": "view",
      "type": "function"
    },
    {
      "inputs": [
        {
          "internalType": "uint256",
          "name": "",
          "type": "uint256"
        },
        {
          "internalType": "address",
          "name": "",
          "type": "address"
        }
      ],
      "name": "isPlayerInRoom",
      "outputs": [
        {
          "internalType": "bool",
          "name": "",
          "type": "bool"
        }
      ],
      "stateMutability": "view",
      "type": "function"
    },
    {
      "inputs": [
        {
          "internalType": "address",
          "name": "mainWallet",
          "type": "address"
        },
        {
          "internalType": "uint256",
          "name": "roomId",
          "type": "uint256"
        }
      ],
      "name": "isSessionValid",
      "outputs": [
        {
          "internalType": "bool",
          "name": "",
          "type": "bool"
        }
      ],
      "stateMutability": "view",
      "type": "function"
    },
    {
      "inputs": [
        {
          "internalType": "uint256",
          "name": "roomId",
          "type": "uint256"
        },
        {
          "internalType": "string",
          "name": "nickname",
          "type": "string"
        },
        {
          "internalType": "bytes",
          "name": "publicKey",
          "type": "bytes"
        },
        {
          "internalType": "address",
          "name": "sessionAddress",
          "type": "address"
        }
      ],
      "name": "joinRoom",
      "outputs": [],
      "stateMutability": "payable",
      "type": "function"
    },
    {
      "inputs": [],
      "name": "nextRoomId",
      "outputs": [
        {
          "internalType": "uint256",
          "name": "",
          "type": "uint256"
        }
      ],
      "stateMutability": "view",
      "type": "function"
    },
    {
      "inputs": [
        {
          "internalType": "uint256",
          "name": "",
          "type": "uint256"
        },
        {
          "internalType": "address",
          "name": "",
          "type": "address"
        }
      ],
      "name": "nightCommits",
      "outputs": [
        {
          "internalType": "bytes32",
          "name": "commitHash",
          "type": "bytes32"
        },
        {
          "internalType": "bool",
          "name": "revealed",
          "type": "bool"
        }
      ],
      "stateMutability": "view",
      "type": "function"
    },
    {
      "inputs": [
        {
          "internalType": "uint256",
          "name": "",
          "type": "uint256"
        },
        {
          "internalType": "address",
          "name": "",
          "type": "address"
        },
        {
          "internalType": "address",
          "name": "",
          "type": "address"
        }
      ],
      "name": "playerDeckKeys",
      "outputs": [
        {
          "internalType": "bytes",
          "name": "",
          "type": "bytes"
        }
      ],
      "stateMutability": "view",
      "type": "function"
    },
    {
      "inputs": [
        {
          "internalType": "uint256",
          "name": "",
          "type": "uint256"
        },
        {
          "internalType": "address",
          "name": "",
          "type": "address"
        }
      ],
      "name": "playerIndex",
      "outputs": [
        {
          "internalType": "uint8",
          "name": "",
          "type": "uint8"
        }
      ],
      "stateMutability": "view",
      "type": "function"
    },
    {
      "inputs": [
        {
          "internalType": "address",
          "name": "sessionAddress",
          "type": "address"
        },
        {
          "internalType": "uint256",
          "name": "roomId",
          "type": "uint256"
        }
      ],
      "name": "registerSessionKey",
      "outputs": [],
      "stateMutability": "payable",
      "type": "function"
    },
    {
      "inputs": [
        {
          "internalType": "uint256",
          "name": "roomId",
          "type": "uint256"
        },
        {
          "internalType": "enum MafiaPortalV3.NightActionType",
          "name": "action",
          "type": "uint8"
        },
        {
          "internalType": "address",
          "name": "target",
          "type": "address"
        },
        {
          "internalType": "string",
          "name": "salt",
          "type": "string"
        }
      ],
      "name": "revealNightAction",
      "outputs": [],
      "stateMutability": "nonpayable",
      "type": "function"
    },
    {
      "inputs": [
        {
          "internalType": "uint256",
          "name": "",
          "type": "uint256"
        },
        {
          "internalType": "address",
          "name": "",
          "type": "address"
        }
      ],
      "name": "revealedActions",
      "outputs": [
        {
          "internalType": "enum MafiaPortalV3.NightActionType",
          "name": "",
          "type": "uint8"
        }
      ],
      "stateMutability": "view",
      "type": "function"
    },
    {
      "inputs": [
        {
          "internalType": "uint256",
          "name": "",
          "type": "uint256"
        },
        {
          "internalType": "address",
          "name": "",
          "type": "address"
        }
      ],
      "name": "revealedTargets",
      "outputs": [
        {
          "internalType": "address",
          "name": "",
          "type": "address"
        }
      ],
      "stateMutability": "view",
      "type": "function"
    },
    {
      "inputs": [],
      "name": "revokeSessionKey",
      "outputs": [],
      "stateMutability": "nonpayable",
      "type": "function"
    },
    {
      "inputs": [
        {
          "internalType": "uint256",
          "name": "",
          "type": "uint256"
        },
        {
          "internalType": "uint256",
          "name": "",
          "type": "uint256"
        }
      ],
      "name": "roomDeck",
      "outputs": [
        {
          "internalType": "string",
          "name": "",
          "type": "string"
        }
      ],
      "stateMutability": "view",
      "type": "function"
    },
    {
      "inputs": [
        {
          "internalType": "uint256",
          "name": "",
          "type": "uint256"
        },
        {
          "internalType": "uint256",
          "name": "",
          "type": "uint256"
        }
      ],
      "name": "roomPlayers",
      "outputs": [
        {
          "internalType": "address",
          "name": "wallet",
          "type": "address"
        },
        {
          "internalType": "string",
          "name": "nickname",
          "type": "string"
        },
        {
          "internalType": "bytes",
          "name": "publicKey",
          "type": "bytes"
        },
        {
          "internalType": "uint32",
          "name": "flags",
          "type": "uint32"
        }
      ],
      "stateMutability": "view",
      "type": "function"
    },
    {
      "inputs": [
        {
          "internalType": "uint256",
          "name": "",
          "type": "uint256"
        }
      ],
      "name": "rooms",
      "outputs": [
        {
          "internalType": "uint64",
          "name": "id",
          "type": "uint64"
        },
        {
          "internalType": "address",
          "name": "host",
          "type": "address"
        },
        {
          "internalType": "enum MafiaPortalV3.GamePhase",
          "name": "phase",
          "type": "uint8"
        },
        {
          "internalType": "uint8",
          "name": "maxPlayers",
          "type": "uint8"
        },
        {
          "internalType": "uint8",
          "name": "playersCount",
          "type": "uint8"
        },
        {
          "internalType": "uint8",
          "name": "aliveCount",
          "type": "uint8"
        },
        {
          "internalType": "uint16",
          "name": "dayCount",
          "type": "uint16"
        },
        {
          "internalType": "uint8",
          "name": "currentShufflerIndex",
          "type": "uint8"
        },
        {
          "internalType": "uint32",
          "name": "lastActionTimestamp",
          "type": "uint32"
        },
        {
          "internalType": "uint32",
          "name": "phaseDeadline",
          "type": "uint32"
        },
        {
          "internalType": "uint8",
          "name": "confirmedCount",
          "type": "uint8"
        },
        {
          "internalType": "uint8",
          "name": "votedCount",
          "type": "uint8"
        },
        {
          "internalType": "uint8",
          "name": "committedCount",
          "type": "uint8"
        },
        {
          "internalType": "uint8",
          "name": "revealedCount",
          "type": "uint8"
        },
        {
          "internalType": "uint8",
          "name": "keysSharedCount",
          "type": "uint8"
        }
      ],
      "stateMutability": "view",
      "type": "function"
    },
    {
      "inputs": [
        {
          "internalType": "address",
          "name": "",
          "type": "address"
        }
      ],
      "name": "sessionKeys",
      "outputs": [
        {
          "internalType": "address",
          "name": "sessionAddress",
          "type": "address"
        },
        {
          "internalType": "uint32",
          "name": "expiresAt",
          "type": "uint32"
        },
        {
          "internalType": "uint64",
          "name": "roomId",
          "type": "uint64"
        },
        {
          "internalType": "bool",
          "name": "isActive",
          "type": "bool"
        }
      ],
      "stateMutability": "view",
      "type": "function"
    },
    {
      "inputs": [
        {
          "internalType": "address",
          "name": "",
          "type": "address"
        }
      ],
      "name": "sessionToMain",
      "outputs": [
        {
          "internalType": "address",
          "name": "",
          "type": "address"
        }
      ],
      "stateMutability": "view",
      "type": "function"
    },
    {
      "inputs": [
        {
          "internalType": "uint256",
          "name": "roomId",
          "type": "uint256"
        },
        {
          "internalType": "address[]",
          "name": "recipients",
          "type": "address[]"
        },
        {
          "internalType": "bytes[]",
          "name": "encryptedKeys",
          "type": "bytes[]"
        }
      ],
      "name": "shareKeysToAll",
      "outputs": [],
      "stateMutability": "nonpayable",
      "type": "function"
    },
    {
      "inputs": [
        {
          "internalType": "uint256",
          "name": "roomId",
          "type": "uint256"
        }
      ],
      "name": "startGame",
      "outputs": [],
      "stateMutability": "nonpayable",
      "type": "function"
    },
    {
      "inputs": [
        {
          "internalType": "uint256",
          "name": "roomId",
          "type": "uint256"
        }
      ],
      "name": "startVoting",
      "outputs": [],
      "stateMutability": "nonpayable",
      "type": "function"
    },
    {
      "inputs": [
        {
          "internalType": "uint256",
          "name": "roomId",
          "type": "uint256"
        },
        {
          "internalType": "string[]",
          "name": "deck",
          "type": "string[]"
        }
      ],
      "name": "submitDeck",
      "outputs": [],
      "stateMutability": "nonpayable",
      "type": "function"
    },
    {
      "inputs": [
        {
          "internalType": "uint256",
          "name": "roomId",
          "type": "uint256"
        },
        {
          "internalType": "address",
          "name": "target",
          "type": "address"
        }
      ],
      "name": "vote",
      "outputs": [],
      "stateMutability": "nonpayable",
      "type": "function"
    },
    {
      "inputs": [
        {
          "internalType": "uint256",
          "name": "",
          "type": "uint256"
        },
        {
          "internalType": "address",
          "name": "",
          "type": "address"
        }
      ],
      "name": "voteCounts",
      "outputs": [
        {
          "internalType": "uint8",
          "name": "",
          "type": "uint8"
        }
      ],
      "stateMutability": "view",
      "type": "function"
    },
    {
      "inputs": [
        {
          "internalType": "uint256",
          "name": "",
          "type": "uint256"
        },
        {
          "internalType": "address",
          "name": "",
          "type": "address"
        }
      ],
      "name": "votes",
      "outputs": [
        {
          "internalType": "address",
          "name": "",
          "type": "address"
        }
      ],
      "stateMutability": "view",
      "type": "function"
    }
  ],
  "bytecode": "0x60808060405234601a576001600d55614608908161001f8239f35b5f80fdfe60806040526004361015610011575f80fd5b5f3560e01c806302d947ef146130b257806307a52cab1461309557806309ed3e2214612fe35780630f36f3b514612d505780630f8d2b6814612d0e57806312c57f55146108bc578063139db82d1461295057806314a09d601461291b5780631bae0ac81461282f5780632a51fb3a146127525780633d2f5bda146125af5780633deaa34114612593578063460e20491461243057806347a90d441461234a57806348e69d1f146122c95780634f324d14146122895780635099fae2146120505780635d99dc3e14611fb55780635e82ff6514611f9a57806361ea202714611f535780636594bb0c14611b21578063660e907c14611ad8578063669ead1714611a8a5780636d8a74cb146118595780637120465b146113a85780637a36446114610f785780637bd6d432146113345780637fa9c2891461131857806384411c0a146112d157806394225e9d14610fe0578063b7b8d60414610f78578063bb9ae87514610bb1578063c96f097914610978578063d23254b41461092e578063d94a51cb146108bc578063dae2928a1461040d578063e5ed1d5914610292578063e719ba7114610271578063eb0fa6f8146102275763f14caed7146101d1575f80fd5b34610223576040366003190112610223576101ea6133e2565b6004355f52600860205260405f209060018060a01b03165f526020526040805f2060ff6001825492015416825191825215156020820152f35b5f80fd5b34610223576040366003190112610223576102406133e2565b6004355f908152600a602090815260408083206001600160a01b039485168452825291829020549151919092168152f35b34610223575f36600319011261022357602060405166470de4df8200008152f35b3461022357602036600319011261022357600435805f525f60205260405f20805460ff8160e01c1660078110156103f9576103ea57604081901c6001600160a01b031633036103dc5760ff60029160f01c161061039757805460ff60e01b1916600160e01b17815561037190610328600161030c85613d03565b920191829062ff000082549160101b169062ff00001916179055565b805466ffffffff00000019164260181b66ffffffff0000001617815563ffffffff610352426136e2565b825463ffffffff60381b1916911660381b63ffffffff60381b16179055565b7f50ad08f58a27f2851d7e3a1b3a6a46b290f2ce677e99642d30ff639721e777905f80a2005b60405162461bcd60e51b815260206004820152601760248201527f4e656564206174206c65617374203220706c61796572730000000000000000006044820152606490fd5b6282b42960e81b5f5260045ffd5b6338961af360e21b5f5260045ffd5b634e487b7160e01b5f52602160045260245ffd5b3461022357602036600319011261022357600435805f525f60205260405f206001810163ffffffff815460381c1680156108855742111561084a5760ff825460e01c166007811015806103f9578115158061083d575b156107f857847f77ff69c1f99cadd93a6da75080e20a3fed43f1d42375051a5d162adcafc5fbb7602060405161049981876135dc565ba26103f957600181036105e857505050805f525f60205260405f20600181018260ff825460101c16815f52600160205260405f20548110610560575b505061050e6104f36104ed60ff845460101c166136d0565b85613d4c565b825462ff00001916601082901b62ff00001617835591610328565b825f52600160205260ff60405f20549116101561052b575b50505b005b54600260f89190911c106105495761054290613d8e565b8080610526565b61055b90610555613810565b906144c2565b610542565b60806105987f8ef7613b6eacaa71c74d950e2c093c23a0d3ecb066d1387d80e95159d07ed08b92845f52600160205260405f20613424565b50546001600160a01b03166105ad8185614530565b60405190815260406020820152601660408201527554696d656f757420647572696e672073687566666c6560501b6060820152a282846104d5565b6002810361072457505090805f52600160205260405f20905f5b825460ff821610156106fd57806002600361062061062d9487613424565b5001541661063257613632565b610602565b602060036106408387613424565b5001541615600160036106538488613424565b500154161581156106f5575b5015613632576106836106728286613424565b50546001600160a01b031684614530565b827f8ef7613b6eacaa71c74d950e2c093c23a0d3ecb066d1387d80e95159d07ed08b60806106b18488613424565b5054604080516001600160a01b0390921682526020820181905260159082015274151a5b595bdd5d08191d5c9a5b99c81c995d99585b605a1b6060820152a2613632565b90508661065f565b5091600291505460f81c10155f146107185761052990613f8d565b61052990610555613810565b600481036107385750505061052990613950565b6005810361079a57505460681c60ff161515905061079157604080515f808252602082015282915f5160206145b35f395f51905f5291a261077881614360565b61078181614440565b1561078857005b61052990613f8d565b6105299061404a565b6003146107a357005b815460ff60e01b1916600160e21b17909155805460ff60601b191681556107d29063ffffffff610352426136e2565b7fcf33babc496bb6dc2942b39cb7b75766bbbadf7da50d176ff8c513e9911402395f80a2005b60405162461bcd60e51b815260206004820152601960248201527f43616e6e6f742074696d656f75742074686973207068617365000000000000006044820152606490fd5b50505f6006821415610463565b60405162461bcd60e51b8152602060048201526013602482015272111958591b1a5b99481b9bdd081c185cdcd959606a1b6044820152606490fd5b60405162461bcd60e51b815260206004820152600f60248201526e139bc8191958591b1a5b99481cd95d608a1b6044820152606490fd5b34610223576108ca36613572565b915f52600560205260405f209060018060a01b03165f5260205260405f209060018060a01b03165f5260205261092a61090f61091660405f2060405192838092613475565b038261352d565b60405191829160208352602083019061354e565b0390f35b34610223576040366003190112610223576109476133e2565b6004355f9081526006602090815260408083206001600160a01b039485168452825291829020549151919092168152f35b34610223576040366003190112610223576004356109958161384b565b815f52600260205260405f2060018060a01b0382165f5260205260ff60405f20541615610ba2576109c690826138d1565b15610b9357805f525f60205263ffffffff600160405f20015460381c16151580610b73575b610b64576109f88161384b565b815f525f60205260405f2060ff815460e01c1660078110156103f9576005036103ea57610a258284613915565b610b555760405191604083018381106001600160401b03821117610b41576001602093610ab57f0eedfe83feef539cc0cbc56b8336ca3cc16ee922943b5d3b1046759ac50b0e6796610b2e946040526024358152838782015f81528a5f526008895260405f20828060a01b0389165f52895260405f209251835551151591019060ff801983541691151516179055565b865f526003855260405f20828060a01b0385165f5285526003610ae860ff60405f205416895f5284885260405f20613424565b500163ffffffff600881835416171663ffffffff1982541617905501610b1460ff825460681c16613632565b815460ff60681b191660689190911b60ff60681b16179055565b6040516001600160a01b039091168152a2005b634e487b7160e01b5f52604160045260245ffd5b6317fd8aab60e31b5f5260045ffd5b6301a6f70d60e01b5f5260045ffd5b50805f525f60205263ffffffff600160405f20015460381c1642116109eb565b630575d90f60e11b5f5260045ffd5b63721c7c6760e11b5f5260045ffd5b34610223576060366003190112610223576004356024356001600160401b03811161022357610be49036906004016135ac565b6044356001600160401b03811161022357610c039036906004016135ac565b9092610c0e8561384b565b855f52600260205260405f2060018060a01b0382165f5260205260ff60405f20541615610ba257610c3f90866138d1565b15610b9357845f525f60205263ffffffff600160405f20015460381c16151580610f58575b610b6457610c718561384b565b93855f525f60205260405f2060ff815460e01c1660078110156103f9576002036103ea57838503610f4957865f52600360205260405f2060018060a01b0387165f5260205260206003610cd560ff60405f2054168a5f526001845260405f20613424565b50015416610f3a5793946001600160a01b0316935f5b86811015610e5857600581901b84810135906001600160a01b038216820361022357895f52600260205260405f2060018060a01b0383165f5260205260ff60405f20541615610ba25786831015610e4457610d4890850185613643565b90918a5f52600560205260405f20895f5260205260405f209060018060a01b03165f5260205260405f20916001600160401b038211610b4157610d9582610d8f855461343d565b8561368b565b5f90601f8311600114610ddc579180610dc89260019695945f92610dd1575b50508160011b915f199060031b1c19161790565b90555b01610ceb565b013590508d80610db4565b601f19831691845f5260205f20925f5b818110610e2c575091600196959492918388959310610e13575b505050811b019055610dcb565b01355f19600384901b60f8161c191690558c8080610e06565b91936020600181928787013581550195019201610dec565b634e487b7160e01b5f52603260045260245ffd5b878260ff88835f52600360205260405f20815f526020526003610e8c8360405f205416865f52600160205260405f20613424565b500163ffffffff602081835416171663ffffffff19825416179055837f9204f1001d8059e799b3a233fa5114eab3b5d30762de3ff4e07fcd7e6266aad160206001860193610efc610ee287875460781c16613632565b865460ff60781b191660789190911b60ff60781b16178655565b604051908152a25460781c16905460f81c14610f1457005b7ff6b9b3035e320bcce495d00c2d31a7bd341754f7b9919a4a736388e16ef674a55f80a2005b6387db46a560e01b5f5260045ffd5b634ec4810560e11b5f5260045ffd5b50845f525f60205263ffffffff600160405f20015460381c164211610c64565b34610223576020366003190112610223576001600160a01b03610f996133f8565b165f52600b602052608060405f2060ff60018254920154166040519160018060a01b038116835263ffffffff8160a01c16602084015260c01c604083015215156060820152f35b3461022357602036600319011261022357335f908152600c60205260409020546001600160a01b031660043581156112c9575b90815f52600160205260405f20905f905f918354925b8360ff821610611239575060ff1692611041846137ca565b9461104b856136f1565b94611059604051968761352d565b808652611068601f19916136f1565b015f5b8181106112265750505f915f5b8560ff82161061112e578688604051918291604083016040845281518091526020606085019201905f5b81811061110c575050508281036020840152815180825260208201916020808360051b8301019401925f915b8383106110db5786860387f35b9193955091936020806110fa600193601f19868203018752895161354e565b970193019301909286959492936110ce565b82516001600160a01b03168452869550602093840193909201916001016110a2565b876111398284613424565b50546001600160a01b03908116908716811415806111e7575b611167575b505061116290613632565b611078565b946111d76111dd9287611162959861118360ff861680946137fc565b52875f52600560205260405f209060018060a01b03165f5260205260405f2060018060a01b038a165f5260205261090f6111c660405f2060405192838092613475565b6111d0828d6137fc565b528a6137fc565b50613632565b9390508789611157565b505f8581526005602090815260408083206001600160a01b038581168552908352818420908b16845290915290205461121f9061343d565b1515611152565b606060208289018101919091520161106b565b61124581869796613424565b50546001600160a01b03848116911690811415908161128b575b50611276575b61126e90613632565b949394611029565b9061128361126e91613632565b919050611265565b5f8781526005602090815260408083206001600160a01b0394851684528252808320938816835292905220546112c1915061343d565b15158761125f565b339150611013565b34610223576040366003190112610223576112ea6133e2565b6004355f52600360205260405f209060018060a01b03165f52602052602060ff60405f205416604051908152f35b34610223575f36600319011261022357602060405161012c8152f35b34610223576040366003190112610223576001600160a01b036113556133f8565b165f52600b602052602060405f2060ff6001820154169081611393575b81611383575b506040519015158152f35b5460c01c60243514905082611378565b805460a01c63ffffffff164211159150611372565b6080366003190112610223576004356024356001600160401b038111610223576113d69036906004016135e9565b6044929192356001600160401b038111610223576113f89036906004016135e9565b93906064356001600160a01b0381169182820361022357855f525f60205260405f2090815460ff8160e01c1660078110156103f9576103ea5760ff808260e81c169160f01c16101561184a575f87815260026020908152604080832033845290915290205460ff1661183c57865f52600160205260ff60405f20541690875f52600160205260405f20986114af6040519261149284613512565b3384526114a0368b8b613794565b92602085019384523691613794565b9060408301918252606083019a60028c528054600160401b811015610b41576114dd91600182018155613424565b939093611829575183546001600160a01b0319166001600160a01b039190911617835551805160018401916001600160401b038211610b415761152482610d8f855461343d565b602090601f83116001146117c65761155292915f91836117bb5750508160011b915f199060031b1c19161790565b90555b51805160028301916001600160401b038211610b415761157982610d8f855461343d565b602090601f831160011461172157600363ffffffff7f3b7d84e02e9f6642b42e0ca3e77297f9c7c807832a60c0fc1926ade76abc7bad9d9e60809c9b99966115e08f9c9a97806116a39b9886985f926117165750508160011b915f199060031b1c19161790565b90555b51169201911663ffffffff198254161790558a5f52600260205260405f2060018060a01b0333165f5260205260405f20600160ff198254161790558a5f52600360205260405f2060018060a01b0333165f5260205260ff60405f20911660ff1982541617905561167661165c60ff835460f01c16613632565b825460ff60f01b191660f09190911b60ff60f01b16178255565b611683815460f81c613632565b81546001600160f81b031660f89190911b6001600160f81b031916179055565b87826116e1575b505060405194859333855260606020860152816060860152858501375f8383018501526040830152601f01601f19168101030190a2005b6116eb9133613e3b565b346116f8575b87876116aa565b6117115f80808034865af161170b613723565b50613752565b6116f1565b015190505f80610db4565b90601f19831691845f52815f20925f5b8181106117a357507f3b7d84e02e9f6642b42e0ca3e77297f9c7c807832a60c0fc1926ade76abc7bad9d9e60809c9b999660018f9c9a976116a39a9763ffffffff97600397838a981061178c575b505050811b0190556115e3565b01515f1983891b60f8161c191690555f808061177f565b92936020600181928786015181550195019301611731565b015190508e80610db4565b90601f19831691845f52815f20925f5b81811061181157509084600195949392106117f9575b505050811b019055611555565b01515f1960f88460031b161c191690558d80806117ec565b929360206001819287860151815501950193016117d6565b634e487b7160e01b5f525f60045260245ffd5b621d934160e11b5f5260045ffd5b63bc42480360e01b5f5260045ffd5b34610223576020366003190112610223575f6101c060405161187a816134f6565b8281528260208201528260408201528260608201528260808201528260a08201528260c08201528260e08201528261010082015282610120820152826101408201528261016082015282610180820152826101a082015201526004355f525f60205260405f20604051906118ed826134f6565b8054906001600160401b0382168352602083019260018060a01b038360401c16845260ff8360e01c1691604082019260078110156103f957835260608201908460e81c60ff16825260808301908560f01c60ff16825260a084019560f81c8652600101549460c0840161ffff8716815260e085018760101c60ff1681526101008601918860181c63ffffffff1683526101208701938960381c63ffffffff1685526101408801958a60581c60ff1687526101608901978b60601c60ff1689526101808a01998c60681c60ff168b526101a081019b8d60701c60ff168d526101c08201809e60781c60ff1690526040519e8f92516001600160401b03168352600160a01b6001900390511660208301525190604001611a0a916135dc565b5160ff1660608d01525160ff1660808c01525160ff1660a08b01525161ffff1660c08a01525160ff1660e08901525163ffffffff166101008801525163ffffffff166101208701525160ff166101408601525160ff166101608501525160ff166101808401525160ff166101a08301525160ff166101c08201526101e090f35b3461022357604036600319011261022357611aa36133e2565b6004355f52600960205260405f209060018060a01b03165f52602052602060ff60405f205416611ad66040518092613616565bf35b3461022357604036600319011261022357611af16133e2565b6004355f52600260205260405f209060018060a01b03165f52602052602060ff60405f2054166040519015158152f35b34610223576080366003190112610223576004356024356004811015610223576044356001600160a01b0381169190828103610223576064356001600160401b03811161022357611b769036906004016135e9565b91611b808661384b565b865f52600260205260405f2060018060a01b0382165f5260205260ff60405f20541615610ba257611bb190876138d1565b15610b9357855f525f60205263ffffffff600160405f20015460381c16151580611f33575b610b6457611be38661384b565b92865f525f60205260405f209260ff845460e01c1660078110156103f9576005036103ea57875f52600360205260405f2060018060a01b0386165f5260205260106003611c4260ff60405f2054168b5f52600160205260405f20613424565b50015416611f2457611c548589613915565b15611eeb5785151580611ee2575b611e45575b6035611cac918360405194859260208401978b60f81b89526001600160601b03199060601b1660218501528484013781015f838201520301601f19810183528261352d565b519020855f52600860205260405f2060018060a01b0384165f5260205260405f205403611e365760408592611e0e60017ff06d68f16c49c42e886f88c2689940ad871a4f71654933d28b593912f169f9469460ff98875f526008602052855f20838060a01b0386165f5260205282865f2001838b19825416179055875f526009602052855f20838060a01b0386165f52602052855f208a198154168b8b16179055875f52600a602052855f20838060a01b0386165f52602052855f20906001600160601b0360a01b825416179055865f526003602052845f20828060a01b0385165f526020526003611dac8a875f205416895f5284602052875f20613424565b500163ffffffff601081835416171663ffffffff198254161790550195611df5611ddb89895460701c16613632565b885460ff60701b191660709190911b60ff60701b16178855565b83516001600160a01b0390931683526020830190613616565ba254818160681c1691829160701c16149081611e2c575b5061079157005b9050151582611e25565b639ea6d12760e01b5f5260045ffd5b875f52600260205260405f20875f5260205260ff60405f20541615611ea857611e6e83896138d1565b611c675760405162461bcd60e51b815260206004820152600e60248201526d15185c99d95d081a5cc81919585960921b6044820152606490fd5b60405162461bcd60e51b8152602060048201526012602482015271546172676574206e6f7420696e20726f6f6d60701b6044820152606490fd5b50861515611c62565b60405162461bcd60e51b8152602060048201526011602482015270135d5cdd0818dbdb5b5a5d08199a5c9cdd607a1b6044820152606490fd5b63a89ac15160e01b5f5260045ffd5b50855f525f60205263ffffffff600160405f20015460381c164211611bd6565b3461022357604036600319011261022357611f6c6133e2565b6004355f52600760205260405f209060018060a01b03165f52602052602060ff60405f205416604051908152f35b34610223575f36600319011261022357602060405160788152f35b346102235760403660031901126102235760c0600361200a600435611fd86133e2565b815f528360205260405f209060018060a01b03165f5260205260ff60405f205416905f52600160205260405f20613424565b50015460206040519160028116151583526001811615158284015260048116151560408401526008811615156060840152601081161515608084015216151560a0820152f35b346102235760203660031901126102235760043561206d8161384b565b815f52600260205260405f2060018060a01b0382165f5260205260ff60405f20541615610ba25761209e90826138d1565b15610b9357805f525f60205263ffffffff600160405f20015460381c16151580612269575b610b64576120d08161384b565b815f525f60205260405f209060ff825460e01c1660078110156103f9576002036103ea57825f52600360205260405f2060018060a01b0382165f526020526001600361212d60ff60405f205416865f528360205260405f20613424565b500154166122305760ff90835f52600360205260405f2060018060a01b0382165f52602052600361216f8360405f205416865f52600160205260405f20613424565b500163ffffffff600181835416171663ffffffff19825416179055837f82b52ddf0195aa8ac16480985f5042052aa742563721520fa34764d253824d43602060018601936121df6121c587875460581c16613632565b865460ff60581b191660589190911b60ff60581b16178655565b6040516001600160a01b039091168152a25460581c16905460f81c1461220157005b61220a81613f8d565b7f54ccd98022ba3fd547cb241a4f3dfc13e7f9bb54550b7babf4080021c6c2f1265f80a2005b60405162461bcd60e51b8152602060048201526011602482015270105b1c9958591e4818dbdb999a5c9b5959607a1b6044820152606490fd5b50805f525f60205263ffffffff600160405f20015460381c1642116120c3565b34610223576020366003190112610223576001600160a01b036122aa6133f8565b165f52600c602052602060018060a01b0360405f205416604051908152f35b34610223575f36600319011261022357335f52600b60205260405f20600181019060ff8254166122f557005b546001600160a01b031680337f744157ccffbd293a2e8644928cd7d23d650f869b88f72d7bfea8041b76ca6bec5f80a35f908152600c6020526040902080546001600160a01b0319169055805460ff19169055005b60403660031901126102235761235e6133f8565b6001600160a01b0381169060243582156123eb575f81815260026020908152604080832033845290915290205460ff16156123b85761239d9133613e3b565b346123a457005b5f8080806105299434905af161170b613723565b60405162461bcd60e51b815260206004820152600b60248201526a4e6f7420696e20726f6f6d60a81b6044820152606490fd5b60405162461bcd60e51b815260206004820152601760248201527f496e76616c69642073657373696f6e20616464726573730000000000000000006044820152606490fd5b34610223576020366003190112610223576004355f52600160205260405f2080549061245b826136f1565b91612469604051938461352d565b8083526020830180925f5260205f205f915b83831061252757848660405191829160208301906020845251809152604083019060408160051b85010192915f905b8282106124b957505050500390f35b919360019193955060208091603f19898203018552875190848060a01b038251168152606063ffffffff816125106124fe87870151608089880152608087019061354e565b6040870151868203604088015261354e565b9401511691015296019201920185949391926124aa565b6004602060019260405161253a81613512565b848060a01b0386541681526040516125588161090f81898b01613475565b838201526040516125708161090f8160028b01613475565b604082015263ffffffff600387015416606082015281520192019201919061247b565b34610223575f3660031901126102235760206040516138408152f35b34610223576020366003190112610223576004356125cc8161384b565b815f52600260205260405f2060018060a01b0382165f5260205260ff60405f20541615610ba2576125fd90826138d1565b15610b9357805f525f60205260405f2060ff815460e01c1660078110156103f9576003036103ea57805460ff60e01b1916600160e21b178155600101805460ff60601b191681556126569063ffffffff610352426136e2565b805f52600160205260405f205f5b815460ff8216101561272b578061267e6126f79284613424565b50546001600160a01b031660036126958386613424565b5001805463fffffffb811663ffffffff199091161790555f8581526006602090815260408083206001600160a01b0385168452909152902080546001600160a01b0319169055600260036126e98487613424565b500154166126fc5750613632565b612664565b5f8581526007602090815260408083206001600160a01b03909416835292905220805460ff19169055846111d7565b827fcf33babc496bb6dc2942b39cb7b75766bbbadf7da50d176ff8c513e9911402395f80a2005b34610223576020366003190112610223576004355f52600460205260405f2080549061277d826136f1565b9161278b604051938461352d565b8083526020830180925f5260205f205f915b83831061280a57848660405191829160208301906020845251809152604083019060408160051b85010192915f905b8282106127db57505050500390f35b919360019193955060206127fa8192603f198a8203018652885161354e565b96019201920185949391926127cc565b6001602081926040516128218161090f8189613475565b81520192019201919061279d565b34610223576020366003190112610223576004355f525f6020526101e060405f2060ff60018254920154604051926001600160401b038116845260018060a01b038160401c16602085015261288c60408501848360e01c166135dc565b828160e81c166060850152828160f01c16608085015260f81c60a084015261ffff811660c0840152818160101c1660e084015263ffffffff8160181c1661010084015263ffffffff8160381c16610120840152818160581c16610140840152818160601c16610160840152818160681c16610180840152818160701c166101a084015260781c166101c0820152f35b34610223576020366003190112610223576004355f525f602052602063ffffffff600160405f20015460381c16604051908152f35b34610223576040366003190112610223576004356024356001600160401b038111610223576129839036906004016135ac565b9061298d8361384b565b835f52600260205260405f2060018060a01b0382165f5260205260ff60405f20541615610ba2576129be90846138d1565b15610b9357825f525f60205263ffffffff600160405f20015460381c16151580612cee575b610b64576129f08361384b565b90835f525f60205260405f2092835460ff8160e01c1660078110156103f9576001036103ea57855f526001602052612a38600160405f2096019560ff875460101c1690613424565b50546001600160a01b0390811690851603612cdf57855f52600460205260405f2054155f14612cbb5760f01c60ff168110612cac575b845f52600460205260405f2091600160401b8211610b41578254828455808310612c35575b509085939282905f5260205f20925f915b838310612b435786612b03817f4ddfdf4c78d4cc7a24e7c9cab7b0a647688b6cf6ce58cededceb204846622d768b8a612ae66104ed60ff845460101c166136d0565b825462ff00001916601082901b62ff000016178355948592610328565b604080516001600160a01b0392909216825260ff929092166020820152a2815f52600160205260ff60405f205491161015612b3a57005b61052990613d8e565b90919293949550612b548183613643565b906001600160401b038211610b4157612b7782612b71895461343d565b8961368b565b5f90601f8311600114612bcb5792612bac836001959460209487965f92612bc05750508160011b915f199060031b1c19161790565b88555b019501920190879594939293612aa4565b013590508e80610db4565b601f19831691885f5260205f20925f5b818110612c1d5750936020936001969387969383889510612c04575b505050811b018855612baf565b01355f19600384901b60f8161c191690558d8080612bf7565b91936020600181928787013581550195019201612bdb565b835f528260205f2091820191015b818110612c505750612a93565b80612c5d6001925461343d565b80612c6a575b5001612c43565b601f81118314612c7f57505f81555b89612c63565b612c9b90825f5283601f60205f20920160051c82019101613675565b805f525f6020812081835555612c79565b63d1d2a30960e01b5f5260045ffd5b50845f52600460205260405f2054810315612a6e5763d1d2a30960e01b5f5260045ffd5b631cc191eb60e31b5f5260045ffd5b50825f525f60205263ffffffff600160405f20015460381c1642116129e3565b3461022357612d1c3661340e565b905f52600460205260405f209081548110156102235761091661090f9161092a935f5260205f200160405192838092613475565b346102235760203660031901126102235760043560ff811680820361022357600d54915f198314612fcf5760079160018401600d555f808560405193612d95856134f6565b6001600160401b038216855260208501903382526040860190848252606087019081526080870185815260a0880186815260c0890198878a5260e081019188835261010082019363ffffffff421685526101208301958a87526101408401978b89526101608501998c8b5261018086019b8d8d526101a087019d8e526101c087019e8f525f525f6020526001600160401b0360405f20965116865491600160401b600160e01b03905160401b169163ffffffff60e01b1617178555519e8f10156103f95783549051915162ffffff60e01b1990911660e09f909f1b60ff60e01b169e909e1760e89190911b60ff60e81b161760f09d909d1b60ff60f01b169c909c1781558c9b5181546001600160f81b031660f89190911b6001600160f81b03191617815598516001999099018054915162ffffff1990921661ffff909a169990991760109190911b62ff00001617885551875466ffffffff000000191660189190911b66ffffffff000000161787555163ffffffff16612f3190879063ffffffff60381b82549160381b169063ffffffff60381b1916179055565b518554915192519351945160709590951b60ff60701b1660689490941b60ff60681b1660609390931b60ff60601b1660589190911b60ff60581b1664ffffffffff60581b199092169190911717171760789190911b60ff60781b161790556040805133815260ff9290921660208301527fac131287fe8417903d89f4eb472bc1d0da81641ef725569346dab6c2879a671791a2604051908152602090f35b634e487b7160e01b5f52601160045260245ffd5b3461022357612ff13661340e565b905f52600160205260405f209081548110156102235761301091613424565b5060018060a01b0381541660405191613037836130308160018501613475565b038461352d565b61308b63ffffffff60036040519361305d856130568160028501613475565b038661352d565b0154169161307d604051958695865260806020870152608086019061354e565b90848203604086015261354e565b9060608301520390f35b34610223575f366003190112610223576020600d54604051908152f35b34610223576040366003190112610223576004356130ce6133e2565b6130d78261384b565b825f52600260205260405f2060018060a01b0382165f5260205260ff60405f20541615610ba25761310890836138d1565b15610b9357815f525f60205263ffffffff600160405f20015460381c161515806133c2575b610b645761313a8261384b565b90825f525f60205260405f209160ff835460e01c1660078110156103f9576004036103ea57835f52600260205260405f2060018060a01b0383165f5260205260ff60405f20541615610ba25761319082856138d1565b15610b935783917fcfff1651bcea794952a516ce970ab17518a85210bd939aaeaac670a8d3e65ec791835f52600360205260405f2060018060a01b0382165f52602052600460036131f360ff60405f205416875f52600160205260405f20613424565b5001545f8681526006602090815260408083206001600160a01b0387811685529252909120549290911615911680151580613398575b61335c575b505f8581526006602090815260408083206001600160a01b03868116855290835281842080546001600160a01b0319169188169182179055888452600783528184209084529091529020805460ff90613288908216613632565b1660ff198254161790556132d3575b604080516001600160a01b03928316815292909116602083015290a260ff600182015460601c16905460f81c146132ca57005b61052990613950565b835f52600360205260405f2060018060a01b0382165f52602052600361330b60ff60405f205416865f52600160205260405f20613424565b500163ffffffff600481835416171663ffffffff198254161790556133576001860161333d60ff825460601c16613632565b815460ff60601b191660609190911b60ff60601b16179055565b613297565b855f52600760205260405f209060018060a01b03165f5260205260405f2060ff61338881835416613623565b1660ff198254161790558761322e565b50855f52600760205260405f2060018060a01b0382165f5260205260ff60405f2054161515613229565b50815f525f60205263ffffffff600160405f20015460381c16421161312d565b602435906001600160a01b038216820361022357565b600435906001600160a01b038216820361022357565b6040906003190112610223576004359060243590565b8054821015610e44575f5260205f209060021b01905f90565b90600182811c9216801561346b575b602083101461345757565b634e487b7160e01b5f52602260045260245ffd5b91607f169161344c565b5f92918154916134848361343d565b80835292600181169081156134d957506001146134a057505050565b5f9081526020812093945091925b8383106134bf575060209250010190565b6001816020929493945483858701015201910191906134ae565b915050602093945060ff929192191683830152151560051b010190565b6101e081019081106001600160401b03821117610b4157604052565b608081019081106001600160401b03821117610b4157604052565b90601f801991011681019081106001600160401b03821117610b4157604052565b805180835260209291819084018484015e5f828201840152601f01601f1916010190565b606090600319011261022357600435906024356001600160a01b038116810361022357906044356001600160a01b03811681036102235790565b9181601f84011215610223578235916001600160401b038311610223576020808501948460051b01011161022357565b9060078210156103f95752565b9181601f84011215610223578235916001600160401b038311610223576020838186019501011161022357565b9060048210156103f95752565b60ff168015612fcf575f190190565b60ff1660ff8114612fcf5760010190565b903590601e198136030182121561022357018035906001600160401b0382116102235760200191813603831361022357565b818110613680575050565b5f8155600101613675565b9190601f811161369a57505050565b6136c4925f5260205f20906020601f840160051c830193106136c6575b601f0160051c0190613675565b565b90915081906136b7565b60ff60019116019060ff8211612fcf57565b9061012c8201809211612fcf57565b6001600160401b038111610b415760051b60200190565b6001600160401b038111610b4157601f01601f191660200190565b3d1561374d573d9061373482613708565b91613742604051938461352d565b82523d5f602084013e565b606090565b1561375957565b60405162461bcd60e51b8152602060048201526013602482015272115512081d1c985b9cd9995c8819985a5b1959606a1b6044820152606490fd5b9291926137a082613708565b916137ae604051938461352d565b829481845281830111610223578281602093845f960137010152565b906137d4826136f1565b6137e1604051918261352d565b82815280926137f2601f19916136f1565b0190602036910137565b8051821015610e445760209160051b010190565b6040519061381f60408361352d565b601982527f546f6f2066657720706c61796572732072656d61696e696e67000000000000006020830152565b335f908152600c60205260409020546001600160a01b0316908161386f5750503390565b815f52600b60205260405f2060ff600182015416156138c2575463ffffffff8160a01c1642116138b35760c01c036138a45790565b637ce3c8fd60e11b5f5260045ffd5b630fe82d2560e11b5f5260045ffd5b635f8874dd60e11b5f5260045ffd5b61390c600391600293815f528360205260405f209060018060a01b03165f5260205260ff60405f205416905f52600160205260405f20613424565b50015416151590565b61390c600391600893815f528360205260405f209060018060a01b03165f5260205260ff60405f205416905f52600160205260405f20613424565b90815f525f6020528160405f205f905f90835f52600160205260405f205f908054915b8260ff821610613c7b575050505460f91c60ff82161180613c69575b15613c3357816139c07f6b571d1c11516ea63adff1048766bdfa510e9c5bf4e32ca29d4ba11e16edf2f19385614530565b837fb1ed64d561b0179e61c72bf46d0809a99dac99baeb98fc9f5d13be1f6c2e3f82608060405160018060a01b0385168152604060208201526009604082015268159bdd1959081bdd5d60ba1b6060820152a2604080516001600160a01b0392909216825260ff929092166020820152a25b815f52600160205260405f20915f5b835460ff82161015613ad55780613a5b613ad09286613424565b50545f8481526006602090815260408083206001600160a01b0390941680845293825280832080546001600160a01b03191690558683526007825280832093835292905220805460ff191690556003613ab48287613424565b5001805463fffffffb811663ffffffff19909116179055613632565b613a41565b505f818152602081905260409020600101805460ff60601b19169055909150613afd81614440565b15613b055750565b5f818152602081905260409020805460ff60e01b1916600560e01b178155600101805461ffff60681b19168155613b449063ffffffff610352426136e2565b805f52600160205260405f205f5b815460ff82161015613c0b5780613b6c613c069284613424565b50546001600160a01b03166003613b838386613424565b5001805463ffffffe7811663ffffffff199091161790555f8581526008602090815260408083206001600160a01b0394909416808452938252808320838155600101839055878352600982528083208484528252808320805460ff19169055878352600a82528083209383529290522080546001600160a01b0319169055613632565b613b52565b50507f34b0c4c95aa7776d35dbd8b24afd53388828c61c26fd5a6b11a21809662440875f80a2565b50507f6b571d1c11516ea63adff1048766bdfa510e9c5bf4e32ca29d4ba11e16edf2f1604080515f81525f6020820152a2613a32565b506001600160a01b038216151561398f565b9091929394955060026003613c908385613424565b50015416613cae575b613ca290613632565b90879594939291613973565b613cb88183613424565b50545f8981526007602090815260408083206001600160a01b039094168084529390915290205460ff9081169087168111613cf5575b5050613c99565b9096509450613ca25f613cee565b5f52600160205260405f2060ff815416905f5b8260ff821610613d2557505090565b60026003613d338385613424565b50015416613d465760010160ff16613d16565b91505090565b5f52600160205260405f2060ff815416915b8260ff821610613d6d57505090565b60026003613d7b8385613424565b50015416613d465760010160ff16613d5e565b5f818152602081905260409020805460ff60e01b1916600160e11b178155600101805464ff000000ff60581b19168155613dd09063ffffffff610352426136e2565b5f52600160205260405f20905f5b825460ff82161015613e36578060026003613dfc613e099487613424565b50015416613e0e57613632565b613dde565b6003613e1a8286613424565b5001805463ffffffde811663ffffffff19909116179055613632565b509050565b6001600160a01b03165f818152600b60205260409020600101549192909160ff16613f57575b6138404201804211612fcf577f290e52799b1ac63207e28c21f7f1f387cf8ea9257dde8e363a02e157d8e4c6589163ffffffff60409216613f2d835196613ea788613512565b6001600160a01b039081168089526020808a018581526001600160401b038716888c01908152600160608d018181525f8d8152600b909552938a90209c51925191516001600160c01b031960c09190911b169290951663ffffffff60a01b60a09290921b9190911617178a555198909101805460ff191698151560ff1698909817909755565b855f52600c602052825f20856001600160601b0360a01b82541617905582519182526020820152a3565b5f828152600b60209081526040808320546001600160a01b03168352600c909152902080546001600160a01b0319169055613e61565b5f818152602081905260409020805460ff60e01b1916600360e01b178155600101805461ffff90811691908214612fcf57805466ffffffff00ffff191660019290920161ffff908116929092174260181b66ffffffff000000161781557fa9b4e96158ed085745975f198fa026959997245ae7e7aed9cd0252ce02b210719160209161403f63ffffffff614020426136e2565b835463ffffffff60381b1916911660381b63ffffffff60381b16178255565b5416604051908152a2565b805f525f60205260405f2060ff600182015460681c161561433b57614072905460f81c6137ca565b5f905f915f845f52600160205260405f20905f918054925b8360ff8216106141cf575050505060ff168015155f146141b957815115610e4457602082015184905f5160206145b35f395f51905f529085906001600160a01b03165b604080516001600160a01b03928316815292909116602083015290a2835f5b60ff811690838210156141905760ff926001926001600160a01b039061411290886137fc565b5116838060a01b038816810361412e575b5050011684906140ec565b60808161415c7fb1ed64d561b0179e61c72bf46d0809a99dac99baeb98fc9f5d13be1f6c2e3f829385614530565b60405190815260406020820152600f60408201526e12da5b1b195908185d081b9a59da1d608a1b6060820152a2865f614123565b50505050505061419f81614360565b6141a881614440565b156141b05750565b6136c490613f8d565b835f5160206145b35f395f51905f52845f6140cd565b6141d98183613424565b50545f8981526009602090815260408083206001600160a01b039094168084529390915290205460ff1660048110156103f9576001811461426c575b60021480614264575b614232575b5061422d90613632565b61408a565b5f898152600a602090815260408083206001600160a01b0394851684529091529020541696506001925061422d614223565b50831561421e565b9499895f9a989597949299939a52600a60205260405f2060018060a01b038a165f5260205260405f2060018060a01b03905416925f9b5f5b60ff811660ff88168110156143275786906001600160a01b03906142c8908b6137fc565b5116146142da5760010160ff166142a4565b5096919b50989193969497999260015b158061431e575b6142fc575b50614215565b876143179161431160ff6002959b168c6137fc565b52613632565b96906142f6565b508015156142f1565b505096919b9a93909992949795989a6142ea565b50604080515f808252602082015282915f5160206145b35f395f51905f5291a261419f815b90815f52600160205260405f20915f5b835460ff8216101561441f578061438a61441a9286613424565b50545f8481526008602090815260408083206001600160a01b03909416808452938252808320838155600101839055868352600982528083208484528252808320805460ff19169055868352600a82528083209383529290522080546001600160a01b031916905560036143fe8287613424565b5001805463ffffffe7811663ffffffff19909116179055613632565b614370565b505f908152602081905260409020600101805461ffff60681b191690559050565b805f525f60205260405f205460f81c90600182111561445f5750505f90565b61448c916144915760405161447560408261352d565b60048152634472617760e01b6020820152906144c2565b600190565b60405161449f60408261352d565b60148152734c61737420706c61796572207374616e64696e6760601b6020820152905b5f8181526020818152604091829020805460ff60e01b1916600360e11b178155600101805463ffffffff60381b19169055905181815291927fd778487128ba4386ebcfb2703af01f8a2a2b8663f880622d26a77a29397e68f39291829161452b9183019061354e565b0390a2565b9061453b81836138d1565b156145ae57815f52600360205260405f209060018060a01b03165f52602052600361457860ff60405f205416835f52600160205260405f20613424565b500163ffffffff63fffffffd8254161663ffffffff198254161790555f525f6020526136c460405f20611683815460f81c613623565b505056feb874a4c95be602274c8e6944d4d375ca4189eda377b69ee751f3b92dd4dcf2d8a264697066735822122085a54a994020d29746ca552aea58956c1bffacc3c328ec3751a869eb26f4dd8464736f6c634300081c0033",
  "linkReferences": {},
  "deployedLinkReferences": {},
  "immutableReferences": {},
  "inputSourceName": "project/contracts/MafiaPortalV3.sol",
  "buildInfoId": "solc-0_8_28-80e6e6346544a688869ae2d2a7b94f19f548bd82"
}