{
  "_format": "hh3-artifact-1",
  "contractName": "MafiaPortalV4",
  "sourceName": "contracts/MafiaPortalV4.sol",
  "abi": [
    {
      "inputs": [],
      "stateMutability": "nonpayable",
      "type": "constructor"
    },
    {
      "inputs": [],
      "name": "AccessControlBadConfirmation",
      "type": "error"
    },
    {
      "inputs": [
        {
          "internalType": "address",
          "name": "account",
          "type": "address"
        },
        {
          "internalType": "bytes32",
          "name": "neededRole",
          "type": "bytes32"
        }
      ],
      "name": "AccessControlUnauthorizedAccount",
      "type": "error"
    },
    {
      "inputs": [],
      "name": "AlreadyCommitted",
      "type": "error"
    },
    {
      "inputs": [],
      "name": "AlreadyJoined",
      "type": "error"
    },
    {
      "inputs": [],
      "name": "AlreadyRevealed",
      "type": "error"
    },
    {
      "inputs": [],
      "name": "AlreadySharedKeys",
      "type": "error"
    },
    {
      "inputs": [],
      "name": "AlreadyVoted",
      "type": "error"
    },
    {
      "inputs": [],
      "name": "ArrayTooLarge",
      "type": "error"
    },
    {
      "inputs": [],
      "name": "EnforcedPause",
      "type": "error"
    },
    {
      "inputs": [],
      "name": "ExpectedPause",
      "type": "error"
    },
    {
      "inputs": [],
      "name": "InvalidArrayLength",
      "type": "error"
    },
    {
      "inputs": [],
      "name": "InvalidDeckSize",
      "type": "error"
    },
    {
      "inputs": [],
      "name": "InvalidMafiaTargetReveal",
      "type": "error"
    },
    {
      "inputs": [],
      "name": "InvalidPlayerCount",
      "type": "error"
    },
    {
      "inputs": [],
      "name": "InvalidReveal",
      "type": "error"
    },
    {
      "inputs": [],
      "name": "InvalidRoleReveal",
      "type": "error"
    },
    {
      "inputs": [],
      "name": "InvalidSessionAddress",
      "type": "error"
    },
    {
      "inputs": [],
      "name": "InvalidSessionKey",
      "type": "error"
    },
    {
      "inputs": [],
      "name": "MafiaNotReady",
      "type": "error"
    },
    {
      "inputs": [],
      "name": "MafiaTargetAlreadyCommitted",
      "type": "error"
    },
    {
      "inputs": [],
      "name": "MafiaTargetAlreadyRevealed",
      "type": "error"
    },
    {
      "inputs": [],
      "name": "NicknameTooLong",
      "type": "error"
    },
    {
      "inputs": [],
      "name": "NoStalledPlayers",
      "type": "error"
    },
    {
      "inputs": [],
      "name": "NotAllRolesRevealed",
      "type": "error"
    },
    {
      "inputs": [],
      "name": "NotCommitted",
      "type": "error"
    },
    {
      "inputs": [],
      "name": "NotEnoughPlayers",
      "type": "error"
    },
    {
      "inputs": [],
      "name": "NotMafiaMember",
      "type": "error"
    },
    {
      "inputs": [],
      "name": "NotParticipant",
      "type": "error"
    },
    {
      "inputs": [],
      "name": "NotYourTurn",
      "type": "error"
    },
    {
      "inputs": [],
      "name": "PhaseDeadlinePassed",
      "type": "error"
    },
    {
      "inputs": [],
      "name": "PlayerInactive",
      "type": "error"
    },
    {
      "inputs": [],
      "name": "PublicKeyTooLong",
      "type": "error"
    },
    {
      "inputs": [],
      "name": "ReentrancyGuardReentrantCall",
      "type": "error"
    },
    {
      "inputs": [],
      "name": "RoleAlreadyCommitted",
      "type": "error"
    },
    {
      "inputs": [],
      "name": "RoleAlreadyRevealed",
      "type": "error"
    },
    {
      "inputs": [],
      "name": "RoleNotCommitted",
      "type": "error"
    },
    {
      "inputs": [],
      "name": "RoomFull",
      "type": "error"
    },
    {
      "inputs": [],
      "name": "RoomNameTooLong",
      "type": "error"
    },
    {
      "inputs": [],
      "name": "SaltTooLong",
      "type": "error"
    },
    {
      "inputs": [],
      "name": "SessionAlreadyRegistered",
      "type": "error"
    },
    {
      "inputs": [],
      "name": "SessionExpired",
      "type": "error"
    },
    {
      "inputs": [],
      "name": "SessionNotForThisRoom",
      "type": "error"
    },
    {
      "inputs": [],
      "name": "TimeNotExpired",
      "type": "error"
    },
    {
      "inputs": [],
      "name": "Unauthorized",
      "type": "error"
    },
    {
      "inputs": [],
      "name": "WinConditionNotMet",
      "type": "error"
    },
    {
      "inputs": [],
      "name": "WrongPhase",
      "type": "error"
    },
    {
      "anonymous": false,
      "inputs": [
        {
          "indexed": true,
          "internalType": "uint256",
          "name": "roomId",
          "type": "uint256"
        }
      ],
      "name": "AllKeysShared",
      "type": "event"
    },
    {
      "anonymous": false,
      "inputs": [
        {
          "indexed": true,
          "internalType": "uint256",
          "name": "roomId",
          "type": "uint256"
        }
      ],
      "name": "AllRolesConfirmed",
      "type": "event"
    },
    {
      "anonymous": false,
      "inputs": [
        {
          "indexed": true,
          "internalType": "uint256",
          "name": "roomId",
          "type": "uint256"
        },
        {
          "indexed": false,
          "internalType": "uint256",
          "name": "dayNumber",
          "type": "uint256"
        }
      ],
      "name": "DayStarted",
      "type": "event"
    },
    {
      "anonymous": false,
      "inputs": [
        {
          "indexed": true,
          "internalType": "uint256",
          "name": "roomId",
          "type": "uint256"
        },
        {
          "indexed": false,
          "internalType": "address",
          "name": "player",
          "type": "address"
        },
        {
          "indexed": false,
          "internalType": "bytes32",
          "name": "commitHash",
          "type": "bytes32"
        }
      ],
      "name": "DeckCommitted",
      "type": "event"
    },
    {
      "anonymous": false,
      "inputs": [
        {
          "indexed": true,
          "internalType": "uint256",
          "name": "roomId",
          "type": "uint256"
        },
        {
          "indexed": false,
          "internalType": "address",
          "name": "player",
          "type": "address"
        },
        {
          "indexed": false,
          "internalType": "string[]",
          "name": "deck",
          "type": "string[]"
        }
      ],
      "name": "DeckRevealed",
      "type": "event"
    },
    {
      "anonymous": false,
      "inputs": [
        {
          "indexed": true,
          "internalType": "address",
          "name": "admin",
          "type": "address"
        }
      ],
      "name": "EmergencyPause",
      "type": "event"
    },
    {
      "anonymous": false,
      "inputs": [
        {
          "indexed": true,
          "internalType": "address",
          "name": "admin",
          "type": "address"
        }
      ],
      "name": "EmergencyUnpause",
      "type": "event"
    },
    {
      "anonymous": false,
      "inputs": [
        {
          "indexed": true,
          "internalType": "uint256",
          "name": "roomId",
          "type": "uint256"
        },
        {
          "indexed": false,
          "internalType": "string",
          "name": "winCondition",
          "type": "string"
        }
      ],
      "name": "GameEnded",
      "type": "event"
    },
    {
      "anonymous": false,
      "inputs": [
        {
          "indexed": true,
          "internalType": "uint256",
          "name": "roomId",
          "type": "uint256"
        }
      ],
      "name": "GameStarted",
      "type": "event"
    },
    {
      "anonymous": false,
      "inputs": [
        {
          "indexed": true,
          "internalType": "uint256",
          "name": "roomId",
          "type": "uint256"
        },
        {
          "indexed": false,
          "internalType": "address",
          "name": "from",
          "type": "address"
        }
      ],
      "name": "KeysSharedToAll",
      "type": "event"
    },
    {
      "anonymous": false,
      "inputs": [
        {
          "indexed": true,
          "internalType": "uint256",
          "name": "roomId",
          "type": "uint256"
        },
        {
          "indexed": false,
          "internalType": "address",
          "name": "cheater",
          "type": "address"
        },
        {
          "indexed": false,
          "internalType": "enum MafiaPortalV4.Role",
          "name": "actualRole",
          "type": "uint8"
        }
      ],
      "name": "MafiaCheaterPunished",
      "type": "event"
    },
    {
      "anonymous": false,
      "inputs": [
        {
          "indexed": true,
          "internalType": "uint256",
          "name": "roomId",
          "type": "uint256"
        },
        {
          "indexed": false,
          "internalType": "address",
          "name": "target",
          "type": "address"
        },
        {
          "indexed": false,
          "internalType": "bool",
          "name": "success",
          "type": "bool"
        }
      ],
      "name": "MafiaConsensusReached",
      "type": "event"
    },
    {
      "anonymous": false,
      "inputs": [
        {
          "indexed": true,
          "internalType": "uint256",
          "name": "roomId",
          "type": "uint256"
        },
        {
          "indexed": false,
          "internalType": "address",
          "name": "sender",
          "type": "address"
        },
        {
          "indexed": false,
          "internalType": "bytes",
          "name": "encryptedMessage",
          "type": "bytes"
        }
      ],
      "name": "MafiaMessageSent",
      "type": "event"
    },
    {
      "anonymous": false,
      "inputs": [
        {
          "indexed": true,
          "internalType": "uint256",
          "name": "roomId",
          "type": "uint256"
        },
        {
          "indexed": false,
          "internalType": "address",
          "name": "player",
          "type": "address"
        },
        {
          "indexed": false,
          "internalType": "bytes32",
          "name": "commitHash",
          "type": "bytes32"
        }
      ],
      "name": "MafiaTargetCommitted",
      "type": "event"
    },
    {
      "anonymous": false,
      "inputs": [
        {
          "indexed": true,
          "internalType": "uint256",
          "name": "roomId",
          "type": "uint256"
        },
        {
          "indexed": false,
          "internalType": "address",
          "name": "player",
          "type": "address"
        },
        {
          "indexed": false,
          "internalType": "address",
          "name": "target",
          "type": "address"
        }
      ],
      "name": "MafiaTargetRevealed",
      "type": "event"
    },
    {
      "anonymous": false,
      "inputs": [
        {
          "indexed": true,
          "internalType": "uint256",
          "name": "roomId",
          "type": "uint256"
        },
        {
          "indexed": false,
          "internalType": "address",
          "name": "player",
          "type": "address"
        },
        {
          "indexed": false,
          "internalType": "bytes32",
          "name": "commitHash",
          "type": "bytes32"
        }
      ],
      "name": "NightActionCommitted",
      "type": "event"
    },
    {
      "anonymous": false,
      "inputs": [
        {
          "indexed": true,
          "internalType": "uint256",
          "name": "roomId",
          "type": "uint256"
        },
        {
          "indexed": false,
          "internalType": "address",
          "name": "player",
          "type": "address"
        },
        {
          "indexed": false,
          "internalType": "enum MafiaPortalV4.NightActionType",
          "name": "action",
          "type": "uint8"
        },
        {
          "indexed": false,
          "internalType": "address",
          "name": "target",
          "type": "address"
        }
      ],
      "name": "NightActionRevealed",
      "type": "event"
    },
    {
      "anonymous": false,
      "inputs": [
        {
          "indexed": true,
          "internalType": "uint256",
          "name": "roomId",
          "type": "uint256"
        },
        {
          "indexed": false,
          "internalType": "address",
          "name": "killed",
          "type": "address"
        },
        {
          "indexed": false,
          "internalType": "address",
          "name": "healed",
          "type": "address"
        }
      ],
      "name": "NightFinalized",
      "type": "event"
    },
    {
      "anonymous": false,
      "inputs": [
        {
          "indexed": true,
          "internalType": "uint256",
          "name": "roomId",
          "type": "uint256"
        }
      ],
      "name": "NightStarted",
      "type": "event"
    },
    {
      "anonymous": false,
      "inputs": [
        {
          "indexed": false,
          "internalType": "address",
          "name": "account",
          "type": "address"
        }
      ],
      "name": "Paused",
      "type": "event"
    },
    {
      "anonymous": false,
      "inputs": [
        {
          "indexed": true,
          "internalType": "uint256",
          "name": "roomId",
          "type": "uint256"
        },
        {
          "indexed": false,
          "internalType": "enum MafiaPortalV4.GamePhase",
          "name": "phase",
          "type": "uint8"
        }
      ],
      "name": "PhaseTimeout",
      "type": "event"
    },
    {
      "anonymous": false,
      "inputs": [
        {
          "indexed": true,
          "internalType": "uint256",
          "name": "roomId",
          "type": "uint256"
        },
        {
          "indexed": false,
          "internalType": "address",
          "name": "player",
          "type": "address"
        },
        {
          "indexed": false,
          "internalType": "string",
          "name": "reason",
          "type": "string"
        }
      ],
      "name": "PlayerEliminated",
      "type": "event"
    },
    {
      "anonymous": false,
      "inputs": [
        {
          "indexed": true,
          "internalType": "uint256",
          "name": "roomId",
          "type": "uint256"
        },
        {
          "indexed": false,
          "internalType": "address",
          "name": "player",
          "type": "address"
        },
        {
          "indexed": false,
          "internalType": "string",
          "name": "nickname",
          "type": "string"
        },
        {
          "indexed": false,
          "internalType": "address",
          "name": "sessionKey",
          "type": "address"
        }
      ],
      "name": "PlayerJoined",
      "type": "event"
    },
    {
      "anonymous": false,
      "inputs": [
        {
          "indexed": true,
          "internalType": "uint256",
          "name": "roomId",
          "type": "uint256"
        },
        {
          "indexed": false,
          "internalType": "address",
          "name": "player",
          "type": "address"
        },
        {
          "indexed": false,
          "internalType": "string",
          "name": "reason",
          "type": "string"
        }
      ],
      "name": "PlayerKicked",
      "type": "event"
    },
    {
      "anonymous": false,
      "inputs": [
        {
          "indexed": true,
          "internalType": "bytes32",
          "name": "role",
          "type": "bytes32"
        },
        {
          "indexed": true,
          "internalType": "bytes32",
          "name": "previousAdminRole",
          "type": "bytes32"
        },
        {
          "indexed": true,
          "internalType": "bytes32",
          "name": "newAdminRole",
          "type": "bytes32"
        }
      ],
      "name": "RoleAdminChanged",
      "type": "event"
    },
    {
      "anonymous": false,
      "inputs": [
        {
          "indexed": true,
          "internalType": "uint256",
          "name": "roomId",
          "type": "uint256"
        },
        {
          "indexed": false,
          "internalType": "address",
          "name": "player",
          "type": "address"
        },
        {
          "indexed": false,
          "internalType": "bytes32",
          "name": "commitHash",
          "type": "bytes32"
        }
      ],
      "name": "RoleCommitted",
      "type": "event"
    },
    {
      "anonymous": false,
      "inputs": [
        {
          "indexed": true,
          "internalType": "uint256",
          "name": "roomId",
          "type": "uint256"
        },
        {
          "indexed": false,
          "internalType": "address",
          "name": "player",
          "type": "address"
        }
      ],
      "name": "RoleConfirmed",
      "type": "event"
    },
    {
      "anonymous": false,
      "inputs": [
        {
          "indexed": true,
          "internalType": "bytes32",
          "name": "role",
          "type": "bytes32"
        },
        {
          "indexed": true,
          "internalType": "address",
          "name": "account",
          "type": "address"
        },
        {
          "indexed": true,
          "internalType": "address",
          "name": "sender",
          "type": "address"
        }
      ],
      "name": "RoleGranted",
      "type": "event"
    },
    {
      "anonymous": false,
      "inputs": [
        {
          "indexed": true,
          "internalType": "uint256",
          "name": "roomId",
          "type": "uint256"
        },
        {
          "indexed": false,
          "internalType": "address",
          "name": "player",
          "type": "address"
        },
        {
          "indexed": false,
          "internalType": "enum MafiaPortalV4.Role",
          "name": "role",
          "type": "uint8"
        }
      ],
      "name": "RoleRevealed",
      "type": "event"
    },
    {
      "anonymous": false,
      "inputs": [
        {
          "indexed": true,
          "internalType": "bytes32",
          "name": "role",
          "type": "bytes32"
        },
        {
          "indexed": true,
          "internalType": "address",
          "name": "account",
          "type": "address"
        },
        {
          "indexed": true,
          "internalType": "address",
          "name": "sender",
          "type": "address"
        }
      ],
      "name": "RoleRevoked",
      "type": "event"
    },
    {
      "anonymous": false,
      "inputs": [
        {
          "indexed": true,
          "internalType": "uint256",
          "name": "roomId",
          "type": "uint256"
        },
        {
          "indexed": false,
          "internalType": "address",
          "name": "host",
          "type": "address"
        },
        {
          "indexed": false,
          "internalType": "string",
          "name": "name",
          "type": "string"
        },
        {
          "indexed": false,
          "internalType": "uint256",
          "name": "maxPlayers",
          "type": "uint256"
        }
      ],
      "name": "RoomCreated",
      "type": "event"
    },
    {
      "anonymous": false,
      "inputs": [
        {
          "indexed": true,
          "internalType": "address",
          "name": "mainWallet",
          "type": "address"
        },
        {
          "indexed": true,
          "internalType": "address",
          "name": "sessionKey",
          "type": "address"
        },
        {
          "indexed": false,
          "internalType": "uint256",
          "name": "roomId",
          "type": "uint256"
        },
        {
          "indexed": false,
          "internalType": "uint256",
          "name": "expiresAt",
          "type": "uint256"
        }
      ],
      "name": "SessionKeyRegistered",
      "type": "event"
    },
    {
      "anonymous": false,
      "inputs": [
        {
          "indexed": true,
          "internalType": "address",
          "name": "mainWallet",
          "type": "address"
        },
        {
          "indexed": true,
          "internalType": "address",
          "name": "sessionKey",
          "type": "address"
        }
      ],
      "name": "SessionKeyRevoked",
      "type": "event"
    },
    {
      "anonymous": false,
      "inputs": [
        {
          "indexed": false,
          "internalType": "address",
          "name": "account",
          "type": "address"
        }
      ],
      "name": "Unpaused",
      "type": "event"
    },
    {
      "anonymous": false,
      "inputs": [
        {
          "indexed": true,
          "internalType": "uint256",
          "name": "roomId",
          "type": "uint256"
        },
        {
          "indexed": false,
          "internalType": "address",
          "name": "voter",
          "type": "address"
        },
        {
          "indexed": false,
          "internalType": "address",
          "name": "target",
          "type": "address"
        }
      ],
      "name": "VoteCast",
      "type": "event"
    },
    {
      "anonymous": false,
      "inputs": [
        {
          "indexed": true,
          "internalType": "uint256",
          "name": "roomId",
          "type": "uint256"
        },
        {
          "indexed": false,
          "internalType": "address",
          "name": "eliminated",
          "type": "address"
        },
        {
          "indexed": false,
          "internalType": "uint256",
          "name": "voteCount",
          "type": "uint256"
        }
      ],
      "name": "VotingFinalized",
      "type": "event"
    },
    {
      "anonymous": false,
      "inputs": [
        {
          "indexed": true,
          "internalType": "uint256",
          "name": "roomId",
          "type": "uint256"
        }
      ],
      "name": "VotingStarted",
      "type": "event"
    },
    {
      "inputs": [],
      "name": "ADMIN_ROLE",
      "outputs": [
        {
          "internalType": "bytes32",
          "name": "",
          "type": "bytes32"
        }
      ],
      "stateMutability": "view",
      "type": "function"
    },
    {
      "inputs": [],
      "name": "DEFAULT_ADMIN_ROLE",
      "outputs": [
        {
          "internalType": "bytes32",
          "name": "",
          "type": "bytes32"
        }
      ],
      "stateMutability": "view",
      "type": "function"
    },
    {
      "inputs": [],
      "name": "MAX_ARRAY_SIZE",
      "outputs": [
        {
          "internalType": "uint32",
          "name": "",
          "type": "uint32"
        }
      ],
      "stateMutability": "view",
      "type": "function"
    },
    {
      "inputs": [],
      "name": "PHASE_TIMEOUT",
      "outputs": [
        {
          "internalType": "uint32",
          "name": "",
          "type": "uint32"
        }
      ],
      "stateMutability": "view",
      "type": "function"
    },
    {
      "inputs": [],
      "name": "SESSION_DURATION",
      "outputs": [
        {
          "internalType": "uint32",
          "name": "",
          "type": "uint32"
        }
      ],
      "stateMutability": "view",
      "type": "function"
    },
    {
      "inputs": [],
      "name": "TURN_TIMEOUT",
      "outputs": [
        {
          "internalType": "uint32",
          "name": "",
          "type": "uint32"
        }
      ],
      "stateMutability": "view",
      "type": "function"
    },
    {
      "inputs": [
        {
          "internalType": "uint256",
          "name": "roomId",
          "type": "uint256"
        },
        {
          "internalType": "bytes32",
          "name": "roleHash",
          "type": "bytes32"
        }
      ],
      "name": "commitAndConfirmRole",
      "outputs": [],
      "stateMutability": "nonpayable",
      "type": "function"
    },
    {
      "inputs": [
        {
          "internalType": "uint256",
          "name": "roomId",
          "type": "uint256"
        },
        {
          "internalType": "bytes32",
          "name": "deckHash",
          "type": "bytes32"
        }
      ],
      "name": "commitDeck",
      "outputs": [],
      "stateMutability": "nonpayable",
      "type": "function"
    },
    {
      "inputs": [
        {
          "internalType": "uint256",
          "name": "roomId",
          "type": "uint256"
        },
        {
          "internalType": "bytes32",
          "name": "targetHash",
          "type": "bytes32"
        }
      ],
      "name": "commitMafiaTarget",
      "outputs": [],
      "stateMutability": "nonpayable",
      "type": "function"
    },
    {
      "inputs": [
        {
          "internalType": "uint256",
          "name": "roomId",
          "type": "uint256"
        },
        {
          "internalType": "bytes32",
          "name": "hash",
          "type": "bytes32"
        }
      ],
      "name": "commitNightAction",
      "outputs": [],
      "stateMutability": "nonpayable",
      "type": "function"
    },
    {
      "inputs": [
        {
          "internalType": "uint256",
          "name": "roomId",
          "type": "uint256"
        },
        {
          "internalType": "bytes32",
          "name": "roleHash",
          "type": "bytes32"
        }
      ],
      "name": "commitRole",
      "outputs": [],
      "stateMutability": "nonpayable",
      "type": "function"
    },
    {
      "inputs": [
        {
          "internalType": "uint256",
          "name": "roomId",
          "type": "uint256"
        }
      ],
      "name": "confirmRole",
      "outputs": [],
      "stateMutability": "nonpayable",
      "type": "function"
    },
    {
      "inputs": [
        {
          "internalType": "string",
          "name": "roomName",
          "type": "string"
        },
        {
          "internalType": "uint8",
          "name": "maxPlayers",
          "type": "uint8"
        },
        {
          "internalType": "string",
          "name": "nickname",
          "type": "string"
        },
        {
          "internalType": "bytes",
          "name": "publicKey",
          "type": "bytes"
        },
        {
          "internalType": "address",
          "name": "sessionAddress",
          "type": "address"
        }
      ],
      "name": "createAndJoin",
      "outputs": [
        {
          "internalType": "uint256",
          "name": "",
          "type": "uint256"
        }
      ],
      "stateMutability": "payable",
      "type": "function"
    },
    {
      "inputs": [
        {
          "internalType": "uint256",
          "name": "",
          "type": "uint256"
        },
        {
          "internalType": "address",
          "name": "",
          "type": "address"
        }
      ],
      "name": "deckCommits",
      "outputs": [
        {
          "internalType": "bytes32",
          "name": "commitHash",
          "type": "bytes32"
        },
        {
          "internalType": "bool",
          "name": "revealed",
          "type": "bool"
        }
      ],
      "stateMutability": "view",
      "type": "function"
    },
    {
      "inputs": [
        {
          "internalType": "uint256",
          "name": "roomId",
          "type": "uint256"
        }
      ],
      "name": "endGameAutomatically",
      "outputs": [],
      "stateMutability": "nonpayable",
      "type": "function"
    },
    {
      "inputs": [
        {
          "internalType": "uint256",
          "name": "roomId",
          "type": "uint256"
        }
      ],
      "name": "endNight",
      "outputs": [],
      "stateMutability": "nonpayable",
      "type": "function"
    },
    {
      "inputs": [
        {
          "internalType": "uint256",
          "name": "roomId",
          "type": "uint256"
        }
      ],
      "name": "forcePhaseTimeout",
      "outputs": [],
      "stateMutability": "nonpayable",
      "type": "function"
    },
    {
      "inputs": [
        {
          "internalType": "uint256",
          "name": "roomId",
          "type": "uint256"
        }
      ],
      "name": "getAliveMafiaCount",
      "outputs": [
        {
          "internalType": "uint8",
          "name": "",
          "type": "uint8"
        }
      ],
      "stateMutability": "view",
      "type": "function"
    },
    {
      "inputs": [
        {
          "internalType": "uint256",
          "name": "roomId",
          "type": "uint256"
        }
      ],
      "name": "getAllKeysForMe",
      "outputs": [
        {
          "internalType": "address[]",
          "name": "senders",
          "type": "address[]"
        },
        {
          "internalType": "bytes[]",
          "name": "keys",
          "type": "bytes[]"
        }
      ],
      "stateMutability": "view",
      "type": "function"
    },
    {
      "inputs": [
        {
          "internalType": "uint256",
          "name": "roomId",
          "type": "uint256"
        }
      ],
      "name": "getDeck",
      "outputs": [
        {
          "internalType": "string[]",
          "name": "",
          "type": "string[]"
        }
      ],
      "stateMutability": "view",
      "type": "function"
    },
    {
      "inputs": [
        {
          "internalType": "uint256",
          "name": "roomId",
          "type": "uint256"
        },
        {
          "internalType": "address",
          "name": "from",
          "type": "address"
        },
        {
          "internalType": "address",
          "name": "to",
          "type": "address"
        }
      ],
      "name": "getKeyFromTo",
      "outputs": [
        {
          "internalType": "bytes",
          "name": "",
          "type": "bytes"
        }
      ],
      "stateMutability": "view",
      "type": "function"
    },
    {
      "inputs": [
        {
          "internalType": "uint256",
          "name": "roomId",
          "type": "uint256"
        }
      ],
      "name": "getMafiaChat",
      "outputs": [
        {
          "components": [
            {
              "internalType": "bytes",
              "name": "encryptedMessage",
              "type": "bytes"
            },
            {
              "internalType": "uint32",
              "name": "timestamp",
              "type": "uint32"
            },
            {
              "internalType": "address",
              "name": "sender",
              "type": "address"
            }
          ],
          "internalType": "struct MafiaPortalV4.MafiaMessage[]",
          "name": "",
          "type": "tuple[]"
        }
      ],
      "stateMutability": "view",
      "type": "function"
    },
    {
      "inputs": [
        {
          "internalType": "uint256",
          "name": "roomId",
          "type": "uint256"
        }
      ],
      "name": "getMafiaConsensus",
      "outputs": [
        {
          "internalType": "uint8",
          "name": "committed",
          "type": "uint8"
        },
        {
          "internalType": "uint8",
          "name": "revealed",
          "type": "uint8"
        },
        {
          "internalType": "address",
          "name": "consensusTarget",
          "type": "address"
        }
      ],
      "stateMutability": "view",
      "type": "function"
    },
    {
      "inputs": [
        {
          "internalType": "uint256",
          "name": "roomId",
          "type": "uint256"
        }
      ],
      "name": "getPhaseDeadline",
      "outputs": [
        {
          "internalType": "uint32",
          "name": "",
          "type": "uint32"
        }
      ],
      "stateMutability": "view",
      "type": "function"
    },
    {
      "inputs": [
        {
          "internalType": "uint256",
          "name": "roomId",
          "type": "uint256"
        },
        {
          "internalType": "address",
          "name": "player",
          "type": "address"
        }
      ],
      "name": "getPlayerFlags",
      "outputs": [
        {
          "internalType": "bool",
          "name": "isActive",
          "type": "bool"
        },
        {
          "internalType": "bool",
          "name": "hasConfirmedRole",
          "type": "bool"
        },
        {
          "internalType": "bool",
          "name": "hasVoted",
          "type": "bool"
        },
        {
          "internalType": "bool",
          "name": "hasCommitted",
          "type": "bool"
        },
        {
          "internalType": "bool",
          "name": "hasRevealed",
          "type": "bool"
        },
        {
          "internalType": "bool",
          "name": "hasSharedKeys",
          "type": "bool"
        },
        {
          "internalType": "bool",
          "name": "hasClaimedMafia",
          "type": "bool"
        }
      ],
      "stateMutability": "view",
      "type": "function"
    },
    {
      "inputs": [
        {
          "internalType": "uint256",
          "name": "roomId",
          "type": "uint256"
        }
      ],
      "name": "getPlayers",
      "outputs": [
        {
          "components": [
            {
              "internalType": "address",
              "name": "wallet",
              "type": "address"
            },
            {
              "internalType": "string",
              "name": "nickname",
              "type": "string"
            },
            {
              "internalType": "bytes",
              "name": "publicKey",
              "type": "bytes"
            },
            {
              "internalType": "uint32",
              "name": "flags",
              "type": "uint32"
            }
          ],
          "internalType": "struct MafiaPortalV4.Player[]",
          "name": "",
          "type": "tuple[]"
        }
      ],
      "stateMutability": "view",
      "type": "function"
    },
    {
      "inputs": [
        {
          "internalType": "uint256",
          "name": "roomId",
          "type": "uint256"
        }
      ],
      "name": "getRevealedMafiaCount",
      "outputs": [
        {
          "internalType": "uint8",
          "name": "",
          "type": "uint8"
        }
      ],
      "stateMutability": "view",
      "type": "function"
    },
    {
      "inputs": [
        {
          "internalType": "bytes32",
          "name": "role",
          "type": "bytes32"
        }
      ],
      "name": "getRoleAdmin",
      "outputs": [
        {
          "internalType": "bytes32",
          "name": "",
          "type": "bytes32"
        }
      ],
      "stateMutability": "view",
      "type": "function"
    },
    {
      "inputs": [
        {
          "internalType": "uint256",
          "name": "roomId",
          "type": "uint256"
        }
      ],
      "name": "getRoom",
      "outputs": [
        {
          "components": [
            {
              "internalType": "uint64",
              "name": "id",
              "type": "uint64"
            },
            {
              "internalType": "address",
              "name": "host",
              "type": "address"
            },
            {
              "internalType": "string",
              "name": "name",
              "type": "string"
            },
            {
              "internalType": "enum MafiaPortalV4.GamePhase",
              "name": "phase",
              "type": "uint8"
            },
            {
              "internalType": "uint8",
              "name": "maxPlayers",
              "type": "uint8"
            },
            {
              "internalType": "uint8",
              "name": "playersCount",
              "type": "uint8"
            },
            {
              "internalType": "uint8",
              "name": "aliveCount",
              "type": "uint8"
            },
            {
              "internalType": "uint16",
              "name": "dayCount",
              "type": "uint16"
            },
            {
              "internalType": "uint8",
              "name": "currentShufflerIndex",
              "type": "uint8"
            },
            {
              "internalType": "uint32",
              "name": "lastActionTimestamp",
              "type": "uint32"
            },
            {
              "internalType": "uint32",
              "name": "phaseDeadline",
              "type": "uint32"
            },
            {
              "internalType": "uint8",
              "name": "confirmedCount",
              "type": "uint8"
            },
            {
              "internalType": "uint8",
              "name": "votedCount",
              "type": "uint8"
            },
            {
              "internalType": "uint8",
              "name": "committedCount",
              "type": "uint8"
            },
            {
              "internalType": "uint8",
              "name": "revealedCount",
              "type": "uint8"
            },
            {
              "internalType": "uint8",
              "name": "keysSharedCount",
              "type": "uint8"
            }
          ],
          "internalType": "struct MafiaPortalV4.GameRoom",
          "name": "",
          "type": "tuple"
        }
      ],
      "stateMutability": "view",
      "type": "function"
    },
    {
      "inputs": [
        {
          "internalType": "bytes32",
          "name": "role",
          "type": "bytes32"
        },
        {
          "internalType": "address",
          "name": "account",
          "type": "address"
        }
      ],
      "name": "grantRole",
      "outputs": [],
      "stateMutability": "nonpayable",
      "type": "function"
    },
    {
      "inputs": [
        {
          "internalType": "bytes32",
          "name": "role",
          "type": "bytes32"
        },
        {
          "internalType": "address",
          "name": "account",
          "type": "address"
        }
      ],
      "name": "hasRole",
      "outputs": [
        {
          "internalType": "bool",
          "name": "",
          "type": "bool"
        }
      ],
      "stateMutability": "view",
      "type": "function"
    },
    {
      "inputs": [
        {
          "internalType": "uint256",
          "name": "",
          "type": "uint256"
        },
        {
          "internalType": "address",
          "name": "",
          "type": "address"
        }
      ],
      "name": "isPlayerInRoom",
      "outputs": [
        {
          "internalType": "bool",
          "name": "",
          "type": "bool"
        }
      ],
      "stateMutability": "view",
      "type": "function"
    },
    {
      "inputs": [
        {
          "internalType": "address",
          "name": "",
          "type": "address"
        }
      ],
      "name": "isRegisteredSession",
      "outputs": [
        {
          "internalType": "bool",
          "name": "",
          "type": "bool"
        }
      ],
      "stateMutability": "view",
      "type": "function"
    },
    {
      "inputs": [
        {
          "internalType": "uint256",
          "name": "roomId",
          "type": "uint256"
        },
        {
          "internalType": "string",
          "name": "nickname",
          "type": "string"
        },
        {
          "internalType": "bytes",
          "name": "publicKey",
          "type": "bytes"
        },
        {
          "internalType": "address",
          "name": "sessionAddress",
          "type": "address"
        }
      ],
      "name": "joinRoom",
      "outputs": [],
      "stateMutability": "payable",
      "type": "function"
    },
    {
      "inputs": [
        {
          "internalType": "uint256",
          "name": "",
          "type": "uint256"
        },
        {
          "internalType": "uint256",
          "name": "",
          "type": "uint256"
        }
      ],
      "name": "mafiaChat",
      "outputs": [
        {
          "internalType": "bytes",
          "name": "encryptedMessage",
          "type": "bytes"
        },
        {
          "internalType": "uint32",
          "name": "timestamp",
          "type": "uint32"
        },
        {
          "internalType": "address",
          "name": "sender",
          "type": "address"
        }
      ],
      "stateMutability": "view",
      "type": "function"
    },
    {
      "inputs": [
        {
          "internalType": "uint256",
          "name": "",
          "type": "uint256"
        }
      ],
      "name": "mafiaCommittedCount",
      "outputs": [
        {
          "internalType": "uint8",
          "name": "",
          "type": "uint8"
        }
      ],
      "stateMutability": "view",
      "type": "function"
    },
    {
      "inputs": [
        {
          "internalType": "uint256",
          "name": "",
          "type": "uint256"
        }
      ],
      "name": "mafiaConsensusTarget",
      "outputs": [
        {
          "internalType": "address",
          "name": "",
          "type": "address"
        }
      ],
      "stateMutability": "view",
      "type": "function"
    },
    {
      "inputs": [
        {
          "internalType": "uint256",
          "name": "",
          "type": "uint256"
        }
      ],
      "name": "mafiaRevealedCount",
      "outputs": [
        {
          "internalType": "uint8",
          "name": "",
          "type": "uint8"
        }
      ],
      "stateMutability": "view",
      "type": "function"
    },
    {
      "inputs": [
        {
          "internalType": "uint256",
          "name": "",
          "type": "uint256"
        },
        {
          "internalType": "address",
          "name": "",
          "type": "address"
        }
      ],
      "name": "mafiaTargetCommits",
      "outputs": [
        {
          "internalType": "bytes32",
          "name": "commitHash",
          "type": "bytes32"
        },
        {
          "internalType": "address",
          "name": "target",
          "type": "address"
        },
        {
          "internalType": "bool",
          "name": "revealed",
          "type": "bool"
        }
      ],
      "stateMutability": "view",
      "type": "function"
    },
    {
      "inputs": [],
      "name": "nextRoomId",
      "outputs": [
        {
          "internalType": "uint256",
          "name": "",
          "type": "uint256"
        }
      ],
      "stateMutability": "view",
      "type": "function"
    },
    {
      "inputs": [
        {
          "internalType": "uint256",
          "name": "",
          "type": "uint256"
        },
        {
          "internalType": "address",
          "name": "",
          "type": "address"
        }
      ],
      "name": "nightCommits",
      "outputs": [
        {
          "internalType": "bytes32",
          "name": "commitHash",
          "type": "bytes32"
        },
        {
          "internalType": "bool",
          "name": "revealed",
          "type": "bool"
        },
        {
          "internalType": "uint32",
          "name": "commitTime",
          "type": "uint32"
        }
      ],
      "stateMutability": "view",
      "type": "function"
    },
    {
      "inputs": [],
      "name": "pause",
      "outputs": [],
      "stateMutability": "nonpayable",
      "type": "function"
    },
    {
      "inputs": [],
      "name": "paused",
      "outputs": [
        {
          "internalType": "bool",
          "name": "",
          "type": "bool"
        }
      ],
      "stateMutability": "view",
      "type": "function"
    },
    {
      "inputs": [
        {
          "internalType": "uint256",
          "name": "",
          "type": "uint256"
        },
        {
          "internalType": "address",
          "name": "",
          "type": "address"
        },
        {
          "internalType": "address",
          "name": "",
          "type": "address"
        }
      ],
      "name": "playerDeckKeys",
      "outputs": [
        {
          "internalType": "bytes",
          "name": "",
          "type": "bytes"
        }
      ],
      "stateMutability": "view",
      "type": "function"
    },
    {
      "inputs": [
        {
          "internalType": "uint256",
          "name": "",
          "type": "uint256"
        },
        {
          "internalType": "address",
          "name": "",
          "type": "address"
        }
      ],
      "name": "playerIndex",
      "outputs": [
        {
          "internalType": "uint8",
          "name": "",
          "type": "uint8"
        }
      ],
      "stateMutability": "view",
      "type": "function"
    },
    {
      "inputs": [
        {
          "internalType": "uint256",
          "name": "",
          "type": "uint256"
        },
        {
          "internalType": "address",
          "name": "",
          "type": "address"
        }
      ],
      "name": "playerRoles",
      "outputs": [
        {
          "internalType": "enum MafiaPortalV4.Role",
          "name": "",
          "type": "uint8"
        }
      ],
      "stateMutability": "view",
      "type": "function"
    },
    {
      "inputs": [
        {
          "internalType": "bytes32",
          "name": "role",
          "type": "bytes32"
        },
        {
          "internalType": "address",
          "name": "callerConfirmation",
          "type": "address"
        }
      ],
      "name": "renounceRole",
      "outputs": [],
      "stateMutability": "nonpayable",
      "type": "function"
    },
    {
      "inputs": [
        {
          "internalType": "uint256",
          "name": "roomId",
          "type": "uint256"
        },
        {
          "internalType": "string[]",
          "name": "deck",
          "type": "string[]"
        },
        {
          "internalType": "string",
          "name": "salt",
          "type": "string"
        }
      ],
      "name": "revealDeck",
      "outputs": [],
      "stateMutability": "nonpayable",
      "type": "function"
    },
    {
      "inputs": [
        {
          "internalType": "uint256",
          "name": "roomId",
          "type": "uint256"
        },
        {
          "internalType": "address",
          "name": "target",
          "type": "address"
        },
        {
          "internalType": "string",
          "name": "salt",
          "type": "string"
        }
      ],
      "name": "revealMafiaTarget",
      "outputs": [],
      "stateMutability": "nonpayable",
      "type": "function"
    },
    {
      "inputs": [
        {
          "internalType": "uint256",
          "name": "roomId",
          "type": "uint256"
        },
        {
          "internalType": "enum MafiaPortalV4.NightActionType",
          "name": "action",
          "type": "uint8"
        },
        {
          "internalType": "address",
          "name": "target",
          "type": "address"
        },
        {
          "internalType": "string",
          "name": "salt",
          "type": "string"
        }
      ],
      "name": "revealNightAction",
      "outputs": [],
      "stateMutability": "nonpayable",
      "type": "function"
    },
    {
      "inputs": [
        {
          "internalType": "uint256",
          "name": "roomId",
          "type": "uint256"
        },
        {
          "internalType": "enum MafiaPortalV4.Role",
          "name": "role",
          "type": "uint8"
        },
        {
          "internalType": "string",
          "name": "salt",
          "type": "string"
        }
      ],
      "name": "revealRole",
      "outputs": [],
      "stateMutability": "nonpayable",
      "type": "function"
    },
    {
      "inputs": [
        {
          "internalType": "uint256",
          "name": "",
          "type": "uint256"
        },
        {
          "internalType": "address",
          "name": "",
          "type": "address"
        }
      ],
      "name": "revealedActions",
      "outputs": [
        {
          "internalType": "enum MafiaPortalV4.NightActionType",
          "name": "",
          "type": "uint8"
        }
      ],
      "stateMutability": "view",
      "type": "function"
    },
    {
      "inputs": [
        {
          "internalType": "uint256",
          "name": "",
          "type": "uint256"
        },
        {
          "internalType": "uint256",
          "name": "",
          "type": "uint256"
        }
      ],
      "name": "revealedDeck",
      "outputs": [
        {
          "internalType": "string",
          "name": "",
          "type": "string"
        }
      ],
      "stateMutability": "view",
      "type": "function"
    },
    {
      "inputs": [
        {
          "internalType": "uint256",
          "name": "",
          "type": "uint256"
        },
        {
          "internalType": "address",
          "name": "",
          "type": "address"
        }
      ],
      "name": "revealedTargets",
      "outputs": [
        {
          "internalType": "address",
          "name": "",
          "type": "address"
        }
      ],
      "stateMutability": "view",
      "type": "function"
    },
    {
      "inputs": [
        {
          "internalType": "bytes32",
          "name": "role",
          "type": "bytes32"
        },
        {
          "internalType": "address",
          "name": "account",
          "type": "address"
        }
      ],
      "name": "revokeRole",
      "outputs": [],
      "stateMutability": "nonpayable",
      "type": "function"
    },
    {
      "inputs": [],
      "name": "revokeSessionKey",
      "outputs": [],
      "stateMutability": "nonpayable",
      "type": "function"
    },
    {
      "inputs": [
        {
          "internalType": "uint256",
          "name": "",
          "type": "uint256"
        },
        {
          "internalType": "address",
          "name": "",
          "type": "address"
        }
      ],
      "name": "roleCommits",
      "outputs": [
        {
          "internalType": "bytes32",
          "name": "",
          "type": "bytes32"
        }
      ],
      "stateMutability": "view",
      "type": "function"
    },
    {
      "inputs": [
        {
          "internalType": "uint256",
          "name": "",
          "type": "uint256"
        },
        {
          "internalType": "uint256",
          "name": "",
          "type": "uint256"
        }
      ],
      "name": "roomPlayers",
      "outputs": [
        {
          "internalType": "address",
          "name": "wallet",
          "type": "address"
        },
        {
          "internalType": "string",
          "name": "nickname",
          "type": "string"
        },
        {
          "internalType": "bytes",
          "name": "publicKey",
          "type": "bytes"
        },
        {
          "internalType": "uint32",
          "name": "flags",
          "type": "uint32"
        }
      ],
      "stateMutability": "view",
      "type": "function"
    },
    {
      "inputs": [
        {
          "internalType": "uint256",
          "name": "",
          "type": "uint256"
        }
      ],
      "name": "rooms",
      "outputs": [
        {
          "internalType": "uint64",
          "name": "id",
          "type": "uint64"
        },
        {
          "internalType": "address",
          "name": "host",
          "type": "address"
        },
        {
          "internalType": "string",
          "name": "name",
          "type": "string"
        },
        {
          "internalType": "enum MafiaPortalV4.GamePhase",
          "name": "phase",
          "type": "uint8"
        },
        {
          "internalType": "uint8",
          "name": "maxPlayers",
          "type": "uint8"
        },
        {
          "internalType": "uint8",
          "name": "playersCount",
          "type": "uint8"
        },
        {
          "internalType": "uint8",
          "name": "aliveCount",
          "type": "uint8"
        },
        {
          "internalType": "uint16",
          "name": "dayCount",
          "type": "uint16"
        },
        {
          "internalType": "uint8",
          "name": "currentShufflerIndex",
          "type": "uint8"
        },
        {
          "internalType": "uint32",
          "name": "lastActionTimestamp",
          "type": "uint32"
        },
        {
          "internalType": "uint32",
          "name": "phaseDeadline",
          "type": "uint32"
        },
        {
          "internalType": "uint8",
          "name": "confirmedCount",
          "type": "uint8"
        },
        {
          "internalType": "uint8",
          "name": "votedCount",
          "type": "uint8"
        },
        {
          "internalType": "uint8",
          "name": "committedCount",
          "type": "uint8"
        },
        {
          "internalType": "uint8",
          "name": "revealedCount",
          "type": "uint8"
        },
        {
          "internalType": "uint8",
          "name": "keysSharedCount",
          "type": "uint8"
        }
      ],
      "stateMutability": "view",
      "type": "function"
    },
    {
      "inputs": [
        {
          "internalType": "uint256",
          "name": "roomId",
          "type": "uint256"
        },
        {
          "internalType": "bytes",
          "name": "encryptedMessage",
          "type": "bytes"
        }
      ],
      "name": "sendMafiaMessage",
      "outputs": [],
      "stateMutability": "nonpayable",
      "type": "function"
    },
    {
      "inputs": [
        {
          "internalType": "address",
          "name": "",
          "type": "address"
        }
      ],
      "name": "sessionKeys",
      "outputs": [
        {
          "internalType": "address",
          "name": "sessionAddress",
          "type": "address"
        },
        {
          "internalType": "uint32",
          "name": "expiresAt",
          "type": "uint32"
        },
        {
          "internalType": "uint64",
          "name": "roomId",
          "type": "uint64"
        },
        {
          "internalType": "bool",
          "name": "isActive",
          "type": "bool"
        }
      ],
      "stateMutability": "view",
      "type": "function"
    },
    {
      "inputs": [
        {
          "internalType": "address",
          "name": "",
          "type": "address"
        }
      ],
      "name": "sessionToMain",
      "outputs": [
        {
          "internalType": "address",
          "name": "",
          "type": "address"
        }
      ],
      "stateMutability": "view",
      "type": "function"
    },
    {
      "inputs": [
        {
          "internalType": "uint256",
          "name": "roomId",
          "type": "uint256"
        },
        {
          "internalType": "address[]",
          "name": "recipients",
          "type": "address[]"
        },
        {
          "internalType": "bytes[]",
          "name": "encryptedKeys",
          "type": "bytes[]"
        }
      ],
      "name": "shareKeysToAll",
      "outputs": [],
      "stateMutability": "nonpayable",
      "type": "function"
    },
    {
      "inputs": [
        {
          "internalType": "uint256",
          "name": "roomId",
          "type": "uint256"
        }
      ],
      "name": "startGame",
      "outputs": [],
      "stateMutability": "nonpayable",
      "type": "function"
    },
    {
      "inputs": [
        {
          "internalType": "uint256",
          "name": "roomId",
          "type": "uint256"
        }
      ],
      "name": "startVoting",
      "outputs": [],
      "stateMutability": "nonpayable",
      "type": "function"
    },
    {
      "inputs": [
        {
          "internalType": "bytes4",
          "name": "interfaceId",
          "type": "bytes4"
        }
      ],
      "name": "supportsInterface",
      "outputs": [
        {
          "internalType": "bool",
          "name": "",
          "type": "bool"
        }
      ],
      "stateMutability": "view",
      "type": "function"
    },
    {
      "inputs": [],
      "name": "unpause",
      "outputs": [],
      "stateMutability": "nonpayable",
      "type": "function"
    },
    {
      "inputs": [
        {
          "internalType": "uint256",
          "name": "roomId",
          "type": "uint256"
        },
        {
          "internalType": "address",
          "name": "target",
          "type": "address"
        }
      ],
      "name": "vote",
      "outputs": [],
      "stateMutability": "nonpayable",
      "type": "function"
    },
    {
      "inputs": [
        {
          "internalType": "uint256",
          "name": "",
          "type": "uint256"
        },
        {
          "internalType": "address",
          "name": "",
          "type": "address"
        }
      ],
      "name": "voteCounts",
      "outputs": [
        {
          "internalType": "uint8",
          "name": "",
          "type": "uint8"
        }
      ],
      "stateMutability": "view",
      "type": "function"
    },
    {
      "inputs": [
        {
          "internalType": "uint256",
          "name": "",
          "type": "uint256"
        },
        {
          "internalType": "address",
          "name": "",
          "type": "address"
        }
      ],
      "name": "votes",
      "outputs": [
        {
          "internalType": "address",
          "name": "",
          "type": "address"
        }
      ],
      "stateMutability": "view",
      "type": "function"
    },
    {
      "inputs": [],
      "name": "withdrawFees",
      "outputs": [],
      "stateMutability": "nonpayable",
      "type": "function"
    }
  ],
  "bytecode": "0x6080604052346100355760015f55600160195561001b33610039565b50610025336100af565b506040516168c190816101438239f35b5f80fd5b6001600160a01b0381165f9081525f516020616a245f395f51905f52602052604090205460ff166100aa576001600160a01b03165f8181525f516020616a245f395f51905f5260205260408120805460ff191660011790553391905f516020616a045f395f51905f528180a4600190565b505f90565b6001600160a01b0381165f9081525f516020616a445f395f51905f52602052604090205460ff166100aa576001600160a01b03165f8181525f516020616a445f395f51905f5260205260408120805460ff191660011790553391907fa49807205ce4d355092ef5a8a18f56e8913cf4a201fbe287825b095693c21775905f516020616a045f395f51905f529080a460019056fe6080806040526004361015610012575f80fd5b5f3560e01c90816301ffc9a714614b065750806302d947ef146147e457806307a52cab146147c757806309ed3e221461473257806312c57f551461138857806314a09d60146146fc5780631bae0ac8146145e5578063248a9ca3146145bf5780632a51fb3a146144ea5780632f2ff15d146144b957806330a05e731461291057806335b972991461444457806336568abe1461440057806337048f21146143155780633d2f5bda1461417e5780633deaa341146141625780633ec09d2c146141255780633f4ba83a1461409a5780633fb5d9f514613ef557806343cd690314613cf7578063460e204914613ba4578063476343ee14613b6157806348e69d1f14613ac25780634f324d1414613a825780635099fae214613981578063567e8dd51461392f5780635c975abb1461390d5780635d99dc3e146138665780635e82ff651461384b57806361ea2027146138045780636594bb0c14613471578063660e907c14613428578063669ead17146133dc5780636920e3ee146133af5780636d8a74cb1461312f5780636e2083f4146130fd5780637120465b14612eee57806375b238fc14612ec75780637fa9c28914612eab578063800122d61461293d57806382fab9d81461291057806384411c0a146128c95780638456cb591461284c5780638a8dd7f4146128085780638d29f52f146127a957806391d148541461276057806394225e9d1461242b578063a05bcf02146123f4578063a217fddf146123da578063aa55acbf14612375578063af38479114612099578063af7efa7c1461207e578063b6bf359a14611dca578063b7b8d60414611d62578063bb9ae8751461199d578063bcb72159146117a9578063c96f097914611598578063d06553941461146b578063d23254b414611421578063d547741f146113e9578063d94a51cb14611388578063dae2928a14610fc2578063e5ed1d5914610ed5578063e851122d14610e87578063ea99c3fe14610d9e578063eb024101146108fd578063eb0fa6f8146108b3578063f14caed714610850578063f30818ff14610753578063f3db51331461067c5763ff99233a14610329575f80fd5b3461067857606036600319011261067857600435610345614b59565b6044356001600160401b03811161067857610364903690600401614d85565b9161036d6154b5565b610376846154d3565b845f52600560205260405f2060018060a01b0382165f5260205260ff60405f205416156105f8576103a79085615559565b156105e957835f52600360205263ffffffff600260405f20015460581c16151580610657575b610648576103d9615615565b6103e2846154d3565b92845f52600360205260ff600260405f2001541660078110156106345760050361062557845f52601060205260405f2060018060a01b0385165f5260205260405f20541561061657845f52601260205260405f2060018060a01b0385165f5260205260ff600160405f20015460a01c16610607576104608486615630565b6001600160a01b03821692836105bb575b6104a46104969160405192839160208301958887526040808501526060840191614ee6565b03601f198101835282614c3e565b519020845f52601260205260405f2060018060a01b0385165f5260205260405f2054036105ac575f8481526012602090815260408083206001600160a01b03871684528252808320600101805460ff60a01b199096166001600160a81b031990961695909517600160a01b179094558582526014905291909120805484937f307ed77ec1f8fe53e10faa7fa486ba5e5b66eab3a9d19902c20b0da3c3b0b26a9392909160ff90610555908216614e0b565b1660ff1982541617905561056e60405192839283614e39565b0390a2805f52601460205260ff60405f205416815f52601360205260ff60405f2054161461059d575b60015f55005b6105a6906164c2565b5f610597565b6336c5b53760e11b5f5260045ffd5b855f52600560205260405f20845f5260205260ff60405f205416156105f8576105e48387615559565b610471575b630575d90f60e11b5f5260045ffd5b63721c7c6760e11b5f5260045ffd5b633a456ae760e11b5f5260045ffd5b631ea3b68b60e21b5f5260045ffd5b6338961af360e21b5f5260045ffd5b634e487b7160e01b5f52602160045260245ffd5b6301a6f70d60e01b5f5260045ffd5b50835f52600360205263ffffffff600260405f20015460581c1642116103cd565b5f80fd5b34610678576020366003190112610678576004355f5f5b825f52600460205260405f205460ff8216101561074557825f5260046020526106bf8160405f20614b9b565b50545f848152600f602090815260408083206001600160a01b039094168352929052205460ff1660058110156106345760011480610720575b61070b575b61070690614e0b565b610693565b9061071861070691614e0b565b9190506106fd565b50825f5260046020526002600361073a8360405f20614b9b565b5001541615156106f8565b60208260ff60405191168152f35b346106785760203660031901126106785760043561076f6154b5565b610778816154d3565b815f52600560205260405f2060018060a01b0382165f5260205260ff60405f205416156105f8576107a99082615559565b156105e9576107b6615615565b805f52600360205260ff600260405f200154166007811015610634578015908115610845575b50610625576107ea81616329565b15610836576107f8816163c5565b901561081157506105979061080b61548d565b9061618c565b15610827576108229061080b615466565b610597565b63308ce0f960e11b5f5260045ffd5b63837cd79f60e01b5f5260045ffd5b6006915014826107dc565b3461067857604036600319011261067857610869614b59565b6004355f52600c60205260405f209060018060a01b03165f52602052606060405f2063ffffffff6001825492015460405192835260ff81161515602084015260081c166040820152f35b34610678576040366003190112610678576108cc614b59565b6004355f908152600e602090815260408083206001600160a01b039485168452825291829020549151919092168152f35b34610678576060366003190112610678576004356024356001600160401b03811161067857610930903690600401614dbf565b6044356001600160401b0381116106785761094f903690600401614d85565b926109586154b5565b610961856154d3565b855f52600560205260405f2060018060a01b0382165f5260205260ff60405f205416156105f8576109929086615559565b156105e957845f52600360205263ffffffff600260405f20015460581c16151580610d7d575b610648576109c4615615565b6109cd856154d3565b91855f526003602052600260405f20019485549160ff831660078110156106345760010361062557610a2b61049691604051928391602083019560408752610a19606085018c8b6153d0565b848103601f1901604086015291614ee6565b519020865f52600760205260405f2060018060a01b0385165f5260205260405f205403610d6e5760328411610d5f57855f52600860205260405f2054159081610d4f575b50610d2a57845f52600860205260405f2054151580610d39575b610d2a575f858152600860205260409020600160401b8411610c9f578054848255808510610cb3575b505f908152602081208694939291825b858210610bbb5750505090610b8c7f1522116f5d4e7ac5527e161307d73b93c621a9a7627553f584afb6b6f62a74e79392855f52600760205260405f2060018060a01b0384165f52602052600260405f2001600160ff19825416179055610b6b610b3b610b3560ff8a5460301c16615454565b8861623e565b97610b4689826152b9565b610b5663ffffffff4216826152d6565b63ffffffff610b6442614e97565b1690614ea6565b60405193849360018060a01b031684526040602085015260408401916153d0565b0390a2815f52600460205260ff60405f205491161015610bac5760015f55005b610bb590616285565b80610597565b90919293949550610bcc8185615367565b906001600160401b038211610c9f57610bef82610be98754614bb4565b87614f8a565b5f90601f8311600114610c355792610c18836001959460209487965f92610c2a575b5050614fcd565b86555b01930191018795949392610ac2565b013590508e80610c11565b601f19831691865f5260205f20925f5b818110610c875750936020936001969387969383889510610c6e575b505050811b018655610c1b565b01355f19600384901b60f8161c191690558d8080610c61565b91936020600181928787013581550195019201610c45565b634e487b7160e01b5f52604160045260245ffd5b815f528460205f2091820191015b818110610cce5750610ab2565b80610cdb60019254614bb4565b80610ce8575b5001610cc1565b601f81118314610cfd57505f81555b89610ce1565b610d1990825f5283601f60205f20920160051c82019101614f74565b805f525f6020812081835555610cf7565b63d1d2a30960e01b5f5260045ffd5b50845f52600860205260405f2054831415610a89565b60ff915060101c16831086610a6f565b63376ab11160e01b5f5260045ffd5b639ea6d12760e01b5f5260045ffd5b50845f52600360205263ffffffff600260405f20015460581c1642116109b8565b3461067857602036600319011261067857600435610dba6154b5565b610dc3816154d3565b815f52600560205260405f2060018060a01b0382165f5260205260ff60405f205416156105f857610df49082615559565b156105e957610e01615615565b805f526003602052600260405f20015460ff811660078110156106345760050361062557815f52601360205260ff60405f2054168015159081610e6e575b50610e5f5760ff808260881c169160901c1610610d6e5761059790615cdd565b6303488f9960e61b5f5260045ffd5b9050825f52601460205260ff60405f2054161083610e3f565b3461067857604036600319011261067857610ea0614b59565b6004355f52600f60205260405f209060018060a01b03165f52602052602060ff60405f205416610ed36040518092614def565bf35b3461067857602036600319011261067857600435610ef16154b5565b610efa816154d3565b815f52600560205260405f2060018060a01b0382165f5260205260ff60405f205416156105f857610f2b9082615559565b156105e957610f38615615565b805f526003602052600260405f2001805460ff81166007811015610634576106255760ff60049160101c1610610fb357805460ff19166001178155610f8990610b46610f83846161f1565b826152b9565b7f50ad08f58a27f2851d7e3a1b3a6a46b290f2ce677e99642d30ff639721e777905f80a260015f55005b63f770074360e01b5f5260045ffd5b3461067857602036600319011261067857600435610fde6154b5565b610fe7816154d3565b815f52600560205260405f2060018060a01b0382165f5260205260ff60405f205416156105f8576110189082615559565b156105e957611025615615565b805f526003602052600260405f2001805463ffffffff8160581c16801590811561137d575b5061136e5760ff16827f77ff69c1f99cadd93a6da75080e20a3fed43f1d42375051a5d162adcafc5fbb760206040516110838186614d5f565ba2600781101561063457600181036111d7575050805f526003602052600260405f20018160ff825460301c16815f52600460205260405f20548110611162575b50506110de6110d860ff835460301c16615454565b8361623e565b6110e881836152b9565b6110f863ffffffff4216836152d6565b61111063ffffffff61110942614e97565b1683614ea6565b825f52600460205260ff60405f205491161015611130575b505060015f55005b54600260189190911c60ff16106111515761114a90616285565b8080611128565b61115d9061080b615399565b61114a565b60806111875f51602061680c5f395f51905f5292845f52600460205260405f20614b9b565b50546001600160a01b031661119c8185616103565b60405190815260406020820152601660408201527554696d656f757420647572696e672073687566666c6560501b6060820152a281836110c3565b600281036112fe5750815f52600460205260405f205f5b815460ff821610156112d657806002600361120c6112199486614b9b565b5001541661121e57614e0b565b6111ee565b6020600361122c8386614b9b565b50015416156001600361123f8487614b9b565b500154161581156112ce575b5015614e0b5761126f61125e8285614b9b565b50546001600160a01b031686616103565b845f51602061680c5f395f51905f52608061128a8487614b9b565b5054604080516001600160a01b0390921682526020820181905260159082015274151a5b595bdd5d08191d5c9a5b99c81c995d99585b605a1b6060820152a2614e0b565b90508661124b565b505054600260189190911c60ff16106112f25761082290615c47565b6108229061080b615399565b60048103611311575050610822906156de565b6005810361132457505061082290615cdd565b600314611333575b5050610597565b805460ff60ff60801b01191660041781556113569063ffffffff610b6442614e97565b5f5160206167ac5f395f51905f525f80a2808061132c565b63489e8c8960e01b5f5260045ffd5b90504211158461104a565b346106785761139636614d25565b915f52600960205260405f209060018060a01b03165f5260205260405f209060018060a01b03165f526020526113e56113d160405f20614c61565b604051918291602083526020830190614d01565b0390f35b346106785760403660031901126106785761141f600435611408614b59565b9061141a61141582614e53565b615afd565b615bc3565b005b346106785760403660031901126106785761143a614b59565b6004355f908152600a602090815260408083206001600160a01b039485168452825291829020549151919092168152f35b34610678576020366003190112610678576004355f52601160205260405f2080549061149682614e65565b916114a46040519384614c3e565b8083526020830180925f5260205f205f915b83831061154e57848660405191829160208301906020845251809152604083019060408160051b85010192915f905b8282106114f457505050500390f35b919360019193955060208091603f1989820301855287519060406115218351606084526060840190614d01565b9263ffffffff85820151168584015281878060a01b039101511691015296019201920185949391926114e5565b6002602060019260405161156181614c23565b61156a86614c61565b81528486015463ffffffff811684830152858060a01b0390841c1660408201528152019201920191906114b6565b34610678576115a636614b85565b6115ae6154b5565b6115b7826154d3565b825f52600560205260405f2060018060a01b0382165f5260205260ff60405f205416156105f8576115e89083615559565b156105e957815f52600360205263ffffffff600260405f20015460581c16151580611788575b6106485761161a615615565b611623826154d3565b90825f526003602052600260405f20019160ff8354166007811015610634576005036106255761165381856155d9565b611779576117617f3cf64897479c2ba314a5a0e8cf3a0e097d9367de65da54961e4dc414836499009360405161168881614c23565b84815260208101905f82526116de6001604083019263ffffffff421684528a5f52600c60205260405f20828060a01b0389165f5260205260405f20905181550192511515839060ff801983541691151516179055565b5164ffffffff0082549160081b169064ffffffff001916179055855f52600660205260405f2060018060a01b0384165f52602052600361173060ff60405f205416885f52600460205260405f20614b9b565b500163ffffffff600881835416171663ffffffff1982541617905561175b60ff825460881c16614e0b565b906152f9565b61177060405192839283614e7c565b0390a260015f55005b6317fd8aab60e31b5f5260045ffd5b50815f52600360205263ffffffff600260405f20015460581c16421161160e565b34610678576117b736614b85565b6117bf6154b5565b6117c8826154d3565b825f52600560205260405f2060018060a01b0382165f5260205260ff60405f205416156105f8576117f99083615559565b156105e957815f52600360205263ffffffff600260405f20015460581c1615158061197c575b6106485761182b615615565b611834826154d3565b90825f526003602052600260405f20019160ff83541660078110156106345760020361062557835f52601060205260405f2060018060a01b0382165f5260205260405f205461196d57611887818561559e565b61195e5760205f51602061684c5f395f51905f5291855f51602061676c5f395f51905f526118db8296835f526010865260405f2060018060a01b0386165f5286528060405f20556040519182918683614e7c565b0390a26118e88185615687565b6119016118fb60ff875460781c16614e0b565b86614ec9565b6040516001600160a01b039091168152a25460ff808260181c169160781c161461192b5760015f55005b61193481615c47565b7f54ccd98022ba3fd547cb241a4f3dfc13e7f9bb54550b7babf4080021c6c2f1265f80a280610597565b63a89ac15160e01b5f5260045ffd5b630890382360e21b5f5260045ffd5b50815f52600360205263ffffffff600260405f20015460581c16421161181f565b34610678576060366003190112610678576004356024356001600160401b038111610678576119d0903690600401614dbf565b6044356001600160401b038111610678576119ef903690600401614dbf565b90926119f96154b5565b611a02856154d3565b855f52600560205260405f2060018060a01b0382165f5260205260ff60405f205416156105f857611a339086615559565b156105e957845f52600360205263ffffffff600260405f20015460581c16151580611d41575b61064857611a65615615565b611a6e856154d3565b93855f526003602052600260405f200160ff81541660078110156106345760020361062557838503611d325760328511610d5f57865f52600660205260405f2060018060a01b0387165f5260205260206003611adb60ff60405f2054168a5f526004845260405f20614b9b565b50015416611d235793946001600160a01b0316935f5b8787821015611c5357506001600160a01b03600582901b85810135918216929183900361067857895f52600560205260405f20835f5260205260ff60405f205416156105f857878314611c445786821015611c3057611b5290850185615367565b9190928a5f52600960205260405f20895f5260205260405f20905f5260205260405f2060018060401b038311610c9f5782611b988c94611b928454614bb4565b84614f8a565b5f601f8211600114611bc6579080611bbb92600196975f92610c2a575050614fcd565b90555b019050611af1565b94601f19821695835f5260205f20965f5b818110611c1557509160019697918488959410611bfc575b505050811b019055611bbe565b01355f19600384901b60f8161c191690558d8080611bef565b8284013589556001909801978f975060209283019201611bd7565b634e487b7160e01b5f52603260045260245ffd5b637f043f9b60e01b5f5260045ffd5b82817f9204f1001d8059e799b3a233fa5114eab3b5d30762de3ff4e07fcd7e6266aad160208a835f526006825260405f20815f5282526003611ca660ff60405f205416865f526004855260405f20614b9b565b500163ffffffff8381835416171663ffffffff19825416179055611cd9611cd360ff875460981c16614e0b565b86615316565b604051908152a25460ff808260181c169160981c1614611cf95760015f55005b7ff6b9b3035e320bcce495d00c2d31a7bd341754f7b9919a4a736388e16ef674a55f80a280610597565b6387db46a560e01b5f5260045ffd5b634ec4810560e11b5f5260045ffd5b50845f52600360205263ffffffff600260405f20015460581c164211611a59565b34610678576020366003190112610678576001600160a01b03611d83614b6f565b165f526016602052608060405f2060ff60018254920154166040519160018060a01b038116835263ffffffff8160a01c16602084015260c01c604083015215156060820152f35b34610678576040366003190112610678576004356024356001600160401b03811161067857611dfd903690600401614d85565b611e089291926154b5565b611e11826154d3565b825f52600560205260405f2060018060a01b0382165f5260205260ff60405f205416156105f857611e429083615559565b156105e957611e4f615615565b611e58826154d3565b92825f52600360205260ff600260405f2001541660078110156106345760050361062557825f52601060205260405f2060018060a01b0385165f5260205260405f205415610616576104008211610d5f57611eb38484615630565b825f52601160205260405f209060405194611ecd86614c23565b611ed8368584614f3e565b86524263ffffffff16602087019081526001600160a01b0390911660408701818152845491949091600160401b811015610c9f57611f1b91600182018155614d6c565b97909761206b575180519097906001600160401b038111610c9f57611f4481611b928454614bb4565b6020601f8211600114611feb57600161177096959493611f838463ffffffff9586955f51602061674c5f395f51905f529e9f5f92611fe0575050614fcd565b81555b9451940180549351600160201b600160c01b03199290951692909216166001600160c01b031990921691909117602092831b600160201b600160c01b03161790556040805194855290840181905292938493840191614ee6565b015190508f80610c11565b601f19821699835f52815f209a5f5b8181106120535750936001845f51602061674c5f395f51905f529c9d63ffffffff9695839588976117709d9c9b9a1061203b575b505050811b018155611f86565b01515f1960f88460031b161c191690558e808061202e565b838301518d556001909c019b60209384019301611ffa565b634e487b7160e01b5f525f60045260245ffd5b34610678575f36600319011261067857602060405160328152f35b34610678576060366003190112610678576004356024356005811015610678576044356001600160401b038111610678576120d8903690600401614d85565b6120e39291926154b5565b6120ec846154d3565b845f52600560205260405f2060018060a01b0382165f5260205260ff60405f205416156105f85761211d9085615559565b156105e95761212a615615565b612133846154d3565b92845f52600f60205260405f2060018060a01b0385165f5260205260ff60405f20541660058110156106345761236657845f52601060205260405f2060018060a01b0385165f5260205260405f2054156106165760408211612357576121bb6104969160405192839160208301956121ab8789614def565b6040808501526060840191614ee6565b519020835f52601060205260405f2060018060a01b0384165f5260205260405f20540361234857825f52600f60205260405f2060018060a01b0383165f5260205260405f2060ff1981541660ff8316179055827f9b013793e3fbc06d6ff5e9b6ce06be7c635e957579a85ae6b262b85b13ecd8746040518061223e858783615347565b0390a2825f52600660205260405f2060018060a01b0383165f526020526080600361227b60ff60405f205416865f52600460205260405f20614b9b565b5001541615158061233d575b6122915760015f55005b81837f7f1edd8653eda945bad547f4f89adfa659b5f748dc9d88a447ff44550d7210be6122df60a0946122d25f5160206167cc5f395f51905f529785616103565b6040519182918683615347565b0390a260405190600180841b0316815260406020820152602860408201527f55736564206d616669612066756e6374696f6e732077697468206e6f6e2d6d6160608201526766696120726f6c6560c01b6080820152a2808080610597565b506001811415612287565b63134fed2d60e01b5f5260045ffd5b63bf1ad44360e01b5f5260045ffd5b63fd8fd76760e01b5f5260045ffd5b346106785760403660031901126106785761238e614b59565b6004355f52601260205260405f209060018060a01b03165f52602052606060405f2060ff6001825492015460405192835260018060a01b038116602084015260a01c1615156040820152f35b34610678575f3660031901126106785760206040515f8152f35b346106785761240236614b85565b905f52600860205260405f208054821015610678576113e5916113d1915f5260205f2001614c61565b3461067857602036600319011261067857335f90815260176020526040902054600435906001600160a01b03161561275a57335f908152601760205260409020546001600160a01b03165b815f52600460205260405f20905f5f908354915b8260ff8216106126bd575060ff16916124a283614e65565b936124b06040519586614c3e565b8385526124bc84614e65565b602086019690601f19013688376124d285614e65565b946124e06040519687614c3e565b8086526124ef601f1991614e65565b015f5b8181106126aa5750505f915f5b8560ff8216106125b357888888604051928392604084019060408552518091526060840191905f5b818110612591575050508281036020840152815180825260208201916020808360051b8301019401925f915b8383106125605786860387f35b91939550919360208061257f600193601f198682030187528951614d01565b97019301930190928695949293612553565b82516001600160a01b0316845286955060209384019390920191600101612527565b876125c282849b999a9b614b9b565b50546001600160a01b039081169087168114158061266b575b6125f4575b50506125eb90614e0b565b979695976124ff565b9461265b61266192876125eb959861261060ff86168094615333565b52875f52600960205260405f209060018060a01b03165f5260205260405f2060018060a01b038a165f526020528b6126548261264e60405f20614c61565b92615333565b528b615333565b50614e0b565b939050888a6125e0565b505f8581526009602090815260408083206001600160a01b038581168552908352818420908b1684529091529020546126a390614bb4565b15156125db565b60606020828901810191909152016124f2565b6126ca8186979597614b9b565b50546001600160a01b03878116911614158061270c575b6126f7575b6126ef90614e0b565b94929461248a565b906127046126ef91614e0b565b9190506126e6565b50835f52600960205260405f206127238287614b9b565b50546001600160a01b039081165f90815260209283526040808220928a1682529190925290205461275390614bb4565b15156126e1565b33612476565b3461067857604036600319011261067857612779614b59565b6004355f52600260205260405f209060018060a01b03165f52602052602060ff60405f2054166040519015158152f35b34610678576020366003190112610678576060600435805f52601360205260ff60405f20541690805f52601460205260ff60405f205416905f52601560205260018060a01b0360405f2054169060405192835260208301526040820152f35b3461067857604036600319011261067857612821614b59565b6004355f52601060205260405f209060018060a01b03165f52602052602060405f2054604051908152f35b34610678575f36600319011261067857612864615aa1565b61286c615615565b600160ff19815416176001557f62e78cea01bee320cd4e420270b5ea74000d11b0c9f74754ebdbfc544b05a2586020604051338152a1337f7c83004a7e59a8ea03b200186c4dda29a4e144d9844d63dbc1a09acf7dfcd4855f80a2005b34610678576040366003190112610678576128e2614b59565b6004355f52600660205260405f209060018060a01b03165f52602052602060ff60405f205416604051908152f35b34610678576020366003190112610678576004355f526013602052602060ff60405f205416604051908152f35b60a0366003190112610678576004356001600160401b03811161067857612968903690600401614d85565b906024359160ff83168303610678576044356001600160401b03811161067857612996903690600401614d85565b9093906064356001600160401b038111610678576129b8903690600401614d85565b9560843594919390916001600160a01b0386168603610678576129d96154b5565b6129e1615615565b600460ff8316108015612e9e575b612e8f5760208111612e8057601954965f198814612e6c576001880160195560405191612a1b83614c07565b6001600160401b0389168352336020840190815293612a3b368385614f3e565b604085019081525f606086015260ff821660808601525f60a08601525f60c08601525f60e08601525f61010086015263ffffffff42166101208601525f6101408601525f6101608601525f6101808601525f6101a08601525f6101c08601525f6101e08601528a5f52600360205260405f209560018060401b03865116875491600160401b600160e01b03905160401b169163ffffffff60e01b16171786555180519060018060401b038211610c9f57612b0582612afc60018a0154614bb4565b60018a01614f8a565b602090601f8311600114612dff57612b2692915f9183612df4575050614fcd565b60018601555b60608401519360078510156106345760028087018054608084015161ffff1990911660ff9889161760089190911b61ff001617815560a08301518d987fd9abe6195309293e802058345712163744c28bde8471531f9990f08419585bcf98612c619591949390926101e09291612ba4918516906151bd565b612bb68360c0830151168587016151d5565b612bca61ffff60e08301511685870161529a565b612bdd83610100830151168587016152b9565b612bf463ffffffff610120830151168587016152d6565b612c0b63ffffffff61014083015116858701614ea6565b612c1e8361016083015116858701614ec9565b612c318361018083015116858701614e1c565b612c44836101a0830151168587016152f9565b612c57836101c083015116858701614f06565b0151169101615316565b60ff612c80604051948594338652606060208701526060860191614ee6565b911660408301520390a260808211612de5576104008611612dd657612d8f8594612cfb6020985f51602061678c5f395f51905f5296885f5260048b52612cea60405f209160405193612cd185614bec565b338552612cdf368b8b614f3e565b8e8601523691614f3e565b604083015260026060830152614fdf565b5f86815260058952604080822033808452908b52818320805460ff1990811660011790915589845260068c52828420918452908b52818320805490911690558782526003808b528183206002908101805462ff0000191662010000179055898452908b52912001805463ff000000191663010000001790556001600160a01b038116612d9e575b6040519384933385615263565b0390a260015f55604051908152f35b612da9868233615f46565b3415612d8257612dd15f808080346001600160a01b0387165af1612dcb6151ef565b5061521e565b612d82565b63450bc0a760e01b5f5260045ffd5b636f6003c360e01b5f5260045ffd5b015190508e80610c11565b9190600188015f52805f20905f935b601f1984168510612e51576001945083601f19811610612e39575b505050811b016001860155612b2c565b01515f1960f88460031b161c191690558d8080612e29565b81810151835560209485019460019093019290910190612e0e565b634e487b7160e01b5f52601160045260245ffd5b630b279b2f60e41b5f5260045ffd5b6319413ccd60e11b5f5260045ffd5b50601460ff8316116129ef565b34610678575f36600319011261067857602060405161012c8152f35b34610678575f3660031901126106785760206040515f51602061682c5f395f51905f528152f35b6080366003190112610678576004356024356001600160401b03811161067857612f1c903690600401614d85565b6044356001600160401b03811161067857612f3b903690600401614d85565b92906064356001600160a01b03811680820361067857612f596154b5565b612f61615615565b865f526003602052600260405f200195865460ff81166007811015610634576106255760ff808260081c169160101c1610156130ee575f88815260056020908152604080832033845290915290205460ff166130e05760808611612de5576104008111612dd6575f51602061678c5f395f51905f52968861302b886130a194612cea61177099855f52600460205260ff60405f205416955f52600460205260405f209261301f8d6040519661301588614bec565b3388523691614f3e565b60208601523691614f3e565b5f8a815260056020908152604080832033808552908352818420805460ff199081166001179091558e8552600684528285209185529252909120805490911660ff928316179055815461308b916130859160101c16614e0b565b826151bd565b61309b60ff825460181c16614e0b565b906151d5565b806130b5575b506040519384933385615263565b6130c0878333615f46565b34156130a7575f8080806130da9434905af1612dcb6151ef565b866130a7565b621d934160e11b5f5260045ffd5b63bc42480360e01b5f5260045ffd5b34610678576020366003190112610678576004355f526015602052602060018060a01b0360405f205416604051908152f35b34610678576020366003190112610678575f6101e060405161315081614c07565b828152826020820152606060408201528260608201528260808201528260a08201528260c08201528260e08201528261010082015282610120820152826101408201528261016082015282610180820152826101a0820152826101c082015201526004355f52600360205260405f206002604051916131ce83614c07565b80546001600160401b038116845260401c6001600160a01b031660208401526131f960018201614c61565b6040840152015460ff81169060078210156106345760ff916060840152818160081c166080840152818160101c1660a0840152818160181c1660c084015261ffff8160201c1660e0840152818160301c1661010084015263ffffffff8160381c1661012084015263ffffffff8160581c16610140840152818160781c16610160840152818160801c16610180840152818160881c166101a0840152818160901c166101c084015260981c166101e082015260405180916020825260018060401b03815116602083015260018060a01b03602082015116604083015260ff6101e06132f460408401516102006060870152610220860190614d01565b9261330760608201516080870190614d5f565b8260808201511660a08601528260a08201511660c08601528260c08201511660e086015261ffff60e082015116610100860152826101008201511661012086015263ffffffff6101208201511661014086015263ffffffff61014082015116610160860152826101608201511661018086015282610180820151166101a0860152826101a0820151166101c0860152826101c082015116828601520151166102008301520390f35b34610678576020366003190112610678576004355f526014602052602060ff60405f205416604051908152f35b34610678576040366003190112610678576133f5614b59565b6004355f52600d60205260405f209060018060a01b03165f52602052602060ff60405f205416610ed36040518092614db2565b3461067857604036600319011261067857613441614b59565b6004355f52600560205260405f209060018060a01b03165f52602052602060ff60405f2054166040519015158152f35b34610678576080366003190112610678576004356024356004811015610678576044356001600160a01b038116808203610678576064356001600160401b038111610678576134c4903690600401614d85565b6134cf9291926154b5565b6134d8866154d3565b865f52600560205260405f2060018060a01b0382165f5260205260ff60405f205416156105f8576135099087615559565b156105e957855f52600360205263ffffffff600260405f20015460581c161515806137e3575b6106485761353b615615565b613544866154d3565b92865f526003602052600260405f20019460ff86541660078110156106345760050361062557875f52600660205260405f2060018060a01b0386165f52602052601060036135a460ff60405f2054168b5f52600460205260405f20614b9b565b5001541661195e57600187146137d5576135be85896155d9565b156137c657861515806137bd575b613789575b506136046104969160405192839160208301956135ee878c614db2565b8760408501526060808501526080840191614ee6565b519020855f52600c60205260405f2060018060a01b0384165f5260205260405f205403610d6e575f858152600c602090815260408083206001600160a01b0386168085529083528184206001908101805460ff199081169092179055898552600d84528285208286528452828520805460ff8b811691909316179055898552600e8452828520828652845282852080546001600160a01b03191687179055898552600684528285209185529083528184205489855260049093529220919587947fefeac4ab688c036b72571c6adaf81feb0d4e0a7099c1cfd8d09e54370198c53c946060949193909261374f929091600391613702918c1690614b9b565b500163ffffffff601081835416171663ffffffff1982541617905561373561372f8a8a5460901c16614e0b565b89614f06565b6040516001600160a01b0390941684526020840190614db2565b6040820152a254818160881c1691829160901c1614908161377f575b506137765760015f55005b610bb590615cdd565b905015158261376b565b875f52600560205260405f20845f5260205260ff60405f205416156105f8576137b29088615559565b156105e957876135d1565b508315156135cc565b63205e472d60e21b5f5260045ffd5b6282b42960e81b5f5260045ffd5b50855f52600360205263ffffffff600260405f20015460581c16421161352f565b346106785760403660031901126106785761381d614b59565b6004355f52600b60205260405f209060018060a01b03165f52602052602060ff60405f205416604051908152f35b34610678575f36600319011261067857602060405160788152f35b346106785760403660031901126106785760e060036138bc600435613889614b59565b815f52600660205260405f209060018060a01b03165f5260205260ff60405f205416905f52600460205260405f20614b9b565b50015460806040519160028116151583526001811615156020840152600481161515604084015260088116151560608401526010811615158284015260208116151560a084015216151560c0820152f35b34610678575f36600319011261067857602060ff600154166040519015158152f35b3461067857604036600319011261067857613948614b59565b6004355f52600760205260405f209060018060a01b03165f526020526040805f2060ff6002825492015416825191825215156020820152f35b346106785760203660031901126106785760043561399d6154b5565b6139a6816154d3565b815f52600560205260405f2060018060a01b0382165f5260205260ff60405f205416156105f8576139d79082615559565b156105e957805f52600360205263ffffffff600260405f20015460581c16151580613a61575b61064857613a09615615565b613a12816154d3565b815f526003602052600260405f20019060ff82541660078110156106345760020361062557613a41818461559e565b61195e575f51602061684c5f395f51905f526020826118e8869485615687565b50805f52600360205263ffffffff600260405f20015460581c1642116139fd565b34610678576020366003190112610678576001600160a01b03613aa3614b6f565b165f526017602052602060018060a01b0360405f205416604051908152f35b34610678575f36600319011261067857335f52601660205260405f20600181019060ff825416613aee57005b80546001600160a01b031680337f744157ccffbd293a2e8644928cd7d23d650f869b88f72d7bfea8041b76ca6bec5f80a35f90815260176020908152604080832080546001600160a01b031916905592546001600160a01b031682526018905220805460ff199081169091558154169055005b34610678575f36600319011261067857613b79615aa1565b5f80808047818115613b9b575b3390f115613b9057005b6040513d5f823e3d90fd5b506108fc613b86565b34610678576020366003190112610678576004355f52600460205260405f20805490613bcf82614e65565b91613bdd6040519384614c3e565b8083526020830180925f5260205f205f915b838310613c9b57848660405191829160208301906020845251809152604083019060408160051b85010192915f905b828210613c2d57505050500390f35b919360019193955060208091603f19898203018552875190848060a01b038251168152606063ffffffff81613c84613c72878701516080898801526080870190614d01565b60408701518682036040880152614d01565b940151169101529601920192018594939192613c1e565b60046020600192604051613cae81614bec565b848060a01b038654168152613cc4858701614c61565b83820152613cd460028701614c61565b604082015263ffffffff6003870154166060820152815201920192019190613bef565b3461067857613d0536614b85565b613d0d6154b5565b613d16826154d3565b825f52600560205260405f2060018060a01b0382165f5260205260ff60405f205416156105f857613d479083615559565b156105e957815f52600360205263ffffffff600260405f20015460581c16151580613ed4575b61064857613d79615615565b613d82826154d3565b90825f526003602052600260405f20015460ff811660078110156106345760010361062557613dc490845f52600460205260ff60405f209160301c1690614b9b565b50546001600160a01b0390811690831603613ec557825f52600660205260405f2060018060a01b0383165f5260205260406003613e1160ff835f205416865f526004602052835f20614b9b565b50015416611779575f8381526007602090815260408083206001600160a01b038616808552908352818420858155600201805460ff191690558684526006835281842090845282528083205486845260049092529091207ffbabe9c4a6257c269f37e649a08003e579b119fcff47ac57e59d1502fccea41c9391600391613e9b9160ff1690614b9b565b500163ffffffff604081835416171663ffffffff1982541617905561177060405192839283614e7c565b631cc191eb60e31b5f5260045ffd5b50815f52600360205263ffffffff600260405f20015460581c164211613d6d565b3461067857613f0336614b85565b613f0b6154b5565b613f14826154d3565b825f52600560205260405f2060018060a01b0382165f5260205260ff60405f205416156105f857613f459083615559565b156105e957815f52600360205263ffffffff600260405f20015460581c16151580614079575b61064857613f77615615565b613f80826154d3565b90825f52600360205260ff600260405f2001541660078110156106345760050361062557825f52601060205260405f2060018060a01b0383165f5260205260405f20541561061657825f52601260205260405f2060018060a01b0383165f5260205260405f205461406a57816140177ff5adb2642a216ea3114d73daac494b2341695b10db2b0e6be988acb22fbc15649385615630565b835f52601260205260405f2060018060a01b0382165f526020528160405f2055835f52601360205260405f2060ff61405181835416614e0b565b1660ff1982541617905561177060405192839283614e7c565b6317ac735560e11b5f5260045ffd5b50815f52600360205263ffffffff600260405f20015460581c164211613f6b565b34610678575f366003190112610678576140b2615aa1565b60015460ff8116156141165760ff19166001557f5db9ee0a495bf2e6ff9c91a7834c1ba4fdd244a5e8aa4e537bd38aeae4b073aa6020604051338152a1337f306ca22c455fe433ebbf0542bbf947ea6a725495f9e1043db2a47e3c579403855f80a2005b638dfc202b60e01b5f5260045ffd5b34610678576020366003190112610678576001600160a01b03614146614b6f565b165f526018602052602060ff60405f2054166040519015158152f35b34610678575f3660031901126106785760206040516138408152f35b346106785760203660031901126106785760043561419a6154b5565b6141a3816154d3565b815f52600560205260405f2060018060a01b0382165f5260205260ff60405f205416156105f8576141d49082615559565b156105e9576141e1615615565b805f526003602052600260405f200160ff81541660078110156106345760030361062557805460ff60ff60801b01191660041781556142289063ffffffff610b6442614e97565b805f52600460205260405f205f5b815460ff821610156142fd57806142506142c99284614b9b565b50546001600160a01b031660036142678386614b9b565b5001805463fffffffb811663ffffffff199091161790555f858152600a602090815260408083206001600160a01b0385168452909152902080546001600160a01b0319169055600260036142bb8487614b9b565b500154166142ce5750614e0b565b614236565b5f858152600b602090815260408083206001600160a01b03909416835292905220805460ff191690558461265b565b825f5160206167ac5f395f51905f525f80a260015f55005b346106785761432336614b85565b61432b6154b5565b614334826154d3565b825f52600560205260405f2060018060a01b0382165f5260205260ff60405f205416156105f8576143659083615559565b156105e957614372615615565b61437b826154d3565b90825f52600360205260ff600260405f2001541660078110156106345760020361062557825f52601060205260405f2060018060a01b0383165f5260205260405f205461196d575f51602061676c5f395f51905f5291835f52601060205260405f2060018060a01b0382165f526020528160405f205561177060405192839283614e7c565b3461067857604036600319011261067857614419614b59565b336001600160a01b038216036144355761141f90600435615bc3565b63334bd91960e11b5f5260045ffd5b346106785761445236614b85565b905f52601160205260405f208054821015610678576144979161447491614d6c565b50600161448082614c61565b910154604051928392606084526060840190614d01565b9063ffffffff8116602084015260018060a01b039060201c1660408301520390f35b346106785760403660031901126106785761141f6004356144d8614b59565b906144e561141582614e53565b615b37565b34610678576020366003190112610678576004355f52600860205260405f2080549061451582614e65565b916145236040519384614c3e565b8083526020830180925f5260205f205f915b8383106145a257848660405191829160208301906020845251809152604083019060408160051b85010192915f905b82821061457357505050500390f35b919360019193955060206145928192603f198a82030186528851614d01565b9601920192018594939192614564565b6001602081926145b185614c61565b815201920192019190614535565b346106785760203660031901126106785760206145dd600435614e53565b604051908152f35b34610678576020366003190112610678576004355f52600360205260405f208054600261461460018401614c61565b920154604080516001600160401b038416815292811c6001600160a01b031660208401526102009083018190529192839260ff9161465491850190614d01565b9161466460608501838316614d5f565b818160081c166080850152818160101c1660a0850152818160181c1660c085015261ffff8160201c1660e0850152818160301c1661010085015263ffffffff8160381c1661012085015263ffffffff8160581c16610140850152818160781c16610160850152818160801c16610180850152818160881c166101a0850152818160901c166101c085015260981c166101e08301520390f35b34610678576020366003190112610678576004355f526003602052602063ffffffff600260405f20015460581c16604051908152f35b346106785761474036614b85565b905f52600460205260405f209081548110156106785761475f91614b9b565b5080546001600160a01b031661477760018301614c61565b916147bd63ffffffff600361478e60028501614c61565b93015416916147af6040519586958652608060208701526080860190614d01565b908482036040860152614d01565b9060608301520390f35b34610678575f366003190112610678576020601954604051908152f35b3461067857604036600319011261067857600435614800614b59565b6148086154b5565b614811826154d3565b825f52600560205260405f2060018060a01b0382165f5260205260ff60405f205416156105f8576148429083615559565b156105e957815f52600360205263ffffffff600260405f20015460581c16151580614ae5575b61064857614874615615565b61487d826154d3565b90825f526003602052600260405f20019160ff83541660078110156106345760040361062557835f52600560205260405f2060018060a01b0383165f5260205260ff60405f205416156105f8576148d48285615559565b156105e95783917fcfff1651bcea794952a516ce970ab17518a85210bd939aaeaac670a8d3e65ec791835f52600660205260405f2060018060a01b0382165f526020526004600361493660ff60405f205416875f528360205260405f20614b9b565b5001545f868152600a602090815260408083206001600160a01b0387811685529252909120549290911615911680151580614abb575b614a7f575b505f858152600a602090815260408083206001600160a01b03868116855290835281842080546001600160a01b0319169188169182179055888452600b83528184209084529091529020805460ff906149cb908216614e0b565b1660ff19825416179055614a0e575b6149e960405192839283614e39565b0390a25460ff808260181c169160801c1614614a055760015f55005b610bb5906156de565b835f52600660205260405f2060018060a01b0382165f526020526003614a4660ff60405f205416865f52600460205260405f20614b9b565b500163ffffffff600481835416171663ffffffff19825416179055614a7a614a7460ff875460801c16614e0b565b86614e1c565b6149da565b855f52600b60205260405f209060018060a01b03165f5260205260405f2060ff614aab81835416614dfc565b1660ff1982541617905587614971565b50855f52600b60205260405f2060018060a01b0382165f5260205260ff60405f205416151561496c565b50815f52600360205263ffffffff600260405f20015460581c164211614868565b34610678576020366003190112610678576004359063ffffffff60e01b821680920361067857602091637965db0b60e01b8114908115614b48575b5015158152f35b6301ffc9a760e01b14905083614b41565b602435906001600160a01b038216820361067857565b600435906001600160a01b038216820361067857565b6040906003190112610678576004359060243590565b8054821015611c30575f5260205f209060021b01905f90565b90600182811c92168015614be2575b6020831014614bce57565b634e487b7160e01b5f52602260045260245ffd5b91607f1691614bc3565b608081019081106001600160401b03821117610c9f57604052565b61020081019081106001600160401b03821117610c9f57604052565b606081019081106001600160401b03821117610c9f57604052565b601f909101601f19168101906001600160401b03821190821017610c9f57604052565b9060405191825f825492614c7484614bb4565b8084529360018116908115614cdf5750600114614c9b575b50614c9992500383614c3e565b565b90505f9291925260205f20905f915b818310614cc3575050906020614c99928201015f614c8c565b6020919350806001915483858901015201910190918492614caa565b905060209250614c9994915060ff191682840152151560051b8201015f614c8c565b805180835260209291819084018484015e5f828201840152601f01601f1916010190565b606090600319011261067857600435906024356001600160a01b038116810361067857906044356001600160a01b03811681036106785790565b9060078210156106345752565b8054821015611c30575f5260205f209060011b01905f90565b9181601f84011215610678578235916001600160401b038311610678576020838186019501011161067857565b9060048210156106345752565b9181601f84011215610678578235916001600160401b038311610678576020808501948460051b01011161067857565b9060058210156106345752565b60ff168015612e6c575f190190565b60ff1660ff8114612e6c5760010190565b805460ff60801b191660809290921b60ff60801b16919091179055565b6001600160a01b0391821681529116602082015260400190565b5f526002602052600160405f20015490565b6001600160401b038111610c9f5760051b60200190565b6001600160a01b039091168152602081019190915260400190565b9061012c8201809211612e6c57565b805463ffffffff60581b191660589290921b63ffffffff60581b16919091179055565b805460ff60781b191660789290921b60ff60781b16919091179055565b908060209392818452848401375f828201840152601f01601f1916010190565b805460ff60901b191660909290921b60ff60901b16919091179055565b6001600160401b038111610c9f57601f01601f191660200190565b929192614f4a82614f23565b91614f586040519384614c3e565b829481845281830111610678578281602093845f960137010152565b818110614f7f575050565b5f8155600101614f74565b9190601f8111614f9957505050565b614c99925f5260205f20906020601f840160051c83019310614fc3575b601f0160051c0190614f74565b9091508190614fb6565b8160011b915f199060031b1c19161790565b8054600160401b811015610c9f57614ffc91600182018155614b9b565b91909161206b57805182546001600160a01b0319166001600160a01b03919091161782556020810151805160018401916001600160401b038211610c9f5761504e826150488554614bb4565b85614f8a565b602090601f831160011461515a5761506f92915f91836150e1575050614fcd565b90555b6040810151805160028401916001600160401b038211610c9f5761509a826150488554614bb4565b602090601f83116001146150ec57936003936150c98463ffffffff979560609589975f926150e1575050614fcd565b90555b0151169201911663ffffffff19825416179055565b015190505f80610c11565b90601f19831691845f52815f20925f5b81811061514257508460609463ffffffff9894600398948a986001951061512b575b505050811b0190556150cc565b01515f19838a1b60f8161c191690555f808061511e565b929360206001819287860151815501950193016150fc565b90601f19831691845f52815f20925f5b8181106151a5575090846001959493921061518d575b505050811b019055615072565b01515f1960f88460031b161c191690555f8080615180565b9293602060018192878601518155019501930161516a565b9062ff000082549160101b169062ff00001916179055565b9063ff00000082549160181b169063ff0000001916179055565b3d15615219573d9061520082614f23565b9161520e6040519384614c3e565b82523d5f602084013e565b606090565b1561522557565b60405162461bcd60e51b81526020600482015260166024820152752330b4b632b2103a3790333ab7321039b2b9b9b4b7b760511b6044820152606490fd5b929160409261528a9296959660018060a01b03168552606060208601526060850191614ee6565b6001600160a01b03909416910152565b805461ffff60201b191660209290921b61ffff60201b16919091179055565b805460ff60301b191660309290921b60ff60301b16919091179055565b805463ffffffff60381b191660389290921b63ffffffff60381b16919091179055565b805460ff60881b191660889290921b60ff60881b16919091179055565b805460ff60981b191660989290921b60ff60981b16919091179055565b8051821015611c305760209160051b010190565b6001600160a01b039091168152604081019291614c999160200190614def565b903590601e198136030182121561067857018035906001600160401b0382116106785760200191813603831361067857565b604051906153a8604083614c3e565b6019825278546f6f2066657720706c61796572732072656d61696e696e6760381b6020830152565b90602083828152019060208160051b85010193835f915b8383106153f75750505050505090565b909192939495601f198282030186528635601e1984360301811215610678578301602081019190356001600160401b038111610678578036038313610678576154466020928392600195614ee6565b9801960194930191906153e7565b60ff60019116019060ff8211612e6c57565b60405190615475604083614c3e565b6009825268546f776e2077696e7360b81b6020830152565b6040519061549c604083614c3e565b600a8252694d616669612077696e7360b01b6020830152565b60025f54146154c45760025f55565b633ee5aeb560e01b5f5260045ffd5b335f908152601760205260409020546001600160a01b031690816154f75750503390565b815f52601660205260405f2060ff6001820154161561554a575463ffffffff8160a01c16421161553b5760c01c0361552c5790565b637ce3c8fd60e11b5f5260045ffd5b630fe82d2560e11b5f5260045ffd5b635f8874dd60e11b5f5260045ffd5b615595600391600293815f52600660205260405f209060018060a01b03165f5260205260ff60405f205416905f52600460205260405f20614b9b565b50015416151590565b615595600391600193815f52600660205260405f2090858060a01b03165f5260205260ff60405f205416905f52600460205260405f20614b9b565b615595600391600893815f52600660205260405f209060018060a01b03165f5260205260ff60405f205416905f52600460205260405f20614b9b565b60ff6001541661562157565b63d93c066560e01b5f5260045ffd5b61566a90600392815f52600660205260405f209060018060a01b03165f5260205260ff60405f205416905f52600460205260405f20614b9b565b5001805463ffffffff19811663ffffffff91909116176080179055565b6156c190600392815f52600660205260405f209060018060a01b03165f5260205260ff60405f205416905f52600460205260405f20614b9b565b5001805463ffffffff19811663ffffffff91909116176001179055565b90815f5260036020528160405f205f905f90835f52600460205260405f205f908054915b8260ff821610615a1957505050607f600260ff92015460191c16911690811180615a07575b156159e457816040916157485f5160206167ec5f395f51905f529486616103565b845f5160206167cc5f395f51905f52608085519460018060a01b03169485815286602082015260098782015268159bdd1959081bdd5d60ba1b6060820152a282519182526020820152a25b815f52600460205260405f20915f5b835460ff8216101561583657806157bc6158319286614b9b565b50545f848152600a602090815260408083206001600160a01b0390941680845293825280832080546001600160a01b0319169055868352600b825280832093835292905220805460ff1916905560036158158287614b9b565b5001805463fffffffb811663ffffffff19909116179055614e0b565b6157a2565b505f818152600360205260409020600201805460ff60801b1916905590915061585e81616680565b156158665750565b5f818152600360205260409020600201805460ff61ffff60881b011916600517815561589a9063ffffffff610b6442614e97565b805f52600460205260405f205f5b815460ff8216101561597e57806158c26159799284614b9b565b50546001600160a01b031660036158d98386614b9b565b5001805463ffffffe7811663ffffffff199091161790555f858152600c602090815260408083206001600160a01b03949094168084529382528083208381556001908101849055888452600d83528184208585528352818420805460ff19169055888452600e8352818420858552835281842080546001600160a01b03191690558884526012835281842094845293909152812081815590910155614e0b565b6158a8565b50505f818152601360209081526040808320805460ff1990811690915560148352818420805490911690556015909152812080546001600160a01b03191690557f34b0c4c95aa7776d35dbd8b24afd53388828c61c26fd5a6b11a21809662440879080a2565b50505f5160206167ec5f395f51905f52604080515f81525f6020820152a2615793565b506001600160a01b0382161515615727565b9091929394955060026003615a2e8385614b9b565b50015416615a4c575b615a4090614e0b565b90879594939291615702565b615a568183614b9b565b50545f898152600b602090815260408083206001600160a01b039094168084529390915290205460ff9081169087168111615a93575b5050615a37565b9096509450615a405f615a8c565b335f9081527fe5ebfa64fca8d502a8e50c1edffd2c31ef4dad5b396e65d9f397fb028f74abc5602052604090205460ff1615615ad957565b63e2517d3f60e01b5f52336004525f51602061682c5f395f51905f5260245260445ffd5b5f81815260026020908152604080832033845290915290205460ff1615615b215750565b63e2517d3f60e01b5f523360045260245260445ffd5b5f8181526002602090815260408083206001600160a01b038616845290915290205460ff16615bbd575f8181526002602090815260408083206001600160a01b0395909516808452949091528120805460ff19166001179055339291907f2f8788117e7eff1d82e926ec794901d17c78024a50270940304540a733656f0d9080a4600190565b50505f90565b5f8181526002602090815260408083206001600160a01b038616845290915290205460ff1615615bbd575f8181526002602090815260408083206001600160a01b0395909516808452949091528120805460ff19169055339291907ff6391f5c32d9c69d2a47ea670b442974b53935d1edc7fd64eb21e047a839171b9080a4600190565b805f526003602052600260405f2001600360ff1982541617815561ffff815460201c169061ffff8214612e6c5761ffff602091615ca860017fa9b4e96158ed085745975f198fa026959997245ae7e7aed9cd0252ce02b2107195018261529a565b615cb863ffffffff4216826152d6565b615cd063ffffffff615cc942614e97565b1682614ea6565b54821c16604051908152a2565b90815f5260156020528160018060a01b0360405f2054165f825f52600460205260405f205f908054905b8160ff841610615eb4575b505050827fb874a4c95be602274c8e6944d4d375ca4189eda377b69ee751f3b92dd4dcf2d860405180615d46858783614e39565b0390a28115159081615ea0575b50615e51575b505f52600460205260405f20915f5b835460ff82161015615e175780615d82615e129286614b9b565b50545f848152600c602090815260408083206001600160a01b03909416808452938252808320838155600101839055868352600d82528083208484528252808320805460ff19169055868352600e82528083209383529290522080546001600160a01b03191690556003615df68287614b9b565b5001805463ffffffe7811663ffffffff19909116179055614e0b565b615d68565b505f818152600360205260409020600201805461ffff60881b19169055909150615e4081616680565b15615e485750565b614c9990615c47565b608081615e6c5f5160206167cc5f395f51905f529385616103565b60405190815260406020820152600f60408201526e12da5b1b195908185d081b9a59da1d608a1b6060820152a2815f615d59565b6001600160a01b031682141590505f615d53565b90919450615ec28582614b9b565b50545f888152600d602090815260408083206001600160a01b039094168084529390915290205460ff1695906004871015610634576002899714615f115750615f0a90614e0b565b9190615d07565b5f878152600e602090815260408083206001600160a01b03948516845290915281205490911694509250829150819050615d12565b6001600160a01b0390911691908215611c4457825f52601860205260ff60405f2054166160f4575f838152601760205260409020546001600160a01b03166160f4576001600160a01b03165f8181526016602052604090206001015490919060ff166160af575b6138404201804211612e6c577f290e52799b1ac63207e28c21f7f1f387cf8ea9257dde8e363a02e157d8e4c6589163ffffffff604092166160738351615ff281614bec565b8781526020808201848152600180881b5f19018716888501908152606085018281525f8c81526016909552938990209451925190516001600160c01b031960c09190911b166001600160a01b0390931663ffffffff60a01b60a09290921b919091161791909117835590519101805460ff191691151560ff16919091179055565b5f8681526017602090815284822080546001600160a01b031916881790556018815290849020805460ff191660011790558351928352820152a3565b5f828152601660209081526040808320546001600160a01b031683526017825280832080546001600160a01b031916905560189091529020805460ff19169055615fad565b631fef749360e21b5f5260045ffd5b9061610e8183615559565b1561618857815f52600660205260405f209060018060a01b03165f52602052600361614b60ff60405f205416835f52600460205260405f20614b9b565b500163ffffffff63fffffffd8254161663ffffffff198254161790555f526003602052614c99600260405f200161309b60ff825460181c16614dfc565b5050565b5f81815260036020908152604091829020600201805460ff63ffffffff60581b0119166006179055905181815291927fd778487128ba4386ebcfb2703af01f8a2a2b8663f880622d26a77a29397e68f3929182916161ec91830190614d01565b0390a2565b5f52600460205260405f205f8154905b8160ff821610616214575060ff91501690565b600260036162228386614b9b565b500154166162385761623390614e0b565b616201565b91505090565b5f52600460205260405f20908154905b8160ff821610616261575060ff91501690565b6002600361626f8386614b9b565b500154166162385761628090614e0b565b61624e565b5f8181526003602052604090206002908101805460ff64ff000000ff60781b01191690911781556162be9063ffffffff610b6442614e97565b5f52600460205260405f20905f5b825460ff821610156163245780600260036162ea6162f79487614b9b565b500154166162fc57614e0b565b6162cc565b60036163088286614b9b565b5001805463ffffff9e811663ffffffff19909116179055614e0b565b509050565b5f818152600460205260408120805492915b8360ff82161061634e5750505050600190565b6002600361635c8385614b9b565b50015416151580616382575b61637a5761637590614e0b565b61633b565b505050505f90565b50825f52600f60205260405f206163998284614b9b565b50546001600160a01b03165f908152602091909152604090205460ff1660058110156106345715616368565b905f5f92805f52600460205260405f205f918154925b8360ff82161061641c575050505060ff168015928315918261640e575b508361640357509190565b60ff91935016151590565b60ff8216111591505f6163f8565b6002600361642a8386614b9b565b50015416616441575b61643c90614e0b565b6163db565b93815f52600f60205260405f206164588685614b9b565b50546001600160a01b03165f908152602091909152604090205460ff166005811015610634576001810361649c575061649361643c91614e0b565b945b9050616433565b9094906164ad575b61643c90616495565b956164ba61643c91614e0b565b9690506164a4565b805f52601360205260ff60405f2054161561667d575f81815260046020526040812080546001918390815b8360ff82161061658e575b505050505f51602061686c5f395f51905f529181806040939061657c575b1561657557815b5f868152601560205284902080546001600160a01b0319166001600160a01b03851617905581616562575b5082516001600160a01b03909216825215156020820152a2565b6001600160a01b0316151590505f616548565b5f9161651d565b506001600160a01b0382161515616516565b6165988183614b9b565b50545f8881526012602090815260408083206001600160a01b03949094168084529390915290206001015460a01c60ff1680616663575b6165e3575b506165de90614e0b565b6164ed565b5f8881526012602090815260408083206001600160a01b0394851684529091529020600101549296919392169180616625575050936165de6001925b906165d4565b9095909290916001600160a01b03871603616643576165de9061661f565b505050505060405f51602061686c5f395f51905f52915f9181935f6164f8565b50600260036166728486614b9b565b5001541615156165cf565b50565b805f52600360205260ff600260405f20015460181c1660018111156166e857506166a981616329565b6166b257505f90565b6166bb816163c5565b90156166d357506166ce9061080b61548d565b600190565b6166dc57505f90565b6166ce9061080b615466565b6166ce9190616716576040516166ff604082614c3e565b60048152634472617760e01b60208201529061618c565b604051616724604082614c3e565b60148152734c61737420706c61796572207374616e64696e6760601b60208201529061618c56fea4a46989ff60ad96ec74df0f289e1e16b51c97fecb224f2e8e927103d5b54eaef33c1bd762b898b33040e70f49cf90ff496cf7366f6fafa9d961b0de89b7244b3b7d84e02e9f6642b42e0ca3e77297f9c7c807832a60c0fc1926ade76abc7badcf33babc496bb6dc2942b39cb7b75766bbbadf7da50d176ff8c513e991140239b1ed64d561b0179e61c72bf46d0809a99dac99baeb98fc9f5d13be1f6c2e3f826b571d1c11516ea63adff1048766bdfa510e9c5bf4e32ca29d4ba11e16edf2f18ef7613b6eacaa71c74d950e2c093c23a0d3ecb066d1387d80e95159d07ed08ba49807205ce4d355092ef5a8a18f56e8913cf4a201fbe287825b095693c2177582b52ddf0195aa8ac16480985f5042052aa742563721520fa34764d253824d43020f20553b51a906b0cb24d2431eb46bd2dc31b5c75d4ba8165ff1bb284ad2a1a26469706673582212204fe99cfff7bddcaa3d3a64d35c04de208d31319e8f9fb922425950508f4502d264736f6c634300081c00332f8788117e7eff1d82e926ec794901d17c78024a50270940304540a733656f0dac33ff75c19e70fe83507db0d683fd3465c996598dc972688b7ace676c89077be5ebfa64fca8d502a8e50c1edffd2c31ef4dad5b396e65d9f397fb028f74abc5",
  "linkReferences": {},
  "deployedLinkReferences": {},
  "immutableReferences": {},
  "inputSourceName": "project/contracts/MafiaPortalV4.sol",
  "buildInfoId": "solc-0_8_28-271e6c42666f7861c86ff894c9841c752593a06b"
}