{
  "_format": "hh3-artifact-1",
  "contractName": "MafiaPortalV4",
  "sourceName": "contracts/MafiaPortalV4.sol",
  "abi": [
    {
      "inputs": [],
      "stateMutability": "nonpayable",
      "type": "constructor"
    },
    {
      "inputs": [],
      "name": "AccessControlBadConfirmation",
      "type": "error"
    },
    {
      "inputs": [
        {
          "internalType": "address",
          "name": "account",
          "type": "address"
        },
        {
          "internalType": "bytes32",
          "name": "neededRole",
          "type": "bytes32"
        }
      ],
      "name": "AccessControlUnauthorizedAccount",
      "type": "error"
    },
    {
      "inputs": [],
      "name": "AlreadyCommitted",
      "type": "error"
    },
    {
      "inputs": [],
      "name": "AlreadyJoined",
      "type": "error"
    },
    {
      "inputs": [],
      "name": "AlreadyRevealed",
      "type": "error"
    },
    {
      "inputs": [],
      "name": "AlreadySharedKeys",
      "type": "error"
    },
    {
      "inputs": [],
      "name": "AlreadyVoted",
      "type": "error"
    },
    {
      "inputs": [],
      "name": "ArrayTooLarge",
      "type": "error"
    },
    {
      "inputs": [],
      "name": "CommitDeadlinePassed",
      "type": "error"
    },
    {
      "inputs": [],
      "name": "EnforcedPause",
      "type": "error"
    },
    {
      "inputs": [],
      "name": "ExpectedPause",
      "type": "error"
    },
    {
      "inputs": [],
      "name": "InvalidArrayLength",
      "type": "error"
    },
    {
      "inputs": [],
      "name": "InvalidDeckSize",
      "type": "error"
    },
    {
      "inputs": [],
      "name": "InvalidMafiaTargetReveal",
      "type": "error"
    },
    {
      "inputs": [],
      "name": "InvalidPlayerCount",
      "type": "error"
    },
    {
      "inputs": [],
      "name": "InvalidReveal",
      "type": "error"
    },
    {
      "inputs": [],
      "name": "InvalidRoleReveal",
      "type": "error"
    },
    {
      "inputs": [],
      "name": "InvalidSessionAddress",
      "type": "error"
    },
    {
      "inputs": [],
      "name": "InvalidSessionKey",
      "type": "error"
    },
    {
      "inputs": [],
      "name": "MafiaNotReady",
      "type": "error"
    },
    {
      "inputs": [],
      "name": "MafiaTargetAlreadyCommitted",
      "type": "error"
    },
    {
      "inputs": [],
      "name": "MafiaTargetAlreadyRevealed",
      "type": "error"
    },
    {
      "inputs": [],
      "name": "NicknameTooLong",
      "type": "error"
    },
    {
      "inputs": [],
      "name": "NoStalledPlayers",
      "type": "error"
    },
    {
      "inputs": [],
      "name": "NotAllRolesRevealed",
      "type": "error"
    },
    {
      "inputs": [],
      "name": "NotCommitted",
      "type": "error"
    },
    {
      "inputs": [],
      "name": "NotEnoughPlayers",
      "type": "error"
    },
    {
      "inputs": [],
      "name": "NotMafiaMember",
      "type": "error"
    },
    {
      "inputs": [],
      "name": "NotParticipant",
      "type": "error"
    },
    {
      "inputs": [],
      "name": "NotYourTurn",
      "type": "error"
    },
    {
      "inputs": [],
      "name": "PhaseDeadlinePassed",
      "type": "error"
    },
    {
      "inputs": [],
      "name": "PlayerInactive",
      "type": "error"
    },
    {
      "inputs": [],
      "name": "PublicKeyTooLong",
      "type": "error"
    },
    {
      "inputs": [],
      "name": "ReentrancyGuardReentrantCall",
      "type": "error"
    },
    {
      "inputs": [],
      "name": "RoleAlreadyCommitted",
      "type": "error"
    },
    {
      "inputs": [],
      "name": "RoleAlreadyRevealed",
      "type": "error"
    },
    {
      "inputs": [],
      "name": "RoleNotCommitted",
      "type": "error"
    },
    {
      "inputs": [],
      "name": "RoomFull",
      "type": "error"
    },
    {
      "inputs": [],
      "name": "SaltTooLong",
      "type": "error"
    },
    {
      "inputs": [],
      "name": "SessionAlreadyRegistered",
      "type": "error"
    },
    {
      "inputs": [],
      "name": "SessionExpired",
      "type": "error"
    },
    {
      "inputs": [],
      "name": "SessionNotForThisRoom",
      "type": "error"
    },
    {
      "inputs": [],
      "name": "TimeNotExpired",
      "type": "error"
    },
    {
      "inputs": [],
      "name": "Unauthorized",
      "type": "error"
    },
    {
      "inputs": [],
      "name": "WinConditionNotMet",
      "type": "error"
    },
    {
      "inputs": [],
      "name": "WrongPhase",
      "type": "error"
    },
    {
      "anonymous": false,
      "inputs": [
        {
          "indexed": true,
          "internalType": "uint256",
          "name": "roomId",
          "type": "uint256"
        }
      ],
      "name": "AllKeysShared",
      "type": "event"
    },
    {
      "anonymous": false,
      "inputs": [
        {
          "indexed": true,
          "internalType": "uint256",
          "name": "roomId",
          "type": "uint256"
        }
      ],
      "name": "AllMafiaCommitted",
      "type": "event"
    },
    {
      "anonymous": false,
      "inputs": [
        {
          "indexed": true,
          "internalType": "uint256",
          "name": "roomId",
          "type": "uint256"
        }
      ],
      "name": "AllRolesConfirmed",
      "type": "event"
    },
    {
      "anonymous": false,
      "inputs": [
        {
          "indexed": true,
          "internalType": "uint256",
          "name": "roomId",
          "type": "uint256"
        },
        {
          "indexed": false,
          "internalType": "uint256",
          "name": "dayNumber",
          "type": "uint256"
        }
      ],
      "name": "DayStarted",
      "type": "event"
    },
    {
      "anonymous": false,
      "inputs": [
        {
          "indexed": true,
          "internalType": "uint256",
          "name": "roomId",
          "type": "uint256"
        },
        {
          "indexed": false,
          "internalType": "address",
          "name": "player",
          "type": "address"
        },
        {
          "indexed": false,
          "internalType": "bytes32",
          "name": "commitHash",
          "type": "bytes32"
        }
      ],
      "name": "DeckCommitted",
      "type": "event"
    },
    {
      "anonymous": false,
      "inputs": [
        {
          "indexed": true,
          "internalType": "uint256",
          "name": "roomId",
          "type": "uint256"
        },
        {
          "indexed": false,
          "internalType": "address",
          "name": "player",
          "type": "address"
        },
        {
          "indexed": false,
          "internalType": "string[]",
          "name": "deck",
          "type": "string[]"
        }
      ],
      "name": "DeckRevealed",
      "type": "event"
    },
    {
      "anonymous": false,
      "inputs": [
        {
          "indexed": true,
          "internalType": "address",
          "name": "admin",
          "type": "address"
        }
      ],
      "name": "EmergencyPause",
      "type": "event"
    },
    {
      "anonymous": false,
      "inputs": [
        {
          "indexed": true,
          "internalType": "address",
          "name": "admin",
          "type": "address"
        }
      ],
      "name": "EmergencyUnpause",
      "type": "event"
    },
    {
      "anonymous": false,
      "inputs": [
        {
          "indexed": true,
          "internalType": "uint256",
          "name": "roomId",
          "type": "uint256"
        },
        {
          "indexed": false,
          "internalType": "string",
          "name": "winCondition",
          "type": "string"
        }
      ],
      "name": "GameEnded",
      "type": "event"
    },
    {
      "anonymous": false,
      "inputs": [
        {
          "indexed": true,
          "internalType": "uint256",
          "name": "roomId",
          "type": "uint256"
        }
      ],
      "name": "GameStarted",
      "type": "event"
    },
    {
      "anonymous": false,
      "inputs": [
        {
          "indexed": true,
          "internalType": "uint256",
          "name": "roomId",
          "type": "uint256"
        },
        {
          "indexed": false,
          "internalType": "address",
          "name": "from",
          "type": "address"
        }
      ],
      "name": "KeysSharedToAll",
      "type": "event"
    },
    {
      "anonymous": false,
      "inputs": [
        {
          "indexed": true,
          "internalType": "uint256",
          "name": "roomId",
          "type": "uint256"
        },
        {
          "indexed": false,
          "internalType": "address",
          "name": "cheater",
          "type": "address"
        },
        {
          "indexed": false,
          "internalType": "enum MafiaPortalV4.Role",
          "name": "actualRole",
          "type": "uint8"
        }
      ],
      "name": "MafiaCheaterPunished",
      "type": "event"
    },
    {
      "anonymous": false,
      "inputs": [
        {
          "indexed": true,
          "internalType": "uint256",
          "name": "roomId",
          "type": "uint256"
        },
        {
          "indexed": false,
          "internalType": "address",
          "name": "target",
          "type": "address"
        },
        {
          "indexed": false,
          "internalType": "bool",
          "name": "success",
          "type": "bool"
        }
      ],
      "name": "MafiaConsensusReached",
      "type": "event"
    },
    {
      "anonymous": false,
      "inputs": [
        {
          "indexed": true,
          "internalType": "uint256",
          "name": "roomId",
          "type": "uint256"
        },
        {
          "indexed": false,
          "internalType": "address",
          "name": "sender",
          "type": "address"
        },
        {
          "indexed": false,
          "internalType": "bytes",
          "name": "encryptedMessage",
          "type": "bytes"
        }
      ],
      "name": "MafiaMessageSent",
      "type": "event"
    },
    {
      "anonymous": false,
      "inputs": [
        {
          "indexed": true,
          "internalType": "uint256",
          "name": "roomId",
          "type": "uint256"
        },
        {
          "indexed": false,
          "internalType": "address",
          "name": "player",
          "type": "address"
        },
        {
          "indexed": false,
          "internalType": "bytes32",
          "name": "commitHash",
          "type": "bytes32"
        }
      ],
      "name": "MafiaTargetCommitted",
      "type": "event"
    },
    {
      "anonymous": false,
      "inputs": [
        {
          "indexed": true,
          "internalType": "uint256",
          "name": "roomId",
          "type": "uint256"
        },
        {
          "indexed": false,
          "internalType": "address",
          "name": "player",
          "type": "address"
        },
        {
          "indexed": false,
          "internalType": "address",
          "name": "target",
          "type": "address"
        }
      ],
      "name": "MafiaTargetRevealed",
      "type": "event"
    },
    {
      "anonymous": false,
      "inputs": [
        {
          "indexed": true,
          "internalType": "uint256",
          "name": "roomId",
          "type": "uint256"
        },
        {
          "indexed": false,
          "internalType": "address",
          "name": "player",
          "type": "address"
        },
        {
          "indexed": false,
          "internalType": "bytes32",
          "name": "commitHash",
          "type": "bytes32"
        }
      ],
      "name": "NightActionCommitted",
      "type": "event"
    },
    {
      "anonymous": false,
      "inputs": [
        {
          "indexed": true,
          "internalType": "uint256",
          "name": "roomId",
          "type": "uint256"
        },
        {
          "indexed": false,
          "internalType": "address",
          "name": "player",
          "type": "address"
        },
        {
          "indexed": false,
          "internalType": "enum MafiaPortalV4.NightActionType",
          "name": "action",
          "type": "uint8"
        },
        {
          "indexed": false,
          "internalType": "address",
          "name": "target",
          "type": "address"
        }
      ],
      "name": "NightActionRevealed",
      "type": "event"
    },
    {
      "anonymous": false,
      "inputs": [
        {
          "indexed": true,
          "internalType": "uint256",
          "name": "roomId",
          "type": "uint256"
        },
        {
          "indexed": false,
          "internalType": "address",
          "name": "killed",
          "type": "address"
        },
        {
          "indexed": false,
          "internalType": "address",
          "name": "healed",
          "type": "address"
        }
      ],
      "name": "NightFinalized",
      "type": "event"
    },
    {
      "anonymous": false,
      "inputs": [
        {
          "indexed": true,
          "internalType": "uint256",
          "name": "roomId",
          "type": "uint256"
        }
      ],
      "name": "NightStarted",
      "type": "event"
    },
    {
      "anonymous": false,
      "inputs": [
        {
          "indexed": false,
          "internalType": "address",
          "name": "account",
          "type": "address"
        }
      ],
      "name": "Paused",
      "type": "event"
    },
    {
      "anonymous": false,
      "inputs": [
        {
          "indexed": true,
          "internalType": "uint256",
          "name": "roomId",
          "type": "uint256"
        },
        {
          "indexed": false,
          "internalType": "enum MafiaPortalV4.GamePhase",
          "name": "phase",
          "type": "uint8"
        }
      ],
      "name": "PhaseTimeout",
      "type": "event"
    },
    {
      "anonymous": false,
      "inputs": [
        {
          "indexed": true,
          "internalType": "uint256",
          "name": "roomId",
          "type": "uint256"
        },
        {
          "indexed": false,
          "internalType": "address",
          "name": "player",
          "type": "address"
        },
        {
          "indexed": false,
          "internalType": "string",
          "name": "reason",
          "type": "string"
        }
      ],
      "name": "PlayerEliminated",
      "type": "event"
    },
    {
      "anonymous": false,
      "inputs": [
        {
          "indexed": true,
          "internalType": "uint256",
          "name": "roomId",
          "type": "uint256"
        },
        {
          "indexed": false,
          "internalType": "address",
          "name": "player",
          "type": "address"
        },
        {
          "indexed": false,
          "internalType": "string",
          "name": "nickname",
          "type": "string"
        },
        {
          "indexed": false,
          "internalType": "address",
          "name": "sessionKey",
          "type": "address"
        }
      ],
      "name": "PlayerJoined",
      "type": "event"
    },
    {
      "anonymous": false,
      "inputs": [
        {
          "indexed": true,
          "internalType": "uint256",
          "name": "roomId",
          "type": "uint256"
        },
        {
          "indexed": false,
          "internalType": "address",
          "name": "player",
          "type": "address"
        },
        {
          "indexed": false,
          "internalType": "string",
          "name": "reason",
          "type": "string"
        }
      ],
      "name": "PlayerKicked",
      "type": "event"
    },
    {
      "anonymous": false,
      "inputs": [
        {
          "indexed": true,
          "internalType": "bytes32",
          "name": "role",
          "type": "bytes32"
        },
        {
          "indexed": true,
          "internalType": "bytes32",
          "name": "previousAdminRole",
          "type": "bytes32"
        },
        {
          "indexed": true,
          "internalType": "bytes32",
          "name": "newAdminRole",
          "type": "bytes32"
        }
      ],
      "name": "RoleAdminChanged",
      "type": "event"
    },
    {
      "anonymous": false,
      "inputs": [
        {
          "indexed": true,
          "internalType": "uint256",
          "name": "roomId",
          "type": "uint256"
        },
        {
          "indexed": false,
          "internalType": "address",
          "name": "player",
          "type": "address"
        },
        {
          "indexed": false,
          "internalType": "bytes32",
          "name": "commitHash",
          "type": "bytes32"
        }
      ],
      "name": "RoleCommitted",
      "type": "event"
    },
    {
      "anonymous": false,
      "inputs": [
        {
          "indexed": true,
          "internalType": "uint256",
          "name": "roomId",
          "type": "uint256"
        },
        {
          "indexed": false,
          "internalType": "address",
          "name": "player",
          "type": "address"
        }
      ],
      "name": "RoleConfirmed",
      "type": "event"
    },
    {
      "anonymous": false,
      "inputs": [
        {
          "indexed": true,
          "internalType": "bytes32",
          "name": "role",
          "type": "bytes32"
        },
        {
          "indexed": true,
          "internalType": "address",
          "name": "account",
          "type": "address"
        },
        {
          "indexed": true,
          "internalType": "address",
          "name": "sender",
          "type": "address"
        }
      ],
      "name": "RoleGranted",
      "type": "event"
    },
    {
      "anonymous": false,
      "inputs": [
        {
          "indexed": true,
          "internalType": "uint256",
          "name": "roomId",
          "type": "uint256"
        },
        {
          "indexed": false,
          "internalType": "address",
          "name": "player",
          "type": "address"
        },
        {
          "indexed": false,
          "internalType": "enum MafiaPortalV4.Role",
          "name": "role",
          "type": "uint8"
        }
      ],
      "name": "RoleRevealed",
      "type": "event"
    },
    {
      "anonymous": false,
      "inputs": [
        {
          "indexed": true,
          "internalType": "bytes32",
          "name": "role",
          "type": "bytes32"
        },
        {
          "indexed": true,
          "internalType": "address",
          "name": "account",
          "type": "address"
        },
        {
          "indexed": true,
          "internalType": "address",
          "name": "sender",
          "type": "address"
        }
      ],
      "name": "RoleRevoked",
      "type": "event"
    },
    {
      "anonymous": false,
      "inputs": [
        {
          "indexed": true,
          "internalType": "uint256",
          "name": "roomId",
          "type": "uint256"
        },
        {
          "indexed": false,
          "internalType": "address",
          "name": "host",
          "type": "address"
        },
        {
          "indexed": false,
          "internalType": "uint256",
          "name": "maxPlayers",
          "type": "uint256"
        }
      ],
      "name": "RoomCreated",
      "type": "event"
    },
    {
      "anonymous": false,
      "inputs": [
        {
          "indexed": true,
          "internalType": "address",
          "name": "mainWallet",
          "type": "address"
        },
        {
          "indexed": true,
          "internalType": "address",
          "name": "sessionKey",
          "type": "address"
        },
        {
          "indexed": false,
          "internalType": "uint256",
          "name": "roomId",
          "type": "uint256"
        },
        {
          "indexed": false,
          "internalType": "uint256",
          "name": "expiresAt",
          "type": "uint256"
        }
      ],
      "name": "SessionKeyRegistered",
      "type": "event"
    },
    {
      "anonymous": false,
      "inputs": [
        {
          "indexed": true,
          "internalType": "address",
          "name": "mainWallet",
          "type": "address"
        },
        {
          "indexed": true,
          "internalType": "address",
          "name": "sessionKey",
          "type": "address"
        }
      ],
      "name": "SessionKeyRevoked",
      "type": "event"
    },
    {
      "anonymous": false,
      "inputs": [
        {
          "indexed": false,
          "internalType": "address",
          "name": "account",
          "type": "address"
        }
      ],
      "name": "Unpaused",
      "type": "event"
    },
    {
      "anonymous": false,
      "inputs": [
        {
          "indexed": true,
          "internalType": "uint256",
          "name": "roomId",
          "type": "uint256"
        },
        {
          "indexed": false,
          "internalType": "address",
          "name": "voter",
          "type": "address"
        },
        {
          "indexed": false,
          "internalType": "address",
          "name": "target",
          "type": "address"
        }
      ],
      "name": "VoteCast",
      "type": "event"
    },
    {
      "anonymous": false,
      "inputs": [
        {
          "indexed": true,
          "internalType": "uint256",
          "name": "roomId",
          "type": "uint256"
        },
        {
          "indexed": false,
          "internalType": "address",
          "name": "eliminated",
          "type": "address"
        },
        {
          "indexed": false,
          "internalType": "uint256",
          "name": "voteCount",
          "type": "uint256"
        }
      ],
      "name": "VotingFinalized",
      "type": "event"
    },
    {
      "anonymous": false,
      "inputs": [
        {
          "indexed": true,
          "internalType": "uint256",
          "name": "roomId",
          "type": "uint256"
        }
      ],
      "name": "VotingStarted",
      "type": "event"
    },
    {
      "inputs": [],
      "name": "ADMIN_ROLE",
      "outputs": [
        {
          "internalType": "bytes32",
          "name": "",
          "type": "bytes32"
        }
      ],
      "stateMutability": "view",
      "type": "function"
    },
    {
      "inputs": [],
      "name": "COMMIT_PHASE_DURATION",
      "outputs": [
        {
          "internalType": "uint32",
          "name": "",
          "type": "uint32"
        }
      ],
      "stateMutability": "view",
      "type": "function"
    },
    {
      "inputs": [],
      "name": "DEFAULT_ADMIN_ROLE",
      "outputs": [
        {
          "internalType": "bytes32",
          "name": "",
          "type": "bytes32"
        }
      ],
      "stateMutability": "view",
      "type": "function"
    },
    {
      "inputs": [],
      "name": "MAX_ARRAY_SIZE",
      "outputs": [
        {
          "internalType": "uint32",
          "name": "",
          "type": "uint32"
        }
      ],
      "stateMutability": "view",
      "type": "function"
    },
    {
      "inputs": [],
      "name": "PHASE_TIMEOUT",
      "outputs": [
        {
          "internalType": "uint32",
          "name": "",
          "type": "uint32"
        }
      ],
      "stateMutability": "view",
      "type": "function"
    },
    {
      "inputs": [],
      "name": "SESSION_DURATION",
      "outputs": [
        {
          "internalType": "uint32",
          "name": "",
          "type": "uint32"
        }
      ],
      "stateMutability": "view",
      "type": "function"
    },
    {
      "inputs": [],
      "name": "TURN_TIMEOUT",
      "outputs": [
        {
          "internalType": "uint32",
          "name": "",
          "type": "uint32"
        }
      ],
      "stateMutability": "view",
      "type": "function"
    },
    {
      "inputs": [
        {
          "internalType": "uint256",
          "name": "roomId",
          "type": "uint256"
        },
        {
          "internalType": "bytes32",
          "name": "deckHash",
          "type": "bytes32"
        }
      ],
      "name": "commitDeck",
      "outputs": [],
      "stateMutability": "nonpayable",
      "type": "function"
    },
    {
      "inputs": [
        {
          "internalType": "uint256",
          "name": "roomId",
          "type": "uint256"
        },
        {
          "internalType": "bytes32",
          "name": "targetHash",
          "type": "bytes32"
        }
      ],
      "name": "commitMafiaTarget",
      "outputs": [],
      "stateMutability": "nonpayable",
      "type": "function"
    },
    {
      "inputs": [
        {
          "internalType": "uint256",
          "name": "roomId",
          "type": "uint256"
        },
        {
          "internalType": "bytes32",
          "name": "hash",
          "type": "bytes32"
        }
      ],
      "name": "commitNightAction",
      "outputs": [],
      "stateMutability": "nonpayable",
      "type": "function"
    },
    {
      "inputs": [
        {
          "internalType": "uint256",
          "name": "roomId",
          "type": "uint256"
        },
        {
          "internalType": "bytes32",
          "name": "roleHash",
          "type": "bytes32"
        }
      ],
      "name": "commitRole",
      "outputs": [],
      "stateMutability": "nonpayable",
      "type": "function"
    },
    {
      "inputs": [
        {
          "internalType": "uint256",
          "name": "roomId",
          "type": "uint256"
        }
      ],
      "name": "confirmRole",
      "outputs": [],
      "stateMutability": "nonpayable",
      "type": "function"
    },
    {
      "inputs": [
        {
          "internalType": "uint8",
          "name": "maxPlayers",
          "type": "uint8"
        }
      ],
      "name": "createRoom",
      "outputs": [
        {
          "internalType": "uint256",
          "name": "",
          "type": "uint256"
        }
      ],
      "stateMutability": "nonpayable",
      "type": "function"
    },
    {
      "inputs": [
        {
          "internalType": "uint256",
          "name": "",
          "type": "uint256"
        },
        {
          "internalType": "address",
          "name": "",
          "type": "address"
        }
      ],
      "name": "deckCommits",
      "outputs": [
        {
          "internalType": "bytes32",
          "name": "commitHash",
          "type": "bytes32"
        },
        {
          "internalType": "bool",
          "name": "revealed",
          "type": "bool"
        }
      ],
      "stateMutability": "view",
      "type": "function"
    },
    {
      "inputs": [
        {
          "internalType": "uint256",
          "name": "roomId",
          "type": "uint256"
        }
      ],
      "name": "endGameAutomatically",
      "outputs": [],
      "stateMutability": "nonpayable",
      "type": "function"
    },
    {
      "inputs": [
        {
          "internalType": "uint256",
          "name": "roomId",
          "type": "uint256"
        }
      ],
      "name": "endNight",
      "outputs": [],
      "stateMutability": "nonpayable",
      "type": "function"
    },
    {
      "inputs": [
        {
          "internalType": "uint256",
          "name": "roomId",
          "type": "uint256"
        }
      ],
      "name": "forcePhaseTimeout",
      "outputs": [],
      "stateMutability": "nonpayable",
      "type": "function"
    },
    {
      "inputs": [
        {
          "internalType": "uint256",
          "name": "roomId",
          "type": "uint256"
        }
      ],
      "name": "getAliveMafiaCount",
      "outputs": [
        {
          "internalType": "uint8",
          "name": "",
          "type": "uint8"
        }
      ],
      "stateMutability": "view",
      "type": "function"
    },
    {
      "inputs": [
        {
          "internalType": "uint256",
          "name": "roomId",
          "type": "uint256"
        }
      ],
      "name": "getAllKeysForMe",
      "outputs": [
        {
          "internalType": "address[]",
          "name": "senders",
          "type": "address[]"
        },
        {
          "internalType": "bytes[]",
          "name": "keys",
          "type": "bytes[]"
        }
      ],
      "stateMutability": "view",
      "type": "function"
    },
    {
      "inputs": [
        {
          "internalType": "uint256",
          "name": "roomId",
          "type": "uint256"
        }
      ],
      "name": "getDeck",
      "outputs": [
        {
          "internalType": "string[]",
          "name": "",
          "type": "string[]"
        }
      ],
      "stateMutability": "view",
      "type": "function"
    },
    {
      "inputs": [
        {
          "internalType": "uint256",
          "name": "roomId",
          "type": "uint256"
        },
        {
          "internalType": "address",
          "name": "from",
          "type": "address"
        },
        {
          "internalType": "address",
          "name": "to",
          "type": "address"
        }
      ],
      "name": "getKeyFromTo",
      "outputs": [
        {
          "internalType": "bytes",
          "name": "",
          "type": "bytes"
        }
      ],
      "stateMutability": "view",
      "type": "function"
    },
    {
      "inputs": [
        {
          "internalType": "uint256",
          "name": "roomId",
          "type": "uint256"
        }
      ],
      "name": "getMafiaChat",
      "outputs": [
        {
          "components": [
            {
              "internalType": "bytes",
              "name": "encryptedMessage",
              "type": "bytes"
            },
            {
              "internalType": "uint32",
              "name": "timestamp",
              "type": "uint32"
            },
            {
              "internalType": "address",
              "name": "sender",
              "type": "address"
            }
          ],
          "internalType": "struct MafiaPortalV4.MafiaMessage[]",
          "name": "",
          "type": "tuple[]"
        }
      ],
      "stateMutability": "view",
      "type": "function"
    },
    {
      "inputs": [
        {
          "internalType": "uint256",
          "name": "roomId",
          "type": "uint256"
        }
      ],
      "name": "getMafiaConsensus",
      "outputs": [
        {
          "internalType": "uint8",
          "name": "committed",
          "type": "uint8"
        },
        {
          "internalType": "uint8",
          "name": "revealed",
          "type": "uint8"
        },
        {
          "internalType": "address",
          "name": "consensusTarget",
          "type": "address"
        }
      ],
      "stateMutability": "view",
      "type": "function"
    },
    {
      "inputs": [
        {
          "internalType": "uint256",
          "name": "roomId",
          "type": "uint256"
        }
      ],
      "name": "getPhaseDeadline",
      "outputs": [
        {
          "internalType": "uint32",
          "name": "",
          "type": "uint32"
        }
      ],
      "stateMutability": "view",
      "type": "function"
    },
    {
      "inputs": [
        {
          "internalType": "uint256",
          "name": "roomId",
          "type": "uint256"
        },
        {
          "internalType": "address",
          "name": "player",
          "type": "address"
        }
      ],
      "name": "getPlayerFlags",
      "outputs": [
        {
          "internalType": "bool",
          "name": "isActive",
          "type": "bool"
        },
        {
          "internalType": "bool",
          "name": "hasConfirmedRole",
          "type": "bool"
        },
        {
          "internalType": "bool",
          "name": "hasVoted",
          "type": "bool"
        },
        {
          "internalType": "bool",
          "name": "hasCommitted",
          "type": "bool"
        },
        {
          "internalType": "bool",
          "name": "hasRevealed",
          "type": "bool"
        },
        {
          "internalType": "bool",
          "name": "hasSharedKeys",
          "type": "bool"
        },
        {
          "internalType": "bool",
          "name": "hasClaimedMafia",
          "type": "bool"
        }
      ],
      "stateMutability": "view",
      "type": "function"
    },
    {
      "inputs": [
        {
          "internalType": "uint256",
          "name": "roomId",
          "type": "uint256"
        }
      ],
      "name": "getPlayers",
      "outputs": [
        {
          "components": [
            {
              "internalType": "address",
              "name": "wallet",
              "type": "address"
            },
            {
              "internalType": "string",
              "name": "nickname",
              "type": "string"
            },
            {
              "internalType": "bytes",
              "name": "publicKey",
              "type": "bytes"
            },
            {
              "internalType": "uint32",
              "name": "flags",
              "type": "uint32"
            }
          ],
          "internalType": "struct MafiaPortalV4.Player[]",
          "name": "",
          "type": "tuple[]"
        }
      ],
      "stateMutability": "view",
      "type": "function"
    },
    {
      "inputs": [
        {
          "internalType": "uint256",
          "name": "roomId",
          "type": "uint256"
        }
      ],
      "name": "getRevealedMafiaCount",
      "outputs": [
        {
          "internalType": "uint8",
          "name": "",
          "type": "uint8"
        }
      ],
      "stateMutability": "view",
      "type": "function"
    },
    {
      "inputs": [
        {
          "internalType": "bytes32",
          "name": "role",
          "type": "bytes32"
        }
      ],
      "name": "getRoleAdmin",
      "outputs": [
        {
          "internalType": "bytes32",
          "name": "",
          "type": "bytes32"
        }
      ],
      "stateMutability": "view",
      "type": "function"
    },
    {
      "inputs": [
        {
          "internalType": "uint256",
          "name": "roomId",
          "type": "uint256"
        }
      ],
      "name": "getRoom",
      "outputs": [
        {
          "components": [
            {
              "internalType": "uint64",
              "name": "id",
              "type": "uint64"
            },
            {
              "internalType": "address",
              "name": "host",
              "type": "address"
            },
            {
              "internalType": "enum MafiaPortalV4.GamePhase",
              "name": "phase",
              "type": "uint8"
            },
            {
              "internalType": "uint8",
              "name": "maxPlayers",
              "type": "uint8"
            },
            {
              "internalType": "uint8",
              "name": "playersCount",
              "type": "uint8"
            },
            {
              "internalType": "uint8",
              "name": "aliveCount",
              "type": "uint8"
            },
            {
              "internalType": "uint16",
              "name": "dayCount",
              "type": "uint16"
            },
            {
              "internalType": "uint8",
              "name": "currentShufflerIndex",
              "type": "uint8"
            },
            {
              "internalType": "uint32",
              "name": "lastActionTimestamp",
              "type": "uint32"
            },
            {
              "internalType": "uint32",
              "name": "phaseDeadline",
              "type": "uint32"
            },
            {
              "internalType": "uint8",
              "name": "confirmedCount",
              "type": "uint8"
            },
            {
              "internalType": "uint8",
              "name": "votedCount",
              "type": "uint8"
            },
            {
              "internalType": "uint8",
              "name": "committedCount",
              "type": "uint8"
            },
            {
              "internalType": "uint8",
              "name": "revealedCount",
              "type": "uint8"
            },
            {
              "internalType": "uint8",
              "name": "keysSharedCount",
              "type": "uint8"
            }
          ],
          "internalType": "struct MafiaPortalV4.GameRoom",
          "name": "",
          "type": "tuple"
        }
      ],
      "stateMutability": "view",
      "type": "function"
    },
    {
      "inputs": [
        {
          "internalType": "bytes32",
          "name": "role",
          "type": "bytes32"
        },
        {
          "internalType": "address",
          "name": "account",
          "type": "address"
        }
      ],
      "name": "grantRole",
      "outputs": [],
      "stateMutability": "nonpayable",
      "type": "function"
    },
    {
      "inputs": [
        {
          "internalType": "bytes32",
          "name": "role",
          "type": "bytes32"
        },
        {
          "internalType": "address",
          "name": "account",
          "type": "address"
        }
      ],
      "name": "hasRole",
      "outputs": [
        {
          "internalType": "bool",
          "name": "",
          "type": "bool"
        }
      ],
      "stateMutability": "view",
      "type": "function"
    },
    {
      "inputs": [
        {
          "internalType": "uint256",
          "name": "",
          "type": "uint256"
        },
        {
          "internalType": "address",
          "name": "",
          "type": "address"
        }
      ],
      "name": "isPlayerInRoom",
      "outputs": [
        {
          "internalType": "bool",
          "name": "",
          "type": "bool"
        }
      ],
      "stateMutability": "view",
      "type": "function"
    },
    {
      "inputs": [
        {
          "internalType": "address",
          "name": "",
          "type": "address"
        }
      ],
      "name": "isRegisteredSession",
      "outputs": [
        {
          "internalType": "bool",
          "name": "",
          "type": "bool"
        }
      ],
      "stateMutability": "view",
      "type": "function"
    },
    {
      "inputs": [
        {
          "internalType": "uint256",
          "name": "roomId",
          "type": "uint256"
        },
        {
          "internalType": "string",
          "name": "nickname",
          "type": "string"
        },
        {
          "internalType": "bytes",
          "name": "publicKey",
          "type": "bytes"
        },
        {
          "internalType": "address",
          "name": "sessionAddress",
          "type": "address"
        }
      ],
      "name": "joinRoom",
      "outputs": [],
      "stateMutability": "nonpayable",
      "type": "function"
    },
    {
      "inputs": [
        {
          "internalType": "uint256",
          "name": "",
          "type": "uint256"
        },
        {
          "internalType": "uint256",
          "name": "",
          "type": "uint256"
        }
      ],
      "name": "mafiaChat",
      "outputs": [
        {
          "internalType": "bytes",
          "name": "encryptedMessage",
          "type": "bytes"
        },
        {
          "internalType": "uint32",
          "name": "timestamp",
          "type": "uint32"
        },
        {
          "internalType": "address",
          "name": "sender",
          "type": "address"
        }
      ],
      "stateMutability": "view",
      "type": "function"
    },
    {
      "inputs": [
        {
          "internalType": "uint256",
          "name": "",
          "type": "uint256"
        }
      ],
      "name": "mafiaCommittedCount",
      "outputs": [
        {
          "internalType": "uint8",
          "name": "",
          "type": "uint8"
        }
      ],
      "stateMutability": "view",
      "type": "function"
    },
    {
      "inputs": [
        {
          "internalType": "uint256",
          "name": "",
          "type": "uint256"
        }
      ],
      "name": "mafiaConsensusTarget",
      "outputs": [
        {
          "internalType": "address",
          "name": "",
          "type": "address"
        }
      ],
      "stateMutability": "view",
      "type": "function"
    },
    {
      "inputs": [
        {
          "internalType": "uint256",
          "name": "",
          "type": "uint256"
        }
      ],
      "name": "mafiaRevealedCount",
      "outputs": [
        {
          "internalType": "uint8",
          "name": "",
          "type": "uint8"
        }
      ],
      "stateMutability": "view",
      "type": "function"
    },
    {
      "inputs": [
        {
          "internalType": "uint256",
          "name": "",
          "type": "uint256"
        },
        {
          "internalType": "address",
          "name": "",
          "type": "address"
        }
      ],
      "name": "mafiaTargetCommits",
      "outputs": [
        {
          "internalType": "bytes32",
          "name": "commitHash",
          "type": "bytes32"
        },
        {
          "internalType": "address",
          "name": "target",
          "type": "address"
        },
        {
          "internalType": "bool",
          "name": "revealed",
          "type": "bool"
        }
      ],
      "stateMutability": "view",
      "type": "function"
    },
    {
      "inputs": [],
      "name": "nextRoomId",
      "outputs": [
        {
          "internalType": "uint256",
          "name": "",
          "type": "uint256"
        }
      ],
      "stateMutability": "view",
      "type": "function"
    },
    {
      "inputs": [
        {
          "internalType": "uint256",
          "name": "",
          "type": "uint256"
        },
        {
          "internalType": "address",
          "name": "",
          "type": "address"
        }
      ],
      "name": "nightCommits",
      "outputs": [
        {
          "internalType": "bytes32",
          "name": "commitHash",
          "type": "bytes32"
        },
        {
          "internalType": "bool",
          "name": "revealed",
          "type": "bool"
        },
        {
          "internalType": "uint32",
          "name": "commitTime",
          "type": "uint32"
        }
      ],
      "stateMutability": "view",
      "type": "function"
    },
    {
      "inputs": [],
      "name": "pause",
      "outputs": [],
      "stateMutability": "nonpayable",
      "type": "function"
    },
    {
      "inputs": [],
      "name": "paused",
      "outputs": [
        {
          "internalType": "bool",
          "name": "",
          "type": "bool"
        }
      ],
      "stateMutability": "view",
      "type": "function"
    },
    {
      "inputs": [
        {
          "internalType": "uint256",
          "name": "",
          "type": "uint256"
        },
        {
          "internalType": "address",
          "name": "",
          "type": "address"
        },
        {
          "internalType": "address",
          "name": "",
          "type": "address"
        }
      ],
      "name": "playerDeckKeys",
      "outputs": [
        {
          "internalType": "bytes",
          "name": "",
          "type": "bytes"
        }
      ],
      "stateMutability": "view",
      "type": "function"
    },
    {
      "inputs": [
        {
          "internalType": "uint256",
          "name": "",
          "type": "uint256"
        },
        {
          "internalType": "address",
          "name": "",
          "type": "address"
        }
      ],
      "name": "playerIndex",
      "outputs": [
        {
          "internalType": "uint8",
          "name": "",
          "type": "uint8"
        }
      ],
      "stateMutability": "view",
      "type": "function"
    },
    {
      "inputs": [
        {
          "internalType": "uint256",
          "name": "",
          "type": "uint256"
        },
        {
          "internalType": "address",
          "name": "",
          "type": "address"
        }
      ],
      "name": "playerRoles",
      "outputs": [
        {
          "internalType": "enum MafiaPortalV4.Role",
          "name": "",
          "type": "uint8"
        }
      ],
      "stateMutability": "view",
      "type": "function"
    },
    {
      "inputs": [
        {
          "internalType": "bytes32",
          "name": "role",
          "type": "bytes32"
        },
        {
          "internalType": "address",
          "name": "callerConfirmation",
          "type": "address"
        }
      ],
      "name": "renounceRole",
      "outputs": [],
      "stateMutability": "nonpayable",
      "type": "function"
    },
    {
      "inputs": [
        {
          "internalType": "uint256",
          "name": "roomId",
          "type": "uint256"
        },
        {
          "internalType": "string[]",
          "name": "deck",
          "type": "string[]"
        },
        {
          "internalType": "string",
          "name": "salt",
          "type": "string"
        }
      ],
      "name": "revealDeck",
      "outputs": [],
      "stateMutability": "nonpayable",
      "type": "function"
    },
    {
      "inputs": [
        {
          "internalType": "uint256",
          "name": "roomId",
          "type": "uint256"
        },
        {
          "internalType": "address",
          "name": "target",
          "type": "address"
        },
        {
          "internalType": "string",
          "name": "salt",
          "type": "string"
        }
      ],
      "name": "revealMafiaTarget",
      "outputs": [],
      "stateMutability": "nonpayable",
      "type": "function"
    },
    {
      "inputs": [
        {
          "internalType": "uint256",
          "name": "roomId",
          "type": "uint256"
        },
        {
          "internalType": "enum MafiaPortalV4.NightActionType",
          "name": "action",
          "type": "uint8"
        },
        {
          "internalType": "address",
          "name": "target",
          "type": "address"
        },
        {
          "internalType": "string",
          "name": "salt",
          "type": "string"
        }
      ],
      "name": "revealNightAction",
      "outputs": [],
      "stateMutability": "nonpayable",
      "type": "function"
    },
    {
      "inputs": [
        {
          "internalType": "uint256",
          "name": "roomId",
          "type": "uint256"
        },
        {
          "internalType": "enum MafiaPortalV4.Role",
          "name": "role",
          "type": "uint8"
        },
        {
          "internalType": "string",
          "name": "salt",
          "type": "string"
        }
      ],
      "name": "revealRole",
      "outputs": [],
      "stateMutability": "nonpayable",
      "type": "function"
    },
    {
      "inputs": [
        {
          "internalType": "uint256",
          "name": "",
          "type": "uint256"
        },
        {
          "internalType": "address",
          "name": "",
          "type": "address"
        }
      ],
      "name": "revealedActions",
      "outputs": [
        {
          "internalType": "enum MafiaPortalV4.NightActionType",
          "name": "",
          "type": "uint8"
        }
      ],
      "stateMutability": "view",
      "type": "function"
    },
    {
      "inputs": [
        {
          "internalType": "uint256",
          "name": "",
          "type": "uint256"
        },
        {
          "internalType": "uint256",
          "name": "",
          "type": "uint256"
        }
      ],
      "name": "revealedDeck",
      "outputs": [
        {
          "internalType": "string",
          "name": "",
          "type": "string"
        }
      ],
      "stateMutability": "view",
      "type": "function"
    },
    {
      "inputs": [
        {
          "internalType": "uint256",
          "name": "",
          "type": "uint256"
        },
        {
          "internalType": "address",
          "name": "",
          "type": "address"
        }
      ],
      "name": "revealedTargets",
      "outputs": [
        {
          "internalType": "address",
          "name": "",
          "type": "address"
        }
      ],
      "stateMutability": "view",
      "type": "function"
    },
    {
      "inputs": [
        {
          "internalType": "bytes32",
          "name": "role",
          "type": "bytes32"
        },
        {
          "internalType": "address",
          "name": "account",
          "type": "address"
        }
      ],
      "name": "revokeRole",
      "outputs": [],
      "stateMutability": "nonpayable",
      "type": "function"
    },
    {
      "inputs": [],
      "name": "revokeSessionKey",
      "outputs": [],
      "stateMutability": "nonpayable",
      "type": "function"
    },
    {
      "inputs": [
        {
          "internalType": "uint256",
          "name": "",
          "type": "uint256"
        },
        {
          "internalType": "address",
          "name": "",
          "type": "address"
        }
      ],
      "name": "roleCommits",
      "outputs": [
        {
          "internalType": "bytes32",
          "name": "",
          "type": "bytes32"
        }
      ],
      "stateMutability": "view",
      "type": "function"
    },
    {
      "inputs": [
        {
          "internalType": "uint256",
          "name": "",
          "type": "uint256"
        },
        {
          "internalType": "uint256",
          "name": "",
          "type": "uint256"
        }
      ],
      "name": "roomPlayers",
      "outputs": [
        {
          "internalType": "address",
          "name": "wallet",
          "type": "address"
        },
        {
          "internalType": "string",
          "name": "nickname",
          "type": "string"
        },
        {
          "internalType": "bytes",
          "name": "publicKey",
          "type": "bytes"
        },
        {
          "internalType": "uint32",
          "name": "flags",
          "type": "uint32"
        }
      ],
      "stateMutability": "view",
      "type": "function"
    },
    {
      "inputs": [
        {
          "internalType": "uint256",
          "name": "",
          "type": "uint256"
        }
      ],
      "name": "rooms",
      "outputs": [
        {
          "internalType": "uint64",
          "name": "id",
          "type": "uint64"
        },
        {
          "internalType": "address",
          "name": "host",
          "type": "address"
        },
        {
          "internalType": "enum MafiaPortalV4.GamePhase",
          "name": "phase",
          "type": "uint8"
        },
        {
          "internalType": "uint8",
          "name": "maxPlayers",
          "type": "uint8"
        },
        {
          "internalType": "uint8",
          "name": "playersCount",
          "type": "uint8"
        },
        {
          "internalType": "uint8",
          "name": "aliveCount",
          "type": "uint8"
        },
        {
          "internalType": "uint16",
          "name": "dayCount",
          "type": "uint16"
        },
        {
          "internalType": "uint8",
          "name": "currentShufflerIndex",
          "type": "uint8"
        },
        {
          "internalType": "uint32",
          "name": "lastActionTimestamp",
          "type": "uint32"
        },
        {
          "internalType": "uint32",
          "name": "phaseDeadline",
          "type": "uint32"
        },
        {
          "internalType": "uint8",
          "name": "confirmedCount",
          "type": "uint8"
        },
        {
          "internalType": "uint8",
          "name": "votedCount",
          "type": "uint8"
        },
        {
          "internalType": "uint8",
          "name": "committedCount",
          "type": "uint8"
        },
        {
          "internalType": "uint8",
          "name": "revealedCount",
          "type": "uint8"
        },
        {
          "internalType": "uint8",
          "name": "keysSharedCount",
          "type": "uint8"
        }
      ],
      "stateMutability": "view",
      "type": "function"
    },
    {
      "inputs": [
        {
          "internalType": "uint256",
          "name": "roomId",
          "type": "uint256"
        },
        {
          "internalType": "bytes",
          "name": "encryptedMessage",
          "type": "bytes"
        }
      ],
      "name": "sendMafiaMessage",
      "outputs": [],
      "stateMutability": "nonpayable",
      "type": "function"
    },
    {
      "inputs": [
        {
          "internalType": "address",
          "name": "",
          "type": "address"
        }
      ],
      "name": "sessionKeys",
      "outputs": [
        {
          "internalType": "address",
          "name": "sessionAddress",
          "type": "address"
        },
        {
          "internalType": "uint32",
          "name": "expiresAt",
          "type": "uint32"
        },
        {
          "internalType": "uint64",
          "name": "roomId",
          "type": "uint64"
        },
        {
          "internalType": "bool",
          "name": "isActive",
          "type": "bool"
        }
      ],
      "stateMutability": "view",
      "type": "function"
    },
    {
      "inputs": [
        {
          "internalType": "address",
          "name": "",
          "type": "address"
        }
      ],
      "name": "sessionToMain",
      "outputs": [
        {
          "internalType": "address",
          "name": "",
          "type": "address"
        }
      ],
      "stateMutability": "view",
      "type": "function"
    },
    {
      "inputs": [
        {
          "internalType": "uint256",
          "name": "roomId",
          "type": "uint256"
        },
        {
          "internalType": "address[]",
          "name": "recipients",
          "type": "address[]"
        },
        {
          "internalType": "bytes[]",
          "name": "encryptedKeys",
          "type": "bytes[]"
        }
      ],
      "name": "shareKeysToAll",
      "outputs": [],
      "stateMutability": "nonpayable",
      "type": "function"
    },
    {
      "inputs": [
        {
          "internalType": "uint256",
          "name": "roomId",
          "type": "uint256"
        }
      ],
      "name": "startGame",
      "outputs": [],
      "stateMutability": "nonpayable",
      "type": "function"
    },
    {
      "inputs": [
        {
          "internalType": "uint256",
          "name": "roomId",
          "type": "uint256"
        }
      ],
      "name": "startVoting",
      "outputs": [],
      "stateMutability": "nonpayable",
      "type": "function"
    },
    {
      "inputs": [
        {
          "internalType": "bytes4",
          "name": "interfaceId",
          "type": "bytes4"
        }
      ],
      "name": "supportsInterface",
      "outputs": [
        {
          "internalType": "bool",
          "name": "",
          "type": "bool"
        }
      ],
      "stateMutability": "view",
      "type": "function"
    },
    {
      "inputs": [],
      "name": "unpause",
      "outputs": [],
      "stateMutability": "nonpayable",
      "type": "function"
    },
    {
      "inputs": [
        {
          "internalType": "uint256",
          "name": "roomId",
          "type": "uint256"
        },
        {
          "internalType": "address",
          "name": "target",
          "type": "address"
        }
      ],
      "name": "vote",
      "outputs": [],
      "stateMutability": "nonpayable",
      "type": "function"
    },
    {
      "inputs": [
        {
          "internalType": "uint256",
          "name": "",
          "type": "uint256"
        },
        {
          "internalType": "address",
          "name": "",
          "type": "address"
        }
      ],
      "name": "voteCounts",
      "outputs": [
        {
          "internalType": "uint8",
          "name": "",
          "type": "uint8"
        }
      ],
      "stateMutability": "view",
      "type": "function"
    },
    {
      "inputs": [
        {
          "internalType": "uint256",
          "name": "",
          "type": "uint256"
        },
        {
          "internalType": "address",
          "name": "",
          "type": "address"
        }
      ],
      "name": "votes",
      "outputs": [
        {
          "internalType": "address",
          "name": "",
          "type": "address"
        }
      ],
      "stateMutability": "view",
      "type": "function"
    }
  ],
  "bytecode": "0x6080604052346100355760015f55600160195561001b33610039565b50610025336100af565b5060405161636690816101438239f35b5f80fd5b6001600160a01b0381165f9081525f5160206164c95f395f51905f52602052604090205460ff166100aa576001600160a01b03165f8181525f5160206164c95f395f51905f5260205260408120805460ff191660011790553391905f5160206164a95f395f51905f528180a4600190565b505f90565b6001600160a01b0381165f9081525f5160206164e95f395f51905f52602052604090205460ff166100aa576001600160a01b03165f8181525f5160206164e95f395f51905f5260205260408120805460ff191660011790553391907fa49807205ce4d355092ef5a8a18f56e8913cf4a201fbe287825b095693c21775905f5160206164a95f395f51905f529080a460019056fe6080806040526004361015610012575f80fd5b5f3560e01c90816301ffc9a714614a875750806302d947ef1461475f57806307a52cab1461474257806309ed3e22146146ad5780630d3c15cc146146925780630f36f3b51461443d57806312c57f551461137f57806314a09d60146144075780631bae0ac81461431b578063248a9ca3146142f55780632a51fb3a146142205780632f2ff15d146141ef57806330a05e731461270357806335b972991461417a57806336568abe1461413657806337048f21146140295780633d2f5bda14613e845780633deaa34114613e685780633ec09d2c14613e2b5780633f4ba83a14613da05780633fb5d9f514613bfb57806343cd6903146139f9578063460e2049146138a657806348e69d1f146138075780634f324d14146137c75780635099fae2146135bf578063567e8dd51461356d5780635c975abb1461354b5780635d99dc3e146134a45780635e82ff651461348957806361ea2027146134425780636594bb0c14613095578063660e907c1461304c578063669ead17146130005780636920e3ee14612fd35780636d8a74cb14612d9b5780636e2083f414612d695780637120465b1461277357806375b238fc1461274c5780637fa9c2891461273057806382fab9d81461270357806384411c0a146126bc5780638456cb591461263f5780638a8dd7f4146125fb5780638d29f52f1461259c57806391d148541461255357806394225e9d1461223f578063a05bcf0214612208578063a217fddf146121ee578063aa55acbf14612189578063af38479114611ead578063af7efa7c14611e92578063b6bf359a14611bd8578063b7b8d60414611b70578063bb9ae875146117a1578063c96f09791461158f578063d065539414611462578063d23254b414611418578063d547741f146113e0578063d94a51cb1461137f578063dae2928a14610fb6578063e5ed1d5914610ebe578063e851122d14610e70578063ea99c3fe14610d83578063eb024101146108e0578063eb0fa6f814610896578063f14caed714610833578063f30818ff14610736578063f3db5133146106715763ff99233a1461031e575f80fd5b3461066d57606036600319011261066d5760043561033a614ada565b6044356001600160401b03811161066d57610359903690600401614d06565b916103626151a5565b61036b846151c3565b845f52600560205260405f2060018060a01b0382165f5260205260ff60405f205416156105ed5761039c9085615249565b156105de57835f52600360205263ffffffff600160405f20015460381c1615158061064c575b61063d576103ce6152ca565b6103d7846151c3565b92845f52600360205260ff60405f205460e01c1660078110156106295760050361061a57845f52601060205260405f2060018060a01b0385165f5260205260405f20541561060b57845f52601260205260405f2060018060a01b0385165f5260205260ff600160405f20015460a01c166105fc5761045584866152e5565b6001600160a01b03821692836105b0575b61049961048b9160405192839160208301958887526040808501526060840191614f53565b03601f198101835282614bbf565b519020845f52601260205260405f2060018060a01b0385165f5260205260405f2054036105a1575f8481526012602090815260408083206001600160a01b03871684528252808320600101805460ff60a01b199096166001600160a81b031990961695909517600160a01b179094558582526014905291909120805484937f307ed77ec1f8fe53e10faa7fa486ba5e5b66eab3a9d19902c20b0da3c3b0b26a9392909160ff9061054a908216614d8c565b1660ff1982541617905561056360405192839283614dba565b0390a2805f52601460205260ff60405f205416815f52601360205260ff60405f20541614610592575b60015f55005b61059b90615fad565b5f61058c565b6336c5b53760e11b5f5260045ffd5b855f52600560205260405f20845f5260205260ff60405f205416156105ed576105d98387615249565b610466575b630575d90f60e11b5f5260045ffd5b63721c7c6760e11b5f5260045ffd5b633a456ae760e11b5f5260045ffd5b631ea3b68b60e21b5f5260045ffd5b6338961af360e21b5f5260045ffd5b634e487b7160e01b5f52602160045260245ffd5b6301a6f70d60e01b5f5260045ffd5b50835f52600360205263ffffffff600160405f20015460381c1642116103c2565b5f80fd5b3461066d57602036600319011261066d576004355f815f52600460205260405f20915f908354915b8260ff8216106106b15760208460ff60405191168152f35b6106bb8186614b1c565b50545f838152600f602090815260408083206001600160a01b039094168352929052205460ff166005811015610629576001148061071c575b610707575b61070290614d8c565b610699565b9261071461070291614d8c565b9390506106f9565b506002600361072b8388614b1c565b5001541615156106f4565b3461066d57602036600319011261066d576004356107526151a5565b61075b816151c3565b815f52600560205260405f2060018060a01b0382165f5260205260ff60405f205416156105ed5761078c9082615249565b156105de576107996152ca565b805f52600360205260ff60405f205460e01c166007811015610629578015908115610828575b5061061a576107cd81615dd9565b15610819576107db81615e77565b90156107f4575061058c906107ee61517d565b90615c31565b1561080a57610805906107ee615156565b61058c565b63308ce0f960e11b5f5260045ffd5b63837cd79f60e01b5f5260045ffd5b6006915014826107bf565b3461066d57604036600319011261066d5761084c614ada565b6004355f52600c60205260405f209060018060a01b03165f52602052606060405f2063ffffffff6001825492015460405192835260ff81161515602084015260081c166040820152f35b3461066d57604036600319011261066d576108af614ada565b6004355f908152600e602090815260408083206001600160a01b039485168452825291829020549151919092168152f35b3461066d57606036600319011261066d576004356024356001600160401b03811161066d57610913903690600401614d40565b6044356001600160401b03811161066d57610932903690600401614d06565b61093a6151a5565b610943856151c3565b855f52600560205260405f2060018060a01b0382165f5260205260ff60405f205416156105ed576109749086615249565b156105de57845f52600360205263ffffffff600160405f20015460381c16151580610d62575b61063d576109a66152ca565b6109af856151c3565b91855f52600360205260405f209182549160ff8360e01c1660078110156106295760010361061a57610a0e61048b916040519283916020830195604087526109fc8c8c60608701916150c0565b848103601f1901604086015291614f53565b519020865f52600760205260405f2060018060a01b0385165f5260205260405f205403610d535760328411610d4457855f52600860205260405f2054159081610d34575b50610d0f57845f52600860205260405f2054151580610d1e575b610d0f575f858152600860205260409020600160401b8411610c84578054848255808510610c98575b505f908152602081208694939291865b858210610ba05750505090610b7160017f1522116f5d4e7ac5527e161307d73b93c621a9a7627553f584afb6b6f62a74e79493865f52600760205260405f20828060a01b0385165f52602052600260405f20018260ff198254161790550195610b50610b20610b1a60ff8a5460101c16615144565b88615cea565b97610b2b8982614e14565b610b3b63ffffffff421682614e2c565b63ffffffff610b4942614f44565b1690614e4c565b60405193849360018060a01b031684526040602085015260408401916150c0565b0390a2815f52600460205260ff60405f205491161015610b915760015f55005b610b9a90615d2c565b8061058c565b90919293949550610bb18188615057565b906001600160401b038211610c8457610bd482610bce8754614b35565b87614fce565b5f90601f8311600114610c1a5792610bfd836001959460209487965f92610c0f575b5050615011565b86555b01930191018795949392610aa5565b013590508e80610bf6565b601f19831691865f5260205f20925f5b818110610c6c5750936020936001969387969383889510610c53575b505050811b018655610c00565b01355f19600384901b60f8161c191690558d8080610c46565b91936020600181928787013581550195019201610c2a565b634e487b7160e01b5f52604160045260245ffd5b815f528460205f2091820191015b818110610cb35750610a95565b80610cc060019254614b35565b80610ccd575b5001610ca6565b601f81118314610ce257505f81555b89610cc6565b610cfe90825f5283601f60205f20920160051c82019101614fb8565b805f525f6020812081835555610cdc565b63d1d2a30960e01b5f5260045ffd5b50845f52600860205260405f2054831415610a6c565b60ff915060f01c16831086610a52565b63376ab11160e01b5f5260045ffd5b639ea6d12760e01b5f5260045ffd5b50845f52600360205263ffffffff600160405f20015460381c16421161099a565b3461066d57602036600319011261066d57600435610d9f6151a5565b610da8816151c3565b815f52600560205260405f2060018060a01b0382165f5260205260ff60405f205416156105ed57610dd99082615249565b156105de57610de66152ca565b805f52600360205260405f2060ff815460e01c1660078110156106295760050361061a57815f52601360205260ff60405f2054168015159081610e57575b50610e48576001015460ff808260681c169160701c1610610d535761058c90615945565b6303488f9960e61b5f5260045ffd5b9050825f52601460205260ff60405f2054161083610e24565b3461066d57604036600319011261066d57610e89614ada565b6004355f52600f60205260405f209060018060a01b03165f52602052602060ff60405f205416610ebc6040518092614d70565bf35b3461066d57602036600319011261066d57600435610eda6151a5565b610ee3816151c3565b815f52600560205260405f2060018060a01b0382165f5260205260ff60405f205416156105ed57610f149082615249565b156105de57610f216152ca565b805f52600360205260405f20805460ff8160e01c1660078110156106295761061a5760ff60049160f01c1610610fa757805460ff60e01b1916600160e01b178155610f7d90610b2b6001610f7485615ca1565b92019182614e14565b7f50ad08f58a27f2851d7e3a1b3a6a46b290f2ce677e99642d30ff639721e777905f80a260015f55005b63f770074360e01b5f5260045ffd5b3461066d57602036600319011261066d57600435610fd26151a5565b610fdb816151c3565b815f52600560205260405f2060018060a01b0382165f5260205260ff60405f205416156105ed5761100c9082615249565b156105de576110196152ca565b805f52600360205260405f206001810163ffffffff815460381c168015611370574211156113705760ff825460e01c166007811015806106295781158015611364575b61061a57847f77ff69c1f99cadd93a6da75080e20a3fed43f1d42375051a5d162adcafc5fbb760206040516110918187614ce0565ba261062957600181036111bb57505050805f52600360205260405f20600181018260ff825460101c16815f52600460205260405f20548110611146575b50506110f76110ec6110e660ff845460101c16615144565b85615cea565b91610b2b8382614e14565b825f52600460205260ff60405f205491161015611117575b505060015f55005b54600260f89190911c106111355761112e90615d2c565b808061110f565b611141906107ee615089565b61112e565b608061116b5f5160206162d15f395f51905f5292845f52600460205260405f20614b1c565b50546001600160a01b03166111808185615bae565b60405190815260406020820152601660408201527554696d656f757420647572696e672073687566666c6560501b6060820152a282846110ce565b600281036112e457505090805f52600460205260405f20905f5b825460ff821610156112bd5780600260036111f36112009487614b1c565b5001541661120557614d8c565b6111d5565b602060036112138387614b1c565b5001541615600160036112268488614b1c565b500154161581156112b5575b5015614d8c576112566112458286614b1c565b50546001600160a01b031684615bae565b825f5160206162d15f395f51905f5260806112718488614b1c565b5054604080516001600160a01b0390921682526020820181905260159082015274151a5b595bdd5d08191d5c9a5b99c81c995d99585b605a1b6060820152a2614d8c565b905086611232565b5091600291505460f81c10155f146112d857610805906158ac565b610805906107ee615089565b600481036112f8575050506108059061533c565b6005810361130c5750505061080590615945565b60031461131c575b50505061058c565b815460ff60e01b1916600160e21b17909155805460ff60601b1916815561134b9063ffffffff610b4942614f44565b5f5160206162715f395f51905f525f80a2808080611314565b50505f6006821461105c565b63489e8c8960e01b5f5260045ffd5b3461066d5761138d36614ca6565b915f52600960205260405f209060018060a01b03165f5260205260405f209060018060a01b03165f526020526113dc6113c860405f20614be2565b604051918291602083526020830190614c82565b0390f35b3461066d57604036600319011261066d576114166004356113ff614ada565b9061141161140c82614f00565b615762565b615828565b005b3461066d57604036600319011261066d57611431614ada565b6004355f908152600a602090815260408083206001600160a01b039485168452825291829020549151919092168152f35b3461066d57602036600319011261066d576004355f52601160205260405f2080549061148d82614f12565b9161149b6040519384614bbf565b8083526020830180925f5260205f205f915b83831061154557848660405191829160208301906020845251809152604083019060408160051b85010192915f905b8282106114eb57505050500390f35b919360019193955060208091603f1989820301855287519060406115188351606084526060840190614c82565b9263ffffffff85820151168584015281878060a01b039101511691015296019201920185949391926114dc565b6002602060019260405161155881614ba4565b61156186614be2565b81528486015463ffffffff811684830152858060a01b0390841c1660408201528152019201920191906114ad565b3461066d5761159d36614b06565b6115a56151a5565b6115ae826151c3565b825f52600560205260405f2060018060a01b0382165f5260205260ff60405f205416156105ed576115df9083615249565b156105de57815f52600360205263ffffffff600160405f20015460381c16151580611780575b61063d576116116152ca565b61161a826151c3565b90825f52600360205260405f209160ff835460e01c1660078110156106295760050361061a5761164a818561528e565b6117715761175960017f3cf64897479c2ba314a5a0e8cf3a0e097d9367de65da54961e4dc414836499009460405161168181614ba4565b85815260208101905f82526116d684604083019263ffffffff421684528b5f52600c60205260405f20828060a01b038a165f5260205260405f20905181550192511515839060ff801983541691151516179055565b5164ffffffff0082549160081b169064ffffffff001916179055865f52600660205260405f20828060a01b0385165f52602052600361172760ff60405f205416895f52600460205260405f20614b1c565b500163ffffffff600881835416171663ffffffff198254161790550161175360ff825460681c16614d8c565b90614e8c565b61176860405192839283614f29565b0390a260015f55005b6317fd8aab60e31b5f5260045ffd5b50815f52600360205263ffffffff600160405f20015460381c164211611605565b3461066d57606036600319011261066d576004356024356001600160401b03811161066d576117d4903690600401614d40565b6044356001600160401b03811161066d576117f3903690600401614d40565b90926117fd6151a5565b611806856151c3565b855f52600560205260405f2060018060a01b0382165f5260205260ff60405f205416156105ed576118379086615249565b156105de57845f52600360205263ffffffff600160405f20015460381c16151580611b4f575b61063d576118696152ca565b611872856151c3565b93855f52600360205260405f2060ff815460e01c1660078110156106295760020361061a57838503611b405760328511610d4457865f52600660205260405f2060018060a01b0387165f52602052602060036118df60ff60405f2054168a5f526004845260405f20614b1c565b50015416611b315793946001600160a01b0316935f5b86811015611a5b576001600160a01b03600582901b858101359182169182900361066d57895f52600560205260405f20825f5260205260ff60405f205416156105ed57878214611a4c5786831015611a385761195390850185615057565b90918a5f52600960205260405f20895f5260205260405f20905f5260205260405f209160018060401b038211610c8457611997826119918554614b35565b85614fce565b5f90601f83116001146119d05791806119bc9260019695945f926119c5575050615011565b90555b016118f5565b013590508d80610bf6565b601f19831691845f5260205f20925f5b818110611a20575091600196959492918388959310611a07575b505050811b0190556119bf565b01355f19600384901b60f8161c191690558c80806119fa565b919360206001819287870135815501950192016119e0565b634e487b7160e01b5f52603260045260245ffd5b637f043f9b60e01b5f5260045ffd5b878260ff88835f52600660205260405f20815f526020526003611a8f8360405f205416865f52600460205260405f20614b1c565b500163ffffffff602081835416171663ffffffff19825416179055837f9204f1001d8059e799b3a233fa5114eab3b5d30762de3ff4e07fcd7e6266aad160206001860193611aeb611ae587875460781c16614d8c565b86614ec6565b604051908152a25460781c16905460f81c14611b075760015f55005b7ff6b9b3035e320bcce495d00c2d31a7bd341754f7b9919a4a736388e16ef674a55f80a28061058c565b6387db46a560e01b5f5260045ffd5b634ec4810560e11b5f5260045ffd5b50845f52600360205263ffffffff600160405f20015460381c16421161185d565b3461066d57602036600319011261066d576001600160a01b03611b91614af0565b165f526016602052608060405f2060ff60018254920154166040519160018060a01b038116835263ffffffff8160a01c16602084015260c01c604083015215156060820152f35b3461066d57604036600319011261066d576004356024356001600160401b03811161066d57611c0b903690600401614d06565b611c169291926151a5565b611c1f826151c3565b825f52600560205260405f2060018060a01b0382165f5260205260ff60405f205416156105ed57611c509083615249565b156105de57611c5d6152ca565b611c66826151c3565b92825f52600360205260ff60405f205460e01c1660078110156106295760050361061a57825f52601060205260405f2060018060a01b0385165f5260205260405f20541561060b576104008211610d4457611cc184846152e5565b825f52601160205260405f209060405194611cdb86614ba4565b611ce6368584614f73565b86524263ffffffff16602087019081526001600160a01b0390911660408701818152845491949091600160401b811015610c8457611d2991600182018155614ced565b979097611e7f575180519097906001600160401b038111610c8457611d5881611d528454614b35565b84614fce565b6020601f8211600114611dff57600161176896959493611d978463ffffffff9586955f5160206162315f395f51905f529e9f5f92611df4575050615011565b81555b9451940180549351600160201b600160c01b03199290951692909216166001600160c01b031990921691909117602092831b600160201b600160c01b03161790556040805194855290840181905292938493840191614f53565b015190508f80610bf6565b601f19821699835f52815f209a5f5b818110611e675750936001845f5160206162315f395f51905f529c9d63ffffffff9695839588976117689d9c9b9a10611e4f575b505050811b018155611d9a565b01515f1960f88460031b161c191690558e8080611e42565b838301518d556001909c019b60209384019301611e0e565b634e487b7160e01b5f525f60045260245ffd5b3461066d575f36600319011261066d57602060405160328152f35b3461066d57606036600319011261066d57600435602435600581101561066d576044356001600160401b03811161066d57611eec903690600401614d06565b611ef79291926151a5565b611f00846151c3565b845f52600560205260405f2060018060a01b0382165f5260205260ff60405f205416156105ed57611f319085615249565b156105de57611f3e6152ca565b611f47846151c3565b92845f52600f60205260405f2060018060a01b0385165f5260205260ff60405f20541660058110156106295761217a57845f52601060205260405f2060018060a01b0385165f5260205260405f20541561060b576040821161216b57611fcf61048b916040519283916020830195611fbf8789614d70565b6040808501526060840191614f53565b519020835f52601060205260405f2060018060a01b0384165f5260205260405f20540361215c57825f52600f60205260405f2060018060a01b0383165f5260205260405f2060ff1981541660ff8316179055827f9b013793e3fbc06d6ff5e9b6ce06be7c635e957579a85ae6b262b85b13ecd87460405180612052858783615037565b0390a2825f52600660205260405f2060018060a01b0383165f526020526080600361208f60ff60405f205416865f52600460205260405f20614b1c565b50015416151580612151575b6120a55760015f55005b81837f7f1edd8653eda945bad547f4f89adfa659b5f748dc9d88a447ff44550d7210be6120f360a0946120e65f5160206162915f395f51905f529785615bae565b6040519182918683615037565b0390a260405190600180841b0316815260406020820152602860408201527f55736564206d616669612066756e6374696f6e732077697468206e6f6e2d6d6160608201526766696120726f6c6560c01b6080820152a280808061058c565b50600181141561209b565b63134fed2d60e01b5f5260045ffd5b63bf1ad44360e01b5f5260045ffd5b63fd8fd76760e01b5f5260045ffd5b3461066d57604036600319011261066d576121a2614ada565b6004355f52601260205260405f209060018060a01b03165f52602052606060405f2060ff6001825492015460405192835260018060a01b038116602084015260a01c1615156040820152f35b3461066d575f36600319011261066d5760206040515f8152f35b3461066d5761221636614b06565b905f52600860205260405f20805482101561066d576113dc916113c8915f5260205f2001614be2565b3461066d57602036600319011261066d57335f908152601760205260409020546001600160a01b0316600435811561254b575b90815f52600460205260405f20905f5f908354915b8260ff8216106124ba575060ff169161229f83614f12565b936122ad6040519586614bbf565b8385526122b984614f12565b602086019690601f19013688376122cf85614f12565b946122dd6040519687614bbf565b8086526122ec601f1991614f12565b015f5b8181106124a75750505f915f5b8560ff8216106123b057888888604051928392604084019060408552518091526060840191905f5b81811061238e575050508281036020840152815180825260208201916020808360051b8301019401925f915b83831061235d5786860387f35b91939550919360208061237c600193601f198682030187528951614c82565b97019301930190928695949293612350565b82516001600160a01b0316845286955060209384019390920191600101612324565b876123bf82849b999a9b614b1c565b50546001600160a01b0390811690871681141580612468575b6123f1575b50506123e890614d8c565b979695976122fc565b9461245861245e92876123e8959861240d60ff86168094615023565b52875f52600960205260405f209060018060a01b03165f5260205260405f2060018060a01b038a165f526020528b6124518261244b60405f20614be2565b92615023565b528b615023565b50614d8c565b939050888a6123dd565b505f8581526009602090815260408083206001600160a01b038581168552908352818420908b1684529091529020546124a090614b35565b15156123d8565b60606020828901810191909152016122ef565b6124c78186979597614b1c565b50546001600160a01b03878116911690811415908161250d575b506124f8575b6124f090614d8c565b949294612287565b906125056124f091614d8c565b9190506124e7565b5f8681526009602090815260408083206001600160a01b0394851684528252808320938b16835292905220546125439150614b35565b1515876124e1565b339150612272565b3461066d57604036600319011261066d5761256c614ada565b6004355f52600260205260405f209060018060a01b03165f52602052602060ff60405f2054166040519015158152f35b3461066d57602036600319011261066d576060600435805f52601360205260ff60405f20541690805f52601460205260ff60405f205416905f52601560205260018060a01b0360405f2054169060405192835260208301526040820152f35b3461066d57604036600319011261066d57612614614ada565b6004355f52601060205260405f209060018060a01b03165f52602052602060405f2054604051908152f35b3461066d575f36600319011261066d57612657615706565b61265f6152ca565b600160ff19815416176001557f62e78cea01bee320cd4e420270b5ea74000d11b0c9f74754ebdbfc544b05a2586020604051338152a1337f7c83004a7e59a8ea03b200186c4dda29a4e144d9844d63dbc1a09acf7dfcd4855f80a2005b3461066d57604036600319011261066d576126d5614ada565b6004355f52600660205260405f209060018060a01b03165f52602052602060ff60405f205416604051908152f35b3461066d57602036600319011261066d576004355f526013602052602060ff60405f205416604051908152f35b3461066d575f36600319011261066d57602060405161012c8152f35b3461066d575f36600319011261066d5760206040515f5160206162f15f395f51905f528152f35b3461066d57608036600319011261066d576004356024356001600160401b03811161066d576127a6903690600401614d06565b906044356001600160401b03811161066d576127c6903690600401614d06565b6064356001600160a01b0381169492919085900361066d576127e66151a5565b6127ee6152ca565b855f52600360205260405f2091825460ff8160e01c1660078110156106295761061a5760ff808260e81c169160f01c161015612d5a575f87815260056020908152604080832033845290915290205460ff16612d4c5760208411612d3d5760808211612d2e57865f52600460205260ff60405f20541691875f52600460205260405f209061289f6040519361288285614b89565b33855261289036898b614f73565b92602086019384523691614f73565b90604084019182526060840192600284528054600160401b811015610c84576128cd91600182018155614b1c565b949094611e7f575184546001600160a01b0319166001600160a01b039190911617845551805160018501916001600160401b038211610c8457612914826119918554614b35565b602090601f8311600114612ccb5761293592915f9183612cc0575050615011565b90555b51805160028401916001600160401b038211610c845761295c826119918554614b35565b602090601f8311600114612c4d579363ffffffff9361298e846003958795612a239c9b9a995f92612c42575050615011565b90555b51169201911663ffffffff19825416179055865f52600560205260405f2060018060a01b0333165f5260205260405f20600160ff19825416179055865f52600660205260405f2060018060a01b0333165f5260205260ff60405f20911660ff19825416179055612a10612a0a60ff835460f01c16614d8c565b82614dd4565b612a1d815460f81c614d8c565b90614df1565b82158015612a68575b505f5160206162515f395f51905f5292612a59604051938493338552606060208601526060850191614f53565b9060408301520390a260015f55005b611a4c57825f52601860205260ff60405f205416612c33575f838152601760205260409020546001600160a01b0316612c3357335f52601660205260ff600160405f20015416612bed575b613840420192834211612bd9578063ffffffff5f5160206162515f395f51905f529516612b6c604051612ae581614b89565b83815260208082018481526001600160401b038b166040808501918252600160608601818152335f90815260169096529190942094519251915160a09290921b63ffffffff60a01b166001600160a01b039093169290921760c09190911b6001600160c01b031916178355519101805460ff9215159290921660ff19909216919091179055565b5f82815260176020908152604080832080546001600160a01b031916339081179091556018835292819020805460ff1916600117905580518a81529182019390935290917f290e52799b1ac63207e28c21f7f1f387cf8ea9257dde8e363a02e157d8e4c65891a392612a2c565b634e487b7160e01b5f52601160045260245ffd5b335f908152601660209081526040808320546001600160a01b031683526017825280832080546001600160a01b031916905560189091529020805460ff19169055612ab3565b631fef749360e21b5f5260045ffd5b015190505f80610bf6565b90601f19831691845f52815f20925f5b818110612ca857508463ffffffff969294612a239b9a999894889660039860019510612c91575b505050811b019055612991565b01515f1983891b60f8161c191690558f8080612c84565b92936020600181928786015181550195019301612c5d565b015190508d80610bf6565b90601f19831691845f52815f20925f5b818110612d165750908460019594939210612cfe575b505050811b019055612938565b01515f1960f88460031b161c191690558c8080612cf1565b92936020600181928786015181550195019301612cdb565b63450bc0a760e01b5f5260045ffd5b636f6003c360e01b5f5260045ffd5b621d934160e11b5f5260045ffd5b63bc42480360e01b5f5260045ffd5b3461066d57602036600319011261066d576004355f526015602052602060018060a01b0360405f205416604051908152f35b3461066d57602036600319011261066d575f6101c0604051612dbc81614b6d565b8281528260208201528260408201528260608201528260808201528260a08201528260c08201528260e08201528261010082015282610120820152826101408201528261016082015282610180820152826101a082015201526004355f52600360205260405f2060405190612e3082614b6d565b80546001600160401b0381168352604081811c6001600160a01b031660208501908152939192908201919060e084901c60ff16600781101561062957835260608201908460e81c60ff16825260808301908560f01c60ff16825260a084019560f81c8652600101549460c0840161ffff8716815260e085018760101c60ff1681526101008601918860181c63ffffffff1683526101208701938960381c63ffffffff1685526101408801958a60581c60ff1687526101608901978b60601c60ff1689526101808a01998c60681c60ff168b526101a081019b8d60701c60ff168d526101c08201809e60781c60ff1690526040519e8f92600160401b600190039051168352600160a01b6001900390511660208301525190604001612f5391614ce0565b5160ff1660608d01525160ff1660808c01525160ff1660a08b01525161ffff1660c08a01525160ff1660e08901525163ffffffff166101008801525163ffffffff166101208701525160ff166101408601525160ff166101608501525160ff166101808401525160ff166101a08301525160ff166101c08201526101e090f35b3461066d57602036600319011261066d576004355f526014602052602060ff60405f205416604051908152f35b3461066d57604036600319011261066d57613019614ada565b6004355f52600d60205260405f209060018060a01b03165f52602052602060ff60405f205416610ebc6040518092614d33565b3461066d57604036600319011261066d57613065614ada565b6004355f52600560205260405f209060018060a01b03165f52602052602060ff60405f2054166040519015158152f35b3461066d57608036600319011261066d57600435602435600481101561066d57604435906001600160a01b03821680830361066d576064356001600160401b03811161066d576130e9903690600401614d06565b6130f49291926151a5565b6130fd866151c3565b865f52600560205260405f2060018060a01b0382165f5260205260ff60405f205416156105ed5761312e9087615249565b156105de57855f52600360205263ffffffff600160405f20015460381c16151580613421575b61063d576131606152ca565b613169866151c3565b92865f52600360205260405f209560ff875460e01c1660078110156106295760050361061a57875f52600660205260405f2060018060a01b0386165f52602052601060036131c960ff60405f2054168b5f52600460205260405f20614b1c565b500154166134125760018614613404576131e3858961528e565b156133f557851515806133ec575b6133b8575b5061322961048b916040519283916020830195613213878b614d33565b8760408501526060808501526080840191614f53565b519020855f52600c60205260405f2060018060a01b0384165f5260205260405f205403610d5357606085927fefeac4ab688c036b72571c6adaf81feb0d4e0a7099c1cfd8d09e54370198c53c9261337e600160ff98875f52600c60205260405f20828060a01b0386165f526020528160405f2001828b19825416179055875f52600d60205260405f20828060a01b0386165f5260205260405f208a198154168b8b16179055875f52600e60205260405f20828060a01b0386165f5260205260405f2084838060a01b0319825416179055875f52600660205260405f20828060a01b0386165f52602052600361332f8b60405f2054168a5f52600460205260405f20614b1c565b500163ffffffff601081835416171663ffffffff19825416179055019661336461335e8a8a5460701c16614d8c565b89614ea9565b6040516001600160a01b0390941684526020840190614d33565b6040820152a254818160681c1691829160701c161490816133ae575b506133a55760015f55005b610b9a90615945565b905015158261339a565b875f52600560205260405f20845f5260205260ff60405f205416156105ed576133e19088615249565b156105de57876131f6565b508315156131f1565b63205e472d60e21b5f5260045ffd5b6282b42960e81b5f5260045ffd5b63a89ac15160e01b5f5260045ffd5b50855f52600360205263ffffffff600160405f20015460381c164211613154565b3461066d57604036600319011261066d5761345b614ada565b6004355f52600b60205260405f209060018060a01b03165f52602052602060ff60405f205416604051908152f35b3461066d575f36600319011261066d57602060405160788152f35b3461066d57604036600319011261066d5760e060036134fa6004356134c7614ada565b815f52600660205260405f209060018060a01b03165f5260205260ff60405f205416905f52600460205260405f20614b1c565b50015460806040519160028116151583526001811615156020840152600481161515604084015260088116151560608401526010811615158284015260208116151560a084015216151560c0820152f35b3461066d575f36600319011261066d57602060ff600154166040519015158152f35b3461066d57604036600319011261066d57613586614ada565b6004355f52600760205260405f209060018060a01b03165f526020526040805f2060ff6002825492015416825191825215156020820152f35b3461066d57602036600319011261066d576004356135db6151a5565b6135e4816151c3565b815f52600560205260405f2060018060a01b0382165f5260205260ff60405f205416156105ed576136159082615249565b156105de57805f52600360205263ffffffff600160405f20015460381c161515806137a6575b61063d576136476152ca565b613650816151c3565b815f52600360205260405f209060ff825460e01c1660078110156106295760020361061a57825f52600660205260405f2060018060a01b0382165f52602052600160036136af60ff60405f205416865f52600460205260405f20614b1c565b500154166134125760ff90835f52600660205260405f2060018060a01b0382165f5260205260036136f18360405f205416865f52600460205260405f20614b1c565b500163ffffffff600181835416171663ffffffff19825416179055837f82b52ddf0195aa8ac16480985f5042052aa742563721520fa34764d253824d436020600186019361374d61374787875460581c16614d8c565b86614e6f565b6040516001600160a01b039091168152a25460581c16905460f81c146137735760015f55005b61377c816158ac565b7f54ccd98022ba3fd547cb241a4f3dfc13e7f9bb54550b7babf4080021c6c2f1265f80a28061058c565b50805f52600360205263ffffffff600160405f20015460381c16421161363b565b3461066d57602036600319011261066d576001600160a01b036137e8614af0565b165f526017602052602060018060a01b0360405f205416604051908152f35b3461066d575f36600319011261066d57335f52601660205260405f20600181019060ff82541661383357005b80546001600160a01b031680337f744157ccffbd293a2e8644928cd7d23d650f869b88f72d7bfea8041b76ca6bec5f80a35f90815260176020908152604080832080546001600160a01b031916905592546001600160a01b031682526018905220805460ff199081169091558154169055005b3461066d57602036600319011261066d576004355f52600460205260405f208054906138d182614f12565b916138df6040519384614bbf565b8083526020830180925f5260205f205f915b83831061399d57848660405191829160208301906020845251809152604083019060408160051b85010192915f905b82821061392f57505050500390f35b919360019193955060208091603f19898203018552875190848060a01b038251168152606063ffffffff81613986613974878701516080898801526080870190614c82565b60408701518682036040880152614c82565b940151169101529601920192018594939192613920565b600460206001926040516139b081614b89565b848060a01b0386541681526139c6858701614be2565b838201526139d660028701614be2565b604082015263ffffffff60038701541660608201528152019201920191906138f1565b3461066d57613a0736614b06565b613a0f6151a5565b613a18826151c3565b825f52600560205260405f2060018060a01b0382165f5260205260ff60405f205416156105ed57613a499083615249565b156105de57815f52600360205263ffffffff600160405f20015460381c16151580613bda575b61063d57613a7b6152ca565b613a84826151c3565b90825f52600360205260405f2060ff815460e01c1660078110156106295760010361061a57613aca90845f52600460205260ff600160405f2092015460101c1690614b1c565b50546001600160a01b0390811690831603613bcb57825f52600660205260405f2060018060a01b0383165f5260205260406003613b1760ff835f205416865f526004602052835f20614b1c565b50015416611771575f8381526007602090815260408083206001600160a01b038616808552908352818420858155600201805460ff191690558684526006835281842090845282528083205486845260049092529091207ffbabe9c4a6257c269f37e649a08003e579b119fcff47ac57e59d1502fccea41c9391600391613ba19160ff1690614b1c565b500163ffffffff604081835416171663ffffffff1982541617905561176860405192839283614f29565b631cc191eb60e31b5f5260045ffd5b50815f52600360205263ffffffff600160405f20015460381c164211613a6f565b3461066d57613c0936614b06565b613c116151a5565b613c1a826151c3565b825f52600560205260405f2060018060a01b0382165f5260205260ff60405f205416156105ed57613c4b9083615249565b156105de57815f52600360205263ffffffff600160405f20015460381c16151580613d7f575b61063d57613c7d6152ca565b613c86826151c3565b90825f52600360205260ff60405f205460e01c1660078110156106295760050361061a57825f52601060205260405f2060018060a01b0383165f5260205260405f20541561060b57825f52601260205260405f2060018060a01b0383165f5260205260405f2054613d705781613d1d7ff5adb2642a216ea3114d73daac494b2341695b10db2b0e6be988acb22fbc156493856152e5565b835f52601260205260405f2060018060a01b0382165f526020528160405f2055835f52601360205260405f2060ff613d5781835416614d8c565b1660ff1982541617905561176860405192839283614f29565b6317ac735560e11b5f5260045ffd5b50815f52600360205263ffffffff600160405f20015460381c164211613c71565b3461066d575f36600319011261066d57613db8615706565b60015460ff811615613e1c5760ff19166001557f5db9ee0a495bf2e6ff9c91a7834c1ba4fdd244a5e8aa4e537bd38aeae4b073aa6020604051338152a1337f306ca22c455fe433ebbf0542bbf947ea6a725495f9e1043db2a47e3c579403855f80a2005b638dfc202b60e01b5f5260045ffd5b3461066d57602036600319011261066d576001600160a01b03613e4c614af0565b165f526018602052602060ff60405f2054166040519015158152f35b3461066d575f36600319011261066d5760206040516138408152f35b3461066d57602036600319011261066d57600435613ea06151a5565b613ea9816151c3565b815f52600560205260405f2060018060a01b0382165f5260205260ff60405f205416156105ed57613eda9082615249565b156105de57613ee76152ca565b805f52600360205260405f2060ff815460e01c1660078110156106295760030361061a57805460ff60e01b1916600160e21b178155600101805460ff60601b19168155613f3c9063ffffffff610b4942614f44565b805f52600460205260405f205f5b815460ff821610156140115780613f64613fdd9284614b1c565b50546001600160a01b03166003613f7b8386614b1c565b5001805463fffffffb811663ffffffff199091161790555f858152600a602090815260408083206001600160a01b0385168452909152902080546001600160a01b031916905560026003613fcf8487614b1c565b50015416613fe25750614d8c565b613f4a565b5f858152600b602090815260408083206001600160a01b03909416835292905220805460ff1916905584612458565b825f5160206162715f395f51905f525f80a260015f55005b3461066d5761403736614b06565b61403f6151a5565b614048826151c3565b825f52600560205260405f2060018060a01b0382165f5260205260ff60405f205416156105ed576140799083615249565b156105de576140866152ca565b61408f826151c3565b90825f52600360205260ff60405f205460e01c1660078110156106295760020361061a57825f52601060205260405f2060018060a01b0383165f5260205260405f2054614127577ff33c1bd762b898b33040e70f49cf90ff496cf7366f6fafa9d961b0de89b7244b91835f52601060205260405f2060018060a01b0382165f526020528160405f205561176860405192839283614f29565b630890382360e21b5f5260045ffd5b3461066d57604036600319011261066d5761414f614ada565b336001600160a01b0382160361416b5761141690600435615828565b63334bd91960e11b5f5260045ffd5b3461066d5761418836614b06565b905f52601160205260405f20805482101561066d576141cd916141aa91614ced565b5060016141b682614be2565b910154604051928392606084526060840190614c82565b9063ffffffff8116602084015260018060a01b039060201c1660408301520390f35b3461066d57604036600319011261066d5761141660043561420e614ada565b9061421b61140c82614f00565b61579c565b3461066d57602036600319011261066d576004355f52600860205260405f2080549061424b82614f12565b916142596040519384614bbf565b8083526020830180925f5260205f205f915b8383106142d857848660405191829160208301906020845251809152604083019060408160051b85010192915f905b8282106142a957505050500390f35b919360019193955060206142c88192603f198a82030186528851614c82565b960192019201859493919261429a565b6001602081926142e785614be2565b81520192019201919061426b565b3461066d57602036600319011261066d576020614313600435614f00565b604051908152f35b3461066d57602036600319011261066d576004355f5260036020526101e060405f2060ff600182549201546040519260018060401b038116845260018060a01b038160401c16602085015261437860408501848360e01c16614ce0565b828160e81c166060850152828160f01c16608085015260f81c60a084015261ffff811660c0840152818160101c1660e084015263ffffffff8160181c1661010084015263ffffffff8160381c16610120840152818160581c16610140840152818160601c16610160840152818160681c16610180840152818160701c166101a084015260781c166101c0820152f35b3461066d57602036600319011261066d576004355f526003602052602063ffffffff600160405f20015460381c16604051908152f35b3461066d57602036600319011261066d5760043560ff811680820361066d576144646152ca565b600481108015614688575b61467957601954915f198314612bd957600791600184016019555f80856040519361449985614b6d565b60018060401b038216855260208501903382526040860190848252606087019081526080870185815260a0880186815260c0890198878a5260e081019188835261010082019363ffffffff421685526101208301958a87526101408401978b89526101608501998c8b5261018086019b8d8d526101a087019d8e526101c087019e8f525f52600360205260405f209560018060401b03905116865491600160401b600160e01b03905160401b169163ffffffff60e01b1617178555519e8f1015610629578354905161ffff60e01b1990911660e09f909f1b60ff60e01b169e909e1760e89e909e1b60ff60e81b169d909d1782559b518d9c9061459f9060ff1683614dd4565b5160ff166145ad9082614df1565b600101985161ffff1661ffff1661ffff198a54161789555160ff166145d29089614e14565b5163ffffffff166145e39088614e2c565b5163ffffffff166145f49087614e4c565b5160ff166146029086614e6f565b5160ff166146109085614d9d565b5160ff1661461e9084614e8c565b5160ff1661462c9083614ea9565b5160ff1661463991614ec6565b6040518091339061464a9183614ee3565b037fac131287fe8417903d89f4eb472bc1d0da81641ef725569346dab6c2879a671791a2604051908152602090f35b6319413ccd60e11b5f5260045ffd5b506014811161446f565b3461066d575f36600319011261066d57602060405160b48152f35b3461066d576146bb36614b06565b905f52600460205260405f2090815481101561066d576146da91614b1c565b5080546001600160a01b03166146f260018301614be2565b9161473863ffffffff600361470960028501614be2565b930154169161472a6040519586958652608060208701526080860190614c82565b908482036040860152614c82565b9060608301520390f35b3461066d575f36600319011261066d576020601954604051908152f35b3461066d57604036600319011261066d5760043561477b614ada565b6147836151a5565b61478c826151c3565b825f52600560205260405f2060018060a01b0382165f5260205260ff60405f205416156105ed576147bd9083615249565b156105de57815f52600360205263ffffffff600160405f20015460381c16151580614a66575b61063d576147ef6152ca565b6147f8826151c3565b90825f52600360205260405f209160ff835460e01c1660078110156106295760040361061a57835f52600560205260405f2060018060a01b0383165f5260205260ff60405f205416156105ed5761484f8285615249565b156105de5783917fcfff1651bcea794952a516ce970ab17518a85210bd939aaeaac670a8d3e65ec791835f52600660205260405f2060018060a01b0382165f52602052600460036148b160ff60405f205416875f528360205260405f20614b1c565b5001545f868152600a602090815260408083206001600160a01b0387811685529252909120549290911615911680151580614a3c575b614a00575b505f858152600a602090815260408083206001600160a01b03868116855290835281842080546001600160a01b0319169188169182179055888452600b83528184209084529091529020805460ff90614946908216614d8c565b1660ff1982541617905561498b575b61496460405192839283614dba565b0390a260ff600182015460601c16905460f81c146149825760015f55005b610b9a9061533c565b835f52600660205260405f2060018060a01b0382165f5260205260036149c360ff60405f205416865f52600460205260405f20614b1c565b500163ffffffff600481835416171663ffffffff198254161790556149fb600186016149f560ff825460601c16614d8c565b90614d9d565b614955565b855f52600b60205260405f209060018060a01b03165f5260205260405f2060ff614a2c81835416614d7d565b1660ff19825416179055876148ec565b50855f52600b60205260405f2060018060a01b0382165f5260205260ff60405f20541615156148e7565b50815f52600360205263ffffffff600160405f20015460381c1642116147e3565b3461066d57602036600319011261066d576004359063ffffffff60e01b821680920361066d57602091637965db0b60e01b8114908115614ac9575b5015158152f35b6301ffc9a760e01b14905083614ac2565b602435906001600160a01b038216820361066d57565b600435906001600160a01b038216820361066d57565b604090600319011261066d576004359060243590565b8054821015611a38575f5260205f209060021b01905f90565b90600182811c92168015614b63575b6020831014614b4f57565b634e487b7160e01b5f52602260045260245ffd5b91607f1691614b44565b6101e081019081106001600160401b03821117610c8457604052565b608081019081106001600160401b03821117610c8457604052565b606081019081106001600160401b03821117610c8457604052565b601f909101601f19168101906001600160401b03821190821017610c8457604052565b9060405191825f825492614bf584614b35565b8084529360018116908115614c605750600114614c1c575b50614c1a92500383614bbf565b565b90505f9291925260205f20905f915b818310614c44575050906020614c1a928201015f614c0d565b6020919350806001915483858901015201910190918492614c2b565b905060209250614c1a94915060ff191682840152151560051b8201015f614c0d565b805180835260209291819084018484015e5f828201840152601f01601f1916010190565b606090600319011261066d57600435906024356001600160a01b038116810361066d57906044356001600160a01b038116810361066d5790565b9060078210156106295752565b8054821015611a38575f5260205f209060011b01905f90565b9181601f8401121561066d578235916001600160401b03831161066d576020838186019501011161066d57565b9060048210156106295752565b9181601f8401121561066d578235916001600160401b03831161066d576020808501948460051b01011161066d57565b9060058210156106295752565b60ff168015612bd9575f190190565b60ff1660ff8114612bd95760010190565b805460ff60601b191660609290921b60ff60601b16919091179055565b6001600160a01b0391821681529116602082015260400190565b805460ff60f01b191660f09290921b60ff60f01b16919091179055565b80546001600160f81b031660f89290921b6001600160f81b031916919091179055565b9062ff000082549160101b169062ff00001916179055565b9066ffffffff00000082549160181b169066ffffffff0000001916179055565b805463ffffffff60381b191660389290921b63ffffffff60381b16919091179055565b805460ff60581b191660589290921b60ff60581b16919091179055565b805460ff60681b191660689290921b60ff60681b16919091179055565b805460ff60701b191660709290921b60ff60701b16919091179055565b805460ff60781b191660789290921b60ff60781b16919091179055565b6001600160a01b03909116815260ff909116602082015260400190565b5f526002602052600160405f20015490565b6001600160401b038111610c845760051b60200190565b6001600160a01b039091168152602081019190915260400190565b9061012c8201809211612bd957565b908060209392818452848401375f828201840152601f01601f1916010190565b9192916001600160401b038211610c845760405191614f9c601f8201601f191660200184614bbf565b82948184528183011161066d578281602093845f960137010152565b818110614fc3575050565b5f8155600101614fb8565b9190601f8111614fdd57505050565b614c1a925f5260205f20906020601f840160051c83019310615007575b601f0160051c0190614fb8565b9091508190614ffa565b8160011b915f199060031b1c19161790565b8051821015611a385760209160051b010190565b6001600160a01b039091168152604081019291614c1a9160200190614d70565b903590601e198136030182121561066d57018035906001600160401b03821161066d5760200191813603831361066d57565b60405190615098604083614bbf565b6019825278546f6f2066657720706c61796572732072656d61696e696e6760381b6020830152565b90602083828152019060208160051b85010193835f915b8383106150e75750505050505090565b909192939495601f198282030186528635601e198436030181121561066d578301602081019190356001600160401b03811161066d57803603831361066d576151366020928392600195614f53565b9801960194930191906150d7565b60ff60019116019060ff8211612bd957565b60405190615165604083614bbf565b6009825268546f776e2077696e7360b81b6020830152565b6040519061518c604083614bbf565b600a8252694d616669612077696e7360b01b6020830152565b60025f54146151b45760025f55565b633ee5aeb560e01b5f5260045ffd5b335f908152601760205260409020546001600160a01b031690816151e75750503390565b815f52601660205260405f2060ff6001820154161561523a575463ffffffff8160a01c16421161522b5760c01c0361521c5790565b637ce3c8fd60e11b5f5260045ffd5b630fe82d2560e11b5f5260045ffd5b635f8874dd60e11b5f5260045ffd5b615285600391600293815f52600660205260405f209060018060a01b03165f5260205260ff60405f205416905f52600460205260405f20614b1c565b50015416151590565b615285600391600893815f52600660205260405f209060018060a01b03165f5260205260ff60405f205416905f52600460205260405f20614b1c565b60ff600154166152d657565b63d93c066560e01b5f5260045ffd5b61531f90600392815f52600660205260405f209060018060a01b03165f5260205260ff60405f205416905f52600460205260405f20614b1c565b5001805463ffffffff19811663ffffffff91909116176080179055565b90815f5260036020528160405f205f905f90835f52600460205260405f205f908054915b8260ff82161061567e575050505460f91c60ff8216118061566c575b15615649578161539a5f5160206162b15f395f51905f529385615bae565b835f5160206162915f395f51905f52608060405160018060a01b0385168152604060208201526009604082015268159bdd1959081bdd5d60ba1b6060820152a26153e960405192839283614ee3565b0390a25b815f52600460205260405f20915f5b835460ff82161015615490578061541661548b9286614b1c565b50545f848152600a602090815260408083206001600160a01b0390941680845293825280832080546001600160a01b0319169055868352600b825280832093835292905220805460ff19169055600361546f8287614b1c565b5001805463fffffffb811663ffffffff19909116179055614d8c565b6153fc565b505f818152600360205260409020600101805460ff60601b191690559091506154b88161616b565b156154c05750565b5f818152600360205260409020805460ff60e01b1916600560e01b178155600101805461ffff60681b191681556154ff9063ffffffff610b4942614f44565b805f52600460205260405f205f5b815460ff821610156155e357806155276155de9284614b1c565b50546001600160a01b0316600361553e8386614b1c565b5001805463ffffffe7811663ffffffff199091161790555f858152600c602090815260408083206001600160a01b03949094168084529382528083208381556001908101849055888452600d83528184208585528352818420805460ff19169055888452600e8352818420858552835281842080546001600160a01b03191690558884526012835281842094845293909152812081815590910155614d8c565b61550d565b50505f818152601360209081526040808320805460ff1990811690915560148352818420805490911690556015909152812080546001600160a01b03191690557f34b0c4c95aa7776d35dbd8b24afd53388828c61c26fd5a6b11a21809662440879080a2565b50505f5160206162b15f395f51905f52604080515f81525f6020820152a26153ed565b506001600160a01b038216151561537c565b90919293949550600260036156938385614b1c565b500154166156b1575b6156a590614d8c565b90879594939291615360565b6156bb8183614b1c565b50545f898152600b602090815260408083206001600160a01b039094168084529390915290205460ff90811690871681116156f8575b505061569c565b90965094506156a55f6156f1565b335f9081527fe5ebfa64fca8d502a8e50c1edffd2c31ef4dad5b396e65d9f397fb028f74abc5602052604090205460ff161561573e57565b63e2517d3f60e01b5f52336004525f5160206162f15f395f51905f5260245260445ffd5b5f81815260026020908152604080832033845290915290205460ff16156157865750565b63e2517d3f60e01b5f523360045260245260445ffd5b5f8181526002602090815260408083206001600160a01b038616845290915290205460ff16615822575f8181526002602090815260408083206001600160a01b0395909516808452949091528120805460ff19166001179055339291907f2f8788117e7eff1d82e926ec794901d17c78024a50270940304540a733656f0d9080a4600190565b50505f90565b5f8181526002602090815260408083206001600160a01b038616845290915290205460ff1615615822575f8181526002602090815260408083206001600160a01b0395909516808452949091528120805460ff19169055339291907ff6391f5c32d9c69d2a47ea670b442974b53935d1edc7fd64eb21e047a839171b9080a4600190565b5f818152600360205260409020805460ff60e01b1916600360e01b178155600101805461ffff90811691908214612bd95761ffff6020918160017fa9b4e96158ed085745975f198fa026959997245ae7e7aed9cd0252ce02b21071950116821982541617815561592263ffffffff421682614e2c565b61593a63ffffffff61593342614f44565b1682614e4c565b5416604051908152a2565b90815f5260156020528160018060a01b0360405f2054165f825f52600460205260405f205f908054905b8160ff841610615b1c575b505050827fb874a4c95be602274c8e6944d4d375ca4189eda377b69ee751f3b92dd4dcf2d8604051806159ae858783614dba565b0390a28115159081615b08575b50615ab9575b505f52600460205260405f20915f5b835460ff82161015615a7f57806159ea615a7a9286614b1c565b50545f848152600c602090815260408083206001600160a01b03909416808452938252808320838155600101839055868352600d82528083208484528252808320805460ff19169055868352600e82528083209383529290522080546001600160a01b03191690556003615a5e8287614b1c565b5001805463ffffffe7811663ffffffff19909116179055614d8c565b6159d0565b505f818152600360205260409020600101805461ffff60681b19169055909150615aa88161616b565b15615ab05750565b614c1a906158ac565b608081615ad45f5160206162915f395f51905f529385615bae565b60405190815260406020820152600f60408201526e12da5b1b195908185d081b9a59da1d608a1b6060820152a2815f6159c1565b6001600160a01b031682141590505f6159bb565b90919450615b2a8582614b1c565b50545f888152600d602090815260408083206001600160a01b039094168084529390915290205460ff1695906004871015610629576002899714615b795750615b7290614d8c565b919061596f565b5f878152600e602090815260408083206001600160a01b0394851684529091528120549091169450925082915081905061597a565b90615bb98183615249565b15615c2d57815f52600660205260405f209060018060a01b03165f526020526003615bf660ff60405f205416835f52600460205260405f20614b1c565b500163ffffffff63fffffffd8254161663ffffffff198254161790555f526003602052614c1a60405f20612a1d815460f81c614d7d565b5050565b5f81815260036020908152604091829020805460ff60e01b1916600360e11b178155600101805463ffffffff60381b19169055905181815291927fd778487128ba4386ebcfb2703af01f8a2a2b8663f880622d26a77a29397e68f392918291615c9c91830190614c82565b0390a2565b5f52600460205260405f2060ff815416905f5b8260ff821610615cc357505090565b60026003615cd18385614b1c565b50015416615ce45760010160ff16615cb4565b91505090565b5f52600460205260405f2060ff815416915b8260ff821610615d0b57505090565b60026003615d198385614b1c565b50015416615ce45760010160ff16615cfc565b5f818152600360205260409020805460ff60e01b1916600160e11b178155600101805464ff000000ff60581b19168155615d6e9063ffffffff610b4942614f44565b5f52600460205260405f20905f5b825460ff82161015615dd4578060026003615d9a615da79487614b1c565b50015416615dac57614d8c565b615d7c565b6003615db88286614b1c565b5001805463ffffff9e811663ffffffff19909116179055614d8c565b509050565b805f52600460205260405f205f918154925b8360ff821610615dfe5750505050600190565b615e088184614b1c565b50546001600160a01b031660026003615e218487614b1c565b50015416615e39575b50615e3490614d8c565b615deb565b825f52600f60205260405f209060018060a01b03165f5260205260ff60405f20541660058110156106295715615e6f575f615e2a565b505050505f90565b905f5f92805f52600460205260405f205f918154925b8360ff821610615ecd575050505060ff1680159081159081615ebf575b509281615eb5575090565b60ff915016151590565b905060ff841611155f615eaa565b615ed78184614b1c565b50546001600160a01b031660026003615ef08487614b1c565b50015416615f08575b50615f0390614d8c565b615e8d565b825f96929652600f60205260405f209060018060a01b03165f5260205260ff60405f20541660058110156106295760018103615f535750615f4b615f0391614d8c565b945b90615ef9565b90949060028114905f8215615fa0575b8215615f8f575b5050615f7a575b615f0390615f4d565b95615f87615f0391614d8c565b969050615f71565b909150610629576004145f80615f6a565b506003811491505f615f63565b805f52601360205260ff60405f20541615616168575f81815260046020526040812080546001918390815b8360ff821610616079575b505050505f5160206163115f395f51905f5291818060409390616067575b1561606057815b5f868152601560205284902080546001600160a01b0319166001600160a01b0385161790558161604d575b5082516001600160a01b03909216825215156020820152a2565b6001600160a01b0316151590505f616033565b5f91616008565b506001600160a01b0382161515616001565b6160838183614b1c565b50545f8881526012602090815260408083206001600160a01b03949094168084529390915290206001015460a01c60ff168061614e575b6160ce575b506160c990614d8c565b615fd8565b5f8881526012602090815260408083206001600160a01b0394851684529091529020600101549296919392169180616110575050936160c96001925b906160bf565b9095909290916001600160a01b0387160361612e576160c99061610a565b505050505060405f5160206163115f395f51905f52915f9181935f615fe3565b506002600361615d8486614b1c565b5001541615156160ba565b50565b805f52600360205260405f205460f81c60018111156161cd575061618e81615dd9565b61619757505f90565b6161a081615e77565b90156161b857506161b3906107ee61517d565b600190565b6161c157505f90565b6161b3906107ee615156565b6161b391906161fb576040516161e4604082614bbf565b60048152634472617760e01b602082015290615c31565b604051616209604082614bbf565b60148152734c61737420706c61796572207374616e64696e6760601b602082015290615c3156fea4a46989ff60ad96ec74df0f289e1e16b51c97fecb224f2e8e927103d5b54eae3b7d84e02e9f6642b42e0ca3e77297f9c7c807832a60c0fc1926ade76abc7badcf33babc496bb6dc2942b39cb7b75766bbbadf7da50d176ff8c513e991140239b1ed64d561b0179e61c72bf46d0809a99dac99baeb98fc9f5d13be1f6c2e3f826b571d1c11516ea63adff1048766bdfa510e9c5bf4e32ca29d4ba11e16edf2f18ef7613b6eacaa71c74d950e2c093c23a0d3ecb066d1387d80e95159d07ed08ba49807205ce4d355092ef5a8a18f56e8913cf4a201fbe287825b095693c21775020f20553b51a906b0cb24d2431eb46bd2dc31b5c75d4ba8165ff1bb284ad2a1a264697066735822122077050a7d1bc89c04c2f4c6f6170b4e4eba4ebcf06e7e8775c651cbcf5cee230564736f6c634300081c00332f8788117e7eff1d82e926ec794901d17c78024a50270940304540a733656f0dac33ff75c19e70fe83507db0d683fd3465c996598dc972688b7ace676c89077be5ebfa64fca8d502a8e50c1edffd2c31ef4dad5b396e65d9f397fb028f74abc5",
  "linkReferences": {},
  "deployedLinkReferences": {},
  "immutableReferences": {},
  "inputSourceName": "project/contracts/MafiaPortalV4.sol",
  "buildInfoId": "solc-0_8_28-a276c9ec5eef4fb3e22c42ca58c9deee3e057c51"
}