{
  "_format": "hh3-artifact-1",
  "contractName": "MafiaPortalV2",
  "sourceName": "contracts/MafiaPortalV2.sol",
  "abi": [
    {
      "inputs": [],
      "name": "AlreadyJoined",
      "type": "error"
    },
    {
      "inputs": [],
      "name": "AlreadyRevealed",
      "type": "error"
    },
    {
      "inputs": [],
      "name": "InvalidDeckSize",
      "type": "error"
    },
    {
      "inputs": [],
      "name": "InvalidReveal",
      "type": "error"
    },
    {
      "inputs": [],
      "name": "InvalidSessionKey",
      "type": "error"
    },
    {
      "inputs": [],
      "name": "NoStalledPlayers",
      "type": "error"
    },
    {
      "inputs": [],
      "name": "NotParticipant",
      "type": "error"
    },
    {
      "inputs": [],
      "name": "NotYourTurn",
      "type": "error"
    },
    {
      "inputs": [],
      "name": "PlayerInactive",
      "type": "error"
    },
    {
      "inputs": [],
      "name": "RoomFull",
      "type": "error"
    },
    {
      "inputs": [],
      "name": "SessionExpired",
      "type": "error"
    },
    {
      "inputs": [],
      "name": "SessionNotForThisRoom",
      "type": "error"
    },
    {
      "inputs": [],
      "name": "TimeNotExpired",
      "type": "error"
    },
    {
      "inputs": [],
      "name": "Unauthorized",
      "type": "error"
    },
    {
      "inputs": [],
      "name": "WrongPhase",
      "type": "error"
    },
    {
      "anonymous": false,
      "inputs": [
        {
          "indexed": true,
          "internalType": "uint256",
          "name": "roomId",
          "type": "uint256"
        },
        {
          "indexed": false,
          "internalType": "uint256",
          "name": "dayNumber",
          "type": "uint256"
        }
      ],
      "name": "DayStarted",
      "type": "event"
    },
    {
      "anonymous": false,
      "inputs": [
        {
          "indexed": true,
          "internalType": "uint256",
          "name": "roomId",
          "type": "uint256"
        },
        {
          "indexed": false,
          "internalType": "address",
          "name": "byPlayer",
          "type": "address"
        },
        {
          "indexed": false,
          "internalType": "uint256",
          "name": "nextIndex",
          "type": "uint256"
        }
      ],
      "name": "DeckSubmitted",
      "type": "event"
    },
    {
      "anonymous": false,
      "inputs": [
        {
          "indexed": true,
          "internalType": "uint256",
          "name": "roomId",
          "type": "uint256"
        },
        {
          "indexed": false,
          "internalType": "string",
          "name": "reason",
          "type": "string"
        }
      ],
      "name": "GameEnded",
      "type": "event"
    },
    {
      "anonymous": false,
      "inputs": [
        {
          "indexed": true,
          "internalType": "uint256",
          "name": "roomId",
          "type": "uint256"
        }
      ],
      "name": "GameStarted",
      "type": "event"
    },
    {
      "anonymous": false,
      "inputs": [
        {
          "indexed": true,
          "internalType": "uint256",
          "name": "roomId",
          "type": "uint256"
        },
        {
          "indexed": false,
          "internalType": "address",
          "name": "from",
          "type": "address"
        },
        {
          "indexed": false,
          "internalType": "address",
          "name": "to",
          "type": "address"
        }
      ],
      "name": "KeyShared",
      "type": "event"
    },
    {
      "anonymous": false,
      "inputs": [
        {
          "indexed": true,
          "internalType": "uint256",
          "name": "roomId",
          "type": "uint256"
        },
        {
          "indexed": false,
          "internalType": "address",
          "name": "player",
          "type": "address"
        }
      ],
      "name": "NightActionCommitted",
      "type": "event"
    },
    {
      "anonymous": false,
      "inputs": [
        {
          "indexed": true,
          "internalType": "uint256",
          "name": "roomId",
          "type": "uint256"
        },
        {
          "indexed": false,
          "internalType": "address",
          "name": "player",
          "type": "address"
        },
        {
          "indexed": false,
          "internalType": "enum MafiaPortalV2.NightActionType",
          "name": "action",
          "type": "uint8"
        }
      ],
      "name": "NightActionRevealed",
      "type": "event"
    },
    {
      "anonymous": false,
      "inputs": [
        {
          "indexed": true,
          "internalType": "uint256",
          "name": "roomId",
          "type": "uint256"
        }
      ],
      "name": "NightStarted",
      "type": "event"
    },
    {
      "anonymous": false,
      "inputs": [
        {
          "indexed": true,
          "internalType": "uint256",
          "name": "roomId",
          "type": "uint256"
        },
        {
          "indexed": false,
          "internalType": "address",
          "name": "player",
          "type": "address"
        },
        {
          "indexed": false,
          "internalType": "string",
          "name": "reason",
          "type": "string"
        }
      ],
      "name": "PlayerEliminated",
      "type": "event"
    },
    {
      "anonymous": false,
      "inputs": [
        {
          "indexed": true,
          "internalType": "uint256",
          "name": "roomId",
          "type": "uint256"
        },
        {
          "indexed": false,
          "internalType": "address",
          "name": "player",
          "type": "address"
        },
        {
          "indexed": false,
          "internalType": "string",
          "name": "nickname",
          "type": "string"
        }
      ],
      "name": "PlayerJoined",
      "type": "event"
    },
    {
      "anonymous": false,
      "inputs": [
        {
          "indexed": true,
          "internalType": "uint256",
          "name": "roomId",
          "type": "uint256"
        },
        {
          "indexed": false,
          "internalType": "address",
          "name": "player",
          "type": "address"
        },
        {
          "indexed": false,
          "internalType": "string",
          "name": "reason",
          "type": "string"
        }
      ],
      "name": "PlayerKicked",
      "type": "event"
    },
    {
      "anonymous": false,
      "inputs": [
        {
          "indexed": true,
          "internalType": "uint256",
          "name": "roomId",
          "type": "uint256"
        },
        {
          "indexed": false,
          "internalType": "address",
          "name": "player",
          "type": "address"
        }
      ],
      "name": "RoleConfirmed",
      "type": "event"
    },
    {
      "anonymous": false,
      "inputs": [
        {
          "indexed": true,
          "internalType": "uint256",
          "name": "roomId",
          "type": "uint256"
        },
        {
          "indexed": false,
          "internalType": "address",
          "name": "host",
          "type": "address"
        },
        {
          "indexed": false,
          "internalType": "uint256",
          "name": "maxPlayers",
          "type": "uint256"
        }
      ],
      "name": "RoomCreated",
      "type": "event"
    },
    {
      "anonymous": false,
      "inputs": [
        {
          "indexed": true,
          "internalType": "address",
          "name": "mainWallet",
          "type": "address"
        },
        {
          "indexed": true,
          "internalType": "address",
          "name": "sessionKey",
          "type": "address"
        },
        {
          "indexed": false,
          "internalType": "uint256",
          "name": "roomId",
          "type": "uint256"
        },
        {
          "indexed": false,
          "internalType": "uint256",
          "name": "expiresAt",
          "type": "uint256"
        }
      ],
      "name": "SessionKeyRegistered",
      "type": "event"
    },
    {
      "anonymous": false,
      "inputs": [
        {
          "indexed": true,
          "internalType": "address",
          "name": "mainWallet",
          "type": "address"
        },
        {
          "indexed": true,
          "internalType": "address",
          "name": "sessionKey",
          "type": "address"
        }
      ],
      "name": "SessionKeyRevoked",
      "type": "event"
    },
    {
      "anonymous": false,
      "inputs": [
        {
          "indexed": true,
          "internalType": "uint256",
          "name": "roomId",
          "type": "uint256"
        },
        {
          "indexed": false,
          "internalType": "address",
          "name": "voter",
          "type": "address"
        },
        {
          "indexed": false,
          "internalType": "address",
          "name": "target",
          "type": "address"
        }
      ],
      "name": "VoteCast",
      "type": "event"
    },
    {
      "anonymous": false,
      "inputs": [
        {
          "indexed": true,
          "internalType": "uint256",
          "name": "roomId",
          "type": "uint256"
        }
      ],
      "name": "VotingStarted",
      "type": "event"
    },
    {
      "inputs": [],
      "name": "SESSION_DURATION",
      "outputs": [
        {
          "internalType": "uint256",
          "name": "",
          "type": "uint256"
        }
      ],
      "stateMutability": "view",
      "type": "function"
    },
    {
      "inputs": [],
      "name": "TURN_TIMEOUT",
      "outputs": [
        {
          "internalType": "uint256",
          "name": "",
          "type": "uint256"
        }
      ],
      "stateMutability": "view",
      "type": "function"
    },
    {
      "inputs": [
        {
          "internalType": "uint256",
          "name": "roomId",
          "type": "uint256"
        },
        {
          "internalType": "bytes32",
          "name": "hash",
          "type": "bytes32"
        }
      ],
      "name": "commitNightAction",
      "outputs": [],
      "stateMutability": "nonpayable",
      "type": "function"
    },
    {
      "inputs": [
        {
          "internalType": "uint256",
          "name": "roomId",
          "type": "uint256"
        }
      ],
      "name": "confirmRole",
      "outputs": [],
      "stateMutability": "nonpayable",
      "type": "function"
    },
    {
      "inputs": [
        {
          "internalType": "uint256",
          "name": "maxPlayers",
          "type": "uint256"
        },
        {
          "internalType": "string",
          "name": "hostNickname",
          "type": "string"
        },
        {
          "internalType": "string",
          "name": "publicKey",
          "type": "string"
        }
      ],
      "name": "createRoom",
      "outputs": [],
      "stateMutability": "nonpayable",
      "type": "function"
    },
    {
      "inputs": [
        {
          "internalType": "uint256",
          "name": "roomId",
          "type": "uint256"
        }
      ],
      "name": "finalizeNight",
      "outputs": [],
      "stateMutability": "nonpayable",
      "type": "function"
    },
    {
      "inputs": [
        {
          "internalType": "uint256",
          "name": "roomId",
          "type": "uint256"
        }
      ],
      "name": "finalizeVoting",
      "outputs": [],
      "stateMutability": "nonpayable",
      "type": "function"
    },
    {
      "inputs": [
        {
          "internalType": "uint256",
          "name": "roomId",
          "type": "uint256"
        }
      ],
      "name": "getDeck",
      "outputs": [
        {
          "internalType": "string[]",
          "name": "",
          "type": "string[]"
        }
      ],
      "stateMutability": "view",
      "type": "function"
    },
    {
      "inputs": [
        {
          "internalType": "uint256",
          "name": "roomId",
          "type": "uint256"
        },
        {
          "internalType": "address",
          "name": "from",
          "type": "address"
        }
      ],
      "name": "getKeyFrom",
      "outputs": [
        {
          "internalType": "string",
          "name": "",
          "type": "string"
        }
      ],
      "stateMutability": "view",
      "type": "function"
    },
    {
      "inputs": [
        {
          "internalType": "uint256",
          "name": "roomId",
          "type": "uint256"
        }
      ],
      "name": "getPlayers",
      "outputs": [
        {
          "components": [
            {
              "internalType": "address",
              "name": "wallet",
              "type": "address"
            },
            {
              "internalType": "string",
              "name": "nickname",
              "type": "string"
            },
            {
              "internalType": "string",
              "name": "publicKey",
              "type": "string"
            },
            {
              "internalType": "bool",
              "name": "hasConfirmedRole",
              "type": "bool"
            },
            {
              "internalType": "bool",
              "name": "isActive",
              "type": "bool"
            }
          ],
          "internalType": "struct MafiaPortalV2.Player[]",
          "name": "",
          "type": "tuple[]"
        }
      ],
      "stateMutability": "view",
      "type": "function"
    },
    {
      "inputs": [
        {
          "internalType": "address",
          "name": "mainWallet",
          "type": "address"
        }
      ],
      "name": "getSessionKey",
      "outputs": [
        {
          "internalType": "address",
          "name": "sessionAddress",
          "type": "address"
        },
        {
          "internalType": "uint256",
          "name": "expiresAt",
          "type": "uint256"
        },
        {
          "internalType": "uint256",
          "name": "roomId",
          "type": "uint256"
        },
        {
          "internalType": "bool",
          "name": "isActive",
          "type": "bool"
        }
      ],
      "stateMutability": "view",
      "type": "function"
    },
    {
      "inputs": [
        {
          "internalType": "uint256",
          "name": "",
          "type": "uint256"
        },
        {
          "internalType": "address",
          "name": "",
          "type": "address"
        }
      ],
      "name": "isPlayerInRoom",
      "outputs": [
        {
          "internalType": "bool",
          "name": "",
          "type": "bool"
        }
      ],
      "stateMutability": "view",
      "type": "function"
    },
    {
      "inputs": [
        {
          "internalType": "address",
          "name": "mainWallet",
          "type": "address"
        },
        {
          "internalType": "uint256",
          "name": "roomId",
          "type": "uint256"
        }
      ],
      "name": "isSessionValid",
      "outputs": [
        {
          "internalType": "bool",
          "name": "",
          "type": "bool"
        }
      ],
      "stateMutability": "view",
      "type": "function"
    },
    {
      "inputs": [
        {
          "internalType": "uint256",
          "name": "roomId",
          "type": "uint256"
        },
        {
          "internalType": "string",
          "name": "nickname",
          "type": "string"
        },
        {
          "internalType": "string",
          "name": "publicKey",
          "type": "string"
        }
      ],
      "name": "joinRoom",
      "outputs": [],
      "stateMutability": "nonpayable",
      "type": "function"
    },
    {
      "inputs": [
        {
          "internalType": "uint256",
          "name": "",
          "type": "uint256"
        },
        {
          "internalType": "address",
          "name": "",
          "type": "address"
        },
        {
          "internalType": "address",
          "name": "",
          "type": "address"
        }
      ],
      "name": "keyMailbox",
      "outputs": [
        {
          "internalType": "string",
          "name": "",
          "type": "string"
        }
      ],
      "stateMutability": "view",
      "type": "function"
    },
    {
      "inputs": [
        {
          "internalType": "uint256",
          "name": "roomId",
          "type": "uint256"
        }
      ],
      "name": "kickStalledPlayer",
      "outputs": [],
      "stateMutability": "nonpayable",
      "type": "function"
    },
    {
      "inputs": [],
      "name": "nextRoomId",
      "outputs": [
        {
          "internalType": "uint256",
          "name": "",
          "type": "uint256"
        }
      ],
      "stateMutability": "view",
      "type": "function"
    },
    {
      "inputs": [
        {
          "internalType": "uint256",
          "name": "",
          "type": "uint256"
        },
        {
          "internalType": "address",
          "name": "",
          "type": "address"
        }
      ],
      "name": "nightCommits",
      "outputs": [
        {
          "internalType": "bytes32",
          "name": "commitHash",
          "type": "bytes32"
        },
        {
          "internalType": "bool",
          "name": "revealed",
          "type": "bool"
        }
      ],
      "stateMutability": "view",
      "type": "function"
    },
    {
      "inputs": [
        {
          "internalType": "address",
          "name": "sessionAddress",
          "type": "address"
        },
        {
          "internalType": "uint256",
          "name": "roomId",
          "type": "uint256"
        }
      ],
      "name": "registerSessionKey",
      "outputs": [],
      "stateMutability": "nonpayable",
      "type": "function"
    },
    {
      "inputs": [
        {
          "internalType": "uint256",
          "name": "roomId",
          "type": "uint256"
        },
        {
          "internalType": "enum MafiaPortalV2.NightActionType",
          "name": "action",
          "type": "uint8"
        },
        {
          "internalType": "address",
          "name": "target",
          "type": "address"
        },
        {
          "internalType": "string",
          "name": "salt",
          "type": "string"
        }
      ],
      "name": "revealNightAction",
      "outputs": [],
      "stateMutability": "nonpayable",
      "type": "function"
    },
    {
      "inputs": [
        {
          "internalType": "uint256",
          "name": "",
          "type": "uint256"
        },
        {
          "internalType": "address",
          "name": "",
          "type": "address"
        }
      ],
      "name": "revealedActions",
      "outputs": [
        {
          "internalType": "enum MafiaPortalV2.NightActionType",
          "name": "",
          "type": "uint8"
        }
      ],
      "stateMutability": "view",
      "type": "function"
    },
    {
      "inputs": [
        {
          "internalType": "uint256",
          "name": "",
          "type": "uint256"
        },
        {
          "internalType": "address",
          "name": "",
          "type": "address"
        }
      ],
      "name": "revealedTargets",
      "outputs": [
        {
          "internalType": "address",
          "name": "",
          "type": "address"
        }
      ],
      "stateMutability": "view",
      "type": "function"
    },
    {
      "inputs": [],
      "name": "revokeSessionKey",
      "outputs": [],
      "stateMutability": "nonpayable",
      "type": "function"
    },
    {
      "inputs": [
        {
          "internalType": "uint256",
          "name": "",
          "type": "uint256"
        },
        {
          "internalType": "uint256",
          "name": "",
          "type": "uint256"
        }
      ],
      "name": "roomDeck",
      "outputs": [
        {
          "internalType": "string",
          "name": "",
          "type": "string"
        }
      ],
      "stateMutability": "view",
      "type": "function"
    },
    {
      "inputs": [
        {
          "internalType": "uint256",
          "name": "",
          "type": "uint256"
        },
        {
          "internalType": "uint256",
          "name": "",
          "type": "uint256"
        }
      ],
      "name": "roomPlayers",
      "outputs": [
        {
          "internalType": "address",
          "name": "wallet",
          "type": "address"
        },
        {
          "internalType": "string",
          "name": "nickname",
          "type": "string"
        },
        {
          "internalType": "string",
          "name": "publicKey",
          "type": "string"
        },
        {
          "internalType": "bool",
          "name": "hasConfirmedRole",
          "type": "bool"
        },
        {
          "internalType": "bool",
          "name": "isActive",
          "type": "bool"
        }
      ],
      "stateMutability": "view",
      "type": "function"
    },
    {
      "inputs": [
        {
          "internalType": "uint256",
          "name": "",
          "type": "uint256"
        }
      ],
      "name": "rooms",
      "outputs": [
        {
          "internalType": "uint256",
          "name": "id",
          "type": "uint256"
        },
        {
          "internalType": "address",
          "name": "host",
          "type": "address"
        },
        {
          "internalType": "enum MafiaPortalV2.GamePhase",
          "name": "phase",
          "type": "uint8"
        },
        {
          "internalType": "uint256",
          "name": "maxPlayers",
          "type": "uint256"
        },
        {
          "internalType": "uint256",
          "name": "playersCount",
          "type": "uint256"
        },
        {
          "internalType": "uint256",
          "name": "dayCount",
          "type": "uint256"
        },
        {
          "internalType": "uint256",
          "name": "currentShufflerIndex",
          "type": "uint256"
        },
        {
          "internalType": "uint256",
          "name": "lastActionTimestamp",
          "type": "uint256"
        }
      ],
      "stateMutability": "view",
      "type": "function"
    },
    {
      "inputs": [
        {
          "internalType": "address",
          "name": "",
          "type": "address"
        }
      ],
      "name": "sessionKeys",
      "outputs": [
        {
          "internalType": "address",
          "name": "sessionAddress",
          "type": "address"
        },
        {
          "internalType": "uint256",
          "name": "expiresAt",
          "type": "uint256"
        },
        {
          "internalType": "uint256",
          "name": "roomId",
          "type": "uint256"
        },
        {
          "internalType": "bool",
          "name": "isActive",
          "type": "bool"
        }
      ],
      "stateMutability": "view",
      "type": "function"
    },
    {
      "inputs": [
        {
          "internalType": "address",
          "name": "",
          "type": "address"
        }
      ],
      "name": "sessionToMain",
      "outputs": [
        {
          "internalType": "address",
          "name": "",
          "type": "address"
        }
      ],
      "stateMutability": "view",
      "type": "function"
    },
    {
      "inputs": [
        {
          "internalType": "uint256",
          "name": "roomId",
          "type": "uint256"
        },
        {
          "internalType": "address",
          "name": "to",
          "type": "address"
        },
        {
          "internalType": "string",
          "name": "encryptedKey",
          "type": "string"
        }
      ],
      "name": "shareKey",
      "outputs": [],
      "stateMutability": "nonpayable",
      "type": "function"
    },
    {
      "inputs": [
        {
          "internalType": "uint256",
          "name": "roomId",
          "type": "uint256"
        }
      ],
      "name": "startShuffle",
      "outputs": [],
      "stateMutability": "nonpayable",
      "type": "function"
    },
    {
      "inputs": [
        {
          "internalType": "uint256",
          "name": "roomId",
          "type": "uint256"
        }
      ],
      "name": "startVoting",
      "outputs": [],
      "stateMutability": "nonpayable",
      "type": "function"
    },
    {
      "inputs": [
        {
          "internalType": "uint256",
          "name": "roomId",
          "type": "uint256"
        },
        {
          "internalType": "string[]",
          "name": "deck",
          "type": "string[]"
        }
      ],
      "name": "submitDeck",
      "outputs": [],
      "stateMutability": "nonpayable",
      "type": "function"
    },
    {
      "inputs": [
        {
          "internalType": "uint256",
          "name": "roomId",
          "type": "uint256"
        },
        {
          "internalType": "address",
          "name": "target",
          "type": "address"
        }
      ],
      "name": "vote",
      "outputs": [],
      "stateMutability": "nonpayable",
      "type": "function"
    },
    {
      "inputs": [
        {
          "internalType": "uint256",
          "name": "",
          "type": "uint256"
        },
        {
          "internalType": "address",
          "name": "",
          "type": "address"
        }
      ],
      "name": "voteCounts",
      "outputs": [
        {
          "internalType": "uint256",
          "name": "",
          "type": "uint256"
        }
      ],
      "stateMutability": "view",
      "type": "function"
    },
    {
      "inputs": [
        {
          "internalType": "uint256",
          "name": "",
          "type": "uint256"
        },
        {
          "internalType": "address",
          "name": "",
          "type": "address"
        }
      ],
      "name": "votes",
      "outputs": [
        {
          "internalType": "address",
          "name": "",
          "type": "address"
        }
      ],
      "stateMutability": "view",
      "type": "function"
    }
  ],
  "bytecode": "0x60808060405234601a576001600c55612d04908161001f8239f35b5f80fdfe60806040526004361015610011575f80fd5b5f3560e01c806302d947ef1461226e57806307a52cab1461225157806309ed3e22146121b05780630f8d2b6814612179578063139db82d14611d95578063196b42bf14611b6e5780631bae0ac814611ae6578063280af5c314611a875780632a51fb3a146119b25780633d2f5bda146119025780633deaa341146118e6578063460e20491461177f57806347a90d441461156357806348e69d1f146114d957806349444831146112195780634f324d14146111d95780635099fae214610f9057806355793f1014610efe5780635e82ff6514610ee357806361ea202714610e9f5780636594bb0c14610c7d578063660e907c14610c34578063669ead1714610be65780636b41f5f314610b575780637a364461146106f35780637bd6d43214610ae95780637fcd07d1146109ee578063858e3d9d14610763578063b7b8d604146106f3578063c4e4a68e146104c7578063c96f09791461037a578063d23254b414610330578063d275ecbf1461023a578063eb0fa6f8146101f05763f14caed71461019a575f80fd5b346101ec5760403660031901126101ec576101b3612424565b6004355f52600760205260405f209060018060a01b03165f526020526040805f2060ff6001825492015416825191825215156020820152f35b5f80fd5b346101ec5760403660031901126101ec57610209612424565b6004355f9081526009602090815260408083206001600160a01b039485168452825291829020549151919092168152f35b346101ec5760203660031901126101ec576004355f818152602081905260409020600101546001600160a01b0316330361032257805f525f60205260ff600160405f20015460a01c16600781101561030e576102ff575f818152602081905260409020600101805460ff60a01b1916600160a01b1790556102ba81612821565b815f525f602052600560405f200155805f525f60205242600660405f2001557f50ad08f58a27f2851d7e3a1b3a6a46b290f2ce677e99642d30ff639721e777905f80a2005b6338961af360e21b5f5260045ffd5b634e487b7160e01b5f52602160045260245ffd5b6282b42960e81b5f5260045ffd5b346101ec5760403660031901126101ec57610349612424565b6004355f9081526005602090815260408083206001600160a01b039485168452825291829020549151919092168152f35b346101ec5760403660031901126101ec576004356103978161273f565b815f52600260205260405f2060018060a01b0382165f5260205260ff60405f205416156104b8576103c890826127c0565b156104a9576103d68161273f565b815f525f60205260ff600160405f20015460a01c16600781101561030e576004036102ff5760405160408101918183106001600160401b03841117610495576104826020927f0eedfe83feef539cc0cbc56b8336ca3cc16ee922943b5d3b1046759ac50b0e6794604052602435815260018482015f8152875f526007865260405f20828060a01b0386165f52865260405f209251835551151591019060ff801983541691151516179055565b6040516001600160a01b039091168152a2005b634e487b7160e01b5f52604160045260245ffd5b630575d90f60e11b5f5260045ffd5b63721c7c6760e11b5f5260045ffd5b346101ec5760603660031901126101ec576004356104e3612424565b906044356001600160401b0381116101ec5761050390369060040161263d565b929061050e8361273f565b835f52600260205260405f2060018060a01b0382165f5260205260ff60405f205416156104b85761053f90846127c0565b156104a95761054d8361273f565b90835f525f60205260ff600160405f20015460a01c16600781101561030e576002036102ff57835f52600260205260405f2060018060a01b0384165f5260205260ff60405f205416156104b8575f8481526004602090815260408083206001600160a01b03868116855290835281842090871684529091529020906001600160401b038611610495576105ea866105e484546124a9565b846126fc565b5f90601f871160011461066d57958061063b927ff1d4587b940f02682b4f35032abef955e02e1dcee0b6de9b9f7b00d434e8b32f97985f92610662575b50508160011b915f199060031b1c19161790565b90555b604080516001600160a01b039283168152929091166020830152819081015b0390a2005b013590508880610627565b601f19871691835f5260205f20925f5b8181106106db57509160019391897ff1d4587b940f02682b4f35032abef955e02e1dcee0b6de9b9f7b00d434e8b32f999a94106106c2575b505050811b01905561063e565b01355f19600384901b60f8161c191690558780806106b5565b9193602060018192878701358155019501920161067d565b346101ec5760203660031901126101ec576001600160a01b03610714612450565b165f908152600a602090815260409182902080546001820154600283015460039093015485516001600160a01b039093168352938201529283015260ff161515606082015280608081015b0390f35b346101ec5760203660031901126101ec576004356107808161273f565b815f52600260205260405f2060018060a01b0382165f5260205260ff60405f205416156104b8576107b190826127c0565b156104a957805f525f60205260405f206001810160ff815460a01c16600781101561030e576004036102ff575f9182805b855f5260016020528560405f20548310156108e2575f52600160205261080b8260405f2061247c565b50545f8781526008602090815260408083206001600160a01b039094168084529390915290205490929060ff16600481101561030e576001146108b7575b865f52600860205260405f2060018060a01b0384165f5260205260ff60405f20541692600484101561030e57600288941461088a575b5060010191506107e2565b5f8481526009602090815260408083206001600160a01b039485168452909152902054169150600161087f565b5f8781526009602090815260408083206001600160a01b038781168552925290912054169550610849565b948592506001600160a01b0381169182151590816109da575b50610977575b505061090c906128a0565b60ff825460a01c16600781101561030e5760060361092657005b815460ff60a01b1916600360a01b1790915560040180547fa9b4e96158ed085745975f198fa026959997245ae7e7aed9cd0252ce02b210719160209161096b906126d8565b809155604051908152a2005b7fb1ed64d561b0179e61c72bf46d0809a99dac99baeb98fc9f5d13be1f6c2e3f82916109a560809285612916565b60405190815260406020820152600f60408201526e12da5b1b195908185d081b9a59da1d608a1b6060820152a2828480610901565b6001600160a01b03168314159050876108fb565b346101ec576109fc36612677565b92939091600282101580610ade575b15610aa9577fac131287fe8417903d89f4eb472bc1d0da81641ef725569346dab6c2879a67179361065d93610a9192600c5497610a47896126d8565b600c555f8981526020819052604090208981556001810180546001600160a81b0319163360ff60a01b198116919091179091556002820188905542600690920191909155896129a2565b60408051338152602081019290925290918291820190565b60405162461bcd60e51b815260206004820152600d60248201526c125b9d985b1a590818dbdd5b9d609a1b6044820152606490fd5b506010821115610a0b565b346101ec5760403660031901126101ec576001600160a01b03610b0a612450565b165f52600a602052602060405f2060ff6003820154169081610b48575b81610b38575b506040519015158152f35b6002015460243514905082610b2d565b60018101544211159150610b27565b346101ec57610b6536612677565b92845f939293525f60205260405f2060ff600182015460a01c16600781101561030e576102ff57600260038201549101541115610bd7575f85815260026020908152604080832033845290915290205460ff16610bc957610bc79433906129a2565b005b621d934160e11b5f5260045ffd5b63bc42480360e01b5f5260045ffd5b346101ec5760403660031901126101ec57610bff612424565b6004355f52600860205260405f209060018060a01b03165f52602052602060ff60405f205416610c32604051809261266a565bf35b346101ec5760403660031901126101ec57610c4d612424565b6004355f52600260205260405f209060018060a01b03165f52602052602060ff60405f2054166040519015158152f35b346101ec5760803660031901126101ec5760043560243560048110156101ec57610ca561243a565b906064356001600160401b0381116101ec57610cc590369060040161263d565b90610ccf8561273f565b855f52600260205260405f2060018060a01b0382165f5260205260ff60405f205416156104b857610d0090866127c0565b156104a957610d0e8561273f565b91855f525f60205260ff600160405f20015460a01c16600781101561030e576004036102ff57855f52600760205260405f2060018060a01b0384165f5260205260ff600160405f20015416610e9057610da0603560405183819460208301968960f81b88526001600160601b03198b60601b1660218501528484013781015f838201520301601f1981018352826124fc565b519020845f52600760205260405f2060018060a01b0383165f5260205260405f205403610e81575f8481526007602090815260408083206001600160a01b039485168085529083528184206001908101805460ff199081169092179055888552600884528285208286528452828520805490911660ff8816179055878452600983528184208185528352928190208054969094166001600160a01b03199096169590951790925583519081527ff06d68f16c49c42e886f88c2689940ad871a4f71654933d28b593912f169f94693929091610e7e919083019061266a565ba2005b639ea6d12760e01b5f5260045ffd5b63a89ac15160e01b5f5260045ffd5b346101ec5760403660031901126101ec57610eb8612424565b6004355f52600660205260405f209060018060a01b03165f52602052602060405f2054604051908152f35b346101ec575f3660031901126101ec57602060405160788152f35b346101ec5760403660031901126101ec57610f17612424565b335f908152600b60205260409020546001600160a01b0316908115610f88575b6004355f52600460205260405f209060018060a01b03165f5260205260405f209060018060a01b03165f5260205261075f610f7460405f2061251d565b6040519182916020835260208301906125bd565b339150610f37565b346101ec5760203660031901126101ec57600435610fad8161273f565b815f52600260205260405f2060018060a01b0382165f5260205260ff60405f205416156104b857610fde90826127c0565b156104a957610fec8161273f565b90805f525f60205260ff600160405f20015460a01c16600781101561030e576002036102ff576001600160a01b03909116905f5b815f52600160205260405f20548110156111ae57815f5260016020528261104a8260405f2061247c565b50546001600160a01b03161461106257600101611020565b60208293600361109d7f82b52ddf0195aa8ac16480985f5042052aa742563721520fa34764d253824d4394865f526001855260405f2061247c565b5001805460ff191660011790555b604051908152a2805f525f60205260405f205f5f5f5b845f52600160205260405f205481101561114357845f52600160205260ff60036110ee8360405f2061247c565b50015460081c16611102575b6001016110c1565b9061110c906126d8565b90845f52600160205260ff60036111268360405f2061247c565b50015416156110fa579161113b6001916126d8565b9290506110fa565b5080911490816111a4575b5061115557005b60018101600360a01b60ff60a01b19825416179055600160048201556006429101557fa9b4e96158ed085745975f198fa026959997245ae7e7aed9cd0252ce02b21071602060405160018152a2005b905015158361114e565b507f82b52ddf0195aa8ac16480985f5042052aa742563721520fa34764d253824d43602082936110ab565b346101ec5760203660031901126101ec576001600160a01b036111fa612450565b165f52600b602052602060018060a01b0360405f205416604051908152f35b346101ec5760203660031901126101ec576004356112368161273f565b815f52600260205260405f2060018060a01b0382165f5260205260ff60405f205416156104b85761126790826127c0565b156104a957805f525f60205260405f2090600182019060ff825460a01c16600781101561030e576005036102ff575f915f905f5b835f52600160205260405f205481101561133757835f5260016020526112c48160405f2061247c565b5060018060a01b03905416845f52600160205260ff60036112e88460405f2061247c565b50015460081c166112fd575b5060010161129b565b845f52600660205260405f2060018060a01b0382165f5260205260405f205484811161132a575b506112f4565b9095509250600187611324565b50929060038395015460011c10611473575b50505f5b825f52600160205260405f205481101561141857600190835f52816020526113788160405f2061247c565b50545f85815260056020908152604080832060a087901b87900390941680845293825280832080546001600160a01b03199081169091558884526006835281842085855283528184208490558884526007835281842085855283528184208481558701849055888452600883528184208585528352818420805460ff1916905588845260098352818420948452939091529020805490911690550161134d565b50611422826128a0565b60ff815460a01c16600781101561030e5760060361143c57005b805460ff60a01b1916600160a21b1790557f34b0c4c95aa7776d35dbd8b24afd53388828c61c26fd5a6b11a21809662440875f80a2005b6080816114a17fb1ed64d561b0179e61c72bf46d0809a99dac99baeb98fc9f5d13be1f6c2e3f829385612916565b604080516001600160a01b0390921682526020820181905260099082015268159bdd1959081bdd5d60ba1b6060820152a28183611349565b346101ec575f3660031901126101ec57335f52600a60205260405f206003810160ff81541661150457005b81546001600160a01b039081165f908152600b6020526040812080546001600160a01b0319169055825460ff191690925591549091169033907f744157ccffbd293a2e8644928cd7d23d650f869b88f72d7bfea8041b76ca6bec9080a3005b346101ec5760403660031901126101ec5761157c612450565b6001600160a01b0316602435811561173a575f81815260026020908152604080832033845290915290205460ff161561170757335f52600a60205260ff600360405f200154166116d0575b61384042018042116116bc5760405160808101908082106001600160401b03831117610495576116639160405284815260036020820184815260408301868152606084019160018352335f52600a60205260405f209460018060a01b039060018060a01b03905116166001600160601b0360a01b86541617855551600185015551600284015551151591019060ff801983541691151516179055565b825f52600b60205260405f2060018060a01b0333166001600160601b0360a01b82541617905560405191825260208201527f290e52799b1ac63207e28c21f7f1f387cf8ea9257dde8e363a02e157d8e4c65860403392a3005b634e487b7160e01b5f52601160045260245ffd5b335f908152600a60209081526040808320546001600160a01b03168352600b909152902080546001600160a01b03191690556115c7565b60405162461bcd60e51b815260206004820152600b60248201526a4e6f7420696e20726f6f6d60a81b6044820152606490fd5b60405162461bcd60e51b815260206004820152601760248201527f496e76616c69642073657373696f6e20616464726573730000000000000000006044820152606490fd5b346101ec5760203660031901126101ec576004355f52600160205260405f208054906117aa826125e1565b916117b860405193846124fc565b8083526020830180925f5260205f205f915b83831061187e57848660405191829160208301906020845251809152604083019060408160051b85010192915f905b82821061180857505050500390f35b919360019193955060208091603f19898203018552875190848060a01b03825116815260808061185a6118488686015160a08887015260a08601906125bd565b604086015185820360408701526125bd565b936060810151151560608501520151151591015296019201920185949391926117f9565b60046020600192604051611891816124e1565b848060a01b0386541681526118a785870161251d565b838201526118b76002870161251d565b604082015260ff60038701548181161515606084015260081c16151560808201528152019201920191906117ca565b346101ec575f3660031901126101ec5760206040516138408152f35b346101ec5760203660031901126101ec5760043561191f8161273f565b815f52600260205260405f2060018060a01b0382165f5260205260ff60405f205416156104b85761195090826127c0565b156104a957805f525f602052600160405f200160ff815460a01c16600781101561030e576003036102ff57805460ff60a01b1916600560a01b1790557fcf33babc496bb6dc2942b39cb7b75766bbbadf7da50d176ff8c513e9911402395f80a2005b346101ec5760203660031901126101ec576004355f52600360205260405f208054906119dd826125e1565b916119eb60405193846124fc565b8083526020830180925f5260205f205f915b838310611a6a57848660405191829160208301906020845251809152604083019060408160051b85010192915f905b828210611a3b57505050500390f35b91936001919395506020611a5a8192603f198a820301865288516125bd565b9601920192018594939192611a2c565b600160208192611a798561251d565b8152019201920191906119fd565b346101ec5760603660031901126101ec57611aa0612424565b611aa861243a565b906004355f52600460205260405f209060018060a01b03165f5260205260405f209060018060a01b03165f5260205261075f610f7460405f2061251d565b346101ec5760203660031901126101ec576004355f525f60205260405f208054600182015460ff8160a01c169260028101546003820154600483015491600660058501549401549460405196875260018060a01b03166020870152600787101561030e576101009660408701526060860152608085015260a084015260c083015260e0820152f35b346101ec5760203660031901126101ec57600435611b8b8161273f565b815f52600260205260405f2060018060a01b0382165f5260205260ff60405f205416156104b857611bbc90826127c0565b156104a957805f525f60205260405f20906001820160ff815460a01c166007811015908161030e5780158015611d88575b6102ff5760068501918254607881018091116116bc574210611d795761030e57600103611d255760058401549061270f8214611d1657835f526001602052837f8ef7613b6eacaa71c74d950e2c093c23a0d3ecb066d1387d80e95159d07ed08b6080611c5c8560405f2061247c565b506003810161ff0019815416905560038901611c7881546126cc565b905554604080516001600160a01b0390921682526020820181905260079082015266151a5b595bdd5d60ca1b6060820152a260ff835460a01c1694600786101561030e576001610bc79614611ccf575b85856128a0565b611cdb60059386612864565b9283910155429055825f52600160205260405f20541115611cff575b808080611cc8565b805460ff60a01b1916600160a11b17905582611cf7565b63c0e4046360e01b5f5260045ffd5b60405162461bcd60e51b815260206004820152602660248201527f4b69636b206f6e6c7920737570706f7274656420696e2053687566666c65206660448201526506f72204d56560d41b6064820152608490fd5b63489e8c8960e01b5f5260045ffd5b505f915060068114611bed565b346101ec5760403660031901126101ec576004356024356001600160401b0381116101ec57366023820112156101ec578060040135611dd3816125e1565b91611de160405193846124fc565b81835260208301906024829360051b820101903682116101ec5760248101925b8284106121395750505050611e158361273f565b835f52600260205260405f2060018060a01b0382165f5260205260ff60405f205416156104b857611e4690846127c0565b156104a957611e548361273f565b90835f525f60205260405f2092600184019060ff825460a01c16600781101561030e576001036102ff57855f52600160205260405f2092611e9b600587019485549061247c565b50546001600160a01b039081169086160361212a57865f52600360205260405f2054155f146121075781516003870154116120f8575b865f52600360205260405f20915190600160401b8211610495578254828455808310612081575b50915f5260205f20915f905b828210611fa15750505050815493600185018095116116bc57611f487f4ddfdf4c78d4cc7a24e7c9cab7b0a647688b6cf6ce58cededceb204846622d769587612864565b90818455600642910155855f52600160205260405f20541115611f8a575b5054604080516001600160a01b03909316835260208301919091528190810161065d565b805460ff60a01b1916600160a11b17905584611f66565b80518051906001600160401b03821161049557611fc882611fc288546124a9565b886126fc565b602090601f83116001146120185792611ffe836001959460209487965f9261200d5750508160011b915f199060031b1c19161790565b87555b01940191019092611f04565b015190508f80610627565b90601f19831691875f52815f20925f5b8181106120695750936020936001969387969383889510612051575b505050811b018755612001565b01515f1960f88460031b161c191690558e8080612044565b92936020600181928786015181550195019301612028565b835f528260205f2091820191015b81811061209c5750611ef8565b806120a9600192546124a9565b806120b6575b500161208f565b601f811183146120cb57505f81555b8b6120af565b6120e790825f5283601f60205f20920160051c820191016126e6565b805f525f60208120818355556120c5565b63d1d2a30960e01b5f5260045ffd5b8151875f52600360205260405f205414611ed15763d1d2a30960e01b5f5260045ffd5b631cc191eb60e31b5f5260045ffd5b83356001600160401b0381116101ec578201366043820112156101ec5760209161216e839236906044602482013591016125f8565b815201930192611e01565b346101ec5761218736612466565b905f52600360205260405f2080548210156101ec5761075f91610f74915f5260205f200161251d565b346101ec576121be36612466565b905f52600160205260405f209081548110156101ec576121dd9161247c565b5080546001600160a01b03166121f56001830161251d565b9160ff61223760036122096002850161251d565b93015492612229604051968796875260a0602088015260a08701906125bd565b9085820360408701526125bd565b918181161515606085015260081c16151560808301520390f35b346101ec575f3660031901126101ec576020600c54604051908152f35b346101ec5760403660031901126101ec5760043561228a612424565b6122938261273f565b825f52600260205260405f2060018060a01b0382165f5260205260ff60405f205416156104b8576122c490836127c0565b156104a9576122d28261273f565b90825f525f60205260ff600160405f20015460a01c16600781101561030e576005036102ff57825f52600260205260405f2060018060a01b0382165f5260205260ff60405f205416156104b85761232981846127c0565b156104a9575f8381526005602090815260408083206001600160a01b0380871685529252909120547fcfff1651bcea794952a516ce970ab17518a85210bd939aaeaac670a8d3e65ec7939116806123d0575b505f8481526005602090815260408083206001600160a01b03858116855290835281842080546001600160a01b0319169187169182179055878452600683528184209084529091529020805461063b906126d8565b845f52600660205260405f2060018060a01b0382165f5260205260405f20541561237b57845f52600660205260405f209060018060a01b03165f5260205260405f2061241c81546126cc565b90558461237b565b602435906001600160a01b03821682036101ec57565b604435906001600160a01b03821682036101ec57565b600435906001600160a01b03821682036101ec57565b60409060031901126101ec576004359060243590565b8054821015612495575f5260205f209060021b01905f90565b634e487b7160e01b5f52603260045260245ffd5b90600182811c921680156124d7575b60208310146124c357565b634e487b7160e01b5f52602260045260245ffd5b91607f16916124b8565b60a081019081106001600160401b0382111761049557604052565b90601f801991011681019081106001600160401b0382111761049557604052565b9060405191825f825492612530846124a9565b808452936001811690811561259b5750600114612557575b50612555925003836124fc565b565b90505f9291925260205f20905f915b81831061257f575050906020612555928201015f612548565b6020919350806001915483858901015201910190918492612566565b90506020925061255594915060ff191682840152151560051b8201015f612548565b805180835260209291819084018484015e5f828201840152601f01601f1916010190565b6001600160401b0381116104955760051b60200190565b9291926001600160401b0382116104955760405191612621601f8201601f1916602001846124fc565b8294818452818301116101ec578281602093845f960137010152565b9181601f840112156101ec578235916001600160401b0383116101ec57602083818601950101116101ec57565b90600482101561030e5752565b9060606003198301126101ec57600435916024356001600160401b0381116101ec57816126a69160040161263d565b92909291604435906001600160401b0382116101ec576126c89160040161263d565b9091565b80156116bc575f190190565b5f1981146116bc5760010190565b8181106126f1575050565b5f81556001016126e6565b9190601f811161270b57505050565b612555925f5260205f20906020601f840160051c83019310612735575b601f0160051c01906126e6565b9091508190612728565b335f908152600b60205260409020546001600160a01b031690816127635750503390565b815f52600a60205260405f2060ff600382015416156127b157600181015442116127a25760020154036127935790565b637ce3c8fd60e11b5f5260045ffd5b630fe82d2560e11b5f5260045ffd5b635f8874dd60e11b5f5260045ffd5b5f52600160205260405f205f918154925b8381106127e057505050505f90565b6127ea818461247c565b50546001600160a01b03838116911614612806576001016127d1565b60ff9350612817915060039261247c565b50015460081c1690565b5f52600160205260405f208054905f5b82811061283d57505090565b60ff600361284b838561247c565b50015460081c1661285e57600101612831565b91505090565b5f52600160205260405f208054915b82811061287f57505090565b60ff600361288d838561247c565b50015460081c1661285e57600101612873565b805f525f60205260405f206001600382015411156128bc575050565b600101600360a11b60ff60a01b198254161790557fd778487128ba4386ebcfb2703af01f8a2a2b8663f880622d26a77a29397e68f3606060405160208152600960208201526823b0b6b29027bb32b960b91b6040820152a2565b5f5b815f52600160205260405f205481101561299d57815f5260016020526129418160405f2061247c565b50546001600160a01b0384811691161461295d57600101612918565b819250612977906003925f52600160205260405f2061247c565b500161ff001981541690555f525f602052600360405f200161299981546126cc565b9055565b505050565b949093929193855f52600160205260405f20906129ec604051916129c5836124e1565b6001600160a01b0316808352956129dd36878a6125f8565b946020840195865236916125f8565b6040820190815260608201935f85526080830193600185528054600160401b81101561049557612a219160018201815561247c565b939093612cbb575183546001600160a01b0319166001600160a01b039190911617835551805160018401916001600160401b03821161049557612a6e82612a6885546124a9565b856126fc565b602090601f8311600114612c5857612a9c92915f9183612bbc5750508160011b915f199060031b1c19161790565b90555b51805160028301916001600160401b03821161049557612ac382612a6885546124a9565b602090601f8311600114612bc757936060979593612b2184612b3b956003957fa259bab503f65f6ae62d4f6a412b41b967799a284f69f21ba61362cf04e5eafa9e9d9b995f92612bbc5750508160011b915f199060031b1c19161790565b90555b0192511515839060ff801983541691151516179055565b51151561ff0082549160081b169061ff001916179055855f525f602052600360405f2001612b6981546126d8565b9055855f52600260205260405f20825f5260205260405f20600160ff1982541617905580604051948593845260406020850152816040850152848401375f828201840152601f01601f19168101030190a2565b015190505f80610627565b90601f19831691845f52815f20925f5b818110612c405750846003947fa259bab503f65f6ae62d4f6a412b41b967799a284f69f21ba61362cf04e5eafa9d9c9a989460609c9a9894612b3b9860019510612c29575b505050811b019055612b24565b01515f1983881b60f8161c191690555f8080612c1c565b92936020600181928786015181550195019301612bd7565b90601f19831691845f52815f20925f5b818110612ca35750908460019594939210612c8b575b505050811b019055612a9f565b01515f1960f88460031b161c191690555f8080612c7e565b92936020600181928786015181550195019301612c68565b634e487b7160e01b5f525f60045260245ffdfea2646970667358221220c4fb306153088bef9b8aa91f693759ec9c3a9536e24d5aff016b89c9d2a700df64736f6c634300081c0033",
  "linkReferences": {},
  "deployedLinkReferences": {},
  "immutableReferences": {},
  "inputSourceName": "project/contracts/MafiaPortalV2.sol",
  "buildInfoId": "solc-0_8_28-d1db6048a1b8a575eac5f656348982852260f996"
}