{
  "_format": "hh3-artifact-1",
  "contractName": "MafiaPortalV3",
  "sourceName": "contracts/MafiaPortalV3.sol",
  "abi": [
    {
      "inputs": [],
      "name": "AlreadyCommitted",
      "type": "error"
    },
    {
      "inputs": [],
      "name": "AlreadyJoined",
      "type": "error"
    },
    {
      "inputs": [],
      "name": "AlreadyRevealed",
      "type": "error"
    },
    {
      "inputs": [],
      "name": "AlreadySharedKeys",
      "type": "error"
    },
    {
      "inputs": [],
      "name": "AlreadyVoted",
      "type": "error"
    },
    {
      "inputs": [],
      "name": "InvalidArrayLength",
      "type": "error"
    },
    {
      "inputs": [],
      "name": "InvalidDeckSize",
      "type": "error"
    },
    {
      "inputs": [],
      "name": "InvalidReveal",
      "type": "error"
    },
    {
      "inputs": [],
      "name": "InvalidSessionKey",
      "type": "error"
    },
    {
      "inputs": [],
      "name": "NoStalledPlayers",
      "type": "error"
    },
    {
      "inputs": [],
      "name": "NotParticipant",
      "type": "error"
    },
    {
      "inputs": [],
      "name": "NotYourTurn",
      "type": "error"
    },
    {
      "inputs": [],
      "name": "PhaseDeadlinePassed",
      "type": "error"
    },
    {
      "inputs": [],
      "name": "PlayerInactive",
      "type": "error"
    },
    {
      "inputs": [],
      "name": "RoomFull",
      "type": "error"
    },
    {
      "inputs": [],
      "name": "SessionExpired",
      "type": "error"
    },
    {
      "inputs": [],
      "name": "SessionNotForThisRoom",
      "type": "error"
    },
    {
      "inputs": [],
      "name": "TimeNotExpired",
      "type": "error"
    },
    {
      "inputs": [],
      "name": "Unauthorized",
      "type": "error"
    },
    {
      "inputs": [],
      "name": "WrongPhase",
      "type": "error"
    },
    {
      "anonymous": false,
      "inputs": [
        {
          "indexed": true,
          "internalType": "uint256",
          "name": "roomId",
          "type": "uint256"
        }
      ],
      "name": "AllKeysShared",
      "type": "event"
    },
    {
      "anonymous": false,
      "inputs": [
        {
          "indexed": true,
          "internalType": "uint256",
          "name": "roomId",
          "type": "uint256"
        }
      ],
      "name": "AllRolesConfirmed",
      "type": "event"
    },
    {
      "anonymous": false,
      "inputs": [
        {
          "indexed": true,
          "internalType": "uint256",
          "name": "roomId",
          "type": "uint256"
        },
        {
          "indexed": false,
          "internalType": "uint256",
          "name": "dayNumber",
          "type": "uint256"
        }
      ],
      "name": "DayStarted",
      "type": "event"
    },
    {
      "anonymous": false,
      "inputs": [
        {
          "indexed": true,
          "internalType": "uint256",
          "name": "roomId",
          "type": "uint256"
        },
        {
          "indexed": false,
          "internalType": "address",
          "name": "byPlayer",
          "type": "address"
        },
        {
          "indexed": false,
          "internalType": "uint256",
          "name": "nextIndex",
          "type": "uint256"
        }
      ],
      "name": "DeckSubmitted",
      "type": "event"
    },
    {
      "anonymous": false,
      "inputs": [
        {
          "indexed": true,
          "internalType": "uint256",
          "name": "roomId",
          "type": "uint256"
        },
        {
          "indexed": false,
          "internalType": "string",
          "name": "winCondition",
          "type": "string"
        }
      ],
      "name": "GameEnded",
      "type": "event"
    },
    {
      "anonymous": false,
      "inputs": [
        {
          "indexed": true,
          "internalType": "uint256",
          "name": "roomId",
          "type": "uint256"
        }
      ],
      "name": "GameStarted",
      "type": "event"
    },
    {
      "anonymous": false,
      "inputs": [
        {
          "indexed": true,
          "internalType": "uint256",
          "name": "roomId",
          "type": "uint256"
        },
        {
          "indexed": false,
          "internalType": "address",
          "name": "from",
          "type": "address"
        }
      ],
      "name": "KeysSharedToAll",
      "type": "event"
    },
    {
      "anonymous": false,
      "inputs": [
        {
          "indexed": true,
          "internalType": "uint256",
          "name": "roomId",
          "type": "uint256"
        },
        {
          "indexed": false,
          "internalType": "address",
          "name": "player",
          "type": "address"
        }
      ],
      "name": "NightActionCommitted",
      "type": "event"
    },
    {
      "anonymous": false,
      "inputs": [
        {
          "indexed": true,
          "internalType": "uint256",
          "name": "roomId",
          "type": "uint256"
        },
        {
          "indexed": false,
          "internalType": "address",
          "name": "player",
          "type": "address"
        },
        {
          "indexed": false,
          "internalType": "enum MafiaPortalV3.NightActionType",
          "name": "action",
          "type": "uint8"
        }
      ],
      "name": "NightActionRevealed",
      "type": "event"
    },
    {
      "anonymous": false,
      "inputs": [
        {
          "indexed": true,
          "internalType": "uint256",
          "name": "roomId",
          "type": "uint256"
        },
        {
          "indexed": false,
          "internalType": "address",
          "name": "killed",
          "type": "address"
        },
        {
          "indexed": false,
          "internalType": "address",
          "name": "healed",
          "type": "address"
        }
      ],
      "name": "NightFinalized",
      "type": "event"
    },
    {
      "anonymous": false,
      "inputs": [
        {
          "indexed": true,
          "internalType": "uint256",
          "name": "roomId",
          "type": "uint256"
        }
      ],
      "name": "NightStarted",
      "type": "event"
    },
    {
      "anonymous": false,
      "inputs": [
        {
          "indexed": true,
          "internalType": "uint256",
          "name": "roomId",
          "type": "uint256"
        },
        {
          "indexed": false,
          "internalType": "enum MafiaPortalV3.GamePhase",
          "name": "phase",
          "type": "uint8"
        }
      ],
      "name": "PhaseTimeout",
      "type": "event"
    },
    {
      "anonymous": false,
      "inputs": [
        {
          "indexed": true,
          "internalType": "uint256",
          "name": "roomId",
          "type": "uint256"
        },
        {
          "indexed": false,
          "internalType": "address",
          "name": "player",
          "type": "address"
        },
        {
          "indexed": false,
          "internalType": "string",
          "name": "reason",
          "type": "string"
        }
      ],
      "name": "PlayerEliminated",
      "type": "event"
    },
    {
      "anonymous": false,
      "inputs": [
        {
          "indexed": true,
          "internalType": "uint256",
          "name": "roomId",
          "type": "uint256"
        },
        {
          "indexed": false,
          "internalType": "address",
          "name": "player",
          "type": "address"
        },
        {
          "indexed": false,
          "internalType": "string",
          "name": "nickname",
          "type": "string"
        },
        {
          "indexed": false,
          "internalType": "address",
          "name": "sessionKey",
          "type": "address"
        }
      ],
      "name": "PlayerJoined",
      "type": "event"
    },
    {
      "anonymous": false,
      "inputs": [
        {
          "indexed": true,
          "internalType": "uint256",
          "name": "roomId",
          "type": "uint256"
        },
        {
          "indexed": false,
          "internalType": "address",
          "name": "player",
          "type": "address"
        },
        {
          "indexed": false,
          "internalType": "string",
          "name": "reason",
          "type": "string"
        }
      ],
      "name": "PlayerKicked",
      "type": "event"
    },
    {
      "anonymous": false,
      "inputs": [
        {
          "indexed": true,
          "internalType": "uint256",
          "name": "roomId",
          "type": "uint256"
        },
        {
          "indexed": false,
          "internalType": "address",
          "name": "player",
          "type": "address"
        }
      ],
      "name": "RoleConfirmed",
      "type": "event"
    },
    {
      "anonymous": false,
      "inputs": [
        {
          "indexed": true,
          "internalType": "uint256",
          "name": "roomId",
          "type": "uint256"
        },
        {
          "indexed": false,
          "internalType": "address",
          "name": "host",
          "type": "address"
        },
        {
          "indexed": false,
          "internalType": "uint256",
          "name": "maxPlayers",
          "type": "uint256"
        }
      ],
      "name": "RoomCreated",
      "type": "event"
    },
    {
      "anonymous": false,
      "inputs": [
        {
          "indexed": true,
          "internalType": "address",
          "name": "mainWallet",
          "type": "address"
        },
        {
          "indexed": true,
          "internalType": "address",
          "name": "sessionKey",
          "type": "address"
        },
        {
          "indexed": false,
          "internalType": "uint256",
          "name": "roomId",
          "type": "uint256"
        },
        {
          "indexed": false,
          "internalType": "uint256",
          "name": "expiresAt",
          "type": "uint256"
        }
      ],
      "name": "SessionKeyRegistered",
      "type": "event"
    },
    {
      "anonymous": false,
      "inputs": [
        {
          "indexed": true,
          "internalType": "address",
          "name": "mainWallet",
          "type": "address"
        },
        {
          "indexed": true,
          "internalType": "address",
          "name": "sessionKey",
          "type": "address"
        }
      ],
      "name": "SessionKeyRevoked",
      "type": "event"
    },
    {
      "anonymous": false,
      "inputs": [
        {
          "indexed": true,
          "internalType": "uint256",
          "name": "roomId",
          "type": "uint256"
        },
        {
          "indexed": false,
          "internalType": "address",
          "name": "voter",
          "type": "address"
        },
        {
          "indexed": false,
          "internalType": "address",
          "name": "target",
          "type": "address"
        }
      ],
      "name": "VoteCast",
      "type": "event"
    },
    {
      "anonymous": false,
      "inputs": [
        {
          "indexed": true,
          "internalType": "uint256",
          "name": "roomId",
          "type": "uint256"
        },
        {
          "indexed": false,
          "internalType": "address",
          "name": "eliminated",
          "type": "address"
        },
        {
          "indexed": false,
          "internalType": "uint256",
          "name": "voteCount",
          "type": "uint256"
        }
      ],
      "name": "VotingFinalized",
      "type": "event"
    },
    {
      "anonymous": false,
      "inputs": [
        {
          "indexed": true,
          "internalType": "uint256",
          "name": "roomId",
          "type": "uint256"
        }
      ],
      "name": "VotingStarted",
      "type": "event"
    },
    {
      "inputs": [],
      "name": "DEFAULT_SESSION_FUND",
      "outputs": [
        {
          "internalType": "uint256",
          "name": "",
          "type": "uint256"
        }
      ],
      "stateMutability": "view",
      "type": "function"
    },
    {
      "inputs": [],
      "name": "PHASE_TIMEOUT",
      "outputs": [
        {
          "internalType": "uint32",
          "name": "",
          "type": "uint32"
        }
      ],
      "stateMutability": "view",
      "type": "function"
    },
    {
      "inputs": [],
      "name": "SESSION_DURATION",
      "outputs": [
        {
          "internalType": "uint32",
          "name": "",
          "type": "uint32"
        }
      ],
      "stateMutability": "view",
      "type": "function"
    },
    {
      "inputs": [],
      "name": "TURN_TIMEOUT",
      "outputs": [
        {
          "internalType": "uint32",
          "name": "",
          "type": "uint32"
        }
      ],
      "stateMutability": "view",
      "type": "function"
    },
    {
      "inputs": [
        {
          "internalType": "uint256",
          "name": "roomId",
          "type": "uint256"
        },
        {
          "internalType": "bytes32",
          "name": "hash",
          "type": "bytes32"
        }
      ],
      "name": "commitNightAction",
      "outputs": [],
      "stateMutability": "nonpayable",
      "type": "function"
    },
    {
      "inputs": [
        {
          "internalType": "uint256",
          "name": "roomId",
          "type": "uint256"
        }
      ],
      "name": "confirmRole",
      "outputs": [],
      "stateMutability": "nonpayable",
      "type": "function"
    },
    {
      "inputs": [
        {
          "internalType": "uint8",
          "name": "maxPlayers",
          "type": "uint8"
        }
      ],
      "name": "createRoom",
      "outputs": [
        {
          "internalType": "uint256",
          "name": "",
          "type": "uint256"
        }
      ],
      "stateMutability": "nonpayable",
      "type": "function"
    },
    {
      "inputs": [
        {
          "internalType": "uint256",
          "name": "roomId",
          "type": "uint256"
        }
      ],
      "name": "forcePhaseTimeout",
      "outputs": [],
      "stateMutability": "nonpayable",
      "type": "function"
    },
    {
      "inputs": [
        {
          "internalType": "uint256",
          "name": "roomId",
          "type": "uint256"
        }
      ],
      "name": "getAllKeysForMe",
      "outputs": [
        {
          "internalType": "address[]",
          "name": "senders",
          "type": "address[]"
        },
        {
          "internalType": "bytes[]",
          "name": "keys",
          "type": "bytes[]"
        }
      ],
      "stateMutability": "view",
      "type": "function"
    },
    {
      "inputs": [
        {
          "internalType": "uint256",
          "name": "roomId",
          "type": "uint256"
        }
      ],
      "name": "getDeck",
      "outputs": [
        {
          "internalType": "string[]",
          "name": "",
          "type": "string[]"
        }
      ],
      "stateMutability": "view",
      "type": "function"
    },
    {
      "inputs": [
        {
          "internalType": "uint256",
          "name": "roomId",
          "type": "uint256"
        },
        {
          "internalType": "address",
          "name": "from",
          "type": "address"
        },
        {
          "internalType": "address",
          "name": "to",
          "type": "address"
        }
      ],
      "name": "getKeyFromTo",
      "outputs": [
        {
          "internalType": "bytes",
          "name": "",
          "type": "bytes"
        }
      ],
      "stateMutability": "view",
      "type": "function"
    },
    {
      "inputs": [
        {
          "internalType": "uint256",
          "name": "roomId",
          "type": "uint256"
        }
      ],
      "name": "getPhaseDeadline",
      "outputs": [
        {
          "internalType": "uint32",
          "name": "",
          "type": "uint32"
        }
      ],
      "stateMutability": "view",
      "type": "function"
    },
    {
      "inputs": [
        {
          "internalType": "uint256",
          "name": "roomId",
          "type": "uint256"
        },
        {
          "internalType": "address",
          "name": "player",
          "type": "address"
        }
      ],
      "name": "getPlayerFlags",
      "outputs": [
        {
          "internalType": "bool",
          "name": "isActive",
          "type": "bool"
        },
        {
          "internalType": "bool",
          "name": "hasConfirmedRole",
          "type": "bool"
        },
        {
          "internalType": "bool",
          "name": "hasVoted",
          "type": "bool"
        },
        {
          "internalType": "bool",
          "name": "hasCommitted",
          "type": "bool"
        },
        {
          "internalType": "bool",
          "name": "hasRevealed",
          "type": "bool"
        },
        {
          "internalType": "bool",
          "name": "hasSharedKeys",
          "type": "bool"
        }
      ],
      "stateMutability": "view",
      "type": "function"
    },
    {
      "inputs": [
        {
          "internalType": "uint256",
          "name": "roomId",
          "type": "uint256"
        }
      ],
      "name": "getPlayers",
      "outputs": [
        {
          "components": [
            {
              "internalType": "address",
              "name": "wallet",
              "type": "address"
            },
            {
              "internalType": "string",
              "name": "nickname",
              "type": "string"
            },
            {
              "internalType": "bytes",
              "name": "publicKey",
              "type": "bytes"
            },
            {
              "internalType": "uint32",
              "name": "flags",
              "type": "uint32"
            }
          ],
          "internalType": "struct MafiaPortalV3.Player[]",
          "name": "",
          "type": "tuple[]"
        }
      ],
      "stateMutability": "view",
      "type": "function"
    },
    {
      "inputs": [
        {
          "internalType": "uint256",
          "name": "roomId",
          "type": "uint256"
        }
      ],
      "name": "getRoom",
      "outputs": [
        {
          "components": [
            {
              "internalType": "uint64",
              "name": "id",
              "type": "uint64"
            },
            {
              "internalType": "address",
              "name": "host",
              "type": "address"
            },
            {
              "internalType": "enum MafiaPortalV3.GamePhase",
              "name": "phase",
              "type": "uint8"
            },
            {
              "internalType": "uint8",
              "name": "maxPlayers",
              "type": "uint8"
            },
            {
              "internalType": "uint8",
              "name": "playersCount",
              "type": "uint8"
            },
            {
              "internalType": "uint8",
              "name": "aliveCount",
              "type": "uint8"
            },
            {
              "internalType": "uint16",
              "name": "dayCount",
              "type": "uint16"
            },
            {
              "internalType": "uint8",
              "name": "currentShufflerIndex",
              "type": "uint8"
            },
            {
              "internalType": "uint32",
              "name": "lastActionTimestamp",
              "type": "uint32"
            },
            {
              "internalType": "uint32",
              "name": "phaseDeadline",
              "type": "uint32"
            },
            {
              "internalType": "uint8",
              "name": "confirmedCount",
              "type": "uint8"
            },
            {
              "internalType": "uint8",
              "name": "votedCount",
              "type": "uint8"
            },
            {
              "internalType": "uint8",
              "name": "committedCount",
              "type": "uint8"
            },
            {
              "internalType": "uint8",
              "name": "revealedCount",
              "type": "uint8"
            },
            {
              "internalType": "uint8",
              "name": "keysSharedCount",
              "type": "uint8"
            }
          ],
          "internalType": "struct MafiaPortalV3.GameRoom",
          "name": "",
          "type": "tuple"
        }
      ],
      "stateMutability": "view",
      "type": "function"
    },
    {
      "inputs": [
        {
          "internalType": "address",
          "name": "mainWallet",
          "type": "address"
        }
      ],
      "name": "getSessionKey",
      "outputs": [
        {
          "internalType": "address",
          "name": "sessionAddress",
          "type": "address"
        },
        {
          "internalType": "uint256",
          "name": "expiresAt",
          "type": "uint256"
        },
        {
          "internalType": "uint256",
          "name": "roomId",
          "type": "uint256"
        },
        {
          "internalType": "bool",
          "name": "isActive",
          "type": "bool"
        }
      ],
      "stateMutability": "view",
      "type": "function"
    },
    {
      "inputs": [
        {
          "internalType": "uint256",
          "name": "",
          "type": "uint256"
        },
        {
          "internalType": "address",
          "name": "",
          "type": "address"
        }
      ],
      "name": "isPlayerInRoom",
      "outputs": [
        {
          "internalType": "bool",
          "name": "",
          "type": "bool"
        }
      ],
      "stateMutability": "view",
      "type": "function"
    },
    {
      "inputs": [
        {
          "internalType": "address",
          "name": "mainWallet",
          "type": "address"
        },
        {
          "internalType": "uint256",
          "name": "roomId",
          "type": "uint256"
        }
      ],
      "name": "isSessionValid",
      "outputs": [
        {
          "internalType": "bool",
          "name": "",
          "type": "bool"
        }
      ],
      "stateMutability": "view",
      "type": "function"
    },
    {
      "inputs": [
        {
          "internalType": "uint256",
          "name": "roomId",
          "type": "uint256"
        },
        {
          "internalType": "string",
          "name": "nickname",
          "type": "string"
        },
        {
          "internalType": "bytes",
          "name": "publicKey",
          "type": "bytes"
        },
        {
          "internalType": "address",
          "name": "sessionAddress",
          "type": "address"
        }
      ],
      "name": "joinRoom",
      "outputs": [],
      "stateMutability": "payable",
      "type": "function"
    },
    {
      "inputs": [],
      "name": "nextRoomId",
      "outputs": [
        {
          "internalType": "uint256",
          "name": "",
          "type": "uint256"
        }
      ],
      "stateMutability": "view",
      "type": "function"
    },
    {
      "inputs": [
        {
          "internalType": "uint256",
          "name": "",
          "type": "uint256"
        },
        {
          "internalType": "address",
          "name": "",
          "type": "address"
        }
      ],
      "name": "nightCommits",
      "outputs": [
        {
          "internalType": "bytes32",
          "name": "commitHash",
          "type": "bytes32"
        },
        {
          "internalType": "bool",
          "name": "revealed",
          "type": "bool"
        }
      ],
      "stateMutability": "view",
      "type": "function"
    },
    {
      "inputs": [
        {
          "internalType": "uint256",
          "name": "",
          "type": "uint256"
        },
        {
          "internalType": "address",
          "name": "",
          "type": "address"
        },
        {
          "internalType": "address",
          "name": "",
          "type": "address"
        }
      ],
      "name": "playerDeckKeys",
      "outputs": [
        {
          "internalType": "bytes",
          "name": "",
          "type": "bytes"
        }
      ],
      "stateMutability": "view",
      "type": "function"
    },
    {
      "inputs": [
        {
          "internalType": "uint256",
          "name": "",
          "type": "uint256"
        },
        {
          "internalType": "address",
          "name": "",
          "type": "address"
        }
      ],
      "name": "playerIndex",
      "outputs": [
        {
          "internalType": "uint8",
          "name": "",
          "type": "uint8"
        }
      ],
      "stateMutability": "view",
      "type": "function"
    },
    {
      "inputs": [
        {
          "internalType": "address",
          "name": "sessionAddress",
          "type": "address"
        },
        {
          "internalType": "uint256",
          "name": "roomId",
          "type": "uint256"
        }
      ],
      "name": "registerSessionKey",
      "outputs": [],
      "stateMutability": "payable",
      "type": "function"
    },
    {
      "inputs": [
        {
          "internalType": "uint256",
          "name": "roomId",
          "type": "uint256"
        },
        {
          "internalType": "enum MafiaPortalV3.NightActionType",
          "name": "action",
          "type": "uint8"
        },
        {
          "internalType": "address",
          "name": "target",
          "type": "address"
        },
        {
          "internalType": "string",
          "name": "salt",
          "type": "string"
        }
      ],
      "name": "revealNightAction",
      "outputs": [],
      "stateMutability": "nonpayable",
      "type": "function"
    },
    {
      "inputs": [
        {
          "internalType": "uint256",
          "name": "",
          "type": "uint256"
        },
        {
          "internalType": "address",
          "name": "",
          "type": "address"
        }
      ],
      "name": "revealedActions",
      "outputs": [
        {
          "internalType": "enum MafiaPortalV3.NightActionType",
          "name": "",
          "type": "uint8"
        }
      ],
      "stateMutability": "view",
      "type": "function"
    },
    {
      "inputs": [
        {
          "internalType": "uint256",
          "name": "",
          "type": "uint256"
        },
        {
          "internalType": "address",
          "name": "",
          "type": "address"
        }
      ],
      "name": "revealedTargets",
      "outputs": [
        {
          "internalType": "address",
          "name": "",
          "type": "address"
        }
      ],
      "stateMutability": "view",
      "type": "function"
    },
    {
      "inputs": [],
      "name": "revokeSessionKey",
      "outputs": [],
      "stateMutability": "nonpayable",
      "type": "function"
    },
    {
      "inputs": [
        {
          "internalType": "uint256",
          "name": "",
          "type": "uint256"
        },
        {
          "internalType": "uint256",
          "name": "",
          "type": "uint256"
        }
      ],
      "name": "roomDeck",
      "outputs": [
        {
          "internalType": "string",
          "name": "",
          "type": "string"
        }
      ],
      "stateMutability": "view",
      "type": "function"
    },
    {
      "inputs": [
        {
          "internalType": "uint256",
          "name": "",
          "type": "uint256"
        },
        {
          "internalType": "uint256",
          "name": "",
          "type": "uint256"
        }
      ],
      "name": "roomPlayers",
      "outputs": [
        {
          "internalType": "address",
          "name": "wallet",
          "type": "address"
        },
        {
          "internalType": "string",
          "name": "nickname",
          "type": "string"
        },
        {
          "internalType": "bytes",
          "name": "publicKey",
          "type": "bytes"
        },
        {
          "internalType": "uint32",
          "name": "flags",
          "type": "uint32"
        }
      ],
      "stateMutability": "view",
      "type": "function"
    },
    {
      "inputs": [
        {
          "internalType": "uint256",
          "name": "",
          "type": "uint256"
        }
      ],
      "name": "rooms",
      "outputs": [
        {
          "internalType": "uint64",
          "name": "id",
          "type": "uint64"
        },
        {
          "internalType": "address",
          "name": "host",
          "type": "address"
        },
        {
          "internalType": "enum MafiaPortalV3.GamePhase",
          "name": "phase",
          "type": "uint8"
        },
        {
          "internalType": "uint8",
          "name": "maxPlayers",
          "type": "uint8"
        },
        {
          "internalType": "uint8",
          "name": "playersCount",
          "type": "uint8"
        },
        {
          "internalType": "uint8",
          "name": "aliveCount",
          "type": "uint8"
        },
        {
          "internalType": "uint16",
          "name": "dayCount",
          "type": "uint16"
        },
        {
          "internalType": "uint8",
          "name": "currentShufflerIndex",
          "type": "uint8"
        },
        {
          "internalType": "uint32",
          "name": "lastActionTimestamp",
          "type": "uint32"
        },
        {
          "internalType": "uint32",
          "name": "phaseDeadline",
          "type": "uint32"
        },
        {
          "internalType": "uint8",
          "name": "confirmedCount",
          "type": "uint8"
        },
        {
          "internalType": "uint8",
          "name": "votedCount",
          "type": "uint8"
        },
        {
          "internalType": "uint8",
          "name": "committedCount",
          "type": "uint8"
        },
        {
          "internalType": "uint8",
          "name": "revealedCount",
          "type": "uint8"
        },
        {
          "internalType": "uint8",
          "name": "keysSharedCount",
          "type": "uint8"
        }
      ],
      "stateMutability": "view",
      "type": "function"
    },
    {
      "inputs": [
        {
          "internalType": "address",
          "name": "",
          "type": "address"
        }
      ],
      "name": "sessionKeys",
      "outputs": [
        {
          "internalType": "address",
          "name": "sessionAddress",
          "type": "address"
        },
        {
          "internalType": "uint32",
          "name": "expiresAt",
          "type": "uint32"
        },
        {
          "internalType": "uint64",
          "name": "roomId",
          "type": "uint64"
        },
        {
          "internalType": "bool",
          "name": "isActive",
          "type": "bool"
        }
      ],
      "stateMutability": "view",
      "type": "function"
    },
    {
      "inputs": [
        {
          "internalType": "address",
          "name": "",
          "type": "address"
        }
      ],
      "name": "sessionToMain",
      "outputs": [
        {
          "internalType": "address",
          "name": "",
          "type": "address"
        }
      ],
      "stateMutability": "view",
      "type": "function"
    },
    {
      "inputs": [
        {
          "internalType": "uint256",
          "name": "roomId",
          "type": "uint256"
        },
        {
          "internalType": "address[]",
          "name": "recipients",
          "type": "address[]"
        },
        {
          "internalType": "bytes[]",
          "name": "encryptedKeys",
          "type": "bytes[]"
        }
      ],
      "name": "shareKeysToAll",
      "outputs": [],
      "stateMutability": "nonpayable",
      "type": "function"
    },
    {
      "inputs": [
        {
          "internalType": "uint256",
          "name": "roomId",
          "type": "uint256"
        }
      ],
      "name": "startGame",
      "outputs": [],
      "stateMutability": "nonpayable",
      "type": "function"
    },
    {
      "inputs": [
        {
          "internalType": "uint256",
          "name": "roomId",
          "type": "uint256"
        }
      ],
      "name": "startVoting",
      "outputs": [],
      "stateMutability": "nonpayable",
      "type": "function"
    },
    {
      "inputs": [
        {
          "internalType": "uint256",
          "name": "roomId",
          "type": "uint256"
        },
        {
          "internalType": "string[]",
          "name": "deck",
          "type": "string[]"
        }
      ],
      "name": "submitDeck",
      "outputs": [],
      "stateMutability": "nonpayable",
      "type": "function"
    },
    {
      "inputs": [
        {
          "internalType": "uint256",
          "name": "roomId",
          "type": "uint256"
        },
        {
          "internalType": "address",
          "name": "target",
          "type": "address"
        }
      ],
      "name": "vote",
      "outputs": [],
      "stateMutability": "nonpayable",
      "type": "function"
    },
    {
      "inputs": [
        {
          "internalType": "uint256",
          "name": "",
          "type": "uint256"
        },
        {
          "internalType": "address",
          "name": "",
          "type": "address"
        }
      ],
      "name": "voteCounts",
      "outputs": [
        {
          "internalType": "uint8",
          "name": "",
          "type": "uint8"
        }
      ],
      "stateMutability": "view",
      "type": "function"
    },
    {
      "inputs": [
        {
          "internalType": "uint256",
          "name": "",
          "type": "uint256"
        },
        {
          "internalType": "address",
          "name": "",
          "type": "address"
        }
      ],
      "name": "votes",
      "outputs": [
        {
          "internalType": "address",
          "name": "",
          "type": "address"
        }
      ],
      "stateMutability": "view",
      "type": "function"
    }
  ],
  "bytecode": "0x60808060405234601a576001600d556146d9908161001f8239f35b5f80fdfe60806040526004361015610011575f80fd5b5f3560e01c806302d947ef146130c557806307a52cab146130a857806309ed3e2214612ff65780630f36f3b514612d635780630f8d2b6814612d2157806312c57f55146108cf578063139db82d1461296357806314a09d601461292e5780631bae0ac8146128425780632a51fb3a146127655780633d2f5bda146125c25780633deaa341146125a6578063460e20491461244357806347a90d441461235d57806348e69d1f146122dc5780634f324d141461229c5780635099fae2146120635780635d99dc3e14611fc85780635e82ff6514611fad57806361ea202714611f665780636594bb0c14611b34578063660e907c14611aeb578063669ead1714611a9d5780636d8a74cb1461186c5780637120465b146113bb5780637a36446114610f8b5780637bd6d432146113475780637fa9c2891461132b57806384411c0a146112e457806394225e9d14610ff3578063b7b8d60414610f8b578063bb9ae87514610bc4578063c96f09791461098b578063d23254b414610941578063d94a51cb146108cf578063dae2928a1461040d578063e5ed1d5914610292578063e719ba7114610271578063eb0fa6f8146102275763f14caed7146101d1575f80fd5b34610223576040366003190112610223576101ea6133f5565b6004355f52600860205260405f209060018060a01b03165f526020526040805f2060ff6001825492015416825191825215156020820152f35b5f80fd5b34610223576040366003190112610223576102406133f5565b6004355f908152600a602090815260408083206001600160a01b039485168452825291829020549151919092168152f35b34610223575f36600319011261022357602060405166470de4df8200008152f35b3461022357602036600319011261022357600435805f525f60205260405f20805460ff8160e01c1660078110156103f9576103ea57604081901c6001600160a01b031633036103dc5760ff60029160f01c161061039757805460ff60e01b1916600160e01b17815561037190610328600161030c85613d18565b920191829062ff000082549160101b169062ff00001916179055565b805466ffffffff00000019164260181b66ffffffff0000001617815563ffffffff610352426136f5565b825463ffffffff60381b1916911660381b63ffffffff60381b16179055565b7f50ad08f58a27f2851d7e3a1b3a6a46b290f2ce677e99642d30ff639721e777905f80a2005b60405162461bcd60e51b815260206004820152601760248201527f4e656564206174206c65617374203220706c61796572730000000000000000006044820152606490fd5b6282b42960e81b5f5260045ffd5b6338961af360e21b5f5260045ffd5b634e487b7160e01b5f52602160045260245ffd5b3461022357602036600319011261022357600435805f525f60205260405f206001810163ffffffff815460381c1680156108985742111561085d5760ff825460e01c166007811015806103f95781151580610850575b1561080b57847f77ff69c1f99cadd93a6da75080e20a3fed43f1d42375051a5d162adcafc5fbb7602060405161049981876135ef565ba26103f957600181036105e857505050805f525f60205260405f20600181018260ff825460101c16815f52600160205260405f20548110610560575b505061050e6104f36104ed60ff845460101c166136e3565b85613d61565b825462ff00001916601082901b62ff00001617835591610328565b825f52600160205260ff60405f20549116101561052b575b50505b005b54600260f89190911c106105495761054290613da3565b8080610526565b61055b90610555613823565b906145b3565b610542565b60806105987f8ef7613b6eacaa71c74d950e2c093c23a0d3ecb066d1387d80e95159d07ed08b92845f52600160205260405f20613437565b50546001600160a01b03166105ad8185614621565b60405190815260406020820152601660408201527554696d656f757420647572696e672073687566666c6560501b6060820152a282846104d5565b6002810361072457505090805f52600160205260405f20905f5b825460ff821610156106fd57806002600361062061062d9487613437565b5001541661063257613645565b610602565b602060036106408387613437565b5001541615600160036106538488613437565b500154161581156106f5575b5015613645576106836106728286613437565b50546001600160a01b031684614621565b827f8ef7613b6eacaa71c74d950e2c093c23a0d3ecb066d1387d80e95159d07ed08b60806106b18488613437565b5054604080516001600160a01b0390921682526020820181905260159082015274151a5b595bdd5d08191d5c9a5b99c81c995d99585b605a1b6060820152a2613645565b90508661065f565b5091600291505460f81c10155f146107185761052990613fa2565b61052990610555613823565b600481036107385750505061052990613963565b600581036107ad57505460681c60ff16151590506107a457604080515f808252602082015282917fb874a4c95be602274c8e6944d4d375ca4189eda377b69ee751f3b92dd4dcf2d891a261078b81614451565b61079481614531565b1561079b57005b61052990613fa2565b6105299061405f565b6003146107b657005b815460ff60e01b1916600160e21b17909155805460ff60601b191681556107e59063ffffffff610352426136f5565b7fcf33babc496bb6dc2942b39cb7b75766bbbadf7da50d176ff8c513e9911402395f80a2005b60405162461bcd60e51b815260206004820152601960248201527f43616e6e6f742074696d656f75742074686973207068617365000000000000006044820152606490fd5b50505f6006821415610463565b60405162461bcd60e51b8152602060048201526013602482015272111958591b1a5b99481b9bdd081c185cdcd959606a1b6044820152606490fd5b60405162461bcd60e51b815260206004820152600f60248201526e139bc8191958591b1a5b99481cd95d608a1b6044820152606490fd5b34610223576108dd36613585565b915f52600560205260405f209060018060a01b03165f5260205260405f209060018060a01b03165f5260205261093d61092261092960405f2060405192838092613488565b0382613540565b604051918291602083526020830190613561565b0390f35b346102235760403660031901126102235761095a6133f5565b6004355f9081526006602090815260408083206001600160a01b039485168452825291829020549151919092168152f35b34610223576040366003190112610223576004356109a88161385e565b815f52600260205260405f2060018060a01b0382165f5260205260ff60405f20541615610bb5576109d990826138e4565b15610ba657805f525f60205263ffffffff600160405f20015460381c16151580610b86575b610b7757610a0b8161385e565b815f525f60205260405f2060ff815460e01c1660078110156103f9576005036103ea57610a388284613928565b610b685760405191604083018381106001600160401b03821117610b54576001602093610ac87f0eedfe83feef539cc0cbc56b8336ca3cc16ee922943b5d3b1046759ac50b0e6796610b41946040526024358152838782015f81528a5f526008895260405f20828060a01b0389165f52895260405f209251835551151591019060ff801983541691151516179055565b865f526003855260405f20828060a01b0385165f5285526003610afb60ff60405f205416895f5284885260405f20613437565b500163ffffffff600881835416171663ffffffff1982541617905501610b2760ff825460681c16613645565b815460ff60681b191660689190911b60ff60681b16179055565b6040516001600160a01b039091168152a2005b634e487b7160e01b5f52604160045260245ffd5b6317fd8aab60e31b5f5260045ffd5b6301a6f70d60e01b5f5260045ffd5b50805f525f60205263ffffffff600160405f20015460381c1642116109fe565b630575d90f60e11b5f5260045ffd5b63721c7c6760e11b5f5260045ffd5b34610223576060366003190112610223576004356024356001600160401b03811161022357610bf79036906004016135bf565b6044356001600160401b03811161022357610c169036906004016135bf565b9092610c218561385e565b855f52600260205260405f2060018060a01b0382165f5260205260ff60405f20541615610bb557610c5290866138e4565b15610ba657845f525f60205263ffffffff600160405f20015460381c16151580610f6b575b610b7757610c848561385e565b93855f525f60205260405f2060ff815460e01c1660078110156103f9576002036103ea57838503610f5c57865f52600360205260405f2060018060a01b0387165f5260205260206003610ce860ff60405f2054168a5f526001845260405f20613437565b50015416610f4d5793946001600160a01b0316935f5b86811015610e6b57600581901b84810135906001600160a01b038216820361022357895f52600260205260405f2060018060a01b0383165f5260205260ff60405f20541615610bb55786831015610e5757610d5b90850185613656565b90918a5f52600560205260405f20895f5260205260405f209060018060a01b03165f5260205260405f20916001600160401b038211610b5457610da882610da28554613450565b8561369e565b5f90601f8311600114610def579180610ddb9260019695945f92610de4575b50508160011b915f199060031b1c19161790565b90555b01610cfe565b013590508d80610dc7565b601f19831691845f5260205f20925f5b818110610e3f575091600196959492918388959310610e26575b505050811b019055610dde565b01355f19600384901b60f8161c191690558c8080610e19565b91936020600181928787013581550195019201610dff565b634e487b7160e01b5f52603260045260245ffd5b878260ff88835f52600360205260405f20815f526020526003610e9f8360405f205416865f52600160205260405f20613437565b500163ffffffff602081835416171663ffffffff19825416179055837f9204f1001d8059e799b3a233fa5114eab3b5d30762de3ff4e07fcd7e6266aad160206001860193610f0f610ef587875460781c16613645565b865460ff60781b191660789190911b60ff60781b16178655565b604051908152a25460781c16905460f81c14610f2757005b7ff6b9b3035e320bcce495d00c2d31a7bd341754f7b9919a4a736388e16ef674a55f80a2005b6387db46a560e01b5f5260045ffd5b634ec4810560e11b5f5260045ffd5b50845f525f60205263ffffffff600160405f20015460381c164211610c77565b34610223576020366003190112610223576001600160a01b03610fac61340b565b165f52600b602052608060405f2060ff60018254920154166040519160018060a01b038116835263ffffffff8160a01c16602084015260c01c604083015215156060820152f35b3461022357602036600319011261022357335f908152600c60205260409020546001600160a01b031660043581156112dc575b90815f52600160205260405f20905f905f918354925b8360ff82161061124c575060ff1692611054846137dd565b9461105e85613704565b9461106c6040519687613540565b80865261107b601f1991613704565b015f5b8181106112395750505f915f5b8560ff821610611141578688604051918291604083016040845281518091526020606085019201905f5b81811061111f575050508281036020840152815180825260208201916020808360051b8301019401925f915b8383106110ee5786860387f35b91939550919360208061110d600193601f198682030187528951613561565b970193019301909286959492936110e1565b82516001600160a01b03168452869550602093840193909201916001016110b5565b8761114c8284613437565b50546001600160a01b03908116908716811415806111fa575b61117a575b505061117590613645565b61108b565b946111ea6111f09287611175959861119660ff8616809461380f565b52875f52600560205260405f209060018060a01b03165f5260205260405f2060018060a01b038a165f526020526109226111d960405f2060405192838092613488565b6111e3828d61380f565b528a61380f565b50613645565b939050878961116a565b505f8581526005602090815260408083206001600160a01b038581168552908352818420908b16845290915290205461123290613450565b1515611165565b606060208289018101919091520161107e565b61125881869796613437565b50546001600160a01b03848116911690811415908161129e575b50611289575b61128190613645565b94939461103c565b9061129661128191613645565b919050611278565b5f8781526005602090815260408083206001600160a01b0394851684528252808320938816835292905220546112d49150613450565b151587611272565b339150611026565b34610223576040366003190112610223576112fd6133f5565b6004355f52600360205260405f209060018060a01b03165f52602052602060ff60405f205416604051908152f35b34610223575f36600319011261022357602060405161012c8152f35b34610223576040366003190112610223576001600160a01b0361136861340b565b165f52600b602052602060405f2060ff60018201541690816113a6575b81611396575b506040519015158152f35b5460c01c6024351490508261138b565b805460a01c63ffffffff164211159150611385565b6080366003190112610223576004356024356001600160401b038111610223576113e99036906004016135fc565b6044929192356001600160401b0381116102235761140b9036906004016135fc565b93906064356001600160a01b0381169182820361022357855f525f60205260405f2090815460ff8160e01c1660078110156103f9576103ea5760ff808260e81c169160f01c16101561185d575f87815260026020908152604080832033845290915290205460ff1661184f57865f52600160205260ff60405f20541690875f52600160205260405f20986114c2604051926114a584613525565b3384526114b3368b8b6137a7565b926020850193845236916137a7565b9060408301918252606083019a60028c528054600160401b811015610b54576114f091600182018155613437565b93909361183c575183546001600160a01b0319166001600160a01b039190911617835551805160018401916001600160401b038211610b545761153782610da28554613450565b602090601f83116001146117d95761156592915f91836117ce5750508160011b915f199060031b1c19161790565b90555b51805160028301916001600160401b038211610b545761158c82610da28554613450565b602090601f831160011461173457600363ffffffff7f3b7d84e02e9f6642b42e0ca3e77297f9c7c807832a60c0fc1926ade76abc7bad9d9e60809c9b99966115f38f9c9a97806116b69b9886985f926117295750508160011b915f199060031b1c19161790565b90555b51169201911663ffffffff198254161790558a5f52600260205260405f2060018060a01b0333165f5260205260405f20600160ff198254161790558a5f52600360205260405f2060018060a01b0333165f5260205260ff60405f20911660ff1982541617905561168961166f60ff835460f01c16613645565b825460ff60f01b191660f09190911b60ff60f01b16178255565b611696815460f81c613645565b81546001600160f81b031660f89190911b6001600160f81b031916179055565b87826116f4575b505060405194859333855260606020860152816060860152858501375f8383018501526040830152601f01601f19168101030190a2005b6116fe9133613e50565b3461170b575b87876116bd565b6117245f80808034865af161171e613736565b50613765565b611704565b015190505f80610dc7565b90601f19831691845f52815f20925f5b8181106117b657507f3b7d84e02e9f6642b42e0ca3e77297f9c7c807832a60c0fc1926ade76abc7bad9d9e60809c9b999660018f9c9a976116b69a9763ffffffff97600397838a981061179f575b505050811b0190556115f6565b01515f1983891b60f8161c191690555f8080611792565b92936020600181928786015181550195019301611744565b015190508e80610dc7565b90601f19831691845f52815f20925f5b818110611824575090846001959493921061180c575b505050811b019055611568565b01515f1960f88460031b161c191690558d80806117ff565b929360206001819287860151815501950193016117e9565b634e487b7160e01b5f525f60045260245ffd5b621d934160e11b5f5260045ffd5b63bc42480360e01b5f5260045ffd5b34610223576020366003190112610223575f6101c060405161188d81613509565b8281528260208201528260408201528260608201528260808201528260a08201528260c08201528260e08201528261010082015282610120820152826101408201528261016082015282610180820152826101a082015201526004355f525f60205260405f206040519061190082613509565b8054906001600160401b0382168352602083019260018060a01b038360401c16845260ff8360e01c1691604082019260078110156103f957835260608201908460e81c60ff16825260808301908560f01c60ff16825260a084019560f81c8652600101549460c0840161ffff8716815260e085018760101c60ff1681526101008601918860181c63ffffffff1683526101208701938960381c63ffffffff1685526101408801958a60581c60ff1687526101608901978b60601c60ff1689526101808a01998c60681c60ff168b526101a081019b8d60701c60ff168d526101c08201809e60781c60ff1690526040519e8f92516001600160401b03168352600160a01b6001900390511660208301525190604001611a1d916135ef565b5160ff1660608d01525160ff1660808c01525160ff1660a08b01525161ffff1660c08a01525160ff1660e08901525163ffffffff166101008801525163ffffffff166101208701525160ff166101408601525160ff166101608501525160ff166101808401525160ff166101a08301525160ff166101c08201526101e090f35b3461022357604036600319011261022357611ab66133f5565b6004355f52600960205260405f209060018060a01b03165f52602052602060ff60405f205416611ae96040518092613629565bf35b3461022357604036600319011261022357611b046133f5565b6004355f52600260205260405f209060018060a01b03165f52602052602060ff60405f2054166040519015158152f35b34610223576080366003190112610223576004356024356004811015610223576044356001600160a01b0381169190828103610223576064356001600160401b03811161022357611b899036906004016135fc565b91611b938661385e565b865f52600260205260405f2060018060a01b0382165f5260205260ff60405f20541615610bb557611bc490876138e4565b15610ba657855f525f60205263ffffffff600160405f20015460381c16151580611f46575b610b7757611bf68661385e565b92865f525f60205260405f209260ff845460e01c1660078110156103f9576005036103ea57875f52600360205260405f2060018060a01b0386165f5260205260106003611c5560ff60405f2054168b5f52600160205260405f20613437565b50015416611f3757611c678589613928565b15611efe5785151580611ef5575b611e58575b6035611cbf918360405194859260208401978b60f81b89526001600160601b03199060601b1660218501528484013781015f838201520301601f198101835282613540565b519020855f52600860205260405f2060018060a01b0384165f5260205260405f205403611e495760408592611e2160017ff06d68f16c49c42e886f88c2689940ad871a4f71654933d28b593912f169f9469460ff98875f526008602052855f20838060a01b0386165f5260205282865f2001838b19825416179055875f526009602052855f20838060a01b0386165f52602052855f208a198154168b8b16179055875f52600a602052855f20838060a01b0386165f52602052855f20906001600160601b0360a01b825416179055865f526003602052845f20828060a01b0385165f526020526003611dbf8a875f205416895f5284602052875f20613437565b500163ffffffff601081835416171663ffffffff198254161790550195611e08611dee89895460701c16613645565b885460ff60701b191660709190911b60ff60701b16178855565b83516001600160a01b0390931683526020830190613629565ba254818160681c1691829160701c16149081611e3f575b506107a457005b9050151582611e38565b639ea6d12760e01b5f5260045ffd5b875f52600260205260405f20875f5260205260ff60405f20541615611ebb57611e8183896138e4565b611c7a5760405162461bcd60e51b815260206004820152600e60248201526d15185c99d95d081a5cc81919585960921b6044820152606490fd5b60405162461bcd60e51b8152602060048201526012602482015271546172676574206e6f7420696e20726f6f6d60701b6044820152606490fd5b50861515611c75565b60405162461bcd60e51b8152602060048201526011602482015270135d5cdd0818dbdb5b5a5d08199a5c9cdd607a1b6044820152606490fd5b63a89ac15160e01b5f5260045ffd5b50855f525f60205263ffffffff600160405f20015460381c164211611be9565b3461022357604036600319011261022357611f7f6133f5565b6004355f52600760205260405f209060018060a01b03165f52602052602060ff60405f205416604051908152f35b34610223575f36600319011261022357602060405160788152f35b346102235760403660031901126102235760c0600361201d600435611feb6133f5565b815f528360205260405f209060018060a01b03165f5260205260ff60405f205416905f52600160205260405f20613437565b50015460206040519160028116151583526001811615158284015260048116151560408401526008811615156060840152601081161515608084015216151560a0820152f35b34610223576020366003190112610223576004356120808161385e565b815f52600260205260405f2060018060a01b0382165f5260205260ff60405f20541615610bb5576120b190826138e4565b15610ba657805f525f60205263ffffffff600160405f20015460381c1615158061227c575b610b77576120e38161385e565b815f525f60205260405f209060ff825460e01c1660078110156103f9576002036103ea57825f52600360205260405f2060018060a01b0382165f526020526001600361214060ff60405f205416865f528360205260405f20613437565b500154166122435760ff90835f52600360205260405f2060018060a01b0382165f5260205260036121828360405f205416865f52600160205260405f20613437565b500163ffffffff600181835416171663ffffffff19825416179055837f82b52ddf0195aa8ac16480985f5042052aa742563721520fa34764d253824d43602060018601936121f26121d887875460581c16613645565b865460ff60581b191660589190911b60ff60581b16178655565b6040516001600160a01b039091168152a25460581c16905460f81c1461221457005b61221d81613fa2565b7f54ccd98022ba3fd547cb241a4f3dfc13e7f9bb54550b7babf4080021c6c2f1265f80a2005b60405162461bcd60e51b8152602060048201526011602482015270105b1c9958591e4818dbdb999a5c9b5959607a1b6044820152606490fd5b50805f525f60205263ffffffff600160405f20015460381c1642116120d6565b34610223576020366003190112610223576001600160a01b036122bd61340b565b165f52600c602052602060018060a01b0360405f205416604051908152f35b34610223575f36600319011261022357335f52600b60205260405f20600181019060ff82541661230857005b546001600160a01b031680337f744157ccffbd293a2e8644928cd7d23d650f869b88f72d7bfea8041b76ca6bec5f80a35f908152600c6020526040902080546001600160a01b0319169055805460ff19169055005b60403660031901126102235761237161340b565b6001600160a01b0381169060243582156123fe575f81815260026020908152604080832033845290915290205460ff16156123cb576123b09133613e50565b346123b757005b5f8080806105299434905af161171e613736565b60405162461bcd60e51b815260206004820152600b60248201526a4e6f7420696e20726f6f6d60a81b6044820152606490fd5b60405162461bcd60e51b815260206004820152601760248201527f496e76616c69642073657373696f6e20616464726573730000000000000000006044820152606490fd5b34610223576020366003190112610223576004355f52600160205260405f2080549061246e82613704565b9161247c6040519384613540565b8083526020830180925f5260205f205f915b83831061253a57848660405191829160208301906020845251809152604083019060408160051b85010192915f905b8282106124cc57505050500390f35b919360019193955060208091603f19898203018552875190848060a01b038251168152606063ffffffff81612523612511878701516080898801526080870190613561565b60408701518682036040880152613561565b9401511691015296019201920185949391926124bd565b6004602060019260405161254d81613525565b848060a01b03865416815260405161256b8161092281898b01613488565b83820152604051612583816109228160028b01613488565b604082015263ffffffff600387015416606082015281520192019201919061248e565b34610223575f3660031901126102235760206040516138408152f35b34610223576020366003190112610223576004356125df8161385e565b815f52600260205260405f2060018060a01b0382165f5260205260ff60405f20541615610bb55761261090826138e4565b15610ba657805f525f60205260405f2060ff815460e01c1660078110156103f9576003036103ea57805460ff60e01b1916600160e21b178155600101805460ff60601b191681556126699063ffffffff610352426136f5565b805f52600160205260405f205f5b815460ff8216101561273e578061269161270a9284613437565b50546001600160a01b031660036126a88386613437565b5001805463fffffffb811663ffffffff199091161790555f8581526006602090815260408083206001600160a01b0385168452909152902080546001600160a01b0319169055600260036126fc8487613437565b5001541661270f5750613645565b612677565b5f8581526007602090815260408083206001600160a01b03909416835292905220805460ff19169055846111ea565b827fcf33babc496bb6dc2942b39cb7b75766bbbadf7da50d176ff8c513e9911402395f80a2005b34610223576020366003190112610223576004355f52600460205260405f2080549061279082613704565b9161279e6040519384613540565b8083526020830180925f5260205f205f915b83831061281d57848660405191829160208301906020845251809152604083019060408160051b85010192915f905b8282106127ee57505050500390f35b9193600191939550602061280d8192603f198a82030186528851613561565b96019201920185949391926127df565b600160208192604051612834816109228189613488565b8152019201920191906127b0565b34610223576020366003190112610223576004355f525f6020526101e060405f2060ff60018254920154604051926001600160401b038116845260018060a01b038160401c16602085015261289f60408501848360e01c166135ef565b828160e81c166060850152828160f01c16608085015260f81c60a084015261ffff811660c0840152818160101c1660e084015263ffffffff8160181c1661010084015263ffffffff8160381c16610120840152818160581c16610140840152818160601c16610160840152818160681c16610180840152818160701c166101a084015260781c166101c0820152f35b34610223576020366003190112610223576004355f525f602052602063ffffffff600160405f20015460381c16604051908152f35b34610223576040366003190112610223576004356024356001600160401b038111610223576129969036906004016135bf565b906129a08361385e565b835f52600260205260405f2060018060a01b0382165f5260205260ff60405f20541615610bb5576129d190846138e4565b15610ba657825f525f60205263ffffffff600160405f20015460381c16151580612d01575b610b7757612a038361385e565b90835f525f60205260405f2092835460ff8160e01c1660078110156103f9576001036103ea57855f526001602052612a4b600160405f2096019560ff875460101c1690613437565b50546001600160a01b0390811690851603612cf257855f52600460205260405f2054155f14612cce5760f01c60ff168110612cbf575b845f52600460205260405f2091600160401b8211610b54578254828455808310612c48575b509085939282905f5260205f20925f915b838310612b565786612b16817f4ddfdf4c78d4cc7a24e7c9cab7b0a647688b6cf6ce58cededceb204846622d768b8a612af96104ed60ff845460101c166136e3565b825462ff00001916601082901b62ff000016178355948592610328565b604080516001600160a01b0392909216825260ff929092166020820152a2815f52600160205260ff60405f205491161015612b4d57005b61052990613da3565b90919293949550612b678183613656565b906001600160401b038211610b5457612b8a82612b848954613450565b8961369e565b5f90601f8311600114612bde5792612bbf836001959460209487965f92612bd35750508160011b915f199060031b1c19161790565b88555b019501920190879594939293612ab7565b013590508e80610dc7565b601f19831691885f5260205f20925f5b818110612c305750936020936001969387969383889510612c17575b505050811b018855612bc2565b01355f19600384901b60f8161c191690558d8080612c0a565b91936020600181928787013581550195019201612bee565b835f528260205f2091820191015b818110612c635750612aa6565b80612c7060019254613450565b80612c7d575b5001612c56565b601f81118314612c9257505f81555b89612c76565b612cae90825f5283601f60205f20920160051c82019101613688565b805f525f6020812081835555612c8c565b63d1d2a30960e01b5f5260045ffd5b50845f52600460205260405f2054810315612a815763d1d2a30960e01b5f5260045ffd5b631cc191eb60e31b5f5260045ffd5b50825f525f60205263ffffffff600160405f20015460381c1642116129f6565b3461022357612d2f36613421565b905f52600460205260405f20908154811015610223576109296109229161093d935f5260205f200160405192838092613488565b346102235760203660031901126102235760043560ff811680820361022357600d54915f198314612fe25760079160018401600d555f808560405193612da885613509565b6001600160401b038216855260208501903382526040860190848252606087019081526080870185815260a0880186815260c0890198878a5260e081019188835261010082019363ffffffff421685526101208301958a87526101408401978b89526101608501998c8b5261018086019b8d8d526101a087019d8e526101c087019e8f525f525f6020526001600160401b0360405f20965116865491600160401b600160e01b03905160401b169163ffffffff60e01b1617178555519e8f10156103f95783549051915162ffffff60e01b1990911660e09f909f1b60ff60e01b169e909e1760e89190911b60ff60e81b161760f09d909d1b60ff60f01b169c909c1781558c9b5181546001600160f81b031660f89190911b6001600160f81b03191617815598516001999099018054915162ffffff1990921661ffff909a169990991760109190911b62ff00001617885551875466ffffffff000000191660189190911b66ffffffff000000161787555163ffffffff16612f4490879063ffffffff60381b82549160381b169063ffffffff60381b1916179055565b518554915192519351945160709590951b60ff60701b1660689490941b60ff60681b1660609390931b60ff60601b1660589190911b60ff60581b1664ffffffffff60581b199092169190911717171760789190911b60ff60781b161790556040805133815260ff9290921660208301527fac131287fe8417903d89f4eb472bc1d0da81641ef725569346dab6c2879a671791a2604051908152602090f35b634e487b7160e01b5f52601160045260245ffd5b346102235761300436613421565b905f52600160205260405f209081548110156102235761302391613437565b5060018060a01b038154166040519161304a836130438160018501613488565b0384613540565b61309e63ffffffff600360405193613070856130698160028501613488565b0386613540565b015416916130906040519586958652608060208701526080860190613561565b908482036040860152613561565b9060608301520390f35b34610223575f366003190112610223576020600d54604051908152f35b34610223576040366003190112610223576004356130e16133f5565b6130ea8261385e565b825f52600260205260405f2060018060a01b0382165f5260205260ff60405f20541615610bb55761311b90836138e4565b15610ba657815f525f60205263ffffffff600160405f20015460381c161515806133d5575b610b775761314d8261385e565b90825f525f60205260405f209160ff835460e01c1660078110156103f9576004036103ea57835f52600260205260405f2060018060a01b0383165f5260205260ff60405f20541615610bb5576131a382856138e4565b15610ba65783917fcfff1651bcea794952a516ce970ab17518a85210bd939aaeaac670a8d3e65ec791835f52600360205260405f2060018060a01b0382165f526020526004600361320660ff60405f205416875f52600160205260405f20613437565b5001545f8681526006602090815260408083206001600160a01b03878116855292529091205492909116159116801515806133ab575b61336f575b505f8581526006602090815260408083206001600160a01b03868116855290835281842080546001600160a01b0319169188169182179055888452600783528184209084529091529020805460ff9061329b908216613645565b1660ff198254161790556132e6575b604080516001600160a01b03928316815292909116602083015290a260ff600182015460601c16905460f81c146132dd57005b61052990613963565b835f52600360205260405f2060018060a01b0382165f52602052600361331e60ff60405f205416865f52600160205260405f20613437565b500163ffffffff600481835416171663ffffffff1982541617905561336a6001860161335060ff825460601c16613645565b815460ff60601b191660609190911b60ff60601b16179055565b6132aa565b855f52600760205260405f209060018060a01b03165f5260205260405f2060ff61339b81835416613636565b1660ff1982541617905587613241565b50855f52600760205260405f2060018060a01b0382165f5260205260ff60405f205416151561323c565b50815f525f60205263ffffffff600160405f20015460381c164211613140565b602435906001600160a01b038216820361022357565b600435906001600160a01b038216820361022357565b6040906003190112610223576004359060243590565b8054821015610e57575f5260205f209060021b01905f90565b90600182811c9216801561347e575b602083101461346a57565b634e487b7160e01b5f52602260045260245ffd5b91607f169161345f565b5f929181549161349783613450565b80835292600181169081156134ec57506001146134b357505050565b5f9081526020812093945091925b8383106134d2575060209250010190565b6001816020929493945483858701015201910191906134c1565b915050602093945060ff929192191683830152151560051b010190565b6101e081019081106001600160401b03821117610b5457604052565b608081019081106001600160401b03821117610b5457604052565b90601f801991011681019081106001600160401b03821117610b5457604052565b805180835260209291819084018484015e5f828201840152601f01601f1916010190565b606090600319011261022357600435906024356001600160a01b038116810361022357906044356001600160a01b03811681036102235790565b9181601f84011215610223578235916001600160401b038311610223576020808501948460051b01011161022357565b9060078210156103f95752565b9181601f84011215610223578235916001600160401b038311610223576020838186019501011161022357565b9060048210156103f95752565b60ff168015612fe2575f190190565b60ff1660ff8114612fe25760010190565b903590601e198136030182121561022357018035906001600160401b0382116102235760200191813603831361022357565b818110613693575050565b5f8155600101613688565b9190601f81116136ad57505050565b6136d7925f5260205f20906020601f840160051c830193106136d9575b601f0160051c0190613688565b565b90915081906136ca565b60ff60019116019060ff8211612fe257565b9061012c8201809211612fe257565b6001600160401b038111610b545760051b60200190565b6001600160401b038111610b5457601f01601f191660200190565b3d15613760573d906137478261371b565b916137556040519384613540565b82523d5f602084013e565b606090565b1561376c57565b60405162461bcd60e51b8152602060048201526013602482015272115512081d1c985b9cd9995c8819985a5b1959606a1b6044820152606490fd5b9291926137b38261371b565b916137c16040519384613540565b829481845281830111610223578281602093845f960137010152565b906137e782613704565b6137f46040519182613540565b8281528092613805601f1991613704565b0190602036910137565b8051821015610e575760209160051b010190565b60405190613832604083613540565b601982527f546f6f2066657720706c61796572732072656d61696e696e67000000000000006020830152565b335f908152600c60205260409020546001600160a01b031690816138825750503390565b815f52600b60205260405f2060ff600182015416156138d5575463ffffffff8160a01c1642116138c65760c01c036138b75790565b637ce3c8fd60e11b5f5260045ffd5b630fe82d2560e11b5f5260045ffd5b635f8874dd60e11b5f5260045ffd5b61391f600391600293815f528360205260405f209060018060a01b03165f5260205260ff60405f205416905f52600160205260405f20613437565b50015416151590565b61391f600391600893815f528360205260405f209060018060a01b03165f5260205260ff60405f205416905f52600160205260405f20613437565b90815f525f6020528160405f205f905f90835f52600160205260405f205f908054915b8260ff821610613c90575050905460f91c60ff831611905080613c7e575b15613c4857816139d57f6b571d1c11516ea63adff1048766bdfa510e9c5bf4e32ca29d4ba11e16edf2f19385614621565b837fb1ed64d561b0179e61c72bf46d0809a99dac99baeb98fc9f5d13be1f6c2e3f82608060405160018060a01b0385168152604060208201526009604082015268159bdd1959081bdd5d60ba1b6060820152a2604080516001600160a01b0392909216825260ff929092166020820152a25b815f52600160205260405f20915f5b835460ff82161015613aea5780613a70613ae59286613437565b50545f8481526006602090815260408083206001600160a01b0390941680845293825280832080546001600160a01b03191690558683526007825280832093835292905220805460ff191690556003613ac98287613437565b5001805463fffffffb811663ffffffff19909116179055613645565b613a56565b505f818152602081905260409020600101805460ff60601b19169055909150613b1281614531565b15613b1a5750565b5f818152602081905260409020805460ff60e01b1916600560e01b178155600101805461ffff60681b19168155613b599063ffffffff610352426136f5565b805f52600160205260405f205f5b815460ff82161015613c205780613b81613c1b9284613437565b50546001600160a01b03166003613b988386613437565b5001805463ffffffe7811663ffffffff199091161790555f8581526008602090815260408083206001600160a01b0394909416808452938252808320838155600101839055878352600982528083208484528252808320805460ff19169055878352600a82528083209383529290522080546001600160a01b0319169055613645565b613b67565b50507f34b0c4c95aa7776d35dbd8b24afd53388828c61c26fd5a6b11a21809662440875f80a2565b50507f6b571d1c11516ea63adff1048766bdfa510e9c5bf4e32ca29d4ba11e16edf2f1604080515f81525f6020820152a2613a47565b506001600160a01b03821615156139a4565b9091929394955060026003613ca58385613437565b50015416613cc3575b613cb790613645565b90879594939291613986565b613ccd8183613437565b50545f8981526007602090815260408083206001600160a01b039094168084529390915290205460ff9081169087168111613d0a575b5050613cae565b9096509450613cb75f613d03565b5f52600160205260405f2060ff815416905f5b8260ff821610613d3a57505090565b60026003613d488385613437565b50015416613d5b5760010160ff16613d2b565b91505090565b5f52600160205260405f2060ff815416915b8260ff821610613d8257505090565b60026003613d908385613437565b50015416613d5b5760010160ff16613d73565b5f818152602081905260409020805460ff60e01b1916600160e11b178155600101805464ff000000ff60581b19168155613de59063ffffffff610352426136f5565b5f52600160205260405f20905f5b825460ff82161015613e4b578060026003613e11613e1e9487613437565b50015416613e2357613645565b613df3565b6003613e2f8286613437565b5001805463ffffffde811663ffffffff19909116179055613645565b509050565b6001600160a01b03165f818152600b60205260409020600101549192909160ff16613f6c575b6138404201804211612fe2577f290e52799b1ac63207e28c21f7f1f387cf8ea9257dde8e363a02e157d8e4c6589163ffffffff60409216613f42835196613ebc88613525565b6001600160a01b039081168089526020808a018581526001600160401b038716888c01908152600160608d018181525f8d8152600b909552938a90209c51925191516001600160c01b031960c09190911b169290951663ffffffff60a01b60a09290921b9190911617178a555198909101805460ff191698151560ff1698909817909755565b855f52600c602052825f20856001600160601b0360a01b82541617905582519182526020820152a3565b5f828152600b60209081526040808320546001600160a01b03168352600c909152902080546001600160a01b0319169055613e76565b5f818152602081905260409020805460ff60e01b1916600360e01b178155600101805461ffff90811691908214612fe257805466ffffffff00ffff191660019290920161ffff908116929092174260181b66ffffffff000000161781557fa9b4e96158ed085745975f198fa026959997245ae7e7aed9cd0252ce02b210719160209161405463ffffffff614035426136f5565b835463ffffffff60381b1916911660381b63ffffffff60381b16178255565b5416604051908152a2565b90815f525f60205260405f2060ff600182015460681c1615614416575460f81c91614089836137dd565b9261409381613704565b906140a16040519283613540565b8082526140b0601f1991613704565b013660208301375f935f945f925f855f52600160205260405f20905f918054925b8360ff82161061424457505050506140ef607f5f9860011c166136e3565b60ff16905f5b60ff811660ff8516811015614236578360ff614111838661380f565b51161015614125575060010160ff166140f5565b925050508495965061413f915060018060a01b039261380f565b51165b604080516001600160a01b0383811682528416602082015284917fb874a4c95be602274c8e6944d4d375ca4189eda377b69ee751f3b92dd4dcf2d891a26001600160a01b038116918215159081614222575b506141bf575b50506141a590614451565b6141ae81614531565b156141b65750565b6136d790613fa2565b7fb1ed64d561b0179e61c72bf46d0809a99dac99baeb98fc9f5d13be1f6c2e3f82916141ed60809285614621565b60405190815260406020820152600f60408201526e12da5b1b195908185d081b9a59da1d608a1b6060820152a2805f8061419a565b6001600160a01b031683141590505f614194565b505050505050819293614142565b61425181839c969c613437565b50545f8a81526009602090815260408083206001600160a01b039094168084529390915290205460ff1660048110156103f957600181146142e7575b600214806142df575b6142ad575b506142a590613645565b9993996140d1565b5f8a8152600a602090815260408083206001600160a01b039485168452909152902054169750600192506142a561429b565b508315614296565b96949b93979592919a909998895f52600a60205260405f2060018060a01b038c165f5260205260405f2060018060a01b039054169384156144005761432b90613645565b5f9d5f5b60ff891660ff821610156143e857866001600160a01b0361435360ff84168d61380f565b5116146143655760010160ff1661432f565b879f5095868a9c9892999b949d9e959f969761439f60ff61439781979e97614390818096168961380f565b5116613645565b93168561380f565b9116905260015b156143b4575b50505061428d565b6143d76143dd938c936001936143d16002989f60ff16809461380f565b5261380f565b52613645565b979050888d5f6143ac565b509698919a9b929c939495889a96819f9992996143a6565b9698949c959750989950996142a5919250613645565b50604080515f808252602082015291929182917fb874a4c95be602274c8e6944d4d375ca4189eda377b69ee751f3b92dd4dcf2d891a26141a5815b90815f52600160205260405f20915f5b835460ff82161015614510578061447b61450b9286613437565b50545f8481526008602090815260408083206001600160a01b03909416808452938252808320838155600101839055868352600982528083208484528252808320805460ff19169055868352600a82528083209383529290522080546001600160a01b031916905560036144ef8287613437565b5001805463ffffffe7811663ffffffff19909116179055613645565b614461565b505f908152602081905260409020600101805461ffff60681b191690559050565b805f525f60205260405f205460f81c9060018211156145505750505f90565b61457d9161458257604051614566604082613540565b60048152634472617760e01b6020820152906145b3565b600190565b604051614590604082613540565b60148152734c61737420706c61796572207374616e64696e6760601b6020820152905b5f8181526020818152604091829020805460ff60e01b1916600360e11b178155600101805463ffffffff60381b19169055905181815291927fd778487128ba4386ebcfb2703af01f8a2a2b8663f880622d26a77a29397e68f39291829161461c91830190613561565b0390a2565b9061462c81836138e4565b1561469f57815f52600360205260405f209060018060a01b03165f52602052600361466960ff60405f205416835f52600160205260405f20613437565b500163ffffffff63fffffffd8254161663ffffffff198254161790555f525f6020526136d760405f20611696815460f81c613636565b505056fea2646970667358221220ce80fabce81078f358bc4e2df74f60bba35d750c2cb8d0ee30814733b9db1fe164736f6c634300081c0033",
  "linkReferences": {},
  "deployedLinkReferences": {},
  "immutableReferences": {},
  "inputSourceName": "project/contracts/MafiaPortalV3.sol",
  "buildInfoId": "solc-0_8_28-f876f715b277e75d95dd09c537b94a04bfaa51c1"
}