{
  "_format": "hh3-artifact-1",
  "contractName": "MafiaPortalV4",
  "sourceName": "contracts/MafiaPortalV4.sol",
  "abi": [
    {
      "inputs": [],
      "stateMutability": "nonpayable",
      "type": "constructor"
    },
    {
      "inputs": [],
      "name": "AccessControlBadConfirmation",
      "type": "error"
    },
    {
      "inputs": [
        {
          "internalType": "address",
          "name": "account",
          "type": "address"
        },
        {
          "internalType": "bytes32",
          "name": "neededRole",
          "type": "bytes32"
        }
      ],
      "name": "AccessControlUnauthorizedAccount",
      "type": "error"
    },
    {
      "inputs": [],
      "name": "AlreadyCommitted",
      "type": "error"
    },
    {
      "inputs": [],
      "name": "AlreadyJoined",
      "type": "error"
    },
    {
      "inputs": [],
      "name": "AlreadyRevealed",
      "type": "error"
    },
    {
      "inputs": [],
      "name": "AlreadySharedKeys",
      "type": "error"
    },
    {
      "inputs": [],
      "name": "AlreadyVoted",
      "type": "error"
    },
    {
      "inputs": [],
      "name": "ArrayTooLarge",
      "type": "error"
    },
    {
      "inputs": [],
      "name": "CommitDeadlinePassed",
      "type": "error"
    },
    {
      "inputs": [],
      "name": "EnforcedPause",
      "type": "error"
    },
    {
      "inputs": [],
      "name": "ExpectedPause",
      "type": "error"
    },
    {
      "inputs": [],
      "name": "InvalidArrayLength",
      "type": "error"
    },
    {
      "inputs": [],
      "name": "InvalidDeckSize",
      "type": "error"
    },
    {
      "inputs": [],
      "name": "InvalidMafiaTargetReveal",
      "type": "error"
    },
    {
      "inputs": [],
      "name": "InvalidReveal",
      "type": "error"
    },
    {
      "inputs": [],
      "name": "InvalidRoleReveal",
      "type": "error"
    },
    {
      "inputs": [],
      "name": "InvalidSessionAddress",
      "type": "error"
    },
    {
      "inputs": [],
      "name": "InvalidSessionKey",
      "type": "error"
    },
    {
      "inputs": [],
      "name": "MafiaNotReady",
      "type": "error"
    },
    {
      "inputs": [],
      "name": "MafiaTargetAlreadyCommitted",
      "type": "error"
    },
    {
      "inputs": [],
      "name": "MafiaTargetAlreadyRevealed",
      "type": "error"
    },
    {
      "inputs": [],
      "name": "NicknameTooLong",
      "type": "error"
    },
    {
      "inputs": [],
      "name": "NoStalledPlayers",
      "type": "error"
    },
    {
      "inputs": [],
      "name": "NotEnoughPlayers",
      "type": "error"
    },
    {
      "inputs": [],
      "name": "NotMafiaMember",
      "type": "error"
    },
    {
      "inputs": [],
      "name": "NotParticipant",
      "type": "error"
    },
    {
      "inputs": [],
      "name": "NotYourTurn",
      "type": "error"
    },
    {
      "inputs": [],
      "name": "PhaseDeadlinePassed",
      "type": "error"
    },
    {
      "inputs": [],
      "name": "PlayerInactive",
      "type": "error"
    },
    {
      "inputs": [],
      "name": "PublicKeyTooLong",
      "type": "error"
    },
    {
      "inputs": [],
      "name": "ReentrancyGuardReentrantCall",
      "type": "error"
    },
    {
      "inputs": [],
      "name": "RoleAlreadyCommitted",
      "type": "error"
    },
    {
      "inputs": [],
      "name": "RoleAlreadyRevealed",
      "type": "error"
    },
    {
      "inputs": [],
      "name": "RoomFull",
      "type": "error"
    },
    {
      "inputs": [],
      "name": "SessionAlreadyRegistered",
      "type": "error"
    },
    {
      "inputs": [],
      "name": "SessionExpired",
      "type": "error"
    },
    {
      "inputs": [],
      "name": "SessionNotForThisRoom",
      "type": "error"
    },
    {
      "inputs": [],
      "name": "TimeNotExpired",
      "type": "error"
    },
    {
      "inputs": [],
      "name": "Unauthorized",
      "type": "error"
    },
    {
      "inputs": [],
      "name": "WrongPhase",
      "type": "error"
    },
    {
      "anonymous": false,
      "inputs": [
        {
          "indexed": true,
          "internalType": "uint256",
          "name": "roomId",
          "type": "uint256"
        }
      ],
      "name": "AllKeysShared",
      "type": "event"
    },
    {
      "anonymous": false,
      "inputs": [
        {
          "indexed": true,
          "internalType": "uint256",
          "name": "roomId",
          "type": "uint256"
        }
      ],
      "name": "AllMafiaCommitted",
      "type": "event"
    },
    {
      "anonymous": false,
      "inputs": [
        {
          "indexed": true,
          "internalType": "uint256",
          "name": "roomId",
          "type": "uint256"
        }
      ],
      "name": "AllRolesConfirmed",
      "type": "event"
    },
    {
      "anonymous": false,
      "inputs": [
        {
          "indexed": true,
          "internalType": "uint256",
          "name": "roomId",
          "type": "uint256"
        },
        {
          "indexed": false,
          "internalType": "uint256",
          "name": "dayNumber",
          "type": "uint256"
        }
      ],
      "name": "DayStarted",
      "type": "event"
    },
    {
      "anonymous": false,
      "inputs": [
        {
          "indexed": true,
          "internalType": "uint256",
          "name": "roomId",
          "type": "uint256"
        },
        {
          "indexed": false,
          "internalType": "address",
          "name": "player",
          "type": "address"
        },
        {
          "indexed": false,
          "internalType": "bytes32",
          "name": "commitHash",
          "type": "bytes32"
        }
      ],
      "name": "DeckCommitted",
      "type": "event"
    },
    {
      "anonymous": false,
      "inputs": [
        {
          "indexed": true,
          "internalType": "uint256",
          "name": "roomId",
          "type": "uint256"
        },
        {
          "indexed": false,
          "internalType": "address",
          "name": "player",
          "type": "address"
        },
        {
          "indexed": false,
          "internalType": "string[]",
          "name": "deck",
          "type": "string[]"
        }
      ],
      "name": "DeckRevealed",
      "type": "event"
    },
    {
      "anonymous": false,
      "inputs": [
        {
          "indexed": true,
          "internalType": "address",
          "name": "admin",
          "type": "address"
        }
      ],
      "name": "EmergencyPause",
      "type": "event"
    },
    {
      "anonymous": false,
      "inputs": [
        {
          "indexed": true,
          "internalType": "address",
          "name": "admin",
          "type": "address"
        }
      ],
      "name": "EmergencyUnpause",
      "type": "event"
    },
    {
      "anonymous": false,
      "inputs": [
        {
          "indexed": true,
          "internalType": "uint256",
          "name": "roomId",
          "type": "uint256"
        },
        {
          "indexed": false,
          "internalType": "string",
          "name": "winCondition",
          "type": "string"
        }
      ],
      "name": "GameEnded",
      "type": "event"
    },
    {
      "anonymous": false,
      "inputs": [
        {
          "indexed": true,
          "internalType": "uint256",
          "name": "roomId",
          "type": "uint256"
        }
      ],
      "name": "GameStarted",
      "type": "event"
    },
    {
      "anonymous": false,
      "inputs": [
        {
          "indexed": true,
          "internalType": "uint256",
          "name": "roomId",
          "type": "uint256"
        },
        {
          "indexed": false,
          "internalType": "address",
          "name": "from",
          "type": "address"
        }
      ],
      "name": "KeysSharedToAll",
      "type": "event"
    },
    {
      "anonymous": false,
      "inputs": [
        {
          "indexed": true,
          "internalType": "uint256",
          "name": "roomId",
          "type": "uint256"
        },
        {
          "indexed": false,
          "internalType": "address",
          "name": "target",
          "type": "address"
        },
        {
          "indexed": false,
          "internalType": "bool",
          "name": "success",
          "type": "bool"
        }
      ],
      "name": "MafiaConsensusReached",
      "type": "event"
    },
    {
      "anonymous": false,
      "inputs": [
        {
          "indexed": true,
          "internalType": "uint256",
          "name": "roomId",
          "type": "uint256"
        },
        {
          "indexed": false,
          "internalType": "address",
          "name": "sender",
          "type": "address"
        },
        {
          "indexed": false,
          "internalType": "bytes",
          "name": "encryptedMessage",
          "type": "bytes"
        }
      ],
      "name": "MafiaMessageSent",
      "type": "event"
    },
    {
      "anonymous": false,
      "inputs": [
        {
          "indexed": true,
          "internalType": "uint256",
          "name": "roomId",
          "type": "uint256"
        },
        {
          "indexed": false,
          "internalType": "address",
          "name": "player",
          "type": "address"
        },
        {
          "indexed": false,
          "internalType": "bytes32",
          "name": "commitHash",
          "type": "bytes32"
        }
      ],
      "name": "MafiaTargetCommitted",
      "type": "event"
    },
    {
      "anonymous": false,
      "inputs": [
        {
          "indexed": true,
          "internalType": "uint256",
          "name": "roomId",
          "type": "uint256"
        },
        {
          "indexed": false,
          "internalType": "address",
          "name": "player",
          "type": "address"
        },
        {
          "indexed": false,
          "internalType": "address",
          "name": "target",
          "type": "address"
        }
      ],
      "name": "MafiaTargetRevealed",
      "type": "event"
    },
    {
      "anonymous": false,
      "inputs": [
        {
          "indexed": true,
          "internalType": "uint256",
          "name": "roomId",
          "type": "uint256"
        },
        {
          "indexed": false,
          "internalType": "address",
          "name": "player",
          "type": "address"
        },
        {
          "indexed": false,
          "internalType": "bytes32",
          "name": "commitHash",
          "type": "bytes32"
        }
      ],
      "name": "NightActionCommitted",
      "type": "event"
    },
    {
      "anonymous": false,
      "inputs": [
        {
          "indexed": true,
          "internalType": "uint256",
          "name": "roomId",
          "type": "uint256"
        },
        {
          "indexed": false,
          "internalType": "address",
          "name": "player",
          "type": "address"
        },
        {
          "indexed": false,
          "internalType": "enum MafiaPortalV4.NightActionType",
          "name": "action",
          "type": "uint8"
        },
        {
          "indexed": false,
          "internalType": "address",
          "name": "target",
          "type": "address"
        }
      ],
      "name": "NightActionRevealed",
      "type": "event"
    },
    {
      "anonymous": false,
      "inputs": [
        {
          "indexed": true,
          "internalType": "uint256",
          "name": "roomId",
          "type": "uint256"
        },
        {
          "indexed": false,
          "internalType": "address",
          "name": "killed",
          "type": "address"
        },
        {
          "indexed": false,
          "internalType": "address",
          "name": "healed",
          "type": "address"
        }
      ],
      "name": "NightFinalized",
      "type": "event"
    },
    {
      "anonymous": false,
      "inputs": [
        {
          "indexed": true,
          "internalType": "uint256",
          "name": "roomId",
          "type": "uint256"
        }
      ],
      "name": "NightStarted",
      "type": "event"
    },
    {
      "anonymous": false,
      "inputs": [
        {
          "indexed": false,
          "internalType": "address",
          "name": "account",
          "type": "address"
        }
      ],
      "name": "Paused",
      "type": "event"
    },
    {
      "anonymous": false,
      "inputs": [
        {
          "indexed": true,
          "internalType": "uint256",
          "name": "roomId",
          "type": "uint256"
        },
        {
          "indexed": false,
          "internalType": "enum MafiaPortalV4.GamePhase",
          "name": "phase",
          "type": "uint8"
        }
      ],
      "name": "PhaseTimeout",
      "type": "event"
    },
    {
      "anonymous": false,
      "inputs": [
        {
          "indexed": true,
          "internalType": "uint256",
          "name": "roomId",
          "type": "uint256"
        },
        {
          "indexed": false,
          "internalType": "address",
          "name": "player",
          "type": "address"
        },
        {
          "indexed": false,
          "internalType": "string",
          "name": "reason",
          "type": "string"
        }
      ],
      "name": "PlayerEliminated",
      "type": "event"
    },
    {
      "anonymous": false,
      "inputs": [
        {
          "indexed": true,
          "internalType": "uint256",
          "name": "roomId",
          "type": "uint256"
        },
        {
          "indexed": false,
          "internalType": "address",
          "name": "player",
          "type": "address"
        },
        {
          "indexed": false,
          "internalType": "string",
          "name": "nickname",
          "type": "string"
        },
        {
          "indexed": false,
          "internalType": "address",
          "name": "sessionKey",
          "type": "address"
        }
      ],
      "name": "PlayerJoined",
      "type": "event"
    },
    {
      "anonymous": false,
      "inputs": [
        {
          "indexed": true,
          "internalType": "uint256",
          "name": "roomId",
          "type": "uint256"
        },
        {
          "indexed": false,
          "internalType": "address",
          "name": "player",
          "type": "address"
        },
        {
          "indexed": false,
          "internalType": "string",
          "name": "reason",
          "type": "string"
        }
      ],
      "name": "PlayerKicked",
      "type": "event"
    },
    {
      "anonymous": false,
      "inputs": [
        {
          "indexed": true,
          "internalType": "bytes32",
          "name": "role",
          "type": "bytes32"
        },
        {
          "indexed": true,
          "internalType": "bytes32",
          "name": "previousAdminRole",
          "type": "bytes32"
        },
        {
          "indexed": true,
          "internalType": "bytes32",
          "name": "newAdminRole",
          "type": "bytes32"
        }
      ],
      "name": "RoleAdminChanged",
      "type": "event"
    },
    {
      "anonymous": false,
      "inputs": [
        {
          "indexed": true,
          "internalType": "uint256",
          "name": "roomId",
          "type": "uint256"
        },
        {
          "indexed": false,
          "internalType": "address",
          "name": "player",
          "type": "address"
        },
        {
          "indexed": false,
          "internalType": "bytes32",
          "name": "commitHash",
          "type": "bytes32"
        }
      ],
      "name": "RoleCommitted",
      "type": "event"
    },
    {
      "anonymous": false,
      "inputs": [
        {
          "indexed": true,
          "internalType": "uint256",
          "name": "roomId",
          "type": "uint256"
        },
        {
          "indexed": false,
          "internalType": "address",
          "name": "player",
          "type": "address"
        }
      ],
      "name": "RoleConfirmed",
      "type": "event"
    },
    {
      "anonymous": false,
      "inputs": [
        {
          "indexed": true,
          "internalType": "bytes32",
          "name": "role",
          "type": "bytes32"
        },
        {
          "indexed": true,
          "internalType": "address",
          "name": "account",
          "type": "address"
        },
        {
          "indexed": true,
          "internalType": "address",
          "name": "sender",
          "type": "address"
        }
      ],
      "name": "RoleGranted",
      "type": "event"
    },
    {
      "anonymous": false,
      "inputs": [
        {
          "indexed": true,
          "internalType": "uint256",
          "name": "roomId",
          "type": "uint256"
        },
        {
          "indexed": false,
          "internalType": "address",
          "name": "player",
          "type": "address"
        },
        {
          "indexed": false,
          "internalType": "enum MafiaPortalV4.Role",
          "name": "role",
          "type": "uint8"
        }
      ],
      "name": "RoleRevealed",
      "type": "event"
    },
    {
      "anonymous": false,
      "inputs": [
        {
          "indexed": true,
          "internalType": "bytes32",
          "name": "role",
          "type": "bytes32"
        },
        {
          "indexed": true,
          "internalType": "address",
          "name": "account",
          "type": "address"
        },
        {
          "indexed": true,
          "internalType": "address",
          "name": "sender",
          "type": "address"
        }
      ],
      "name": "RoleRevoked",
      "type": "event"
    },
    {
      "anonymous": false,
      "inputs": [
        {
          "indexed": true,
          "internalType": "uint256",
          "name": "roomId",
          "type": "uint256"
        },
        {
          "indexed": false,
          "internalType": "address",
          "name": "host",
          "type": "address"
        },
        {
          "indexed": false,
          "internalType": "uint256",
          "name": "maxPlayers",
          "type": "uint256"
        }
      ],
      "name": "RoomCreated",
      "type": "event"
    },
    {
      "anonymous": false,
      "inputs": [
        {
          "indexed": true,
          "internalType": "address",
          "name": "mainWallet",
          "type": "address"
        },
        {
          "indexed": true,
          "internalType": "address",
          "name": "sessionKey",
          "type": "address"
        },
        {
          "indexed": false,
          "internalType": "uint256",
          "name": "roomId",
          "type": "uint256"
        },
        {
          "indexed": false,
          "internalType": "uint256",
          "name": "expiresAt",
          "type": "uint256"
        }
      ],
      "name": "SessionKeyRegistered",
      "type": "event"
    },
    {
      "anonymous": false,
      "inputs": [
        {
          "indexed": true,
          "internalType": "address",
          "name": "mainWallet",
          "type": "address"
        },
        {
          "indexed": true,
          "internalType": "address",
          "name": "sessionKey",
          "type": "address"
        }
      ],
      "name": "SessionKeyRevoked",
      "type": "event"
    },
    {
      "anonymous": false,
      "inputs": [
        {
          "indexed": false,
          "internalType": "address",
          "name": "account",
          "type": "address"
        }
      ],
      "name": "Unpaused",
      "type": "event"
    },
    {
      "anonymous": false,
      "inputs": [
        {
          "indexed": true,
          "internalType": "uint256",
          "name": "roomId",
          "type": "uint256"
        },
        {
          "indexed": false,
          "internalType": "address",
          "name": "voter",
          "type": "address"
        },
        {
          "indexed": false,
          "internalType": "address",
          "name": "target",
          "type": "address"
        }
      ],
      "name": "VoteCast",
      "type": "event"
    },
    {
      "anonymous": false,
      "inputs": [
        {
          "indexed": true,
          "internalType": "uint256",
          "name": "roomId",
          "type": "uint256"
        },
        {
          "indexed": false,
          "internalType": "address",
          "name": "eliminated",
          "type": "address"
        },
        {
          "indexed": false,
          "internalType": "uint256",
          "name": "voteCount",
          "type": "uint256"
        }
      ],
      "name": "VotingFinalized",
      "type": "event"
    },
    {
      "anonymous": false,
      "inputs": [
        {
          "indexed": true,
          "internalType": "uint256",
          "name": "roomId",
          "type": "uint256"
        }
      ],
      "name": "VotingStarted",
      "type": "event"
    },
    {
      "inputs": [],
      "name": "ADMIN_ROLE",
      "outputs": [
        {
          "internalType": "bytes32",
          "name": "",
          "type": "bytes32"
        }
      ],
      "stateMutability": "view",
      "type": "function"
    },
    {
      "inputs": [],
      "name": "COMMIT_PHASE_DURATION",
      "outputs": [
        {
          "internalType": "uint32",
          "name": "",
          "type": "uint32"
        }
      ],
      "stateMutability": "view",
      "type": "function"
    },
    {
      "inputs": [],
      "name": "DEFAULT_ADMIN_ROLE",
      "outputs": [
        {
          "internalType": "bytes32",
          "name": "",
          "type": "bytes32"
        }
      ],
      "stateMutability": "view",
      "type": "function"
    },
    {
      "inputs": [],
      "name": "HOST_ROLE",
      "outputs": [
        {
          "internalType": "bytes32",
          "name": "",
          "type": "bytes32"
        }
      ],
      "stateMutability": "view",
      "type": "function"
    },
    {
      "inputs": [],
      "name": "MAX_ARRAY_SIZE",
      "outputs": [
        {
          "internalType": "uint32",
          "name": "",
          "type": "uint32"
        }
      ],
      "stateMutability": "view",
      "type": "function"
    },
    {
      "inputs": [],
      "name": "PHASE_TIMEOUT",
      "outputs": [
        {
          "internalType": "uint32",
          "name": "",
          "type": "uint32"
        }
      ],
      "stateMutability": "view",
      "type": "function"
    },
    {
      "inputs": [],
      "name": "SESSION_DURATION",
      "outputs": [
        {
          "internalType": "uint32",
          "name": "",
          "type": "uint32"
        }
      ],
      "stateMutability": "view",
      "type": "function"
    },
    {
      "inputs": [],
      "name": "TURN_TIMEOUT",
      "outputs": [
        {
          "internalType": "uint32",
          "name": "",
          "type": "uint32"
        }
      ],
      "stateMutability": "view",
      "type": "function"
    },
    {
      "inputs": [
        {
          "internalType": "uint256",
          "name": "roomId",
          "type": "uint256"
        },
        {
          "internalType": "bytes32",
          "name": "deckHash",
          "type": "bytes32"
        }
      ],
      "name": "commitDeck",
      "outputs": [],
      "stateMutability": "nonpayable",
      "type": "function"
    },
    {
      "inputs": [
        {
          "internalType": "uint256",
          "name": "roomId",
          "type": "uint256"
        },
        {
          "internalType": "bytes32",
          "name": "targetHash",
          "type": "bytes32"
        }
      ],
      "name": "commitMafiaTarget",
      "outputs": [],
      "stateMutability": "nonpayable",
      "type": "function"
    },
    {
      "inputs": [
        {
          "internalType": "uint256",
          "name": "roomId",
          "type": "uint256"
        },
        {
          "internalType": "bytes32",
          "name": "hash",
          "type": "bytes32"
        }
      ],
      "name": "commitNightAction",
      "outputs": [],
      "stateMutability": "nonpayable",
      "type": "function"
    },
    {
      "inputs": [
        {
          "internalType": "uint256",
          "name": "roomId",
          "type": "uint256"
        },
        {
          "internalType": "bytes32",
          "name": "roleHash",
          "type": "bytes32"
        }
      ],
      "name": "commitRole",
      "outputs": [],
      "stateMutability": "nonpayable",
      "type": "function"
    },
    {
      "inputs": [
        {
          "internalType": "uint256",
          "name": "roomId",
          "type": "uint256"
        }
      ],
      "name": "confirmRole",
      "outputs": [],
      "stateMutability": "nonpayable",
      "type": "function"
    },
    {
      "inputs": [
        {
          "internalType": "uint8",
          "name": "maxPlayers",
          "type": "uint8"
        }
      ],
      "name": "createRoom",
      "outputs": [
        {
          "internalType": "uint256",
          "name": "",
          "type": "uint256"
        }
      ],
      "stateMutability": "nonpayable",
      "type": "function"
    },
    {
      "inputs": [
        {
          "internalType": "uint256",
          "name": "",
          "type": "uint256"
        },
        {
          "internalType": "address",
          "name": "",
          "type": "address"
        }
      ],
      "name": "deckCommits",
      "outputs": [
        {
          "internalType": "bytes32",
          "name": "commitHash",
          "type": "bytes32"
        },
        {
          "internalType": "bool",
          "name": "revealed",
          "type": "bool"
        }
      ],
      "stateMutability": "view",
      "type": "function"
    },
    {
      "inputs": [
        {
          "internalType": "uint256",
          "name": "roomId",
          "type": "uint256"
        },
        {
          "internalType": "string",
          "name": "winCondition",
          "type": "string"
        }
      ],
      "name": "endGameByHost",
      "outputs": [],
      "stateMutability": "nonpayable",
      "type": "function"
    },
    {
      "inputs": [
        {
          "internalType": "uint256",
          "name": "roomId",
          "type": "uint256"
        }
      ],
      "name": "endNight",
      "outputs": [],
      "stateMutability": "nonpayable",
      "type": "function"
    },
    {
      "inputs": [
        {
          "internalType": "uint256",
          "name": "roomId",
          "type": "uint256"
        }
      ],
      "name": "forcePhaseTimeout",
      "outputs": [],
      "stateMutability": "nonpayable",
      "type": "function"
    },
    {
      "inputs": [
        {
          "internalType": "uint256",
          "name": "roomId",
          "type": "uint256"
        }
      ],
      "name": "getAliveMafiaCount",
      "outputs": [
        {
          "internalType": "uint8",
          "name": "",
          "type": "uint8"
        }
      ],
      "stateMutability": "view",
      "type": "function"
    },
    {
      "inputs": [
        {
          "internalType": "uint256",
          "name": "roomId",
          "type": "uint256"
        }
      ],
      "name": "getAllKeysForMe",
      "outputs": [
        {
          "internalType": "address[]",
          "name": "senders",
          "type": "address[]"
        },
        {
          "internalType": "bytes[]",
          "name": "keys",
          "type": "bytes[]"
        }
      ],
      "stateMutability": "view",
      "type": "function"
    },
    {
      "inputs": [
        {
          "internalType": "uint256",
          "name": "roomId",
          "type": "uint256"
        }
      ],
      "name": "getDeck",
      "outputs": [
        {
          "internalType": "string[]",
          "name": "",
          "type": "string[]"
        }
      ],
      "stateMutability": "view",
      "type": "function"
    },
    {
      "inputs": [
        {
          "internalType": "uint256",
          "name": "roomId",
          "type": "uint256"
        },
        {
          "internalType": "address",
          "name": "from",
          "type": "address"
        },
        {
          "internalType": "address",
          "name": "to",
          "type": "address"
        }
      ],
      "name": "getKeyFromTo",
      "outputs": [
        {
          "internalType": "bytes",
          "name": "",
          "type": "bytes"
        }
      ],
      "stateMutability": "view",
      "type": "function"
    },
    {
      "inputs": [
        {
          "internalType": "uint256",
          "name": "roomId",
          "type": "uint256"
        }
      ],
      "name": "getMafiaChat",
      "outputs": [
        {
          "components": [
            {
              "internalType": "bytes",
              "name": "encryptedMessage",
              "type": "bytes"
            },
            {
              "internalType": "uint32",
              "name": "timestamp",
              "type": "uint32"
            },
            {
              "internalType": "address",
              "name": "sender",
              "type": "address"
            }
          ],
          "internalType": "struct MafiaPortalV4.MafiaMessage[]",
          "name": "",
          "type": "tuple[]"
        }
      ],
      "stateMutability": "view",
      "type": "function"
    },
    {
      "inputs": [
        {
          "internalType": "uint256",
          "name": "roomId",
          "type": "uint256"
        }
      ],
      "name": "getMafiaConsensus",
      "outputs": [
        {
          "internalType": "uint8",
          "name": "committed",
          "type": "uint8"
        },
        {
          "internalType": "uint8",
          "name": "revealed",
          "type": "uint8"
        },
        {
          "internalType": "address",
          "name": "consensusTarget",
          "type": "address"
        }
      ],
      "stateMutability": "view",
      "type": "function"
    },
    {
      "inputs": [
        {
          "internalType": "uint256",
          "name": "roomId",
          "type": "uint256"
        }
      ],
      "name": "getPhaseDeadline",
      "outputs": [
        {
          "internalType": "uint32",
          "name": "",
          "type": "uint32"
        }
      ],
      "stateMutability": "view",
      "type": "function"
    },
    {
      "inputs": [
        {
          "internalType": "uint256",
          "name": "roomId",
          "type": "uint256"
        },
        {
          "internalType": "address",
          "name": "player",
          "type": "address"
        }
      ],
      "name": "getPlayerFlags",
      "outputs": [
        {
          "internalType": "bool",
          "name": "isActive",
          "type": "bool"
        },
        {
          "internalType": "bool",
          "name": "hasConfirmedRole",
          "type": "bool"
        },
        {
          "internalType": "bool",
          "name": "hasVoted",
          "type": "bool"
        },
        {
          "internalType": "bool",
          "name": "hasCommitted",
          "type": "bool"
        },
        {
          "internalType": "bool",
          "name": "hasRevealed",
          "type": "bool"
        },
        {
          "internalType": "bool",
          "name": "hasSharedKeys",
          "type": "bool"
        }
      ],
      "stateMutability": "view",
      "type": "function"
    },
    {
      "inputs": [
        {
          "internalType": "uint256",
          "name": "roomId",
          "type": "uint256"
        }
      ],
      "name": "getPlayers",
      "outputs": [
        {
          "components": [
            {
              "internalType": "address",
              "name": "wallet",
              "type": "address"
            },
            {
              "internalType": "string",
              "name": "nickname",
              "type": "string"
            },
            {
              "internalType": "bytes",
              "name": "publicKey",
              "type": "bytes"
            },
            {
              "internalType": "uint32",
              "name": "flags",
              "type": "uint32"
            }
          ],
          "internalType": "struct MafiaPortalV4.Player[]",
          "name": "",
          "type": "tuple[]"
        }
      ],
      "stateMutability": "view",
      "type": "function"
    },
    {
      "inputs": [
        {
          "internalType": "bytes32",
          "name": "role",
          "type": "bytes32"
        }
      ],
      "name": "getRoleAdmin",
      "outputs": [
        {
          "internalType": "bytes32",
          "name": "",
          "type": "bytes32"
        }
      ],
      "stateMutability": "view",
      "type": "function"
    },
    {
      "inputs": [
        {
          "internalType": "uint256",
          "name": "roomId",
          "type": "uint256"
        }
      ],
      "name": "getRoom",
      "outputs": [
        {
          "components": [
            {
              "internalType": "uint64",
              "name": "id",
              "type": "uint64"
            },
            {
              "internalType": "address",
              "name": "host",
              "type": "address"
            },
            {
              "internalType": "enum MafiaPortalV4.GamePhase",
              "name": "phase",
              "type": "uint8"
            },
            {
              "internalType": "uint8",
              "name": "maxPlayers",
              "type": "uint8"
            },
            {
              "internalType": "uint8",
              "name": "playersCount",
              "type": "uint8"
            },
            {
              "internalType": "uint8",
              "name": "aliveCount",
              "type": "uint8"
            },
            {
              "internalType": "uint16",
              "name": "dayCount",
              "type": "uint16"
            },
            {
              "internalType": "uint8",
              "name": "currentShufflerIndex",
              "type": "uint8"
            },
            {
              "internalType": "uint32",
              "name": "lastActionTimestamp",
              "type": "uint32"
            },
            {
              "internalType": "uint32",
              "name": "phaseDeadline",
              "type": "uint32"
            },
            {
              "internalType": "uint8",
              "name": "confirmedCount",
              "type": "uint8"
            },
            {
              "internalType": "uint8",
              "name": "votedCount",
              "type": "uint8"
            },
            {
              "internalType": "uint8",
              "name": "committedCount",
              "type": "uint8"
            },
            {
              "internalType": "uint8",
              "name": "revealedCount",
              "type": "uint8"
            },
            {
              "internalType": "uint8",
              "name": "keysSharedCount",
              "type": "uint8"
            }
          ],
          "internalType": "struct MafiaPortalV4.GameRoom",
          "name": "",
          "type": "tuple"
        }
      ],
      "stateMutability": "view",
      "type": "function"
    },
    {
      "inputs": [
        {
          "internalType": "bytes32",
          "name": "role",
          "type": "bytes32"
        },
        {
          "internalType": "address",
          "name": "account",
          "type": "address"
        }
      ],
      "name": "grantRole",
      "outputs": [],
      "stateMutability": "nonpayable",
      "type": "function"
    },
    {
      "inputs": [
        {
          "internalType": "bytes32",
          "name": "role",
          "type": "bytes32"
        },
        {
          "internalType": "address",
          "name": "account",
          "type": "address"
        }
      ],
      "name": "hasRole",
      "outputs": [
        {
          "internalType": "bool",
          "name": "",
          "type": "bool"
        }
      ],
      "stateMutability": "view",
      "type": "function"
    },
    {
      "inputs": [
        {
          "internalType": "uint256",
          "name": "",
          "type": "uint256"
        },
        {
          "internalType": "address",
          "name": "",
          "type": "address"
        }
      ],
      "name": "isPlayerInRoom",
      "outputs": [
        {
          "internalType": "bool",
          "name": "",
          "type": "bool"
        }
      ],
      "stateMutability": "view",
      "type": "function"
    },
    {
      "inputs": [
        {
          "internalType": "address",
          "name": "",
          "type": "address"
        }
      ],
      "name": "isRegisteredSession",
      "outputs": [
        {
          "internalType": "bool",
          "name": "",
          "type": "bool"
        }
      ],
      "stateMutability": "view",
      "type": "function"
    },
    {
      "inputs": [
        {
          "internalType": "uint256",
          "name": "roomId",
          "type": "uint256"
        },
        {
          "internalType": "string",
          "name": "nickname",
          "type": "string"
        },
        {
          "internalType": "bytes",
          "name": "publicKey",
          "type": "bytes"
        },
        {
          "internalType": "address",
          "name": "sessionAddress",
          "type": "address"
        }
      ],
      "name": "joinRoom",
      "outputs": [],
      "stateMutability": "nonpayable",
      "type": "function"
    },
    {
      "inputs": [
        {
          "internalType": "uint256",
          "name": "",
          "type": "uint256"
        },
        {
          "internalType": "uint256",
          "name": "",
          "type": "uint256"
        }
      ],
      "name": "mafiaChat",
      "outputs": [
        {
          "internalType": "bytes",
          "name": "encryptedMessage",
          "type": "bytes"
        },
        {
          "internalType": "uint32",
          "name": "timestamp",
          "type": "uint32"
        },
        {
          "internalType": "address",
          "name": "sender",
          "type": "address"
        }
      ],
      "stateMutability": "view",
      "type": "function"
    },
    {
      "inputs": [
        {
          "internalType": "uint256",
          "name": "",
          "type": "uint256"
        }
      ],
      "name": "mafiaCommittedCount",
      "outputs": [
        {
          "internalType": "uint8",
          "name": "",
          "type": "uint8"
        }
      ],
      "stateMutability": "view",
      "type": "function"
    },
    {
      "inputs": [
        {
          "internalType": "uint256",
          "name": "",
          "type": "uint256"
        }
      ],
      "name": "mafiaConsensusTarget",
      "outputs": [
        {
          "internalType": "address",
          "name": "",
          "type": "address"
        }
      ],
      "stateMutability": "view",
      "type": "function"
    },
    {
      "inputs": [
        {
          "internalType": "uint256",
          "name": "",
          "type": "uint256"
        }
      ],
      "name": "mafiaRevealedCount",
      "outputs": [
        {
          "internalType": "uint8",
          "name": "",
          "type": "uint8"
        }
      ],
      "stateMutability": "view",
      "type": "function"
    },
    {
      "inputs": [
        {
          "internalType": "uint256",
          "name": "",
          "type": "uint256"
        },
        {
          "internalType": "address",
          "name": "",
          "type": "address"
        }
      ],
      "name": "mafiaTargetCommits",
      "outputs": [
        {
          "internalType": "bytes32",
          "name": "commitHash",
          "type": "bytes32"
        },
        {
          "internalType": "address",
          "name": "target",
          "type": "address"
        },
        {
          "internalType": "bool",
          "name": "revealed",
          "type": "bool"
        }
      ],
      "stateMutability": "view",
      "type": "function"
    },
    {
      "inputs": [],
      "name": "nextRoomId",
      "outputs": [
        {
          "internalType": "uint256",
          "name": "",
          "type": "uint256"
        }
      ],
      "stateMutability": "view",
      "type": "function"
    },
    {
      "inputs": [
        {
          "internalType": "uint256",
          "name": "",
          "type": "uint256"
        },
        {
          "internalType": "address",
          "name": "",
          "type": "address"
        }
      ],
      "name": "nightCommits",
      "outputs": [
        {
          "internalType": "bytes32",
          "name": "commitHash",
          "type": "bytes32"
        },
        {
          "internalType": "bool",
          "name": "revealed",
          "type": "bool"
        },
        {
          "internalType": "uint32",
          "name": "commitTime",
          "type": "uint32"
        }
      ],
      "stateMutability": "view",
      "type": "function"
    },
    {
      "inputs": [],
      "name": "pause",
      "outputs": [],
      "stateMutability": "nonpayable",
      "type": "function"
    },
    {
      "inputs": [],
      "name": "paused",
      "outputs": [
        {
          "internalType": "bool",
          "name": "",
          "type": "bool"
        }
      ],
      "stateMutability": "view",
      "type": "function"
    },
    {
      "inputs": [
        {
          "internalType": "uint256",
          "name": "",
          "type": "uint256"
        },
        {
          "internalType": "address",
          "name": "",
          "type": "address"
        },
        {
          "internalType": "address",
          "name": "",
          "type": "address"
        }
      ],
      "name": "playerDeckKeys",
      "outputs": [
        {
          "internalType": "bytes",
          "name": "",
          "type": "bytes"
        }
      ],
      "stateMutability": "view",
      "type": "function"
    },
    {
      "inputs": [
        {
          "internalType": "uint256",
          "name": "",
          "type": "uint256"
        },
        {
          "internalType": "address",
          "name": "",
          "type": "address"
        }
      ],
      "name": "playerIndex",
      "outputs": [
        {
          "internalType": "uint8",
          "name": "",
          "type": "uint8"
        }
      ],
      "stateMutability": "view",
      "type": "function"
    },
    {
      "inputs": [
        {
          "internalType": "uint256",
          "name": "",
          "type": "uint256"
        },
        {
          "internalType": "address",
          "name": "",
          "type": "address"
        }
      ],
      "name": "playerRoles",
      "outputs": [
        {
          "internalType": "enum MafiaPortalV4.Role",
          "name": "",
          "type": "uint8"
        }
      ],
      "stateMutability": "view",
      "type": "function"
    },
    {
      "inputs": [
        {
          "internalType": "bytes32",
          "name": "role",
          "type": "bytes32"
        },
        {
          "internalType": "address",
          "name": "callerConfirmation",
          "type": "address"
        }
      ],
      "name": "renounceRole",
      "outputs": [],
      "stateMutability": "nonpayable",
      "type": "function"
    },
    {
      "inputs": [
        {
          "internalType": "uint256",
          "name": "roomId",
          "type": "uint256"
        },
        {
          "internalType": "string[]",
          "name": "deck",
          "type": "string[]"
        },
        {
          "internalType": "string",
          "name": "salt",
          "type": "string"
        }
      ],
      "name": "revealDeck",
      "outputs": [],
      "stateMutability": "nonpayable",
      "type": "function"
    },
    {
      "inputs": [
        {
          "internalType": "uint256",
          "name": "roomId",
          "type": "uint256"
        },
        {
          "internalType": "address",
          "name": "target",
          "type": "address"
        },
        {
          "internalType": "string",
          "name": "salt",
          "type": "string"
        }
      ],
      "name": "revealMafiaTarget",
      "outputs": [],
      "stateMutability": "nonpayable",
      "type": "function"
    },
    {
      "inputs": [
        {
          "internalType": "uint256",
          "name": "roomId",
          "type": "uint256"
        },
        {
          "internalType": "enum MafiaPortalV4.NightActionType",
          "name": "action",
          "type": "uint8"
        },
        {
          "internalType": "address",
          "name": "target",
          "type": "address"
        },
        {
          "internalType": "string",
          "name": "salt",
          "type": "string"
        }
      ],
      "name": "revealNightAction",
      "outputs": [],
      "stateMutability": "nonpayable",
      "type": "function"
    },
    {
      "inputs": [
        {
          "internalType": "uint256",
          "name": "roomId",
          "type": "uint256"
        },
        {
          "internalType": "enum MafiaPortalV4.Role",
          "name": "role",
          "type": "uint8"
        },
        {
          "internalType": "string",
          "name": "salt",
          "type": "string"
        }
      ],
      "name": "revealRole",
      "outputs": [],
      "stateMutability": "nonpayable",
      "type": "function"
    },
    {
      "inputs": [
        {
          "internalType": "uint256",
          "name": "",
          "type": "uint256"
        },
        {
          "internalType": "address",
          "name": "",
          "type": "address"
        }
      ],
      "name": "revealedActions",
      "outputs": [
        {
          "internalType": "enum MafiaPortalV4.NightActionType",
          "name": "",
          "type": "uint8"
        }
      ],
      "stateMutability": "view",
      "type": "function"
    },
    {
      "inputs": [
        {
          "internalType": "uint256",
          "name": "",
          "type": "uint256"
        },
        {
          "internalType": "uint256",
          "name": "",
          "type": "uint256"
        }
      ],
      "name": "revealedDeck",
      "outputs": [
        {
          "internalType": "string",
          "name": "",
          "type": "string"
        }
      ],
      "stateMutability": "view",
      "type": "function"
    },
    {
      "inputs": [
        {
          "internalType": "uint256",
          "name": "",
          "type": "uint256"
        },
        {
          "internalType": "address",
          "name": "",
          "type": "address"
        }
      ],
      "name": "revealedTargets",
      "outputs": [
        {
          "internalType": "address",
          "name": "",
          "type": "address"
        }
      ],
      "stateMutability": "view",
      "type": "function"
    },
    {
      "inputs": [
        {
          "internalType": "bytes32",
          "name": "role",
          "type": "bytes32"
        },
        {
          "internalType": "address",
          "name": "account",
          "type": "address"
        }
      ],
      "name": "revokeRole",
      "outputs": [],
      "stateMutability": "nonpayable",
      "type": "function"
    },
    {
      "inputs": [],
      "name": "revokeSessionKey",
      "outputs": [],
      "stateMutability": "nonpayable",
      "type": "function"
    },
    {
      "inputs": [
        {
          "internalType": "uint256",
          "name": "",
          "type": "uint256"
        },
        {
          "internalType": "address",
          "name": "",
          "type": "address"
        }
      ],
      "name": "roleCommits",
      "outputs": [
        {
          "internalType": "bytes32",
          "name": "",
          "type": "bytes32"
        }
      ],
      "stateMutability": "view",
      "type": "function"
    },
    {
      "inputs": [
        {
          "internalType": "uint256",
          "name": "",
          "type": "uint256"
        },
        {
          "internalType": "uint256",
          "name": "",
          "type": "uint256"
        }
      ],
      "name": "roomPlayers",
      "outputs": [
        {
          "internalType": "address",
          "name": "wallet",
          "type": "address"
        },
        {
          "internalType": "string",
          "name": "nickname",
          "type": "string"
        },
        {
          "internalType": "bytes",
          "name": "publicKey",
          "type": "bytes"
        },
        {
          "internalType": "uint32",
          "name": "flags",
          "type": "uint32"
        }
      ],
      "stateMutability": "view",
      "type": "function"
    },
    {
      "inputs": [
        {
          "internalType": "uint256",
          "name": "",
          "type": "uint256"
        }
      ],
      "name": "rooms",
      "outputs": [
        {
          "internalType": "uint64",
          "name": "id",
          "type": "uint64"
        },
        {
          "internalType": "address",
          "name": "host",
          "type": "address"
        },
        {
          "internalType": "enum MafiaPortalV4.GamePhase",
          "name": "phase",
          "type": "uint8"
        },
        {
          "internalType": "uint8",
          "name": "maxPlayers",
          "type": "uint8"
        },
        {
          "internalType": "uint8",
          "name": "playersCount",
          "type": "uint8"
        },
        {
          "internalType": "uint8",
          "name": "aliveCount",
          "type": "uint8"
        },
        {
          "internalType": "uint16",
          "name": "dayCount",
          "type": "uint16"
        },
        {
          "internalType": "uint8",
          "name": "currentShufflerIndex",
          "type": "uint8"
        },
        {
          "internalType": "uint32",
          "name": "lastActionTimestamp",
          "type": "uint32"
        },
        {
          "internalType": "uint32",
          "name": "phaseDeadline",
          "type": "uint32"
        },
        {
          "internalType": "uint8",
          "name": "confirmedCount",
          "type": "uint8"
        },
        {
          "internalType": "uint8",
          "name": "votedCount",
          "type": "uint8"
        },
        {
          "internalType": "uint8",
          "name": "committedCount",
          "type": "uint8"
        },
        {
          "internalType": "uint8",
          "name": "revealedCount",
          "type": "uint8"
        },
        {
          "internalType": "uint8",
          "name": "keysSharedCount",
          "type": "uint8"
        }
      ],
      "stateMutability": "view",
      "type": "function"
    },
    {
      "inputs": [
        {
          "internalType": "uint256",
          "name": "roomId",
          "type": "uint256"
        },
        {
          "internalType": "bytes",
          "name": "encryptedMessage",
          "type": "bytes"
        }
      ],
      "name": "sendMafiaMessage",
      "outputs": [],
      "stateMutability": "nonpayable",
      "type": "function"
    },
    {
      "inputs": [
        {
          "internalType": "address",
          "name": "",
          "type": "address"
        }
      ],
      "name": "sessionKeys",
      "outputs": [
        {
          "internalType": "address",
          "name": "sessionAddress",
          "type": "address"
        },
        {
          "internalType": "uint32",
          "name": "expiresAt",
          "type": "uint32"
        },
        {
          "internalType": "uint64",
          "name": "roomId",
          "type": "uint64"
        },
        {
          "internalType": "bool",
          "name": "isActive",
          "type": "bool"
        }
      ],
      "stateMutability": "view",
      "type": "function"
    },
    {
      "inputs": [
        {
          "internalType": "address",
          "name": "",
          "type": "address"
        }
      ],
      "name": "sessionToMain",
      "outputs": [
        {
          "internalType": "address",
          "name": "",
          "type": "address"
        }
      ],
      "stateMutability": "view",
      "type": "function"
    },
    {
      "inputs": [
        {
          "internalType": "uint256",
          "name": "roomId",
          "type": "uint256"
        },
        {
          "internalType": "address[]",
          "name": "recipients",
          "type": "address[]"
        },
        {
          "internalType": "bytes[]",
          "name": "encryptedKeys",
          "type": "bytes[]"
        }
      ],
      "name": "shareKeysToAll",
      "outputs": [],
      "stateMutability": "nonpayable",
      "type": "function"
    },
    {
      "inputs": [
        {
          "internalType": "uint256",
          "name": "roomId",
          "type": "uint256"
        }
      ],
      "name": "startGame",
      "outputs": [],
      "stateMutability": "nonpayable",
      "type": "function"
    },
    {
      "inputs": [
        {
          "internalType": "uint256",
          "name": "roomId",
          "type": "uint256"
        }
      ],
      "name": "startVoting",
      "outputs": [],
      "stateMutability": "nonpayable",
      "type": "function"
    },
    {
      "inputs": [
        {
          "internalType": "bytes4",
          "name": "interfaceId",
          "type": "bytes4"
        }
      ],
      "name": "supportsInterface",
      "outputs": [
        {
          "internalType": "bool",
          "name": "",
          "type": "bool"
        }
      ],
      "stateMutability": "view",
      "type": "function"
    },
    {
      "inputs": [],
      "name": "unpause",
      "outputs": [],
      "stateMutability": "nonpayable",
      "type": "function"
    },
    {
      "inputs": [
        {
          "internalType": "uint256",
          "name": "roomId",
          "type": "uint256"
        },
        {
          "internalType": "address",
          "name": "target",
          "type": "address"
        }
      ],
      "name": "vote",
      "outputs": [],
      "stateMutability": "nonpayable",
      "type": "function"
    },
    {
      "inputs": [
        {
          "internalType": "uint256",
          "name": "",
          "type": "uint256"
        },
        {
          "internalType": "address",
          "name": "",
          "type": "address"
        }
      ],
      "name": "voteCounts",
      "outputs": [
        {
          "internalType": "uint8",
          "name": "",
          "type": "uint8"
        }
      ],
      "stateMutability": "view",
      "type": "function"
    },
    {
      "inputs": [
        {
          "internalType": "uint256",
          "name": "",
          "type": "uint256"
        },
        {
          "internalType": "address",
          "name": "",
          "type": "address"
        }
      ],
      "name": "votes",
      "outputs": [
        {
          "internalType": "address",
          "name": "",
          "type": "address"
        }
      ],
      "stateMutability": "view",
      "type": "function"
    }
  ],
  "bytecode": "0x6080604052346100355760015f55600160195561001b33610039565b50610025336100af565b5060405161603e90816101438239f35b5f80fd5b6001600160a01b0381165f9081525f5160206161a15f395f51905f52602052604090205460ff166100aa576001600160a01b03165f8181525f5160206161a15f395f51905f5260205260408120805460ff191660011790553391905f5160206161815f395f51905f528180a4600190565b505f90565b6001600160a01b0381165f9081525f5160206161c15f395f51905f52602052604090205460ff166100aa576001600160a01b03165f8181525f5160206161c15f395f51905f5260205260408120805460ff191660011790553391907fa49807205ce4d355092ef5a8a18f56e8913cf4a201fbe287825b095693c21775905f5160206161815f395f51905f529080a460019056fe6080806040526004361015610012575f80fd5b5f3560e01c90816301ffc9a7146148865750806302d947ef1461455e57806307a52cab1461454157806309ed3e22146144ac5780630d3c15cc146144915780630f36f3b51461425a57806312c57f55146111c557806314a09d60146142245780631bae0ac814614138578063248a9ca3146141125780632a51fb3a1461403d5780632f2ff15d1461400c57806330a05e7314613fdf57806335b9729914613f6a57806336568abe14613f2657806337048f2114613e195780633d2f5bda14613c745780633deaa34114613c585780633ec09d2c14613c1b5780633f4ba83a14613b905780633fb5d9f51461399257806343cd690314613790578063460e20491461363d57806348e69d1f1461359e5780634f324d141461355e5780635099fae214613356578063567e8dd5146133045780635c975abb146132e25780635d99dc3e146132465780635e82ff651461322b57806361ea2027146131e45780636594bb0c14612e54578063660e907c14612e0b578063669ead1714612dbf57806368e978b114612d985780636920e3ee14612d6b5780636d8a74cb14612b335780636e2083f414612b015780637120465b1461250b57806375b238fc146124e45780637fa9c289146124c857806382fab9d81461249f57806384411c0a146124585780638456cb59146123db5780638a8dd7f4146123975780638d29f52f1461233857806391d14854146122ef57806394225e9d14611fdb578063a05bcf0214611fa4578063a217fddf14611f8a578063aa55acbf14611f25578063af38479114611d7b578063af7efa7c14611d60578063b6bf359a14611ac7578063b7b8d60414611a5f578063bb9ae87514611690578063c96f09791461147e578063d065539414611351578063d23254b414611307578063d4bf7ac21461125c578063d547741f14611226578063d94a51cb146111c5578063dae2928a14610e00578063e5ed1d5914610cf8578063e851122d14610caa578063ea99c3fe14610bc1578063eb0241011461071e578063eb0fa6f8146106d4578063f14caed7146106715763ff99233a1461031e575f80fd5b3461066d57606036600319011261066d5760043561033a6148d9565b6044356001600160401b03811161066d57610359903690600401614b05565b91610362615013565b61036b84615031565b845f52600560205260405f2060018060a01b0382165f5260205260ff60405f205416156105ed5761039c90856150b7565b156105de57835f52600360205263ffffffff600160405f20015460381c1615158061064c575b61063d576103ce615138565b6103d784615031565b92845f52600360205260ff60405f205460e01c16600781101561061a5760050361062e57845f52600f60205260405f2060018060a01b0385165f5260205260ff60405f205416600581101561061a5760010361060b57845f52601260205260405f2060018060a01b0385165f5260205260ff600160405f20015460a01c166105fc576001600160a01b03821692836105b0575b61049d61048f9160405192839160208301958887526040808501526060840191614d85565b03601f1981018352826149be565b519020845f52601260205260405f2060018060a01b0385165f5260205260405f2054036105a1575f8481526012602090815260408083206001600160a01b03871684528252808320600101805460ff60a01b199096166001600160a81b031990961695909517600160a01b179094558582526014905291909120805484937f307ed77ec1f8fe53e10faa7fa486ba5e5b66eab3a9d19902c20b0da3c3b0b26a9392909160ff9061054e908216614bbe565b1660ff1982541617905561056760405192839283614bec565b0390a261057381614e55565b815f52601460205260ff8060405f205416911614610592575b60015f55005b61059b90615bdf565b5f61058c565b6336c5b53760e11b5f5260045ffd5b855f52600560205260405f20845f5260205260ff60405f205416156105ed576105d983876150b7565b61046a575b630575d90f60e11b5f5260045ffd5b63721c7c6760e11b5f5260045ffd5b633a456ae760e11b5f5260045ffd5b63995240cf60e01b5f5260045ffd5b634e487b7160e01b5f52602160045260245ffd5b6338961af360e21b5f5260045ffd5b6301a6f70d60e01b5f5260045ffd5b50835f52600360205263ffffffff600160405f20015460381c1642116103c2565b5f80fd5b3461066d57604036600319011261066d5761068a6148d9565b6004355f52600c60205260405f209060018060a01b03165f52602052606060405f2063ffffffff6001825492015460405192835260ff81161515602084015260081c166040820152f35b3461066d57604036600319011261066d576106ed6148d9565b6004355f908152600e602090815260408083206001600160a01b039485168452825291829020549151919092168152f35b3461066d57606036600319011261066d576004356024356001600160401b03811161066d57610751903690600401614b72565b6044356001600160401b03811161066d57610770903690600401614b05565b610778615013565b61078185615031565b855f52600560205260405f2060018060a01b0382165f5260205260ff60405f205416156105ed576107b290866150b7565b156105de57845f52600360205263ffffffff600160405f20015460381c16151580610ba0575b61063d576107e4615138565b6107ed85615031565b91855f52600360205260405f209182549160ff8360e01c16600781101561061a5760010361062e5761084c61048f9160405192839160208301956040875261083a8c8c6060870191614f7d565b848103601f1901604086015291614d85565b519020865f52600760205260405f2060018060a01b0385165f5260205260405f205403610b915760328411610b8257855f52600860205260405f2054159081610b72575b50610b4d57845f52600860205260405f2054151580610b5c575b610b4d575f858152600860205260409020600160401b8411610ac2578054848255808510610ad6575b505f908152602081208694939291865b8582106109de57505050906109af60017f1522116f5d4e7ac5527e161307d73b93c621a9a7627553f584afb6b6f62a74e79493865f52600760205260405f20828060a01b0385165f52602052600260405f20018260ff19825416179055019561098e61095e61095860ff8a5460101c16615001565b88615af0565b976109698982614c46565b61097963ffffffff421682614c5e565b63ffffffff61098742614d76565b1690614c7e565b60405193849360018060a01b03168452604060208501526040840191614f7d565b0390a2815f52600460205260ff60405f2054911610156109cf5760015f55005b6109d890615b32565b8061058c565b909192939495506109ef8188614f14565b906001600160401b038211610ac257610a1282610a0c8754614934565b87614e00565b5f90601f8311600114610a585792610a3b836001959460209487965f92610a4d575b5050614e43565b86555b019301910187959493926108e3565b013590508e80610a34565b601f19831691865f5260205f20925f5b818110610aaa5750936020936001969387969383889510610a91575b505050811b018655610a3e565b01355f19600384901b60f8161c191690558d8080610a84565b91936020600181928787013581550195019201610a68565b634e487b7160e01b5f52604160045260245ffd5b815f528460205f2091820191015b818110610af157506108d3565b80610afe60019254614934565b80610b0b575b5001610ae4565b601f81118314610b2057505f81555b89610b04565b610b3c90825f5283601f60205f20920160051c82019101614dea565b805f525f6020812081835555610b1a565b63d1d2a30960e01b5f5260045ffd5b50845f52600860205260405f20548314156108aa565b60ff915060f01c16831086610890565b63376ab11160e01b5f5260045ffd5b639ea6d12760e01b5f5260045ffd5b50845f52600360205263ffffffff600160405f20015460381c1642116107d8565b3461066d57602036600319011261066d57600435610bdd615013565b610be681615031565b815f52600560205260405f2060018060a01b0382165f5260205260ff60405f205416156105ed57610c1790826150b7565b156105de57610c24615138565b805f52600360205260405f2060ff815460e01c16600781101561061a5760050361062e5760ff610c5383614e55565b168015159081610c91575b50610c82576001015460ff808260681c169160701c1610610b915761058c906157ce565b6303488f9960e61b5f5260045ffd5b9050825f52601460205260ff60405f2054161083610c5e565b3461066d57604036600319011261066d57610cc36148d9565b6004355f52600f60205260405f209060018060a01b03165f52602052602060ff60405f205416610cf66040518092614ba2565bf35b3461066d57602036600319011261066d576004355f81815260036020526040908190205433911c6001600160a01b0316141580610ddb575b610dcd57610d3c615138565b805f52600360205260405f20805460ff8160e01c16600781101561061a5761062e5760ff60029160f01c1610610dbe57805460ff60e01b1916600160e01b178155610d98906109696001610d8f85615aa7565b92019182614c46565b7f50ad08f58a27f2851d7e3a1b3a6a46b290f2ce677e99642d30ff639721e777905f80a2005b63f770074360e01b5f5260045ffd5b6282b42960e81b5f5260045ffd5b50335f9081525f516020615f895f395f51905f52602052604090205460ff1615610d30565b3461066d57602036600319011261066d576004355f81815260036020526040908190205433911c6001600160a01b03161415806111a0575b610dcd57610e44615138565b805f52600360205260405f206001810163ffffffff815460381c168015611191574211156111915760ff825460e01c1660078110158061061a5781158015611185575b61062e57847f77ff69c1f99cadd93a6da75080e20a3fed43f1d42375051a5d162adcafc5fbb76020604051610ebc8187614adf565ba261061a5760018103610fe957505050805f52600360205260405f20600181018260ff825460101c16815f52600460205260405f20548110610f74575b5050610f22610f17610f1160ff845460101c16615001565b85615af0565b916109698382614c46565b825f52600460205260ff60405f205491161015610f3f575b50505b005b54600260f89190911c10610f5d57610f5690615b32565b8080610f3a565b610f6f90610f69614f46565b90615a37565b610f56565b6080610f995f516020615fa95f395f51905f5292845f52600460205260405f2061491b565b50546001600160a01b0316610fae8185615d9e565b60405190815260406020820152601660408201527554696d656f757420647572696e672073687566666c6560501b6060820152a28284610ef9565b6002810361111257505090805f52600460205260405f20905f5b825460ff821610156110eb57806002600361102161102e948761491b565b5001541661103357614bbe565b611003565b60206003611041838761491b565b500154161560016003611054848861491b565b500154161581156110e3575b5015614bbe57611084611073828661491b565b50546001600160a01b031684615d9e565b825f516020615fa95f395f51905f52608061109f848861491b565b5054604080516001600160a01b0390921682526020820181905260159082015274151a5b595bdd5d08191d5c9a5b99c81c995d99585b605a1b6060820152a2614bbe565b905086611060565b5091600291505460f81c10155f1461110657610f3d90615735565b610f3d90610f69614f46565b6004810361112657505050610f3d90615153565b6005810361113a57505050610f3d906157ce565b60031461114357005b815460ff60e01b1916600160e21b17909155805460ff60601b191681556111729063ffffffff61098742614d76565b5f516020615f095f395f51905f525f80a2005b50505f60068214610e87565b63489e8c8960e01b5f5260045ffd5b50335f9081525f516020615f895f395f51905f52602052604090205460ff1615610e38565b3461066d576111d336614aa5565b915f52600960205260405f209060018060a01b03165f5260205260405f209060018060a01b03165f5260205261122261120e60405f206149e1565b604051918291602083526020830190614a81565b0390f35b3461066d57604036600319011261066d57610f3d6004356112456148d9565b9061125761125282614d32565b615677565b6156b1565b3461066d5761126a36614b3f565b5f83815260036020526040908190205492939233911c6001600160a01b03161415806112e2575b610dcd5761129d615138565b815f52600360205260ff60405f205460e01c16600781101561061a5780159081156112d7575b5061062e57610f3d92610f69913691614da5565b6006915014846112c3565b50335f9081525f516020615f895f395f51905f52602052604090205460ff1615611291565b3461066d57604036600319011261066d576113206148d9565b6004355f908152600a602090815260408083206001600160a01b039485168452825291829020549151919092168152f35b3461066d57602036600319011261066d576004355f52601160205260405f2080549061137c82614d44565b9161138a60405193846149be565b8083526020830180925f5260205f205f915b83831061143457848660405191829160208301906020845251809152604083019060408160051b85010192915f905b8282106113da57505050500390f35b919360019193955060208091603f1989820301855287519060406114078351606084526060840190614a81565b9263ffffffff85820151168584015281878060a01b039101511691015296019201920185949391926113cb565b60026020600192604051611447816149a3565b611450866149e1565b81528486015463ffffffff811684830152858060a01b0390841c16604082015281520192019201919061139c565b3461066d5761148c36614905565b611494615013565b61149d82615031565b825f52600560205260405f2060018060a01b0382165f5260205260ff60405f205416156105ed576114ce90836150b7565b156105de57815f52600360205263ffffffff600160405f20015460381c1615158061166f575b61063d57611500615138565b61150982615031565b90825f52600360205260405f209160ff835460e01c16600781101561061a5760050361062e5761153981856150fc565b6116605761164860017f3cf64897479c2ba314a5a0e8cf3a0e097d9367de65da54961e4dc4148364990094604051611570816149a3565b85815260208101905f82526115c584604083019263ffffffff421684528b5f52600c60205260405f20828060a01b038a165f5260205260405f20905181550192511515839060ff801983541691151516179055565b5164ffffffff0082549160081b169064ffffffff001916179055865f52600660205260405f20828060a01b0385165f52602052600361161660ff60405f205416895f52600460205260405f2061491b565b500163ffffffff600881835416171663ffffffff198254161790550161164260ff825460681c16614bbe565b90614cbe565b61165760405192839283614d5b565b0390a260015f55005b6317fd8aab60e31b5f5260045ffd5b50815f52600360205263ffffffff600160405f20015460381c1642116114f4565b3461066d57606036600319011261066d576004356024356001600160401b03811161066d576116c3903690600401614b72565b6044356001600160401b03811161066d576116e2903690600401614b72565b90926116ec615013565b6116f585615031565b855f52600560205260405f2060018060a01b0382165f5260205260ff60405f205416156105ed5761172690866150b7565b156105de57845f52600360205263ffffffff600160405f20015460381c16151580611a3e575b61063d57611758615138565b61176185615031565b93855f52600360205260405f2060ff815460e01c16600781101561061a5760020361062e57838503611a2f5760328511610b8257865f52600660205260405f2060018060a01b0387165f52602052602060036117ce60ff60405f2054168a5f526004845260405f2061491b565b50015416611a205793946001600160a01b0316935f5b8681101561194a576001600160a01b03600582901b858101359182169182900361066d57895f52600560205260405f20825f5260205260ff60405f205416156105ed5787821461193b57868310156119275761184290850185614f14565b90918a5f52600960205260405f20895f5260205260405f20905f5260205260405f209160018060401b038211610ac257611886826118808554614934565b85614e00565b5f90601f83116001146118bf5791806118ab9260019695945f926118b4575050614e43565b90555b016117e4565b013590508d80610a34565b601f19831691845f5260205f20925f5b81811061190f5750916001969594929183889593106118f6575b505050811b0190556118ae565b01355f19600384901b60f8161c191690558c80806118e9565b919360206001819287870135815501950192016118cf565b634e487b7160e01b5f52603260045260245ffd5b637f043f9b60e01b5f5260045ffd5b878260ff88835f52600660205260405f20815f52602052600361197e8360405f205416865f52600460205260405f2061491b565b500163ffffffff602081835416171663ffffffff19825416179055837f9204f1001d8059e799b3a233fa5114eab3b5d30762de3ff4e07fcd7e6266aad1602060018601936119da6119d487875460781c16614bbe565b86614cf8565b604051908152a25460781c16905460f81c146119f65760015f55005b7ff6b9b3035e320bcce495d00c2d31a7bd341754f7b9919a4a736388e16ef674a55f80a28061058c565b6387db46a560e01b5f5260045ffd5b634ec4810560e11b5f5260045ffd5b50845f52600360205263ffffffff600160405f20015460381c16421161174c565b3461066d57602036600319011261066d576001600160a01b03611a806148ef565b165f526016602052608060405f2060ff60018254920154166040519160018060a01b038116835263ffffffff8160a01c16602084015260c01c604083015215156060820152f35b3461066d57611ad536614b3f565b611ae0929192615013565b611ae982615031565b825f52600560205260405f2060018060a01b0382165f5260205260ff60405f205416156105ed57611b1a90836150b7565b156105de57611b27615138565b611b3082615031565b92825f52600360205260ff60405f205460e01c16600781101561061a5760050361062e57825f52600f60205260405f2060018060a01b0385165f5260205260ff60405f205416600581101561061a5760010361060b576104008211610b8257825f52601160205260405f209060405194611ba9866149a3565b611bb4368584614da5565b86524263ffffffff16602087019081526001600160a01b0390911660408701818152845491949091600160401b811015610ac257611bf791600182018155614aec565b979097611d4d575180519097906001600160401b038111610ac257611c2681611c208454614934565b84614e00565b6020601f8211600114611ccd57600161165796959493611c658463ffffffff9586955f516020615ec95f395f51905f529e9f5f92611cc2575050614e43565b81555b9451940180549351600160201b600160c01b03199290951692909216166001600160c01b031990921691909117602092831b600160201b600160c01b03161790556040805194855290840181905292938493840191614d85565b015190508f80610a34565b601f19821699835f52815f209a5f5b818110611d355750936001845f516020615ec95f395f51905f529c9d63ffffffff9695839588976116579d9c9b9a10611d1d575b505050811b018155611c68565b01515f1960f88460031b161c191690558e8080611d10565b838301518d556001909c019b60209384019301611cdc565b634e487b7160e01b5f525f60045260245ffd5b3461066d575f36600319011261066d57602060405160328152f35b3461066d57606036600319011261066d57600435602435600581101561066d576044356001600160401b03811161066d57611dba903690600401614b05565b611dc5929192615013565b611dce84615031565b845f52600560205260405f2060018060a01b0382165f5260205260ff60405f205416156105ed57611dff90856150b7565b156105de57611e0c615138565b611e1584615031565b92845f52600f60205260405f2060018060a01b0385165f5260205260ff60405f205416600581101561061a57611f1657611e7161048f916040519283916020830195611e618789614ba2565b6040808501526060840191614d85565b519020835f52601060205260405f2060018060a01b0384165f5260205260405f205403611f07577f9b013793e3fbc06d6ff5e9b6ce06be7c635e957579a85ae6b262b85b13ecd87491611f00604092855f52600f602052835f2060018060a01b0384165f52602052835f2060ff1981541660ff831617905583519260018060a01b031683526020830190614ba2565ba260015f55005b63134fed2d60e01b5f5260045ffd5b63fd8fd76760e01b5f5260045ffd5b3461066d57604036600319011261066d57611f3e6148d9565b6004355f52601260205260405f209060018060a01b03165f52602052606060405f2060ff6001825492015460405192835260018060a01b038116602084015260a01c1615156040820152f35b3461066d575f36600319011261066d5760206040515f8152f35b3461066d57611fb236614905565b905f52600860205260405f20805482101561066d576112229161120e915f5260205f20016149e1565b3461066d57602036600319011261066d57335f908152601760205260409020546001600160a01b031660043581156122e7575b90815f52600460205260405f20905f5f908354915b8260ff821610612256575060ff169161203b83614d44565b9361204960405195866149be565b83855261205584614d44565b602086019690601f190136883761206b85614d44565b9461207960405196876149be565b808652612088601f1991614d44565b015f5b8181106122435750505f915f5b8560ff82161061214c57888888604051928392604084019060408552518091526060840191905f5b81811061212a575050508281036020840152815180825260208201916020808360051b8301019401925f915b8383106120f95786860387f35b919395509193602080612118600193601f198682030187528951614a81565b970193019301909286959492936120ec565b82516001600160a01b03168452869550602093840193909201916001016120c0565b8761215b82849b999a9b61491b565b50546001600160a01b0390811690871681141580612204575b61218d575b505061218490614bbe565b97969597612098565b946121f46121fa928761218495986121a960ff86168094614f00565b52875f52600960205260405f209060018060a01b03165f5260205260405f2060018060a01b038a165f526020528b6121ed826121e760405f206149e1565b92614f00565b528b614f00565b50614bbe565b939050888a612179565b505f8581526009602090815260408083206001600160a01b038581168552908352818420908b16845290915290205461223c90614934565b1515612174565b606060208289018101919091520161208b565b612263818697959761491b565b50546001600160a01b0387811691169081141590816122a9575b50612294575b61228c90614bbe565b949294612023565b906122a161228c91614bbe565b919050612283565b5f8681526009602090815260408083206001600160a01b0394851684528252808320938b16835292905220546122df9150614934565b15158761227d565b33915061200e565b3461066d57604036600319011261066d576123086148d9565b6004355f52600260205260405f209060018060a01b03165f52602052602060ff60405f2054166040519015158152f35b3461066d57602036600319011261066d576060600435805f52601360205260ff60405f20541690805f52601460205260ff60405f205416905f52601560205260018060a01b0360405f2054169060405192835260208301526040820152f35b3461066d57604036600319011261066d576123b06148d9565b6004355f52601060205260405f209060018060a01b03165f52602052602060405f2054604051908152f35b3461066d575f36600319011261066d576123f361561b565b6123fb615138565b600160ff19815416176001557f62e78cea01bee320cd4e420270b5ea74000d11b0c9f74754ebdbfc544b05a2586020604051338152a1337f7c83004a7e59a8ea03b200186c4dda29a4e144d9844d63dbc1a09acf7dfcd4855f80a2005b3461066d57604036600319011261066d576124716148d9565b6004355f52600660205260405f209060018060a01b03165f52602052602060ff60405f205416604051908152f35b3461066d57602036600319011261066d5760206124bd600435614e55565b60ff60405191168152f35b3461066d575f36600319011261066d57602060405161012c8152f35b3461066d575f36600319011261066d5760206040515f516020615fc95f395f51905f528152f35b3461066d57608036600319011261066d576004356024356001600160401b03811161066d5761253e903690600401614b05565b906044356001600160401b03811161066d5761255e903690600401614b05565b6064356001600160a01b0381169492919085900361066d5761257e615013565b612586615138565b855f52600360205260405f2091825460ff8160e01c16600781101561061a5761062e5760ff808260e81c169160f01c161015612af2575f87815260056020908152604080832033845290915290205460ff16612ae45760208411612ad55760808211612ac657865f52600460205260ff60405f20541691875f52600460205260405f20906126376040519361261a85614988565b33855261262836898b614da5565b92602086019384523691614da5565b90604084019182526060840192600284528054600160401b811015610ac2576126659160018201815561491b565b949094611d4d575184546001600160a01b0319166001600160a01b039190911617845551805160018501916001600160401b038211610ac2576126ac826118808554614934565b602090601f8311600114612a63576126cd92915f9183612a58575050614e43565b90555b51805160028401916001600160401b038211610ac2576126f4826118808554614934565b602090601f83116001146129e5579363ffffffff936127268460039587956127bb9c9b9a995f926129da575050614e43565b90555b51169201911663ffffffff19825416179055865f52600560205260405f2060018060a01b0333165f5260205260405f20600160ff19825416179055865f52600660205260405f2060018060a01b0333165f5260205260ff60405f20911660ff198254161790556127a86127a260ff835460f01c16614bbe565b82614c06565b6127b5815460f81c614bbe565b90614c23565b82158015612800575b505f516020615ee95f395f51905f52926127f1604051938493338552606060208601526060850191614d85565b9060408301520390a260015f55005b61193b57825f52601860205260ff60405f2054166129cb575f838152601760205260409020546001600160a01b03166129cb57335f52601660205260ff600160405f20015416612985575b613840420192834211612971578063ffffffff5f516020615ee95f395f51905f52951661290460405161287d81614988565b83815260208082018481526001600160401b038b166040808501918252600160608601818152335f90815260169096529190942094519251915160a09290921b63ffffffff60a01b166001600160a01b039093169290921760c09190911b6001600160c01b031916178355519101805460ff9215159290921660ff19909216919091179055565b5f82815260176020908152604080832080546001600160a01b031916339081179091556018835292819020805460ff1916600117905580518a81529182019390935290917f290e52799b1ac63207e28c21f7f1f387cf8ea9257dde8e363a02e157d8e4c65891a3926127c4565b634e487b7160e01b5f52601160045260245ffd5b335f908152601660209081526040808320546001600160a01b031683526017825280832080546001600160a01b031916905560189091529020805460ff1916905561284b565b631fef749360e21b5f5260045ffd5b015190505f80610a34565b90601f19831691845f52815f20925f5b818110612a4057508463ffffffff9692946127bb9b9a999894889660039860019510612a29575b505050811b019055612729565b01515f1983891b60f8161c191690558f8080612a1c565b929360206001819287860151815501950193016129f5565b015190508d80610a34565b90601f19831691845f52815f20925f5b818110612aae5750908460019594939210612a96575b505050811b0190556126d0565b01515f1960f88460031b161c191690558c8080612a89565b92936020600181928786015181550195019301612a73565b63450bc0a760e01b5f5260045ffd5b636f6003c360e01b5f5260045ffd5b621d934160e11b5f5260045ffd5b63bc42480360e01b5f5260045ffd5b3461066d57602036600319011261066d576004355f526015602052602060018060a01b0360405f205416604051908152f35b3461066d57602036600319011261066d575f6101c0604051612b548161496c565b8281528260208201528260408201528260608201528260808201528260a08201528260c08201528260e08201528261010082015282610120820152826101408201528261016082015282610180820152826101a082015201526004355f52600360205260405f2060405190612bc88261496c565b80546001600160401b0381168352604081811c6001600160a01b031660208501908152939192908201919060e084901c60ff16600781101561061a57835260608201908460e81c60ff16825260808301908560f01c60ff16825260a084019560f81c8652600101549460c0840161ffff8716815260e085018760101c60ff1681526101008601918860181c63ffffffff1683526101208701938960381c63ffffffff1685526101408801958a60581c60ff1687526101608901978b60601c60ff1689526101808a01998c60681c60ff168b526101a081019b8d60701c60ff168d526101c08201809e60781c60ff1690526040519e8f92600160401b600190039051168352600160a01b6001900390511660208301525190604001612ceb91614adf565b5160ff1660608d01525160ff1660808c01525160ff1660a08b01525161ffff1660c08a01525160ff1660e08901525163ffffffff166101008801525163ffffffff166101208701525160ff166101408601525160ff166101608501525160ff166101808401525160ff166101a08301525160ff166101c08201526101e090f35b3461066d57602036600319011261066d576004355f526014602052602060ff60405f205416604051908152f35b3461066d575f36600319011261066d5760206040515f516020615f495f395f51905f528152f35b3461066d57604036600319011261066d57612dd86148d9565b6004355f52600d60205260405f209060018060a01b03165f52602052602060ff60405f205416610cf66040518092614b32565b3461066d57604036600319011261066d57612e246148d9565b6004355f52600560205260405f209060018060a01b03165f52602052602060ff60405f2054166040519015158152f35b3461066d57608036600319011261066d57600435602435600481101561066d57604435906001600160a01b03821680830361066d576064356001600160401b03811161066d57612ea8903690600401614b05565b612eb3929192615013565b612ebc86615031565b865f52600560205260405f2060018060a01b0382165f5260205260ff60405f205416156105ed57612eed90876150b7565b156105de57855f52600360205263ffffffff600160405f20015460381c161515806131c3575b61063d57612f1f615138565b612f2886615031565b92865f52600360205260405f209560ff875460e01c16600781101561061a5760050361062e57875f52600660205260405f2060018060a01b0386165f5260205260106003612f8860ff60405f2054168b5f52600460205260405f2061491b565b500154166131b45760018614610dcd57612fa285896150fc565b1561166057851515806131ab575b613177575b50612fe861048f916040519283916020830195612fd2878b614b32565b8760408501526060808501526080840191614d85565b519020855f52600c60205260405f2060018060a01b0384165f5260205260405f205403610b9157606085927fefeac4ab688c036b72571c6adaf81feb0d4e0a7099c1cfd8d09e54370198c53c9261313d600160ff98875f52600c60205260405f20828060a01b0386165f526020528160405f2001828b19825416179055875f52600d60205260405f20828060a01b0386165f5260205260405f208a198154168b8b16179055875f52600e60205260405f20828060a01b0386165f5260205260405f2084838060a01b0319825416179055875f52600660205260405f20828060a01b0386165f5260205260036130ee8b60405f2054168a5f52600460205260405f2061491b565b500163ffffffff601081835416171663ffffffff19825416179055019661312361311d8a8a5460701c16614bbe565b89614cdb565b6040516001600160a01b0390941684526020840190614b32565b6040820152a254818160681c1691829160701c1614908161316d575b506131645760015f55005b6109d8906157ce565b9050151582613159565b875f52600560205260405f20845f5260205260ff60405f205416156105ed576131a090886150b7565b156105de5787612fb5565b50831515612fb0565b63a89ac15160e01b5f5260045ffd5b50855f52600360205263ffffffff600160405f20015460381c164211612f13565b3461066d57604036600319011261066d576131fd6148d9565b6004355f52600b60205260405f209060018060a01b03165f52602052602060ff60405f205416604051908152f35b3461066d575f36600319011261066d57602060405160788152f35b3461066d57604036600319011261066d5760c0600361329c6004356132696148d9565b815f52600660205260405f209060018060a01b03165f5260205260ff60405f205416905f52600460205260405f2061491b565b50015460206040519160028116151583526001811615158284015260048116151560408401526008811615156060840152601081161515608084015216151560a0820152f35b3461066d575f36600319011261066d57602060ff600154166040519015158152f35b3461066d57604036600319011261066d5761331d6148d9565b6004355f52600760205260405f209060018060a01b03165f526020526040805f2060ff6002825492015416825191825215156020820152f35b3461066d57602036600319011261066d57600435613372615013565b61337b81615031565b815f52600560205260405f2060018060a01b0382165f5260205260ff60405f205416156105ed576133ac90826150b7565b156105de57805f52600360205263ffffffff600160405f20015460381c1615158061353d575b61063d576133de615138565b6133e781615031565b815f52600360205260405f209060ff825460e01c16600781101561061a5760020361062e57825f52600660205260405f2060018060a01b0382165f526020526001600361344660ff60405f205416865f52600460205260405f2061491b565b500154166131b45760ff90835f52600660205260405f2060018060a01b0382165f5260205260036134888360405f205416865f52600460205260405f2061491b565b500163ffffffff600181835416171663ffffffff19825416179055837f82b52ddf0195aa8ac16480985f5042052aa742563721520fa34764d253824d43602060018601936134e46134de87875460581c16614bbe565b86614ca1565b6040516001600160a01b039091168152a25460581c16905460f81c1461350a5760015f55005b61351381615735565b7f54ccd98022ba3fd547cb241a4f3dfc13e7f9bb54550b7babf4080021c6c2f1265f80a28061058c565b50805f52600360205263ffffffff600160405f20015460381c1642116133d2565b3461066d57602036600319011261066d576001600160a01b0361357f6148ef565b165f526017602052602060018060a01b0360405f205416604051908152f35b3461066d575f36600319011261066d57335f52601660205260405f20600181019060ff8254166135ca57005b80546001600160a01b031680337f744157ccffbd293a2e8644928cd7d23d650f869b88f72d7bfea8041b76ca6bec5f80a35f90815260176020908152604080832080546001600160a01b031916905592546001600160a01b031682526018905220805460ff199081169091558154169055005b3461066d57602036600319011261066d576004355f52600460205260405f2080549061366882614d44565b9161367660405193846149be565b8083526020830180925f5260205f205f915b83831061373457848660405191829160208301906020845251809152604083019060408160051b85010192915f905b8282106136c657505050500390f35b919360019193955060208091603f19898203018552875190848060a01b038251168152606063ffffffff8161371d61370b878701516080898801526080870190614a81565b60408701518682036040880152614a81565b9401511691015296019201920185949391926136b7565b6004602060019260405161374781614988565b848060a01b03865416815261375d8587016149e1565b8382015261376d600287016149e1565b604082015263ffffffff6003870154166060820152815201920192019190613688565b3461066d5761379e36614905565b6137a6615013565b6137af82615031565b825f52600560205260405f2060018060a01b0382165f5260205260ff60405f205416156105ed576137e090836150b7565b156105de57815f52600360205263ffffffff600160405f20015460381c16151580613971575b61063d57613812615138565b61381b82615031565b90825f52600360205260405f2060ff815460e01c16600781101561061a5760010361062e5761386190845f52600460205260ff600160405f2092015460101c169061491b565b50546001600160a01b039081169083160361396257825f52600660205260405f2060018060a01b0383165f52602052604060036138ae60ff835f205416865f526004602052835f2061491b565b50015416611660575f8381526007602090815260408083206001600160a01b038616808552908352818420858155600201805460ff191690558684526006835281842090845282528083205486845260049092529091207ffbabe9c4a6257c269f37e649a08003e579b119fcff47ac57e59d1502fccea41c93916003916139389160ff169061491b565b500163ffffffff604081835416171663ffffffff1982541617905561165760405192839283614d5b565b631cc191eb60e31b5f5260045ffd5b50815f52600360205263ffffffff600160405f20015460381c164211613806565b3461066d576139a036614905565b6139a8615013565b6139b182615031565b825f52600560205260405f2060018060a01b0382165f5260205260ff60405f205416156105ed576139e290836150b7565b156105de57815f52600360205263ffffffff600160405f20015460381c16151580613b6f575b61063d57613a14615138565b613a1d82615031565b825f52600360205260ff60405f205460e01c16600781101561061a5760050361062e57825f52600f60205260405f2060018060a01b0382165f5260205260ff60405f205416600581101561061a5760010361060b57825f52601260205260405f2060018060a01b0382165f5260205260405f2054613b605782917ff5adb2642a216ea3114d73daac494b2341695b10db2b0e6be988acb22fbc156491835f52601260205260405f2060018060a01b0382165f526020528160405f2055835f52601360205260405f2060ff613af381835416614bbe565b1660ff19825416179055613b0c60405192839283614d5b565b0390a2613b1881614e55565b815f52601360205260ff8060405f205416911614613b365760015f55005b7f57dce5d63c7ed14a3b121c477b39a46a691415973deddac5d4c307c595e5d3a85f80a28061058c565b6317ac735560e11b5f5260045ffd5b50815f52600360205263ffffffff600160405f20015460381c164211613a08565b3461066d575f36600319011261066d57613ba861561b565b60015460ff811615613c0c5760ff19166001557f5db9ee0a495bf2e6ff9c91a7834c1ba4fdd244a5e8aa4e537bd38aeae4b073aa6020604051338152a1337f306ca22c455fe433ebbf0542bbf947ea6a725495f9e1043db2a47e3c579403855f80a2005b638dfc202b60e01b5f5260045ffd5b3461066d57602036600319011261066d576001600160a01b03613c3c6148ef565b165f526018602052602060ff60405f2054166040519015158152f35b3461066d575f36600319011261066d5760206040516138408152f35b3461066d57602036600319011261066d57600435613c90615013565b613c9981615031565b815f52600560205260405f2060018060a01b0382165f5260205260ff60405f205416156105ed57613cca90826150b7565b156105de57613cd7615138565b805f52600360205260405f2060ff815460e01c16600781101561061a5760030361062e57805460ff60e01b1916600160e21b178155600101805460ff60601b19168155613d2c9063ffffffff61098742614d76565b805f52600460205260405f205f5b815460ff82161015613e015780613d54613dcd928461491b565b50546001600160a01b03166003613d6b838661491b565b5001805463fffffffb811663ffffffff199091161790555f858152600a602090815260408083206001600160a01b0385168452909152902080546001600160a01b031916905560026003613dbf848761491b565b50015416613dd25750614bbe565b613d3a565b5f858152600b602090815260408083206001600160a01b03909416835292905220805460ff19169055846121f4565b825f516020615f095f395f51905f525f80a260015f55005b3461066d57613e2736614905565b613e2f615013565b613e3882615031565b825f52600560205260405f2060018060a01b0382165f5260205260ff60405f205416156105ed57613e6990836150b7565b156105de57613e76615138565b613e7f82615031565b90825f52600360205260ff60405f205460e01c16600781101561061a5760020361062e57825f52601060205260405f2060018060a01b0383165f5260205260405f2054613f17577ff33c1bd762b898b33040e70f49cf90ff496cf7366f6fafa9d961b0de89b7244b91835f52601060205260405f2060018060a01b0382165f526020528160405f205561165760405192839283614d5b565b630890382360e21b5f5260045ffd5b3461066d57604036600319011261066d57613f3f6148d9565b336001600160a01b03821603613f5b57610f3d906004356156b1565b63334bd91960e11b5f5260045ffd5b3461066d57613f7836614905565b905f52601160205260405f20805482101561066d57613fbd91613f9a91614aec565b506001613fa6826149e1565b910154604051928392606084526060840190614a81565b9063ffffffff8116602084015260018060a01b039060201c1660408301520390f35b3461066d57602036600319011261066d576004355f526013602052602060ff60405f205416604051908152f35b3461066d57604036600319011261066d57610f3d60043561402b6148d9565b9061403861125282614d32565b6155a2565b3461066d57602036600319011261066d576004355f52600860205260405f2080549061406882614d44565b9161407660405193846149be565b8083526020830180925f5260205f205f915b8383106140f557848660405191829160208301906020845251809152604083019060408160051b85010192915f905b8282106140c657505050500390f35b919360019193955060206140e58192603f198a82030186528851614a81565b96019201920185949391926140b7565b600160208192614104856149e1565b815201920192019190614088565b3461066d57602036600319011261066d576020614130600435614d32565b604051908152f35b3461066d57602036600319011261066d576004355f5260036020526101e060405f2060ff600182549201546040519260018060401b038116845260018060a01b038160401c16602085015261419560408501848360e01c16614adf565b828160e81c166060850152828160f01c16608085015260f81c60a084015261ffff811660c0840152818160101c1660e084015263ffffffff8160181c1661010084015263ffffffff8160381c16610120840152818160581c16610140840152818160601c16610160840152818160681c16610180840152818160701c166101a084015260781c166101c0820152f35b3461066d57602036600319011261066d576004355f526003602052602063ffffffff600160405f20015460381c16604051908152f35b3461066d57602036600319011261066d5760043560ff811680820361066d57614281615138565b601954915f19831461297157600791600184016019555f8085604051936142a78561496c565b60018060401b038216855260208501903382526040860190848252606087019081526080870185815260a0880186815260c0890198878a5260e081019188835261010082019363ffffffff421685526101208301958a87526101408401978b89526101608501998c8b5261018086019b8d8d526101a087019d8e526101c087019e8f525f52600360205260405f209560018060401b03905116865491600160401b600160e01b03905160401b169163ffffffff60e01b1617178555519e8f101561061a578354905161ffff60e01b1990911660e09f909f1b60ff60e01b169e909e1760e89e909e1b60ff60e81b169d909d1782559b518d9c906143ad9060ff1683614c06565b5160ff166143bb9082614c23565b600101985161ffff1661ffff1661ffff198a54161789555160ff166143e09089614c46565b5163ffffffff166143f19088614c5e565b5163ffffffff166144029087614c7e565b5160ff166144109086614ca1565b5160ff1661441e9085614bcf565b5160ff1661442c9084614cbe565b5160ff1661443a9083614cdb565b5160ff1661444791614cf8565b6144503361551d565b50604051809133906144629183614d15565b037fac131287fe8417903d89f4eb472bc1d0da81641ef725569346dab6c2879a671791a2604051908152602090f35b3461066d575f36600319011261066d57602060405160b48152f35b3461066d576144ba36614905565b905f52600460205260405f2090815481101561066d576144d99161491b565b5080546001600160a01b03166144f1600183016149e1565b9161453763ffffffff6003614508600285016149e1565b93015416916145296040519586958652608060208701526080860190614a81565b908482036040860152614a81565b9060608301520390f35b3461066d575f36600319011261066d576020601954604051908152f35b3461066d57604036600319011261066d5760043561457a6148d9565b614582615013565b61458b82615031565b825f52600560205260405f2060018060a01b0382165f5260205260ff60405f205416156105ed576145bc90836150b7565b156105de57815f52600360205263ffffffff600160405f20015460381c16151580614865575b61063d576145ee615138565b6145f782615031565b90825f52600360205260405f209160ff835460e01c16600781101561061a5760040361062e57835f52600560205260405f2060018060a01b0383165f5260205260ff60405f205416156105ed5761464e82856150b7565b156105de5783917fcfff1651bcea794952a516ce970ab17518a85210bd939aaeaac670a8d3e65ec791835f52600660205260405f2060018060a01b0382165f52602052600460036146b060ff60405f205416875f528360205260405f2061491b565b5001545f868152600a602090815260408083206001600160a01b038781168552925290912054929091161591168015158061483b575b6147ff575b505f858152600a602090815260408083206001600160a01b03868116855290835281842080546001600160a01b0319169188169182179055888452600b83528184209084529091529020805460ff90614745908216614bbe565b1660ff1982541617905561478a575b61476360405192839283614bec565b0390a260ff600182015460601c16905460f81c146147815760015f55005b6109d890615153565b835f52600660205260405f2060018060a01b0382165f5260205260036147c260ff60405f205416865f52600460205260405f2061491b565b500163ffffffff600481835416171663ffffffff198254161790556147fa600186016147f460ff825460601c16614bbe565b90614bcf565b614754565b855f52600b60205260405f209060018060a01b03165f5260205260405f2060ff61482b81835416614baf565b1660ff19825416179055876146eb565b50855f52600b60205260405f2060018060a01b0382165f5260205260ff60405f20541615156146e6565b50815f52600360205263ffffffff600160405f20015460381c1642116145e2565b3461066d57602036600319011261066d576004359063ffffffff60e01b821680920361066d57602091637965db0b60e01b81149081156148c8575b5015158152f35b6301ffc9a760e01b149050836148c1565b602435906001600160a01b038216820361066d57565b600435906001600160a01b038216820361066d57565b604090600319011261066d576004359060243590565b8054821015611927575f5260205f209060021b01905f90565b90600182811c92168015614962575b602083101461494e57565b634e487b7160e01b5f52602260045260245ffd5b91607f1691614943565b6101e081019081106001600160401b03821117610ac257604052565b608081019081106001600160401b03821117610ac257604052565b606081019081106001600160401b03821117610ac257604052565b601f909101601f19168101906001600160401b03821190821017610ac257604052565b9060405191825f8254926149f484614934565b8084529360018116908115614a5f5750600114614a1b575b50614a19925003836149be565b565b90505f9291925260205f20905f915b818310614a43575050906020614a19928201015f614a0c565b6020919350806001915483858901015201910190918492614a2a565b905060209250614a1994915060ff191682840152151560051b8201015f614a0c565b805180835260209291819084018484015e5f828201840152601f01601f1916010190565b606090600319011261066d57600435906024356001600160a01b038116810361066d57906044356001600160a01b038116810361066d5790565b90600782101561061a5752565b8054821015611927575f5260205f209060011b01905f90565b9181601f8401121561066d578235916001600160401b03831161066d576020838186019501011161066d57565b90600482101561061a5752565b90604060031983011261066d5760043591602435906001600160401b03821161066d57614b6e91600401614b05565b9091565b9181601f8401121561066d578235916001600160401b03831161066d576020808501948460051b01011161066d57565b90600582101561061a5752565b60ff168015612971575f190190565b60ff1660ff81146129715760010190565b805460ff60601b191660609290921b60ff60601b16919091179055565b6001600160a01b0391821681529116602082015260400190565b805460ff60f01b191660f09290921b60ff60f01b16919091179055565b80546001600160f81b031660f89290921b6001600160f81b031916919091179055565b9062ff000082549160101b169062ff00001916179055565b9066ffffffff00000082549160181b169066ffffffff0000001916179055565b805463ffffffff60381b191660389290921b63ffffffff60381b16919091179055565b805460ff60581b191660589290921b60ff60581b16919091179055565b805460ff60681b191660689290921b60ff60681b16919091179055565b805460ff60701b191660709290921b60ff60701b16919091179055565b805460ff60781b191660789290921b60ff60781b16919091179055565b6001600160a01b03909116815260ff909116602082015260400190565b5f526002602052600160405f20015490565b6001600160401b038111610ac25760051b60200190565b6001600160a01b039091168152602081019190915260400190565b9061012c820180921161297157565b908060209392818452848401375f828201840152601f01601f1916010190565b9192916001600160401b038211610ac25760405191614dce601f8201601f1916602001846149be565b82948184528183011161066d578281602093845f960137010152565b818110614df5575050565b5f8155600101614dea565b9190601f8111614e0f57505050565b614a19925f5260205f20906020601f840160051c83019310614e39575b601f0160051c0190614dea565b9091508190614e2c565b8160011b915f199060031b1c19161790565b5f90805f52600460205260405f20905f908254915b8260ff821610614e7b575050505090565b614e85818561491b565b50545f838152600f602090815260408083206001600160a01b039094168352929052205460ff16600581101561061a5760011480614ee6575b614ed1575b614ecc90614bbe565b614e6a565b93614ede614ecc91614bbe565b949050614ec3565b5060026003614ef5838761491b565b500154161515614ebe565b80518210156119275760209160051b010190565b903590601e198136030182121561066d57018035906001600160401b03821161066d5760200191813603831361066d57565b60405190614f556040836149be565b6019825278546f6f2066657720706c61796572732072656d61696e696e6760381b6020830152565b90602083828152019060208160051b85010193835f915b838310614fa45750505050505090565b909192939495601f198282030186528635601e198436030181121561066d578301602081019190356001600160401b03811161066d57803603831361066d57614ff36020928392600195614d85565b980196019493019190614f94565b60ff60019116019060ff821161297157565b60025f54146150225760025f55565b633ee5aeb560e01b5f5260045ffd5b335f908152601760205260409020546001600160a01b031690816150555750503390565b815f52601660205260405f2060ff600182015416156150a8575463ffffffff8160a01c1642116150995760c01c0361508a5790565b637ce3c8fd60e11b5f5260045ffd5b630fe82d2560e11b5f5260045ffd5b635f8874dd60e11b5f5260045ffd5b6150f3600391600293815f52600660205260405f209060018060a01b03165f5260205260ff60405f205416905f52600460205260405f2061491b565b50015416151590565b6150f3600391600893815f52600660205260405f209060018060a01b03165f5260205260ff60405f205416905f52600460205260405f2061491b565b60ff6001541661514457565b63d93c066560e01b5f5260045ffd5b90815f5260036020528160405f205f905f90835f52600460205260405f205f908054915b8260ff821610615495575050505460f91c60ff82161180615483575b1561546057816151b15f516020615f695f395f51905f529385615d9e565b835f516020615f295f395f51905f52608060405160018060a01b0385168152604060208201526009604082015268159bdd1959081bdd5d60ba1b6060820152a261520060405192839283614d15565b0390a25b815f52600460205260405f20915f5b835460ff821610156152a7578061522d6152a2928661491b565b50545f848152600a602090815260408083206001600160a01b0390941680845293825280832080546001600160a01b0319169055868352600b825280832093835292905220805460ff191690556003615286828761491b565b5001805463fffffffb811663ffffffff19909116179055614bbe565b615213565b505f818152600360205260409020600101805460ff60601b191690559091506152cf81615e21565b156152d75750565b5f818152600360205260409020805460ff60e01b1916600560e01b178155600101805461ffff60681b191681556153169063ffffffff61098742614d76565b805f52600460205260405f205f5b815460ff821610156153fa578061533e6153f5928461491b565b50546001600160a01b03166003615355838661491b565b5001805463ffffffe7811663ffffffff199091161790555f858152600c602090815260408083206001600160a01b03949094168084529382528083208381556001908101849055888452600d83528184208585528352818420805460ff19169055888452600e8352818420858552835281842080546001600160a01b03191690558884526012835281842094845293909152812081815590910155614bbe565b615324565b50505f818152601360209081526040808320805460ff1990811690915560148352818420805490911690556015909152812080546001600160a01b03191690557f34b0c4c95aa7776d35dbd8b24afd53388828c61c26fd5a6b11a21809662440879080a2565b50505f516020615f695f395f51905f52604080515f81525f6020820152a2615204565b506001600160a01b0382161515615193565b90919293949550600260036154aa838561491b565b500154166154c8575b6154bc90614bbe565b90879594939291615177565b6154d2818361491b565b50545f898152600b602090815260408083206001600160a01b039094168084529390915290205460ff908116908716811161550f575b50506154b3565b90965094506154bc5f615508565b6001600160a01b0381165f9081525f516020615f895f395f51905f52602052604090205460ff1661559d576001600160a01b03165f8181525f516020615f895f395f51905f5260205260408120805460ff191660011790553391905f516020615f495f395f51905f52905f516020615ea95f395f51905f529080a4600190565b505f90565b5f8181526002602090815260408083206001600160a01b038616845290915290205460ff16615615575f8181526002602090815260408083206001600160a01b0395909516808452949091528120805460ff19166001179055339291905f516020615ea95f395f51905f529080a4600190565b50505f90565b335f9081527fe5ebfa64fca8d502a8e50c1edffd2c31ef4dad5b396e65d9f397fb028f74abc5602052604090205460ff161561565357565b63e2517d3f60e01b5f52336004525f516020615fc95f395f51905f5260245260445ffd5b5f81815260026020908152604080832033845290915290205460ff161561569b5750565b63e2517d3f60e01b5f523360045260245260445ffd5b5f8181526002602090815260408083206001600160a01b038616845290915290205460ff1615615615575f8181526002602090815260408083206001600160a01b0395909516808452949091528120805460ff19169055339291907ff6391f5c32d9c69d2a47ea670b442974b53935d1edc7fd64eb21e047a839171b9080a4600190565b5f818152600360205260409020805460ff60e01b1916600360e01b178155600101805461ffff908116919082146129715761ffff6020918160017fa9b4e96158ed085745975f198fa026959997245ae7e7aed9cd0252ce02b2107195011682198254161781556157ab63ffffffff421682614c5e565b6157c363ffffffff6157bc42614d76565b1682614c7e565b5416604051908152a2565b90815f5260156020528160018060a01b0360405f2054165f825f52600460205260405f205f908054905b8160ff8416106159a5575b505050827fb874a4c95be602274c8e6944d4d375ca4189eda377b69ee751f3b92dd4dcf2d860405180615837858783614bec565b0390a28115159081615991575b50615942575b505f52600460205260405f20915f5b835460ff821610156159085780615873615903928661491b565b50545f848152600c602090815260408083206001600160a01b03909416808452938252808320838155600101839055868352600d82528083208484528252808320805460ff19169055868352600e82528083209383529290522080546001600160a01b031916905560036158e7828761491b565b5001805463ffffffe7811663ffffffff19909116179055614bbe565b615859565b505f818152600360205260409020600101805461ffff60681b1916905590915061593181615e21565b156159395750565b614a1990615735565b60808161595d5f516020615f295f395f51905f529385615d9e565b60405190815260406020820152600f60408201526e12da5b1b195908185d081b9a59da1d608a1b6060820152a2815f61584a565b6001600160a01b031682141590505f615844565b909194506159b3858261491b565b50545f888152600d602090815260408083206001600160a01b039094168084529390915290205460ff169590600487101561061a576002899714615a0257506159fb90614bbe565b91906157f8565b5f878152600e602090815260408083206001600160a01b03948516845290915281205490911694509250829150819050615803565b5f81815260036020908152604091829020805460ff60e01b1916600360e11b178155600101805463ffffffff60381b19169055905181815291927fd778487128ba4386ebcfb2703af01f8a2a2b8663f880622d26a77a29397e68f392918291615aa291830190614a81565b0390a2565b5f52600460205260405f2060ff815416905f5b8260ff821610615ac957505090565b60026003615ad7838561491b565b50015416615aea5760010160ff16615aba565b91505090565b5f52600460205260405f2060ff815416915b8260ff821610615b1157505090565b60026003615b1f838561491b565b50015416615aea5760010160ff16615b02565b5f818152600360205260409020805460ff60e01b1916600160e11b178155600101805464ff000000ff60581b19168155615b749063ffffffff61098742614d76565b5f52600460205260405f20905f5b825460ff82161015615bda578060026003615ba0615bad948761491b565b50015416615bb257614bbe565b615b82565b6003615bbe828661491b565b5001805463ffffff9e811663ffffffff19909116179055614bbe565b509050565b60ff615bea82614e55565b1615615d9b575f81815260046020526040812080546001918390815b8360ff821610615ca7575b505050505f516020615fe95f395f51905f5291818060409390615c95575b15615c8e57815b5f868152601560205284902080546001600160a01b0319166001600160a01b03851617905581615c7b575b5082516001600160a01b03909216825215156020820152a2565b6001600160a01b0316151590505f615c61565b5f91615c36565b506001600160a01b0382161515615c2f565b615cb1818361491b565b50545f888152600f602090815260408083206001600160a01b039094168084529390915290205460ff16600581101561061a5760011480615d81575b615d01575b50615cfc90614bbe565b615c06565b5f8881526012602090815260408083206001600160a01b0394851684529091529020600101549296919392169180615d4357505093615cfc6001925b90615cf2565b9095909290916001600160a01b03871603615d6157615cfc90615d3d565b505050505060405f516020615fe95f395f51905f52915f9181935f615c11565b5060026003615d90848661491b565b500154161515615ced565b50565b90615da981836150b7565b15615e1d57815f52600660205260405f209060018060a01b03165f526020526003615de660ff60405f205416835f52600460205260405f2061491b565b500163ffffffff63fffffffd8254161663ffffffff198254161790555f526003602052614a1960405f206127b5815460f81c614baf565b5050565b805f52600360205260405f205460f81c906001821115615e415750505f90565b615e6e91615e7357604051615e576040826149be565b60048152634472617760e01b602082015290615a37565b600190565b604051615e816040826149be565b60148152734c61737420706c61796572207374616e64696e6760601b602082015290615a3756fe2f8788117e7eff1d82e926ec794901d17c78024a50270940304540a733656f0da4a46989ff60ad96ec74df0f289e1e16b51c97fecb224f2e8e927103d5b54eae3b7d84e02e9f6642b42e0ca3e77297f9c7c807832a60c0fc1926ade76abc7badcf33babc496bb6dc2942b39cb7b75766bbbadf7da50d176ff8c513e991140239b1ed64d561b0179e61c72bf46d0809a99dac99baeb98fc9f5d13be1f6c2e3f82ffea912cee438c2ace68bb665a205db5afc1aaf31713688b377348fe4bfc04f56b571d1c11516ea63adff1048766bdfa510e9c5bf4e32ca29d4ba11e16edf2f152c0a50b3e0eb8697eb4427abb31566d6e8736466643db164c82e75d031572ff8ef7613b6eacaa71c74d950e2c093c23a0d3ecb066d1387d80e95159d07ed08ba49807205ce4d355092ef5a8a18f56e8913cf4a201fbe287825b095693c21775020f20553b51a906b0cb24d2431eb46bd2dc31b5c75d4ba8165ff1bb284ad2a1a2646970667358221220b085e1f27cc054f6defab60bb8ffdc698a3a7a88c62fefdd7562e41cde8b3ae064736f6c634300081c00332f8788117e7eff1d82e926ec794901d17c78024a50270940304540a733656f0dac33ff75c19e70fe83507db0d683fd3465c996598dc972688b7ace676c89077be5ebfa64fca8d502a8e50c1edffd2c31ef4dad5b396e65d9f397fb028f74abc5",
  "linkReferences": {},
  "deployedLinkReferences": {},
  "immutableReferences": {},
  "inputSourceName": "project/contracts/MafiaPortalV4.sol",
  "buildInfoId": "solc-0_8_28-b3995a8bdab520788097a6540c75c75960b3d3c2"
}