{
  "_format": "hh3-artifact-1",
  "contractName": "MafiaPortal",
  "sourceName": "contracts/MafiaPortal.sol",
  "abi": [
    {
      "inputs": [],
      "stateMutability": "nonpayable",
      "type": "constructor"
    },
    {
      "inputs": [],
      "name": "AccessControlBadConfirmation",
      "type": "error"
    },
    {
      "inputs": [
        {
          "internalType": "address",
          "name": "account",
          "type": "address"
        },
        {
          "internalType": "bytes32",
          "name": "neededRole",
          "type": "bytes32"
        }
      ],
      "name": "AccessControlUnauthorizedAccount",
      "type": "error"
    },
    {
      "inputs": [],
      "name": "AlreadyCommitted",
      "type": "error"
    },
    {
      "inputs": [],
      "name": "AlreadyJoined",
      "type": "error"
    },
    {
      "inputs": [],
      "name": "AlreadyRevealed",
      "type": "error"
    },
    {
      "inputs": [],
      "name": "AlreadySharedKeys",
      "type": "error"
    },
    {
      "inputs": [],
      "name": "AlreadyVoted",
      "type": "error"
    },
    {
      "inputs": [],
      "name": "ArrayTooLarge",
      "type": "error"
    },
    {
      "inputs": [],
      "name": "EnforcedPause",
      "type": "error"
    },
    {
      "inputs": [],
      "name": "ExpectedPause",
      "type": "error"
    },
    {
      "inputs": [],
      "name": "InvalidArrayLength",
      "type": "error"
    },
    {
      "inputs": [],
      "name": "InvalidDeckSize",
      "type": "error"
    },
    {
      "inputs": [],
      "name": "InvalidMafiaTargetReveal",
      "type": "error"
    },
    {
      "inputs": [],
      "name": "InvalidPlayerCount",
      "type": "error"
    },
    {
      "inputs": [],
      "name": "InvalidReveal",
      "type": "error"
    },
    {
      "inputs": [],
      "name": "InvalidRoleReveal",
      "type": "error"
    },
    {
      "inputs": [],
      "name": "InvalidSessionAddress",
      "type": "error"
    },
    {
      "inputs": [],
      "name": "InvalidSessionKey",
      "type": "error"
    },
    {
      "inputs": [],
      "name": "MafiaNotReady",
      "type": "error"
    },
    {
      "inputs": [],
      "name": "MafiaTargetAlreadyCommitted",
      "type": "error"
    },
    {
      "inputs": [],
      "name": "MafiaTargetAlreadyRevealed",
      "type": "error"
    },
    {
      "inputs": [],
      "name": "NicknameTooLong",
      "type": "error"
    },
    {
      "inputs": [],
      "name": "NoStalledPlayers",
      "type": "error"
    },
    {
      "inputs": [],
      "name": "NotAllRolesRevealed",
      "type": "error"
    },
    {
      "inputs": [],
      "name": "NotCommitted",
      "type": "error"
    },
    {
      "inputs": [],
      "name": "NotEnoughPlayers",
      "type": "error"
    },
    {
      "inputs": [],
      "name": "NotMafiaMember",
      "type": "error"
    },
    {
      "inputs": [],
      "name": "NotParticipant",
      "type": "error"
    },
    {
      "inputs": [],
      "name": "NotYourTurn",
      "type": "error"
    },
    {
      "inputs": [],
      "name": "PhaseDeadlinePassed",
      "type": "error"
    },
    {
      "inputs": [],
      "name": "PlayerInactive",
      "type": "error"
    },
    {
      "inputs": [],
      "name": "PublicKeyTooLong",
      "type": "error"
    },
    {
      "inputs": [],
      "name": "ReentrancyGuardReentrantCall",
      "type": "error"
    },
    {
      "inputs": [],
      "name": "RoleAlreadyCommitted",
      "type": "error"
    },
    {
      "inputs": [],
      "name": "RoleAlreadyRevealed",
      "type": "error"
    },
    {
      "inputs": [],
      "name": "RoleNotCommitted",
      "type": "error"
    },
    {
      "inputs": [],
      "name": "RoomFull",
      "type": "error"
    },
    {
      "inputs": [],
      "name": "RoomNameTooLong",
      "type": "error"
    },
    {
      "inputs": [],
      "name": "SaltTooLong",
      "type": "error"
    },
    {
      "inputs": [],
      "name": "SessionAlreadyRegistered",
      "type": "error"
    },
    {
      "inputs": [],
      "name": "SessionExpired",
      "type": "error"
    },
    {
      "inputs": [],
      "name": "SessionNotForThisRoom",
      "type": "error"
    },
    {
      "inputs": [],
      "name": "TimeNotExpired",
      "type": "error"
    },
    {
      "inputs": [],
      "name": "Unauthorized",
      "type": "error"
    },
    {
      "inputs": [],
      "name": "WinConditionNotMet",
      "type": "error"
    },
    {
      "inputs": [],
      "name": "WrongPhase",
      "type": "error"
    },
    {
      "anonymous": false,
      "inputs": [
        {
          "indexed": true,
          "internalType": "uint256",
          "name": "roomId",
          "type": "uint256"
        }
      ],
      "name": "AllKeysShared",
      "type": "event"
    },
    {
      "anonymous": false,
      "inputs": [
        {
          "indexed": true,
          "internalType": "uint256",
          "name": "roomId",
          "type": "uint256"
        }
      ],
      "name": "AllRolesConfirmed",
      "type": "event"
    },
    {
      "anonymous": false,
      "inputs": [
        {
          "indexed": true,
          "internalType": "uint256",
          "name": "roomId",
          "type": "uint256"
        },
        {
          "indexed": false,
          "internalType": "uint256",
          "name": "dayNumber",
          "type": "uint256"
        }
      ],
      "name": "DayStarted",
      "type": "event"
    },
    {
      "anonymous": false,
      "inputs": [
        {
          "indexed": true,
          "internalType": "uint256",
          "name": "roomId",
          "type": "uint256"
        },
        {
          "indexed": false,
          "internalType": "address",
          "name": "player",
          "type": "address"
        },
        {
          "indexed": false,
          "internalType": "bytes32",
          "name": "commitHash",
          "type": "bytes32"
        }
      ],
      "name": "DeckCommitted",
      "type": "event"
    },
    {
      "anonymous": false,
      "inputs": [
        {
          "indexed": true,
          "internalType": "uint256",
          "name": "roomId",
          "type": "uint256"
        },
        {
          "indexed": false,
          "internalType": "address",
          "name": "player",
          "type": "address"
        },
        {
          "indexed": false,
          "internalType": "string[]",
          "name": "deck",
          "type": "string[]"
        }
      ],
      "name": "DeckRevealed",
      "type": "event"
    },
    {
      "anonymous": false,
      "inputs": [
        {
          "indexed": true,
          "internalType": "address",
          "name": "admin",
          "type": "address"
        }
      ],
      "name": "EmergencyPause",
      "type": "event"
    },
    {
      "anonymous": false,
      "inputs": [
        {
          "indexed": true,
          "internalType": "address",
          "name": "admin",
          "type": "address"
        }
      ],
      "name": "EmergencyUnpause",
      "type": "event"
    },
    {
      "anonymous": false,
      "inputs": [
        {
          "indexed": true,
          "internalType": "uint256",
          "name": "roomId",
          "type": "uint256"
        },
        {
          "indexed": false,
          "internalType": "string",
          "name": "winCondition",
          "type": "string"
        }
      ],
      "name": "GameEnded",
      "type": "event"
    },
    {
      "anonymous": false,
      "inputs": [
        {
          "indexed": true,
          "internalType": "uint256",
          "name": "roomId",
          "type": "uint256"
        }
      ],
      "name": "GameStarted",
      "type": "event"
    },
    {
      "anonymous": false,
      "inputs": [
        {
          "indexed": true,
          "internalType": "uint256",
          "name": "roomId",
          "type": "uint256"
        },
        {
          "indexed": false,
          "internalType": "address",
          "name": "from",
          "type": "address"
        }
      ],
      "name": "KeysSharedToAll",
      "type": "event"
    },
    {
      "anonymous": false,
      "inputs": [
        {
          "indexed": true,
          "internalType": "uint256",
          "name": "roomId",
          "type": "uint256"
        },
        {
          "indexed": false,
          "internalType": "address",
          "name": "cheater",
          "type": "address"
        },
        {
          "indexed": false,
          "internalType": "enum MafiaPortal.Role",
          "name": "actualRole",
          "type": "uint8"
        }
      ],
      "name": "MafiaCheaterPunished",
      "type": "event"
    },
    {
      "anonymous": false,
      "inputs": [
        {
          "indexed": true,
          "internalType": "uint256",
          "name": "roomId",
          "type": "uint256"
        },
        {
          "indexed": false,
          "internalType": "address",
          "name": "target",
          "type": "address"
        },
        {
          "indexed": false,
          "internalType": "bool",
          "name": "success",
          "type": "bool"
        }
      ],
      "name": "MafiaConsensusReached",
      "type": "event"
    },
    {
      "anonymous": false,
      "inputs": [
        {
          "indexed": true,
          "internalType": "uint256",
          "name": "roomId",
          "type": "uint256"
        },
        {
          "indexed": false,
          "internalType": "address",
          "name": "sender",
          "type": "address"
        },
        {
          "indexed": false,
          "internalType": "bytes",
          "name": "encryptedMessage",
          "type": "bytes"
        }
      ],
      "name": "MafiaMessageSent",
      "type": "event"
    },
    {
      "anonymous": false,
      "inputs": [
        {
          "indexed": true,
          "internalType": "uint256",
          "name": "roomId",
          "type": "uint256"
        },
        {
          "indexed": false,
          "internalType": "address",
          "name": "player",
          "type": "address"
        },
        {
          "indexed": false,
          "internalType": "bytes32",
          "name": "commitHash",
          "type": "bytes32"
        }
      ],
      "name": "MafiaTargetCommitted",
      "type": "event"
    },
    {
      "anonymous": false,
      "inputs": [
        {
          "indexed": true,
          "internalType": "uint256",
          "name": "roomId",
          "type": "uint256"
        },
        {
          "indexed": false,
          "internalType": "address",
          "name": "player",
          "type": "address"
        },
        {
          "indexed": false,
          "internalType": "address",
          "name": "target",
          "type": "address"
        }
      ],
      "name": "MafiaTargetRevealed",
      "type": "event"
    },
    {
      "anonymous": false,
      "inputs": [
        {
          "indexed": true,
          "internalType": "uint256",
          "name": "roomId",
          "type": "uint256"
        },
        {
          "indexed": false,
          "internalType": "address",
          "name": "player",
          "type": "address"
        },
        {
          "indexed": false,
          "internalType": "bytes32",
          "name": "commitHash",
          "type": "bytes32"
        }
      ],
      "name": "NightActionCommitted",
      "type": "event"
    },
    {
      "anonymous": false,
      "inputs": [
        {
          "indexed": true,
          "internalType": "uint256",
          "name": "roomId",
          "type": "uint256"
        },
        {
          "indexed": false,
          "internalType": "address",
          "name": "player",
          "type": "address"
        },
        {
          "indexed": false,
          "internalType": "enum MafiaPortal.NightActionType",
          "name": "action",
          "type": "uint8"
        },
        {
          "indexed": false,
          "internalType": "address",
          "name": "target",
          "type": "address"
        }
      ],
      "name": "NightActionRevealed",
      "type": "event"
    },
    {
      "anonymous": false,
      "inputs": [
        {
          "indexed": true,
          "internalType": "uint256",
          "name": "roomId",
          "type": "uint256"
        },
        {
          "indexed": false,
          "internalType": "address",
          "name": "killed",
          "type": "address"
        },
        {
          "indexed": false,
          "internalType": "address",
          "name": "healed",
          "type": "address"
        }
      ],
      "name": "NightFinalized",
      "type": "event"
    },
    {
      "anonymous": false,
      "inputs": [
        {
          "indexed": true,
          "internalType": "uint256",
          "name": "roomId",
          "type": "uint256"
        }
      ],
      "name": "NightStarted",
      "type": "event"
    },
    {
      "anonymous": false,
      "inputs": [
        {
          "indexed": false,
          "internalType": "address",
          "name": "account",
          "type": "address"
        }
      ],
      "name": "Paused",
      "type": "event"
    },
    {
      "anonymous": false,
      "inputs": [
        {
          "indexed": true,
          "internalType": "uint256",
          "name": "roomId",
          "type": "uint256"
        },
        {
          "indexed": false,
          "internalType": "enum MafiaPortal.GamePhase",
          "name": "phase",
          "type": "uint8"
        }
      ],
      "name": "PhaseTimeout",
      "type": "event"
    },
    {
      "anonymous": false,
      "inputs": [
        {
          "indexed": true,
          "internalType": "uint256",
          "name": "roomId",
          "type": "uint256"
        },
        {
          "indexed": false,
          "internalType": "address",
          "name": "player",
          "type": "address"
        },
        {
          "indexed": false,
          "internalType": "string",
          "name": "reason",
          "type": "string"
        }
      ],
      "name": "PlayerEliminated",
      "type": "event"
    },
    {
      "anonymous": false,
      "inputs": [
        {
          "indexed": true,
          "internalType": "uint256",
          "name": "roomId",
          "type": "uint256"
        },
        {
          "indexed": false,
          "internalType": "address",
          "name": "player",
          "type": "address"
        },
        {
          "indexed": false,
          "internalType": "string",
          "name": "nickname",
          "type": "string"
        },
        {
          "indexed": false,
          "internalType": "address",
          "name": "sessionKey",
          "type": "address"
        }
      ],
      "name": "PlayerJoined",
      "type": "event"
    },
    {
      "anonymous": false,
      "inputs": [
        {
          "indexed": true,
          "internalType": "uint256",
          "name": "roomId",
          "type": "uint256"
        },
        {
          "indexed": false,
          "internalType": "address",
          "name": "player",
          "type": "address"
        },
        {
          "indexed": false,
          "internalType": "string",
          "name": "reason",
          "type": "string"
        }
      ],
      "name": "PlayerKicked",
      "type": "event"
    },
    {
      "anonymous": false,
      "inputs": [
        {
          "indexed": true,
          "internalType": "bytes32",
          "name": "role",
          "type": "bytes32"
        },
        {
          "indexed": true,
          "internalType": "bytes32",
          "name": "previousAdminRole",
          "type": "bytes32"
        },
        {
          "indexed": true,
          "internalType": "bytes32",
          "name": "newAdminRole",
          "type": "bytes32"
        }
      ],
      "name": "RoleAdminChanged",
      "type": "event"
    },
    {
      "anonymous": false,
      "inputs": [
        {
          "indexed": true,
          "internalType": "uint256",
          "name": "roomId",
          "type": "uint256"
        },
        {
          "indexed": false,
          "internalType": "address",
          "name": "player",
          "type": "address"
        },
        {
          "indexed": false,
          "internalType": "bytes32",
          "name": "commitHash",
          "type": "bytes32"
        }
      ],
      "name": "RoleCommitted",
      "type": "event"
    },
    {
      "anonymous": false,
      "inputs": [
        {
          "indexed": true,
          "internalType": "uint256",
          "name": "roomId",
          "type": "uint256"
        },
        {
          "indexed": false,
          "internalType": "address",
          "name": "player",
          "type": "address"
        }
      ],
      "name": "RoleConfirmed",
      "type": "event"
    },
    {
      "anonymous": false,
      "inputs": [
        {
          "indexed": true,
          "internalType": "bytes32",
          "name": "role",
          "type": "bytes32"
        },
        {
          "indexed": true,
          "internalType": "address",
          "name": "account",
          "type": "address"
        },
        {
          "indexed": true,
          "internalType": "address",
          "name": "sender",
          "type": "address"
        }
      ],
      "name": "RoleGranted",
      "type": "event"
    },
    {
      "anonymous": false,
      "inputs": [
        {
          "indexed": true,
          "internalType": "uint256",
          "name": "roomId",
          "type": "uint256"
        },
        {
          "indexed": false,
          "internalType": "address",
          "name": "player",
          "type": "address"
        },
        {
          "indexed": false,
          "internalType": "enum MafiaPortal.Role",
          "name": "role",
          "type": "uint8"
        }
      ],
      "name": "RoleRevealed",
      "type": "event"
    },
    {
      "anonymous": false,
      "inputs": [
        {
          "indexed": true,
          "internalType": "bytes32",
          "name": "role",
          "type": "bytes32"
        },
        {
          "indexed": true,
          "internalType": "address",
          "name": "account",
          "type": "address"
        },
        {
          "indexed": true,
          "internalType": "address",
          "name": "sender",
          "type": "address"
        }
      ],
      "name": "RoleRevoked",
      "type": "event"
    },
    {
      "anonymous": false,
      "inputs": [
        {
          "indexed": true,
          "internalType": "uint256",
          "name": "roomId",
          "type": "uint256"
        },
        {
          "indexed": false,
          "internalType": "address",
          "name": "host",
          "type": "address"
        },
        {
          "indexed": false,
          "internalType": "string",
          "name": "name",
          "type": "string"
        },
        {
          "indexed": false,
          "internalType": "uint256",
          "name": "maxPlayers",
          "type": "uint256"
        }
      ],
      "name": "RoomCreated",
      "type": "event"
    },
    {
      "anonymous": false,
      "inputs": [
        {
          "indexed": true,
          "internalType": "address",
          "name": "mainWallet",
          "type": "address"
        },
        {
          "indexed": true,
          "internalType": "address",
          "name": "sessionKey",
          "type": "address"
        },
        {
          "indexed": false,
          "internalType": "uint256",
          "name": "roomId",
          "type": "uint256"
        },
        {
          "indexed": false,
          "internalType": "uint256",
          "name": "expiresAt",
          "type": "uint256"
        }
      ],
      "name": "SessionKeyRegistered",
      "type": "event"
    },
    {
      "anonymous": false,
      "inputs": [
        {
          "indexed": true,
          "internalType": "address",
          "name": "mainWallet",
          "type": "address"
        },
        {
          "indexed": true,
          "internalType": "address",
          "name": "sessionKey",
          "type": "address"
        }
      ],
      "name": "SessionKeyRevoked",
      "type": "event"
    },
    {
      "anonymous": false,
      "inputs": [
        {
          "indexed": false,
          "internalType": "address",
          "name": "account",
          "type": "address"
        }
      ],
      "name": "Unpaused",
      "type": "event"
    },
    {
      "anonymous": false,
      "inputs": [
        {
          "indexed": true,
          "internalType": "uint256",
          "name": "roomId",
          "type": "uint256"
        },
        {
          "indexed": false,
          "internalType": "address",
          "name": "voter",
          "type": "address"
        },
        {
          "indexed": false,
          "internalType": "address",
          "name": "target",
          "type": "address"
        }
      ],
      "name": "VoteCast",
      "type": "event"
    },
    {
      "anonymous": false,
      "inputs": [
        {
          "indexed": true,
          "internalType": "uint256",
          "name": "roomId",
          "type": "uint256"
        },
        {
          "indexed": false,
          "internalType": "address",
          "name": "eliminated",
          "type": "address"
        },
        {
          "indexed": false,
          "internalType": "uint256",
          "name": "voteCount",
          "type": "uint256"
        }
      ],
      "name": "VotingFinalized",
      "type": "event"
    },
    {
      "anonymous": false,
      "inputs": [
        {
          "indexed": true,
          "internalType": "uint256",
          "name": "roomId",
          "type": "uint256"
        }
      ],
      "name": "VotingStarted",
      "type": "event"
    },
    {
      "inputs": [],
      "name": "ADMIN_ROLE",
      "outputs": [
        {
          "internalType": "bytes32",
          "name": "",
          "type": "bytes32"
        }
      ],
      "stateMutability": "view",
      "type": "function"
    },
    {
      "inputs": [],
      "name": "DEFAULT_ADMIN_ROLE",
      "outputs": [
        {
          "internalType": "bytes32",
          "name": "",
          "type": "bytes32"
        }
      ],
      "stateMutability": "view",
      "type": "function"
    },
    {
      "inputs": [],
      "name": "MAX_ARRAY_SIZE",
      "outputs": [
        {
          "internalType": "uint32",
          "name": "",
          "type": "uint32"
        }
      ],
      "stateMutability": "view",
      "type": "function"
    },
    {
      "inputs": [],
      "name": "NIGHT_TIMEOUT",
      "outputs": [
        {
          "internalType": "uint32",
          "name": "",
          "type": "uint32"
        }
      ],
      "stateMutability": "view",
      "type": "function"
    },
    {
      "inputs": [],
      "name": "PHASE_TIMEOUT",
      "outputs": [
        {
          "internalType": "uint32",
          "name": "",
          "type": "uint32"
        }
      ],
      "stateMutability": "view",
      "type": "function"
    },
    {
      "inputs": [],
      "name": "SESSION_DURATION",
      "outputs": [
        {
          "internalType": "uint32",
          "name": "",
          "type": "uint32"
        }
      ],
      "stateMutability": "view",
      "type": "function"
    },
    {
      "inputs": [],
      "name": "TURN_TIMEOUT",
      "outputs": [
        {
          "internalType": "uint32",
          "name": "",
          "type": "uint32"
        }
      ],
      "stateMutability": "view",
      "type": "function"
    },
    {
      "inputs": [
        {
          "internalType": "uint256",
          "name": "roomId",
          "type": "uint256"
        },
        {
          "internalType": "bytes32",
          "name": "roleHash",
          "type": "bytes32"
        }
      ],
      "name": "commitAndConfirmRole",
      "outputs": [],
      "stateMutability": "nonpayable",
      "type": "function"
    },
    {
      "inputs": [
        {
          "internalType": "uint256",
          "name": "roomId",
          "type": "uint256"
        },
        {
          "internalType": "bytes32",
          "name": "deckHash",
          "type": "bytes32"
        }
      ],
      "name": "commitDeck",
      "outputs": [],
      "stateMutability": "nonpayable",
      "type": "function"
    },
    {
      "inputs": [
        {
          "internalType": "uint256",
          "name": "roomId",
          "type": "uint256"
        },
        {
          "internalType": "bytes32",
          "name": "targetHash",
          "type": "bytes32"
        }
      ],
      "name": "commitMafiaTarget",
      "outputs": [],
      "stateMutability": "nonpayable",
      "type": "function"
    },
    {
      "inputs": [
        {
          "internalType": "uint256",
          "name": "roomId",
          "type": "uint256"
        },
        {
          "internalType": "bytes32",
          "name": "hash",
          "type": "bytes32"
        }
      ],
      "name": "commitNightAction",
      "outputs": [],
      "stateMutability": "nonpayable",
      "type": "function"
    },
    {
      "inputs": [
        {
          "internalType": "uint256",
          "name": "roomId",
          "type": "uint256"
        },
        {
          "internalType": "bytes32",
          "name": "roleHash",
          "type": "bytes32"
        }
      ],
      "name": "commitRole",
      "outputs": [],
      "stateMutability": "nonpayable",
      "type": "function"
    },
    {
      "inputs": [
        {
          "internalType": "uint256",
          "name": "roomId",
          "type": "uint256"
        }
      ],
      "name": "confirmRole",
      "outputs": [],
      "stateMutability": "nonpayable",
      "type": "function"
    },
    {
      "inputs": [
        {
          "internalType": "string",
          "name": "roomName",
          "type": "string"
        },
        {
          "internalType": "uint8",
          "name": "maxPlayers",
          "type": "uint8"
        },
        {
          "internalType": "string",
          "name": "nickname",
          "type": "string"
        },
        {
          "internalType": "bytes",
          "name": "publicKey",
          "type": "bytes"
        },
        {
          "internalType": "address",
          "name": "sessionAddress",
          "type": "address"
        }
      ],
      "name": "createAndJoin",
      "outputs": [
        {
          "internalType": "uint256",
          "name": "",
          "type": "uint256"
        }
      ],
      "stateMutability": "payable",
      "type": "function"
    },
    {
      "inputs": [
        {
          "internalType": "uint256",
          "name": "",
          "type": "uint256"
        },
        {
          "internalType": "address",
          "name": "",
          "type": "address"
        }
      ],
      "name": "deckCommits",
      "outputs": [
        {
          "internalType": "bytes32",
          "name": "commitHash",
          "type": "bytes32"
        },
        {
          "internalType": "bool",
          "name": "revealed",
          "type": "bool"
        }
      ],
      "stateMutability": "view",
      "type": "function"
    },
    {
      "inputs": [
        {
          "internalType": "uint256",
          "name": "roomId",
          "type": "uint256"
        }
      ],
      "name": "endGameAutomatically",
      "outputs": [],
      "stateMutability": "nonpayable",
      "type": "function"
    },
    {
      "inputs": [
        {
          "internalType": "uint256",
          "name": "roomId",
          "type": "uint256"
        },
        {
          "internalType": "uint256[2]",
          "name": "a",
          "type": "uint256[2]"
        },
        {
          "internalType": "uint256[2][2]",
          "name": "b",
          "type": "uint256[2][2]"
        },
        {
          "internalType": "uint256[2]",
          "name": "c",
          "type": "uint256[2]"
        },
        {
          "internalType": "uint256[5]",
          "name": "input",
          "type": "uint256[5]"
        }
      ],
      "name": "endGameZK",
      "outputs": [],
      "stateMutability": "nonpayable",
      "type": "function"
    },
    {
      "inputs": [
        {
          "internalType": "uint256",
          "name": "roomId",
          "type": "uint256"
        }
      ],
      "name": "endNight",
      "outputs": [],
      "stateMutability": "nonpayable",
      "type": "function"
    },
    {
      "inputs": [
        {
          "internalType": "uint256",
          "name": "roomId",
          "type": "uint256"
        }
      ],
      "name": "forcePhaseTimeout",
      "outputs": [],
      "stateMutability": "nonpayable",
      "type": "function"
    },
    {
      "inputs": [
        {
          "internalType": "uint256",
          "name": "roomId",
          "type": "uint256"
        }
      ],
      "name": "getAliveMafiaCount",
      "outputs": [
        {
          "internalType": "uint8",
          "name": "",
          "type": "uint8"
        }
      ],
      "stateMutability": "view",
      "type": "function"
    },
    {
      "inputs": [
        {
          "internalType": "uint256",
          "name": "roomId",
          "type": "uint256"
        }
      ],
      "name": "getAllKeysForMe",
      "outputs": [
        {
          "internalType": "address[]",
          "name": "senders",
          "type": "address[]"
        },
        {
          "internalType": "bytes[]",
          "name": "keys",
          "type": "bytes[]"
        }
      ],
      "stateMutability": "view",
      "type": "function"
    },
    {
      "inputs": [
        {
          "internalType": "uint256",
          "name": "roomId",
          "type": "uint256"
        }
      ],
      "name": "getDeck",
      "outputs": [
        {
          "internalType": "string[]",
          "name": "",
          "type": "string[]"
        }
      ],
      "stateMutability": "view",
      "type": "function"
    },
    {
      "inputs": [
        {
          "internalType": "uint256",
          "name": "roomId",
          "type": "uint256"
        },
        {
          "internalType": "address",
          "name": "from",
          "type": "address"
        },
        {
          "internalType": "address",
          "name": "to",
          "type": "address"
        }
      ],
      "name": "getKeyFromTo",
      "outputs": [
        {
          "internalType": "bytes",
          "name": "",
          "type": "bytes"
        }
      ],
      "stateMutability": "view",
      "type": "function"
    },
    {
      "inputs": [
        {
          "internalType": "uint256",
          "name": "roomId",
          "type": "uint256"
        }
      ],
      "name": "getMafiaChat",
      "outputs": [
        {
          "components": [
            {
              "internalType": "bytes",
              "name": "encryptedMessage",
              "type": "bytes"
            },
            {
              "internalType": "uint32",
              "name": "timestamp",
              "type": "uint32"
            },
            {
              "internalType": "address",
              "name": "sender",
              "type": "address"
            }
          ],
          "internalType": "struct MafiaPortal.MafiaMessage[]",
          "name": "",
          "type": "tuple[]"
        }
      ],
      "stateMutability": "view",
      "type": "function"
    },
    {
      "inputs": [
        {
          "internalType": "uint256",
          "name": "roomId",
          "type": "uint256"
        }
      ],
      "name": "getMafiaConsensus",
      "outputs": [
        {
          "internalType": "uint8",
          "name": "committed",
          "type": "uint8"
        },
        {
          "internalType": "uint8",
          "name": "revealed",
          "type": "uint8"
        },
        {
          "internalType": "address",
          "name": "consensusTarget",
          "type": "address"
        }
      ],
      "stateMutability": "view",
      "type": "function"
    },
    {
      "inputs": [
        {
          "internalType": "uint256",
          "name": "roomId",
          "type": "uint256"
        }
      ],
      "name": "getPhaseDeadline",
      "outputs": [
        {
          "internalType": "uint32",
          "name": "",
          "type": "uint32"
        }
      ],
      "stateMutability": "view",
      "type": "function"
    },
    {
      "inputs": [
        {
          "internalType": "uint256",
          "name": "roomId",
          "type": "uint256"
        },
        {
          "internalType": "address",
          "name": "player",
          "type": "address"
        }
      ],
      "name": "getPlayerFlags",
      "outputs": [
        {
          "internalType": "bool",
          "name": "isActive",
          "type": "bool"
        },
        {
          "internalType": "bool",
          "name": "hasConfirmedRole",
          "type": "bool"
        },
        {
          "internalType": "bool",
          "name": "hasVoted",
          "type": "bool"
        },
        {
          "internalType": "bool",
          "name": "hasCommitted",
          "type": "bool"
        },
        {
          "internalType": "bool",
          "name": "hasRevealed",
          "type": "bool"
        },
        {
          "internalType": "bool",
          "name": "hasSharedKeys",
          "type": "bool"
        },
        {
          "internalType": "bool",
          "name": "hasClaimedMafia",
          "type": "bool"
        }
      ],
      "stateMutability": "view",
      "type": "function"
    },
    {
      "inputs": [
        {
          "internalType": "uint256",
          "name": "roomId",
          "type": "uint256"
        }
      ],
      "name": "getPlayers",
      "outputs": [
        {
          "components": [
            {
              "internalType": "address",
              "name": "wallet",
              "type": "address"
            },
            {
              "internalType": "string",
              "name": "nickname",
              "type": "string"
            },
            {
              "internalType": "bytes",
              "name": "publicKey",
              "type": "bytes"
            },
            {
              "internalType": "uint32",
              "name": "flags",
              "type": "uint32"
            }
          ],
          "internalType": "struct MafiaPortal.Player[]",
          "name": "",
          "type": "tuple[]"
        }
      ],
      "stateMutability": "view",
      "type": "function"
    },
    {
      "inputs": [
        {
          "internalType": "uint256",
          "name": "roomId",
          "type": "uint256"
        }
      ],
      "name": "getRevealedMafiaCount",
      "outputs": [
        {
          "internalType": "uint8",
          "name": "",
          "type": "uint8"
        }
      ],
      "stateMutability": "view",
      "type": "function"
    },
    {
      "inputs": [
        {
          "internalType": "bytes32",
          "name": "role",
          "type": "bytes32"
        }
      ],
      "name": "getRoleAdmin",
      "outputs": [
        {
          "internalType": "bytes32",
          "name": "",
          "type": "bytes32"
        }
      ],
      "stateMutability": "view",
      "type": "function"
    },
    {
      "inputs": [
        {
          "internalType": "uint256",
          "name": "roomId",
          "type": "uint256"
        }
      ],
      "name": "getRoom",
      "outputs": [
        {
          "components": [
            {
              "internalType": "uint64",
              "name": "id",
              "type": "uint64"
            },
            {
              "internalType": "address",
              "name": "host",
              "type": "address"
            },
            {
              "internalType": "string",
              "name": "name",
              "type": "string"
            },
            {
              "internalType": "enum MafiaPortal.GamePhase",
              "name": "phase",
              "type": "uint8"
            },
            {
              "internalType": "uint8",
              "name": "maxPlayers",
              "type": "uint8"
            },
            {
              "internalType": "uint8",
              "name": "playersCount",
              "type": "uint8"
            },
            {
              "internalType": "uint8",
              "name": "aliveCount",
              "type": "uint8"
            },
            {
              "internalType": "uint16",
              "name": "dayCount",
              "type": "uint16"
            },
            {
              "internalType": "uint8",
              "name": "currentShufflerIndex",
              "type": "uint8"
            },
            {
              "internalType": "uint32",
              "name": "lastActionTimestamp",
              "type": "uint32"
            },
            {
              "internalType": "uint32",
              "name": "phaseDeadline",
              "type": "uint32"
            },
            {
              "internalType": "uint8",
              "name": "confirmedCount",
              "type": "uint8"
            },
            {
              "internalType": "uint8",
              "name": "votedCount",
              "type": "uint8"
            },
            {
              "internalType": "uint8",
              "name": "committedCount",
              "type": "uint8"
            },
            {
              "internalType": "uint8",
              "name": "revealedCount",
              "type": "uint8"
            },
            {
              "internalType": "uint8",
              "name": "keysSharedCount",
              "type": "uint8"
            }
          ],
          "internalType": "struct MafiaPortal.GameRoom",
          "name": "",
          "type": "tuple"
        }
      ],
      "stateMutability": "view",
      "type": "function"
    },
    {
      "inputs": [
        {
          "internalType": "bytes32",
          "name": "role",
          "type": "bytes32"
        },
        {
          "internalType": "address",
          "name": "account",
          "type": "address"
        }
      ],
      "name": "grantRole",
      "outputs": [],
      "stateMutability": "nonpayable",
      "type": "function"
    },
    {
      "inputs": [
        {
          "internalType": "bytes32",
          "name": "role",
          "type": "bytes32"
        },
        {
          "internalType": "address",
          "name": "account",
          "type": "address"
        }
      ],
      "name": "hasRole",
      "outputs": [
        {
          "internalType": "bool",
          "name": "",
          "type": "bool"
        }
      ],
      "stateMutability": "view",
      "type": "function"
    },
    {
      "inputs": [
        {
          "internalType": "uint256",
          "name": "",
          "type": "uint256"
        },
        {
          "internalType": "address",
          "name": "",
          "type": "address"
        }
      ],
      "name": "isPlayerInRoom",
      "outputs": [
        {
          "internalType": "bool",
          "name": "",
          "type": "bool"
        }
      ],
      "stateMutability": "view",
      "type": "function"
    },
    {
      "inputs": [
        {
          "internalType": "address",
          "name": "",
          "type": "address"
        }
      ],
      "name": "isRegisteredSession",
      "outputs": [
        {
          "internalType": "bool",
          "name": "",
          "type": "bool"
        }
      ],
      "stateMutability": "view",
      "type": "function"
    },
    {
      "inputs": [
        {
          "internalType": "uint256",
          "name": "roomId",
          "type": "uint256"
        },
        {
          "internalType": "string",
          "name": "nickname",
          "type": "string"
        },
        {
          "internalType": "bytes",
          "name": "publicKey",
          "type": "bytes"
        },
        {
          "internalType": "address",
          "name": "sessionAddress",
          "type": "address"
        }
      ],
      "name": "joinRoom",
      "outputs": [],
      "stateMutability": "payable",
      "type": "function"
    },
    {
      "inputs": [
        {
          "internalType": "uint256",
          "name": "",
          "type": "uint256"
        },
        {
          "internalType": "uint256",
          "name": "",
          "type": "uint256"
        }
      ],
      "name": "mafiaChat",
      "outputs": [
        {
          "internalType": "bytes",
          "name": "encryptedMessage",
          "type": "bytes"
        },
        {
          "internalType": "uint32",
          "name": "timestamp",
          "type": "uint32"
        },
        {
          "internalType": "address",
          "name": "sender",
          "type": "address"
        }
      ],
      "stateMutability": "view",
      "type": "function"
    },
    {
      "inputs": [
        {
          "internalType": "uint256",
          "name": "",
          "type": "uint256"
        }
      ],
      "name": "mafiaCommittedCount",
      "outputs": [
        {
          "internalType": "uint8",
          "name": "",
          "type": "uint8"
        }
      ],
      "stateMutability": "view",
      "type": "function"
    },
    {
      "inputs": [
        {
          "internalType": "uint256",
          "name": "",
          "type": "uint256"
        }
      ],
      "name": "mafiaConsensusTarget",
      "outputs": [
        {
          "internalType": "address",
          "name": "",
          "type": "address"
        }
      ],
      "stateMutability": "view",
      "type": "function"
    },
    {
      "inputs": [
        {
          "internalType": "uint256",
          "name": "",
          "type": "uint256"
        }
      ],
      "name": "mafiaRevealedCount",
      "outputs": [
        {
          "internalType": "uint8",
          "name": "",
          "type": "uint8"
        }
      ],
      "stateMutability": "view",
      "type": "function"
    },
    {
      "inputs": [
        {
          "internalType": "uint256",
          "name": "",
          "type": "uint256"
        },
        {
          "internalType": "address",
          "name": "",
          "type": "address"
        }
      ],
      "name": "mafiaTargetCommits",
      "outputs": [
        {
          "internalType": "bytes32",
          "name": "commitHash",
          "type": "bytes32"
        },
        {
          "internalType": "address",
          "name": "target",
          "type": "address"
        },
        {
          "internalType": "bool",
          "name": "revealed",
          "type": "bool"
        }
      ],
      "stateMutability": "view",
      "type": "function"
    },
    {
      "inputs": [],
      "name": "nextRoomId",
      "outputs": [
        {
          "internalType": "uint256",
          "name": "",
          "type": "uint256"
        }
      ],
      "stateMutability": "view",
      "type": "function"
    },
    {
      "inputs": [
        {
          "internalType": "uint256",
          "name": "",
          "type": "uint256"
        },
        {
          "internalType": "address",
          "name": "",
          "type": "address"
        }
      ],
      "name": "nightCommits",
      "outputs": [
        {
          "internalType": "bytes32",
          "name": "commitHash",
          "type": "bytes32"
        },
        {
          "internalType": "bool",
          "name": "revealed",
          "type": "bool"
        },
        {
          "internalType": "uint32",
          "name": "commitTime",
          "type": "uint32"
        }
      ],
      "stateMutability": "view",
      "type": "function"
    },
    {
      "inputs": [],
      "name": "pause",
      "outputs": [],
      "stateMutability": "nonpayable",
      "type": "function"
    },
    {
      "inputs": [],
      "name": "paused",
      "outputs": [
        {
          "internalType": "bool",
          "name": "",
          "type": "bool"
        }
      ],
      "stateMutability": "view",
      "type": "function"
    },
    {
      "inputs": [
        {
          "internalType": "uint256",
          "name": "",
          "type": "uint256"
        },
        {
          "internalType": "address",
          "name": "",
          "type": "address"
        },
        {
          "internalType": "address",
          "name": "",
          "type": "address"
        }
      ],
      "name": "playerDeckKeys",
      "outputs": [
        {
          "internalType": "bytes",
          "name": "",
          "type": "bytes"
        }
      ],
      "stateMutability": "view",
      "type": "function"
    },
    {
      "inputs": [
        {
          "internalType": "uint256",
          "name": "",
          "type": "uint256"
        },
        {
          "internalType": "address",
          "name": "",
          "type": "address"
        }
      ],
      "name": "playerIndex",
      "outputs": [
        {
          "internalType": "uint8",
          "name": "",
          "type": "uint8"
        }
      ],
      "stateMutability": "view",
      "type": "function"
    },
    {
      "inputs": [
        {
          "internalType": "uint256",
          "name": "",
          "type": "uint256"
        },
        {
          "internalType": "address",
          "name": "",
          "type": "address"
        }
      ],
      "name": "playerRoles",
      "outputs": [
        {
          "internalType": "enum MafiaPortal.Role",
          "name": "",
          "type": "uint8"
        }
      ],
      "stateMutability": "view",
      "type": "function"
    },
    {
      "inputs": [
        {
          "internalType": "bytes32",
          "name": "role",
          "type": "bytes32"
        },
        {
          "internalType": "address",
          "name": "callerConfirmation",
          "type": "address"
        }
      ],
      "name": "renounceRole",
      "outputs": [],
      "stateMutability": "nonpayable",
      "type": "function"
    },
    {
      "inputs": [
        {
          "internalType": "uint256",
          "name": "roomId",
          "type": "uint256"
        },
        {
          "internalType": "string[]",
          "name": "deck",
          "type": "string[]"
        },
        {
          "internalType": "string",
          "name": "salt",
          "type": "string"
        }
      ],
      "name": "revealDeck",
      "outputs": [],
      "stateMutability": "nonpayable",
      "type": "function"
    },
    {
      "inputs": [
        {
          "internalType": "uint256",
          "name": "roomId",
          "type": "uint256"
        },
        {
          "internalType": "address",
          "name": "target",
          "type": "address"
        },
        {
          "internalType": "string",
          "name": "salt",
          "type": "string"
        }
      ],
      "name": "revealMafiaTarget",
      "outputs": [],
      "stateMutability": "nonpayable",
      "type": "function"
    },
    {
      "inputs": [
        {
          "internalType": "uint256",
          "name": "roomId",
          "type": "uint256"
        },
        {
          "internalType": "enum MafiaPortal.NightActionType",
          "name": "action",
          "type": "uint8"
        },
        {
          "internalType": "address",
          "name": "target",
          "type": "address"
        },
        {
          "internalType": "string",
          "name": "salt",
          "type": "string"
        }
      ],
      "name": "revealNightAction",
      "outputs": [],
      "stateMutability": "nonpayable",
      "type": "function"
    },
    {
      "inputs": [
        {
          "internalType": "uint256",
          "name": "roomId",
          "type": "uint256"
        },
        {
          "internalType": "enum MafiaPortal.Role",
          "name": "role",
          "type": "uint8"
        },
        {
          "internalType": "string",
          "name": "salt",
          "type": "string"
        }
      ],
      "name": "revealRole",
      "outputs": [],
      "stateMutability": "nonpayable",
      "type": "function"
    },
    {
      "inputs": [
        {
          "internalType": "uint256",
          "name": "",
          "type": "uint256"
        },
        {
          "internalType": "address",
          "name": "",
          "type": "address"
        }
      ],
      "name": "revealedActions",
      "outputs": [
        {
          "internalType": "enum MafiaPortal.NightActionType",
          "name": "",
          "type": "uint8"
        }
      ],
      "stateMutability": "view",
      "type": "function"
    },
    {
      "inputs": [
        {
          "internalType": "uint256",
          "name": "",
          "type": "uint256"
        },
        {
          "internalType": "uint256",
          "name": "",
          "type": "uint256"
        }
      ],
      "name": "revealedDeck",
      "outputs": [
        {
          "internalType": "string",
          "name": "",
          "type": "string"
        }
      ],
      "stateMutability": "view",
      "type": "function"
    },
    {
      "inputs": [
        {
          "internalType": "uint256",
          "name": "",
          "type": "uint256"
        },
        {
          "internalType": "address",
          "name": "",
          "type": "address"
        }
      ],
      "name": "revealedTargets",
      "outputs": [
        {
          "internalType": "address",
          "name": "",
          "type": "address"
        }
      ],
      "stateMutability": "view",
      "type": "function"
    },
    {
      "inputs": [
        {
          "internalType": "bytes32",
          "name": "role",
          "type": "bytes32"
        },
        {
          "internalType": "address",
          "name": "account",
          "type": "address"
        }
      ],
      "name": "revokeRole",
      "outputs": [],
      "stateMutability": "nonpayable",
      "type": "function"
    },
    {
      "inputs": [],
      "name": "revokeSessionKey",
      "outputs": [],
      "stateMutability": "nonpayable",
      "type": "function"
    },
    {
      "inputs": [
        {
          "internalType": "uint256",
          "name": "",
          "type": "uint256"
        },
        {
          "internalType": "address",
          "name": "",
          "type": "address"
        }
      ],
      "name": "roleCommits",
      "outputs": [
        {
          "internalType": "bytes32",
          "name": "",
          "type": "bytes32"
        }
      ],
      "stateMutability": "view",
      "type": "function"
    },
    {
      "inputs": [
        {
          "internalType": "uint256",
          "name": "",
          "type": "uint256"
        },
        {
          "internalType": "uint256",
          "name": "",
          "type": "uint256"
        }
      ],
      "name": "roomPlayers",
      "outputs": [
        {
          "internalType": "address",
          "name": "wallet",
          "type": "address"
        },
        {
          "internalType": "string",
          "name": "nickname",
          "type": "string"
        },
        {
          "internalType": "bytes",
          "name": "publicKey",
          "type": "bytes"
        },
        {
          "internalType": "uint32",
          "name": "flags",
          "type": "uint32"
        }
      ],
      "stateMutability": "view",
      "type": "function"
    },
    {
      "inputs": [
        {
          "internalType": "uint256",
          "name": "",
          "type": "uint256"
        }
      ],
      "name": "rooms",
      "outputs": [
        {
          "internalType": "uint64",
          "name": "id",
          "type": "uint64"
        },
        {
          "internalType": "address",
          "name": "host",
          "type": "address"
        },
        {
          "internalType": "string",
          "name": "name",
          "type": "string"
        },
        {
          "internalType": "enum MafiaPortal.GamePhase",
          "name": "phase",
          "type": "uint8"
        },
        {
          "internalType": "uint8",
          "name": "maxPlayers",
          "type": "uint8"
        },
        {
          "internalType": "uint8",
          "name": "playersCount",
          "type": "uint8"
        },
        {
          "internalType": "uint8",
          "name": "aliveCount",
          "type": "uint8"
        },
        {
          "internalType": "uint16",
          "name": "dayCount",
          "type": "uint16"
        },
        {
          "internalType": "uint8",
          "name": "currentShufflerIndex",
          "type": "uint8"
        },
        {
          "internalType": "uint32",
          "name": "lastActionTimestamp",
          "type": "uint32"
        },
        {
          "internalType": "uint32",
          "name": "phaseDeadline",
          "type": "uint32"
        },
        {
          "internalType": "uint8",
          "name": "confirmedCount",
          "type": "uint8"
        },
        {
          "internalType": "uint8",
          "name": "votedCount",
          "type": "uint8"
        },
        {
          "internalType": "uint8",
          "name": "committedCount",
          "type": "uint8"
        },
        {
          "internalType": "uint8",
          "name": "revealedCount",
          "type": "uint8"
        },
        {
          "internalType": "uint8",
          "name": "keysSharedCount",
          "type": "uint8"
        }
      ],
      "stateMutability": "view",
      "type": "function"
    },
    {
      "inputs": [
        {
          "internalType": "uint256",
          "name": "roomId",
          "type": "uint256"
        },
        {
          "internalType": "bytes",
          "name": "encryptedMessage",
          "type": "bytes"
        }
      ],
      "name": "sendMafiaMessage",
      "outputs": [],
      "stateMutability": "nonpayable",
      "type": "function"
    },
    {
      "inputs": [
        {
          "internalType": "address",
          "name": "",
          "type": "address"
        }
      ],
      "name": "sessionKeys",
      "outputs": [
        {
          "internalType": "address",
          "name": "sessionAddress",
          "type": "address"
        },
        {
          "internalType": "uint32",
          "name": "expiresAt",
          "type": "uint32"
        },
        {
          "internalType": "uint64",
          "name": "roomId",
          "type": "uint64"
        },
        {
          "internalType": "bool",
          "name": "isActive",
          "type": "bool"
        }
      ],
      "stateMutability": "view",
      "type": "function"
    },
    {
      "inputs": [
        {
          "internalType": "address",
          "name": "",
          "type": "address"
        }
      ],
      "name": "sessionToMain",
      "outputs": [
        {
          "internalType": "address",
          "name": "",
          "type": "address"
        }
      ],
      "stateMutability": "view",
      "type": "function"
    },
    {
      "inputs": [
        {
          "internalType": "address",
          "name": "v",
          "type": "address"
        }
      ],
      "name": "setZkVerifier",
      "outputs": [],
      "stateMutability": "nonpayable",
      "type": "function"
    },
    {
      "inputs": [
        {
          "internalType": "uint256",
          "name": "roomId",
          "type": "uint256"
        },
        {
          "internalType": "address[]",
          "name": "recipients",
          "type": "address[]"
        },
        {
          "internalType": "bytes[]",
          "name": "encryptedKeys",
          "type": "bytes[]"
        }
      ],
      "name": "shareKeysToAll",
      "outputs": [],
      "stateMutability": "nonpayable",
      "type": "function"
    },
    {
      "inputs": [
        {
          "internalType": "uint256",
          "name": "roomId",
          "type": "uint256"
        }
      ],
      "name": "startGame",
      "outputs": [],
      "stateMutability": "nonpayable",
      "type": "function"
    },
    {
      "inputs": [
        {
          "internalType": "uint256",
          "name": "roomId",
          "type": "uint256"
        }
      ],
      "name": "startVoting",
      "outputs": [],
      "stateMutability": "nonpayable",
      "type": "function"
    },
    {
      "inputs": [
        {
          "internalType": "bytes4",
          "name": "interfaceId",
          "type": "bytes4"
        }
      ],
      "name": "supportsInterface",
      "outputs": [
        {
          "internalType": "bool",
          "name": "",
          "type": "bool"
        }
      ],
      "stateMutability": "view",
      "type": "function"
    },
    {
      "inputs": [],
      "name": "unpause",
      "outputs": [],
      "stateMutability": "nonpayable",
      "type": "function"
    },
    {
      "inputs": [
        {
          "internalType": "uint256",
          "name": "roomId",
          "type": "uint256"
        },
        {
          "internalType": "address",
          "name": "target",
          "type": "address"
        }
      ],
      "name": "vote",
      "outputs": [],
      "stateMutability": "nonpayable",
      "type": "function"
    },
    {
      "inputs": [
        {
          "internalType": "uint256",
          "name": "",
          "type": "uint256"
        },
        {
          "internalType": "address",
          "name": "",
          "type": "address"
        }
      ],
      "name": "voteCounts",
      "outputs": [
        {
          "internalType": "uint8",
          "name": "",
          "type": "uint8"
        }
      ],
      "stateMutability": "view",
      "type": "function"
    },
    {
      "inputs": [
        {
          "internalType": "uint256",
          "name": "",
          "type": "uint256"
        },
        {
          "internalType": "address",
          "name": "",
          "type": "address"
        }
      ],
      "name": "votes",
      "outputs": [
        {
          "internalType": "address",
          "name": "",
          "type": "address"
        }
      ],
      "stateMutability": "view",
      "type": "function"
    },
    {
      "inputs": [],
      "name": "withdrawFees",
      "outputs": [],
      "stateMutability": "nonpayable",
      "type": "function"
    },
    {
      "inputs": [],
      "name": "zkVerifier",
      "outputs": [
        {
          "internalType": "address",
          "name": "",
          "type": "address"
        }
      ],
      "stateMutability": "view",
      "type": "function"
    }
  ],
  "bytecode": "0x6080604052346100355760015f556001601a5561001b33610039565b50610025336100af565b50604051616e1190816101438239f35b5f80fd5b6001600160a01b0381165f9081525f516020616f745f395f51905f52602052604090205460ff166100aa576001600160a01b03165f8181525f516020616f745f395f51905f5260205260408120805460ff191660011790553391905f516020616f545f395f51905f528180a4600190565b505f90565b6001600160a01b0381165f9081525f516020616f945f395f51905f52602052604090205460ff166100aa576001600160a01b03165f8181525f516020616f945f395f51905f5260205260408120805460ff191660011790553391907fa49807205ce4d355092ef5a8a18f56e8913cf4a201fbe287825b095693c21775905f516020616f545f395f51905f529080a460019056fe6080806040526004361015610012575f80fd5b5f3560e01c90816301ffc9a7146150535750806302d947ef14614d3057806307a52cab14614d1357806309ed3e2214614c7e57806312c57f55146113f257806314a09d6014614c485780631bae0ac814614b31578063248a9ca314614b0b5780632a51fb3a14614a365780632f2ff15d14614a0557806330a05e7314612adb57806334ad36f6146146d257806335b972991461465d57806336568abe1461461957806337048f211461452e5780633d2f5bda146143975780633deaa3411461437b5780633ec09d2c1461433e5780633f4ba83a146142b35780633fb5d9f51461410e57806343cd690314613f10578063460e204914613dbd578063476343ee14613d5357806348e69d1f14613cb45780634f324d1414613c745780635099fae214613b73578063567e8dd514613b215780635c975abb14613aff5780635d99dc3e14613a585780635e82ff6514613a3d57806361ea2027146139f65780636594bb0c1461363b578063660e907c146135f2578063669ead17146135a65780636920e3ee146135795780636d8a74cb146132f95780636e2083f4146132c75780637120465b146130b857806375b238fc146130915780637fa9c28914613076578063800122d614612b0857806382fab9d814612adb57806384411c0a14612a945780638456cb5914612a175780638a8dd7f4146129d35780638d29f52f1461297457806391d148541461292b57806394225e9d146125f657806396913528146125b3578063a05bcf021461257c578063a217fddf14612562578063aa55acbf146124fd578063ac204410146124e2578063af3847911461212b578063af7efa7c14612110578063b6bf359a14611e5c578063b7b8d60414611df4578063bb9ae87514611a2f578063bcb721591461183b578063c96f09791461162a578063d0655394146114fd578063d23254b4146114b3578063d547741f1461147b578063d6df096d14611453578063d94a51cb146113f2578063dae2928a1461102c578063e5ed1d5914610f1a578063e851122d14610ecc578063ea99c3fe14610de3578063eb02410114610929578063eb0fa6f8146108df578063f14caed71461087c578063f30818ff1461077f578063f3db5133146106a85763ff99233a14610355575f80fd5b346106a45760603660031901126106a4576004356103716150a6565b6044356001600160401b0381116106a4576103909036906004016152d2565b91610399615a01565b6103a284615a1f565b845f52600660205260405f2060018060a01b0382165f5260205260ff60405f20541615610624576103d39085615aa5565b1561061557835f52600460205263ffffffff600260405f20015460581c16151580610683575b61067457610405615b61565b61040e84615a1f565b92845f52600460205260ff600260405f2001541660078110156106605760050361065157845f52601160205260405f2060018060a01b0385165f5260205260405f20541561064257845f52601360205260405f2060018060a01b0385165f5260205260ff600160405f20015460a01c166106335761048c8486615b7c565b6001600160a01b03821692836105e7575b6104d06104c2916040519283916020830195888752604080850152606084019161547c565b03601f19810183528261518b565b519020845f52601360205260405f2060018060a01b0385165f5260205260405f2054036105d8575f8481526013602090815260408083206001600160a01b03871684528252808320600101805460ff60a01b199096166001600160a81b031990961695909517600160a01b179094558582526015905291909120805484937f307ed77ec1f8fe53e10faa7fa486ba5e5b66eab3a9d19902c20b0da3c3b0b26a9392909160ff90610581908216615358565b1660ff1982541617905561059a60405192839283615386565b0390a2805f52601560205260ff60405f205416815f52601460205260ff60405f205416146105c9575b60015f55005b6105d290616a12565b5f6105c3565b6336c5b53760e11b5f5260045ffd5b855f52600660205260405f20845f5260205260ff60405f20541615610624576106108387615aa5565b61049d575b630575d90f60e11b5f5260045ffd5b63721c7c6760e11b5f5260045ffd5b633a456ae760e11b5f5260045ffd5b631ea3b68b60e21b5f5260045ffd5b6338961af360e21b5f5260045ffd5b634e487b7160e01b5f52602160045260245ffd5b6301a6f70d60e01b5f5260045ffd5b50835f52600460205263ffffffff600260405f20015460581c1642116103f9565b5f80fd5b346106a45760203660031901126106a4576004355f5f5b825f52600560205260405f205460ff8216101561077157825f5260056020526106eb8160405f206150e8565b50545f8481526010602090815260408083206001600160a01b039094168352929052205460ff166005811015610660576001148061074c575b610737575b61073290615358565b6106bf565b9061074461073291615358565b919050610729565b50825f526005602052600260036107668360405f206150e8565b500154161515610724565b60208260ff60405191168152f35b346106a45760203660031901126106a45760043561079b615a01565b6107a481615a1f565b815f52600660205260405f2060018060a01b0382165f5260205260ff60405f20541615610624576107d59082615aa5565b15610615576107e2615b61565b805f52600460205260ff600260405f200154166007811015610660578015908115610871575b506106515761081681616879565b156108625761082481616915565b901561083d57506105c3906108376159d9565b9061611a565b156108535761084e906108376159b2565b6105c3565b63308ce0f960e11b5f5260045ffd5b63837cd79f60e01b5f5260045ffd5b600691501482610808565b346106a45760403660031901126106a4576108956150a6565b6004355f52600d60205260405f209060018060a01b03165f52602052606060405f2063ffffffff6001825492015460405192835260ff81161515602084015260081c166040820152f35b346106a45760403660031901126106a4576108f86150a6565b6004355f908152600f602090815260408083206001600160a01b039485168452825291829020549151919092168152f35b346106a45760603660031901126106a4576004356024356001600160401b0381116106a45761095c90369060040161530c565b6044356001600160401b0381116106a45761097b9036906004016152d2565b92610984615a01565b61098d85615a1f565b855f52600660205260405f2060018060a01b0382165f5260205260ff60405f20541615610624576109be9086615aa5565b1561061557845f52600460205263ffffffff600260405f20015460581c16151580610dc2575b610674576109f0615b61565b6109f985615a1f565b91855f526004602052600260405f20019485549160ff831660078110156106605760010361065157610a576104c291604051928391602083019560408752610a45606085018c8b61591c565b848103601f190160408601529161547c565b519020865f52600860205260405f2060018060a01b0385165f5260205260405f205403610db35760328411610da457855f52600960205260405f2054159081610d94575b50610d6f57845f52600960205260405f2054151580610d7e575b610d6f575f858152600960205260409020600160401b8411610ce4578054848255808510610cf8575b505f908152602081208694939291825b858210610c005750505090610bd17f1522116f5d4e7ac5527e161307d73b93c621a9a7627553f584afb6b6f62a74e79392855f52600860205260405f2060018060a01b0384165f52602052600260405f2001600160ff19825416179055610bb0610b67610b6160ff8a5460301c166159a0565b8861678e565b97610b728982615805565b610b8263ffffffff421682615822565b610b9a63ffffffff610b93426153c9565b168261540d565b610baa60ff825460901c16615358565b9061549c565b60405193849360018060a01b0316845260406020850152604084019161591c565b0390a2815f52600560205260ff60405f205491161015610bf15760015f55005b610bfa906167d5565b806105c3565b90919293949550610c1181856158b3565b906001600160401b038211610ce457610c3482610c2e8754615101565b87615505565b5f90601f8311600114610c7a5792610c5d836001959460209487965f92610c6f575b5050615548565b86555b01930191018795949392610aee565b013590508e80610c56565b601f19831691865f5260205f20925f5b818110610ccc5750936020936001969387969383889510610cb3575b505050811b018655610c60565b01355f19600384901b60f8161c191690558d8080610ca6565b91936020600181928787013581550195019201610c8a565b634e487b7160e01b5f52604160045260245ffd5b815f528460205f2091820191015b818110610d135750610ade565b80610d2060019254615101565b80610d2d575b5001610d06565b601f81118314610d4257505f81555b89610d26565b610d5e90825f5283601f60205f20920160051c820191016154ef565b805f525f6020812081835555610d3c565b63d1d2a30960e01b5f5260045ffd5b50845f52600960205260405f2054831415610ab5565b60ff915060101c16831086610a9b565b63376ab11160e01b5f5260045ffd5b639ea6d12760e01b5f5260045ffd5b50845f52600460205263ffffffff600260405f20015460581c1642116109e4565b346106a45760203660031901126106a457600435610dff615a01565b610e0881615a1f565b815f52600660205260405f2060018060a01b0382165f5260205260ff60405f2054161561062457610e399082615aa5565b1561061557610e46615b61565b805f526004602052600260405f20015460ff811660078110156106605760050361065157815f52601460205260ff60405f2054168015159081610eb3575b50610ea45760ff808260881c169160901c1610610db3576105c3906164d8565b6303488f9960e61b5f5260045ffd5b9050825f52601560205260ff60405f2054161083610e84565b346106a45760403660031901126106a457610ee56150a6565b6004355f52601060205260405f209060018060a01b03165f52602052602060ff60405f205416610f18604051809261533c565bf35b346106a45760203660031901126106a457600435610f36615a01565b610f3f81615a1f565b815f52600660205260405f2060018060a01b0382165f5260205260ff60405f2054161561062457610f709082615aa5565b1561061557610f7d615b61565b805f526004602052600260405f2001805460ff81166007811015610660576106515760ff60049160101c161061101d57805460ff19166001178155610ff390610fce610fc884616741565b82615805565b610fde63ffffffff421682615822565b63ffffffff610fec426153c9565b169061540d565b7f50ad08f58a27f2851d7e3a1b3a6a46b290f2ce677e99642d30ff639721e777905f80a260015f55005b63f770074360e01b5f5260045ffd5b346106a45760203660031901126106a457600435611048615a01565b61105181615a1f565b815f52600660205260405f2060018060a01b0382165f5260205260ff60405f20541615610624576110829082615aa5565b156106155761108f615b61565b805f526004602052600260405f2001805463ffffffff8160581c1680159081156113e7575b506113d85760ff16827f77ff69c1f99cadd93a6da75080e20a3fed43f1d42375051a5d162adcafc5fbb760206040516110ed81866152ac565ba260078110156106605760018103611241575050805f526004602052600260405f20018160ff825460301c16815f52600560205260405f205481106111cc575b505061114861114260ff835460301c166159a0565b8361678e565b6111528183615805565b61116263ffffffff421683615822565b61117a63ffffffff611173426153c9565b168361540d565b825f52600560205260ff60405f20549116101561119a575b505060015f55005b54600260189190911c60ff16106111bb576111b4906167d5565b8080611192565b6111c7906108376158e5565b6111b4565b60806111f15f516020616d5c5f395f51905f5292845f52600560205260405f206150e8565b50546001600160a01b0316611206818561644f565b60405190815260406020820152601660408201527554696d656f757420647572696e672073687566666c6560501b6060820152a2818361112d565b600281036113685750815f52600560205260405f205f5b815460ff8216101561134057806002600361127661128394866150e8565b5001541661128857615358565b611258565b6020600361129683866150e8565b5001541615600160036112a984876150e8565b50015416158115611338575b5015615358576112d96112c882856150e8565b50546001600160a01b03168661644f565b845f516020616d5c5f395f51905f5260806112f484876150e8565b5054604080516001600160a01b0390921682526020820181905260159082015274151a5b595bdd5d08191d5c9a5b99c81c995d99585b605a1b6060820152a2615358565b9050866112b5565b505054600260189190911c60ff161061135c5761084e90616203565b61084e906108376158e5565b6004810361137b57505061084e90615c2a565b6005810361138e57505061084e906164d8565b60031461139d575b50506105c3565b805460ff60ff60801b01191660041781556113c09063ffffffff610fec426153c9565b5f516020616cfc5f395f51905f525f80a28080611396565b63489e8c8960e01b5f5260045ffd5b9050421115846110b4565b346106a45761140036615272565b915f52600a60205260405f209060018060a01b03165f5260205260405f209060018060a01b03165f5260205261144f61143b60405f206151ae565b60405191829160208352602083019061524e565b0390f35b346106a4575f3660031901126106a4576003546040516001600160a01b039091168152602090f35b346106a45760403660031901126106a4576114b160043561149a6150a6565b906114ac6114a7826153a0565b616054565b61617f565b005b346106a45760403660031901126106a4576114cc6150a6565b6004355f908152600b602090815260408083206001600160a01b039485168452825291829020549151919092168152f35b346106a45760203660031901126106a4576004355f52601260205260405f20805490611528826153b2565b91611536604051938461518b565b8083526020830180925f5260205f205f915b8383106115e057848660405191829160208301906020845251809152604083019060408160051b85010192915f905b82821061158657505050500390f35b919360019193955060208091603f1989820301855287519060406115b3835160608452606084019061524e565b9263ffffffff85820151168584015281878060a01b03910151169101529601920192018594939192611577565b600260206001926040516115f381615170565b6115fc866151ae565b81528486015463ffffffff811684830152858060a01b0390841c166040820152815201920192019190611548565b346106a457611638366150d2565b611640615a01565b61164982615a1f565b825f52600660205260405f2060018060a01b0382165f5260205260ff60405f205416156106245761167a9083615aa5565b1561061557815f52600460205263ffffffff600260405f20015460581c1615158061181a575b610674576116ac615b61565b6116b582615a1f565b90825f526004602052600260405f20019160ff835416600781101561066057600503610651576116e58185615b25565b61180b576117f37f3cf64897479c2ba314a5a0e8cf3a0e097d9367de65da54961e4dc414836499009360405161171a81615170565b84815260208101905f82526117706001604083019263ffffffff421684528a5f52600d60205260405f20828060a01b0389165f5260205260405f20905181550192511515839060ff801983541691151516179055565b5164ffffffff0082549160081b169064ffffffff001916179055855f52600760205260405f2060018060a01b0384165f5260205260036117c260ff60405f205416885f52600560205260405f206150e8565b500163ffffffff600881835416171663ffffffff198254161790556117ed60ff825460881c16615358565b90615845565b611802604051928392836153f2565b0390a260015f55005b6317fd8aab60e31b5f5260045ffd5b50815f52600460205263ffffffff600260405f20015460581c1642116116a0565b346106a457611849366150d2565b611851615a01565b61185a82615a1f565b825f52600660205260405f2060018060a01b0382165f5260205260ff60405f205416156106245761188b9083615aa5565b1561061557815f52600460205263ffffffff600260405f20015460581c16151580611a0e575b610674576118bd615b61565b6118c682615a1f565b90825f526004602052600260405f20019160ff83541660078110156106605760020361065157835f52601160205260405f2060018060a01b0382165f5260205260405f20546119ff576119198185615aea565b6119f05760205f516020616d9c5f395f51905f5291855f516020616cbc5f395f51905f5261196d8296835f526011865260405f2060018060a01b0386165f5286528060405f205560405191829186836153f2565b0390a261197a8185615bd3565b61199361198d60ff875460781c16615358565b8661545f565b6040516001600160a01b039091168152a25460ff808260181c169160781c16146119bd5760015f55005b6119c681616203565b7f54ccd98022ba3fd547cb241a4f3dfc13e7f9bb54550b7babf4080021c6c2f1265f80a2806105c3565b63a89ac15160e01b5f5260045ffd5b630890382360e21b5f5260045ffd5b50815f52600460205263ffffffff600260405f20015460581c1642116118b1565b346106a45760603660031901126106a4576004356024356001600160401b0381116106a457611a6290369060040161530c565b6044356001600160401b0381116106a457611a8190369060040161530c565b9092611a8b615a01565b611a9485615a1f565b855f52600660205260405f2060018060a01b0382165f5260205260ff60405f2054161561062457611ac59086615aa5565b1561061557845f52600460205263ffffffff600260405f20015460581c16151580611dd3575b61067457611af7615b61565b611b0085615a1f565b93855f526004602052600260405f200160ff81541660078110156106605760020361065157838503611dc45760328511610da457865f52600760205260405f2060018060a01b0387165f5260205260206003611b6d60ff60405f2054168a5f526005845260405f206150e8565b50015416611db55793946001600160a01b0316935f5b8787821015611ce557506001600160a01b03600582901b8581013591821692918390036106a457895f52600660205260405f20835f5260205260ff60405f2054161561062457878314611cd65786821015611cc257611be4908501856158b3565b9190928a5f52600a60205260405f20895f5260205260405f20905f5260205260405f2060018060401b038311610ce45782611c2a8c94611c248454615101565b84615505565b5f601f8211600114611c58579080611c4d92600196975f92610c6f575050615548565b90555b019050611b83565b94601f19821695835f5260205f20965f5b818110611ca757509160019697918488959410611c8e575b505050811b019055611c50565b01355f19600384901b60f8161c191690558d8080611c81565b8284013589556001909801978f975060209283019201611c69565b634e487b7160e01b5f52603260045260245ffd5b637f043f9b60e01b5f5260045ffd5b82817f9204f1001d8059e799b3a233fa5114eab3b5d30762de3ff4e07fcd7e6266aad160208a835f526007825260405f20815f5282526003611d3860ff60405f205416865f526005855260405f206150e8565b500163ffffffff8381835416171663ffffffff19825416179055611d6b611d6560ff875460981c16615358565b86615862565b604051908152a25460ff808260181c169160981c1614611d8b5760015f55005b7ff6b9b3035e320bcce495d00c2d31a7bd341754f7b9919a4a736388e16ef674a55f80a2806105c3565b6387db46a560e01b5f5260045ffd5b634ec4810560e11b5f5260045ffd5b50845f52600460205263ffffffff600260405f20015460581c164211611aeb565b346106a45760203660031901126106a4576001600160a01b03611e156150bc565b165f526017602052608060405f2060ff60018254920154166040519160018060a01b038116835263ffffffff8160a01c16602084015260c01c604083015215156060820152f35b346106a45760403660031901126106a4576004356024356001600160401b0381116106a457611e8f9036906004016152d2565b611e9a929192615a01565b611ea382615a1f565b825f52600660205260405f2060018060a01b0382165f5260205260ff60405f2054161561062457611ed49083615aa5565b1561061557611ee1615b61565b611eea82615a1f565b92825f52600460205260ff600260405f2001541660078110156106605760050361065157825f52601160205260405f2060018060a01b0385165f5260205260405f205415610642576104008211610da457611f458484615b7c565b825f52601260205260405f209060405194611f5f86615170565b611f6a3685846154b9565b86524263ffffffff16602087019081526001600160a01b0390911660408701818152845491949091600160401b811015610ce457611fad916001820181556152b9565b9790976120fd575180519097906001600160401b038111610ce457611fd681611c248454615101565b6020601f821160011461207d576001611802969594936120158463ffffffff9586955f516020616c9c5f395f51905f529e9f5f92612072575050615548565b81555b9451940180549351600160201b600160c01b03199290951692909216166001600160c01b031990921691909117602092831b600160201b600160c01b0316179055604080519485529084018190529293849384019161547c565b015190508f80610c56565b601f19821699835f52815f209a5f5b8181106120e55750936001845f516020616c9c5f395f51905f529c9d63ffffffff9695839588976118029d9c9b9a106120cd575b505050811b018155612018565b01515f1960f88460031b161c191690558e80806120c0565b838301518d556001909c019b6020938401930161208c565b634e487b7160e01b5f525f60045260245ffd5b346106a4575f3660031901126106a457602060405160328152f35b346106a45760603660031901126106a45760043560243560058110156106a4576044356001600160401b0381116106a45761216a9036906004016152d2565b612175929192615a01565b61217e84615a1f565b845f52600660205260405f2060018060a01b0382165f5260205260ff60405f20541615610624576121af9085615aa5565b15610615576121bc615b61565b6121c584615a1f565b92845f52601060205260405f2060018060a01b0385165f5260205260ff60405f2054166005811015610660576124d357845f52601160205260405f2060018060a01b0385165f5260205260405f20541561064257604082116124c45761224d6104c291604051928391602083019561223d878961533c565b604080850152606084019161547c565b519020835f52601160205260405f2060018060a01b0384165f5260205260405f2054036124b557825f52601060205260405f2060018060a01b0383165f5260205260405f20905f9160ff1981541660ff8316179055837f9b013793e3fbc06d6ff5e9b6ce06be7c635e957579a85ae6b262b85b13ecd874604051806122d3858883615893565b0390a2835f52600760205260405f2060018060a01b0384165f526020526080600361231060ff60405f205416875f52600560205260405f206150e8565b500154161515806124a7575b612400575b835f52600760205260405f2060018060a01b0384165f52602052610100600361235c60ff60405f205416875f52600560205260405f206150e8565b50015416151591826123ee575b50506123755760015f55005b60a0816123905f516020616d1c5f395f51905f52938561644f565b60405190600180841b0316815260406020820152602c60408201527f557365642064657465637469766520636865636b2077697468206e6f6e2d646560608201526b7465637469766520726f6c6560a01b6080820152a280806105c3565b90915061066057600314158380612369565b61240a838561644f565b837f7f1edd8653eda945bad547f4f89adfa659b5f748dc9d88a447ff44550d7210be6040518061243b858883615893565b0390a2835f516020616d1c5f395f51905f5260a0604051600180831b038716815260406020820152602860408201527f55736564206d616669612066756e6374696f6e732077697468206e6f6e2d6d6160608201526766696120726f6c6560c01b6080820152a2612321565b505f9150600181141561231c565b63134fed2d60e01b5f5260045ffd5b63bf1ad44360e01b5f5260045ffd5b63fd8fd76760e01b5f5260045ffd5b346106a4575f3660031901126106a4576020604051603c8152f35b346106a45760403660031901126106a4576125166150a6565b6004355f52601360205260405f209060018060a01b03165f52602052606060405f2060ff6001825492015460405192835260018060a01b038116602084015260a01c1615156040820152f35b346106a4575f3660031901126106a45760206040515f8152f35b346106a45761258a366150d2565b905f52600960205260405f2080548210156106a45761144f9161143b915f5260205f20016151ae565b346106a45760203660031901126106a4576125cc6150bc565b6125d4615ff8565b600380546001600160a01b0319166001600160a01b0392909216919091179055005b346106a45760203660031901126106a457335f90815260186020526040902054600435906001600160a01b03161561292557335f908152601860205260409020546001600160a01b03165b815f52600560205260405f20905f5f908354915b8260ff821610612888575060ff169161266d836153b2565b9361267b604051958661518b565b838552612687846153b2565b602086019690601f190136883761269d856153b2565b946126ab604051968761518b565b8086526126ba601f19916153b2565b015f5b8181106128755750505f915f5b8560ff82161061277e57888888604051928392604084019060408552518091526060840191905f5b81811061275c575050508281036020840152815180825260208201916020808360051b8301019401925f915b83831061272b5786860387f35b91939550919360208061274a600193601f19868203018752895161524e565b9701930193019092869594929361271e565b82516001600160a01b03168452869550602093840193909201916001016126f2565b8761278d82849b999a9b6150e8565b50546001600160a01b0390811690871681141580612836575b6127bf575b50506127b690615358565b979695976126ca565b9461282661282c92876127b695986127db60ff8616809461587f565b52875f52600a60205260405f209060018060a01b03165f5260205260405f2060018060a01b038a165f526020528b61281f8261281960405f206151ae565b9261587f565b528b61587f565b50615358565b939050888a6127ab565b505f858152600a602090815260408083206001600160a01b038581168552908352818420908b16845290915290205461286e90615101565b15156127a6565b60606020828901810191909152016126bd565b61289581869795976150e8565b50546001600160a01b0387811691161415806128d7575b6128c2575b6128ba90615358565b949294612655565b906128cf6128ba91615358565b9190506128b1565b50835f52600a60205260405f206128ee82876150e8565b50546001600160a01b039081165f90815260209283526040808220928a1682529190925290205461291e90615101565b15156128ac565b33612641565b346106a45760403660031901126106a4576129446150a6565b6004355f52600260205260405f209060018060a01b03165f52602052602060ff60405f2054166040519015158152f35b346106a45760203660031901126106a4576060600435805f52601460205260ff60405f20541690805f52601560205260ff60405f205416905f52601660205260018060a01b0360405f2054169060405192835260208301526040820152f35b346106a45760403660031901126106a4576129ec6150a6565b6004355f52601160205260405f209060018060a01b03165f52602052602060405f2054604051908152f35b346106a4575f3660031901126106a457612a2f615ff8565b612a37615b61565b600160ff19815416176001557f62e78cea01bee320cd4e420270b5ea74000d11b0c9f74754ebdbfc544b05a2586020604051338152a1337f7c83004a7e59a8ea03b200186c4dda29a4e144d9844d63dbc1a09acf7dfcd4855f80a2005b346106a45760403660031901126106a457612aad6150a6565b6004355f52600760205260405f209060018060a01b03165f52602052602060ff60405f205416604051908152f35b346106a45760203660031901126106a4576004355f526014602052602060ff60405f205416604051908152f35b60a03660031901126106a4576004356001600160401b0381116106a457612b339036906004016152d2565b906024359160ff831683036106a4576044356001600160401b0381116106a457612b619036906004016152d2565b9093906064356001600160401b0381116106a457612b839036906004016152d2565b9560843594919390916001600160a01b03861686036106a457612ba4615a01565b612bac615b61565b600460ff8316108015613069575b61305a576020811161304b57601a54965f1988146130375760018801601a5560405191612be683615154565b6001600160401b0389168352336020840190815293612c063683856154b9565b604085019081525f606086015260ff821660808601525f60a08601525f60c08601525f60e08601525f61010086015263ffffffff42166101208601525f6101408601525f6101608601525f6101808601525f6101a08601525f6101c08601525f6101e08601528a5f52600460205260405f209560018060401b03865116875491600160401b600160e01b03905160401b169163ffffffff60e01b16171786555180519060018060401b038211610ce457612cd082612cc760018a0154615101565b60018a01615505565b602090601f8311600114612fca57612cf192915f9183612fbf575050615548565b60018601555b60608401519360078510156106605760028087018054608084015161ffff1990911660ff9889161760089190911b61ff001617815560a08301518d987fd9abe6195309293e802058345712163744c28bde8471531f9990f08419585bcf98612e2c9591949390926101e09291612d6f91851690615738565b612d818360c083015116858701615750565b612d9561ffff60e0830151168587016157e6565b612da88361010083015116858701615805565b612dbf63ffffffff61012083015116858701615822565b612dd663ffffffff6101408301511685870161540d565b612de9836101608301511685870161545f565b612dfc8361018083015116858701615369565b612e0f836101a083015116858701615845565b612e22836101c08301511685870161549c565b0151169101615862565b60ff612e4b60405194859433865260606020870152606086019161547c565b911660408301520390a260808211612fb0576104008611612fa157612f5a8594612ec66020985f516020616cdc5f395f51905f5296885f5260058b52612eb560405f209160405193612e9c85615139565b338552612eaa368b8b6154b9565b8e86015236916154b9565b60408301526002606083015261555a565b5f86815260068952604080822033808452908b52818320805460ff1990811660011790915589845260078c52828420918452908b52818320805490911690558782526004808b528183206002908101805462ff0000191662010000179055898452908b52912001805463ff000000191663010000001790556001600160a01b038116612f69575b60405193849333856157af565b0390a260015f55604051908152f35b612f74868233616292565b3415612f4d57612f9c5f808080346001600160a01b0387165af1612f96615430565b5061576a565b612f4d565b63450bc0a760e01b5f5260045ffd5b636f6003c360e01b5f5260045ffd5b015190508e80610c56565b9190600188015f52805f20905f935b601f198416851061301c576001945083601f19811610613004575b505050811b016001860155612cf7565b01515f1960f88460031b161c191690558d8080612ff4565b81810151835560209485019460019093019290910190612fd9565b634e487b7160e01b5f52601160045260245ffd5b630b279b2f60e41b5f5260045ffd5b6319413ccd60e11b5f5260045ffd5b50601460ff831611612bba565b346106a4575f3660031901126106a457602060405160b48152f35b346106a4575f3660031901126106a45760206040515f516020616d7c5f395f51905f528152f35b60803660031901126106a4576004356024356001600160401b0381116106a4576130e69036906004016152d2565b6044356001600160401b0381116106a4576131059036906004016152d2565b92906064356001600160a01b0381168082036106a457613123615a01565b61312b615b61565b865f526004602052600260405f200195865460ff81166007811015610660576106515760ff808260081c169160101c1610156132b8575f88815260066020908152604080832033845290915290205460ff166132aa5760808611612fb0576104008111612fa1575f516020616cdc5f395f51905f5296886131f58861326b94612eb561180299855f52600560205260ff60405f205416955f52600560205260405f20926131e98d604051966131df88615139565b33885236916154b9565b602086015236916154b9565b5f8a815260066020908152604080832033808552908352818420805460ff199081166001179091558e8552600784528285209185529252909120805490911660ff92831617905581546132559161324f9160101c16615358565b82615738565b61326560ff825460181c16615358565b90615750565b8061327f575b5060405193849333856157af565b61328a878333616292565b3415613271575f8080806132a49434905af1612f96615430565b86613271565b621d934160e11b5f5260045ffd5b63bc42480360e01b5f5260045ffd5b346106a45760203660031901126106a4576004355f526016602052602060018060a01b0360405f205416604051908152f35b346106a45760203660031901126106a4575f6101e060405161331a81615154565b828152826020820152606060408201528260608201528260808201528260a08201528260c08201528260e08201528261010082015282610120820152826101408201528261016082015282610180820152826101a0820152826101c082015201526004355f52600460205260405f2060026040519161339883615154565b80546001600160401b038116845260401c6001600160a01b031660208401526133c3600182016151ae565b6040840152015460ff81169060078210156106605760ff916060840152818160081c166080840152818160101c1660a0840152818160181c1660c084015261ffff8160201c1660e0840152818160301c1661010084015263ffffffff8160381c1661012084015263ffffffff8160581c16610140840152818160781c16610160840152818160801c16610180840152818160881c166101a0840152818160901c166101c084015260981c166101e082015260405180916020825260018060401b03815116602083015260018060a01b03602082015116604083015260ff6101e06134be6040840151610200606087015261022086019061524e565b926134d1606082015160808701906152ac565b8260808201511660a08601528260a08201511660c08601528260c08201511660e086015261ffff60e082015116610100860152826101008201511661012086015263ffffffff6101208201511661014086015263ffffffff61014082015116610160860152826101608201511661018086015282610180820151166101a0860152826101a0820151166101c0860152826101c082015116828601520151166102008301520390f35b346106a45760203660031901126106a4576004355f526015602052602060ff60405f205416604051908152f35b346106a45760403660031901126106a4576135bf6150a6565b6004355f52600e60205260405f209060018060a01b03165f52602052602060ff60405f205416610f1860405180926152ff565b346106a45760403660031901126106a45761360b6150a6565b6004355f52600660205260405f209060018060a01b03165f52602052602060ff60405f2054166040519015158152f35b346106a45760803660031901126106a45760043560243560048110156106a457604435906001600160a01b0382168083036106a4576064356001600160401b0381116106a45761368f9036906004016152d2565b61369a929192615a01565b6136a386615a1f565b865f52600660205260405f2060018060a01b0382165f5260205260ff60405f20541615610624576136d49087615aa5565b1561061557855f52600460205263ffffffff600260405f20015460581c161515806139d5575b61067457613706615b61565b61370f86615a1f565b92865f526004602052600260405f20019560ff87541660078110156106605760050361065157875f52600760205260405f2060018060a01b0386165f526020526010600361376f60ff60405f2054168b5f52600560205260405f206150e8565b500154166119f057600186146139c7576137898589615b25565b156139b857851515806139af575b61397b575b506137cf6104c29160405192839160208301956137b9878b6152ff565b876040850152606080850152608084019161547c565b519020855f52600d60205260405f2060018060a01b0384165f5260205260405f205403610db3575f858152600d602090815260408083206001600160a01b0386168085529083528184206001908101805460ff199081169092179055898552600e84528285208286528452828520805460ff808b1691909316179055898552600f8452828520828652845282852080546001600160a01b031916871790558985526007845282852091855290835281842054898552600590935292207fefeac4ab688c036b72571c6adaf81feb0d4e0a7099c1cfd8d09e54370198c53c966060966139169490936138f3936003926138c89216906150e8565b500163ffffffff601081835416171663ffffffff19825416179055610baa60ff825460901c16615358565b60038114613922575b6040516001600160a01b03909416845260208401906152ff565b6040820152a260015f55005b865f52600760205260405f2060018060a01b0385165f52602052600361395a60ff60405f205416895f52600560205260405f206150e8565b5001805463ffffffff19811663ffffffff91909116176101001790556138fc565b875f52600660205260405f20845f5260205260ff60405f20541615610624576139a49088615aa5565b15610615578761379c565b50831515613797565b63205e472d60e21b5f5260045ffd5b6282b42960e81b5f5260045ffd5b50855f52600460205263ffffffff600260405f20015460581c1642116136fa565b346106a45760403660031901126106a457613a0f6150a6565b6004355f52600c60205260405f209060018060a01b03165f52602052602060ff60405f205416604051908152f35b346106a4575f3660031901126106a457602060405160788152f35b346106a45760403660031901126106a45760e06003613aae600435613a7b6150a6565b815f52600760205260405f209060018060a01b03165f5260205260ff60405f205416905f52600560205260405f206150e8565b50015460806040519160028116151583526001811615156020840152600481161515604084015260088116151560608401526010811615158284015260208116151560a084015216151560c0820152f35b346106a4575f3660031901126106a457602060ff600154166040519015158152f35b346106a45760403660031901126106a457613b3a6150a6565b6004355f52600860205260405f209060018060a01b03165f526020526040805f2060ff6002825492015416825191825215156020820152f35b346106a45760203660031901126106a457600435613b8f615a01565b613b9881615a1f565b815f52600660205260405f2060018060a01b0382165f5260205260ff60405f2054161561062457613bc99082615aa5565b1561061557805f52600460205263ffffffff600260405f20015460581c16151580613c53575b61067457613bfb615b61565b613c0481615a1f565b815f526004602052600260405f20019060ff82541660078110156106605760020361065157613c338184615aea565b6119f0575f516020616d9c5f395f51905f5260208261197a869485615bd3565b50805f52600460205263ffffffff600260405f20015460581c164211613bef565b346106a45760203660031901126106a4576001600160a01b03613c956150bc565b165f526018602052602060018060a01b0360405f205416604051908152f35b346106a4575f3660031901126106a457335f52601760205260405f20600181019060ff825416613ce057005b80546001600160a01b031680337f744157ccffbd293a2e8644928cd7d23d650f869b88f72d7bfea8041b76ca6bec5f80a35f90815260186020908152604080832080546001600160a01b031916905592546001600160a01b031682526019905220805460ff199081169091558154169055005b346106a4575f3660031901126106a457613d6b615ff8565b5f80808047335af1613d7b615430565b5015613d8357005b60405162461bcd60e51b81526020600482015260126024820152714661696c656420746f20776974686472617760701b6044820152606490fd5b346106a45760203660031901126106a4576004355f52600560205260405f20805490613de8826153b2565b91613df6604051938461518b565b8083526020830180925f5260205f205f915b838310613eb457848660405191829160208301906020845251809152604083019060408160051b85010192915f905b828210613e4657505050500390f35b919360019193955060208091603f19898203018552875190848060a01b038251168152606063ffffffff81613e9d613e8b87870151608089880152608087019061524e565b6040870151868203604088015261524e565b940151169101529601920192018594939192613e37565b60046020600192604051613ec781615139565b848060a01b038654168152613edd8587016151ae565b83820152613eed600287016151ae565b604082015263ffffffff6003870154166060820152815201920192019190613e08565b346106a457613f1e366150d2565b613f26615a01565b613f2f82615a1f565b825f52600660205260405f2060018060a01b0382165f5260205260ff60405f2054161561062457613f609083615aa5565b1561061557815f52600460205263ffffffff600260405f20015460581c161515806140ed575b61067457613f92615b61565b613f9b82615a1f565b90825f526004602052600260405f20015460ff811660078110156106605760010361065157613fdd90845f52600560205260ff60405f209160301c16906150e8565b50546001600160a01b03908116908316036140de57825f52600760205260405f2060018060a01b0383165f526020526040600361402a60ff835f205416865f526005602052835f206150e8565b5001541661180b575f8381526008602090815260408083206001600160a01b038616808552908352818420858155600201805460ff191690558684526007835281842090845282528083205486845260059092529091207ffbabe9c4a6257c269f37e649a08003e579b119fcff47ac57e59d1502fccea41c93916003916140b49160ff16906150e8565b500163ffffffff604081835416171663ffffffff19825416179055611802604051928392836153f2565b631cc191eb60e31b5f5260045ffd5b50815f52600460205263ffffffff600260405f20015460581c164211613f86565b346106a45761411c366150d2565b614124615a01565b61412d82615a1f565b825f52600660205260405f2060018060a01b0382165f5260205260ff60405f205416156106245761415e9083615aa5565b1561061557815f52600460205263ffffffff600260405f20015460581c16151580614292575b61067457614190615b61565b61419982615a1f565b90825f52600460205260ff600260405f2001541660078110156106605760050361065157825f52601160205260405f2060018060a01b0383165f5260205260405f20541561064257825f52601360205260405f2060018060a01b0383165f5260205260405f205461428357816142307ff5adb2642a216ea3114d73daac494b2341695b10db2b0e6be988acb22fbc15649385615b7c565b835f52601360205260405f2060018060a01b0382165f526020528160405f2055835f52601460205260405f2060ff61426a81835416615358565b1660ff19825416179055611802604051928392836153f2565b6317ac735560e11b5f5260045ffd5b50815f52600460205263ffffffff600260405f20015460581c164211614184565b346106a4575f3660031901126106a4576142cb615ff8565b60015460ff81161561432f5760ff19166001557f5db9ee0a495bf2e6ff9c91a7834c1ba4fdd244a5e8aa4e537bd38aeae4b073aa6020604051338152a1337f306ca22c455fe433ebbf0542bbf947ea6a725495f9e1043db2a47e3c579403855f80a2005b638dfc202b60e01b5f5260045ffd5b346106a45760203660031901126106a4576001600160a01b0361435f6150bc565b165f526019602052602060ff60405f2054166040519015158152f35b346106a4575f3660031901126106a45760206040516138408152f35b346106a45760203660031901126106a4576004356143b3615a01565b6143bc81615a1f565b815f52600660205260405f2060018060a01b0382165f5260205260ff60405f20541615610624576143ed9082615aa5565b15610615576143fa615b61565b805f526004602052600260405f200160ff81541660078110156106605760030361065157805460ff60ff60801b01191660041781556144419063ffffffff610fec426153c9565b805f52600560205260405f205f5b815460ff8216101561451657806144696144e292846150e8565b50546001600160a01b0316600361448083866150e8565b5001805463fffffffb811663ffffffff199091161790555f858152600b602090815260408083206001600160a01b0385168452909152902080546001600160a01b0319169055600260036144d484876150e8565b500154166144e75750615358565b61444f565b5f858152600c602090815260408083206001600160a01b03909416835292905220805460ff1916905584612826565b825f516020616cfc5f395f51905f525f80a260015f55005b346106a45761453c366150d2565b614544615a01565b61454d82615a1f565b825f52600660205260405f2060018060a01b0382165f5260205260ff60405f205416156106245761457e9083615aa5565b156106155761458b615b61565b61459482615a1f565b90825f52600460205260ff600260405f2001541660078110156106605760020361065157825f52601160205260405f2060018060a01b0383165f5260205260405f20546119ff575f516020616cbc5f395f51905f5291835f52601160205260405f2060018060a01b0382165f526020528160405f2055611802604051928392836153f2565b346106a45760403660031901126106a4576146326150a6565b336001600160a01b0382160361464e576114b19060043561617f565b63334bd91960e11b5f5260045ffd5b346106a45761466b366150d2565b905f52601260205260405f2080548210156106a4576146b09161468d916152b9565b506001614699826151ae565b91015460405192839260608452606084019061524e565b9063ffffffff8116602084015260018060a01b039060201c1660408301520390f35b346106a4576101c03660031901126106a457600435366064116106a4573660e4116106a45736610124116106a457366101c4116106a457614711615a01565b614719615b61565b805f52600460205260ff600260405f2001541660078110156106605780159081156149fa575b50610651576003546001600160a01b031680156149c257604080516334baeab960e01b81529190602460048401378160645f604483015b600282106149a8575050506101a481602093604060e460c484013760a06101246101048401375afa90811561499d575f91614962575b501561492a57610184356101a4358261016435036148f35780156148bc578101809111613037571561488a5761012435600103614816576105c390604051906147f660408361518b565b600e82526d546f776e2077696e7320285a4b2960901b602083015261611a565b610144356001036148555761084e906040519061483460408361518b565b600f82526e4d616669612077696e7320285a4b2960881b602083015261611a565b60405162461bcd60e51b815260206004820152600d60248201526c2d259d103737903bb4b73732b960991b6044820152606490fd5b60405162461bcd60e51b815260206004820152600a602482015269456d7074792067616d6560b01b6044820152606490fd5b60405162461bcd60e51b815260206004820152600f60248201526e4e6f20746f776e20706c617965727360881b6044820152606490fd5b60405162461bcd60e51b815260206004820152600f60248201526e0a4dededa92c840dad2e6dac2e8c6d608b1b6044820152606490fd5b60405162461bcd60e51b815260206004820152601060248201526f24b73b30b634b2102d2590383937b7b360811b6044820152606490fd5b90506020813d602011614995575b8161497d6020938361518b565b810103126106a4575180151581036106a457826147ac565b3d9150614970565b6040513d5f823e3d90fd5b829350604081816001949581943701930191018492614776565b60405162461bcd60e51b815260206004820152601060248201526f15995c9a599a595c881b9bdd081cd95d60821b6044820152606490fd5b60069150148261473f565b346106a45760403660031901126106a4576114b1600435614a246150a6565b90614a316114a7826153a0565b61608e565b346106a45760203660031901126106a4576004355f52600960205260405f20805490614a61826153b2565b91614a6f604051938461518b565b8083526020830180925f5260205f205f915b838310614aee57848660405191829160208301906020845251809152604083019060408160051b85010192915f905b828210614abf57505050500390f35b91936001919395506020614ade8192603f198a8203018652885161524e565b9601920192018594939192614ab0565b600160208192614afd856151ae565b815201920192019190614a81565b346106a45760203660031901126106a4576020614b296004356153a0565b604051908152f35b346106a45760203660031901126106a4576004355f52600460205260405f2080546002614b60600184016151ae565b920154604080516001600160401b038416815292811c6001600160a01b031660208401526102009083018190529192839260ff91614ba09185019061524e565b91614bb0606085018383166152ac565b818160081c166080850152818160101c1660a0850152818160181c1660c085015261ffff8160201c1660e0850152818160301c1661010085015263ffffffff8160381c1661012085015263ffffffff8160581c16610140850152818160781c16610160850152818160801c16610180850152818160881c166101a0850152818160901c166101c085015260981c166101e08301520390f35b346106a45760203660031901126106a4576004355f526004602052602063ffffffff600260405f20015460581c16604051908152f35b346106a457614c8c366150d2565b905f52600560205260405f209081548110156106a457614cab916150e8565b5080546001600160a01b0316614cc3600183016151ae565b91614d0963ffffffff6003614cda600285016151ae565b9301541691614cfb604051958695865260806020870152608086019061524e565b90848203604086015261524e565b9060608301520390f35b346106a4575f3660031901126106a4576020601a54604051908152f35b346106a45760403660031901126106a457600435614d4c6150a6565b614d54615a01565b614d5d82615a1f565b825f52600660205260405f2060018060a01b0382165f5260205260ff60405f2054161561062457614d8e9083615aa5565b1561061557815f52600460205263ffffffff600260405f20015460581c16151580615032575b61067457614dc0615b61565b614dc982615a1f565b90825f526004602052600260405f20019160ff83541660078110156106605760040361065157835f52600660205260405f2060018060a01b0383165f5260205260ff60405f2054161561062457614e208285615aa5565b156106155783917fcfff1651bcea794952a516ce970ab17518a85210bd939aaeaac670a8d3e65ec791835f52600760205260405f2060018060a01b0382165f5260205260046003614e8360ff60405f205416875f52600560205260405f206150e8565b5001545f868152600b602090815260408083206001600160a01b0387811685529252909120549290911615911680151580615008575b614fcc575b505f858152600b602090815260408083206001600160a01b03868116855290835281842080546001600160a01b0319169188169182179055888452600c83528184209084529091529020805460ff90614f18908216615358565b1660ff19825416179055614f5b575b614f3660405192839283615386565b0390a25460ff808260181c169160801c1614614f525760015f55005b610bfa90615c2a565b835f52600760205260405f2060018060a01b0382165f526020526003614f9360ff60405f205416865f52600560205260405f206150e8565b500163ffffffff600481835416171663ffffffff19825416179055614fc7614fc160ff875460801c16615358565b86615369565b614f27565b855f52600c60205260405f209060018060a01b03165f5260205260405f2060ff614ff881835416615349565b1660ff1982541617905587614ebe565b50855f52600c60205260405f2060018060a01b0382165f5260205260ff60405f2054161515614eb9565b50815f52600460205263ffffffff600260405f20015460581c164211614db4565b346106a45760203660031901126106a4576004359063ffffffff60e01b82168092036106a457602091637965db0b60e01b8114908115615095575b5015158152f35b6301ffc9a760e01b1490508361508e565b602435906001600160a01b03821682036106a457565b600435906001600160a01b03821682036106a457565b60409060031901126106a4576004359060243590565b8054821015611cc2575f5260205f209060021b01905f90565b90600182811c9216801561512f575b602083101461511b57565b634e487b7160e01b5f52602260045260245ffd5b91607f1691615110565b608081019081106001600160401b03821117610ce457604052565b61020081019081106001600160401b03821117610ce457604052565b606081019081106001600160401b03821117610ce457604052565b601f909101601f19168101906001600160401b03821190821017610ce457604052565b9060405191825f8254926151c184615101565b808452936001811690811561522c57506001146151e8575b506151e69250038361518b565b565b90505f9291925260205f20905f915b8183106152105750509060206151e6928201015f6151d9565b60209193508060019154838589010152019101909184926151f7565b9050602092506151e694915060ff191682840152151560051b8201015f6151d9565b805180835260209291819084018484015e5f828201840152601f01601f1916010190565b60609060031901126106a457600435906024356001600160a01b03811681036106a457906044356001600160a01b03811681036106a45790565b9060078210156106605752565b8054821015611cc2575f5260205f209060011b01905f90565b9181601f840112156106a4578235916001600160401b0383116106a457602083818601950101116106a457565b9060048210156106605752565b9181601f840112156106a4578235916001600160401b0383116106a4576020808501948460051b0101116106a457565b9060058210156106605752565b60ff168015613037575f190190565b60ff1660ff81146130375760010190565b805460ff60801b191660809290921b60ff60801b16919091179055565b6001600160a01b0391821681529116602082015260400190565b5f526002602052600160405f20015490565b6001600160401b038111610ce45760051b60200190565b9060b4820180921161303757565b6001600160401b038111610ce457601f01601f191660200190565b6001600160a01b039091168152602081019190915260400190565b805463ffffffff60581b191660589290921b63ffffffff60581b16919091179055565b3d1561545a573d90615441826153d7565b9161544f604051938461518b565b82523d5f602084013e565b606090565b805460ff60781b191660789290921b60ff60781b16919091179055565b908060209392818452848401375f828201840152601f01601f1916010190565b805460ff60901b191660909290921b60ff60901b16919091179055565b9291926154c5826153d7565b916154d3604051938461518b565b8294818452818301116106a4578281602093845f960137010152565b8181106154fa575050565b5f81556001016154ef565b9190601f811161551457505050565b6151e6925f5260205f20906020601f840160051c8301931061553e575b601f0160051c01906154ef565b9091508190615531565b8160011b915f199060031b1c19161790565b8054600160401b811015610ce457615577916001820181556150e8565b9190916120fd57805182546001600160a01b0319166001600160a01b03919091161782556020810151805160018401916001600160401b038211610ce4576155c9826155c38554615101565b85615505565b602090601f83116001146156d5576155ea92915f918361565c575050615548565b90555b6040810151805160028401916001600160401b038211610ce457615615826155c38554615101565b602090601f831160011461566757936003936156448463ffffffff979560609589975f9261565c575050615548565b90555b0151169201911663ffffffff19825416179055565b015190505f80610c56565b90601f19831691845f52815f20925f5b8181106156bd57508460609463ffffffff9894600398948a98600195106156a6575b505050811b019055615647565b01515f19838a1b60f8161c191690555f8080615699565b92936020600181928786015181550195019301615677565b90601f19831691845f52815f20925f5b8181106157205750908460019594939210615708575b505050811b0190556155ed565b01515f1960f88460031b161c191690555f80806156fb565b929360206001819287860151815501950193016156e5565b9062ff000082549160101b169062ff00001916179055565b9063ff00000082549160181b169063ff0000001916179055565b1561577157565b60405162461bcd60e51b81526020600482015260166024820152752330b4b632b2103a3790333ab7321039b2b9b9b4b7b760511b6044820152606490fd5b92916040926157d69296959660018060a01b0316855260606020860152606085019161547c565b6001600160a01b03909416910152565b805461ffff60201b191660209290921b61ffff60201b16919091179055565b805460ff60301b191660309290921b60ff60301b16919091179055565b805463ffffffff60381b191660389290921b63ffffffff60381b16919091179055565b805460ff60881b191660889290921b60ff60881b16919091179055565b805460ff60981b191660989290921b60ff60981b16919091179055565b8051821015611cc25760209160051b010190565b6001600160a01b0390911681526040810192916151e6916020019061533c565b903590601e19813603018212156106a457018035906001600160401b0382116106a4576020019181360383136106a457565b604051906158f460408361518b565b6019825278546f6f2066657720706c61796572732072656d61696e696e6760381b6020830152565b90602083828152019060208160051b85010193835f915b8383106159435750505050505090565b909192939495601f198282030186528635601e19843603018112156106a4578301602081019190356001600160401b0381116106a45780360383136106a457615992602092839260019561547c565b980196019493019190615933565b60ff60019116019060ff821161303757565b604051906159c160408361518b565b6009825268546f776e2077696e7360b81b6020830152565b604051906159e860408361518b565b600a8252694d616669612077696e7360b01b6020830152565b60025f5414615a105760025f55565b633ee5aeb560e01b5f5260045ffd5b335f908152601860205260409020546001600160a01b03169081615a435750503390565b815f52601760205260405f2060ff60018201541615615a96575463ffffffff8160a01c164211615a875760c01c03615a785790565b637ce3c8fd60e11b5f5260045ffd5b630fe82d2560e11b5f5260045ffd5b635f8874dd60e11b5f5260045ffd5b615ae1600391600293815f52600760205260405f209060018060a01b03165f5260205260ff60405f205416905f52600560205260405f206150e8565b50015416151590565b615ae1600391600193815f52600760205260405f2090858060a01b03165f5260205260ff60405f205416905f52600560205260405f206150e8565b615ae1600391600893815f52600760205260405f209060018060a01b03165f5260205260ff60405f205416905f52600560205260405f206150e8565b60ff60015416615b6d57565b63d93c066560e01b5f5260045ffd5b615bb690600392815f52600760205260405f209060018060a01b03165f5260205260ff60405f205416905f52600560205260405f206150e8565b5001805463ffffffff19811663ffffffff91909116176080179055565b615c0d90600392815f52600760205260405f209060018060a01b03165f5260205260ff60405f205416905f52600560205260405f206150e8565b5001805463ffffffff19811663ffffffff91909116176001179055565b90815f5260046020528160405f205f905f90835f52600560205260405f205f908054915b8260ff821610615f7057505050607f600260ff92015460191c16911690811180615f5e575b15615f3b5781604091615c945f516020616d3c5f395f51905f52948661644f565b845f516020616d1c5f395f51905f52608085519460018060a01b03169485815286602082015260098782015268159bdd1959081bdd5d60ba1b6060820152a282519182526020820152a25b815f52600560205260405f20915f5b835460ff82161015615d825780615d08615d7d92866150e8565b50545f848152600b602090815260408083206001600160a01b0390941680845293825280832080546001600160a01b0319169055868352600c825280832093835292905220805460ff191690556003615d6182876150e8565b5001805463fffffffb811663ffffffff19909116179055615358565b615cee565b505f818152600460205260409020600201805460ff60801b19169055909150615daa81616bd0565b15615db25750565b5f818152600460205260409020600201805460ff61ffff60881b011916600517815542603c8101919082106130375763ffffffff615df192169061540d565b805f52600560205260405f205f5b815460ff82161015615ed55780615e19615ed092846150e8565b50546001600160a01b03166003615e3083866150e8565b5001805463ffffffe7811663ffffffff199091161790555f858152600d602090815260408083206001600160a01b03949094168084529382528083208381556001908101849055888452600e83528184208585528352818420805460ff19169055888452600f8352818420858552835281842080546001600160a01b03191690558884526013835281842094845293909152812081815590910155615358565b615dff565b50505f818152601460209081526040808320805460ff1990811690915560158352818420805490911690556016909152812080546001600160a01b03191690557f34b0c4c95aa7776d35dbd8b24afd53388828c61c26fd5a6b11a21809662440879080a2565b50505f516020616d3c5f395f51905f52604080515f81525f6020820152a2615cdf565b506001600160a01b0382161515615c73565b9091929394955060026003615f8583856150e8565b50015416615fa3575b615f9790615358565b90879594939291615c4e565b615fad81836150e8565b50545f898152600c602090815260408083206001600160a01b039094168084529390915290205460ff9081169087168111615fea575b5050615f8e565b9096509450615f975f615fe3565b335f9081527fe5ebfa64fca8d502a8e50c1edffd2c31ef4dad5b396e65d9f397fb028f74abc5602052604090205460ff161561603057565b63e2517d3f60e01b5f52336004525f516020616d7c5f395f51905f5260245260445ffd5b5f81815260026020908152604080832033845290915290205460ff16156160785750565b63e2517d3f60e01b5f523360045260245260445ffd5b5f8181526002602090815260408083206001600160a01b038616845290915290205460ff16616114575f8181526002602090815260408083206001600160a01b0395909516808452949091528120805460ff19166001179055339291907f2f8788117e7eff1d82e926ec794901d17c78024a50270940304540a733656f0d9080a4600190565b50505f90565b5f81815260046020908152604091829020600201805460ff63ffffffff60581b0119166006179055905181815291927fd778487128ba4386ebcfb2703af01f8a2a2b8663f880622d26a77a29397e68f39291829161617a9183019061524e565b0390a2565b5f8181526002602090815260408083206001600160a01b038616845290915290205460ff1615616114575f8181526002602090815260408083206001600160a01b0395909516808452949091528120805460ff19169055339291907ff6391f5c32d9c69d2a47ea670b442974b53935d1edc7fd64eb21e047a839171b9080a4600190565b805f526004602052600260405f2001600360ff1982541617815561ffff815460201c169061ffff82146130375761ffff60209161626460017fa9b4e96158ed085745975f198fa026959997245ae7e7aed9cd0252ce02b210719501826157e6565b61627463ffffffff421682615822565b61628563ffffffff610b93426153c9565b54821c16604051908152a2565b6001600160a01b0390911691908215611cd657825f52601960205260ff60405f205416616440575f838152601860205260409020546001600160a01b0316616440576001600160a01b03165f8181526017602052604090206001015490919060ff166163fb575b6138404201804211613037577f290e52799b1ac63207e28c21f7f1f387cf8ea9257dde8e363a02e157d8e4c6589163ffffffff604092166163bf835161633e81615139565b8781526020808201848152600180881b5f19018716888501908152606085018281525f8c81526017909552938990209451925190516001600160c01b031960c09190911b166001600160a01b0390931663ffffffff60a01b60a09290921b919091161791909117835590519101805460ff191691151560ff16919091179055565b5f8681526018602090815284822080546001600160a01b031916881790556019815290849020805460ff191660011790558351928352820152a3565b5f828152601760209081526040808320546001600160a01b031683526018825280832080546001600160a01b031916905560199091529020805460ff191690556162f9565b631fef749360e21b5f5260045ffd5b9061645a8183615aa5565b156164d457815f52600760205260405f209060018060a01b03165f52602052600361649760ff60405f205416835f52600560205260405f206150e8565b500163ffffffff63fffffffd8254161663ffffffff198254161790555f5260046020526151e6600260405f200161326560ff825460181c16615349565b5050565b90815f5260166020528160018060a01b0360405f2054165f825f52600560205260405f205f908054905b8160ff8416106166af575b505050827fb874a4c95be602274c8e6944d4d375ca4189eda377b69ee751f3b92dd4dcf2d860405180616541858783615386565b0390a2811515908161669b575b5061664c575b505f52600560205260405f20915f5b835460ff82161015616612578061657d61660d92866150e8565b50545f848152600d602090815260408083206001600160a01b03909416808452938252808320838155600101839055868352600e82528083208484528252808320805460ff19169055868352600f82528083209383529290522080546001600160a01b031916905560036165f182876150e8565b5001805463ffffffe7811663ffffffff19909116179055615358565b616563565b505f818152600460205260409020600201805461ffff60881b1916905590915061663b81616bd0565b156166435750565b6151e690616203565b6080816166675f516020616d1c5f395f51905f52938561644f565b60405190815260406020820152600f60408201526e12da5b1b195908185d081b9a59da1d608a1b6060820152a2815f616554565b6001600160a01b031682141590505f61654e565b909194506166bd85826150e8565b50545f888152600e602090815260408083206001600160a01b039094168084529390915290205460ff169590600487101561066057600289971461670c575061670590615358565b9190616502565b5f878152600f602090815260408083206001600160a01b0394851684529091528120549091169450925082915081905061650d565b5f52600560205260405f205f8154905b8160ff821610616764575060ff91501690565b6002600361677283866150e8565b500154166167885761678390615358565b616751565b91505090565b5f52600560205260405f20908154905b8160ff8216106167b1575060ff91501690565b600260036167bf83866150e8565b50015416616788576167d090615358565b61679e565b5f8181526004602052604090206002908101805460ff64ff000000ff60781b011916909117815561680e9063ffffffff610fec426153c9565b5f52600560205260405f20905f5b825460ff8216101561687457806002600361683a61684794876150e8565b5001541661684c57615358565b61681c565b600361685882866150e8565b5001805463ffffff9e811663ffffffff19909116179055615358565b509050565b5f818152600560205260408120805492915b8360ff82161061689e5750505050600190565b600260036168ac83856150e8565b500154161515806168d2575b6168ca576168c590615358565b61688b565b505050505f90565b50825f52601060205260405f206168e982846150e8565b50546001600160a01b03165f908152602091909152604090205460ff16600581101561066057156168b8565b905f5f92805f52600560205260405f205f918154925b8360ff82161061696c575050505060ff168015928315918261695e575b508361695357509190565b60ff91935016151590565b60ff8216111591505f616948565b6002600361697a83866150e8565b50015416616991575b61698c90615358565b61692b565b93815f52601060205260405f206169a886856150e8565b50546001600160a01b03165f908152602091909152604090205460ff16600581101561066057600181036169ec57506169e361698c91615358565b945b9050616983565b9094906169fd575b61698c906169e5565b95616a0a61698c91615358565b9690506169f4565b805f52601460205260ff60405f20541615616bcd575f81815260056020526040812080546001918390815b8360ff821610616ade575b505050505f516020616dbc5f395f51905f5291818060409390616acc575b15616ac557815b5f868152601660205284902080546001600160a01b0319166001600160a01b03851617905581616ab2575b5082516001600160a01b03909216825215156020820152a2565b6001600160a01b0316151590505f616a98565b5f91616a6d565b506001600160a01b0382161515616a66565b616ae881836150e8565b50545f8881526013602090815260408083206001600160a01b03949094168084529390915290206001015460a01c60ff1680616bb3575b616b33575b50616b2e90615358565b616a3d565b5f8881526013602090815260408083206001600160a01b0394851684529091529020600101549296919392169180616b7557505093616b2e6001925b90616b24565b9095909290916001600160a01b03871603616b9357616b2e90616b6f565b505050505060405f516020616dbc5f395f51905f52915f9181935f616a48565b5060026003616bc284866150e8565b500154161515616b1f565b50565b805f52600460205260ff600260405f20015460181c166001811115616c385750616bf981616879565b616c0257505f90565b616c0b81616915565b9015616c235750616c1e906108376159d9565b600190565b616c2c57505f90565b616c1e906108376159b2565b616c1e9190616c6657604051616c4f60408261518b565b60048152634472617760e01b60208201529061611a565b604051616c7460408261518b565b60148152734c61737420706c61796572207374616e64696e6760601b60208201529061611a56fea4a46989ff60ad96ec74df0f289e1e16b51c97fecb224f2e8e927103d5b54eaef33c1bd762b898b33040e70f49cf90ff496cf7366f6fafa9d961b0de89b7244b3b7d84e02e9f6642b42e0ca3e77297f9c7c807832a60c0fc1926ade76abc7badcf33babc496bb6dc2942b39cb7b75766bbbadf7da50d176ff8c513e991140239b1ed64d561b0179e61c72bf46d0809a99dac99baeb98fc9f5d13be1f6c2e3f826b571d1c11516ea63adff1048766bdfa510e9c5bf4e32ca29d4ba11e16edf2f18ef7613b6eacaa71c74d950e2c093c23a0d3ecb066d1387d80e95159d07ed08ba49807205ce4d355092ef5a8a18f56e8913cf4a201fbe287825b095693c2177582b52ddf0195aa8ac16480985f5042052aa742563721520fa34764d253824d43020f20553b51a906b0cb24d2431eb46bd2dc31b5c75d4ba8165ff1bb284ad2a1a26469706673582212206a9c17d243b09adcdaf24f124983c496eabe288e4fd7345f735aa681dd001b8e64736f6c634300081c00332f8788117e7eff1d82e926ec794901d17c78024a50270940304540a733656f0dac33ff75c19e70fe83507db0d683fd3465c996598dc972688b7ace676c89077be5ebfa64fca8d502a8e50c1edffd2c31ef4dad5b396e65d9f397fb028f74abc5",
  "linkReferences": {},
  "deployedLinkReferences": {},
  "immutableReferences": {},
  "inputSourceName": "project/contracts/MafiaPortal.sol",
  "buildInfoId": "solc-0_8_28-38ef847bdb16efaf136ddc0e06aa9a8b941651dd"
}