{
  "_format": "hh3-artifact-1",
  "contractName": "MafiaPortalV3",
  "sourceName": "contracts/MafiaPortalV3.sol",
  "abi": [
    {
      "inputs": [],
      "name": "AlreadyCommitted",
      "type": "error"
    },
    {
      "inputs": [],
      "name": "AlreadyJoined",
      "type": "error"
    },
    {
      "inputs": [],
      "name": "AlreadyRevealed",
      "type": "error"
    },
    {
      "inputs": [],
      "name": "AlreadyVoted",
      "type": "error"
    },
    {
      "inputs": [],
      "name": "InvalidArrayLength",
      "type": "error"
    },
    {
      "inputs": [],
      "name": "InvalidDeckSize",
      "type": "error"
    },
    {
      "inputs": [],
      "name": "InvalidReveal",
      "type": "error"
    },
    {
      "inputs": [],
      "name": "InvalidSessionKey",
      "type": "error"
    },
    {
      "inputs": [],
      "name": "NoStalledPlayers",
      "type": "error"
    },
    {
      "inputs": [],
      "name": "NotParticipant",
      "type": "error"
    },
    {
      "inputs": [],
      "name": "NotYourTurn",
      "type": "error"
    },
    {
      "inputs": [],
      "name": "PlayerInactive",
      "type": "error"
    },
    {
      "inputs": [],
      "name": "RoomFull",
      "type": "error"
    },
    {
      "inputs": [],
      "name": "SessionExpired",
      "type": "error"
    },
    {
      "inputs": [],
      "name": "SessionNotForThisRoom",
      "type": "error"
    },
    {
      "inputs": [],
      "name": "TimeNotExpired",
      "type": "error"
    },
    {
      "inputs": [],
      "name": "Unauthorized",
      "type": "error"
    },
    {
      "inputs": [],
      "name": "WrongPhase",
      "type": "error"
    },
    {
      "anonymous": false,
      "inputs": [
        {
          "indexed": true,
          "internalType": "uint256",
          "name": "roomId",
          "type": "uint256"
        }
      ],
      "name": "AllRolesConfirmed",
      "type": "event"
    },
    {
      "anonymous": false,
      "inputs": [
        {
          "indexed": true,
          "internalType": "uint256",
          "name": "roomId",
          "type": "uint256"
        },
        {
          "indexed": false,
          "internalType": "uint256",
          "name": "dayNumber",
          "type": "uint256"
        }
      ],
      "name": "DayStarted",
      "type": "event"
    },
    {
      "anonymous": false,
      "inputs": [
        {
          "indexed": true,
          "internalType": "uint256",
          "name": "roomId",
          "type": "uint256"
        },
        {
          "indexed": false,
          "internalType": "address",
          "name": "byPlayer",
          "type": "address"
        },
        {
          "indexed": false,
          "internalType": "uint256",
          "name": "nextIndex",
          "type": "uint256"
        }
      ],
      "name": "DeckSubmitted",
      "type": "event"
    },
    {
      "anonymous": false,
      "inputs": [
        {
          "indexed": true,
          "internalType": "uint256",
          "name": "roomId",
          "type": "uint256"
        },
        {
          "indexed": false,
          "internalType": "string",
          "name": "winCondition",
          "type": "string"
        }
      ],
      "name": "GameEnded",
      "type": "event"
    },
    {
      "anonymous": false,
      "inputs": [
        {
          "indexed": true,
          "internalType": "uint256",
          "name": "roomId",
          "type": "uint256"
        }
      ],
      "name": "GameStarted",
      "type": "event"
    },
    {
      "anonymous": false,
      "inputs": [
        {
          "indexed": true,
          "internalType": "uint256",
          "name": "roomId",
          "type": "uint256"
        },
        {
          "indexed": false,
          "internalType": "address",
          "name": "from",
          "type": "address"
        }
      ],
      "name": "KeysSharedToAll",
      "type": "event"
    },
    {
      "anonymous": false,
      "inputs": [
        {
          "indexed": true,
          "internalType": "uint256",
          "name": "roomId",
          "type": "uint256"
        },
        {
          "indexed": false,
          "internalType": "address",
          "name": "player",
          "type": "address"
        }
      ],
      "name": "NightActionCommitted",
      "type": "event"
    },
    {
      "anonymous": false,
      "inputs": [
        {
          "indexed": true,
          "internalType": "uint256",
          "name": "roomId",
          "type": "uint256"
        },
        {
          "indexed": false,
          "internalType": "address",
          "name": "player",
          "type": "address"
        },
        {
          "indexed": false,
          "internalType": "enum MafiaPortalV3.NightActionType",
          "name": "action",
          "type": "uint8"
        }
      ],
      "name": "NightActionRevealed",
      "type": "event"
    },
    {
      "anonymous": false,
      "inputs": [
        {
          "indexed": true,
          "internalType": "uint256",
          "name": "roomId",
          "type": "uint256"
        },
        {
          "indexed": false,
          "internalType": "address",
          "name": "killed",
          "type": "address"
        },
        {
          "indexed": false,
          "internalType": "address",
          "name": "healed",
          "type": "address"
        }
      ],
      "name": "NightFinalized",
      "type": "event"
    },
    {
      "anonymous": false,
      "inputs": [
        {
          "indexed": true,
          "internalType": "uint256",
          "name": "roomId",
          "type": "uint256"
        }
      ],
      "name": "NightStarted",
      "type": "event"
    },
    {
      "anonymous": false,
      "inputs": [
        {
          "indexed": true,
          "internalType": "uint256",
          "name": "roomId",
          "type": "uint256"
        },
        {
          "indexed": false,
          "internalType": "address",
          "name": "player",
          "type": "address"
        },
        {
          "indexed": false,
          "internalType": "string",
          "name": "reason",
          "type": "string"
        }
      ],
      "name": "PlayerEliminated",
      "type": "event"
    },
    {
      "anonymous": false,
      "inputs": [
        {
          "indexed": true,
          "internalType": "uint256",
          "name": "roomId",
          "type": "uint256"
        },
        {
          "indexed": false,
          "internalType": "address",
          "name": "player",
          "type": "address"
        },
        {
          "indexed": false,
          "internalType": "string",
          "name": "nickname",
          "type": "string"
        },
        {
          "indexed": false,
          "internalType": "address",
          "name": "sessionKey",
          "type": "address"
        }
      ],
      "name": "PlayerJoined",
      "type": "event"
    },
    {
      "anonymous": false,
      "inputs": [
        {
          "indexed": true,
          "internalType": "uint256",
          "name": "roomId",
          "type": "uint256"
        },
        {
          "indexed": false,
          "internalType": "address",
          "name": "player",
          "type": "address"
        },
        {
          "indexed": false,
          "internalType": "string",
          "name": "reason",
          "type": "string"
        }
      ],
      "name": "PlayerKicked",
      "type": "event"
    },
    {
      "anonymous": false,
      "inputs": [
        {
          "indexed": true,
          "internalType": "uint256",
          "name": "roomId",
          "type": "uint256"
        },
        {
          "indexed": false,
          "internalType": "address",
          "name": "player",
          "type": "address"
        }
      ],
      "name": "RoleConfirmed",
      "type": "event"
    },
    {
      "anonymous": false,
      "inputs": [
        {
          "indexed": true,
          "internalType": "uint256",
          "name": "roomId",
          "type": "uint256"
        },
        {
          "indexed": false,
          "internalType": "address",
          "name": "host",
          "type": "address"
        },
        {
          "indexed": false,
          "internalType": "uint256",
          "name": "maxPlayers",
          "type": "uint256"
        }
      ],
      "name": "RoomCreated",
      "type": "event"
    },
    {
      "anonymous": false,
      "inputs": [
        {
          "indexed": true,
          "internalType": "address",
          "name": "mainWallet",
          "type": "address"
        },
        {
          "indexed": true,
          "internalType": "address",
          "name": "sessionKey",
          "type": "address"
        },
        {
          "indexed": false,
          "internalType": "uint256",
          "name": "roomId",
          "type": "uint256"
        },
        {
          "indexed": false,
          "internalType": "uint256",
          "name": "expiresAt",
          "type": "uint256"
        }
      ],
      "name": "SessionKeyRegistered",
      "type": "event"
    },
    {
      "anonymous": false,
      "inputs": [
        {
          "indexed": true,
          "internalType": "address",
          "name": "mainWallet",
          "type": "address"
        },
        {
          "indexed": true,
          "internalType": "address",
          "name": "sessionKey",
          "type": "address"
        }
      ],
      "name": "SessionKeyRevoked",
      "type": "event"
    },
    {
      "anonymous": false,
      "inputs": [
        {
          "indexed": true,
          "internalType": "uint256",
          "name": "roomId",
          "type": "uint256"
        },
        {
          "indexed": false,
          "internalType": "address",
          "name": "voter",
          "type": "address"
        },
        {
          "indexed": false,
          "internalType": "address",
          "name": "target",
          "type": "address"
        }
      ],
      "name": "VoteCast",
      "type": "event"
    },
    {
      "anonymous": false,
      "inputs": [
        {
          "indexed": true,
          "internalType": "uint256",
          "name": "roomId",
          "type": "uint256"
        },
        {
          "indexed": false,
          "internalType": "address",
          "name": "eliminated",
          "type": "address"
        },
        {
          "indexed": false,
          "internalType": "uint256",
          "name": "voteCount",
          "type": "uint256"
        }
      ],
      "name": "VotingFinalized",
      "type": "event"
    },
    {
      "anonymous": false,
      "inputs": [
        {
          "indexed": true,
          "internalType": "uint256",
          "name": "roomId",
          "type": "uint256"
        }
      ],
      "name": "VotingStarted",
      "type": "event"
    },
    {
      "inputs": [],
      "name": "DEFAULT_SESSION_FUND",
      "outputs": [
        {
          "internalType": "uint256",
          "name": "",
          "type": "uint256"
        }
      ],
      "stateMutability": "view",
      "type": "function"
    },
    {
      "inputs": [],
      "name": "SESSION_DURATION",
      "outputs": [
        {
          "internalType": "uint32",
          "name": "",
          "type": "uint32"
        }
      ],
      "stateMutability": "view",
      "type": "function"
    },
    {
      "inputs": [],
      "name": "TURN_TIMEOUT",
      "outputs": [
        {
          "internalType": "uint32",
          "name": "",
          "type": "uint32"
        }
      ],
      "stateMutability": "view",
      "type": "function"
    },
    {
      "inputs": [
        {
          "internalType": "uint256",
          "name": "roomId",
          "type": "uint256"
        },
        {
          "internalType": "bytes32",
          "name": "hash",
          "type": "bytes32"
        }
      ],
      "name": "commitNightAction",
      "outputs": [],
      "stateMutability": "nonpayable",
      "type": "function"
    },
    {
      "inputs": [
        {
          "internalType": "uint256",
          "name": "roomId",
          "type": "uint256"
        }
      ],
      "name": "confirmRole",
      "outputs": [],
      "stateMutability": "nonpayable",
      "type": "function"
    },
    {
      "inputs": [
        {
          "internalType": "uint8",
          "name": "maxPlayers",
          "type": "uint8"
        }
      ],
      "name": "createRoom",
      "outputs": [
        {
          "internalType": "uint256",
          "name": "",
          "type": "uint256"
        }
      ],
      "stateMutability": "nonpayable",
      "type": "function"
    },
    {
      "inputs": [
        {
          "internalType": "uint256",
          "name": "roomId",
          "type": "uint256"
        }
      ],
      "name": "getDeck",
      "outputs": [
        {
          "internalType": "string[]",
          "name": "",
          "type": "string[]"
        }
      ],
      "stateMutability": "view",
      "type": "function"
    },
    {
      "inputs": [
        {
          "internalType": "uint256",
          "name": "roomId",
          "type": "uint256"
        }
      ],
      "name": "getMyKey",
      "outputs": [
        {
          "internalType": "bytes",
          "name": "",
          "type": "bytes"
        }
      ],
      "stateMutability": "view",
      "type": "function"
    },
    {
      "inputs": [
        {
          "internalType": "uint256",
          "name": "roomId",
          "type": "uint256"
        },
        {
          "internalType": "address",
          "name": "player",
          "type": "address"
        }
      ],
      "name": "getPlayerFlags",
      "outputs": [
        {
          "internalType": "bool",
          "name": "isActive",
          "type": "bool"
        },
        {
          "internalType": "bool",
          "name": "hasConfirmedRole",
          "type": "bool"
        },
        {
          "internalType": "bool",
          "name": "hasVoted",
          "type": "bool"
        },
        {
          "internalType": "bool",
          "name": "hasCommitted",
          "type": "bool"
        },
        {
          "internalType": "bool",
          "name": "hasRevealed",
          "type": "bool"
        }
      ],
      "stateMutability": "view",
      "type": "function"
    },
    {
      "inputs": [
        {
          "internalType": "uint256",
          "name": "roomId",
          "type": "uint256"
        }
      ],
      "name": "getPlayers",
      "outputs": [
        {
          "components": [
            {
              "internalType": "address",
              "name": "wallet",
              "type": "address"
            },
            {
              "internalType": "string",
              "name": "nickname",
              "type": "string"
            },
            {
              "internalType": "bytes",
              "name": "publicKey",
              "type": "bytes"
            },
            {
              "internalType": "uint32",
              "name": "flags",
              "type": "uint32"
            }
          ],
          "internalType": "struct MafiaPortalV3.Player[]",
          "name": "",
          "type": "tuple[]"
        }
      ],
      "stateMutability": "view",
      "type": "function"
    },
    {
      "inputs": [
        {
          "internalType": "uint256",
          "name": "roomId",
          "type": "uint256"
        }
      ],
      "name": "getRoom",
      "outputs": [
        {
          "components": [
            {
              "internalType": "uint64",
              "name": "id",
              "type": "uint64"
            },
            {
              "internalType": "address",
              "name": "host",
              "type": "address"
            },
            {
              "internalType": "enum MafiaPortalV3.GamePhase",
              "name": "phase",
              "type": "uint8"
            },
            {
              "internalType": "uint8",
              "name": "maxPlayers",
              "type": "uint8"
            },
            {
              "internalType": "uint8",
              "name": "playersCount",
              "type": "uint8"
            },
            {
              "internalType": "uint8",
              "name": "aliveCount",
              "type": "uint8"
            },
            {
              "internalType": "uint16",
              "name": "dayCount",
              "type": "uint16"
            },
            {
              "internalType": "uint8",
              "name": "currentShufflerIndex",
              "type": "uint8"
            },
            {
              "internalType": "uint32",
              "name": "lastActionTimestamp",
              "type": "uint32"
            },
            {
              "internalType": "uint8",
              "name": "confirmedCount",
              "type": "uint8"
            },
            {
              "internalType": "uint8",
              "name": "votedCount",
              "type": "uint8"
            },
            {
              "internalType": "uint8",
              "name": "committedCount",
              "type": "uint8"
            },
            {
              "internalType": "uint8",
              "name": "revealedCount",
              "type": "uint8"
            }
          ],
          "internalType": "struct MafiaPortalV3.GameRoom",
          "name": "",
          "type": "tuple"
        }
      ],
      "stateMutability": "view",
      "type": "function"
    },
    {
      "inputs": [
        {
          "internalType": "address",
          "name": "mainWallet",
          "type": "address"
        }
      ],
      "name": "getSessionKey",
      "outputs": [
        {
          "internalType": "address",
          "name": "sessionAddress",
          "type": "address"
        },
        {
          "internalType": "uint256",
          "name": "expiresAt",
          "type": "uint256"
        },
        {
          "internalType": "uint256",
          "name": "roomId",
          "type": "uint256"
        },
        {
          "internalType": "bool",
          "name": "isActive",
          "type": "bool"
        }
      ],
      "stateMutability": "view",
      "type": "function"
    },
    {
      "inputs": [
        {
          "internalType": "uint256",
          "name": "",
          "type": "uint256"
        },
        {
          "internalType": "address",
          "name": "",
          "type": "address"
        }
      ],
      "name": "isPlayerInRoom",
      "outputs": [
        {
          "internalType": "bool",
          "name": "",
          "type": "bool"
        }
      ],
      "stateMutability": "view",
      "type": "function"
    },
    {
      "inputs": [
        {
          "internalType": "address",
          "name": "mainWallet",
          "type": "address"
        },
        {
          "internalType": "uint256",
          "name": "roomId",
          "type": "uint256"
        }
      ],
      "name": "isSessionValid",
      "outputs": [
        {
          "internalType": "bool",
          "name": "",
          "type": "bool"
        }
      ],
      "stateMutability": "view",
      "type": "function"
    },
    {
      "inputs": [
        {
          "internalType": "uint256",
          "name": "roomId",
          "type": "uint256"
        },
        {
          "internalType": "string",
          "name": "nickname",
          "type": "string"
        },
        {
          "internalType": "bytes",
          "name": "publicKey",
          "type": "bytes"
        },
        {
          "internalType": "address",
          "name": "sessionAddress",
          "type": "address"
        }
      ],
      "name": "joinRoom",
      "outputs": [],
      "stateMutability": "payable",
      "type": "function"
    },
    {
      "inputs": [],
      "name": "nextRoomId",
      "outputs": [
        {
          "internalType": "uint256",
          "name": "",
          "type": "uint256"
        }
      ],
      "stateMutability": "view",
      "type": "function"
    },
    {
      "inputs": [
        {
          "internalType": "uint256",
          "name": "",
          "type": "uint256"
        },
        {
          "internalType": "address",
          "name": "",
          "type": "address"
        }
      ],
      "name": "nightCommits",
      "outputs": [
        {
          "internalType": "bytes32",
          "name": "commitHash",
          "type": "bytes32"
        },
        {
          "internalType": "bool",
          "name": "revealed",
          "type": "bool"
        }
      ],
      "stateMutability": "view",
      "type": "function"
    },
    {
      "inputs": [
        {
          "internalType": "uint256",
          "name": "",
          "type": "uint256"
        },
        {
          "internalType": "address",
          "name": "",
          "type": "address"
        }
      ],
      "name": "playerDeckKeys",
      "outputs": [
        {
          "internalType": "bytes",
          "name": "",
          "type": "bytes"
        }
      ],
      "stateMutability": "view",
      "type": "function"
    },
    {
      "inputs": [
        {
          "internalType": "uint256",
          "name": "",
          "type": "uint256"
        },
        {
          "internalType": "address",
          "name": "",
          "type": "address"
        }
      ],
      "name": "playerIndex",
      "outputs": [
        {
          "internalType": "uint8",
          "name": "",
          "type": "uint8"
        }
      ],
      "stateMutability": "view",
      "type": "function"
    },
    {
      "inputs": [
        {
          "internalType": "address",
          "name": "sessionAddress",
          "type": "address"
        },
        {
          "internalType": "uint256",
          "name": "roomId",
          "type": "uint256"
        }
      ],
      "name": "registerSessionKey",
      "outputs": [],
      "stateMutability": "payable",
      "type": "function"
    },
    {
      "inputs": [
        {
          "internalType": "uint256",
          "name": "roomId",
          "type": "uint256"
        },
        {
          "internalType": "enum MafiaPortalV3.NightActionType",
          "name": "action",
          "type": "uint8"
        },
        {
          "internalType": "address",
          "name": "target",
          "type": "address"
        },
        {
          "internalType": "string",
          "name": "salt",
          "type": "string"
        }
      ],
      "name": "revealNightAction",
      "outputs": [],
      "stateMutability": "nonpayable",
      "type": "function"
    },
    {
      "inputs": [
        {
          "internalType": "uint256",
          "name": "",
          "type": "uint256"
        },
        {
          "internalType": "address",
          "name": "",
          "type": "address"
        }
      ],
      "name": "revealedActions",
      "outputs": [
        {
          "internalType": "enum MafiaPortalV3.NightActionType",
          "name": "",
          "type": "uint8"
        }
      ],
      "stateMutability": "view",
      "type": "function"
    },
    {
      "inputs": [
        {
          "internalType": "uint256",
          "name": "",
          "type": "uint256"
        },
        {
          "internalType": "address",
          "name": "",
          "type": "address"
        }
      ],
      "name": "revealedTargets",
      "outputs": [
        {
          "internalType": "address",
          "name": "",
          "type": "address"
        }
      ],
      "stateMutability": "view",
      "type": "function"
    },
    {
      "inputs": [],
      "name": "revokeSessionKey",
      "outputs": [],
      "stateMutability": "nonpayable",
      "type": "function"
    },
    {
      "inputs": [
        {
          "internalType": "uint256",
          "name": "",
          "type": "uint256"
        },
        {
          "internalType": "uint256",
          "name": "",
          "type": "uint256"
        }
      ],
      "name": "roomDeck",
      "outputs": [
        {
          "internalType": "string",
          "name": "",
          "type": "string"
        }
      ],
      "stateMutability": "view",
      "type": "function"
    },
    {
      "inputs": [
        {
          "internalType": "uint256",
          "name": "",
          "type": "uint256"
        },
        {
          "internalType": "uint256",
          "name": "",
          "type": "uint256"
        }
      ],
      "name": "roomPlayers",
      "outputs": [
        {
          "internalType": "address",
          "name": "wallet",
          "type": "address"
        },
        {
          "internalType": "string",
          "name": "nickname",
          "type": "string"
        },
        {
          "internalType": "bytes",
          "name": "publicKey",
          "type": "bytes"
        },
        {
          "internalType": "uint32",
          "name": "flags",
          "type": "uint32"
        }
      ],
      "stateMutability": "view",
      "type": "function"
    },
    {
      "inputs": [
        {
          "internalType": "uint256",
          "name": "",
          "type": "uint256"
        }
      ],
      "name": "rooms",
      "outputs": [
        {
          "internalType": "uint64",
          "name": "id",
          "type": "uint64"
        },
        {
          "internalType": "address",
          "name": "host",
          "type": "address"
        },
        {
          "internalType": "enum MafiaPortalV3.GamePhase",
          "name": "phase",
          "type": "uint8"
        },
        {
          "internalType": "uint8",
          "name": "maxPlayers",
          "type": "uint8"
        },
        {
          "internalType": "uint8",
          "name": "playersCount",
          "type": "uint8"
        },
        {
          "internalType": "uint8",
          "name": "aliveCount",
          "type": "uint8"
        },
        {
          "internalType": "uint16",
          "name": "dayCount",
          "type": "uint16"
        },
        {
          "internalType": "uint8",
          "name": "currentShufflerIndex",
          "type": "uint8"
        },
        {
          "internalType": "uint32",
          "name": "lastActionTimestamp",
          "type": "uint32"
        },
        {
          "internalType": "uint8",
          "name": "confirmedCount",
          "type": "uint8"
        },
        {
          "internalType": "uint8",
          "name": "votedCount",
          "type": "uint8"
        },
        {
          "internalType": "uint8",
          "name": "committedCount",
          "type": "uint8"
        },
        {
          "internalType": "uint8",
          "name": "revealedCount",
          "type": "uint8"
        }
      ],
      "stateMutability": "view",
      "type": "function"
    },
    {
      "inputs": [
        {
          "internalType": "address",
          "name": "",
          "type": "address"
        }
      ],
      "name": "sessionKeys",
      "outputs": [
        {
          "internalType": "address",
          "name": "sessionAddress",
          "type": "address"
        },
        {
          "internalType": "uint32",
          "name": "expiresAt",
          "type": "uint32"
        },
        {
          "internalType": "uint64",
          "name": "roomId",
          "type": "uint64"
        },
        {
          "internalType": "bool",
          "name": "isActive",
          "type": "bool"
        }
      ],
      "stateMutability": "view",
      "type": "function"
    },
    {
      "inputs": [
        {
          "internalType": "address",
          "name": "",
          "type": "address"
        }
      ],
      "name": "sessionToMain",
      "outputs": [
        {
          "internalType": "address",
          "name": "",
          "type": "address"
        }
      ],
      "stateMutability": "view",
      "type": "function"
    },
    {
      "inputs": [
        {
          "internalType": "uint256",
          "name": "roomId",
          "type": "uint256"
        },
        {
          "internalType": "address[]",
          "name": "recipients",
          "type": "address[]"
        },
        {
          "internalType": "bytes[]",
          "name": "encryptedKeys",
          "type": "bytes[]"
        }
      ],
      "name": "shareKeysToAll",
      "outputs": [],
      "stateMutability": "nonpayable",
      "type": "function"
    },
    {
      "inputs": [
        {
          "internalType": "uint256",
          "name": "roomId",
          "type": "uint256"
        }
      ],
      "name": "startGame",
      "outputs": [],
      "stateMutability": "nonpayable",
      "type": "function"
    },
    {
      "inputs": [
        {
          "internalType": "uint256",
          "name": "roomId",
          "type": "uint256"
        }
      ],
      "name": "startVoting",
      "outputs": [],
      "stateMutability": "nonpayable",
      "type": "function"
    },
    {
      "inputs": [
        {
          "internalType": "uint256",
          "name": "roomId",
          "type": "uint256"
        },
        {
          "internalType": "string[]",
          "name": "deck",
          "type": "string[]"
        }
      ],
      "name": "submitDeck",
      "outputs": [],
      "stateMutability": "nonpayable",
      "type": "function"
    },
    {
      "inputs": [
        {
          "internalType": "uint256",
          "name": "roomId",
          "type": "uint256"
        },
        {
          "internalType": "address",
          "name": "target",
          "type": "address"
        }
      ],
      "name": "vote",
      "outputs": [],
      "stateMutability": "nonpayable",
      "type": "function"
    },
    {
      "inputs": [
        {
          "internalType": "uint256",
          "name": "",
          "type": "uint256"
        },
        {
          "internalType": "address",
          "name": "",
          "type": "address"
        }
      ],
      "name": "voteCounts",
      "outputs": [
        {
          "internalType": "uint8",
          "name": "",
          "type": "uint8"
        }
      ],
      "stateMutability": "view",
      "type": "function"
    },
    {
      "inputs": [
        {
          "internalType": "uint256",
          "name": "",
          "type": "uint256"
        },
        {
          "internalType": "address",
          "name": "",
          "type": "address"
        }
      ],
      "name": "votes",
      "outputs": [
        {
          "internalType": "address",
          "name": "",
          "type": "address"
        }
      ],
      "stateMutability": "view",
      "type": "function"
    }
  ],
  "bytecode": "0x60808060405234601a576001600d556134b3908161001f8239f35b5f80fdfe60806040526004361015610011575f80fd5b5f3560e01c806302d947ef146127a257806307a52cab1461278557806309ed3e22146126d35780630f36f3b5146124c35780630f8d2b6814612481578063139db82d146120dc5780631bae0ac81461200c5780632a51fb3a14611f2f5780633d2f5bda14611df35780633deaa34114611dd7578063460e204914611c7457806347a90d4414611b8e57806348e69d1f14611b0d5780634f324d1414611acd5780635099fae21461187e5780635d99dc3e146117ee5780635e82ff65146117d357806361ea20271461178c5780636594bb0c14611159578063660e907c14611110578063669ead17146110c25780636d8a74cb14610ed75780637120465b14610a265780637a364461146109035780637bd6d432146109b257806384411c0a1461096b578063b7b8d60414610903578063bb9ae87514610690578063c96f097914610477578063d23254b41461042d578063e45e2b5414610414578063e5ed1d59146102f1578063e719ba71146102d0578063eb0fa6f814610286578063f14caed7146102345763f4e887c0146101a5575f80fd5b3461023057602036600319011261023057335f908152600c60205260409020546001600160a01b03168015610229575b6004355f52600560205260405f209060018060a01b03165f5260205261022561020a61021160405f2060405192838092612dbc565b0382612e74565b604051918291602083526020830190612e95565b0390f35b50336101d5565b5f80fd5b346102305760403660031901126102305761024d612d29565b6004355f52600860205260405f209060018060a01b03165f526020526040805f2060ff6001825492015416825191825215156020820152f35b346102305760403660031901126102305761029f612d29565b6004355f908152600a602090815260408083206001600160a01b039485168452825291829020549151919092168152f35b34610230575f36600319011261023057602060405166470de4df8200008152f35b3461023057602036600319011261023057600435805f525f60205260405f20805460ff8160e01c166007811015610400576103f157604081901c6001600160a01b031633036103e35760ff60029160f01c161061039e57805460ff60e01b1916600160e01b178155600101805466ffffffffff000019164260181b66ffffffff000000161790557f50ad08f58a27f2851d7e3a1b3a6a46b290f2ce677e99642d30ff639721e777905f80a2005b60405162461bcd60e51b815260206004820152601760248201527f4e656564206174206c65617374203220706c61796572730000000000000000006044820152606490fd5b6282b42960e81b5f5260045ffd5b6338961af360e21b5f5260045ffd5b634e487b7160e01b5f52602160045260245ffd5b34610230576040366003190112610230576101d5612d29565b3461023057604036600319011261023057610446612d29565b6004355f9081526006602090815260408083206001600160a01b039485168452825291829020549151919092168152f35b3461023057604036600319011261023057600435610494816130b6565b815f52600260205260405f2060018060a01b0382165f5260205260ff60405f20541615610681576104c5908261313c565b15610672576104d3816130b6565b815f525f60205260405f2060ff815460e01c166007811015610400576005036103f157825f52600360205260405f2060018060a01b0383165f526020526008600361053060ff60405f205416865f52600160205260405f20612d6b565b500154166106635760405191604083018381106001600160401b0382111761064f5760016020936105c47f0eedfe83feef539cc0cbc56b8336ca3cc16ee922943b5d3b1046759ac50b0e679661063c946040526024358152838782015f81528a5f526008895260405f20828060a01b0389165f52895260405f209251835551151591019060ff801983541691151516179055565b865f526003855260405f20828060a01b0385165f52855260036105f760ff60405f205416895f5284885260405f20612d6b565b500163ffffffff600881835416171663ffffffff198254161790550161062360ff825460481c16612f3f565b60ff60481b82549160481b169060ff60481b1916179055565b6040516001600160a01b039091168152a2005b634e487b7160e01b5f52604160045260245ffd5b6317fd8aab60e31b5f5260045ffd5b630575d90f60e11b5f5260045ffd5b63721c7c6760e11b5f5260045ffd5b34610230576060366003190112610230576004356024356001600160401b038111610230576106c3903690600401612eb9565b906044356001600160401b038111610230576106e3903690600401612eb9565b91906106ee856130b6565b855f52600260205260405f2060018060a01b0382165f5260205260ff60405f205416156106815761071f908661313c565b156106725761072d856130b6565b855f525f60205260ff60405f205460e01c166007811015610400576002036103f1578385036108f4575f5b858110156108bb57600581901b84810135906001600160a01b038216820361023057885f52600260205260405f2060018060a01b0383165f5260205260ff60405f2054161561068157868310156108a7576107b590850185612f50565b9091895f52600560205260405f209060018060a01b03165f5260205260405f20916001600160401b03821161064f576107f8826107f28554612d84565b85612f98565b5f90601f831160011461083f57918061082b9260019695945f92610834575b50508160011b915f199060031b1c19161790565b90555b01610758565b013590508c80610817565b601f19831691845f5260205f20925f5b81811061088f575091600196959492918388959310610876575b505050811b01905561082e565b01355f19600384901b60f8161c191690558b8080610869565b9193602060018192878701358155019501920161084f565b634e487b7160e01b5f52603260045260245ffd5b6040516001600160a01b038316815287907f9204f1001d8059e799b3a233fa5114eab3b5d30762de3ff4e07fcd7e6266aad190602090a2005b634ec4810560e11b5f5260045ffd5b34610230576020366003190112610230576001600160a01b03610924612d3f565b165f52600b602052608060405f2060ff60018254920154166040519160018060a01b038116835263ffffffff8160a01c16602084015260c01c604083015215156060820152f35b3461023057604036600319011261023057610984612d29565b6004355f52600360205260405f209060018060a01b03165f52602052602060ff60405f205416604051908152f35b34610230576040366003190112610230576001600160a01b036109d3612d3f565b165f52600b602052602060405f2060ff6001820154169081610a11575b81610a01575b506040519015158152f35b5460c01c602435149050826109f6565b805460a01c63ffffffff1642111591506109f0565b6080366003190112610230576004356024356001600160401b03811161023057610a54903690600401612ef6565b6044929192356001600160401b03811161023057610a76903690600401612ef6565b93906064356001600160a01b0381169182820361023057855f525f60205260405f2090815460ff8160e01c166007811015610400576103f15760ff808260e81c169160f01c161015610ec8575f87815260026020908152604080832033845290915290205460ff16610eba57865f52600160205260ff60405f20541690875f52600160205260405f2098610b2d60405192610b1084612e59565b338452610b1e368b8b613080565b92602085019384523691613080565b9060408301918252606083019a60028c528054600160401b81101561064f57610b5b91600182018155612d6b565b939093610ea7575183546001600160a01b0319166001600160a01b039190911617835551805160018401916001600160401b03821161064f57610ba2826107f28554612d84565b602090601f8311600114610e4457610bd092915f9183610e395750508160011b915f199060031b1c19161790565b90555b51805160028301916001600160401b03821161064f57610bf7826107f28554612d84565b602090601f8311600114610d9f57600363ffffffff7f3b7d84e02e9f6642b42e0ca3e77297f9c7c807832a60c0fc1926ade76abc7bad9d9e60809c9b9996610c5e8f9c9a9780610d219b9886985f92610d945750508160011b915f199060031b1c19161790565b90555b51169201911663ffffffff198254161790558a5f52600260205260405f2060018060a01b0333165f5260205260405f20600160ff198254161790558a5f52600360205260405f2060018060a01b0333165f5260205260ff60405f20911660ff19825416179055610cf4610cda60ff835460f01c16612f3f565b825460ff60f01b191660f09190911b60ff60f01b16178255565b610d01815460f81c612f3f565b81546001600160f81b031660f89190911b6001600160f81b031916179055565b8782610d5f575b505060405194859333855260606020860152816060860152858501375f8383018501526040830152601f01601f19168101030190a2005b610d6991336131cd565b34610d76575b8787610d28565b610d8f5f80808034865af1610d8961300f565b5061303e565b610d6f565b015190505f80610817565b90601f19831691845f52815f20925f5b818110610e2157507f3b7d84e02e9f6642b42e0ca3e77297f9c7c807832a60c0fc1926ade76abc7bad9d9e60809c9b999660018f9c9a97610d219a9763ffffffff97600397838a9810610e0a575b505050811b019055610c61565b01515f1983891b60f8161c191690555f8080610dfd565b92936020600181928786015181550195019301610daf565b015190508e80610817565b90601f19831691845f52815f20925f5b818110610e8f5750908460019594939210610e77575b505050811b019055610bd3565b01515f1960f88460031b161c191690558d8080610e6a565b92936020600181928786015181550195019301610e54565b634e487b7160e01b5f525f60045260245ffd5b621d934160e11b5f5260045ffd5b63bc42480360e01b5f5260045ffd5b34610230576020366003190112610230575f610180604051610ef881612e3d565b8281528260208201528260408201528260608201528260808201528260a08201528260c08201528260e08201528261010082015282610120820152826101408201528261016082015201526004355f525f60205260405f2060405190610f5d82612e3d565b80546001600160401b0381168352604081811c6001600160a01b03166020850190815291929084019060e084901c60ff16600781101561040057825260608501908460e81c60ff16825260808601908560f01c60ff16825260a087019560f81c8652600101549460c0870161ffff8716815260e08801918760101c60ff1683526101008901938860181c63ffffffff1685526101208a01958960381c60ff1687526101408b01978a60401c60ff1689526101608c01998b60481c60ff168b526101808d019b60501c60ff168c526040519c516001600160401b03168d52600160a01b6001900390511660208d01525160408c0161105991612ee9565b5160ff1660608b01525160ff1660808a01525160ff1660a08901525161ffff1660c08801525160ff1660e08701525163ffffffff166101008601525160ff166101208501525160ff166101408401525160ff166101608301525160ff166101808201526101a090f35b34610230576040366003190112610230576110db612d29565b6004355f52600960205260405f209060018060a01b03165f52602052602060ff60405f20541661110e6040518092612f23565bf35b3461023057604036600319011261023057611129612d29565b6004355f52600260205260405f209060018060a01b03165f52602052602060ff60405f2054166040519015158152f35b3461023057608036600319011261023057600435602435600481101561023057604435906001600160a01b0382168203610230576064356001600160401b038111610230576111ac903690600401612ef6565b6111b5856130b6565b855f52600260205260405f2060018060a01b0382165f5260205260ff60405f20541615610681576111e6908661313c565b15610672576111f4856130b6565b91855f525f60205260405f209160ff835460e01c166007811015610400576005036103f157865f52600360205260405f2060018060a01b0385165f526020526010600361125360ff60405f2054168a5f52600160205260405f20612d6b565b5001541661177d5761129e603560405183819460208301968a60f81b88526001600160601b03198c60601b1660218501528484013781015f838201520301601f198101835282612e74565b519020855f52600860205260405f2060018060a01b0384165f5260205260405f20540361176e576040859261140760017ff06d68f16c49c42e886f88c2689940ad871a4f71654933d28b593912f169f9469460ff98875f526008602052855f20838060a01b0386165f5260205282865f2001838b19825416179055875f526009602052855f20838060a01b0386165f52602052855f208a198154168b8b16179055875f52600a602052855f20838060a01b0386165f52602052855f2090838060a01b03166001600160601b0360a01b825416179055865f526003602052845f20828060a01b0385165f5260205260036113a58a875f205416895f5284602052875f20612d6b565b500163ffffffff601081835416171663ffffffff1982541617905501956113ee6113d489895460501c16612f3f565b885460ff60501b191660509190911b60ff60501b16178855565b83516001600160a01b0390931683526020830190612f23565ba254818160481c1691829160501c16149081611764575b5061142557005b805f525f60205260405f20815f5f90825f52600160205260405f205f908054905b8160ff8416106116a4575050604080516001600160a01b038481168252851660208201528592507fb874a4c95be602274c8e6944d4d375ca4189eda377b69ee751f3b92dd4dcf2d89190a26001600160a01b038116918215159081611690575b5061162d575b50505f52600160205260405f205f5b815460ff8216101561156a57806114d56115659284612d6b565b50545f8681526008602090815260408083206001600160a01b03909416808452938252808320838155600101839055888352600982528083208484528252808320805460ff19169055888352600a82528083209383529290522080546001600160a01b031916905560036115498285612d6b565b5001805463ffffffe7811663ffffffff19909116179055612f3f565b6114bb565b50505f828152602081905260409020600101805461ffff60481b191690556115918261338e565b15611599575b005b805460ff60e01b1916600360e01b178155600101805461ffff9081169190821461161957805466ffffffff00ffff191660019290920161ffff908116929092174260181b66ffffffff000000161781557fa9b4e96158ed085745975f198fa026959997245ae7e7aed9cd0252ce02b21071916020915416604051908152a2005b634e487b7160e01b5f52601160045260245ffd5b7fb1ed64d561b0179e61c72bf46d0809a99dac99baeb98fc9f5d13be1f6c2e3f829161165b6080928561331f565b60405190815260406020820152600f60408201526e12da5b1b195908185d081b9a59da1d608a1b6060820152a28183806114ac565b6001600160a01b03168314159050866114a6565b909194506116b28582612d6b565b50545f8881526009602090815260408083206001600160a01b039094168084529390915290205460ff1695906004871015610400578660018a9814611739575b60021461170b575b5061170490612f3f565b9190611446565b5f878152600a602090815260408083206001600160a01b0394851684529091529020541694506117046116fa565b5f888152600a602090815260408083206001600160a01b0386811685529252909120541695506116f2565b905015158261141e565b639ea6d12760e01b5f5260045ffd5b63a89ac15160e01b5f5260045ffd5b34610230576040366003190112610230576117a5612d29565b6004355f52600760205260405f209060018060a01b03165f52602052602060ff60405f205416604051908152f35b34610230575f36600319011261023057602060405160788152f35b346102305760403660031901126102305760a06003611842600435611811612d29565b815f528360205260405f2090600180871b03165f5260205260ff60405f205416905f52600160205260405f20612d6b565b50015460106040519160028116151583526001811615156020840152600481161515604084015260088116151560608401521615156080820152f35b346102305760203660031901126102305760043561189b816130b6565b815f52600260205260405f2060018060a01b0382165f5260205260ff60405f20541615610681576118cc908261313c565b15610672576118da816130b6565b815f525f60205260405f209060ff825460e01c166007811015610400576002036103f157825f52600360205260405f2060018060a01b0382165f526020526001600361193760ff60405f205416865f528360205260405f20612d6b565b50015416611a9457825f52600360205260405f2060018060a01b0382165f52602052600361197760ff60405f205416855f52600160205260405f20612d6b565b500163ffffffff600181835416171663ffffffff19825416179055827f82b52ddf0195aa8ac16480985f5042052aa742563721520fa34764d253824d43602060018501936119ec6119ce60ff875460381c16612f3f565b865467ff00000000000000191660389190911b60ff60381b16178655565b6040516001600160a01b039091168152a260ff815460381c16825460f81c14611a1157005b815460ff60e01b1916600360e01b17909155805466ffffffff00ffff19164260181b66ffffffff000000161760011790557fa9b4e96158ed085745975f198fa026959997245ae7e7aed9cd0252ce02b210716020604051837f54ccd98022ba3fd547cb241a4f3dfc13e7f9bb54550b7babf4080021c6c2f1265f80a260018152a2005b60405162461bcd60e51b8152602060048201526011602482015270105b1c9958591e4818dbdb999a5c9b5959607a1b6044820152606490fd5b34610230576020366003190112610230576001600160a01b03611aee612d3f565b165f52600c602052602060018060a01b0360405f205416604051908152f35b34610230575f36600319011261023057335f52600b60205260405f20600181019060ff825416611b3957005b546001600160a01b031680337f744157ccffbd293a2e8644928cd7d23d650f869b88f72d7bfea8041b76ca6bec5f80a35f908152600c6020526040902080546001600160a01b0319169055805460ff19169055005b604036600319011261023057611ba2612d3f565b6001600160a01b038116906024358215611c2f575f81815260026020908152604080832033845290915290205460ff1615611bfc57611be191336131cd565b34611be857005b5f8080806115979434905af1610d8961300f565b60405162461bcd60e51b815260206004820152600b60248201526a4e6f7420696e20726f6f6d60a81b6044820152606490fd5b60405162461bcd60e51b815260206004820152601760248201527f496e76616c69642073657373696f6e20616464726573730000000000000000006044820152606490fd5b34610230576020366003190112610230576004355f52600160205260405f20805490611c9f82612fdd565b91611cad6040519384612e74565b8083526020830180925f5260205f205f915b838310611d6b57848660405191829160208301906020845251809152604083019060408160051b85010192915f905b828210611cfd57505050500390f35b919360019193955060208091603f19898203018552875190848060a01b038251168152606063ffffffff81611d54611d42878701516080898801526080870190612e95565b60408701518682036040880152612e95565b940151169101529601920192018594939192611cee565b60046020600192604051611d7e81612e59565b848060a01b038654168152604051611d9c8161020a81898b01612dbc565b83820152604051611db48161020a8160028b01612dbc565b604082015263ffffffff6003870154166060820152815201920192019190611cbf565b34610230575f3660031901126102305760206040516138408152f35b3461023057602036600319011261023057600435611e10816130b6565b815f52600260205260405f2060018060a01b0382165f5260205260ff60405f2054161561068157611e41908261313c565b1561067257805f525f60205260405f2060ff815460e01c166007811015610400576003036103f157805460ff60e01b1916600160e21b178155600101805468ff0000000000000000191690555f5b815f52600160205260405f205460ff82161015611f0857611ed090825f52600160205260026003611ec38360405f20612d6b565b50015416611ed557612f3f565b611e8f565b825f5260016020526003611eec8260405f20612d6b565b5001805463fffffffb811663ffffffff19909116179055612f3f565b507fcf33babc496bb6dc2942b39cb7b75766bbbadf7da50d176ff8c513e9911402395f80a2005b34610230576020366003190112610230576004355f52600460205260405f20805490611f5a82612fdd565b91611f686040519384612e74565b8083526020830180925f5260205f205f915b838310611fe757848660405191829160208301906020845251809152604083019060408160051b85010192915f905b828210611fb857505050500390f35b91936001919395506020611fd78192603f198a82030186528851612e95565b9601920192018594939192611fa9565b600160208192604051611ffe8161020a8189612dbc565b815201920192019190611f7a565b34610230576020366003190112610230576004355f525f6020526101a060405f2060ff60018254920154604051926001600160401b038116845260018060a01b038160401c16602085015261206960408501848360e01c16612ee9565b828160e81c166060850152828160f01c16608085015260f81c60a084015261ffff811660c0840152818160101c1660e084015263ffffffff8160181c16610100840152818160381c16610120840152818160401c16610140840152818160481c1661016084015260501c16610180820152f35b34610230576040366003190112610230576004356024356001600160401b0381116102305761210f903690600401612eb9565b909161211a816130b6565b815f52600260205260405f2060018060a01b0382165f5260205260ff60405f205416156106815761214b908261313c565b1561067257612159816130b6565b91815f525f60205260405f209384549160ff8360e01c166007811015610400576001036103f157835f52600160205260405f20926121a3600188019460ff865460101c1690612d6b565b50546001600160a01b039081169087160361247257845f52600460205260405f2054155f1461244e5760f01c60ff16811061243f575b835f52600460205260405f2091600160401b821161064f5782548284558083106123c8575b505f928352602083209290805b8383106122e2575050505050600160ff825460101c16019060ff82116116195760ff7f4ddfdf4c78d4cc7a24e7c9cab7b0a647688b6cf6ce58cededceb204846622d769161227561225d869586613180565b825462ff0000191660109190911b62ff000016178255565b805466ffffffff00000019164260181b66ffffffff000000161790819055604080516001600160a01b0397909716875260ff60109290921c92909216908116602087015294a25f52600160205260405f205411156122cf57005b805460ff60e01b1916600160e11b179055005b6122ec8183612f50565b906001600160401b03821161064f5761230f826123098954612d84565b89612f98565b5f90601f831160011461235e5792612344836001959460209487965f926123535750508160011b915f199060031b1c19161790565b88555b0195019201919361220b565b013590508f80610817565b601f19831691885f5260205f20925f5b8181106123b05750936020936001969387969383889510612397575b505050811b018855612347565b01355f19600384901b60f8161c191690558e808061238a565b9193602060018192878701358155019501920161236e565b835f528260205f2091820191015b8181106123e357506121fe565b806123f060019254612d84565b806123fd575b50016123d6565b601f8111831461241257505f81555b8a6123f6565b61242e90825f5283601f60205f20920160051c82019101612f82565b805f525f602081208183555561240c565b63d1d2a30960e01b5f5260045ffd5b50835f52600460205260405f20548103156121d95763d1d2a30960e01b5f5260045ffd5b631cc191eb60e31b5f5260045ffd5b346102305761248f36612d55565b905f52600460205260405f209081548110156102305761021161020a91610225935f5260205f200160405192838092612dbc565b346102305760203660031901126102305760043560ff811680820361023057600d54915f1983146116195760018301600d5560405161250181612e3d565b6001600160401b03841681528360208201338152604083015f815260608401958652608084015f815260a085015f815260c08601955f875260e08101905f825261010081019263ffffffff421684526101208201945f86526101408301965f88526101608401985f8a5261018085019a5f8c525f525f6020526001600160401b0360405f20955116855491600160401b600160e01b03905160401b169163ffffffff60e01b1617178455519b60078d101561040057835490519151925160f09390931b60ff60f01b1660e89290921b60ff60e81b1660e09d909d1b60ff60e01b166001600160e01b03909116179b909b179a909a1760f89a909a1b6001600160f81b03191699909917895595516001909801805496519151925193519451955160489690961b60ff60481b16604095861b60ff60401b1660389590951b60ff60381b1660189490941b66ffffffff0000001660109390931b62ff00001661ffff909a166affffffffffffffffffffff1990981697909717989098171717179290921760509190911b60ff60501b1617909255815133815260ff91909116602082015282917fac131287fe8417903d89f4eb472bc1d0da81641ef725569346dab6c2879a671791a2604051908152602090f35b34610230576126e136612d55565b905f52600160205260405f209081548110156102305761270091612d6b565b5060018060a01b0381541660405191612727836127208160018501612dbc565b0384612e74565b61277b63ffffffff60036040519361274d856127468160028501612dbc565b0386612e74565b0154169161276d6040519586958652608060208701526080860190612e95565b908482036040860152612e95565b9060608301520390f35b34610230575f366003190112610230576020600d54604051908152f35b34610230576040366003190112610230576004356127be612d29565b6127c7826130b6565b825f52600260205260405f2060018060a01b0382165f5260205260ff60405f20541615610681576127f8908361313c565b1561067257612806826130b6565b90825f525f60205260405f209160ff835460e01c166007811015610400576004036103f157835f52600260205260405f2060018060a01b0383165f5260205260ff60405f205416156106815761285c828561313c565b156106725783917fcfff1651bcea794952a516ce970ab17518a85210bd939aaeaac670a8d3e65ec791835f52600360205260405f2060018060a01b0382165f52602052600460036128bf60ff60405f205416875f52600160205260405f20612d6b565b5001545f8681526006602090815260408083206001600160a01b0387811685529252909120549290911615911680151580612cff575b612cc3575b505f8581526006602090815260408083206001600160a01b03868116855290835281842080546001600160a01b0319169188169182179055888452600783528184209084529091529020805460ff90612954908216612f3f565b1660ff19825416179055612c3b575b604080516001600160a01b03928316815292909116602083015290a260ff600182015460401c16905460f81c1461299657005b805f525f60205260405f20815f5f825f52600160205260405f205f908054915b8260ff821610612bb557505050835460f91c60ff82161180612ba3575b15612b6d5781612a047f6b571d1c11516ea63adff1048766bdfa510e9c5bf4e32ca29d4ba11e16edf2f1938561331f565b837fb1ed64d561b0179e61c72bf46d0809a99dac99baeb98fc9f5d13be1f6c2e3f82608060405160018060a01b0385168152604060208201526009604082015268159bdd1959081bdd5d60ba1b6060820152a2604080516001600160a01b0392909216825260ff929092166020820152a25b815f52600160205260405f205f5b815460ff82161015612afc5780612a9e612af79284612d6b565b50545f8681526006602090815260408083206001600160a01b0390941680845293825280832080546001600160a01b03191690558883526007825280832093835292905220805460ff191690556003611eec8285612d6b565b612a84565b5050815f525f602052600160405f200160ff60401b198154169055612b208261338e565b15612b2757005b805460ff60e01b1916600560e01b178155600101805461ffff60481b191690557f34b0c4c95aa7776d35dbd8b24afd53388828c61c26fd5a6b11a21809662440875f80a2005b50507f6b571d1c11516ea63adff1048766bdfa510e9c5bf4e32ca29d4ba11e16edf2f1604080515f81525f6020820152a2612a76565b506001600160a01b03821615156129d3565b90919293945060026003612bc98385612d6b565b50015416612be6575b612bdb90612f3f565b9086949392916129b6565b612bf08183612d6b565b50545f8881526007602090815260408083206001600160a01b039094168084529390915290205460ff9081169086168111612c2d575b5050612bd2565b9095509350612bdb88612c26565b835f52600360205260405f2060018060a01b0382165f526020526003612c7360ff60405f205416865f52600160205260405f20612d6b565b500163ffffffff600481835416171663ffffffff19825416179055612cbe60018601612ca560ff825460401c16612f3f565b60ff60401b82549160401b169060ff60401b1916179055565b612963565b855f52600760205260405f209060018060a01b03165f5260205260405f2060ff612cef81835416612f30565b1660ff19825416179055876128fa565b50855f52600760205260405f2060018060a01b0382165f5260205260ff60405f20541615156128f5565b602435906001600160a01b038216820361023057565b600435906001600160a01b038216820361023057565b6040906003190112610230576004359060243590565b80548210156108a7575f5260205f209060021b01905f90565b90600182811c92168015612db2575b6020831014612d9e57565b634e487b7160e01b5f52602260045260245ffd5b91607f1691612d93565b5f9291815491612dcb83612d84565b8083529260018116908115612e205750600114612de757505050565b5f9081526020812093945091925b838310612e06575060209250010190565b600181602092949394548385870101520191019190612df5565b915050602093945060ff929192191683830152151560051b010190565b6101a081019081106001600160401b0382111761064f57604052565b608081019081106001600160401b0382111761064f57604052565b90601f801991011681019081106001600160401b0382111761064f57604052565b805180835260209291819084018484015e5f828201840152601f01601f1916010190565b9181601f84011215610230578235916001600160401b038311610230576020808501948460051b01011161023057565b9060078210156104005752565b9181601f84011215610230578235916001600160401b038311610230576020838186019501011161023057565b9060048210156104005752565b60ff168015611619575f190190565b60ff1660ff81146116195760010190565b903590601e198136030182121561023057018035906001600160401b0382116102305760200191813603831361023057565b818110612f8d575050565b5f8155600101612f82565b9190601f8111612fa757505050565b612fd1925f5260205f20906020601f840160051c83019310612fd3575b601f0160051c0190612f82565b565b9091508190612fc4565b6001600160401b03811161064f5760051b60200190565b6001600160401b03811161064f57601f01601f191660200190565b3d15613039573d9061302082612ff4565b9161302e6040519384612e74565b82523d5f602084013e565b606090565b1561304557565b60405162461bcd60e51b8152602060048201526013602482015272115512081d1c985b9cd9995c8819985a5b1959606a1b6044820152606490fd5b92919261308c82612ff4565b9161309a6040519384612e74565b829481845281830111610230578281602093845f960137010152565b335f908152600c60205260409020546001600160a01b031690816130da5750503390565b815f52600b60205260405f2060ff6001820154161561312d575463ffffffff8160a01c16421161311e5760c01c0361310f5790565b637ce3c8fd60e11b5f5260045ffd5b630fe82d2560e11b5f5260045ffd5b635f8874dd60e11b5f5260045ffd5b613177600391600293815f528360205260405f209060018060a01b03165f5260205260ff60405f205416905f52600160205260405f20612d6b565b50015416151590565b5f52600160205260405f20908154905b8160ff8216106131a3575060ff91501690565b600260036131b18386612d6b565b500154166131c7576131c290612f3f565b613190565b91505090565b6001600160a01b03165f818152600b60205260409020600101549192909160ff166132e9575b6138404201804211611619577f290e52799b1ac63207e28c21f7f1f387cf8ea9257dde8e363a02e157d8e4c6589163ffffffff604092166132bf83519661323988612e59565b6001600160a01b039081168089526020808a018581526001600160401b038716888c01908152600160608d018181525f8d8152600b909552938a90209c51925191516001600160c01b031960c09190911b169290951663ffffffff60a01b60a09290921b9190911617178a555198909101805460ff191698151560ff1698909817909755565b855f52600c602052825f20856001600160601b0360a01b82541617905582519182526020820152a3565b5f828152600b60209081526040808320546001600160a01b03168352600c909152902080546001600160a01b03191690556131f3565b90815f52600360205260405f209060018060a01b03165f52602052600361335860ff60405f205416835f52600160205260405f20612d6b565b500163ffffffff63fffffffd8254161663ffffffff198254161790555f525f602052612fd160405f20610d01815460f81c612f30565b805f525f60205260405f206001815460f81c11156133ac5750505f90565b805460ff60e01b1916600360e11b179081905560f81c613425577fd778487128ba4386ebcfb2703af01f8a2a2b8663f880622d26a77a29397e68f361341d6040516133f8604082612e74565b60048152634472617760e01b6020820152604051918291602083526020830190612e95565b0390a2600190565b7fd778487128ba4386ebcfb2703af01f8a2a2b8663f880622d26a77a29397e68f361341d604051613457604082612e74565b60148152734c61737420706c61796572207374616e64696e6760601b602082015261021156fea2646970667358221220f9f76a683b13eb13130400250ca703097b33be910635498ae19ddd89ec8397ef64736f6c634300081c0033",
  "linkReferences": {},
  "deployedLinkReferences": {},
  "immutableReferences": {},
  "inputSourceName": "project/contracts/MafiaPortalV3.sol",
  "buildInfoId": "solc-0_8_28-eb6a59dbb8f74314d8cbd82b8a55c5df4ba5c92c"
}