{
  "_format": "hh3-artifact-1",
  "contractName": "MafiaPortal",
  "sourceName": "contracts/MafiaPortal.sol",
  "abi": [
    {
      "inputs": [],
      "name": "AlreadyJoined",
      "type": "error"
    },
    {
      "inputs": [],
      "name": "NotHost",
      "type": "error"
    },
    {
      "inputs": [],
      "name": "RoomNotFound",
      "type": "error"
    },
    {
      "inputs": [],
      "name": "WrongPhase",
      "type": "error"
    },
    {
      "anonymous": false,
      "inputs": [
        {
          "indexed": true,
          "internalType": "uint256",
          "name": "roomId",
          "type": "uint256"
        },
        {
          "indexed": false,
          "internalType": "uint256",
          "name": "dayNumber",
          "type": "uint256"
        }
      ],
      "name": "DayStarted",
      "type": "event"
    },
    {
      "anonymous": false,
      "inputs": [
        {
          "indexed": true,
          "internalType": "uint256",
          "name": "roomId",
          "type": "uint256"
        },
        {
          "indexed": false,
          "internalType": "address",
          "name": "byPlayer",
          "type": "address"
        }
      ],
      "name": "DeckSubmitted",
      "type": "event"
    },
    {
      "anonymous": false,
      "inputs": [
        {
          "indexed": true,
          "internalType": "uint256",
          "name": "roomId",
          "type": "uint256"
        }
      ],
      "name": "GameStarted",
      "type": "event"
    },
    {
      "anonymous": false,
      "inputs": [
        {
          "indexed": true,
          "internalType": "uint256",
          "name": "roomId",
          "type": "uint256"
        },
        {
          "indexed": false,
          "internalType": "address",
          "name": "to",
          "type": "address"
        },
        {
          "indexed": false,
          "internalType": "string",
          "name": "encryptedKey",
          "type": "string"
        }
      ],
      "name": "KeyShared",
      "type": "event"
    },
    {
      "anonymous": false,
      "inputs": [
        {
          "indexed": true,
          "internalType": "uint256",
          "name": "roomId",
          "type": "uint256"
        },
        {
          "indexed": false,
          "internalType": "address",
          "name": "player",
          "type": "address"
        },
        {
          "indexed": false,
          "internalType": "string",
          "name": "nickname",
          "type": "string"
        }
      ],
      "name": "PlayerJoined",
      "type": "event"
    },
    {
      "anonymous": false,
      "inputs": [
        {
          "indexed": true,
          "internalType": "uint256",
          "name": "roomId",
          "type": "uint256"
        },
        {
          "indexed": false,
          "internalType": "address",
          "name": "player",
          "type": "address"
        }
      ],
      "name": "RoleConfirmed",
      "type": "event"
    },
    {
      "anonymous": false,
      "inputs": [
        {
          "indexed": true,
          "internalType": "uint256",
          "name": "roomId",
          "type": "uint256"
        },
        {
          "indexed": false,
          "internalType": "address",
          "name": "host",
          "type": "address"
        },
        {
          "indexed": false,
          "internalType": "uint256",
          "name": "maxPlayers",
          "type": "uint256"
        }
      ],
      "name": "RoomCreated",
      "type": "event"
    },
    {
      "inputs": [
        {
          "internalType": "uint256",
          "name": "_roomId",
          "type": "uint256"
        }
      ],
      "name": "confirmRole",
      "outputs": [],
      "stateMutability": "nonpayable",
      "type": "function"
    },
    {
      "inputs": [
        {
          "internalType": "uint256",
          "name": "_maxPlayers",
          "type": "uint256"
        },
        {
          "internalType": "string",
          "name": "_hostNickname",
          "type": "string"
        },
        {
          "internalType": "string",
          "name": "_publicKey",
          "type": "string"
        }
      ],
      "name": "createRoom",
      "outputs": [],
      "stateMutability": "nonpayable",
      "type": "function"
    },
    {
      "inputs": [
        {
          "internalType": "uint256",
          "name": "_roomId",
          "type": "uint256"
        }
      ],
      "name": "getDeck",
      "outputs": [
        {
          "internalType": "string[]",
          "name": "",
          "type": "string[]"
        }
      ],
      "stateMutability": "view",
      "type": "function"
    },
    {
      "inputs": [
        {
          "internalType": "uint256",
          "name": "_roomId",
          "type": "uint256"
        }
      ],
      "name": "getMyKey",
      "outputs": [
        {
          "internalType": "string",
          "name": "",
          "type": "string"
        }
      ],
      "stateMutability": "view",
      "type": "function"
    },
    {
      "inputs": [
        {
          "internalType": "uint256",
          "name": "_roomId",
          "type": "uint256"
        }
      ],
      "name": "getPlayers",
      "outputs": [
        {
          "components": [
            {
              "internalType": "address",
              "name": "wallet",
              "type": "address"
            },
            {
              "internalType": "string",
              "name": "nickname",
              "type": "string"
            },
            {
              "internalType": "string",
              "name": "publicKey",
              "type": "string"
            },
            {
              "internalType": "bool",
              "name": "hasConfirmedRole",
              "type": "bool"
            }
          ],
          "internalType": "struct MafiaPortal.Player[]",
          "name": "",
          "type": "tuple[]"
        }
      ],
      "stateMutability": "view",
      "type": "function"
    },
    {
      "inputs": [
        {
          "internalType": "uint256",
          "name": "_roomId",
          "type": "uint256"
        },
        {
          "internalType": "string",
          "name": "_nickname",
          "type": "string"
        },
        {
          "internalType": "string",
          "name": "_publicKey",
          "type": "string"
        }
      ],
      "name": "joinRoom",
      "outputs": [],
      "stateMutability": "nonpayable",
      "type": "function"
    },
    {
      "inputs": [
        {
          "internalType": "uint256",
          "name": "",
          "type": "uint256"
        },
        {
          "internalType": "address",
          "name": "",
          "type": "address"
        }
      ],
      "name": "keyMailbox",
      "outputs": [
        {
          "internalType": "string",
          "name": "",
          "type": "string"
        }
      ],
      "stateMutability": "view",
      "type": "function"
    },
    {
      "inputs": [],
      "name": "nextRoomId",
      "outputs": [
        {
          "internalType": "uint256",
          "name": "",
          "type": "uint256"
        }
      ],
      "stateMutability": "view",
      "type": "function"
    },
    {
      "inputs": [
        {
          "internalType": "uint256",
          "name": "",
          "type": "uint256"
        },
        {
          "internalType": "uint256",
          "name": "",
          "type": "uint256"
        }
      ],
      "name": "roomDeck",
      "outputs": [
        {
          "internalType": "string",
          "name": "",
          "type": "string"
        }
      ],
      "stateMutability": "view",
      "type": "function"
    },
    {
      "inputs": [
        {
          "internalType": "uint256",
          "name": "",
          "type": "uint256"
        },
        {
          "internalType": "uint256",
          "name": "",
          "type": "uint256"
        }
      ],
      "name": "roomPlayers",
      "outputs": [
        {
          "internalType": "address",
          "name": "wallet",
          "type": "address"
        },
        {
          "internalType": "string",
          "name": "nickname",
          "type": "string"
        },
        {
          "internalType": "string",
          "name": "publicKey",
          "type": "string"
        },
        {
          "internalType": "bool",
          "name": "hasConfirmedRole",
          "type": "bool"
        }
      ],
      "stateMutability": "view",
      "type": "function"
    },
    {
      "inputs": [
        {
          "internalType": "uint256",
          "name": "",
          "type": "uint256"
        }
      ],
      "name": "rooms",
      "outputs": [
        {
          "internalType": "uint256",
          "name": "id",
          "type": "uint256"
        },
        {
          "internalType": "address",
          "name": "host",
          "type": "address"
        },
        {
          "internalType": "enum MafiaPortal.GamePhase",
          "name": "phase",
          "type": "uint8"
        },
        {
          "internalType": "uint256",
          "name": "maxPlayers",
          "type": "uint256"
        },
        {
          "internalType": "uint256",
          "name": "playersCount",
          "type": "uint256"
        },
        {
          "internalType": "uint256",
          "name": "dayCount",
          "type": "uint256"
        }
      ],
      "stateMutability": "view",
      "type": "function"
    },
    {
      "inputs": [
        {
          "internalType": "uint256",
          "name": "_roomId",
          "type": "uint256"
        },
        {
          "internalType": "address",
          "name": "_to",
          "type": "address"
        },
        {
          "internalType": "string",
          "name": "_encryptedKey",
          "type": "string"
        }
      ],
      "name": "shareKey",
      "outputs": [],
      "stateMutability": "nonpayable",
      "type": "function"
    },
    {
      "inputs": [
        {
          "internalType": "uint256",
          "name": "_roomId",
          "type": "uint256"
        }
      ],
      "name": "startShuffle",
      "outputs": [],
      "stateMutability": "nonpayable",
      "type": "function"
    },
    {
      "inputs": [
        {
          "internalType": "uint256",
          "name": "_roomId",
          "type": "uint256"
        },
        {
          "internalType": "string[]",
          "name": "_deck",
          "type": "string[]"
        }
      ],
      "name": "submitDeck",
      "outputs": [],
      "stateMutability": "nonpayable",
      "type": "function"
    }
  ],
  "bytecode": "0x608060405260016004553480156013575f5ffd5b5061195c806100215f395ff3fe608060405234801561000f575f5ffd5b50600436106100e5575f3560e01c80635099fae211610088578063c21a2ae611610063578063c21a2ae614610236578063c4e4a68e14610249578063d275ecbf1461025c578063f4e887c01461026f575f5ffd5b80635099fae2146101fd5780636b41f5f3146102105780637fcd07d114610223575f5ffd5b8063139db82d116100c3578063139db82d146101485780631bae0ac81461015d5780632a51fb3a146101bd578063460e2049146101dd575f5ffd5b806307a52cab146100e957806309ed3e22146101055780630f8d2b6814610128575b5f5ffd5b6100f260045481565b6040519081526020015b60405180910390f35b6101186101133660046111b1565b610282565b6040516100fc94939291906111ff565b61013b6101363660046111b1565b6103e1565b6040516100fc9190611248565b61015b6101563660046112a6565b610492565b005b6101ab61016b3660046113da565b5f602081905290815260409020805460018201546002830154600384015460049094015492936001600160a01b03831693600160a01b90930460ff169286565b6040516100fc96959493929190611405565b6101d06101cb3660046113da565b610536565b6040516100fc919061145a565b6101f06101eb3660046113da565b61061b565b6040516100fc91906114bd565b61015b61020b3660046113da565b6107c6565b61015b61021e3660046115a2565b6109f6565b61015b6102313660046115a2565b610cb7565b61013b610244366004611636565b610ef6565b61015b610257366004611660565b610f19565b61015b61026a3660046113da565b610f7a565b61013b61027d3660046113da565b611049565b6001602052815f5260405f20818154811061029b575f80fd5b5f918252602090912060049091020180546001820180546001600160a01b0390921694509192506102cb906116b6565b80601f01602080910402602001604051908101604052809291908181526020018280546102f7906116b6565b80156103425780601f1061031957610100808354040283529160200191610342565b820191905f5260205f20905b81548152906001019060200180831161032557829003601f168201915b505050505090806002018054610357906116b6565b80601f0160208091040260200160405190810160405280929190818152602001828054610383906116b6565b80156103ce5780601f106103a5576101008083540402835291602001916103ce565b820191905f5260205f20905b8154815290600101906020018083116103b157829003601f168201915b5050506003909301549192505060ff1684565b6002602052815f5260405f2081815481106103fa575f80fd5b905f5260205f20015f91509150508054610413906116b6565b80601f016020809104026020016040519081016040528092919081815260200182805461043f906116b6565b801561048a5780601f106104615761010080835404028352916020019161048a565b820191905f5260205f20905b81548152906001019060200180831161046d57829003601f168201915b505050505081565b60015f83815260208190526040902060010154600160a01b900460ff1660068111156104c0576104c06113f1565b146104de576040516338961af360e21b815260040160405180910390fd5b5f82815260026020908152604090912082516104fc928401906110f3565b5060405133815282907f1627cc2f10026e05e217e1f88254e0ca2a3a56b51beb97ddd134e329d1dea0fc9060200160405180910390a25050565b606060025f8381526020019081526020015f20805480602002602001604051908101604052809291908181526020015f905b82821015610610578382905f5260205f20018054610585906116b6565b80601f01602080910402602001604051908101604052809291908181526020018280546105b1906116b6565b80156105fc5780601f106105d3576101008083540402835291602001916105fc565b820191905f5260205f20905b8154815290600101906020018083116105df57829003601f168201915b505050505081526020019060010190610568565b505050509050919050565b606060015f8381526020019081526020015f20805480602002602001604051908101604052809291908181526020015f905b82821015610610575f84815260209081902060408051608081019091526004850290910180546001600160a01b031682526001810180549293919291840191610695906116b6565b80601f01602080910402602001604051908101604052809291908181526020018280546106c1906116b6565b801561070c5780601f106106e35761010080835404028352916020019161070c565b820191905f5260205f20905b8154815290600101906020018083116106ef57829003601f168201915b50505050508152602001600282018054610725906116b6565b80601f0160208091040260200160405190810160405280929190818152602001828054610751906116b6565b801561079c5780601f106107735761010080835404028352916020019161079c565b820191905f5260205f20905b81548152906001019060200180831161077f57829003601f168201915b50505091835250506003919091015460ff161515602091820152908252600192909201910161064d565b5f8181526001602052604081209080805b835481101561093b57336001600160a01b03168482815481106107fc576107fc6116ee565b5f9182526020909120600490910201546001600160a01b0316036108f85783818154811061082c5761082c6116ee565b5f91825260209091206003600490920201015460ff16156108885760405162461bcd60e51b8152602060048201526011602482015270105b1c9958591e4818dbdb999a5c9b5959607a1b60448201526064015b60405180910390fd5b600184828154811061089c5761089c6116ee565b5f91825260209182902060049190910201600301805460ff1916921515929092179091556040513381526001935086917f82b52ddf0195aa8ac16480985f5042052aa742563721520fa34764d253824d43910160405180910390a25b83818154811061090a5761090a6116ee565b5f91825260209091206003600490920201015460ff1615610933578261092f81611702565b9350505b6001016107d7565b50806109785760405162461bcd60e51b815260206004820152600c60248201526b2737ba103090383630bcb2b960a11b604482015260640161087f565b5f8481526020819052604090206003015482036109f0575f84815260208181526040918290206001808201805460ff60a01b1916600360a01b1790556004909101819055915191825285917fa9b4e96158ed085745975f198fa026959997245ae7e7aed9cd0252ce02b2107191015b60405180910390a25b50505050565b841580610a0557506004548510155b15610a2357604051637954354d60e11b815260040160405180910390fd5b5f858152602081905260408120906001820154600160a01b900460ff166006811115610a5157610a516113f1565b14610a955760405162461bcd60e51b815260206004820152601460248201527311d85b5948185b1c9958591e481cdd185c9d195960621b604482015260640161087f565b8060020154816003015410610adb5760405162461bcd60e51b815260206004820152600c60248201526b149bdbdb481a5cc8199d5b1b60a21b604482015260640161087f565b5f868152600160205260408120905b8154811015610b4d57336001600160a01b0316828281548110610b0f57610b0f6116ee565b5f9182526020909120600490910201546001600160a01b031603610b4557604051621d934160e11b815260040160405180910390fd5b600101610aea565b50806040518060800160405280336001600160a01b0316815260200188888080601f0160208091040260200160405190810160405280939291908181526020018383808284375f92019190915250505090825250604080516020601f8901819004810282018101909252878152918101919088908890819084018382808284375f920182905250938552505050602091820181905283546001808201865594825290829020835160049092020180546001600160a01b0319166001600160a01b03909216919091178155908201519192909190820190610c2d9082611772565b5060408201516002820190610c429082611772565b50606091909101516003918201805460ff191691151591909117905582018054905f610c6d83611702565b9190505550867fa259bab503f65f6ae62d4f6a412b41b967799a284f69f21ba61362cf04e5eafa338888604051610ca69392919061182d565b60405180910390a250505050505050565b60028510158015610cc9575060108511155b610d0c5760405162461bcd60e51b8152602060048201526014602482015273125b9d985b1a59081c1b185e595c8818dbdd5b9d60621b604482015260640161087f565b600480545f81815260208181526040808320938455600180850180546001600160a81b03191660ff60a01b193390811691909117909155600286018c90558587018590559554845282529182902082516080810184529485528251601f89018390048302810183019093528783529293918282019189908990819084018382808284375f92019190915250505090825250604080516020601f8801819004810282018101909252868152918101919087908790819084018382808284375f920182905250938552505050602091820181905283546001808201865594825290829020835160049092020180546001600160a01b0319166001600160a01b03909216919091178155908201519192909190820190610e299082611772565b5060408201516002820190610e3e9082611772565b50606091909101516003918201805460ff191691151591909117905560019082015560045460408051338152602081018990527fac131287fe8417903d89f4eb472bc1d0da81641ef725569346dab6c2879a6717910160405180910390a26004547fa259bab503f65f6ae62d4f6a412b41b967799a284f69f21ba61362cf04e5eafa338787604051610ed29392919061182d565b60405180910390a260048054905f610ee983611702565b9190505550505050505050565b600360209081525f928352604080842090915290825290208054610413906116b6565b5f8481526003602090815260408083206001600160a01b03871684529091529020610f4582848361186c565b50837fe4a7855f88ef0e52a4504a8ac826d16af53025ac471d92626f7ad77806ab78cb8484846040516109e79392919061182d565b5f818152602081905260409020600101546001600160a01b03163314610fb357604051638ff4f0c960e01b815260040160405180910390fd5b5f5f82815260208190526040902060010154600160a01b900460ff166006811115610fe057610fe06113f1565b14610ffe576040516338961af360e21b815260040160405180910390fd5b5f81815260208190526040808220600101805460ff60a01b1916600160a01b1790555182917f50ad08f58a27f2851d7e3a1b3a6a46b290f2ce677e99642d30ff639721e7779091a250565b5f8181526003602090815260408083203384529091529020805460609190611070906116b6565b80601f016020809104026020016040519081016040528092919081815260200182805461109c906116b6565b80156110e75780601f106110be576101008083540402835291602001916110e7565b820191905f5260205f20905b8154815290600101906020018083116110ca57829003601f168201915b50505050509050919050565b828054828255905f5260205f20908101928215611137579160200282015b8281111561113757825182906111279082611772565b5091602001919060010190611111565b50611143929150611147565b5090565b80821115611143575f61115a8282611163565b50600101611147565b50805461116f906116b6565b5f825580601f1061117e575050565b601f0160209004905f5260205f209081019061119a919061119d565b50565b5b80821115611143575f815560010161119e565b5f5f604083850312156111c2575f5ffd5b50508035926020909101359150565b5f81518084528060208401602086015e5f602082860101526020601f19601f83011685010191505092915050565b6001600160a01b03851681526080602082018190525f90611222908301866111d1565b828103604084015261123481866111d1565b915050821515606083015295945050505050565b602081525f61125a60208301846111d1565b9392505050565b634e487b7160e01b5f52604160045260245ffd5b604051601f8201601f1916810167ffffffffffffffff8111828210171561129e5761129e611261565b604052919050565b5f5f604083850312156112b7575f5ffd5b82359150602083013567ffffffffffffffff8111156112d4575f5ffd5b8301601f810185136112e4575f5ffd5b803567ffffffffffffffff8111156112fe576112fe611261565b8060051b61130e60208201611275565b91825260208184018101929081019088841115611329575f5ffd5b6020850192505b838310156113cb57823567ffffffffffffffff81111561134e575f5ffd5b8501603f81018a1361135e575f5ffd5b602081013567ffffffffffffffff81111561137b5761137b611261565b61138e601f8201601f1916602001611275565b8181526040838301018c10156113a2575f5ffd5b816040840160208301375f60208383010152808552505050602082019150602083019250611330565b80955050505050509250929050565b5f602082840312156113ea575f5ffd5b5035919050565b634e487b7160e01b5f52602160045260245ffd5b8681526001600160a01b038616602082015260c081016007861061143757634e487b7160e01b5f52602160045260245ffd5b8560408301528460608301528360808301528260a0830152979650505050505050565b5f602082016020835280845180835260408501915060408160051b8601019250602086015f5b828110156114b157603f1987860301845261149c8583516111d1565b94506020938401939190910190600101611480565b50929695505050505050565b5f602082016020835280845180835260408501915060408160051b8601019250602086015f5b828110156114b157868503603f19018452815180516001600160a01b0316865260208082015160809188018290529061151e908801826111d1565b90506040820151878203604089015261153782826111d1565b6060938401511515989093019790975250945060209384019391909101906001016114e3565b5f5f83601f84011261156d575f5ffd5b50813567ffffffffffffffff811115611584575f5ffd5b60208301915083602082850101111561159b575f5ffd5b9250929050565b5f5f5f5f5f606086880312156115b6575f5ffd5b85359450602086013567ffffffffffffffff8111156115d3575f5ffd5b6115df8882890161155d565b909550935050604086013567ffffffffffffffff8111156115fe575f5ffd5b61160a8882890161155d565b969995985093965092949392505050565b80356001600160a01b0381168114611631575f5ffd5b919050565b5f5f60408385031215611647575f5ffd5b823591506116576020840161161b565b90509250929050565b5f5f5f5f60608587031215611673575f5ffd5b843593506116836020860161161b565b9250604085013567ffffffffffffffff81111561169e575f5ffd5b6116aa8782880161155d565b95989497509550505050565b600181811c908216806116ca57607f821691505b6020821081036116e857634e487b7160e01b5f52602260045260245ffd5b50919050565b634e487b7160e01b5f52603260045260245ffd5b5f6001820161171f57634e487b7160e01b5f52601160045260245ffd5b5060010190565b601f82111561176d57805f5260205f20601f840160051c8101602085101561174b5750805b601f840160051c820191505b8181101561176a575f8155600101611757565b50505b505050565b815167ffffffffffffffff81111561178c5761178c611261565b6117a08161179a84546116b6565b84611726565b6020601f8211600181146117d2575f83156117bb5750848201515b5f19600385901b1c1916600184901b17845561176a565b5f84815260208120601f198516915b8281101561180157878501518255602094850194600190920191016117e1565b508482101561181e57868401515f19600387901b60f8161c191681555b50505050600190811b01905550565b6001600160a01b03841681526040602082018190528101829052818360608301375f818301606090810191909152601f909201601f1916010192915050565b67ffffffffffffffff83111561188457611884611261565b6118988361189283546116b6565b83611726565b5f601f8411600181146118c9575f85156118b25750838201355b5f19600387901b1c1916600186901b17835561176a565b5f83815260208120601f198716915b828110156118f857868501358255602094850194600190920191016118d8565b5086821015611914575f1960f88860031b161c19848701351681555b505060018560011b018355505050505056fea2646970667358221220a5d1d71a2b05e4b4547d4f81bdedb340ee5f4832d7ed42e7e477a9d0bd64228a64736f6c634300081c0033",
  "linkReferences": {},
  "deployedLinkReferences": {},
  "immutableReferences": {},
  "inputSourceName": "project/contracts/MafiaPortal.sol",
  "buildInfoId": "solc-0_8_28-e21603999e8ad60fb338bfe3588efb0fd0b03921"
}